:100000000C949B000C94C3000C94C3000C94BC0D86
:100010000C94BC0D0C94BC0D0C94C3000C94DC0A25
:100020000C94C3000C94C3000C94C3000C94C80B34
:100030000C94C3000C94C3000C94C3000C94C30034
:100040000C9427100C94C3000C9473130C94A513F8
:100050000C94C3000C94C3000C94C3000C94C30014
:100060000C94FA0E0C94C300084AD73B3BCE016EA9
:1000700084BCBFFDC12F3D6C74319ABD56833DDAFF
:100080003D00C77F11BED9E4BB4C3E916BAAAABE0E
:10009000000000803F000000000800020100000393
:1000A0000407000000000000000001020408102006
:1000B00040800102040810200102040810200404FA
:1000C0000404040404040202020202020303030300
:1000D00003030000000023002600290000000000A8
:1000E000250028002B0000000000240027002A0023
:1000F0004E414E494E495459494E46CDCCCC3D0A0D
:10010000D7233C17B7D13877CC2B329595E6241FEF
:10011000B14F0A000020410000C84200401C4620A8
:10012000BCBE4CCA1B0E5AAEC59D74005606AA0A28
:10013000CD0ED513AE0A11241FBECFEFD8E0DEBF1F
:10014000CDBF11E0A0E0B1E0EEE1F9E302C005901F
:100150000D92AA3AB107D9F725E0AAEAB1E001C0A9
:100160001D92AF3DB207E1F711E0C4E3D1E004C056
:100170002297FE010E94101ACC32D107C9F70E94C3
:100180007F160C94821C0C9400001816190614F4A7
:1001900060E001C061E08EE092E00E94A10B61E0AE
:1001A0008EE092E00E94B10B60E08EE092E00C9451
:1001B000B10B1816190614F460E001C061E082E189
:1001C00092E00E94A10B61E082E192E00E94B10BFB
:1001D00060E082E192E00C94B10B4F925F926F92DB
:1001E0007F928F929F92AF92BF92CF92DF92EF92C7
:1001F000FF92CF93DF93CDB7DEB7A4970FB6F894F5
:10020000DEBF0FBECDBF2B013C0169017A016091B9
:10021000500270915102882777FD8095982F0E9497
:10022000BB176D837E838F83988760915202709194
:100230005302882777FD8095982F0E94BB1769830A
:100240007A838B839C832D813E814F815885CA019F
:10025000B9010E9490166D877E878F87988B6D817C
:100260007E818F81988590582D813E814F81588560
:100270000E94C41869A37AA38BA39CA32D813E81FD
:100280004F8158856D857E858F8598890E94C41819
:100290004B015C0129813A814B815C81CA01B90122
:1002A0000E94C418698B7A8B8B8B9C8B29813A8135
:1002B0004B815C81CA01B9010E94901629813A8163
:1002C0004B815C810E94C4186D8F7E8F8F8F98A3A5
:1002D000A3019201C301B2010E94C4186D8B7E8BF1
:1002E0008F8B988FA7019601C701B6010E94C41891
:1002F000698F7A8F8B8F9C8F2D813E814F8158859E
:1003000069A17AA18BA19CA10E94C4182D813E8174
:100310004F8158850E94C41869877A878B879C878C
:1003200029813A814B815C81C501B4010E94C418C6
:1003300029813A814B815C810E94C4189B01AC01E8
:1003400069857A858B859C850E94901669877A8756
:100350008B879C87A3019201C501B4010E94C41838
:10036000A30192010E94C4189B01AC0169857A85A2
:100370008B859C850E94901669877A878B879C87DE
:10038000A7019601C501B4010E94C418A7019601F6
:100390000E94C4189B01AC0169857A858B859C8578
:1003A0000E9490164B015C0129813A814B815C814E
:1003B00069897A898B899C890E94C41829813A812C
:1003C0004B815C810E94C4189B01AC01C501B40142
:1003D0000E948F164B015C01A30192016D8D7E8DF1
:1003E0008F8D98A10E94C418A30192010E94C41885
:1003F0009B01AC01C501B4010E9490164B015C0148
:10040000A70196016D8D7E8D8F8D98A10E94C418D5
:10041000A70196010E94C4189B01AC01C501B4015B
:100420000E9490164B015C01A30192016D897E89A7
:100430008F89988D0E94C418A30192010E94C4184C
:100440009B01AC01C501B4010E948F164B015C01F8
:10045000A3019201C301B2010E949016A30192016F
:100460000E94C418A70196010E94C418A701960112
:100470000E94C4189B01AC01C501B4010E948F16F3
:100480004B015C01A7019601698D7A8D8B8D9C8D46
:100490000E94C418A70196010E94C4189B01AC01D8
:1004A000C501B4010E948F160E944B196D8F7E8F7B
:1004B0008F8F98A32D813E814F815885CA01B90144
:1004C0000E94C4184B015C01A70196016D857E85D1
:1004D0008F8598890E94C4182D8D3E8D4F8D58A10F
:1004E0000E9490166B017C01A30192016D857E85AF
:1004F0008F8598890E94C4189B01AC01C501B40185
:100500000E948F1629893A894B895C890E948F162F
:100510002D893E894F89588D0E949016298D3A8DDC
:100520004B8D5C8D0E9490169B01AC01C701B601FA
:100530000E9420170E94F4169B01AC010E949016A5
:100540006093FB017093FC018093FD019093FE0189
:1005500029813A814B815C816D857E858F85988963
:100560000E94C4186B017C019B01AC01C501B40160
:100570000E94901629893A894B895C890E949016BD
:100580002D893E894F89588D0E948F16298D3A8D6D
:100590004B8D5C8D0E948F164B015C01A70196016B
:1005A00069A17AA18BA19CA10E94901629893A8900
:1005B0004B895C890E948F162D893E894F89588D01
:1005C0000E949016298D3A8D4B8D5C8D0E9490165D
:1005D000A50194010E94C4180E944B19A501940121
:1005E0000E9420170E94F4169B01AC010E949016F5
:1005F0006093F7017093F8018093F9019093FA01E9
:10060000A4960FB6F894DEBF0FBECDBFDF91CF9199
:10061000FF90EF90DF90CF90BF90AF909F908F9022
:100620007F906F905F904F900895CF92DF92EF92FE
:10063000FF9269017A012BED3FE049E450E40E940A
:10064000201720E030E04AE756E40E94C41820E07A
:1006500030E040E05FE30E94C4180E9427190E9426
:1006600088176093F3017093F4018093F5019093E0
:10067000F6012BED3FE049E450E4C701B6010E94CA
:10068000201720E030E04AE756E40E94C41820E03A
:1006900030E040E05FE30E94C4180E9427190E94E6
:1006A00088176093EF017093F0018093F1019093AC
:1006B000F201FF90EF90DF90CF900895609150028B
:1006C000709151028091520290915302680F791FEC
:1006D000882777FD8095982F0E94BB172AE037ED79
:1006E00043E25CE30E948F16905860933E02709341
:1006F0003F02809340029093410210923A0210927E
:100700003B0210923C0210923D0220E030E0A90131
:100710000E94ED006091FB017091FC018091FD0150
:100720009091FE0160932A0270932B0280932C0219
:1007300090932D022091F7013091F8014091F90139
:100740005091FA0120932602309327024093280209
:10075000509329020E9415038091F3019091F401B6
:1007600090932102809320028091EF019091F001FB
:1007700090931F0280931E020895CF93DF9300D0C1
:10078000CDB7DEB7AE014F5F5F4F66E371E00E9409
:10079000731A89819A810E94181ABC018FEF91E027
:1007A0000E94570D0F900F90DF91CF910895CF9336
:1007B000DF9300D0CDB7DEB7AE014F5F5F4F66E38A
:1007C00071E00E94731A89819A810E94361A60939F
:1007D000EB017093EC018093ED019093EE010F908B
:1007E0000F90DF91CF910895CF93DF9300D0CDB7D5
:1007F000DEB7AE014F5F5F4F66E371E00E94731A90
:1008000089819A810E94181ABC0188E092E00E94B6
:10081000810A0F900F90DF91CF9108956CE271E003
:1008200080E495E00E94561460915002709151024C
:100830004AE050E080E495E00E94181560E280E410
:1008400095E00E94581460915202709153024AE060
:1008500050E080E495E00E94181560E280E495E0A5
:100860000E94581440913E0250913F026091400214
:100870007091410222E030E080E495E00E9423166E
:1008800060E280E495E00E94581440913A02509151
:100890003B0260913C0270913D0222E030E080E436
:1008A00095E00E94231660E280E495E00E945814CF
:1008B00068E371E080E495E00E94561460914E0276
:1008C00070E04AE050E080E495E00E9418156AE389
:1008D00071E080E495E00E94561460914F0270E050
:1008E0004AE050E080E495E00E9418156DE371E065
:1008F00080E495E00E945614609154027091550274
:100900004AE050E080E495E00E94181560E471E050
:1009100080E495E00E94561460915602709157024F
:100920004AE050E080E495E00E94181563E471E02D
:1009300080E495E00E94561460915802709159022B
:100940004AE050E080E495E00C9420150F931F934B
:10095000CF93DF9306E412E0C0E0D0E0F8016191AC
:100960008F01CE010E94BF1A2196C034D105B1F784
:10097000DF91CF911F910F9108950F931F93CF9304
:10098000DF9300D0CDB7DEB7AE014F5F5F4F66E3B8
:1009900071E00E94731A8C01012B09F43FC0AE0173
:1009A0004F5F5F4F66E371E080E090E00E94731A52
:1009B0008C01FC018081813439F4C80101960E94C8
:1009C000181A80934E02E8CF823439F4C801019698
:1009D0000E94181A80934F02DFCF8D3449F4C8016A
:1009E00001960E94181A9093510280935002D4CF1E
:1009F0008E3449F4C80101960E94181A909353024C
:100A000080935202C9CF843439F6C80101960E94FE
:100A1000181A9093550280935402BECF0E94A604E8
:100A20000F900F90DF91CF911F910F9108950F9329
:100A30001F93CF93DF9300D0CDB7DEB7AE014F5FEA
:100A40005F4F66E371E00E94731A8C01012B11F174
:100A5000AE014F5F5F4F66E371E080E090E00E947F
:100A6000731A8C01FC018081853549F4C801019617
:100A70000E94181A9093570280935602E7CF84344D
:100A800029F7C80101960E94181A90935902809381
:100A90005802DCCF66E471E080E495E00E945614D1
:100AA00060915602709157024AE050E080E495E070
:100AB0000E9418156CE471E080E495E00E945614E1
:100AC00060915802709159024AE050E080E495E04C
:100AD0000E9420150E94A6040F900F90DF91CF91E5
:100AE0001F910F910895CF93DF93EC010E94181A84
:100AF00083309105D9F054F48130910591F002973B
:100B000021F5CE01DF91CF910C9417058530910529
:100B1000B9F08CF00A97C9F4CE01DF91CF910C9413
:100B20000E04CE01DF91CF910C94BD03CE01DF9175
:100B3000CF910C94D703CE01DF91CF910C94F403A5
:100B4000CE01DF91CF910C94BD04DF91CF91089538
:100B50000F931F93CF93DF9306E412E0C0E0D0E041
:100B6000CE010E94B71AD8018D938D012196C03411
:100B7000D105B1F746E050E060E571E086E492E02F
:100B80000E94651A892BB1F167E571E080E495E078
:100B90000E94631480E4E6E4F2E0DF011D928A958E
:100BA000E9F786E0E0E5F1E0A6E4B2E001900D921D
:100BB0008A95E1F788EA90E0909351028093500281
:100BC0008EEC90E0909353028093520280E590E087
:100BD000909355028093540280EA90E090935702DC
:100BE000809356028AE590E09093590280935802D0
:100BF0000E94A60480914E02811105C081E080937D
:100C00001D028FEF04C08FEF80931D0281E080935F
:100C10001C0280914F02811105C081E080931B026C
:100C20008FEF04C08FEF80931B0281E080931A0244
:100C300084E690E02091540230915502821B930B80
:100C40004AE0489F9001499F300D112430930D01D7
:100C500020930C0144E6489F9001499F300D1124D8
:100C600030930B0120930A01DF91CF911F910F91D7
:100C7000089526E040E052EC61E070E080E495E009
:100C80000E9411130E94A805609102027091030254
:100C90008FEF91E00E941E0D6091560270915702F5
:100CA0008FEF91E00E94570D0C945E0362E082E1A9
:100CB00092E00E94910B61E08EE092E00E94910B25
:100CC0006AE088E092E00E947F0A67E084E092E0B8
:100CD0000E94910B84E092E00E94C50B90E09093FB
:100CE0000302809302028FEF91E00C94840C0F9327
:100CF0001F93CF93DF9380E4EBEAF1E0DF011D92D5
:100D00008A95E9F71092AA0110E0EF0100E480E46F
:100D100095E00E942E12892B59F180E495E00E9403
:100D20004712A091AA01E1E0EA0FE093AA01BB27D4
:100D3000A7FDB095A555BE4F8C938A3091F4FF273F
:100D4000E7FDF095E555FE4F10828BEA91E00E9499
:100D50000E0AFE01802F11928A95E9F71092AA01DE
:100D600011E08091AA01803494F21092AA01CFCFB1
:100D7000812FDF91CF911F910F9108952F923F9274
:100D80004F925F926F927F928F929F92AF92BF929B
:100D9000CF92DF92EF92FF920F931F93CF93DF9347
:100DA000CDB7DEB762970FB6F894DEBF0FBECDBFEA
:100DB00080910A0190910B012C01662457FC6094EC
:100DC000762C209024023090250280912002909170
:100DD0002102281A390A209122023091230280919F
:100DE0001E0290911F02281B390B3A8B298B790127
:100DF00037FF03C0F194E194F108610137FE04C0AC
:100E0000CC24DD24C218D3088601CE14DF040CF4F0
:100E10008701B801882777FD8095982F0E94BB171E
:100E20004B015C01B601882777FD8095982F0E94C1
:100E3000BB17A50194010E94201769877A878B87C9
:100E40009C87B701882777FD8095982F0E94BB1754
:100E5000A50194010E9420176D877E878F87988B4C
:100E60001E830D83812C912C5401750164014FEF79
:100E70005FEF58874F8300912002109121028091EB
:100E80002402909125020817190709F41EC129852B
:100E90003A854B855C85C701B6010E9490166B01AF
:100EA0007C0120E030E040E85FE30E94B91887FD54
:100EB00025C0121413041CF480911D0202C08091FD
:100EC0001C02992787FD9095121413041CF421E04D
:100ED00030E002C02FEF3FEF020F131F10932102EB
:100EE000009320020E94C50020E030E040E85FE36C
:100EF000C701B6010E948F166B017C0100911E0292
:100F000010911F0280912202909123020817190765
:100F1000D9F12D853E854F855889C501B4010E94C0
:100F200090164B015C0120E030E040E85FE30E9456
:100F3000B91887FD29C089899A89181619061CF4E1
:100F400080911B0202C080911A02992787FD90951B
:100F5000A989BA891A161B061CF421E030E002C0E8
:100F60002FEF3FEF020F131F10931F0200931E027B
:100F70000E94D90020E030E040E85FE3C501B40101
:100F80000E948F164B015C01EF81F885CF01AA27E3
:100F900097FDA095BA2F840D951DA61DB71D209114
:100FA0000C0130910D012901662457FC6094762CC8
:100FB00084159505A605B7058CF040910A0150915E
:100FC0000B01662757FD6095762F2C013D014817D0
:100FD00059076A077B0714F42A013B012091EB01B2
:100FE0003091EC014091ED015091EE01240D351D41
:100FF000461D571D29833A834B835C830E947110E1
:1010000000911602109117022091180230911902D6
:10101000601B710B820B930B613971408105910547
:1010200040F580910A0190910B01AA2797FDA095A8
:10103000BA2F29813A814B815C8182179307A407DB
:10104000B50734F56091EB017091EC018091ED01F1
:101050009091EE0128EE33E040E050E00E94D51977
:1010600069837A838B839C83CA01B9010E94A01093
:101070000FC00E9471106093160270931702809344
:101080001802909319020E947706882351F229C012
:1010900089819A810E94C81080910A0190910B0168
:1010A00020910C0130910D01821B930B4D815E81CB
:1010B0004817590724F481E090E098878F83AD8129
:1010C000BE811197BE83AD83D6CE2091220230918E
:1010D000230280911E0290911F028217930709F04C
:1010E0000DCF62960FB6F894DEBF0FBECDBFDF9175
:1010F000CF911F910F91FF90EF90DF90CF90BF9015
:10110000AF909F908F907F906F905F904F903F90A7
:101110002F9008954F925F926F927F928F929F923D
:10112000AF92BF92CF92DF92EF92FF92CF93DF9375
:1011300000D000D0CDB7DEB7C0903602D0903702D5
:10114000E0903802F090390220913E0230913F0247
:101150004091400250914102C701B6010E948F1692
:101160002B013C018091320290913302A091340214
:10117000B091350289839A83AB83BC8320913A0274
:1011800030913B0240913C0250913D02BC01CD01A7
:101190000E948F164B015C01A3019201C301B201B1
:1011A0000E94C4182B013C01A5019401C501B401A2
:1011B0000E94C4189B01AC01C301B2010E949016A9
:1011C0000E944B192FE632E143E85AE30E941C17B4
:1011D00087FD4CC029813A814B815C81C701B601F2
:1011E0000E94ED002091F7013091F8014091F90142
:1011F0005091FA016091FB017091FC018091FD0119
:101200009091FE010E9415038091F3019091F401E9
:1012100090932502809324028091EF019091F00138
:1012200090932302809322020E94BE068091360290
:1012300090913702A0913802B091390280933E021A
:1012400090933F02A0934002B093410280913202FA
:1012500090913302A0913402B091350280933A020A
:1012600090933B02A0933C02B0933D020F900F90ED
:101270000F900F90DF91CF91FF90EF90DF90CF9084
:10128000BF90AF909F908F907F906F905F904F90A6
:101290000895CF93DF9300D0CDB7DEB7AE014F5F97
:1012A0005F4F66E371E00E94731AAE014F5F5F4FBC
:1012B00066E371E080E090E00E94731A009709F401
:1012C0004FC0FC012081283561F401960E94141A58
:1012D00060933602709337028093380290933902FC
:1012E000E4CF293561F401960E94141A609332020A
:1012F000709333028093340290933502D6CF2A350F
:1013000061F401960E94141A60932E0270932F02CA
:101310008093300290933102C8CF263491F4019625
:101320000E94141A20E030E040E752E40E942017A7
:10133000609342027093430280934402909345026B
:10134000B4CF213409F0B1CF01960E94361A6093D0
:10135000EB017093EC018093ED019093EE01A5CF2A
:101360000E948A080F900F90DF91CF910895CF933C
:10137000DF93EC010E94181A8130910509F446C0F0
:101380004C9709F048C01092EB011092EC011092BA
:10139000ED011092EE016091500270915102809126
:1013A000520290915302680F791F882777FD80952C
:1013B000982F0E94BB172AE037ED43E25CE30E94BE
:1013C0008F16DC01CB01B058809336029093370220
:1013D000A0933802B0933902109232021092330275
:1013E00010923402109235026091560270915702A9
:1013F0008FEF91E00E94570D60E070E088E092E08E
:101400000E94810ADF91CF910C948A08CE01DF916E
:10141000CF910C944909DF91CF910895FC0120816F
:10142000273421F401960E94B70930C02D3421F4ED
:1014300001960E9473052AC0203541F56CE671E0E3
:1014400080E495E00E94561440913E0250913F0284
:10145000609140027091410222E030E080E495E02A
:101460000E94231662E771E080E495E00E94561422
:1014700040913A0250913B0260913C0270913D02D2
:1014800022E030E080E495E00E94251665E771E0F7
:1014900080E495E00C94631480E495E00E942E12A1
:1014A000892B61F180E495E00E944712E091AA0146
:1014B0008A30C1F481E08E0F8093AA01FF27E7FDF7
:1014C000F095E555FE4F10828BEA91E00E940E0ADE
:1014D00080E4EBEAF1E0DF011D928A95E9F71092D2
:1014E000AA010895E03454F491E09E0F9093AA016C
:1014F000FF27E7FDF095E555FE4F808308950C9496
:10150000910B0F931F93CF93DF938C016F3F710566
:1015100019F014F06FEF70E0EB0161308FEF780796
:1015200014F4C1E0DFEFD7FD06C061E0C8010E94FE
:10153000B10BBE0108C060E0C8010E94B10B662774
:1015400077276C1B7D0BC801DF91CF911F910F9105
:101550000C94C10B86E892E00C94B20A86E892E003
:101560000C94DB0A21E030E0FC0131832083EE5F44
:10157000FE4F1082118212821382349610821182E1
:101580001282138234961082319610823196108224
:101590001182128213823496118210823296108246
:1015A0003196108211821282138234961082118237
:1015B00012821382089508951F920F920FB60F9210
:1015C00011240F931F932F933F934F935F936F9328
:1015D0007F938F939F93AF93BF93CF93EF93FF939B
:1015E00082E00E940512C82F2091A7033091A80322
:1015F0002F5F3F4F3093A8032093A70380910D04E2
:10160000843618F085E08093A2039091A203933072
:1016100079F018F4923039F070C0943011F19530AF
:1016200009F44AC06AC0C11168C010920D0429C0F3
:10163000C13009F062C0E0910D0481E08E0F80930B
:101640000D04F0E08091A7039091A803EF55FC4FA3
:1016500080871092A8031092A70384E08093A203CE
:101660004CC0C11114C0E0910D0481E08E0F809335
:101670000D04F0E08091A7039091A803EF55FC4F73
:1016800080871092A8031092A70383E0E7CF809190
:10169000A7039091A8038536910578F185E08093A2
:1016A000A2030E9471106093A3037093A40380931C
:1016B000A5039093A60321C00E9471100091A3037B
:1016C0001091A4032091A5033091A603601B710B18
:1016D000820B930B693C71058105910540F01092D6
:1016E0000D041092A8031092A70382E0B7CFC11196
:1016F00004C01092A8031092A703FF91EF91CF911D
:10170000BF91AF919F918F917F916F915F914F9119
:101710003F912F911F910F910F900FBE0F901F902F
:101720001895DC01E62FF0E0EE0FFF1FE25FFE4FA1
:1017300080818C93818111968C93119712966C9372
:1017400008951F93CF93DF93EC01162F61E08881FA
:101750000E949611612F8881DF91CF911F910C9487
:10176000CF111F93CF93DF93EC01162F61E0898196
:101770000E949611612F8981DF91CF911F910C9466
:10178000CF11FC0180810C940E11FC018181089520
:101790001F920F920FB60F9211242F933F934F93E6
:1017A0005F936F937F938F939F93AF93BF93EF93C9
:1017B000FF9380910F0487FF05C01092850010925F
:1017C00084001AC020910F04332727FD30958091A3
:1017D0000E0490E0281739077CF480910F049927B4
:1017E00087FD9095FC01EE0FFF1FE80FF91FE05FEA
:1017F000FB4F808187FD15C080910F048F5F809320
:101800000F0420910F04332727FD309580910E049B
:1018100090E028173907BCF480910F048C305CF1FC
:1018200012C080910F04992787FD9095FC01EE0F5F
:10183000FF1FE80FF91FE05FFB4F808160E08F77AB
:101840000E94CF11D9CF8091840090918500049699
:1018500080349C4918F480E49CE905C080918400A0
:1018600090918500049690938900809388008FEF73
:1018700080930F0438C020918400309185008091BE
:101880000F04992787FD9095FC01EE0FFF1FE80FCD
:10189000F91FE05FFB4F81819281820F931F90932C
:1018A00089008093880080910F04992787FD909587
:1018B000FC01EE0FFF1FE80FF91FE05FFB4F808177
:1018C00087FF11C080910F04992787FD9095FC0137
:1018D000EE0FFF1FE80FF91FE05FFB4F808161E013
:1018E0008F770E94CF11FF91EF91BF91AF919F91A0
:1018F0008F917F916F915F914F913F912F910F90B9
:101900000FBE0F901F90189520910E042C30A0F45C
:1019100031E0320F30930E04FC012083822F90E0DF
:10192000FC01EE0FFF1FE80FF91FE05FFB4F88EB94
:101930009BE09283818308952FEFFC01208308951B
:10194000DF92EF92FF920F931F93CF93DF93EC01FF
:10195000D62E7A01890188818C3008F066C061E05A
:101960008D2D0E9496118881A82FB0E0FD01EE0F09
:10197000FF1FEA0FFB1FE05FFB4F2D2D2F7790819C
:101980009078922B908360E272E06E197F0977FF66
:1019900002C06D5F7F4F75956795759567956983F3
:1019A00040E659E0401B510B57FF02C04D5F5F4FAF
:1019B00055954795559547954A836CE00E94A71920
:1019C0009CE0899FB001112420E030E0A901460F7E
:1019D000571FFA01EE0FFF1FE40FF51FE05FFB4FEB
:1019E000908197FD16C02F5F3F4F2C30310571F766
:1019F00081110FC01092800082E0809381001092CC
:101A0000850010928400B19A80916F00826080936B
:101A10006F00888190E0FC01EE0FFF1FE80FF91FB7
:101A2000E05FFB4F8081806880838881DF91CF9168
:101A30001F910F91FF90EF90DF90089520E639E01D
:101A400040E252E00C94A00CFC0180818C3070F5D7
:101A5000918128E830E0291B310997FD3395220F49
:101A6000331F220F331F621773077CF0928128E522
:101A700032E0291B310997FD3395220F331F220FC6
:101A8000331F621773070CF49B0122503109220F98
:101A9000331F4FB7F89490E0FC01EE0FFF1FE80FE3
:101AA000F91FE05FFB4F328321834FBF08954F92B0
:101AB0005F926F927F92AF92BF92CF92DF92EF923E
:101AC000FF920F931F93CF93DF93EC01603282E07C
:101AD00078070CF040C077FD06C0653B71052CF01F
:101AE00064EB70E002C060E070E0898128E830E0DB
:101AF000281B310987FD3395220F331F220F331F17
:101B00005901CC24B7FCC094DC2C882777FD809544
:101B1000982F2A8148E552E0421B510927FD539531
:101B2000440F551F440F551F2A01662457FC60942B
:101B3000762C7F926F925F924F9214EBE12EF12CF4
:101B400000E010E020E030E0A9010E9437160F907D
:101B50000F900F900F90CE01DF91CF911F910F91B9
:101B6000FF90EF90DF90CF90BF90AF907F906F90FD
:101B70005F904F900C94240D1F920F920FB60F920E
:101B800011242F933F934F935F936F937F938F9382
:101B90009F93AF93BF93EF93FF93E0917604F091FF
:101BA0007704309709F451C0868DA685B785958551
:101BB00081FF04C08C91892329F447C08C9189232B
:101BC00009F043C0A389B4899C91858980958923B4
:101BD0008C93868997890197F1F7208D318DA685A1
:101BE000B785758558E040E0C9010197F1F7842F6A
:101BF00090E095958795482F6C91672309F0406890
:101C0000515091F7868D81FD40958091350490E08B
:101C100001968F73992720913404281749F0A091D9
:101C20003504B0E0AA5CBB4F4C938093350403C0ED
:101C3000868D8160868F828D938D0197F1F7A389C0
:101C4000B4898C919589892B8C93FF91EF91BF91E9
:101C5000AF919F918F917F916F915F914F913F9144
:101C60002F910F900FBE0F901F9018958091A70491
:101C700090E02091A804821B910908952091A80466
:101C80008091A704281750F4E22FF0E0E755FB4FAE
:101C9000808190E02F5F2093A80408958FEF9FEF3D
:101CA0000895E091A8048091A704E81730F4F0E0CB
:101CB000E755FB4F808190E008958FEF9FEF0895E7
:101CC0000895CF92DF92EF92FF920F931F93CF93DD
:101CD000DF937C01CB018A0120918404222389F0C7
:101CE000EB016B01C40ED51ECC15DD0569F06991C1
:101CF000D701ED91FC910190F081E02DC70109958C
:101D0000F3CF642F0E94D10EC801DF91CF911F91B4
:101D10000F91FF90EF90DF90CF900895CF93DF93D6
:101D20001F92CDB7DEB76983209184042223D1F0BE
:101D300020918504203240F021E030E0FC01338323
:101D4000228380E090E015C080918604E82FF0E0C7
:101D5000E957FB4F998190838F5F8093860480932E
:101D6000850405C061E0CE0101960E94D10E81E09C
:101D700090E00F90DF91CF910895FC0113821282C1
:101D800048EE53E060E070E04483558366837783D8
:101D90008CE791E091838083089588E794E00C9428
:101DA000BD0E613298F420913605243089F4609399
:101DB000EB04FC018DEE94E0DC012A2F281B261792
:101DC00018F421912D93F9CF80E0089581E00895D2
:101DD00082E0089585ED8093BC008091BC0084FD75
:101DE000FCCF10923605089585EC8093BC001092CC
:101DF000360508951F920F920FB60F9211242F935C
:101E00003F934F935F936F937F938F939F93AF9382
:101E1000BF93EF93FF938091B900887F803609F4D8
:101E20009EC078F5883209F45DC090F4803109F4E1
:101E300056C038F4882309F4F5C0883009F44FC03F
:101E4000F5C0883109F44EC0803209F45FC0EEC09D
:101E5000803409F46AC058F4803309F457C08833D9
:101E600009F0E4C08093C9040E94F40EDFC08035FD
:101E700009F44FC0883509F45DC0883409F0D6C034
:101E8000D3C0883909F4C4C0A8F4883709F467C0FE
:101E900038F4883609F463C0803709F460C0C6C0DE
:101EA000883809F4B5C0803909F45FC0803809F07A
:101EB000BDC05BC0803B09F483C038F4803A09F4AC
:101EC00066C0883A09F47CC0B1C0803C09F4A4C063
:101ED000883C09F4A1C0883B09F487C0A7C0809161
:101EE000350510C090910E0580910D05981770F57D
:101EF000E0910E0581E08E0F80930E05F0E0E15F2A
:101F0000FA4F80818093BB0085EC83C08093C90425
:101F10008BC0E0910E0581E08E0F80930E058091BD
:101F2000BB00F0E0E15FFA4F808390910E05809155
:101F30000D056BC0E0910E0581E08E0F80930E05BC
:101F40008091BB00F0E0E15FFA4F8083809134051F
:101F500081116AC081E08093330584EA5EC083E02A
:101F6000809336051092CA04CFCF8091CA04803284
:101F700008F04EC0E091CA0481E08E0F8093CA043D
:101F80008091BB00F0E0E553FB4F8083BDCF0E9402
:101F9000F40E8091CA04803230F4E091CA04F0E07B
:101FA000E553FB4F10826091CA0470E0E0912F0569
:101FB000F09130058BEC94E009951092CA0436C07C
:101FC00084E0809336051092EC041092EB04E091CB
:101FD0003105F091320509958091EB04811105C01E
:101FE00081E08093EB041092ED04E091EC0481E039
:101FF0008E0F8093EC04F0E0E351FB4F80818093DF
:10200000BB009091EC048091EB04981708F47CCF0E
:1020100085E88093BC000AC085EC8093BC001092D8
:10202000360504C01092C9040E94EA0EFF91EF9198
:10203000BF91AF919F918F917F916F915F914F91E0
:102040003F912F910F900FBE0F901F9018951F92E8
:102050000F920FB60F9211242F933F938F939F935C
:10206000AF93BF938091380590913905A0913A05BF
:10207000B0913B053091370523E0230F2D3720F435
:102080000196A11DB11D05C026E8230F0296A11DD2
:10209000B11D209337058093380590933905A0939F
:1020A0003A05B0933B0580913C0590913D05A09188
:1020B0003E05B0913F050196A11DB11D80933C05E1
:1020C00090933D05A0933E05B0933F05BF91AF911E
:1020D0009F918F913F912F910F900FBE0F901F9066
:1020E00018952FB7F8946091380570913905809153
:1020F0003A0590913B052FBF08953FB7F894809122
:102100003C0590913D05A0913E05B0913F0526B557
:10211000A89B05C02F3F19F00196A11DB11D3FBF1F
:102120006627782F892F9A2F620F711D811D911DAF
:1021300042E0660F771F881F991F4A95D1F70895CF
:10214000CF92DF92EF92FF92CF93DF936B017C01EE
:102150000E947D10EB01C114D104E104F10489F067
:102160000E948E160E947D106C1B7D0B683E734092
:1021700090F381E0C81AD108E108F108C851DC4F9A
:10218000EACFDF91CF91FF90EF90DF90CF9008954D
:102190008230910538F0880F991F880F991F059795
:1021A0000197F1F70895789484B5826084BD84B571
:1021B000816084BD85B5826085BD85B5816085BD42
:1021C000EEE6F0E0808181608083E1E8F0E010825B
:1021D000808182608083808181608083E0E8F0E09C
:1021E000808181608083E1EBF0E080818460808386
:1021F000E0EBF0E0808181608083EAE7F0E08081BD
:10220000846080838081826080838081816080831C
:102210008081806880831092C10008951F93CF93BE
:10222000DF93182FEB0161E00E949611209711F4C3
:1022300060E004C0CF3FD10539F461E0812FDF9128
:10224000CF911F910C94CF11E12FF0E0EA56FF4F90
:10225000E491E330F9F048F4E130B9F0E230A1F56F
:1022600084B5806284BDC8BD34C0E730E9F0E83091
:1022700019F1E43049F580918000806280938000FC
:10228000D0938B00C0938A0024C084B5806884BD3D
:10229000C7BD1FC080918000806880938000D0936C
:1022A0008900C093880015C08091B0008068809339
:1022B000B000C093B3000DC08091B00080628093E5
:1022C000B000C093B40005C0C038D1050CF0B5CF44
:1022D000AFCFDF91CF911F910895833081F028F423
:1022E000813099F08230A1F008958730A9F08830CC
:1022F000B9F08430D1F4809180008F7D03C080914B
:1023000080008F7780938000089584B58F7702C016
:1023100084B58F7D84BD08958091B0008F7703C010
:102320008091B0008F7D8093B0000895CF93DF93AC
:1023300090E0FC01E655FF4F2491FC01E254FF4F71
:102340008491882349F190E0880F991FFC01EA519C
:10235000FF4FA591B49184529F4FFC01C591D49138
:102360009FB7611108C0F8948C91209582238C93BB
:10237000888182230AC0623051F4F8948C91322F04
:10238000309583238C938881822B888304C0F894B2
:102390008C91822B8C939FBFDF91CF9108950F93E7
:1023A0001F93CF93DF931F92CDB7DEB7282F30E076
:1023B000F901EA56FF4F8491F901E655FF4F149158
:1023C000F901E254FF4F04910023C9F0882321F062
:1023D00069830E946D116981E02FF0E0EE0FFF1F0D
:1023E000E452FF4FA591B4919FB7F8948C9161117D
:1023F00003C01095812301C0812B8C939FBF0F9048
:10240000DF91CF911F910F910895CF93DF93282FE4
:1024100030E0F901EA56FF4F8491F901E655FF4F8C
:10242000D491F901E254FF4FC491CC2391F0811172
:102430000E946D11EC2FF0E0EE0FFF1FEE52FF4FE8
:10244000A591B4912C912D2381E090E021F480E0BE
:1024500002C080E090E0DF91CF910895FC01818D72
:10246000228D90E0805C9F4F821B91098F7399278A
:102470000895FC01918D828D981731F0828DE80FBF
:10248000F11D858D90E008958FEF9FEF0895FC0179
:10249000918D828D981761F0828DDF01A80FB11D9B
:1024A0005D968C91928D9F5F9F73928F90E00895BF
:1024B0008FEF9FEF08958BEC93E1892B49F080E03B
:1024C00090E0892B29F00E94CB1381110C9400001D
:1024D0000895FC01848DDF01A80FB11DA35ABF4FE1
:1024E0002C91848D90E001968F739927848FA68913
:1024F000B7892C93A089B1898C9180648C93938D3A
:10250000848D981306C00288F389E02D80818F7D29
:1025100080830895CF93DF93EC01888D8823C9F0E1
:10252000EA89FB89808185FD05C0A889B9898C91DC
:1025300086FD0FC00FB607FCF5CF808185FFF2CF77
:10254000A889B9898C9185FFEDCFCE010E946912CF
:10255000E7CFDF91CF910895CF92DF92FF920F9353
:102560001F93CF93DF931F92CDB7DEB76C0181E04D
:10257000D60158968C9358975B969C915B975C9686
:102580008C915C97981307C05096ED91FC915197F0
:10259000808185FD2EC0F601038D10E00F5F1F4F77
:1025A0000F731127F02EF601848DF81211C00FB6AB
:1025B00007FCF9CFD6015096ED91FC91519780819F
:1025C00085FFF1CFC60169830E9469126981EBCF53
:1025D000838DE80FF11DE35AFF4F6083D6015B96B0
:1025E0000C935B975296ED91FC915397808180629A
:1025F0000CC0D6015696ED91FC915797608350968A
:10260000ED91FC91519780818064808381E090E01E
:102610000F90DF91CF911F910F91FF90DF90CF909E
:102620000895BF92CF92DF92EF92FF92CF93DF9304
:10263000EC016A017B01B22EE889F98982E080838E
:10264000411581EE580761057105A1F060E079E060
:102650008DE390E0A70196010E94B3192150310942
:10266000410951095695479537952795211580E1E0
:10267000380798F0E889F989108260E874E88EE1FB
:1026800090E0A70196010E94B31921503109410938
:1026900051095695479537952795EC85FD853083EB
:1026A000EE85FF852083188EEC89FD89B082EA894A
:1026B000FB89808180618083EA89FB8980818860D1
:1026C0008083EA89FB89808180688083EA89FB892D
:1026D00080818F7D8083DF91CF91FF90EF90DF909D
:1026E000CF90BF9008951F920F920FB60F921124B2
:1026F0002F938F939F93EF93FF93E0915005F09169
:1027000051058081E0915605F091570582FD12C078
:102710009081809159058F5F8F7320915A058217A0
:1027200051F0E0915905F0E0E05CFA4F958F80930D
:10273000590501C08081FF91EF919F918F912F9159
:102740000F900FBE0F901F9018951F920F920FB60B
:102750000F9211242F933F934F935F936F937F9327
:102760008F939F93AF93BF93EF93FF9380E495E094
:102770000E946912FF91EF91BF91AF919F918F914C
:102780007F916F915F914F913F912F910F900FBE6D
:102790000F901F90189580E495E00E942E1221E082
:1027A000892B09F420E0822F08951092430510929E
:1027B000420588EE93E0A0E0B0E08093440590935A
:1027C0004505A0934605B09347058CE891E09093AA
:1027D00041058093400585EC90E090934D058093F2
:1027E0004C0584EC90E090934F0580934E0580EC6F
:1027F00090E0909351058093500581EC90E0909388
:1028000053058093520582EC90E090935505809398
:10281000540586EC90E090935705809356051092EE
:10282000590510925A0510925B0510925C050895A7
:10283000CF92DF92EF92FF920F931F93CF93DF938C
:102840007C016A01EB0100E010E00C151D0571F040
:102850006991D701ED91FC910190F081E02DC701C4
:102860000995892B19F00F5F1F4FEFCFC801DF913A
:10287000CF911F910F91FF90EF90DF90CF9008952F
:102880006115710581F0DB010D900020E9F7AD01C4
:1028900041505109461B570BDC01ED91FC91028020
:1028A000F381E02D099480E090E008950C944014A9
:1028B000DC01ED91FC910190F081E02D099468E933
:1028C00071E00C9440140F931F93CF93DF93EC01AE
:1028D0000E9440148C01CE010E945F14800F911F52
:1028E000DF91CF911F910F9108958F929F92AF9298
:1028F000BF92CF92DF92EF92FF920F931F93CF93ED
:10290000DF93CDB7DEB7A1970FB6F894DEBF0FBE49
:10291000CDBF7C01C42EE52FCB01D22E19A221E020
:102920002D1510F02AE0D22E8E010F5D1F4F8D2C39
:10293000912CA12CB12C6C2D7E2FA50194010E940D
:10294000B3198C2DD29E80191124015011098A309F
:1029500014F4805D01C0895CF80180832115310584
:102960004105510521F0C22EE32FCA01E4CFB80181
:10297000C7010E944014A1960FB6F894DEBF0FBEA7
:10298000CDBFDF91CF911F910F91FF90EF90DF901E
:10299000CF90BF90AF909F908F900895CF92DF928D
:1029A000EF92FF920F931F93CF93DF93EC016A0195
:1029B0007B012115310579F4E881F9810190F081DD
:1029C000E02D642FDF91CF911F910F91FF90EF9039
:1029D000DF90CF9009942A303105E9F477FF1AC0CF
:1029E0006DE20E9458148C0144275527BA014C19F6
:1029F0005D096E097F092AE0CE010E947514800FDF
:102A0000911FDF91CF911F910F91FF90EF90DF9079
:102A1000CF9008952AE0B701A601CE01DF91CF91B2
:102A20001F910F91FF90EF90DF90CF900C94751451
:102A30009A01AB01662757FD6095762F0C94CE1452
:102A40000F931F93CF93DF93EC019A01AB0166279D
:102A500057FD6095762F0E94CE148C01CE010E9406
:102A60005F14800F911FDF91CF911F910F910895F7
:102A70004F925F926F927F928F929F92AF92BF928E
:102A8000CF92DF92EF92FF920F931F93CF93DF933A
:102A9000EC016A017B01B22E9A01AB01C701B601BC
:102AA0000E948C19882319F06BE971E027C0260178
:102AB0003701E89477F82FEF3FEF4FE75FE7C30167
:102AC000B2010E948C1981110DC02FEF3FEF4FE72B
:102AD0005FE7C301B2010E941C1718161CF46FE9CE
:102AE00071E00CC02FEF3FEF4FE75FE4C701B60185
:102AF0000E94B9181816ACF463EA71E0CE01DF91B8
:102B0000CF911F910F91FF90EF90DF90CF90BF90EA
:102B1000AF909F908F907F906F905F904F900C94AC
:102B200040142FEF3FEF4FE75FECC701B6010E9463
:102B30001C1787FDE1CF20E030E0A901C701B601F5
:102B40000E941C1787FF0AC06DE2CE010E94581434
:102B50008C01F7FAF094F7F8F09402C000E010E06E
:102B6000A12C60E070E080E09FE3AB1441F020E036
:102B700030E040E251E40E942017A394F6CF9B017D
:102B8000AC01C701B6010E9490166B017C010E9446
:102B90008D172B013C010E94B9179B01AC01C701A5
:102BA000B6010E948F166B017C012AE0B301A201DD
:102BB000CE010E947514080F191FBB2039F067EA77
:102BC00071E0CE010E944014080F191F7B2C772062
:102BD00041F120E030E040E251E4C701B6010E943B
:102BE000C4186B017C010E9488174B01AA2497FC32
:102BF000A094BA2C2AE030E0B501A401CE010E94D5
:102C0000CE14080F191FC501B4010E94BB179B0108
:102C1000AC01C701B6010E948F166B017C017A944A
:102C2000D6CFC801DF91CF911F910F91FF90EF9008
:102C3000DF90CF90BF90AF909F908F907F906F90DC
:102C40005F904F9008950C9438150F931F93CF9376
:102C5000DF93EC010E9438158C01CE010E945F14B5
:102C6000800F911FDF91CF911F910F9108954F9287
:102C70005F926F927F92AF92BF92CF92DF92EF926C
:102C8000FF920F931F93CF93DF93CDB7DEB7290148
:102C90003A01621B730B840B950B29893A894B8986
:102CA0005C892A193B094C095D09298B3A8B4B8BAE
:102CB0005C8B9B01AC0169897A898B899C890E9414
:102CC0009719E418F50806091709A80197010E9449
:102CD000D5192A0D3B1D4C1D5D1DCA01B901DF919F
:102CE000CF911F910F91FF90EF90DF90CF90BF9009
:102CF000AF907F906F905F904F90089508950E94DD
:102D0000D3100E947E160E943906CBE5D2E10E94C4
:102D10004C0A2097E1F30E945B12F9CF08955058B6
:102D2000BB27AA270ED0EBC1DCD130F0E1D120F0D7
:102D300031F49F3F11F41EF4ACC10EF4E095E7FBB3
:102D400079C1E92FEDD180F3BA17620773078407C1
:102D5000950718F071F49EF505C20EF4E0950B2E60
:102D6000BA2FA02D0B01B90190010C01CA01A001DD
:102D70001124FF27591B99F0593F50F4503E68F138
:102D80001A16F040A22F232F342F4427585FF3CF79
:102D9000469537952795A795F0405395C9F77EF44A
:102DA0001F16BA0B620B730B840BBAF09150A1F093
:102DB000FF0FBB1F661F771F881FC2F70EC0BA0F19
:102DC000621F731F841F48F4879577956795B795A1
:102DD000F7959E3F08F0B3CF9395880F08F0992799
:102DE000EE0F979587950895DF93DD27B92FBF776D
:102DF00040E85FE31616170648075B0710F4D92F63
:102E0000BCD19F938F937F936F9383D2E8E6F0E0DA
:102E100043D175D12F913F914F915F91C1D1DD2366
:102E200049F09058A2EA2AED3FE049EC5FE3D07800
:102E30005D2787DFDF9163C1D9D008F481E0089571
:102E40000CD05DC155D140F04CD130F021F45F3F42
:102E500019F0F0C0511187C11CC162D198F39923B8
:102E6000C9F35523B1F3951B550BBB27AA2762174E
:102E70007307840738F09F5F5F4F220F331F441F93
:102E8000AA1FA9F333D00E2E3AF0E0E830D09150CB
:102E90005040E695001CCAF729D0FE2F27D0660FB8
:102EA000771F881FBB1F261737074807AB07B0E8F7
:102EB00009F0BB0B802DBF01FF2793585F4F2AF00D
:102EC0009E3F510568F0B6C04EC15F3FECF3983E9F
:102ED000DCF3869577956795B795F7959F5FC9F76A
:102EE000880F911D9695879597F90895E1E0660FF3
:102EF000771F881FBB1F621773078407BA0720F06C
:102F0000621B730B840BBA0BEE1F88F7E0950895D4
:102F100004D06894B11127C108950AD188F09F5751
:102F200090F0B92F9927B751A0F0D1F0660F771F15
:102F3000881F991F1AF0BA95C9F712C0B13081F0F5
:102F400011D1B1E008950EC1672F782F8827B85F9F
:102F500039F0B93FCCF3869577956795B395D9F756
:102F60003EF490958095709561957F4F8F4F9F4F60
:102F70000895E89409C097FB3EF49095809570956C
:102F800061957F4F8F4F9F4F9923A9F0F92F96E9B5
:102F9000BB279395F695879577956795B795F1112A
:102FA000F8CFFAF4BB0F11F460FF1BC06F5F7F4FC7
:102FB0008F4F9F4F16C0882311F096E911C07723D9
:102FC00021F09EE8872F762F05C0662371F096E8E2
:102FD000862F70E060E02AF09A95660F771F881FB1
:102FE000DAF7880F9695879597F90895990F000855
:102FF000550FAA0BE0E8FEEF16161706E807F907CB
:10300000C0F012161306E407F50798F0621B730B65
:10301000840B950B39F40A2661F0232B242B252BE6
:1030200021F408950A2609F4A140A6958FEF811D89
:10303000811D089597F99F6780E870E060E008952A
:10304000882371F4772321F09850872B762F07C0BF
:10305000662311F499270DC09051862B70E060E033
:103060002AF09A95660F771F881FDAF7880F9695D2
:10307000879597F908959F3F31F0915020F48795F7
:1030800077956795B795880F911D9695879597F9D0
:1030900008959FEF80EC0895DF93CF931F930F93D4
:1030A000FF92EF92DF927B018C01689405C0DA2ECB
:1030B000EF0176D0FE01E894A591259135914591D7
:1030C0005591AEF3EF013DDEFE019701A801DA94C0
:1030D00079F7DF90EF90FF900F911F91CF91DF91E3
:1030E000089500240A94161617061806090608956E
:1030F00000240A9412161306140605060895092ED4
:103100000394000C11F4882352F0BB0F40F4BF2B42
:1031100011F460FF04C06F5F7F4F8F4F9F4F089582
:1031200057FD9058440F551F59F05F3F71F0479578
:10313000880F97FB991F61F09F3F79F0879508955D
:10314000121613061406551FF2CF4695F1DF08C07C
:10315000161617061806991FF1CF86957105610599
:1031600008940895E894BB2766277727CB0197F941
:1031700008953CDF08F48FEF08959B01AC0160E0F7
:1031800070E080E89FE35CCE0BD0B9CFAADF28F0D7
:10319000AFDF18F0952309F04DCF7BCF1124E3CF9B
:1031A000BFDFA0F3959FD1F3950F50E0551F629FAD
:1031B000F001729FBB27F00DB11D639FAA27F00D90
:1031C000B11DAA1F649F6627B00DA11D661F829FB7
:1031D0002227B00DA11D621F739FB00DA11D621F9C
:1031E000839FA00D611D221F749F3327A00D611DB9
:1031F000231F849F600D211D822F762F6A2F11249B
:103200009F5750408AF0E1F088234AF0EE0FFF1FED
:10321000BB1F661F771F881F91505040A9F79E3F24
:10322000510570F007CF9FCF5F3FECF3983EDCF382
:10323000869577956795B795F795E7959F5FC1F761
:10324000FE2B880F911D9695879597F9089570DF4D
:10325000E0F09E37D8F09639B8F49E3848F4672FDE
:10326000782F8827985FF9CF8695779567959395FE
:103270009539D0F3B62FB1706B0F711D811D20F4FD
:103280008795779567959395DBCEF5CE6CCF11F446
:103290000EF4FFCEF0CE4CDFD0F39923D9F3CEF36A
:1032A0009F57550B87FF3CD00024A0E640EA9001D1
:1032B00080585695979528F4805C660F771F881F75
:1032C00020F026173707480730F4621B730B840B76
:1032D000202931294A2BA6951794079420253125BA
:1032E0004A2758F7660F771F881F20F026173707E1
:1032F000480730F4620B730B840B200D311D411D08
:10330000A09581F7B901842F9158880F96958795DC
:1033100008959B01AC0138CF69DE880B990B0895A5
:1033200091505040660F771F881FD2F70895DB0138
:103330008F939F930E94031ABF91AF91A29F800D1C
:10334000911DA39F900DB29F900D11240895991B7C
:1033500079E004C0991F961708F0961B881F7A958C
:10336000C9F780950895A1E21A2EAA1BBB1BFD0187
:103370000DC0AA1FBB1FEE1FFF1FA217B307E40754
:10338000F50720F0A21BB30BE40BF50B661F771FAC
:10339000881F991F1A9469F760957095809590958C
:1033A0009B01AC01BD01CF010895052E97FB1EF4D2
:1033B00000940E94EC1957FD07D00E94B31907FC36
:1033C00003D04EF40C94EC1950954095309521950E
:1033D0003F4F4F4F5F4F0895909580957095619541
:1033E0007F4F8F4F9F4F0895A29FB001B39FC001A1
:1033F000A39F700D811D1124911DB29F700D811D21
:103400001124911D08950E94F419A59F900DB49F59
:10341000900DA49F800D911D11240895EE0FFF1FA4
:103420000590F491E02D0994662777270C94CD1A26
:10343000FC0188279927E89421912032E9F329306B
:1034400010F02E30C8F32B3241F02D3239F468944D
:1034500004C00E94AF1A820F911D219120532A307F
:10346000C0F31EF4909581959F4F08951F93FC0122
:1034700099278827BC01E89411911032E9F319309B
:1034800010F01E30C8F31B3251F01D3249F468941D
:1034900006C00E949A1A610F711D811D911D119124
:1034A00010531A30B0F33EF4909580957095619565
:1034B0007F4F8F4F9F4F1F9108959111D1C180323F
:1034C00019F089508550D0F70895FB01DC01415077
:1034D000504030F08D910190801919F40020B9F717
:1034E000881B990B0895FA01A191B081009719F4F6
:1034F0001097E1F0CD01DC01CD010D90002011F419
:10350000C00113C0FB012191222319F02015D9F726
:10351000F3CFFB012191201519F41E92119606C0DC
:103520002223C1F70D900020A1F7D001FA01A19349
:10353000B0830895592F482F372F262F660F771FF6
:10354000881F991F660F771F881F991F620F731FAF
:10355000841F951F660F771F881F991F08957AE0B3
:10356000979F902D879F802D910D11240895F99993
:10357000FECF92BD81BDF89A992780B50895262F78
:10358000F999FECF1FBA92BD81BD20BD0FB6F89448
:10359000FA9AF99A0FBE01960895A0E0B0E0E3ED23
:1035A000FAE10C94511C8B016115710521F0DB01CE
:1035B0008C9311969C93EC015E01BFEFAB1ABB0A92
:1035C0007501C8808C2D90E00E945D1A892B11F046
:1035D000E501F2CFEDE2CE1208C07E01F2E0EF0E7F
:1035E000F11CC980DD24D39409C02BE2C21205C0AE
:1035F0007E0142E0E40EF11CC980D12CE701219745
:1036000043E050E068EF70E0CE010E94331C892B4C
:10361000C1F4239645E050E063EF70E0CE010E94D4
:10362000331C892B09F425960115110519F0D801D1
:10363000CD93DC93D11006C160E070E080E89FE795
:103640000AC143E050E060EF70E0CE010E94331CFD
:10365000892B59F40115110509F4F9C0B2E0EB0EFC
:10366000F11CF801F182E082F2C0F70160E070E045
:10367000CB01C0E0D0E07F01A0EDAA2EAC0C29E088
:103680002A1530F14D2D4260B42E2D2D2870D2FE1A
:1036900004C0211125C0219623C021112197A5E046
:1036A000B0E09B01AC010E94031A660F771F881FD0
:1036B000991F6A0D711D811D911D6839A9E97A074D
:1036C0008A07A9E19A0760F0BD2DB660BB2E08C03D
:1036D0002EEFA2120AC0D3FC50C04D2D4860B42E6C
:1036E0003196D701CC90DB2CC6CF2C2D2F7D2534E5
:1036F00009F043C0A081AD3241F4BD2DB061DB2E95
:103700007F0122E0E20EF11C0CC07F01AB3231F0F0
:103710004FEFE41AF40A21E030E006C0A2E0EA0E1E
:10372000F11CA18122E030E0A053AA3018F0E21A87
:10373000F30A23C0F70120E030E02038BCE03B076B
:103740005CF4A901440F551F440F551F240F351F6A
:10375000220F331F2A0F311DAF014F5F5F4F7A01D8
:10376000A081A053AA3010F4FA01E7CFD4FE03C021
:10377000319521953109C20FD31FD1FE09C0011522
:10378000110531F0E1E0EE1AF108D801ED92FC925A
:103790000E94B9172D2D2370233019F04B015C01C5
:1037A00006C04B015C01B7FAB094B7F8B09420E0C2
:1037B00030E0A901C501B4010E941C17882309F457
:1037C0003EC0D7FF06C0D195C195D1090FE011E0E9
:1037D00002C007E211E06801B8E1CB1AD10890E21B
:1037E000E92EF12CCE15DF0574F0F8012591359105
:1037F00045915491C501B4010E94C4184B015C016C
:10380000CE19DF09EFCF04501109F594E7940C1598
:103810001D0541F78A2D880F8B2D881F8F3F49F09A
:1038200020E030E0A901C501B4010E941C178111FC
:1038300006C082E290E09093DE058093DD05C5012D
:10384000B40109C060E070E080E89FEF04C060E070
:1038500070E080EC9FE7CDB7DEB7ECE00C946D1C18
:10386000992788270895FB01DC014150504088F0DA
:103870008D9181341CF08B350CF4805E6591613440
:103880001CF06B350CF4605E861B611171F3990BB3
:103890000895881BFCCF2F923F924F925F926F92B8
:1038A0007F928F929F92AF92BF92CF92DF92EF92D0
:1038B000FF920F931F93CF93DF93CDB7DEB7CA1B51
:1038C000DB0B0FB6F894DEBF0FBECDBF09942A887C
:1038D000398848885F846E847D848C849B84AA8424
:1038E000B984C884DF80EE80FD800C811B81AA81B1
:1038F000B981CE0FD11D0FB6F894DEBF0FBECDBF7C
:10390000ED01089511E0C4E3D1E004C0FE010E947E
:0E391000101A2296C633D107C9F7F894FFCFDC
:10391E000000DF05800001000000D007C800000095
:10392E000B0A03090C0D080200001011140F150EDE
:10393E000607050400000000000000004D31302095
:10394E004D5343415241200041002042002053007C
:10395E002055002044004D3220553A0020443A00B4
:10396E005343415241340073657420746F20646573
:10397E006661756C7420736574757000504F5320BA
:10398E0058002059004F4B00000000008E0E610EB3
:10399E00360E3E0E510E600E00000000AC121814D2
:1039AE002E12471239128A120D0A006E616E0069CC
:0A39BE006E66006F7666002E0000B2
:107E0000112484B714BE81FFF0D085E080938100F7
:107E100082E08093C00088E18093C10086E0809377
:107E2000C20080E18093C4008EE0C9D0259A86E02C
:107E300020E33CEF91E0309385002093840096BBD3
:107E4000B09BFECF1D9AA8958150A9F7CC24DD24C4
:107E500088248394B5E0AB2EA1E19A2EF3E0BF2EE7
:107E6000A2D0813461F49FD0082FAFD0023811F036
:107E7000013811F484E001C083E08DD089C08234E0
:107E800011F484E103C0853419F485E0A6D080C0E4
:107E9000853579F488D0E82EFF2485D0082F10E0AE
:107EA000102F00270E291F29000F111F8ED06801E7
:107EB0006FC0863521F484E090D080E0DECF843638
:107EC00009F040C070D06FD0082F6DD080E0C81688
:107ED00080E7D80618F4F601B7BEE895C0E0D1E017
:107EE00062D089930C17E1F7F0E0CF16F0E7DF06D8
:107EF00018F0F601B7BEE89568D007B600FCFDCFD4
:107F0000A601A0E0B1E02C9130E011968C91119780
:107F100090E0982F8827822B932B1296FA010C0160
:107F200087BEE89511244E5F5F4FF1E0A038BF0790
:107F300051F7F601A7BEE89507B600FCFDCF97BE46
:107F4000E89526C08437B1F42ED02DD0F82E2BD052
:107F50003CD0F601EF2C8F010F5F1F4F84911BD097
:107F6000EA94F801C1F70894C11CD11CFA94CF0C13
:107F7000D11C0EC0853739F428D08EE10CD085E9AC
:107F80000AD08FE07ACF813511F488E018D01DD067
:107F900080E101D065CF982F8091C00085FFFCCF94
:107FA0009093C60008958091C00087FFFCCF809118
:107FB000C00084FD01C0A8958091C6000895E0E648
:107FC000F0E098E1908380830895EDDF803219F02E
:107FD00088E0F5DFFFCF84E1DECF1F93182FE3DFCA
:107FE0001150E9F7F2DF1F91089580E0E8DFEE27F6
:047FF000FF270994CA
:027FFE00040479
:0400000300007E007B
:00000001FF
