:100000000C949B000C94C3000C94C3000C94400E01
:100010000C94400E0C94400E0C94C3000C94640B92
:100020000C94C3000C94C3000C94C3000C944C0CAF
:100030000C94C3000C94C3000C94C3000C94C30034
:100040000C94AB100C94C3000C9498130C94CA132A
:100050000C94C3000C94C3000C94C3000C94C30014
:100060000C947E0F0C94C300084AD73B3BCE016E24
:1000700084BCBFFDC12F3D6C74319ABD56833DDAFF
:100080003D00C77F11BED9E4BB4C3E916BAAAABE0E
:10009000000000803F000000000800020100000393
:1000A0000407000000000000000001020408102006
:1000B00040800102040810200102040810200404FA
:1000C0000404040404040202020202020303030300
:1000D00003030000000023002600290000000000A8
:1000E000250028002B0000000000240027002A0023
:1000F0004E414E494E495459494E46CDCCCC3D0A0D
:10010000D7233C17B7D13877CC2B329595E6241FEF
:10011000B14F0A000020410000C84200401C4620A8
:10012000BCBE4CCA1B0E5AAEC59D7400F00A320B01
:10013000510FFA13360B11241FBECFEFD8E0DEBFEC
:10014000CDBF11E0A0E0B1E0EAECF8E302C0059019
:100150000D92A839B107D9F725E0A8E9B1E001C0AF
:100160001D92A33DB207E1F711E0C4E3D1E004C062
:100170002297FE010E94221ACC32D107C9F70E94B1
:1001800092160C94581C0C9400001816190614F4BE
:1001900060E001C061E082E792E00E94290C61E02A
:1001A00082E792E00E94390C60E082E792E00C94D2
:1001B000390C1816190614F460E001C061E086E7F6
:1001C00092E00E94290C61E086E792E00E94390CDF
:1001D00060E086E792E00C94390C2F923F924F92A8
:1001E0005F926F927F928F929F92AF92BF92CF92C7
:1001F000DF92EF92FF920F931F93CF93DF93CDB7D0
:10020000DEB76E970FB6F894DEBF0FBECDBF8091FC
:100210000A0190910B012C01662457FC6094762C06
:10022000E090F901F090FA018091010290910202B0
:10023000E81AF90AC090F501D090F6018091FD010D
:100240009091FE01C81AD90A5601D7FE04C0AA240B
:10025000BB24AC18BD084701F7FE04C088249924CC
:100260008E189F0814018A149B040CF41501B10127
:10027000882777FD8095982F0E94081869837A83D4
:100280008B839C83B401882777FD8095982F0E94EB
:10029000081829813A814B815C810E946D176D8716
:1002A0007E878F87988BB501882777FD8095982F5B
:1002B0000E94081829813A814B815C810E946D1748
:1002C000698B7A8B8B8B9C8B1E141F042CF421E082
:1002D00030E03A83298304C04FEF5FEF5A834983AC
:1002E00089819A81AA2797FDA095BA2F8D8B9E8B25
:1002F000AF8BB88F1C141D042CF4A1E0B0E0BE83BA
:10030000AD8304C0EFEFFFEFFE83ED832D813E81CF
:10031000442737FD4095542F298F3A8F4B8F5C8FA0
:100320001E8E1D8E812C912C5401750164014FEF9E
:100330005FEF5C874B878091F9019091FA01A09162
:10034000FB01B091FC014D8D5E8D241635060CF439
:1003500001C140910102509102026091030270912B
:100360000402481759076A077B07C1F12D853E85AE
:100370004F855889C701B6010E94A3166B017C0105
:1003800020E030E040E85FE30E94EB1887FD26C0E4
:1003900089819A810E94C50020E030E040E85FE357
:1003A000C701B6010E94A2166B017C018091010277
:1003B00090910202A0910302B09104022D893E891E
:1003C0004F89588D820F931FA41FB51F8093010280
:1003D00090930202A0930302B09304024091FD01A6
:1003E0005091FE016091FF01709100028091F50132
:1003F0009091F601A091F701B091F80148175907C3
:100400006A077B07C1F129893A894B895C89C50153
:10041000B4010E94A3164B015C0120E030E040E8EB
:100420005FE30E94EB1887FD26C08D819E810E94AC
:10043000D90020E030E040E85FE3C501B4010E944C
:10044000A2164B015C018091FD019091FE01A091EB
:10045000FF01B0910002298D3A8D4B8D5C8D820F8A
:10046000931FA41FB51F8093FD019093FE01A093DD
:10047000FF01B09300024B855C858A01222717FD9E
:100480002095322F040D151D261D371D80910C015E
:1004900090910D01AA2797FDA095BA2F081719076B
:1004A0002A073B078CF040910A0150910B01662707
:1004B00057FD6095762FD901C80140175107620793
:1004C000730714F4DB01CA014090E9015090EA017E
:1004D0006090EB017090EC01480E591E6A1E7B1E65
:1004E00051E1451657E25506610471049CF0C301C1
:1004F000B20128EE33E040E050E00E94E7196F833C
:10050000788789879A87CA01B9010E9424118F814F
:10051000988501C0C2010E944C1180910A019091FE
:100520000B0120910C0130910D01821B930B910165
:10053000AD8DBE8D2A1B3B0B2817390724F4E1E053
:10054000F0E0FC87EB872D8D3E8D2F5F3F4F3E8F78
:100550002D8FF1CE8093010290930202A0930302AB
:10056000B09304028091F5019091F601A091F701FA
:10057000B091F8018093FD019093FE01A093FF01DB
:10058000B09300026E960FB6F894DEBF0FBECDBFDB
:10059000DF91CF911F910F91FF90EF90DF90CF905F
:1005A000BF90AF909F908F907F906F905F904F9093
:1005B0003F902F9008954F925F926F927F92AF92EB
:1005C000BF92CF92DF92EF92FF920F931F93CF9340
:1005D000DF9300D000D0CDB7DEB729013A019B01EF
:1005E000AC01C801B7010E94A21669837A838B838C
:1005F0009C83A3019201C601B5010E94A2166B0162
:100600007C0129813A814B815C81CA01B9010E9438
:10061000F6182B013C01A7019601C701B6010E9403
:10062000F6189B01AC01C301B2010E94A3160E94FF
:100630005D192B013C019B01AC0169817A818B81A1
:100640009C810E946D176093E5017093E601809391
:10065000E7019093E801A3019201C701B6010E944E
:100660006D176093E1017093E2018093E301909331
:10067000E4010F900F900F900F90DF91CF911F9199
:100680000F91FF90EF90DF90CF90BF90AF907F9051
:100690006F905F904F9008954F925F926F927F920C
:1006A0008F929F92AF92BF92CF92DF92EF92FF9282
:1006B000CF93DF93CDB7DEB72C970FB6F894DEBF9C
:1006C0000FBECDBF6B017C019B01AC010E94A31644
:1006D000A70196010E94F61869837A838B839C8315
:1006E00020E030E040E450E4C701B6010E94F61873
:1006F000A70196010E94F6182B013C01A701960163
:1007000069817A818B819C810E94F618A3019201F4
:100710000E94A21620E030E040E85FE30E94A316AA
:100720004B015C0120E030E040E050ECC701B60135
:100730000E94F618A70196010E94F618A7019601DB
:100740000E94F618A30192010E94A3166D837E8376
:100750008F839887A7019601C701B6010E94F618FA
:1007600069877A878B879C87A70196010E94F61874
:100770002B013C0129813A814B815C810E94A216A8
:10078000A70196010E94A3166B017C0129853A8579
:100790004B855C85C301B2010E94A2162B013C016E
:1007A0002091250230912602409127025091280283
:1007B000C501B4010E94F61869837A838B839C83F8
:1007C00020911D0230911E0240911F025091200283
:1007D0006D817E818F8198850E94F6189B01AC0106
:1007E00069817A818B819C810E94A31669837A83B7
:1007F0008B839C832091110230911202409113024D
:1008000050911402C701B6010E94F6189B01AC0179
:1008100069817A818B819C810E94A31669837A8386
:100820008B839C832091090230910A0240910B0234
:1008300050910C02C301B2010E94F6189B01AC0159
:1008400069817A818B819C810E94A3166093DD016E
:100850007093DE018093DF019093E00120912102EB
:10086000309122024091230250912402C501B4012B
:100870000E94F6184B015C012091190230911A0276
:1008800040911B0250911C026D817E818F81988561
:100890000E94F6189B01AC01C501B4010E94A31689
:1008A0004B015C0120910D0230910E0240910F022C
:1008B00050911002C701B6010E94F6189B01AC01CD
:1008C000C501B4010E94A3166B017C0120910502B1
:1008D000309106024091070250910802C301B20113
:1008E0000E94F6189B01AC01C701B6010E94A31635
:1008F0006093D9017093DA018093DB019093DC015E
:100900002C960FB6F894DEBF0FBECDBFDF91CF910E
:10091000FF90EF90DF90CF90BF90AF909F908F901F
:100920007F906F905F904F9008952F923F924F92DB
:100930005F926F927F928F929F92AF92BF92CF926F
:10094000DF92EF92FF920F931F93CF93DF93CDB778
:10095000DEB764970FB6F894DEBF0FBECDBF8091AF
:100960001D0290911E02A0911F02B0912002898762
:100970009A87AB87BC878091250290912602A0912F
:100980002702B09128028D879E87AF87B88B9C0184
:10099000AD0169857A858B859C850E94A2166D8341
:1009A0007E838F839887A0901902B0901A02C0901E
:1009B0001B02D0901C028091210290912202A091F2
:1009C0002302B0912402898B9A8BAB8BBC8B9C0148
:1009D000AD01C601B5010E94A2162B013C012D817B
:1009E0003E814F815885CA01B9010E94F61869837A
:1009F0007A838B839C83A3019201C301B2010E947D
:100A0000F6189B01AC0169817A818B819C810E94DF
:100A1000A3160E945D1969837A838B839C832D8141
:100A20003E814F815885C301B2010E9416172B01E8
:100A30003C012BED3FE049E450E40E94EB1818160E
:100A40004CF42BED3FE049EC50E4C301B2010E94AD
:100A5000A2161BC02BED3FE049E450ECC301B201EC
:100A60000E94691787FD09C04092ED015092EE0186
:100A70006092EF017092F00110C02BED3FE049EC65
:100A800050E4C301B2010E94A3166093ED0170937C
:100A9000EE018093EF019093F001E984FA840B85D5
:100AA0001C8529893A894B895C896D857E858F856E
:100AB00098890E94DB028091E5019091E601A09166
:100AC000E701B091E8018093090290930A02A09394
:100AD0000B02B0930C028091E1019091E201A09190
:100AE000E301B091E4018093050290930602A09384
:100AF0000702B09308022FE632E143E85AE3698126
:100B00007A818B819C810E94691787FDA3C28091A5
:100B1000330290913402892B09F0CCC02091F1016D
:100B20003091F2014091F3015091F4016091ED0197
:100B30007091EE018091EF019091F0010E94A21658
:100B40006B017C012BED3FE049E450E40E94EB187F
:100B500018164CF42BED3FE049EC50E4C701B60108
:100B60000E94A21612C02BED3FE049E450ECC701F1
:100B7000B6010E94691787FF0AC02BED3FE049ECE0
:100B800050E4C701B6010E94A3166B017C0120E06E
:100B900030E040E05FE3C701B6010E94F6186B0148
:100BA0007C016091310270913202882777FD809537
:100BB000982F0E9408189B01AC01C701B6010E9442
:100BC000F6182DED35EA4EE751E40E94F6186B0158
:100BD0007C01609101027091020280910302909168
:100BE00004020E940818A70196010E94A3160E9401
:100BF000D5176093F9017093FA018093FB019093EC
:100C0000FC016091FD017091FE018091FF019091C6
:100C100000020E940818A70196010E94A3160E94D4
:100C2000D5176093F5017093F6018093F7019093C7
:100C3000F8010E94ED002DED35EA4EE751E469819F
:100C40007A818B819C810E94F6186B017C016091F6
:100C500001027091020280910302909104020E94AD
:100C60000818A70196010E94A3160E94D517609349
:100C7000F9017093FA018093FB019093FC0160915C
:100C8000FD017091FE018091FF01909100020E9490
:100C90000818A70196010E94A2160E94D51760931A
:100CA000F5017093F6018093F7019093F8010E948B
:100CB000ED0080C169817A818B819C810E94D5176A
:100CC000DB011196BA83A983C0902502D090260239
:100CD000E0902702F09028024090210250902202DA
:100CE0006090230270902402209111023091120230
:100CF000409113025091140260910D0270910E0206
:100D000080910F02909110020E941617062F7D838A
:100D10008D87192F2BED3FE049E450E40E94EB183A
:100D2000181674F42BED3FE049EC50E4602F7D8100
:100D30008D85912F0E94A216062F7D838D87192FF6
:100D400022242394312C89819A81AA2797FDA0958A
:100D5000BA2F89879A87AB87BC87A981BA81A215E8
:100D6000B3050CF427C1B101882777FD8095982F32
:100D70000E9408184B015C0169857A858B859C85EA
:100D80000E9408189B01AC01C501B4010E946D17B7
:100D90000E944C03A70196016091DD017091DE0174
:100DA0008091DF019091E0010E94A2164B015C014D
:100DB000A30192016091D9017091DA018091DB0168
:100DC0009091DC010E94A2166B017C01A5019401A7
:100DD000C501B4010E94F6182B013C01A701960140
:100DE000C701B6010E94F6189B01AC01C301B20114
:100DF0000E94A3160E945D192B013C01A5019401DC
:100E0000C701B6010E9416175B01982E892E2BEDA3
:100E10003FE049E450E40E94EB18181664F42BED0F
:100E20003FE049EC50E4B501892D982D0E94A216AF
:100E30005B01982E892E202F3D814D85512FB501C4
:100E4000892D982D0E94A2166B017C012BED3FE0AD
:100E500049E450E40E94EB1818164CF42BED3FE0E7
:100E600049EC50E4C701B6010E94A21612C02BED56
:100E70003FE049E450ECC701B6010E94691787FFC3
:100E80000AC02BED3FE049EC50E4C701B6010E94D7
:100E9000A3166B017C0120E030E040E05FE3C70176
:100EA000B6010E94F6186B017C018091310290918D
:100EB0003202BC01882777FD8095982F0E94081880
:100EC0009B01AC01C701B6010E94F6186B017C01C1
:100ED00060910102709102028091030290910402DC
:100EE0000E9408186D837E838F839887A7019601DF
:100EF000C301B2010E94A3162DED35EA4EE751E47D
:100F00000E94F6189B01AC016D817E818F819885CE
:100F10000E94A3160E94D5176093F9017093FA01FD
:100F20008093FB019093FC016091FD017091FE01A3
:100F30008091FF01909100020E9408186D837E83CA
:100F40008F839887A7019601C301B2010E94A21660
:100F50002DED35EA4EE751E40E94F6189B01AC01F5
:100F60006D817E818F8198850E94A2160E94D5177F
:100F70006093F5017093F6018093F7019093F80167
:100F80000E94ED00C090DD01D090DE01E090DF0115
:100F9000F090E0014090D9015090DA016090DB01BF
:100FA0007090DC019FEF291A390A0A2DBD829D86B7
:100FB000182DD3CE8091ED019091EE01A091EF011B
:100FC000B091F0018093F1019093F201A093F301AD
:100FD000B093F40180911D0290911E02A0911F0216
:100FE000B09120028093250290932602A0932702BD
:100FF000B09328028091190290911A02A0911B02CD
:10100000B0911C028093210290932202A0932302AC
:10101000B09324028091090290910A02A0910B02E0
:10102000B0910C028093110290931202A0931302CC
:10103000B09314028091050290910602A0910702DC
:10104000B091080280930D0290930E02A0930F02BC
:10105000B093100264960FB6F894DEBF0FBECDBFFA
:10106000DF91CF911F910F91FF90EF90DF90CF9084
:10107000BF90AF909F908F907F906F905F904F90B8
:101080003F902F9008951092250210922602109200
:10109000270210922802109221021092220210922E
:1010A0002302109224021092010210920202109266
:1010B0000302109204021092FD011092FE011092A0
:1010C000FF011092000280E090E0A0E8BFE380936F
:1010D000110290931202A0931302B0931402109283
:1010E0000D0210920E0210920F0210921002109236
:1010F000F1011092F2011092F3011092F40108959F
:101100000F931F93CF93DF9300D0CDB7DEB7AE011F
:101110004F5F5F4F64E371E00E945E1A8C01012B08
:10112000C9F1AE014F5F5F4F64E371E080E090E092
:101130000E945E1A8C01FC018081883569F4C80127
:1011400001960E94261A60931D0270931E028093DE
:101150001F0290932002E3CF893569F4C8010196FC
:101160000E94261A6093190270931A0280931B0240
:1011700090931C02D4CF8A3591F6C80101960E9443
:10118000261A6093150270931602809317029093AB
:101190001802C5CF0E9495040F900F90DF91CF9158
:1011A0001F910F910895CF93DF93EC010E942A1AAB
:1011B0008130910501F14C9719F510921D021092A2
:1011C0001E0210921F021092200210921902109219
:1011D0001A0210921B0210921C026091350270914B
:1011E000360289E692E00E94DB0D0E949504DF91B1
:1011F000CF910C944308CE01DF91CF910C948008DD
:10120000DF91CF9108956CE271E084E395E00E9454
:101210007B1460913102709132024AE050E084E325
:1012200095E00E943D1560E284E395E00E947D1404
:1012300022E030E040E050E060E872E484E395E0D2
:101240000E94481660E284E395E00E947D1440917C
:10125000250250912602609127027091280222E017
:1012600030E084E395E00E94481660E284E395E074
:101270000E947D144091210250912202609123022C
:101280007091240222E030E084E395E00E94481649
:1012900066E371E084E395E00E947B146091330281
:1012A000709134024AE050E084E395E00E943D15DD
:1012B00069E371E084E395E00E947B14609135025C
:1012C000709136024AE050E084E395E00E943D15BB
:1012D0006CE371E084E395E00E947B146091370237
:1012E000709138024AE050E084E395E00C94451593
:1012F000CF93DF9300D0CDB7DEB7AE014F5F5F4F26
:1013000064E371E00E945E1A89819A810E942A1A20
:10131000BC0189E692E00E94DB0D0F900F90DF91F7
:10132000CF9108950F931F93CF93DF9309E212E0BB
:10133000C0E0D0E0F80161918F01CE010E94951AC2
:101340002196C034D105B1F7DF91CF911F910F9154
:1013500008950F931F93CF93DF9300D0CDB7DEB7DF
:10136000AE014F5F5F4F64E371E00E945E1A8C0133
:10137000012B11F1AE014F5F5F4F64E371E080E03C
:1013800090E00E945E1A8C01FC018081873549F44F
:10139000C80101960E942A1A90933202809331026A
:1013A000E7CF883429F7C80101960E942A1A909342
:1013B000340280933302DCCF0E9492090F900F9089
:1013C000DF91CF911F910F9108950F931F93CF93AA
:1013D000DF9309E212E0C0E0D0E0CE010E948D1A56
:1013E000D8018D938D012196C034D105B1F744E029
:1013F00050E06FE371E089E292E00E94501A892B7D
:10140000B9F164E471E084E395E00E94881480E41B
:10141000E9E2F2E0DF011D928A95E9F783E491E4C5
:10142000A2E5B1E38093290290932A02A0932B02B4
:10143000B0932C028DE890E09093320280933102B9
:1014400081E090E0909334028093330280EA90E050
:1014500090933602809335028AE590E090933802AB
:1014600080933702DF91CF911F910F910C949209D5
:10147000DF91CF911F910F9108950F931F93CF93F9
:10148000DF9300D0CDB7DEB7AE014F5F5F4F64E3AF
:1014900071E00E945E1A8C01012B11F1AE014F5FC9
:1014A0005F4F64E371E080E090E00E945E1A8C017F
:1014B000FC018081853549F4C80101960E942A1AF1
:1014C0009093360280933502E7CF843429F7C80120
:1014D00001960E942A1A9093380280933702DCCF3B
:1014E00069E571E084E395E00E947B146091350228
:1014F000709136024AE050E084E395E00E943D1589
:101500006FE571E084E395E00E947B1460913702FF
:10151000709138024AE050E084E395E00E9445155E
:101520000E9492090F900F90DF91CF911F910F9120
:101530000895CF93DF93EC010E942A1A823091051F
:1015400089F03CF40197C1F4CE01DF91CF910C9466
:1015500078098530910559F00A9771F4DF91CF91A0
:101560000C940309CE01DF91CF910C943D0ACE017A
:10157000DF91CF910C94A909DF91CF910895FC01DF
:101580002081273421F401960E94D30805C02D3410
:1015900049F401960E94990A63E671E084E395E0BC
:1015A0000C948814089526E040E052EC61E070E06D
:1015B00084E395E00E94361360916C0270916D0295
:1015C00089E692E00E94A20D0E94E5090E9443086C
:1015D000609135027091360289E692E00C94DB0D41
:1015E00061E086E792E00E94190C62E082E792E0F7
:1015F0000E94190C67E08EE692E00E94190C8EE6BC
:1016000092E00E94490C90E090936D0280936C02EE
:1016100089E692E00C94080D84E395E00E94531251
:10162000892BF9F084E395E00E946C12E091980117
:1016300091E09E0F90939801FF27E7FDF095E75604
:10164000FE4F80838A3069F489E991E00E94BF0AE5
:1016500080E4E9E9F1E0DF011D928A95E9F7109253
:10166000980108958AE792E00C943A0B8AE792E099
:101670000C94630B21E030E0FC0131832083EE5FAA
:10168000FE4F1082118212821382349610821182D0
:101690001282138234961082319610823196108213
:1016A0001182128213823496118210823296108235
:1016B0003196108211821282138234961082118226
:1016C00012821382089508951F920F920FB60F92FF
:1016D00011240F931F932F933F934F935F936F9317
:1016E0007F938F939F93AF93BF93CF93EF93FF938A
:1016F00082E00E942A12C82F20919B0330919C0304
:101700002F5F3F4F30939C0320939B0380910104F4
:10171000843618F085E08093960390919603933079
:1017200079F018F4923039F070C0943011F195309E
:1017300009F44AC06AC0C11168C01092010429C0EE
:10174000C13009F062C0E091010481E08E0F809306
:101750000104F0E080919B0390919C03EB56FC4FB9
:10176000808710929C0310929B0384E080939603E1
:101770004CC0C11114C0E091010481E08E0F809330
:101780000104F0E080919B0390919C03EB56FC4F89
:10179000808710929C0310929B0383E0E7CF809197
:1017A0009B0390919C038536910578F185E08093A9
:1017B00096030E94F51060939703709398038093AB
:1017C000990390939A0321C00E94F510009197030A
:1017D000109198032091990330919A03601B710B2B
:1017E000820B930B693C71058105910540F01092C5
:1017F000010410929C0310929B0382E0B7CFC111A9
:1018000004C010929C0310929B03FF91EF91CF9123
:10181000BF91AF919F918F917F916F915F914F9108
:101820003F912F911F910F910F900FBE0F901F901E
:101830001895DC01E62FF0E0EE0FFF1FE25FFE4F90
:1018400080818C93818111968C93119712966C9361
:1018500008951F93CF93DF93EC01162F61E08881E9
:101860000E94BB11612F8881DF91CF911F910C9451
:10187000F4111F93CF93DF93EC01162F61E0898160
:101880000E94BB11612F8981DF91CF911F910C9430
:10189000F411FC01818108951F920F920FB60F92EF
:1018A00011242F933F934F935F936F937F938F9365
:1018B0009F93AF93BF93EF93FF938091030487FFB0
:1018C00005C010928500109284001AC02091030474
:1018D000332727FD30958091020490E028173907BF
:1018E0007CF480910304992787FD9095FC01EE0F0D
:1018F000FF1FE80FF91FEC5FFB4F808187FD15C0CC
:10190000809103048F5F80930304209103043327A5
:1019100027FD30958091020490E028173907BCF428
:10192000809103048C305CF112C0809103049927EC
:1019300087FD9095FC01EE0FFF1FE80FF91FEC5F8C
:10194000FB4F808160E08F770E94F411D9CF8091A6
:10195000840090918500049680349C4918F480E4BA
:101960009CE905C080918400909185000496909335
:101970008900809388008FEF8093030438C0209102
:1019800084003091850080910304992787FD90950C
:10199000FC01EE0FFF1FE80FF91FEC5FFB4F818189
:1019A0009281820F931F9093890080938800809189
:1019B0000304992787FD9095FC01EE0FFF1FE80FA8
:1019C000F91FEC5FFB4F808187FF11C080910304FA
:1019D000992787FD9095FC01EE0FFF1FE80FF91F77
:1019E000EC5FFB4F808161E08F770E94F411FF91E3
:1019F000EF91BF91AF919F918F917F916F915F9187
:101A00004F913F912F910F900FBE0F901F901895FF
:101A1000209102042C30A0F431E0320F3093020404
:101A2000FC012083822F90E0FC01EE0FFF1FE80FE6
:101A3000F91FEC5FFB4F88EB9BE092838183089555
:101A40002FEFFC0120830895DF92EF92FF920F9316
:101A50001F93CF93DF93EC01D62E7A018901888101
:101A60008C3008F066C061E08D2D0E94BB1188812A
:101A7000A82FB0E0FD01EE0FFF1FEA0FFB1FEC5F88
:101A8000FB4F2D2D2F7790819078922B908360E2E1
:101A900072E06E197F0977FF02C06D5F7F4F759509
:101AA000679575956795698340E659E0401B510B32
:101AB00057FF02C04D5F5F4F559547955595479528
:101AC0004A836CE00E94B9199CE0899FB0011124FF
:101AD00020E030E0A901460F571FFA01EE0FFF1F6B
:101AE000E40FF51FEC5FFB4F908197FD16C02F5F51
:101AF0003F4F2C30310571F781110FC010928000DB
:101B000082E0809381001092850010928400B19A47
:101B100080916F00826080936F00888190E0FC016B
:101B2000EE0FFF1FE80FF91FEC5FFB4F808180680D
:101B300080838881DF91CF911F910F91FF90EF906B
:101B4000DF90089520E639E040E252E00C94240D45
:101B5000FC0180818C3070F5918128E830E0291BF0
:101B6000310997FD3395220F331F220F331F621760
:101B700073077CF0928128E532E0291B310997FD3B
:101B80003395220F331F220F331F621773070CF494
:101B90009B0122503109220F331F4FB7F89490E078
:101BA000FC01EE0FFF1FE80FF91FEC5FFB4F3283C4
:101BB00021834FBF08954F925F926F927F92AF92B1
:101BC000BF92CF92DF92EF92FF920F931F93CF932A
:101BD000DF93EC01603282E078070CF040C077FDC3
:101BE00006C0653B71052CF064EB70E002C060E05C
:101BF00070E0898128E830E0281B310987FD3395A2
:101C0000220F331F220F331F5901CC24B7FCC0947D
:101C1000DC2C882777FD8095982F2A8148E552E0B3
:101C2000421B510927FD5395440F551F440F551F63
:101C30002A01662457FC6094762C7F926F925F9203
:101C40004F9214EBE12EF12C00E010E020E030E0A8
:101C5000A9010E944A160F900F900F900F90CE018D
:101C6000DF91CF911F910F91FF90EF90DF90CF9078
:101C7000BF90AF907F906F905F904F900C94A80DA5
:101C80001F920F920FB60F9211242F933F934F93F1
:101C90005F936F937F938F939F93AF93BF93EF93D4
:101CA000FF93E0916A04F0916B04309709F451C0FE
:101CB000868DA685B785958581FF04C08C91892383
:101CC00029F447C08C91892309F043C0A389B489C2
:101CD0009C918589809589238C9386899789019722
:101CE000F1F7208D318DA685B785758558E040E0E8
:101CF000C9010197F1F7842F90E095958795482FBA
:101D00006C91672309F04068515091F7868D81FDF1
:101D100040958091290490E001968F739927209136
:101D20002804281749F0A0912904B0E0A65DBB4F14
:101D30004C938093290403C0868D8160868F828DA9
:101D4000938D0197F1F7A389B4898C919589892B9B
:101D50008C93FF91EF91BF91AF919F918F917F9164
:101D60006F915F914F913F912F910F900FBE0F9008
:101D70001F90189580919B0490E020919C04821BF9
:101D80009109089520919C0480919B04281750F498
:101D9000E22FF0E0E356FB4F808190E02F5F20932D
:101DA0009C0408958FEF9FEF0895E0919C0480912B
:101DB0009B04E81730F4F0E0E356FB4F808190E09D
:101DC00008958FEF9FEF08950895CF92DF92EF92DD
:101DD000FF920F931F93CF93DF937C01CB018A0176
:101DE00020917804222389F0EB016B01C40ED51EEB
:101DF000CC15DD0569F06991D701ED91FC91019059
:101E0000F081E02DC7010995F3CF642F0E94550F93
:101E1000C801DF91CF911F910F91FF90EF90DF905C
:101E2000CF900895CF93DF931F92CDB7DEB769832C
:101E3000209178042223D1F020917904203240F0BF
:101E400021E030E0FC013383228380E090E015C084
:101E500080917A04E82FF0E0E558FB4F9981908358
:101E60008F5F80937A048093790405C061E0CE018E
:101E700001960E94550F81E090E00F90DF91CF9185
:101E80000895FC011382128248EE53E060E070E096
:101E900044835583668377838AE691E091838083C8
:101EA00008958CE694E00C94410F613298F42091EF
:101EB0002A05243089F46093DF04FC0181EE94E06C
:101EC000DC012A2F281B261718F421912D93F9CF16
:101ED00080E0089581E0089582E0089585ED809383
:101EE000BC008091BC0084FDFCCF10922A050895AF
:101EF00085EC8093BC0010922A0508951F920F92E2
:101F00000FB60F9211242F933F934F935F936F93CC
:101F10007F938F939F93AF93BF93EF93FF938091A2
:101F2000B900887F803609F49EC078F5883209F4BC
:101F30005DC090F4803109F456C038F4882309F468
:101F4000F5C0883009F44FC0F5C0883109F44EC09F
:101F5000803209F45FC0EEC0803409F46AC058F4DE
:101F6000803309F457C0883309F0E4C08093BD047E
:101F70000E94780FDFC0803509F44FC0883509F41E
:101F80005DC0883409F0D6C0D3C0883909F4C4C014
:101F9000A8F4883709F467C038F4883609F463C0B8
:101FA000803709F460C0C6C0883809F4B5C08039EC
:101FB00009F45FC0803809F0BDC05BC0803B09F404
:101FC00083C038F4803A09F466C0883A09F47CC0CA
:101FD000B1C0803C09F4A4C0883C09F4A1C0883B8E
:101FE00009F487C0A7C08091290510C0909102050F
:101FF00080910105981770F5E091020581E08E0F40
:1020000080930205F0E0ED5FFA4F80818093BB0082
:1020100085EC83C08093BD048BC0E091020581E014
:102020008E0F809302058091BB00F0E0ED5FFA4FC8
:10203000808390910205809101056BC0E0910205BB
:1020400081E08E0F809302058091BB00F0E0ED5F90
:10205000FA4F80838091280581116AC081E08093C6
:10206000270584EA5EC083E080932A051092BE04AF
:10207000CFCF8091BE04803208F04EC0E091BE0404
:1020800081E08E0F8093BE048091BB00F0E0E154AC
:10209000FB4F8083BDCF0E94780F8091BE048032B9
:1020A00030F4E091BE04F0E0E154FB4F1082609107
:1020B000BE0470E0E0912305F09124058FEB94E0DD
:1020C00009951092BE0436C084E080932A051092D0
:1020D000E0041092DF04E0912505F09126050995B2
:1020E0008091DF04811105C081E08093DF041092AC
:1020F000E104E091E00481E08E0F8093E004F0E0E1
:10210000EF51FB4F80818093BB009091E004809160
:10211000DF04981708F47CCF85E88093BC000AC0E0
:1021200085EC8093BC0010922A0504C01092BD0477
:102130000E946E0FFF91EF91BF91AF919F918F9190
:102140007F916F915F914F913F912F910F900FBEB3
:102150000F901F9018951F920F920FB60F92112497
:102160002F933F938F939F93AF93BF9380912C05B1
:1021700090912D05A0912E05B0912F0530912B0542
:1021800023E0230F2D3720F40196A11DB11D05C0BA
:1021900026E8230F0296A11DB11D20932B058093E5
:1021A0002C0590932D05A0932E05B0932F058091BB
:1021B000300590913105A0913205B091330501961B
:1021C000A11DB11D8093300590933105A093320578
:1021D000B0933305BF91AF919F918F913F912F9114
:1021E0000F900FBE0F901F9018952FB7F894609125
:1021F0002C0570912D0580912E0590912F052FBFF4
:1022000008953FB7F8948091300590913105A091E1
:102210003205B091330526B5A89B05C02F3F19F0B4
:102220000196A11DB11D3FBF6627782F892F9A2FD8
:10223000620F711D811D911D42E0660F771F881F7F
:10224000991F4A95D1F70895CF92DF92EF92FF92AE
:10225000CF93DF936B017C010E940111EB01C1144C
:10226000D104E104F10489F00E94A1160E94011139
:102270006C1B7D0B683E734090F381E0C81AD10857
:10228000E108F108C851DC4FEACFDF91CF91FF9010
:10229000EF90DF90CF9008958230910538F0880F4D
:1022A000991F880F991F05970197F1F70895789462
:1022B00084B5826084BD84B5816084BD85B582604B
:1022C00085BD85B5816085BDEEE6F0E080818160E9
:1022D0008083E1E8F0E010828081826080838081E9
:1022E00081608083E0E8F0E0808181608083E1EBC1
:1022F000F0E0808184608083E0EBF0E080818160A9
:102300008083EAE7F0E0808184608083808182605E
:102310008083808181608083808180688083109247
:10232000C1000895833081F028F4813099F0823023
:10233000A1F008958730A9F08830B9F08430D1F445
:10234000809180008F7D03C0809180008F77809383
:102350008000089584B58F7702C084B58F7D84BDD9
:1023600008958091B0008F7703C08091B0008F7D79
:102370008093B0000895CF93DF9390E0FC01E65581
:10238000FF4F2491FC01E254FF4F8491882349F1CF
:1023900090E0880F991FFC01EA51FF4FA591B4917D
:1023A00084529F4FFC01C591D4919FB7611108C021
:1023B000F8948C91209582238C93888182230AC083
:1023C000623051F4F8948C91322F309583238C93A2
:1023D0008881822B888304C0F8948C91822B8C9303
:1023E0009FBFDF91CF9108950F931F93CF93DF93FA
:1023F0001F92CDB7DEB7282F30E0F901EA56FF4F24
:102400008491F901E655FF4F1491F901E254FF4F11
:1024100004910023C9F0882321F069830E9492115E
:102420006981E02FF0E0EE0FFF1FE452FF4FA5910E
:10243000B4919FB7F8948C91611103C010958123DA
:1024400001C0812B8C939FBF0F90DF91CF911F9183
:102450000F910895CF93DF93282F30E0F901EA56CA
:10246000FF4F8491F901E655FF4FD491F901E254F1
:10247000FF4FC491CC2391F081110E949211EC2F57
:10248000F0E0EE0FFF1FEE52FF4FA591B4912C919B
:102490002D2381E090E021F480E002C080E090E014
:1024A000DF91CF910895FC01818D228D90E0805CB9
:1024B0009F4F821B91098F7399270895FC01918D7D
:1024C000828D981731F0828DE80FF11D858D90E097
:1024D00008958FEF9FEF0895FC01918D828D9817DD
:1024E00061F0828DDF01A80FB11D5D968C91928DF8
:1024F0009F5F9F73928F90E008958FEF9FEF0895F5
:1025000080EF93E1892B49F080E090E0892B29F05E
:102510000E94F01381110C9400000895FC01848D39
:10252000DF01A80FB11DA35ABF4F2C91848D90E0FD
:1025300001968F739927848FA689B7892C93A089D8
:10254000B1898C9180648C93938D848D981306C08F
:102550000288F389E02D80818F7D80830895CF9359
:10256000DF93EC01888D8823C9F0EA89FB8980819B
:1025700085FD05C0A889B9898C9186FD0FC00FB66D
:1025800007FCF5CF808185FFF2CFA889B9898C91AE
:1025900085FFEDCFCE010E948E12E7CFDF91CF9164
:1025A0000895CF92DF92FF920F931F93CF93DF9303
:1025B0001F92CDB7DEB76C0181E0D60158968C939F
:1025C00058975B969C915B975C968C915C9798135F
:1025D00007C05096ED91FC915197808185FD2EC0EA
:1025E000F601038D10E00F5F1F4F0F731127F02EC0
:1025F000F601848DF81211C00FB607FCF9CFD60191
:102600005096ED91FC915197808185FFF1CFC601E5
:1026100069830E948E126981EBCF838DE80FF11DD3
:10262000E35AFF4F6083D6015B960C935B975296FB
:10263000ED91FC915397808180620CC0D601569633
:10264000ED91FC91579760835096ED91FC915197D5
:1026500080818064808381E090E00F90DF91CF9152
:102660001F910F91FF90DF90CF900895BF92CF926E
:10267000DF92EF92FF92CF93DF93EC016A017B012F
:10268000B22EE889F98982E08083411581EE5807EE
:1026900061057105A1F060E079E08DE390E0A701AC
:1026A00096010E94C51921503109410951095695D9
:1026B000479537952795211580E1380798F0E889E7
:1026C000F989108260E874E88EE190E0A701960134
:1026D0000E94C51921503109410951095695479564
:1026E00037952795EC85FD853083EE85FF85208322
:1026F000188EEC89FD89B082EA89FB89808180612E
:102700008083EA89FB89808188608083EA89FB89EC
:10271000808180688083EA89FB8980818F7D8083C6
:10272000DF91CF91FF90EF90DF90CF90BF90089511
:102730001F920F920FB60F9211242F938F939F9396
:10274000EF93FF93E0914405F09145058081E0917E
:102750004A05F0914B0582FD12C0908180914D0594
:102760008F5F8F7320914E05821751F0E0914D05D8
:10277000F0E0EC5CFA4F958F80934D0501C08081AD
:10278000FF91EF919F918F912F910F900FBE0F901E
:102790001F9018951F920F920FB60F9211242F932E
:1027A0003F934F935F936F937F938F939F93AF93D9
:1027B000BF93EF93FF9384E395E00E948E12FF9105
:1027C000EF91BF91AF919F918F917F916F915F91A9
:1027D0004F913F912F910F900FBE0F901F90189522
:1027E00084E395E00E94531221E0892B09F420E054
:1027F000822F0895109237051092360588EE93E0E7
:10280000A0E0B0E08093380590933905A0933A0595
:10281000B0933B058AE791E09093350580933405AA
:1028200085EC90E0909341058093400584EC90E026
:10283000909343058093420580EC90E0909345058A
:102840008093440581EC90E0909347058093460582
:1028500082EC90E0909349058093480586EC90E0E7
:1028600090934B0580934A0510924D0510924E05AA
:1028700010924F05109250050895CF92DF92EF927B
:10288000FF920F931F93CF93DF937C016A01EB01BB
:1028900000E010E00C151D0571F06991D701ED9174
:1028A000FC910190F081E02DC7010995892B19F069
:1028B0000F5F1F4FEFCFC801DF91CF911F910F9195
:1028C000FF90EF90DF90CF9008956115710581F032
:1028D000DB010D900020E9F7AD0141505109461B85
:1028E000570BDC01ED91FC910280F381E02D0994FE
:1028F00080E090E008950C946514DC01ED91FC916A
:102900000190F081E02D099466E871E00C94651463
:102910000F931F93CF93DF93EC010E9465148C01FA
:10292000CE010E948414800F911FDF91CF911F91DF
:102930000F9108958F929F92AF92BF92CF92DF92A4
:10294000EF92FF920F931F93CF93DF93CDB7DEB734
:10295000A1970FB6F894DEBF0FBECDBF7C01C42E89
:10296000E52FCB01D22E19A221E02D1510F02AE07F
:10297000D22E8E010F5D1F4F8D2C912CA12CB12CCE
:102980006C2D7E2FA50194010E94C5198C2DD29E1D
:1029900080191124015011098A3014F4805D01C09E
:1029A000895CF8018083211531054105510521F02D
:1029B000C22EE32FCA01E4CFB801C7010E946514FB
:1029C000A1960FB6F894DEBF0FBECDBFDF91CF91B9
:1029D0001F910F91FF90EF90DF90CF90BF90AF903D
:1029E0009F908F900895CF92DF92EF92FF920F9376
:1029F0001F93CF93DF93EC016A017B012115310511
:102A000079F4E881F9810190F081E02D642FDF9164
:102A1000CF911F910F91FF90EF90DF90CF9009948D
:102A20002A303105E9F477FF1AC06DE20E947D1467
:102A30008C0144275527BA014C195D096E097F099D
:102A40002AE0CE010E949A14800F911FDF91CF914E
:102A50001F910F91FF90EF90DF90CF9008952AE0A3
:102A6000B701A601CE01DF91CF911F910F91FF9089
:102A7000EF90DF90CF900C949A149A01AB016627E7
:102A800057FD6095762F0C94F3140F931F93CF93FB
:102A9000DF93EC019A01AB01662757FD6095762F15
:102AA0000E94F3148C01CE010E948414800F911FA8
:102AB000DF91CF911F910F9108954F925F926F9286
:102AC0007F928F929F92AF92BF92CF92DF92EF92BE
:102AD000FF920F931F93CF93DF93EC016A017B0169
:102AE000B22E9A01AB01C701B6010E949E1988233C
:102AF00019F069E871E027C026013701E89477F8FA
:102B00002FEF3FEF4FE75FE7C301B2010E949E192D
:102B100081110DC02FEF3FEF4FE75FE7C301B20117
:102B20000E94691718161CF46DE871E00CC02FEFB5
:102B30003FEF4FE75FE4C701B6010E94EB1818169C
:102B4000ACF461E971E0CE01DF91CF911F910F915B
:102B5000FF90EF90DF90CF90BF90AF909F908F90BD
:102B60007F906F905F904F900C9465142FEF3FEF24
:102B70004FE75FECC701B6010E94691787FDE1CFFF
:102B800020E030E0A901C701B6010E94691787FF64
:102B90000AC06DE2CE010E947D148C01F7FAF09418
:102BA000F7F8F09402C000E010E0A12C60E070E0C3
:102BB00080E09FE3AB1441F020E030E040E251E4DC
:102BC0000E946D17A394F6CF9B01AC01C701B6011B
:102BD0000E94A3166B017C010E94DA172B013C01B5
:102BE0000E9406189B01AC01C701B6010E94A21603
:102BF0006B017C012AE0B301A201CE010E949A146C
:102C0000080F191FBB2039F065E971E0CE010E9461
:102C10006514080F191F7B2C772041F120E030E06C
:102C200040E251E4C701B6010E94F6186B017C0135
:102C30000E94D5174B01AA2497FCA094BA2C2AE035
:102C400030E0B501A401CE010E94F314080F191F52
:102C5000C501B4010E9408189B01AC01C701B6016F
:102C60000E94A2166B017C017A94D6CFC801DF9135
:102C7000CF911F910F91FF90EF90DF90CF90BF9079
:102C8000AF909F908F907F906F905F904F9008953E
:102C90000C945D154F925F926F927F92AF92BF92AC
:102CA000CF92DF92EF92FF920F931F93CF93DF9318
:102CB000CDB7DEB729013A01621B730B840B950B6C
:102CC00029893A894B895C892A193B094C095D0994
:102CD000298B3A8B4B8B5C8B9B01AC0169897A8980
:102CE0008B899C890E94A919E418F508060917091F
:102CF000A80197010E94E7192A0D3B1D4C1D5D1D7F
:102D0000CA01B901DF91CF911F910F91FF90EF9010
:102D1000DF90CF90BF90AF907F906F905F904F907B
:102D2000089508950E9457110E9491160E94D30A97
:102D3000C0E8D2E10E940C0B2097E1F30E948012C0
:102D4000F9CF08955058BB27AA270ED00AC2FBD14D
:102D500030F000D220F031F49F3F11F41EF4CBC1CB
:102D60000EF4E095E7FBB3C1E92F0CD280F3BA175C
:102D7000620773078407950718F071F49EF524C263
:102D80000EF4E0950B2EBA2FA02D0B01B901900186
:102D90000C01CA01A0011124FF27591B99F0593FCA
:102DA00050F4503E68F11A16F040A22F232F342F12
:102DB0004427585FF3CF469537952795A795F04060
:102DC0005395C9F77EF41F16BA0B620B730B840B75
:102DD000BAF09150A1F0FF0FBB1F661F771F881F2D
:102DE000C2F70EC0BA0F621F731F841F48F4879585
:102DF00077956795B795F7959E3F08F0B3CF939574
:102E0000880F08F09927EE0F9795879508959BD125
:102E100058F080E891E009F49EEF9CD128F040E85A
:102E200051E059F45EEF09C066C1CEC1E92FE078E8
:102E3000A9D168F3092E052AC1F3261737074807D9
:102E4000590738F00E2E07F8E02569F0E025E06418
:102E50000AC0EF6307F8009407FADB01B9019D018E
:102E6000DC01CA01AD01EF9347D07BD10AD05F915D
:102E7000552331F02BED3FE049E450FD49EC63CFA1
:102E80000895DF93DD27B92FBF7740E85FE316167B
:102E9000170648075B0710F4D92FA1D19F938F9392
:102EA0007F936F9348D2E8E6F0E028D15AD12F9172
:102EB0003F914F915F91A6D1DD2349F09058A2EA4E
:102EC0002AED3FE049EC5FE3D0785D274DDFDF91ED
:102ED00048C1D9D008F481E008950CD042C13AD15C
:102EE00040F031D130F021F45F3F19F0F0C05111C2
:102EF0006CC101C147D198F39923C9F35523B1F3AC
:102F0000951B550BBB27AA2762177307840738F058
:102F10009F5F5F4F220F331F441FAA1FA9F333D0B7
:102F20000E2E3AF0E0E830D091505040E695001C6B
:102F3000CAF729D0FE2F27D0660F771F881FBB1F27
:102F4000261737074807AB07B0E809F0BB0B802D01
:102F5000BF01FF2793585F4F2AF09E3F510568F04D
:102F6000B6C033C15F3FECF3983EDCF386957795AE
:102F70006795B795F7959F5FC9F7880F911D96954F
:102F8000879597F90895E1E0660F771F881FBB1FAB
:102F9000621773078407BA0720F0621B730B840B58
:102FA000BA0BEE1F88F7E095089504D06894B1112C
:102FB0000CC10895EFD088F09F5790F0B92F992752
:102FC000B751A0F0D1F0660F771F881F991F1AF034
:102FD000BA95C9F712C0B13081F0F6D0B1E00895CA
:102FE000F3C0672F782F8827B85F39F0B93FCCF34B
:102FF000869577956795B395D9F73EF4909580952A
:10300000709561957F4F8F4F9F4F0895E89409C049
:1030100097FB3EF490958095709561957F4F8F4F0B
:103020009F4F9923A9F0F92F96E9BB279395F69521
:10303000879577956795B795F111F8CFFAF4BB0F9F
:1030400011F460FF1BC06F5F7F4F8F4F9F4F16C003
:10305000882311F096E911C0772321F09EE8872F8D
:10306000762F05C0662371F096E8862F70E060E049
:103070002AF09A95660F771F881FDAF7880F9695C2
:10308000879597F90895990F0008550FAA0BE0E866
:10309000FEEF16161706E807F907C0F0121613061A
:1030A000E407F50798F0621B730B840B950B39F45A
:1030B0000A2661F0232B242B252B21F408950A26C0
:1030C00009F4A140A6958FEF811D811D089597F900
:1030D0009F6780E870E060E008959F3F31F0915075
:1030E00020F4879577956795B795880F911D9695EC
:1030F000879597F908959FEF80EC0895DF93CF931C
:103100001F930F93FF92EF92DF927B018C016894E3
:1031100005C0DA2EEF0176D0FE01E894A591259145
:10312000359145915591AEF3EF011EDEFE019701F9
:10313000A801DA9479F7DF90EF90FF900F911F913B
:10314000CF91DF91089500240A94161617061806E9
:103150000906089500240A9412161306140605069B
:103160000895092E0394000C11F4882352F0BB0F2C
:1031700040F4BF2B11F460FF04C06F5F7F4F8F4F8F
:103180009F4F089557FD9058440F551F59F05F3FCA
:1031900071F04795880F97FB991F61F09F3F79F079
:1031A00087950895121613061406551FF2CF4695FB
:1031B000F1DF08C0161617061806991FF1CF86957D
:1031C0007105610508940895E894BB276627772761
:1031D000CB0197F9089557DF08F48FEF08959B010D
:1031E000AC0160E070E080E89FE377CE0BD0B9CF10
:1031F000AADF28F0AFDF18F0952309F068CF7BCF66
:103200001124E3CFBFDFA0F3959FD1F3950F50E0DA
:10321000551F629FF001729FBB27F00DB11D639F88
:10322000AA27F00DB11DAA1F649F6627B00DA11D2E
:10323000661F829F2227B00DA11D621F739FB00DD4
:10324000A11D621F839FA00D611D221F749F332744
:10325000A00D611D231F849F600D211D822F762FDD
:103260006A2F11249F5750408AF0E1F088234AF0DA
:10327000EE0FFF1FBB1F661F771F881F9150504026
:10328000A9F79E3F510570F022CF9FCF5F3FECF32F
:10329000983EDCF3869577956795B795F795E79512
:1032A0009F5FC1F7FE2B880F911D9695879597F923
:1032B000089511F40EF41FCF10CF6CDFD0F39923D3
:1032C000D9F3CEF39F57550B87FF3CD00024A0E6DF
:1032D00040EA900180585695979528F4805C660FD7
:1032E000771F881F20F026173707480730F4621B26
:1032F000730B840B202931294A2BA6951794079428
:10330000202531254A2758F7660F771F881F20F0A0
:1033100026173707480730F4620B730B840B200D18
:10332000311D411DA09581F7B901842F9158880F57
:103330009695879508959B01AC0158CFA4DE880B24
:10334000990B089591505040660F771F881FD2F750
:103350000895DB018F939F930E94151ABF91AF913F
:10336000A29F800D911DA39F900DB29F900D1124DF
:103370000895991B79E004C0991F961708F0961BD1
:10338000881F7A95C9F780950895A1E21A2EAA1B85
:10339000BB1BFD010DC0AA1FBB1FEE1FFF1FA21705
:1033A000B307E407F50720F0A21BB30BE40BF50B02
:1033B000661F771F881F991F1A9469F7609570958B
:1033C000809590959B01AC01BD01CF010895052E1C
:1033D00097FB1EF400940E94FE1957FD07D00E942F
:1033E000C51907FC03D04EF40C94FE195095409576
:1033F000309521953F4F4F4F5F4F089590958095A1
:10340000709561957F4F8F4F9F4F0895A29FB00198
:10341000B39FC001A39F700D811D1124911DB29F08
:10342000700D811D1124911D08950E94061AA59FFB
:10343000900DB49F900DA49F800D911D11240895AF
:10344000EE0FFF1F0590F491E02D09946627772772
:103450000C94A31AFC0188279927E8942191203223
:10346000E9F3293010F02E30C8F32B3241F02D3221
:1034700039F4689404C00E94851A820F911D21912D
:1034800020532A30C0F31EF4909581959F4F0895E4
:103490009111BCC1803219F089508550D0F7089540
:1034A000FB01DC014150504030F08D9101908019BA
:1034B00019F40020B9F7881B990B0895FA01A1911E
:1034C000B081009719F41097E1F0CD01DC01CD0136
:1034D0000D90002011F4C00113C0FB0121912223A3
:1034E00019F02015D9F7F3CFFB012191201519F41C
:1034F0001E92119606C02223C1F70D900020A1F75D
:10350000D001FA01A193B08308957AE0979F902D9E
:10351000879F802D910D11240895F999FECF92BDBA
:1035200081BDF89A992780B50895262FF999FECF85
:103530001FBA92BD81BD20BD0FB6F894FA9AF99AD0
:103540000FBE01960895A0E0B0E0E9EAFAE10C941C
:10355000271C8B016115710521F0DB018C931196FD
:103560009C93EC015E01BFEFAB1ABB0A7501C880EA
:103570008C2D90E00E94481A892B11F0E501F2CFC2
:10358000EDE2CE1208C07E01F2E0EF0EF11CC98020
:10359000DD24D39409C02BE2C21205C07E0142E0B3
:1035A000E40EF11CC980D12CE701219743E050E0E3
:1035B00068EF70E0CE010E94091C892BC1F42396AC
:1035C00045E050E063EF70E0CE010E94091C892BBA
:1035D00009F425960115110519F0D801CD93DC9356
:1035E000D11006C160E070E080E89FE70AC143E0C7
:1035F00050E060EF70E0CE010E94091C892B59F465
:103600000115110509F4F9C0B2E0EB0EF11CF80147
:10361000F182E082F2C0F70160E070E0CB01C0E02F
:10362000D0E07F01A0EDAA2EAC0C29E02A1530F1E4
:103630004D2D4260B42E2D2D2870D2FE04C02111D4
:1036400025C0219623C021112197A5E0B0E09B0160
:10365000AC010E94151A660F771F881F991F6A0D0B
:10366000711D811D911D6839A9E97A078A07A9E1B1
:103670009A0760F0BD2DB660BB2E08C02EEFA212D7
:103680000AC0D3FC50C04D2D4860B42E3196D701EE
:10369000CC90DB2CC6CF2C2D2F7D253409F043C0D8
:1036A000A081AD3241F4BD2DB061DB2E7F0122E05F
:1036B000E20EF11C0CC07F01AB3231F04FEFE41A87
:1036C000F40A21E030E006C0A2E0EA0EF11CA1817C
:1036D00022E030E0A053AA3018F0E21AF30A23C027
:1036E000F70120E030E02038BCE03B075CF4A901A2
:1036F000440F551F440F551F240F351F220F331F32
:103700002A0F311DAF014F5F5F4F7A01A081A05397
:10371000AA3010F4FA01E7CFD4FE03C03195219509
:103720003109C20FD31FD1FE09C00115110531F0B7
:10373000E1E0EE1AF108D801ED92FC920E94061821
:103740002D2D2370233019F04B015C0106C04B0175
:103750005C01B7FAB094B7F8B09420E030E0A9016A
:10376000C501B4010E946917882309F43EC0D7FF40
:1037700006C0D195C195D1090FE011E002C007E262
:1037800011E06801B8E1CB1AD10890E2E92EF12CE2
:10379000CE15DF0574F0F8012591359145915491CE
:1037A000C501B4010E94F6184B015C01CE19DF0976
:1037B000EFCF04501109F594E7940C151D0541F75E
:1037C0008A2D880F8B2D881F8F3F49F020E030E035
:1037D000A901C501B4010E946917811106C082E2E6
:1037E00090E09093D2058093D105C501B40109C042
:1037F00060E070E080E89FEF04C060E070E080EC83
:103800009FE7CDB7DEB7ECE00C94431C99278827DF
:103810000895FB01DC014150504088F08D918134C6
:103820001CF08B350CF4805E659161341CF06B35B7
:103830000CF4605E861B611171F3990B0895881B6F
:10384000FCCF2F923F924F925F926F927F928F9216
:103850009F92AF92BF92CF92DF92EF92FF920F931F
:103860001F93CF93DF93CDB7DEB7CA1BDB0B0FB629
:10387000F894DEBF0FBECDBF09942A8839884888E6
:103880005F846E847D848C849B84AA84B984C8847C
:10389000DF80EE80FD800C811B81AA81B981CE0F73
:1038A000D11D0FB6F894DEBF0FBECDBFED01089558
:1038B00011E0C4E3D1E004C0FE010E94221A229666
:0A38C000C633D107C9F7F894FFCF13
:1038CA000000D305800001000000E803C8000000E2
:1038DA000B0A03090C0D080200001011140F150E33
:1038EA000607050400000000000000004D313020EA
:1038FA004D434152200020480020550020440043F7
:10390A004152310073657420746F20646566617575
:10391A006C74207365747570004D3220553A00201E
:10392A00443A004F4B0000000000120FE50EBA0E99
:10393A00C20ED50EE40E00000000D1123D1453123F
:10394A006C125E12AF120D0A006E616E00696E662D
:08395A00006F7666002E0000EC
:00000001FF
