:100000000C949B000C94C3000C94C3000C94230C20
:100010000C94230C0C94230C0C94C3000C944309F3
:100020000C94C3000C94C3000C94C3000C942F0ACE
:100030000C94C3000C94C3000C94C3000C94C30034
:100040000C942F0F0C94C3000C947B120C94AD12E3
:100050000C94C3000C94C3000C94C3000C94C30014
:100060000C94020E0C94C300084AD73B3BCE016EA1
:1000700084BCBFFDC12F3D6C74319ABD56833DDAFF
:100080003D00C77F11BED9E4BB4C3E916BAAAABE0E
:10009000000000803F000000000800020100000393
:1000A0000407000000000000000001020408102006
:1000B00040800102040810200102040810200404FA
:1000C0000404040404040202020202020303030300
:1000D00003030000000023002600290000000000A8
:1000E000250028002B0000000000240027002A0023
:1000F0004E414E494E495459494E46CDCCCC3D0A0D
:10010000D7233C17B7D13877CC2B329595E6241FEF
:10011000B14F0A000020410000C84200401C4620A8
:10012000BCBE4CCA1B0E5AAEC59D74000308110913
:10013000600DDD12150911241FBECFEFD8E0DEBF20
:10014000CDBF11E0A0E0B1E0E6E5F7E302C0059025
:100150000D92A83CB107D9F725E0A8ECB1E001C0A9
:100160001D92AA3FB207E1F711E0C4E3D1E004C059
:100170002297FE010E942C19CC32D107C9F70E94A8
:100180009B150C949E1B0C9400001816190614F471
:1001900060E001C061E08CE292E00E94080A61E048
:1001A0008CE292E00E94180A60E08CE292E00C94EB
:1001B000180A1816190614F460E001C061E080E323
:1001C00092E00E94080A61E080E392E00E94180A2F
:1001D00060E080E392E00C94180A4F925F926F9275
:1001E0007F928F929F92AF92BF92CF92DF92EF92C7
:1001F000FF92CF93DF93CDB7DEB768970FB6F89431
:10020000DEBF0FBECDBF4B015C0169017A012091B9
:100210000E0130910F01409110015091110129837D
:100220003A834B835C83CA01B9010E94AC1569878C
:100230007A878B879C87A70196010E94E017698BBC
:100240007A8B8B8B9C8BA5019401C501B4010E9414
:10025000E0176D837E838F839887A7019601C7017E
:10026000B6010E94E0172B013C019B01AC016D819E
:100270007E818F8198850E94AC156B017C01F7FA15
:10028000F094F7F8F09420E030E040E850EC698119
:100290007A818B819C810E94E01729813A814B8170
:1002A0005C810E94E0172D813E814F8158850E941C
:1002B000AC15A30192010E94AC159B01AC01C701D2
:1002C000B6010E94E0170E9467186B017C01A5012E
:1002D000940169857A858B859C850E94E0176D8BDA
:1002E0007E8B8F8B988FA701960169897A898B897C
:1002F0009C890E94AB156B017C012D893E894F8939
:10030000588D6D817E818F8198850E94AB15A301E8
:1003100092010E94AC159B01AC01C701B6010E947D
:100320003C160E9410169B01AC010E94AC15609314
:10033000190270931A0280931B0290931C02C090C2
:100340001201D0901301E0901401F0901501A70163
:100350009601C701B6010E94E0176D877E878F87DF
:10036000988BA7019601C701B6010E94AC15A501A3
:1003700094010E94E0179B01AC016D857E858F85FD
:1003800098890E94AB154B015C012D813E814F8104
:1003900058850E94AC15A30192010E94AC159B01E7
:1003A000AC0150582D873E874F87588B20E030E0B6
:1003B00040E850E469817A818B819C810E94E0173A
:1003C00029813A814B815C810E94E0179B01AC013D
:1003D000C501B4010E94AB152D813E814F81588526
:1003E0000E94AC15A30192010E94AC159B01AC01C7
:1003F0006D857E858F8598890E94E0170E94671819
:100400009B01AC0169897A898B899C890E94AB1513
:1004100069837A838B839C83A701960169857A859A
:100420008B859C850E94E0179B01AC01C501B4013E
:100430000E94AB152D813E814F8158850E94AC15DD
:100440002D893E894F89588D0E94AC15A3019201D8
:100450000E94AC159B01AC0169817A818B819C81E2
:100460000E943C160E9410169B01AC010E94AC1524
:1004700060931502709316028093170290931802EE
:1004800068960FB6F894DEBF0FBECDBFDF91CF9157
:10049000FF90EF90DF90CF90BF90AF909F908F90A4
:1004A0007F906F905F904F900895CF92DF92EF9280
:1004B000FF9269017A012BED3FE049E450E40E948C
:1004C0003C1620E030E04AE756E40E94E01720E0C6
:1004D00030E040E05FE30E94E0170E9443180E9472
:1004E000A4166093110270931202809313029093EA
:1004F00014022BED3FE049E450E4C701B6010E942D
:100500003C1620E030E04AE756E40E94E01720E085
:1005100030E040E05FE30E94E0170E9443180E9431
:10052000A41660930D0270930E0280930F029093B5
:100530001002FF90EF90DF90CF9008952F923F929E
:100540004F925F926F927F928F929F92AF92BF92E3
:10055000CF92DF92EF92FF920F931F93CF93DF938F
:10056000CDB7DEB764970FB6F894DEBF0FBECDBF30
:1005700080910A0190910B012C01662457FC609434
:10058000762C20903E0230903F0280913A0290916A
:100590003B02281A390A20913C0230913D02809199
:1005A000380290913902281B390B3A83298359016B
:1005B00037FF03C0B194A194B108410137FE04C0D4
:1005C00088249924821893089E828D828A149B0421
:1005D00014F4BE82AD824D815E81BA01882777FD19
:1005E0008095982F0E94D7166B017C01B401882753
:1005F00077FD8095982F0E94D716A70196010E943B
:100600003C166D877E878F87988BB501882777FD8D
:100610008095982F0E94D716A70196010E943C163C
:10062000698B7A8B8B8B9C8B1C821B82812C912CEF
:100630005401750164018FEF9FEF9C878B87809138
:100640003E0290913F02EB81FC812D813E81E217B9
:10065000F3070CF0EEC020913A0230913B022817CC
:100660003907A9F12D853E854F855889C701B60107
:100670000E94AC156B017C0120E030E040E85FE3B4
:100680000E94D51787FD23C0121413041CF4809117
:10069000370202C080913602082F112707FD1095FE
:1006A000C8010E94C50020E030E040E85FE3C701D8
:1006B000B6010E94AB156B017C0180913A029091CA
:1006C0003B02800F911F90933B0280933A0220914E
:1006D00038023091390280913C0290913D022817F6
:1006E0003907B9F129893A894B895C89C501B40177
:1006F0000E94AC154B015C0120E030E040E85FE374
:100700000E94D51787FD25C0E981FA811E161F06B4
:100710001CF48091350202C080913402082F112709
:1007200007FD1095C8010E94D90020E030E040E8A4
:100730005FE3C501B4010E94AB154B015C018091E0
:10074000380290913902800F911F90933902809363
:1007500038024B855C858A01222717FD2095322FB0
:10076000040D151D261D371D80910C0190910D0162
:10077000AA2797FDA095BA2F081719072A073B0744
:100780008CF040910A0150910B01662757FD60954E
:10079000762FD901C801401751076207730714F477
:1007A000DB01CA014090090250900A0260900B02DE
:1007B00070900C02480E591E6A1E7B1E51E14516B0
:1007C00057E25506610471049CF0C301B20128EEA2
:1007D00033E040E050E00E94F1186F83788789870A
:1007E0009A87CA01B9010E94A80F8F81988501C01C
:1007F000C2010E94D00F80910A0190910B012091BB
:100800000C0130910D01821B930B2D813E81EB81F8
:10081000FC812E1B3F0B2817390724F421E030E020
:100820003C872B874B815C814F5F5F4F5C834B83A1
:1008300006CF90933B0280933A0280913C029091C4
:100840003D02909339028093380264960FB6F89473
:10085000DEBF0FBECDBFDF91CF911F910F91FF90F3
:10086000EF90DF90CF90BF90AF909F908F907F9050
:100870006F905F904F903F902F9008954F925F92AE
:100880006F927F928F929F92AF92BF92CF92DF92A0
:10089000EF92FF92CF93DF9300D000D0CDB7DEB7B9
:1008A000C0905002D0905102E0905202F09053025A
:1008B000209158023091590240915A0250915B02A6
:1008C000C701B6010E94AB152B013C0180914C027F
:1008D00090914D02A0914E02B0914F0289839A836C
:1008E000AB83BC8320915402309155024091560253
:1008F00050915702BC01CD010E94AB154B015C0128
:10090000A3019201C301B2010E94E0172B013C0137
:10091000A5019401C501B4010E94E0179B01AC013F
:10092000C301B2010E94AC150E9467182FE632E1A4
:1009300043E85AE30E94381687FD4CC029813A816A
:100940004B815C81C701B6010E94ED002091150228
:1009500030911602409117025091180260911902CD
:1009600070911A0280911B0290911C020E94550204
:10097000809111029091120290933F0280933E0267
:1009800080910D0290910E0290933D0280933C0263
:100990000E949E028091500290915102A0915202B9
:1009A000B09153028093580290935902A0935A0237
:1009B000B0935B0280914C0290914D02A0914E0247
:1009C000B0914F028093540290935502A093560227
:1009D000B09357020F900F900F900F90DF91CF912F
:1009E000FF90EF90DF90CF90BF90AF909F908F904F
:1009F0007F906F905F904F90089580E090E0A0E22C
:100A0000B2E48093580290935902A0935A02B09393
:100A10005B0288EB9EEBAEE9B3E4809354029093C3
:100A20005502A0935602B09357029C01AD0160E0BD
:100A300070E080E292E40E94ED00609119027091F2
:100A40001A0280911B0290911C02609344027093E1
:100A500045028093460290934702209115023091FF
:100A600016024091170250911802209340023093D1
:100A7000410240934202509343020E9455028091EA
:100A800011029091120290933B0280933A0280915E
:100A90000D0290910E02909339028093380264E324
:100AA00071E08BE595E00E945E1360913A027091CF
:100AB0003B024AE050E08BE595E00E9420146BE396
:100AC00071E08BE595E00E945E13609138027091B1
:100AD00039024AE050E08BE595E00C9428140F931E
:100AE0001F93CF93DF9300D0CDB7DEB7AE014F5F3A
:100AF0005F4F66E671E00E948F198C01012B09F4AB
:100B00005EC0AE014F5F5F4F66E671E080E090E04F
:100B10000E948F198C01FC018081883569F4C8011D
:100B200001960E9430196093500270935102809395
:100B3000520290935302E2CF893569F4C8010196BD
:100B40000E94301960934C0270934D0280934E02C4
:100B500090934F02D3CF8A3569F4C80101960E9461
:100B60003019609348027093490280934A0290932F
:100B70004B02C4CF863499F4C80101960E94301903
:100B800020E030E040E752E40E943C1660935C02B3
:100B900070935D0280935E0290935F02AFCF8134C9
:100BA00009F0ACCFC80101960E9452196093090266
:100BB00070930A0280930B0290930C029FCF0E94C5
:100BC0003E040F900F90DF91CF911F910F910895E8
:100BD000CF93DF9300D0CDB7DEB7AE014F5F5F4F4D
:100BE00066E671E00E948F1989819A810E9434190A
:100BF000BC018DE192E00E94BE0B0F900F90DF913F
:100C0000CF910895CF93DF9300D0CDB7DEB7AE017B
:100C10004F5F5F4F66E671E00E948F1989819A816C
:100C20000E9452196093090270930A0280930B028A
:100C300090930C020F900F90DF91CF910895CF9376
:100C4000DF9300D0CDB7DEB7AE014F5F5F4F66E6F2
:100C500071E00E948F1989819A810E943419BC0128
:100C600086E292E00E94E8080F900F90DF91CF910A
:100C70000895CF93DF93EC010E94341981309105E0
:100C8000B9F14C97D1F51092090210920A02109214
:100C90000B0210920C0260916A0270916B028091BB
:100CA0006C0290916D02680F791F882777FD8095FF
:100CB000982F0E94D7162AE037ED43E25CE30E94AA
:100CC000AB15DC01CB01B0588093500290935102D8
:100CD000A0935202B093530210924C0210924D0214
:100CE00010924E0210924F02DF91CF910C943E046D
:100CF000CE01DF91CF910C946F05DF91CF910895D4
:100D00006DE371E08BE595E00E945E1360916A02ED
:100D100070916B024AE050E08BE595E00E94201450
:100D200060E28BE595E00E94601360916C02709127
:100D30006D024AE050E08BE595E00E94201460E2ED
:100D40008BE595E00E946013409158025091590242
:100D500060915A0270915B0222E030E08BE595E0F1
:100D60000E943F1560E28BE595E00E946013409180
:100D7000540250915502609156027091570222E040
:100D800030E08BE595E00E943F1560E28BE595E051
:100D90000E94601363E771E08BE595E00E945E13AB
:100DA0006091680270E04AE050E08BE595E00E94B7
:100DB000201469E471E08BE595E00E945E13609178
:100DC000690270E04AE050E08BE595E00C9428144D
:100DD0000F931F93CF93DF9300E612E0C0E0D0E0C3
:100DE000F80161918F01CE010E94DB192196C03478
:100DF000D105B1F7DF91CF911F910F9108950F9316
:100E00001F93CF93DF9300D0CDB7DEB7AE014F5F16
:100E10005F4F66E671E00E948F198C01012B09F487
:100E200067C0AE014F5F5F4F66E671E080E090E023
:100E30000E948F198C01FC018081813489F4C801E2
:100E400001960E943419809368026CE471E08BE58E
:100E500095E00E945E134AE050E06091680212C083
:100E60008234A9F4C80101960E9434198093690262
:100E700067E571E08BE595E00E945E134AE050E083
:100E8000609169028BE595E00E944D14C7CF8D34C7
:100E900099F4C80101960E94341990936B028093D3
:100EA0006A0261E671E08BE595E00E945E13609155
:100EB0006A0270916B0215C08E3409F0AFCFC80181
:100EC00001960E94341990936D0280936C0268E63B
:100ED00071E08BE595E00E945E1360916C02709169
:100EE0006D024AE050E08BE595E00E94201496CF19
:100EF0000E94E8060F900F90DF91CF911F910F9104
:100F000008950F931F93CF93DF9300E612E0C0E0A4
:100F1000D0E0CE010E94D319D8018D938D01219686
:100F2000C034D105B1F745E050E06FE671E080E6EE
:100F300092E00E948119892B21F165E771E08BE530
:100F400095E00E946B1380E4E0E6F2E0DF011D9281
:100F50008A95E9F785E0EFE6F1E0A0E6B2E00190DE
:100F60000D928A95E1F788EA90E090936B02809366
:100F70006A028EEC90E090936D0280936C020E9466
:100F8000E80680916802811105C081E080933702F4
:100F90008FEF04C08FEF8093370281E08093360299
:100FA00080916902811105C081E0809335028FEF45
:100FB00004C08FEF8093350281E080933402DF918B
:100FC000CF911F910F91089582E994E00E94340D12
:100FD00026E040E052EC61E070E08BE595E00E9495
:100FE00019120E94810760912002709121028DE107
:100FF00092E00E94850B6AE070E08DE192E00E9431
:10100000BE0B0C94FD0462E080E392E00E94F809BC
:1010100061E08CE292E00E94F8096AE086E292E0E8
:101020000E94E60867E082E292E00E94F80982E20C
:1010300092E00E942C0A90E090932102809320027B
:101040008DE192E00C94EB0A1F93CF93DF9300D0D5
:10105000CDB7DEB7AE014F5F5F4F66E671E00E942D
:101060008F1989819A810E943419182F64E070E0E9
:1010700082E994E00E94480D612F82E994E00E9489
:10108000F50C82E994E00E945D0D0F900F90DF91C6
:10109000CF911F910895CF93DF93EC010E943419F3
:1010A00084309105E9F054F481309105A1F0039763
:1010B00031F5CE01DF91CF910C9402068A30910573
:1010C000A1F08B309105B1F00597C9F4CE01DF9105
:1010D000CF910C94FF06CE01DF91CF910C94E805DF
:1010E000CE01DF91CF910C941F06CE01DF91CF91FD
:1010F0000C948006CE01DF91CF910C942408DF91EF
:10110000CF910895FC012081273421F401960E949B
:10111000390630C02D3421F401960E944B082AC0B4
:10112000203541F56AE871E08BE595E00E945E1399
:10113000409158025091590260915A0270915B029D
:1011400022E030E08BE595E00E943F1560E971E018
:101150008BE595E00E945E13409154025091550238
:10116000609156027091570222E030E08BE595E0E5
:101170000E94411563E971E08BE595E00C946B13D7
:101180008BE595E00E943611892BF9F08BE595E00F
:101190000E944F11E091C80191E09E0F9093C80109
:1011A000FF27E7FDF095E753FE4F80838A3069F40F
:1011B00089EC91E00E94820880E4E9ECF1E0DF0133
:1011C0001D928A95E9F71092C80108950C94F809C8
:1011D0000F931F93CF93DF938C016F3F710519F02D
:1011E00014F06FEF70E0EB0161308FEF780714F4CB
:1011F000C1E0DFEFD7FD06C061E0C8010E94180A18
:10120000BE0108C060E0C8010E94180A662777275F
:101210006C1B7D0BC801DF91CF911F910F910C9436
:10122000280A80EA92E00C94190980EA92E00C9472
:10123000420921E030E0FC0131832083EE5FFE4F64
:1012400010821182128213823496108211821282CD
:101250001382349610823196108231961082118258
:101260001282138234961182108232961082319645
:10127000108211821282138234961082118212829D
:101280001382089508951F920F920FB60F921124A2
:101290000F931F932F933F934F935F936F937F937E
:1012A0008F939F93AF93BF93CF93EF93FF9382E07E
:1012B0000E940D11C82F2091C1033091C2032F5FEE
:1012C0003F4F3093C2032093C1038091270484369B
:1012D00018F085E08093BC039091BC03933079F0C3
:1012E00018F4923039F070C0943011F1953009F44F
:1012F0004AC06AC0C11168C01092270429C0C13019
:1013000009F062C0E091270481E08E0F80932704EA
:10131000F0E08091C1039091C203E554FC4F8087B7
:101320001092C2031092C10384E08093BC034CC0AE
:10133000C11114C0E091270481E08E0F809327042F
:10134000F0E08091C1039091C203E554FC4F808787
:101350001092C2031092C10383E0E7CF8091C103D2
:101360009091C2038536910578F185E08093BC03A6
:101370000E94790F6093BD037093BE038093BF03F7
:101380009093C00321C00E94790F0091BD0310917A
:10139000BE032091BF033091C003601B710B820B11
:1013A000930B693C71058105910540F0109227046B
:1013B0001092C2031092C10382E0B7CFC11104C0E2
:1013C0001092C2031092C103FF91EF91CF91BF9190
:1013D000AF919F918F917F916F915F914F913F91CD
:1013E0002F911F910F910F900FBE0F901F90189586
:1013F000DC01E62FF0E0EE0FFF1FEA5EFE4F80817A
:101400008C93818111968C93119712966C93089509
:101410001F93CF93DF93EC01162F61E088810E9428
:101420009E10612F8881DF91CF911F910C94D7106E
:101430001F93CF93DF93EC01162F61E089810E9407
:101440009E10612F8981DF91CF911F910C94D7104D
:10145000FC0180810C941610FC01818108951F927B
:101460000F920FB60F9211242F933F934F935F93D8
:101470006F937F938F939F93AF93BF93EF93FF935C
:101480008091290487FF05C0109285001092840086
:101490001AC020912904332727FD30958091280414
:1014A00090E0281739077CF480912904992787FD5B
:1014B0009095FC01EE0FFF1FE80FF91FE65DFB4F53
:1014C000808187FD15C0809129048F5F8093290456
:1014D00020912904332727FD30958091280490E03E
:1014E00028173907BCF4809129048C305CF112C0B4
:1014F00080912904992787FD9095FC01EE0FFF1F2D
:10150000E80FF91FE65DFB4F808160E08F770E9456
:10151000D710D9CF809184009091850004968034B3
:101520009C4918F480E49CE905C080918400909166
:101530008500049690938900809388008FEF8093B4
:10154000290438C0209184003091850080912904BD
:10155000992787FD9095FC01EE0FFF1FE80FF91FFB
:10156000E65DFB4F81819281820F931F90938900EA
:101570008093880080912904992787FD9095FC012C
:10158000EE0FFF1FE80FF91FE65DFB4F808187FF1D
:1015900011C080912904992787FD9095FC01EE0FD9
:1015A000FF1FE80FF91FE65DFB4F808161E08F7739
:1015B0000E94D710FF91EF91BF91AF919F918F91B2
:1015C0007F916F915F914F913F912F910F900FBE3F
:1015D0000F901F901895209128042C30A0F431E032
:1015E000320F30932804FC012083822F90E0FC010D
:1015F000EE0FFF1FE80FF91FE65DFB4F88EB9BE046
:101600009283818308952FEFFC0120830895DF9258
:10161000EF92FF920F931F93CF93DF93EC01D62E9F
:101620007A01890188818C3008F066C061E08D2DD7
:101630000E949E108881A82FB0E0FD01EE0FFF1FD1
:10164000EA0FFB1FE65DFB4F2D2D2F7790819078E1
:10165000922B908360E272E06E197F0977FF02C0DF
:101660006D5F7F4F7595679575956795698340E6C2
:1016700059E0401B510B57FF02C04D5F5F4F55951E
:101680004795559547954A836CE00E94C3189CE0A6
:10169000899FB001112420E030E0A901460F571FB7
:1016A000FA01EE0FFF1FE40FF51FE65DFB4F90817F
:1016B00097FD16C02F5F3F4F2C30310571F7811118
:1016C0000FC01092800082E080938100109285000C
:1016D00010928400B19A80916F00826080936F00B5
:1016E000888190E0FC01EE0FFF1FE80FF91FE65D17
:1016F000FB4F8081806880838881DF91CF911F912B
:101700000F91FF90EF90DF90089520E639E040E2DE
:1017100052E00C94070BFC0180818C3070F59181B4
:1017200028E830E0291B310997FD3395220F331F3C
:10173000220F331F621773077CF0928128E532E095
:10174000291B310997FD3395220F331F220F331FB9
:10175000621773070CF49B0122503109220F331FCB
:101760004FB7F89490E0FC01EE0FFF1FE80FF91F50
:10177000E65DFB4F328321834FBF08954F925F9206
:101780006F927F92AF92BF92CF92DF92EF92FF92D1
:101790000F931F93CF93DF93EC01603282E07807C1
:1017A0000CF040C077FD06C0653B71052CF064EB82
:1017B00070E002C060E070E0898128E830E0281B1A
:1017C000310987FD3395220F331F220F331F590133
:1017D000CC24B7FCC094DC2C882777FD8095982F0B
:1017E0002A8148E552E0421B510927FD5395440FD9
:1017F000551F440F551F2A01662457FC6094762C10
:101800007F926F925F924F9214EBE12EF12C00E0E9
:1018100010E020E030E0A9010E9453150F900F90D6
:101820000F900F90CE01DF91CF911F910F91FF90FC
:10183000EF90DF90CF90BF90AF907F906F905F90D0
:101840004F900C948B0B1F920F920FB60F92112496
:101850002F933F934F935F936F937F938F939F93B8
:10186000AF93BF93EF93FF93E0919004F0919104B5
:10187000309709F451C0868DA685B785958581FF7F
:1018800004C08C91892329F447C08C91892309F0E5
:1018900043C0A389B4899C918589809589238C93C1
:1018A000868997890197F1F7208D318DA685B785B7
:1018B000758558E040E0C9010197F1F7842F90E069
:1018C00095958795482F6C91672309F04068515092
:1018D00091F7868D81FD409580914F0490E00196AF
:1018E0008F73992720914E04281749F0A0914F0437
:1018F000B0E0A05BBB4F4C9380934F0403C0868D38
:101900008160868F828D938D0197F1F7A389B489C9
:101910008C919589892B8C93FF91EF91BF91AF9119
:101920009F918F917F916F915F914F913F912F91F7
:101930000F900FBE0F901F9018958091C20490E0F9
:101940002091C304821B910908952091C3048091C2
:10195000C204281750F4E22FF0E0EC53FB4F8081D3
:1019600090E02F5F2093C30408958FEF9FEF0895B9
:10197000E091C3048091C204E81730F4F0E0EC5326
:10198000FB4F808190E008958FEF9FEF08950895B9
:10199000CF92DF92EF92FF920F931F93CF93DF933B
:1019A0007C01CB018A0120919E04222389F0EB0166
:1019B0006B01C40ED51ECC15DD0569F06991D70108
:1019C000ED91FC910190F081E02DC7010995F3CFD5
:1019D000642F0E94D90DC801DF91CF911F910F9103
:1019E000FF90EF90DF90CF900895CF93DF931F92F9
:1019F000CDB7DEB7698320919E042223D1F02091D8
:101A00009F04203240F021E030E0FC013383228348
:101A100080E090E015C08091A004E82FF0E0EF5541
:101A2000FB4F998190838F5F8093A00480939F04E4
:101A300005C061E0CE0101960E94D90D81E090E0E1
:101A40000F90DF91CF910895FC011382128248EE2E
:101A500053E060E070E044835583668377838AE9CE
:101A600091E09183808308951092C3041092C20480
:101A70001092A00410929F040C94640D81E0809356
:101A80009E046093C1041092A00410929F040895D4
:101A90000C943E0D0F93062F21E040919F0461EAC4
:101AA00074E08091C1040E94820D1092A0041092F3
:101AB0009F0410929E040F91089561E00C944A0DCA
:101AC00082E994E00C94240D1092510581E08093FA
:101AD0004F0510924E0561E082E10E94D71061E04F
:101AE00083E10E94D710E9EBF0E080818E7F808354
:101AF00080818D7F808388E48093B80085E4809323
:101B0000BC0008950F93413208F04AC090915105EE
:101B10009111FCCF92E09093510500934F059FEFF8
:101B20009093E4041092290540932805FB016AE292
:101B300075E0DB019A2F961B941718F491919D93F1
:101B4000F9CF1092500590915005880F892B809302
:101B5000500580914E05813061F410924E058091C0
:101B600050058093BB008091BC0083FDF8CF85ECCD
:101B700001C085EE8093BC00222321F080915105A5
:101B80008230E1F38091E4048F3F61F08091E404BE
:101B9000803251F08091E404803341F483E007C047
:101BA00081E005C080E003C082E001C084E00F91C5
:101BB0000895613298F420915105243089F460939E
:101BC0000605FC0188E095E0DC012A2F281B26177A
:101BD00018F421912D93F9CF80E0089581E00895C4
:101BE00082E0089585ED8093BC008091BC0084FD67
:101BF000FCCF10925105089585EC8093BC001092A3
:101C0000510508951F920F920FB60F9211242F9332
:101C10003F934F935F936F937F938F939F93AF9374
:101C2000BF93EF93FF938091B900887F803609F4CA
:101C30009EC078F5883209F45DC090F4803109F4D3
:101C400056C038F4882309F4F5C0883009F44FC031
:101C5000F5C0883109F44EC0803209F45FC0EEC08F
:101C6000803409F46AC058F4803309F457C08833CB
:101C700009F0E4C08093E4040E94FC0DDFC08035CD
:101C800009F44FC0883509F45DC0883409F0D6C026
:101C9000D3C0883909F4C4C0A8F4883709F467C0F0
:101CA00038F4883609F463C0803709F460C0C6C0D0
:101CB000883809F4B5C0803909F45FC0803809F06C
:101CC000BDC05BC0803B09F483C038F4803A09F49E
:101CD00066C0883A09F47CC0B1C0803C09F4A4C055
:101CE000883C09F4A1C0883B09F487C0A7C0809153
:101CF000500510C09091290580912805981770F51E
:101D0000E091290581E08E0F80932905F0E0E65DE2
:101D1000FA4F80818093BB0085EC83C08093E404FC
:101D20008BC0E091290581E08E0F80932905809179
:101D3000BB00F0E0E65DFA4F808390912905809129
:101D400028056BC0E091290581E08E0F809329055D
:101D50008091BB00F0E0E65DFA4F808380914F05F3
:101D600081116AC081E080934E0584EA5EC083E001
:101D7000809351051092E504CFCF8091E504803225
:101D800008F04EC0E091E50481E08E0F8093E504F9
:101D90008091BB00F0E0EA51FB4F8083BDCF0E94F1
:101DA000FC0D8091E504803230F4E091E504F0E030
:101DB000EA51FB4F10826091E50470E0E0914A0522
:101DC000F0914B0586EE94E009951092E50436C03B
:101DD00084E0809351051092070510920605E0916A
:101DE0004C05F0914D05099580910605811105C0BE
:101DF00081E08093060510920805E091070581E0D7
:101E00008E0F80930705F0E0E85FFA4F80818093A2
:101E1000BB009091070580910605981708F47CCFC8
:101E200085E88093BC000AC085EC8093BC001092CA
:101E3000510504C01092E4040E94F20DFF91EF914D
:101E4000BF91AF919F918F917F916F915F914F91D2
:101E50003F912F910F900FBE0F901F9018951F92DA
:101E60000F920FB60F9211242F933F938F939F934E
:101E7000AF93BF938091530590915405A091550560
:101E8000B09156053091520523E0230F2D3720F4F1
:101E90000196A11DB11D05C026E8230F0296A11DC4
:101EA000B11D209352058093530590935405A09340
:101EB0005505B09356058091570590915805A0910E
:101EC0005905B0915A050196A11DB11D8093570582
:101ED00090935805A0935905B0935A05BF91AF91BF
:101EE0009F918F913F912F910F900FBE0F901F9058
:101EF00018952FB7F894609153057091540580910F
:101F00005505909156052FBF08953FB7F8948091DD
:101F1000570590915805A0915905B0915A0526B5DD
:101F2000A89B05C02F3F19F00196A11DB11D3FBF11
:101F30006627782F892F9A2F620F711D811D911DA1
:101F400042E0660F771F881F991F4A95D1F70895C1
:101F5000CF92DF92EF92FF92CF93DF936B017C01E0
:101F60000E94850FEB01C114D104E104F10489F052
:101F70000E94AA150E94850F6C1B7D0B683E734062
:101F800090F381E0C81AD108E108F108C851DC4F8C
:101F9000EACFDF91CF91FF90EF90DF90CF9008953F
:101FA0008230910538F0880F991F880F991F059787
:101FB0000197F1F70895789484B5826084BD84B563
:101FC000816084BD85B5826085BD85B5816085BD34
:101FD000EEE6F0E0808181608083E1E8F0E010824D
:101FE000808182608083808181608083E0E8F0E08E
:101FF000808181608083E1EBF0E080818460808378
:10200000E0EBF0E0808181608083EAE7F0E08081AE
:10201000846080838081826080838081816080830E
:102020008081806880831092C10008951F93CF93B0
:10203000DF93182FEB0161E00E949E10209711F4AE
:1020400060E004C0CF3FD10539F461E0812FDF911A
:10205000CF911F910C94D710E12FF0E0EA56FF4F7B
:10206000E491E330F9F048F4E130B9F0E230A1F561
:1020700084B5806284BDC8BD34C0E730E9F0E83083
:1020800019F1E43049F580918000806280938000EE
:10209000D0938B00C0938A0024C084B5806884BD2F
:1020A000C7BD1FC080918000806880938000D0935E
:1020B0008900C093880015C08091B000806880932B
:1020C000B000C093B3000DC08091B00080628093D7
:1020D000B000C093B40005C0C038D1050CF0B5CF36
:1020E000AFCFDF91CF911F910895833081F028F415
:1020F000813099F08230A1F008958730A9F08830BE
:10210000B9F08430D1F4809180008F7D03C080913C
:1021100080008F7780938000089584B58F7702C008
:1021200084B58F7D84BD08958091B0008F7703C002
:102130008091B0008F7D8093B0000895CF93DF939E
:1021400090E0FC01E655FF4F2491FC01E254FF4F63
:102150008491882349F190E0880F991FFC01EA518E
:10216000FF4FA591B49184529F4FFC01C591D4912A
:102170009FB7611108C0F8948C91209582238C93AD
:10218000888182230AC0623051F4F8948C91322FF6
:10219000309583238C938881822B888304C0F894A4
:1021A0008C91822B8C939FBFDF91CF9108950F93D9
:1021B0001F93CF93DF931F92CDB7DEB7282F30E068
:1021C000F901EA56FF4F8491F901E655FF4F14914A
:1021D000F901E254FF4F04910023C9F0882321F054
:1021E00069830E9475106981E02FF0E0EE0FFF1FF8
:1021F000E452FF4FA591B4919FB7F8948C9161116F
:1022000003C01095812301C0812B8C939FBF0F9039
:10221000DF91CF911F910F910895CF93DF93282FD6
:1022200030E0F901EA56FF4F8491F901E655FF4F7E
:10223000D491F901E254FF4FC491CC2391F0811164
:102240000E947510EC2FF0E0EE0FFF1FEE52FF4FD3
:10225000A591B4912C912D2381E090E021F480E0B0
:1022600002C080E090E0DF91CF910895FC01818D64
:10227000228D90E0805C9F4F821B91098F7399277C
:102280000895FC01918D828D981731F0828DE80FB1
:10229000F11D858D90E008958FEF9FEF0895FC016B
:1022A000918D828D981761F0828DDF01A80FB11D8D
:1022B0005D968C91928D9F5F9F73928F90E00895B1
:1022C0008FEF9FEF089583ED92E1892B49F080E035
:1022D00090E0892B29F00E94D31281110C94000008
:1022E0000895FC01848DDF01A80FB11DA35ABF4FD3
:1022F0002C91848D90E001968F739927848FA68905
:10230000B7892C93A089B1898C9180648C93938D2B
:10231000848D981306C00288F389E02D80818F7D1B
:1023200080830895CF93DF93EC01888D8823C9F0D3
:10233000EA89FB89808185FD05C0A889B9898C91CE
:1023400086FD0FC00FB607FCF5CF808185FFF2CF69
:10235000A889B9898C9185FFEDCFCE010E947111BA
:10236000E7CFDF91CF910895CF92DF92FF920F9345
:102370001F93CF93DF931F92CDB7DEB76C0181E03F
:10238000D60158968C9358975B969C915B975C9678
:102390008C915C97981307C05096ED91FC915197E2
:1023A000808185FD2EC0F601038D10E00F5F1F4F69
:1023B0000F731127F02EF601848DF81211C00FB69D
:1023C00007FCF9CFD6015096ED91FC915197808191
:1023D00085FFF1CFC60169830E9471116981EBCF3E
:1023E000838DE80FF11DE35AFF4F6083D6015B96A2
:1023F0000C935B975296ED91FC915397808180628C
:102400000CC0D6015696ED91FC915797608350967B
:10241000ED91FC91519780818064808381E090E010
:102420000F90DF91CF911F910F91FF90DF90CF9090
:102430000895BF92CF92DF92EF92FF92CF93DF93F6
:10244000EC016A017B01B22EE889F98982E0808380
:10245000411581EE580761057105A1F060E079E052
:102460008DE390E0A70196010E94CF182150310919
:10247000410951095695479537952795211580E1D2
:10248000380798F0E889F989108260E874E88EE1ED
:1024900090E0A70196010E94CF182150310941090F
:1024A00051095695479537952795EC85FD853083DD
:1024B000EE85FF852083188EEC89FD89B082EA893C
:1024C000FB89808180618083EA89FB8980818860C3
:1024D0008083EA89FB89808180688083EA89FB891F
:1024E00080818F7D8083DF91CF91FF90EF90DF908F
:1024F000CF90BF9008951F920F920FB60F921124A4
:102500002F938F939F93EF93FF93E0916B05F0913F
:102510006C058081E0917105F091720582FD12C019
:102520009081809174058F5F8F732091750582175C
:1025300051F0E0917405F0E0E55AFA4F958F8093E1
:10254000740501C08081FF91EF919F918F912F9130
:102550000F900FBE0F901F9018951F920F920FB6FD
:102560000F9211242F933F934F935F936F937F9319
:102570008F939F93AF93BF93EF93FF938BE595E07A
:102580000E947111FF91EF91BF91AF919F918F9137
:102590007F916F915F914F913F912F910F900FBE5F
:1025A0000F901F9018958BE595E00E94361121E061
:1025B000892B09F420E0822F089510925E05109275
:1025C0005D0588EE93E0A0E0B0E080935F05909316
:1025D0006005A0936105B09362058AEA91E090934B
:1025E0005C0580935B0585EC90E090936805809393
:1025F000670584EC90E090936A058093690580EC10
:1026000090E090936C0580936B0581EC90E0909343
:102610006E0580936D0582EC90E090937005809339
:102620006F0586EC90E0909372058093710510928F
:10263000740510927505109276051092770508952D
:10264000CF92DF92EF92FF920F931F93CF93DF937E
:102650007C016A01EB0100E010E00C151D0571F032
:102660006991D701ED91FC910190F081E02DC701B6
:102670000995892B19F00F5F1F4FEFCFC801DF912C
:10268000CF911F910F91FF90EF90DF90CF90089521
:102690006115710581F0DB010D900020E9F7AD01B6
:1026A00041505109461B570BDC01ED91FC91028012
:1026B000F381E02D099480E090E008950C94481394
:1026C000DC01ED91FC910190F081E02D099466EB25
:1026D00071E00C9448130F931F93CF93DF93EC0199
:1026E0000E9448138C01CE010E946713800F911F36
:1026F000DF91CF911F910F9108958F929F92AF928A
:10270000BF92CF92DF92EF92FF920F931F93CF93DE
:10271000DF93CDB7DEB7A1970FB6F894DEBF0FBE3B
:10272000CDBF7C01C42EE52FCB01D22E19A221E012
:102730002D1510F02AE0D22E8E010F5D1F4F8D2C2B
:10274000912CA12CB12C6C2D7E2FA50194010E94FF
:10275000CF188C2DD29E80191124015011098A3076
:1027600014F4805D01C0895CF80180832115310576
:102770004105510521F0C22EE32FCA01E4CFB80173
:10278000C7010E944813A1960FB6F894DEBF0FBE92
:10279000CDBFDF91CF911F910F91FF90EF90DF9010
:1027A000CF90BF90AF909F908F900895CF92DF927F
:1027B000EF92FF920F931F93CF93DF93EC016A0187
:1027C0007B012115310579F4E881F9810190F081CF
:1027D000E02D642FDF91CF911F910F91FF90EF902B
:1027E000DF90CF9009942A303105E9F477FF1AC0C1
:1027F0006DE20E9460138C0144275527BA014C19E1
:102800005D096E097F092AE0CE010E947D13800FC9
:10281000911FDF91CF911F910F91FF90EF90DF906B
:10282000CF9008952AE0B701A601CE01DF91CF91A4
:102830001F910F91FF90EF90DF90CF900C947D133C
:102840009A01AB01662757FD6095762F0C94D6133D
:102850000F931F93CF93DF93EC019A01AB0166278F
:1028600057FD6095762F0E94D6138C01CE010E94F1
:102870006713800F911FDF91CF911F910F910895E2
:102880002115310541F4DC01ED91FC910190F081BD
:10289000E02D642F09940C947D139A01462F50E08B
:1028A00060E070E00C9440144F925F926F927F92C0
:1028B0008F929F92AF92BF92CF92DF92EF92FF9250
:1028C0000F931F93CF93DF93EC016A017B01B22E2C
:1028D0009A01AB01C701B6010E94A818882319F01C
:1028E00069EB71E027C026013701E89477F82FEFF4
:1028F0003FEF4FE75FE7C301B2010E94A8188111C3
:102900000DC02FEF3FEF4FE75FE7C301B2010E9419
:10291000381618161CF46DEB71E00CC02FEF3FEF6A
:102920004FE75FE4C701B6010E94D5171816ACF453
:1029300061EC71E0CE01DF91CF911F910F91FF907B
:10294000EF90DF90CF90BF90AF909F908F907F904F
:102950006F905F904F900C9448132FEF3FEF4FE72D
:102960005FECC701B6010E94381687FDE1CF20E079
:1029700030E0A901C701B6010E94381687FF0AC0DE
:102980006DE2CE010E9460138C01F7FAF094F7F823
:10299000F09402C000E010E0A12C60E070E080E064
:1029A0009FE3AB1441F020E030E040E251E40E94AC
:1029B0003C16A394F6CF9B01AC01C701B6010E945F
:1029C000AC156B017C010E94A9162B013C010E94F1
:1029D000D5169B01AC01C701B6010E94AB156B0176
:1029E0007C012AE0B301A201CE010E947D13080FF1
:1029F000191FBB2039F065EC71E0CE010E9448132D
:102A0000080F191F7B2C772041F120E030E040E2D5
:102A100051E4C701B6010E94E0176B017C010E94DE
:102A2000A4164B01AA2497FCA094BA2C2AE030E00B
:102A3000B501A401CE010E94D613080F191FC501CC
:102A4000B4010E94D7169B01AC01C701B6010E94D8
:102A5000AB156B017C017A94D6CFC801DF91CF9181
:102A60001F910F91FF90EF90DF90CF90BF90AF90AC
:102A70009F908F907F906F905F904F9008950C94EF
:102A800054140F931F93CF93DF93EC010E945414BF
:102A90008C01CE010E946713800F911FDF91CF91AF
:102AA0001F910F9108954F925F926F927F92AF9214
:102AB000BF92CF92DF92EF92FF920F931F93CF932B
:102AC000DF93CDB7DEB729013A01621B730B840B8C
:102AD000950B29893A894B895C892A193B094C094C
:102AE0005D09298B3A8B4B8B5C8B9B01AC0169890F
:102AF0007A898B899C890E94B318E418F508060925
:102B00001709A80197010E94F1182A0D3B1D4C1DC1
:102B10005D1DCA01B901DF91CF911F910F91FF9007
:102B2000EF90DF90CF90BF90AF907F906F905F90CD
:102B30004F90089508950E94DB0F0E949A150E94FD
:102B4000E407C3E6D1E10E94C0082097E1F30E94A8
:102B50006311F9CF08955058BB27AA270ED0EBC1B7
:102B6000DCD130F0E1D120F031F49F3F11F41EF4BC
:102B7000ACC10EF4E095E7FB79C1E92FEDD180F30C
:102B8000BA17620773078407950718F071F49EF56A
:102B900005C20EF4E0950B2EBA2FA02D0B01B90142
:102BA00090010C01CA01A0011124FF27591B99F0C3
:102BB000593F50F4503E68F11A16F040A22F232FCF
:102BC000342F4427585FF3CF469537952795A7951F
:102BD000F0405395C9F77EF41F16BA0B620B730BC6
:102BE000840BBAF09150A1F0FF0FBB1F661F771F37
:102BF000881FC2F70EC0BA0F621F731F841F48F4EC
:102C0000879577956795B795F7959E3F08F0B3CF71
:102C10009395880F08F09927EE0F9795879508955B
:102C2000DF93DD27B92FBF7740E85FE3161617065D
:102C300048075B0710F4D92FBCD19F938F937F93E4
:102C40006F9383D2E8E6F0E043D175D12F913F91A5
:102C50004F915F91C1D1DD2349F09058A2EA2AED4E
:102C60003FE049EC5FE3D0785D2787DFDF9163C108
:102C7000D9D008F481E008950CD05DC155D140F061
:102C80004CD130F021F45F3F19F0F0C0511187C1F1
:102C90001CC162D198F39923C9F35523B1F3951B55
:102CA000550BBB27AA2762177307840738F09F5F6D
:102CB0005F4F220F331F441FAA1FA9F333D00E2EDC
:102CC0003AF0E0E830D091505040E695001CCAF749
:102CD00029D0FE2F27D0660F771F881FBB1F26170E
:102CE00037074807AB07B0E809F0BB0B802DBF01E1
:102CF000FF2793585F4F2AF09E3F510568F0B6C0FA
:102D00004EC15F3FECF3983EDCF38695779567956F
:102D1000B795F7959F5FC9F7880F911D9695879591
:102D200097F90895E1E0660F771F881FBB1F6217B0
:102D300073078407BA0720F0621B730B840BBA0B6E
:102D4000EE1F88F7E095089504D06894B11127C16B
:102D500008950AD188F09F5790F0B92F9927B7515D
:102D6000A0F0D1F0660F771F881F991F1AF0BA954F
:102D7000C9F712C0B13081F011D1B1E008950EC190
:102D8000672F782F8827B85F39F0B93FCCF3869545
:102D900077956795B395D9F73EF4909580957095A2
:102DA00061957F4F8F4F9F4F0895E89409C097FB1F
:102DB0003EF490958095709561957F4F8F4F9F4F12
:102DC0009923A9F0F92F96E9BB279395F695879556
:102DD00077956795B795F111F8CFFAF4BB0F11F419
:102DE00060FF1BC06F5F7F4F8F4F9F4F16C08823C0
:102DF00011F096E911C0772321F09EE8872F762FF6
:102E000005C0662371F096E8862F70E060E02AF036
:102E10009A95660F771F881FDAF7880F9695879522
:102E200097F90895990F0008550FAA0BE0E8FEEFF7
:102E300016161706E807F907C0F012161306E4077E
:102E4000F50798F0621B730B840B950B39F40A2677
:102E500061F0232B242B252B21F408950A2609F455
:102E6000A140A6958FEF811D811D089597F99F6759
:102E700080E870E060E00895882371F4772321F002
:102E80009850872B762F07C0662311F499270DC021
:102E90009051862B70E060E02AF09A95660F771FBC
:102EA000881FDAF7880F9695879597F908959F3FC1
:102EB00031F0915020F4879577956795B795880FF5
:102EC000911D9695879597F908959FEF80EC089549
:102ED000DF93CF931F930F93FF92EF92DF927B01CB
:102EE0008C01689405C0DA2EEF0176D0FE01E894DB
:102EF000A5912591359145915591AEF3EF013DDEB8
:102F0000FE019701A801DA9479F7DF90EF90FF9026
:102F10000F911F91CF91DF91089500240A94161606
:102F2000170618060906089500240A9412161306B7
:102F3000140605060895092E0394000C11F4882345
:102F400052F0BB0F40F4BF2B11F460FF04C06F5F61
:102F50007F4F8F4F9F4F089557FD9058440F551F37
:102F600059F05F3F71F04795880F97FB991F61F00B
:102F70009F3F79F087950895121613061406551F82
:102F8000F2CF4695F1DF08C0161617061806991FEE
:102F9000F1CF86957105610508940895E894BB27E3
:102FA00066277727CB0197F908953CDF08F48FEF68
:102FB00008959B01AC0160E070E080E89FE35CCE87
:102FC0000BD0B9CFAADF28F0AFDF18F0952309F0B6
:102FD0004DCF7BCF1124E3CFBFDFA0F3959FD1F37B
:102FE000950F50E0551F629FF001729FBB27F00DB7
:102FF000B11D639FAA27F00DB11DAA1F649F66270C
:10300000B00DA11D661F829F2227B00DA11D621F5A
:10301000739FB00DA11D621F839FA00D611D221F14
:10302000749F3327A00D611D231F849F600D211DF8
:10303000822F762F6A2F11249F5750408AF0E1F09B
:1030400088234AF0EE0FFF1FBB1F661F771F881FE4
:1030500091505040A9F79E3F510570F007CF9FCF88
:103060005F3FECF3983EDCF3869577956795B795CF
:10307000F795E7959F5FC1F7FE2B880F911D9695F9
:10308000879597F9089570DFE0F09E37D8F096396C
:10309000B8F49E3848F4672F782F8827985FF9CFC7
:1030A00086957795679593959539D0F3B62FB1703E
:1030B0006B0F711D811D20F487957795679593950A
:1030C000DBCEF5CE6CCF11F40EF4FFCEF0CE4CDF9C
:1030D000D0F39923D9F3CEF39F57550B87FF3CD0FC
:1030E0000024A0E640EA900180585695979528F470
:1030F000805C660F771F881F20F026173707480768
:1031000030F4621B730B840B202931294A2BA695BE
:1031100017940794202531254A2758F7660F771F03
:10312000881F20F026173707480730F4620B730B0F
:10313000840B200D311D411DA09581F7B901842F0D
:103140009158880F9695879508959B01AC0138CFCB
:1031500069DE880B990B089591505040660F771FD8
:10316000881FD2F70895DB018F939F930E941F1948
:10317000BF91AF91A29F800D911DA39F900DB29F13
:10318000900D11240895991B79E004C0991F96179A
:1031900008F0961B881F7A95C9F780950895A1E2DB
:1031A0001A2EAA1BBB1BFD010DC0AA1FBB1FEE1FC1
:1031B000FF1FA217B307E407F50720F0A21BB30B0C
:1031C000E40BF50B661F771F881F991F1A9469F788
:1031D00060957095809590959B01AC01BD01CF01E4
:1031E0000895052E97FB1EF400940E94081957FDC0
:1031F00007D00E94CF1807FC03D04EF40C94081996
:1032000050954095309521953F4F4F4F5F4F089512
:1032100090958095709561957F4F8F4F9F4F089542
:10322000A29FB001B39FC001A39F700D811D112407
:10323000911DB29F700D811D1124911D08950E9452
:103240001019A59F900DB49F900DA49F800D911D06
:1032500011240895EE0FFF1F0590F491E02D0994BD
:10326000662777270C94E919FC0188279927E894A9
:1032700021912032E9F3293010F02E30C8F32B329F
:1032800041F02D3239F4689404C00E94CB19820FAA
:10329000911D219120532A30C0F31EF49095819501
:1032A0009F4F08951F93FC0199278827BC01E8943C
:1032B00011911032E9F3193010F01E30C8F31B32AF
:1032C00051F01D3249F4689406C00E94B619610F8E
:1032D000711D811D911D119110531A30B0F33EF4F0
:1032E00090958095709561957F4F8F4F9F4F1F915F
:1032F00008959111D1C1803219F089508550D0F7CD
:103300000895FB01DC014150504030F08D91019057
:10331000801919F40020B9F7881B990B0895FA0158
:10332000A191B081009719F41097E1F0CD01DC0173
:10333000CD010D90002011F4C00113C0FB012191BB
:10334000222319F02015D9F7F3CFFB012191201585
:1033500019F41E92119606C02223C1F70D90002089
:10336000A1F7D001FA01A193B0830895592F482FF6
:10337000372F262F660F771F881F991F660F771F1D
:10338000881F991F620F731F841F951F660F771F79
:10339000881F991F08957AE0979F902D879F802D11
:1033A000910D11240895F999FECF92BD81BDF89A2F
:1033B000992780B50895262FF999FECF1FBA92BD9F
:1033C00081BD20BD0FB6F894FA9AF99A0FBE019606
:1033D0000895A0E0B0E0EFEEF9E10C946D1B8B01D5
:1033E0006115710521F0DB018C9311969C93EC0122
:1033F0005E01BFEFAB1ABB0A7501C8808C2D90E04F
:103400000E947919892B11F0E501F2CFEDE2CE127D
:1034100008C07E01F2E0EF0EF11CC980DD24D394D8
:1034200009C02BE2C21205C07E0142E0E40EF11C8D
:10343000C980D12CE701219743E050E068EF70E0AC
:10344000CE010E944F1B892BC1F4239645E050E02A
:1034500063EF70E0CE010E944F1B892B09F4259683
:103460000115110519F0D801CD93DC93D11006C1D7
:1034700060E070E080E89FE70AC143E050E060EF61
:1034800070E0CE010E944F1B892B59F401151105E4
:1034900009F4F9C0B2E0EB0EF11CF801F182E08210
:1034A000F2C0F70160E070E0CB01C0E0D0E07F0146
:1034B000A0EDAA2EAC0C29E02A1530F14D2D42606A
:1034C000B42E2D2D2870D2FE04C0211125C02196C6
:1034D00023C021112197A5E0B0E09B01AC010E941F
:1034E0001F19660F771F881F991F6A0D711D811D97
:1034F000911D6839A9E97A078A07A9E19A0760F05E
:10350000BD2DB660BB2E08C02EEFA2120AC0D3FCA0
:1035100050C04D2D4860B42E3196D701CC90DB2C95
:10352000C6CF2C2D2F7D253409F043C0A081AD32AC
:1035300041F4BD2DB061DB2E7F0122E0E20EF11CD3
:103540000CC07F01AB3231F04FEFE41AF40A21E0F6
:1035500030E006C0A2E0EA0EF11CA18122E030E0DA
:10356000A053AA3018F0E21AF30A23C0F70120E0B2
:1035700030E02038BCE03B075CF4A901440F551F44
:10358000440F551F240F351F220F331F2A0F311DE3
:10359000AF014F5F5F4F7A01A081A053AA3010F4B2
:1035A000FA01E7CFD4FE03C0319521953109C20F4E
:1035B000D31FD1FE09C00115110531F0E1E0EE1A6B
:1035C000F108D801ED92FC920E94D5162D2D2370A2
:1035D000233019F04B015C0106C04B015C01B7FAC6
:1035E000B094B7F8B09420E030E0A901C501B4016F
:1035F0000E943816882309F43EC0D7FF06C0D19533
:10360000C195D1090FE011E002C007E211E06801A5
:10361000B8E1CB1AD10890E2E92EF12CCE15DF05E6
:1036200074F0F8012591359145915491C501B4018B
:103630000E94E0174B015C01CE19DF09EFCF045067
:103640001109F594E7940C151D0541F78A2D880F93
:103650008B2D881F8F3F49F020E030E0A901C50184
:10366000B4010E943816811106C082E290E0909366
:10367000F9058093F805C501B40109C060E070E068
:1036800080E89FEF04C060E070E080EC9FE7CDB77A
:10369000DEB7ECE00C94891B992788270895FB017D
:1036A000DC014150504088F08D9181341CF08B3505
:1036B0000CF4805E659161341CF06B350CF4605E37
:1036C000861B611171F3990B0895881BFCCF2F9213
:1036D0003F924F925F926F927F928F929F92AF92A2
:1036E000BF92CF92DF92EF92FF920F931F93CF93EF
:1036F000DF93CDB7DEB7CA1BDB0B0FB6F894DEBF86
:103700000FBECDBF09942A88398848885F846E84AB
:103710007D848C849B84AA84B984C884DF80EE80F5
:10372000FD800C811B81AA81B981CE0FD11D0FB6FE
:10373000F894DEBF0FBECDBFED01089511E0C4E3E4
:10374000D1E004C0FE010E942C192296C633D10795
:06375000C9F7F894FFCF59
:103756000000FA05800001000000E8039001000067
:1037660020430000A04200000B0A03090C0D0802CA
:1037760000001011140F150E0607050400000000C6
:1037860000000000496E69743A20002C004D31306B
:10379600204D534341524120002042006D6F746F0B
:1037A600724144697220006D6F746F4244697220E1
:1037B6000041524D4C31200041524D4C32200053B5
:1037C600434152410073657420746F2064656661DD
:1037D600756C7420736574757000504F53205800D3
:1037E6002059004F4B0000000000F50CC80C9D0C42
:1037F600A50CB80CC70C00000000B411201336113C
:103806004F11411192110D0A006E616E00696E66CC
:08381600006F7666002E000031
:107E0000112484B714BE81FFF0D085E080938100F7
:107E100082E08093C00088E18093C10086E0809377
:107E2000C20080E18093C4008EE0C9D0259A86E02C
:107E300020E33CEF91E0309385002093840096BBD3
:107E4000B09BFECF1D9AA8958150A9F7CC24DD24C4
:107E500088248394B5E0AB2EA1E19A2EF3E0BF2EE7
:107E6000A2D0813461F49FD0082FAFD0023811F036
:107E7000013811F484E001C083E08DD089C08234E0
:107E800011F484E103C0853419F485E0A6D080C0E4
:107E9000853579F488D0E82EFF2485D0082F10E0AE
:107EA000102F00270E291F29000F111F8ED06801E7
:107EB0006FC0863521F484E090D080E0DECF843638
:107EC00009F040C070D06FD0082F6DD080E0C81688
:107ED00080E7D80618F4F601B7BEE895C0E0D1E017
:107EE00062D089930C17E1F7F0E0CF16F0E7DF06D8
:107EF00018F0F601B7BEE89568D007B600FCFDCFD4
:107F0000A601A0E0B1E02C9130E011968C91119780
:107F100090E0982F8827822B932B1296FA010C0160
:107F200087BEE89511244E5F5F4FF1E0A038BF0790
:107F300051F7F601A7BEE89507B600FCFDCF97BE46
:107F4000E89526C08437B1F42ED02DD0F82E2BD052
:107F50003CD0F601EF2C8F010F5F1F4F84911BD097
:107F6000EA94F801C1F70894C11CD11CFA94CF0C13
:107F7000D11C0EC0853739F428D08EE10CD085E9AC
:107F80000AD08FE07ACF813511F488E018D01DD067
:107F900080E101D065CF982F8091C00085FFFCCF94
:107FA0009093C60008958091C00087FFFCCF809118
:107FB000C00084FD01C0A8958091C6000895E0E648
:107FC000F0E098E1908380830895EDDF803219F02E
:107FD00088E0F5DFFFCF84E1DECF1F93182FE3DFCA
:107FE0001150E9F7F2DF1F91089580E0E8DFEE27F6
:047FF000FF270994CA
:027FFE00040479
:0400000300007E007B
:00000001FF
