:1000000054C1000083C1000081C100007FC1000015
:100010007DC100007BC1000079C1000077C10000F4
:1000200075C100000C94C90C0C94C90C0C94C90C3B
:100030006DC100000C94040969C1000067C1000093
:1000400065C100000C94AF0A61C100005FC10000EF
:100050005DC100005BC1000059C100000C94360F67
:1000600055C100000C945D130C9493134FC1000014
:100070004DC100004BC1000049C1000047C1000054
:100080000C94DC0A43C1000041C100003FC10000E4
:100090003DC100003BC1000039C100000C94080EB6
:1000A00035C1000033C100000C94090B2FC10000C2
:1000B0002DC100002BC1000029C100000C94360B9B
:1000C00025C1000023C1000021C100000C940814C8
:1000D0000C943E141BC1000019C1000017C10000A0
:1000E00015C10000F306F706FB06FF0603070D0720
:1000F0000D070D070D0707070A0765106A106F1037
:1001000079108310FC108D1095109D10A710B11060
:10011000BB10CA10D410FC10DE10E810F2101E1133
:100120002111101114111A115811251129112F1113
:10013000331137113D114111451158114B114F1118
:10014000531100000A0B02090C0D0E0807030401ED
:10015000000000000000000000000000000000009F
:10016000000000000000000000000000000012116C
:10017000100000000000000000000000000000006F
:1001800000000000000000000102102020080810FC
:1001900020401020408002010201080402010102F7
:1001A00004081020408080402010080402018004D0
:1001B000020180402010080402010804020101022B
:1001C000040810204080010204081020408005052A
:1001D0000505070508080808020202020A0A0808BD
:1001E00004040404010101010101010103030303EB
:1001F00003030303040707070C0C0C0C0C0C0C0C7A
:100200000202020206060606060606060B0B0B0B8A
:100210000B0B0B0B000020002300260029002C00F4
:100220002F00320000010000030106010901000057
:100230002200250028002B002E003100340002018E
:100240000000050108010B01000021002400270027
:100250002A002D00300033000101000004010701D5
:100260000A014E414E494E495459494E46CDCCCCD7
:100270003D0AD7233C17B7D13877CC2B329595E67A
:10028000241FB14F0A000020410000C84200401C5A
:100290004620BCBE4CCA1B0E5AAEC59D7400390820
:1002A000D408DC0DC5137014D70811241FBECFEF7E
:1002B000D1E2DEBFCDBF00E00CBF12E0A0E0B2E0B3
:1002C000ECE7F8E300E00BBF02C007900D92A03A04
:1002D000B107D9F727E0A0EAB2E001C01D92A53D21
:1002E000B207E1F712E0C8EAD2E000E006C02297C8
:1002F0000109FE010BBF0E94F019CE39D10780E041
:100300000807A9F70E94F5160C942D1C79CE181633
:10031000190614F460E001C061E088E093E00E94F7
:10032000CB0961E088E093E00E94D90960E088E0B1
:1003300093E00C94D9091816190614F460E001C072
:1003400061E084E093E00E94CB0961E084E093E007
:100350000E94D90960E084E093E00C94D9092F92BF
:100360003F924F925F926F927F928F929F92AF9245
:10037000BF92CF92DF92EF92FF920F931F93CF9392
:10038000DF93CDB7DEB762970FB6F894DEBF0FBE2E
:10039000CDBF80910A0290910B022C01662457FC7C
:1003A0006094762C209016033090170380911203EE
:1003B00090911303281A390A009114031091150320
:1003C0008091100390911103081B190B680117FF0E
:1003D00004C0CC24DD24C01AD10A910137FE04C028
:1003E000222733272219330979012C153D050CF4F6
:1003F0007601B701882777FD8095982F298B3A8B56
:100400000E9406184B015C0129893A89B9018827A5
:1004100077FD8095982F0E940618A50194010E94EF
:100420006B176D837E838F839887B601882777FD4E
:100430008095982F0E940618A50194010E946B17C1
:1004400069877A878B879C87FA82E982812C912C35
:100450005401750164012FEF3FEF3C832B83E09142
:100460001203F0911303FE87ED878091160390919C
:100470001703E817F90709F4E9C02D813E814F8180
:100480005885C701B6010E9403176B017C0120E06B
:1004900030E040E85FE30E94C41887FD26C01214D4
:1004A00013041CF480910F0302C080910E0399275E
:1004B00087FD9095121413041CF421E030E002C073
:1004C0002FEF3FEF4D855E85240F351F30931303CB
:1004D000209312031CDF20E030E040E85FE3C70117
:1004E000B6010E9402176B017C018091100390916C
:1004F00011039E878D878091140390911503ED85DC
:10050000FE85E817F907C1F129853A854B855C8599
:10051000C501B4010E9403174B015C0120E030E0EB
:1005200040E85FE30E94C41887FD26C0101611063C
:100530001CF480910D0302C080910C03992787FD64
:100540009095101611061CF421E030E002C02FEF48
:100550003FEF4D855E85240F351F309311032093A7
:100560001003E9DE20E030E040E85FE3C501B401BC
:100570000E9402174B015C01EB81FC81CF01AA278D
:1005800097FDA095BA2F840D951DA61DB71D20912E
:100590000C0230910D02A901662757FD6095762F58
:1005A00084179507A607B7076CF040910A0250918F
:1005B0000B02662757FD6095762F481759076A0783
:1005C0007B0714F4DB01CA014090E1025090E20283
:1005D0006090E3027090E402480E591E6A1E7B1E72
:1005E000F1E14F16F7E25F06610471049CF0C3016C
:1005F000B20128EE33E040E050E00E94B5196D876B
:100600007E878F87988BCA01B9010E94AF0F8D85B5
:100610009E8501C0C2010E94D40F80910A02909170
:100620000B0220910C0230910D02821B930B298149
:100630003A812817390724F441E050E05C834B836A
:1006400089819A8101979A83898309CF2091140324
:100650003091150380911003909111038217930735
:1006600009F043CF62960FB6F894DEBF0FBECDBF40
:10067000DF91CF911F910F91FF90EF90DF90CF907E
:10068000BF90AF909F908F907F906F905F904F90B2
:100690003F902F9008954F925F926F927F928F922A
:1006A0009F92AF92BF92CF92DF92EF92FF92CF9341
:1006B000DF9300D01F92CDB7DEB7C0902003D0905B
:1006C0002103E0902203F09023032091280330912E
:1006D000290340912A0350912B03C701B6010E94C0
:1006E00002172B013C0180911C0390911D03A091E6
:1006F0001E03B0911F0389839A83AB83BC8320912F
:100700002403309125034091260350912703BC0117
:10071000CD010E9402174B015C01A3019201C301AC
:10072000B2010E94C8182B013C01A5019401C5012A
:10073000B4010E94C8189B01AC01C301B2010E9420
:1007400003170E942F192FE632E143E85AE30E9473
:10075000671787FD3FC026EF38E24FEA52E4C70132
:10076000B6010E94C8180E94D317709317036093B4
:10077000160326EF38E24FEA52E469817A818B81D1
:100780009C810E94C8180E94D31770931503609330
:100790001403E5DD8091200390912103A0912203B1
:1007A000B09123038093280390932903A0932A03F5
:1007B000B0932B0380911C0390911D03A0911E0305
:1007C000B0911F038093240390932503A0932603E5
:1007D000B09327030F900F900F900F90DF91CF9160
:1007E000FF90EF90DF90CF90BF90AF909F908F9051
:1007F0007F906F905F904F9008958091FC020E94CF
:10080000C711019731F48091FE020E94C711019730
:1008100069F08091F4020E94C7110197A1F48091C0
:10082000F6020E94C711019771F426C080910C0353
:10083000992787FD90957FDD80910C0290910D02A4
:100840000E94D40FDACF1092130310921203109269
:100850001103109210031092280310922903109292
:100860002A0310922B031092240310922503109256
:10087000260310922703089580910E03992787FD80
:10088000909545DD80910C0290910D020E94D40F4D
:10089000C0CF109228031092290310922A031092BD
:1008A0002B0310922403109225031092260310921A
:1008B0002703109213031092120310921103109247
:1008C000100308950F931F93CF93DF931F921F92EE
:1008D000CDB7DEB7AE014F5F5F4F68E472E00E94B4
:1008E000501A8C018091280390912903A0912A032A
:1008F000B0912B038093200390932103A0932203B4
:10090000B09323038091240390912503A0912603A3
:10091000B091270380931C0390931D03A0931E03A3
:10092000B0931F03012B09F45EC0AE014F5F5F4F10
:1009300068E472E080E090E00E94501A8C01FC01B3
:100940008081883569F4C80101960E94F41960938A
:100950002003709321038093220390932303E2CF1B
:10096000893569F4C80101960E94F41960931C034B
:1009700070931D0380931E0390931F03D3CF8A357A
:1009800069F4C80101960E94F419609318037093EA
:10099000190380931A0390931B03C4CF863499F4F0
:1009A000C80101960E94F41920E030E040E752E4CB
:1009B0000E946B1760932C0370932D0380932E037A
:1009C00090932F03AFCF813409F0ACCFC8010196CB
:1009D0000E94141A6093E1027093E2028093E30292
:1009E0009093E4029FCF57DE0F900F90DF91CF914D
:1009F0001F910F9108956CE272E089E996E00E94E0
:100A0000F11460913D0370913E034AE050E089E9A2
:100A100096E00E94AA1560E289E996E00E94F2142D
:100A200060913B0370913C034AE050E089E996E015
:100A30000E94AA1560E289E996E00E94F2144091B2
:100A400028035091290360912A0370912B0322E01F
:100A500030E089E996E00E949E1660E289E996E01E
:100A60000E94F214409124035091250360912603C3
:100A70007091270322E030E089E996E00E949E16FB
:100A800060E289E996E00E94F21464E372E089E989
:100A900096E00E94F1146091380370E04AE050E063
:100AA00089E996E00E94AA1566E372E089E996E07A
:100AB0000E94F1146091390370E04AE050E089E946
:100AC00096E00E94AA1569E372E089E996E00E9427
:100AD000F11460913A0370E04AE050E089E996E051
:100AE0000E94AA156CE372E089E996E00E94F11475
:100AF00060913F03709140034AE050E089E996E03D
:100B00000E94AA156FE372E089E996E00E94F11451
:100B100060914103709142034AE050E089E996E018
:100B20000E94AA1562E472E089E996E00E94F1143D
:100B300060914303709144034AE050E089E996E0F4
:100B40000C94B11565E472E089E996E00E94F11415
:100B50008091FC020E94C7114AE050E0BC0189E983
:100B600096E00E94AA1568E472E089E996E00E9486
:100B7000F1148091FE020E94C7114AE050E0BC01CE
:100B800089E996E00E94AA1568E472E089E996E096
:100B90000E94F1148091F4020E94C7114AE050E0D3
:100BA000BC0189E996E00E94AA1568E472E089E92F
:100BB00096E00E94F1148091F6020E94C7114AE06B
:100BC00050E0BC0189E996E00C94B1150F931F9396
:100BD000CF93DF9300E313E0C0E0D0E0F801619130
:100BE0008F01CE010E949C1A2196C034D105B1F725
:100BF000DF91CF911F910F9108950F931F93CF9382
:100C0000DF931F921F92CDB7DEB7AE014F5F5F4FEC
:100C100068E472E00E94501A8C01012B09F43FC075
:100C2000AE014F5F5F4F68E472E080E090E00E94A9
:100C3000501A8C01FC018081813439F4C80101967D
:100C40000E94F71980933803E8CF823439F4C80141
:100C500001960E94F71980933903DFCF883449F455
:100C6000C80101960E94F71990933C0380933B03BF
:100C7000D4CF873549F4C80101960E94F7199093A3
:100C80003E0380933D03C9CF833539F6C8010196F1
:100C90000E94F7199093400380933F03BECF96DFE5
:100CA0000F900F90DF91CF911F910F910895CF93E7
:100CB000DF931F921F92CDB7DEB7AE014F5F5F4F3C
:100CC00068E472E00E94501A89819A810E94141A85
:100CD0006093E1027093E2028093E3029093E40256
:100CE0000F900F90DF91CF910895CF93DF931F92D4
:100CF0001F92CDB7DEB7AE014F5F5F4F68E472E081
:100D00000E94501A89819A810E94F719BC018EEEC7
:100D100092E024D20F900F90DF91CF910895CF935E
:100D2000DF931F921F92CDB7DEB7AE014F5F5F4FCB
:100D300068E472E00E94501A89819A810E94F71932
:100D4000BC0185EE92E0C1D50F900F90DF91CF915D
:100D500008950F931F93CF93DF931F921F92CDB7E8
:100D6000DEB7AE014F5F5F4F68E472E00E94501A39
:100D70008C01012B11F1AE014F5F5F4F68E472E00F
:100D800080E090E00E94501A8C01FC018081853542
:100D900049F4C80101960E94F71990934203809389
:100DA0004103E7CF843429F7C80101960E94F7195F
:100DB0009093440380934303DCCF08DF0F900F90A0
:100DC000DF91CF911F910F910895CF93DF93EC01A5
:100DD0000E94F71901978B309105F8F48E589F4FB8
:100DE000FC010C94D119CE01DF91CF9198CFCE01A7
:100DF000DF91CF91AECFCE01DF91CF9158CFCE0111
:100E0000DF91CF9172CFCE01DF91CF91F6CEDF91FE
:100E1000CF91F1CDDF91CF9195CEDF91CF91089514
:100E2000CF93DF93EC010E94F71997FD1CC082302D
:100E30009105ACF04C97B9F4109220031092210365
:100E4000109222031092230310921C0310921D0390
:100E500010921E0310921F03DF91CF91CECCCE01D2
:100E6000DF91CF912FCDDF91CF910895FC012081AB
:100E7000273419F40196D4DF2FC02D3419F40196CC
:100E8000A4DF2AC0203541F56AE472E089E996E0E2
:100E90000E94F114409128035091290360912A0384
:100EA00070912B0322E030E089E996E00E949E16C3
:100EB00060E572E089E996E00E94F1144091240314
:100EC00050912503609126037091270322E030E0C2
:100ED00089E996E00E949F1663E572E089E996E051
:100EE0000C94FC140F931F93CF93DF9300E313E054
:100EF000C0E0D0E0CE010E94941AD8018D938D01FC
:100F00002196C034D105B1F743E050E066E572E0C8
:100F100080E393E00E94421A892BA9F16AE572E00E
:100F200089E996E00E94FC1480E4E0E3F3E0DF014D
:100F30001D928A95E9F788E599E5A4E3809330034B
:100F400090933103A09332038CE791E090933E039A
:100F500080933D0386E391E090933C0380933B03B1
:100F600080E590E09093400380933F0380EA90E017
:100F700090934203809341038AE590E09093440369
:100F80008093430323DE80913803811105C08FEFE6
:100F900080930F0381E004C081E080930F038FEF03
:100FA00080930E0380913903811105C08FEF8093E8
:100FB0000D0381E004C081E080930D038FEF8093E7
:100FC0000C0384E690E020913F0330914003821BA4
:100FD000930B4AE0489F9001499F300D11243093B4
:100FE0000D0220930C0244E6489F9001499F300D6A
:100FF000112430930B0220930A02DF91CF911F91AD
:101000000F91089562E08091FE020E94591162E002
:101010008091FC020E94591162E08091F6020E94C8
:10102000591162E08091F4020E94591126E040E0DB
:1010300052EC61E070E089E996E00E94FD1252DF17
:1010400028DC6091E8027091E90285EE92E005D417
:1010500064E670E080E090E082D760914103709197
:10106000420385EE92E031D460E070E08EEE92E0D3
:1010700075C061E088E093E07ED162E084E093E0B7
:101080007AD163E080E093E076D180E093E0A2D172
:1010900090E09093FF028093FE0280E093E09DD168
:1010A00090E09093FD028093FC0266E088EF92E06E
:1010B00062D188EF92E08ED190E09093F702809316
:1010C000F60288EF92E089D190E09093F502809348
:1010D000F4026AE08EEE92E040D067E08AEE92E0A1
:1010E0004AD18AEE92E079D190E09093E902809320
:1010F000E80285EE92E0E7C289E996E00E94EF11EE
:10110000892B51F189E996E00E940812A091A00272
:10111000E1E0EA0FE093A002BB27A7FDB095AF5531
:10112000BD4F8C938A3091F4FF27E7FDF095EF5582
:10113000FD4F108281EA92E099DE80E4E1EAF2E07C
:10114000DF011D928A95E9F71092A0028091A0021A
:10115000803414F01092A00208950DC10F931F93D4
:10116000CF93DF938C016F3F710519F014F06FEF8F
:1011700070E0EB0161308FEF780714F4C1E0DFEF2E
:10118000D7FD05C061E0C80114D1BE0107C060E011
:10119000C8010FD1662777276C1B7D0BC801DF9133
:1011A000CF911F910F9113C180E793E003C080E7B7
:1011B00093E029C021E030E0FC0131832083EE5F21
:1011C000FE4F108211821282138234961082118295
:1011D00012821382349610823196108231961082D8
:1011E00011821282138234961182108232961082FA
:1011F00031961082118212821382349610821182EB
:1012000012821382089508951F920F920FB60F92C3
:1012100011240BB60F920F931F932F933F934F936D
:101220005F936F937F938F939F93AF93BF93CF936E
:10123000EF93FF9382E00E94C711C82F2091910481
:10124000309192042F5F3F4F30939204209391048A
:101250008091F704843618F085E080938C04909197
:101260008C04933079F018F4923039F06EC09430D9
:1012700011F1953009F449C068C0C11166C01092DF
:10128000F70429C0C13009F060C0E091F70481E0A3
:101290008E0F8093F704F0E0809191049091920476
:1012A000E557FB4F8087109292041092910484E0DE
:1012B00080938C044AC0C11114C0E091F70481E00E
:1012C0008E0F8093F704F0E0809191049091920446
:1012D000E557FB4F8087109292041092910483E0AF
:1012E000E7CF80919104909192048536910568F141
:1012F00085E080938C0404D660938D0470938E04F3
:1013000080938F049093900420C0FAD500918D04AF
:1013100010918E0420918F0430919004601B710B0A
:10132000820B930B693C71058105910540F0109289
:10133000F704109292041092910482E0B9CFC11187
:1013400004C01092920410929104FF91EF91CF91FA
:10135000BF91AF919F918F917F916F915F914F91CD
:101360003F912F911F910F910F900BBE0F900FBEC9
:101370000F901F901895DC01E62FF0E0EE0FFF1F95
:10138000E25FFD4F80818C93818111968C93119740
:1013900012966C9308951F93CF93DF93EC01162F51
:1013A00061E0888186D7612F8881DF91CF911F917D
:1013B000B9C71F93CF93DF93EC01162F61E08981AA
:1013C00078D7612F8981DF91CF911F91ABC7FC0145
:1013D000808157C6FC0180810895FC0181810895B8
:1013E000CF92DF92EF92FF920F931F93CF93DF93F1
:1013F0006C018B017A01EC01C750DB4F888187FFBC
:1014000004C0FB011182108223C02CE02C9DC0017E
:101410002D9D900D11242881AC01420F511D27FDF7
:101420005A952091F80430E0421753078CF4288134
:10143000AC01420F511D27FD5A959A01FA01EE0F9A
:10144000FF1FE20FF31FE350FB4F208127FD19C060
:1014500088818F5F88838CE08C9D90018D9D300DFD
:1014600011248881A901480F511D87FD5A9580914B
:10147000F80490E048175907ACF488818C3034F1B7
:1014800011C02881820F911D27FD9A95FC01EE0F56
:10149000FF1FE80FF91FE350FB4F808160E08F775B
:1014A00041D7D6CFF80180819181049680349C4940
:1014B00018F480E49CE904C0F801808191810496CD
:1014C000F701918380838FEF888340C0F80180818A
:1014D00091814881B901640F711D47FD7A95AB0177
:1014E000FB01EE0FFF1FE40FF51FE350FB4F41819F
:1014F0005281840F951FF701918380838881A90110
:10150000480F511D87FD5A95FA01EE0FFF1FE40F9A
:10151000F51FE350FB4F808187FF18C08881280F9B
:10152000311D87FD3A95F901EE0FFF1FE20FF31F02
:10153000E350FB4F808161E08F77DF91CF911F9166
:101540000F91FF90EF90DF90CF90ECC6DF91CF919D
:101550001F910F91FF90EF90DF90CF9008951F9211
:101560000F920FB60F9211240BB60F922F933F9349
:101570004F935F936F937F938F939F93AF93BF939B
:10158000EF93FF9348E850E064E870E081E090E07A
:1015900027DFFF91EF91BF91AF919F918F917F9145
:1015A0006F915F914F913F912F910F900BBE0F90D4
:1015B0000FBE0F901F9018951F920F920FB60F92AB
:1015C00011240BB60F922F933F934F935F936F931A
:1015D0007F938F939F93AF93BF93EF93FF9348E9CC
:1015E00050E064E970E082E090E0FADEFF91EF9174
:1015F000BF91AF919F918F917F916F915F914F912B
:101600003F912F910F900BBE0F900FBE0F901F9028
:1016100018951F920F920FB60F9211240BB60F92CE
:101620002F933F934F935F936F937F938F939F93EA
:10163000AF93BF93EF93FF9348EA50E064EA70E002
:1016400083E090E0CDDEFF91EF91BF91AF919F914C
:101650008F917F916F915F914F913F912F910F905B
:101660000BBE0F900FBE0F901F9018951F920F92F8
:101670000FB60F9211240BB60F922F933F934F93F7
:101680005F936F937F938F939F93AF93BF93EF93EA
:10169000FF9348E251E064E271E080E090E0A0DE78
:1016A000FF91EF91BF91AF919F918F917F916F913A
:1016B0005F914F913F912F910F900BBE0F900FBEF6
:1016C0000F901F9018952091F8042033A0F431E07A
:1016D000320F3093F804FC012083822F90E0FC014C
:1016E000EE0FFF1FE80FF91FE350FB4F88EB9BE065
:1016F0009283818308952FEFFC0120830895DF9268
:10170000EF92FF920F931F93CF93DF93EC01D62EAE
:101710007A0189018881803308F067C061E08D2DEE
:10172000C8D58881A82FB0E0FD01EE0FFF1FEA0F9A
:10173000FB1FE350FB4F2D2D2F7790819078922B3C
:10174000908360E272E06E197F0977FF02C06D5FDF
:101750007F4F7595679575956795698340E659E064
:10176000401B510B57FF02C04D5F5F4F559547958A
:10177000559547954A836CE00E9487199CE0899FA4
:10178000B001112420E030E0A901460F571FFA01F3
:10179000EE0FFF1FE40FF51FE350FB4F908197FD05
:1017A00018C02F5F3F4F2C30310571F790E081302A
:1017B000910521F51092800082E0809381001092C3
:1017C000850010928400B19A80916F0082608093AE
:1017D0006F00888190E0FC01EE0FFF1FE80FF91FFA
:1017E000E350FB4F8081806880838881DF91CF91B7
:1017F0001F910F91FF90EF90DF9008958230910537
:1018000069F41092900082E080939100109295000C
:101810001092940088BB80937100DBCF83309105D8
:1018200069F41092A00082E08093A1001092A500BC
:101830001092A40089BB80937200CBCF892B49F60C
:101840001092200182E080932101109225011092D4
:1018500024018ABB80937300BCCF20E639E040E2CC
:1018600052E04DCFFC018081803370F5918128E8F2
:1018700030E0291B310997FD3395220F331F220FCA
:10188000331F621773077CF0928128E532E0291B31
:10189000310997FD3395220F331F220F331F621733
:1018A00073070CF49B0122503109220F331F4FB7ED
:1018B000F89490E0FC01EE0FFF1FE80FF91FE350D2
:1018C000FB4F328321834FBF08954F925F926F92F7
:1018D0007F92AF92BF92CF92DF92EF92FF920F93DF
:1018E0001F93CF93DF93EC01603282E078070CF016
:1018F00040C077FD06C0653B71052CF064EB70E0DD
:1019000002C060E070E0898128E830E0281B3109DE
:1019100087FD3395220F331F220F331F5901CC242B
:10192000B7FCC094DC2C882777FD8095982F2A81FE
:1019300048E552E0421B510927FD5395440F551FBE
:10194000440F551F2A01662457FC6094762C7F9221
:101950006F925F924F9214EBE12EF12C00E010E0B9
:1019600020E030E0A9010E94AF160F900F900F9079
:101970000F90CE01DF91CF911F910F91FF90EF90CB
:10198000DF90CF90BF90AF907F906F905F904F901F
:1019900069CF1F920F920FB60F9211240BB60F92C0
:1019A0002F933F934F935F936F937F938F939F9367
:1019B000AF93BF93EF93FF93E091CF05F091D005E4
:1019C000309709F451C0868DA685B785958581FF2E
:1019D00004C08C91892329F447C08C91892309F094
:1019E00043C0A389B4899C918589809589238C9370
:1019F000868997890197F1F7208D318DA685B78566
:101A0000758558E040E0C9010197F1F7842F90E017
:101A100095958795482F6C91672309F04068515040
:101A200091F7868D81FD409580918E0590E001961D
:101A30008F73992720918D05281749F0A0918E0565
:101A4000B0E0A157BA4F4C9380938E0503C0868DAA
:101A50008160868F828D938D0197F1F7A389B48978
:101A60008C919589892B8C93FF91EF91BF91AF91C8
:101A70009F918F917F916F915F914F913F912F91A6
:101A80000F900BBE0F900FBE0F901F901895809176
:101A9000000690E020910106821B91090895209193
:101AA000010680910006281750F4E22FF0E0EE5F67
:101AB000F94F808190E02F5F2093010608958FEF0A
:101AC0009FEF0895E091010680910006E81730F439
:101AD000F0E0EE5FF94F808190E008958FEF9FEF87
:101AE00008950895CF92DF92EF92FF920F931F9384
:101AF000CF93DF937C01CB018A012091DD05222366
:101B000089F0EB016B01C40ED51ECC15DD0561F02B
:101B10006991D701ED91FC910190F081E02DC70111
:101B20001995F3CF642F4BD0C801DF91CF911F914E
:101B30000F91FF90EF90DF90CF900895CF93DF93B8
:101B40001F92CDB7DEB769832091DD052223D1F046
:101B50002091DE05203240F021E030E0FC013383AB
:101B6000228380E090E014C08091DF05E82FF0E050
:101B7000E052FA4F998190838F5F8093DF058093C5
:101B8000DE0504C061E0CE01019619D081E090E04D
:101B90000F90DF91CF910895FC011382128248EEDD
:101BA00053E060E070E0448355836683778383E786
:101BB00092E091838083089581ED95E0EDCF6132CD
:101BC00098F420918F06243089F460934406FC0138
:101BD00086E496E0DC012A2F281B261718F42191B1
:101BE0002D93F9CF80E0089581E0089582E0089573
:101BF00085ED8093BC008091BC0084FDFCCF1092E9
:101C00008F06089585EC8093BC0010928F0608958E
:101C10001F920F920FB60F9211240BB60F922F93B3
:101C20003F934F935F936F937F938F939F93AF9364
:101C3000BF93EF93FF938091B900887F803609F4BA
:101C40009DC070F5883209F45CC090F4803109F4CD
:101C500055C038F4882309F4F3C0883009F44EC025
:101C6000F2C0883109F44DC0803209F45EC0EBC087
:101C7000803409F469C050F4803309F456C08833C5
:101C800009F0E1C080932206BDDFDDC0803509F494
:101C90004FC0883509F45DC0883409F0D4C0D2C083
:101CA000883909F4C3C0A8F4883709F467C038F448
:101CB000883609F463C0803709F460C0C4C088382E
:101CC00009F4B4C0803909F45FC0803809F0BBC0A2
:101CD0005BC0803B09F482C038F4803A09F466C0E6
:101CE000883A09F47BC0AFC0803C09F4A3C0883CAB
:101CF00009F4A0C0883B09F486C0A5C080918E0677
:101D000010C09091670680916606981770F5E09173
:101D1000670681E08E0F80936706F0E0E859F94F7F
:101D200080818093BB0085EC82C0809322068AC0AC
:101D3000E091670681E08E0F809367068091BB007B
:101D4000F0E0E859F94F808390916706809166062C
:101D50006AC0E091670681E08E0F809367068091EC
:101D6000BB00F0E0E859F94F808380918D06811126
:101D700069C081E080938C0684EA5DC083E0809333
:101D80008F0610922306CFCF80912306803208F071
:101D90004DC0E091230681E08E0F80932306809151
:101DA000BB00F0E0EC5DF94F8083BDCF2BDF80916D
:101DB0002306803230F4E0912306F0E0EC5DF94F29
:101DC00010826091230670E0E0918806F091890608
:101DD00084E296E019951092230635C084E0809342
:101DE0008F061092450610924406E0918A06F09103
:101DF0008B06199580914406811105C081E080937E
:101E0000440610924606E091450681E08E0F8093CD
:101E10004506F0E0EA5BF94F80818093BB0090912A
:101E2000450680914406981708F47DCF85E8809395
:101E3000BC0009C085EC8093BC0010928F0603C0E3
:101E400010922206D5DEFF91EF91BF91AF919F9145
:101E50008F917F916F915F914F913F912F910F9053
:101E60000BBE0F900FBE0F901F9018951F920F92F0
:101E70000FB60F9211242F933F938F939F93AF939D
:101E8000BF938091910690919206A0919306B09194
:101E900094063091900623E0230F2D3720F401960D
:101EA000A11DB11D05C026E8230F0296A11DB11D7D
:101EB000209390068093910690939206A0939306A8
:101EC000B09394068091950690919606A0919706FE
:101ED000B09198060196A11DB11D8093950690932F
:101EE0009606A0939706B0939806BF91AF919F91E5
:101EF0008F913F912F910F900FBE0F901F901895CB
:101F00002FB7F89460919106709192068091930694
:101F1000909194062FBF08953FB7F894809195064D
:101F200090919606A0919706B091980626B5A89B29
:101F300005C02F3F19F00196A11DB11D3FBF6627B7
:101F4000782F892F9A2F620F711D811D911D42E0FC
:101F5000660F771F881F991F4A95D1F70895CF9272
:101F6000DF92EF92FF92CF93DF936B017C01D4DF7E
:101F7000EB01C114D104E104F10479F042D7CCDFC4
:101F80006C1B7D0B683E7340A0F381E0C81AD1083A
:101F9000E108F108C851DC4FECCFDF91CF91FF9001
:101FA000EF90DF90CF9008958230910538F0880F40
:101FB000991F880F991F05970197F1F70895789455
:101FC00084B5826084BD84B5816084BD85B582603E
:101FD00085BD85B5816085BDEEE6F0E080818160DC
:101FE0008083E1E8F0E010828081826080838081DC
:101FF00081608083E0E8F0E0808181608083E1EBB4
:10200000F0E0808184608083E0EBF0E0808181609B
:102010008083E1E9F0E0808182608083808181605B
:102020008083E0E9F0E0808181608083E1EAF0E094
:10203000808182608083808181608083E0EAF0E03B
:10204000808181608083E1E2F1E080818260808331
:10205000808181608083E0E2F1E080818160808323
:10206000EAE7F0E080818460808380818260808301
:102070008081816080838081806880831092C1002C
:1020800008951F93CF93DF93182FEB0161E011D1D7
:10209000209711F460E004C0CF3FD10531F461E036
:1020A000812FDF91CF911F913DC1E12FF0E0EE5BD9
:1020B000FE4F449150E0FA013197E231F10508F00A
:1020C0009BC0E358FF4F0C94D11984B5806884BD40
:1020D000C7BD97C084B5806284BDC8BD92C08091E1
:1020E0008000806880938000D0938900C09388002E
:1020F00088C080918000806280938000D0938B00A4
:10210000C0938A007EC080918000886080938000A8
:10211000D0938D00C0938C0074C08091B000806813
:102120008093B000C093B3006CC08091B000806217
:102130008093B000C093B40064C080919000806828
:1021400080939000D0939900C09398005AC08091DA
:102150009000806280939000D0939B00C0939A007F
:1021600050C080919000886080939000D0939D0033
:10217000C0939C0046C08091A00080688093A0001E
:102180008091A0008F7B8093A000D093A900C09382
:10219000A80037C08091A00080628093A000D093F7
:1021A000AB00C093AA002DC08091A00088608093EE
:1021B000A000D093AD00C093AC0023C0809120015B
:1021C000806880932001D0932901C093280119C011
:1021D00080912001806280932001D0932B01C093D5
:1021E0002A010FC080912001886080932001D09344
:1021F0002D01C0932C0105C0C038D1050CF04FCF84
:1022000049CFDF91CF911F91089590E0FC01319764
:10221000E231F10508F04CC0E157FF4F0C94D119A1
:10222000809180008F7703C0809180008F7D8093A4
:102230008000089580918000877FF9CF84B58F77E3
:1022400002C084B58F7D84BD08958091B0008F77E2
:1022500003C08091B0008F7D8093B000089580917D
:1022600090008F7707C0809190008F7D03C0809190
:102270009000877F8093900008958091A0008F77D1
:1022800007C08091A0008F7D03C08091A000877F50
:102290008093A0000895809120018F7707C08091DE
:1022A00020018F7D03C080912001877F80932001D2
:1022B0000895CF93DF9390E0FC01E857FE4F2491FF
:1022C000FC01E253FE4F8491882349F190E0880F8E
:1022D000991FFC01E85BFD4FA591B491825D9D4F74
:1022E000FC01C591D4919FB7611108C0F8948C91FD
:1022F000209582238C93888182230AC0623051F416
:10230000F8948C91322F309583238C938881822B83
:10231000888304C0F8948C91822B8C939FBFDF91AB
:10232000CF9108950F931F93CF93DF931F92CDB753
:10233000DEB7282F30E0F901EE5BFE4F8491F90102
:10234000E857FE4F1491F901E253FE4F0491002328
:10235000C1F0882319F0698358DF6981E02FF0E02C
:10236000EE0FFF1FE25DFD4FA591B4919FB7F8946A
:102370008C91611103C01095812301C0812B8C9336
:102380009FBF0F90DF91CF911F910F910895CF9331
:10239000DF93282F30E0F901EE5BFE4F8491F901C5
:1023A000E857FE4FD491F901E253FE4FC491CC237C
:1023B00089F081112ADFEC2FF0E0EE0FFF1FEC5EB9
:1023C000FD4FA591B4912C912D2381E090E021F453
:1023D00080E002C080E090E0DF91CF910895FC01A1
:1023E000818D228D90E0805C9F4F821B91098F73BD
:1023F00099270895FC01918D828D981731F0828D77
:10240000E80FF11D858D90E008958FEF9FEF0895FF
:10241000FC01918D828D981761F0828DDF01A80FEC
:10242000B11D5D968C91928D9F5F9F73928F90E00E
:1024300008958FEF9FEF08958CEB93E1892B39F08E
:1024400080E090E0892B19F097D1811124C080E0C1
:1024500090E0892B41F080E090E0892B21F00E94F0
:10246000000081111BC087E694E1892B39F080E0E0
:1024700090E0892B19F02BD2811113C080E090E0FD
:10248000892BA1F080E090E0892B81F00E94000070
:1024900081110AC008950E940000D9CF0E94000057
:1024A000E2CF0E940000EACF0C9400000895FC01E6
:1024B000848DDF01A80FB11DA35ABF4F2C91848DCD
:1024C00090E001968F739927848FA689B7892C9302
:1024D000A089B1898C9180648C93938D848D98139D
:1024E00006C00288F389E02D80818F7D8083089566
:1024F000CF93DF93EC01888D8823C1F0EA89FB89B3
:10250000808185FD05C0A889B9898C9186FD0EC0A2
:102510000FB607FCF5CF808185FFF2CFA889B98976
:102520008C9185FFEDCFCE01C2DFE8CFDF91CF9157
:102530000895CF92DF92FF920F931F93CF93DF9373
:102540001F92CDB7DEB76C0181E0D60158968C930F
:1025500058975B969C915B975C968C915C979813CF
:1025600007C05096ED91FC915197808185FD2DC05B
:10257000F601038D10E00F5F1F4F0F731127F02E30
:10258000F601848DF81210C00FB607FCF9CFD60102
:102590005096ED91FC915197808185FFF1CFC60156
:1025A000698385DF6981ECCF838DE80FF11DE35AE4
:1025B000FF4F6083D6015B960C935B975296ED912B
:1025C000FC915397808180620CC0D6015696ED91A4
:1025D000FC91579760835096ED91FC9151978081C3
:1025E0008064808381E090E00F90DF91CF911F9114
:1025F0000F91FF90DF90CF900895BF92CF92DF921E
:10260000EF92FF92CF93DF93EC016A017B01B22E30
:10261000E889F98982E08083411581EE58076105D8
:10262000710599F060E079E08DE390E0A7019601F3
:102630007AD6215031094109510956954795379568
:102640002795211580E1380790F0E889F9891082F3
:1026500060E874E88EE190E0A701960164D621500D
:102660003109410951095695479537952795EC85CC
:10267000FD853083EE85FF852083188EEC89FD89EA
:10268000B082EA89FB89808180618083EA89FB8945
:10269000808188608083EA89FB898081806880836B
:1026A000EA89FB8980818F7D8083DF91CF91FF90C4
:1026B000EF90DF90CF90BF9008951F920F920FB6CA
:1026C0000F9211240BB60F922F938F939F93EF933A
:1026D000FF93E091A906F091AA068081E091AF06F0
:1026E000F091B00682FD12C090818091B2068F5F9A
:1026F0008F732091B306821751F0E091B206F0E09B
:10270000E756F94F958F8093B20601C08081FF9103
:10271000EF919F918F912F910F900BBE0F900FBE55
:102720000F901F9018951F920F920FB60F921124C1
:102730000BB60F922F933F934F935F936F937F93BB
:102740008F939F93AF93BF93EF93FF9389E996E0A5
:10275000AEDEFF91EF91BF91AF919F918F917F91ED
:102760006F915F914F913F912F910F900BBE0F9002
:102770000FBE0F901F90189589E996E030DE21E09A
:10278000892B09F420E0822F089510929C06109264
:102790009B0688EE93E0A0E0B0E080939D069093C6
:1027A0009E06A0939F06B093A00683E892E09093C4
:1027B0009A068093990685EC90E09093A606809304
:1027C000A50684EC90E09093A8068093A70680EC81
:1027D00090E09093AA068093A90681EC90E09093F4
:1027E000AC068093AB0682EC90E09093AE068093AB
:1027F000AD0686EC90E09093B0068093AF06109201
:10280000B2061092B3061092B4061092B50608955F
:102810001F920F920FB60F9211240BB60F922F93A7
:102820008F939F93EF93FF93E0914607F0914707B3
:102830008081E0914C07F0914D0782FD12C090819C
:1028400080914F078F5F8F7320915007821751F04F
:10285000E0914F07F0E0EA5CF84F958F80934F07C7
:1028600001C08081FF91EF919F918F912F910F90E7
:102870000BBE0F900FBE0F901F9018951F920F92D6
:102880000FB60F9211240BB60F922F933F934F93D5
:102890005F936F937F938F939F93AF93BF93EF93C8
:1028A000FF9386E397E003DEFF91EF91BF91AF9135
:1028B0009F918F917F916F915F914F913F912F9158
:1028C0000F900BBE0F900FBE0F901F90189586E3D0
:1028D00097E085DD21E0892B09F420E0822F08951F
:1028E000109239071092380788EE93E0A0E0B0E02C
:1028F00080933A0790933B07A0933C07B0933D0722
:1029000083E892E0909337078093360785ED90E057
:10291000909343078093420784ED90E0909345079E
:102920008093440780ED90E090934707809346079B
:1029300081ED90E0909349078093480782ED90E005
:1029400090934B0780934A0786ED90E090934D0754
:1029500080934C0710924F07109250071092510726
:10296000109252070895CF92DF92EF92FF920F9349
:102970001F93CF93DF937C016A01EB0100E010E02D
:102980000C151D0571F06991D701ED91FC91019035
:10299000F081E02DC7011995892B19F00F5F1F4FAA
:1029A000EFCFC801DF91CF911F910F91FF90EF9072
:1029B000DF90CF9008956115710581F0DB010D90D6
:1029C0000020E9F7AD0141505109461B570BDC01CE
:1029D000ED91FC910280F381E02D199480E090E06C
:1029E0000895E9CFDC01ED91FC910190F081E02D9B
:1029F00019946FE872E0DFCF0F931F93CF93DF93AB
:102A0000EC01D9DF8C01CE01F4DF800F911FDF9143
:102A1000CF911F910F9108958F929F92AF92BF9285
:102A2000CF92DF92EF92FF920F931F93CF93DF939A
:102A3000CDB7DEB7A1970FB6F894DEBF0FBECDBFFE
:102A40007C01C42EE52FCB01D22E19A221E02D1539
:102A500010F02AE0D22E8E010F5D1F4F8D2C912C8D
:102A6000A12CB12C6C2D7E2FA50194015CD48C2D52
:102A7000D29E80191124015011098A3014F4805D0E
:102A800001C0895CF801808321153105410551059C
:102A900021F0C22EE32FCA01E5CFB801C7018BDFB9
:102AA000A1960FB6F894DEBF0FBECDBFDF91CF91D8
:102AB0001F910F91FF90EF90DF90CF90BF90AF905C
:102AC0009F908F900895CF92DF92EF92FF920F9395
:102AD0001F93CF93DF93EC016A017B012115310530
:102AE00079F4E881F9810190F081E02D642FDF9184
:102AF000CF911F910F91FF90EF90DF90CF9019949D
:102B00002A303105D9F477FF18C06DE26BDF8C01F4
:102B100044275527BA014C195D096E097F092AE03F
:102B2000CE017ADF800F911FDF91CF911F910F911E
:102B3000FF90EF90DF90CF9008952AE0B701A601B3
:102B4000CE01DF91CF911F910F91FF90EF90DF9019
:102B5000CF9062CF9A01AB01662757FD6095762F23
:102B6000B2CF0F931F93CF93DF93EC019A01AB0188
:102B7000662757FD6095762FA6DF8C01CE0139DFE1
:102B8000800F911FDF91CF911F910F9108954F9268
:102B90005F926F927F928F929F92AF92BF92CF92ED
:102BA000DF92EF92FF920F931F93CF93DF93EC018D
:102BB0006A017B01B22E9A01AB01C701B6018DD328
:102BC000882319F062E972E024C026013701E894F5
:102BD00077F82FEF3FEF4FE75FE7C301B2017DD3F7
:102BE00081110CC02FEF3FEF4FE75FE7C301B20148
:102BF0006ED118161CF466E972E00BC02FEF3FEFA0
:102C00004FE75FE4C701B601BFD21816A4F46AE922
:102C100072E0CE01DF91CF911F910F91FF90EF9065
:102C2000DF90CF90BF90AF909F908F907F906F90EC
:102C30005F904F90C0CE2FEF3FEF4FE75FECC701A3
:102C4000B60145D187FDE3CF20E030E0A901C701FF
:102C5000B6013DD187FF09C06DE2CE01C3DE8C0114
:102C6000F7FAF094F7F8F09402C000E010E0A12C1D
:102C700060E070E080E09FE3AB1439F020E030E0EA
:102C800040E251E428D1A394F7CF9B01AC01C701E6
:102C9000B601B9D06B017C018BD12B013C01B4D1C1
:102CA0009B01AC01C701B601ADD06B017C012AE0EC
:102CB000B301A201CE01B0DE080F191FBB2031F015
:102CC0006EE972E0CE0177DE080F191F7B2C7720AA
:102CD00019F120E030E040E251E4C701B60158D2DA
:102CE0006B017C0160D14B01AA2497FCA094BA2C03
:102CF0002AE030E0B501A401CE01E5DE080F191F7E
:102D0000C501B40183D19B01AC01C701B6017AD0E2
:102D10006B017C017A94DBCFC801DF91CF911F91C9
:102D20000F91FF90EF90DF90CF90BF90AF909F906A
:102D30008F907F906F905F904F90089528CF0F9362
:102D40001F93CF93DF93EC0122DF8C01CE0151DE84
:102D5000800F911FDF91CF911F910F9108954F9296
:102D60005F926F927F92AF92BF92CF92DF92EF927B
:102D7000FF920F931F93CF93DF93CDB7DEB7290157
:102D80003A01621B730B840B950B2A893B894C8992
:102D90005D892A193B094C095D092A8B3B8B4C8BB9
:102DA0005D8B9B01AC016A897B898C899D89A0D24E
:102DB000E418F50806091709A8019701D6D22A0DCB
:102DC0003B1D4C1D5D1DCA01B901DF91CF911F91C3
:102DD0000F91FF90EF90DF90CF90BF90AF907F90DA
:102DE0006F905F904F9008950895E9D8FDDF0E949D
:102DF0000208CCE1D2E10E947C082097E1F31CDBC1
:102E0000FACF08955058BB27AA270ED083C174D19A
:102E100030F079D120F031F49F3F11F41EF469C1F4
:102E20000EF4E095E7FB51C1E92F85D180F3BA1785
:102E3000620773078407950718F071F49EF59DC12A
:102E40000EF4E0950B2EBA2FA02D0B01B9019001C5
:102E50000C01CA01A0011124FF27591B99F0593F09
:102E600050F4503E68F11A16F040A22F232F342F51
:102E70004427585FF3CF469537952795A795F0409F
:102E80005395C9F77EF41F16BA0B620B730B840BB4
:102E9000BAF09150A1F0FF0FBB1F661F771F881F6C
:102EA000C2F70EC0BA0F621F731F841F48F48795C4
:102EB00077956795B795F7959E3F08F0B3CF9395B3
:102EC000880F08F09927EE0F979587950895D9D028
:102ED00008F481E008950CD01DC115D140F00CD14B
:102EE00030F021F45F3F19F0F0C0511147C101C12A
:102EF00022D198F39923C9F35523B1F3951B550BB0
:102F0000BB27AA2762177307840738F09F5F5F4FBC
:102F1000220F331F441FAA1FA9F333D00E2E3AF0FD
:102F2000E0E830D091505040E695001CCAF729D017
:102F3000FE2F27D0660F771F881FBB1F2617370766
:102F40004807AB07B0E809F0BB0B802DBF01FF2796
:102F500093585F4F2AF09E3F510568F0B6C00EC1EE
:102F60005F3FECF3983EDCF3869577956795B795D0
:102F7000F7959F5FC9F7880F911D9695879597F9EB
:102F80000895E1E0660F771F881FBB1F6217730764
:102F90008407BA0720F0621B730B840BBA0BEE1F79
:102FA00088F7E095089504D06894B111E7C00895BA
:102FB000CAD088F09F5790F0B92F9927B751A0F049
:102FC000D1F0660F771F881F991F1AF0BA95C9F7BD
:102FD00012C0B13081F0D1D0B1E00895CEC0672FDA
:102FE000782F8827B85F39F0B93FCCF3869577956D
:102FF0006795B395D9F73EF4909580957095619556
:103000007F4F8F4F9F4F0895E89409C097FB3EF480
:1030100090958095709561957F4F8F4F9F4F992325
:10302000A9F0F92F96E9BB279395F69587957795A3
:103030006795B795F111F8CFFAF4BB0F11F460FF63
:103040001BC06F5F7F4F8F4F9F4F16C0882311F0BB
:1030500096E911C0772321F09EE8872F762F05C0CF
:10306000662371F096E8862F70E060E02AF09A956A
:10307000660F771F881FDAF7880F9695879597F95F
:103080000895990F0008550FAA0BE0E8FEEF1616F9
:103090001706E807F907C0F012161306E407F5074C
:1030A00098F0621B730B840B950B39F40A2661F0C0
:1030B000232B242B252B21F408950A2609F4A14063
:1030C000A6958FEF811D811D089597F99F6780E870
:1030D00070E060E008959F3F31F0915020F48795B3
:1030E00077956795B795880F911D9695879597F970
:1030F00008959FEF80EC089500240A941616170691
:1031000018060906089500240A94121613061406D8
:1031100005060895092E0394000C11F4882352F03B
:10312000BB0F40F4BF2B11F460FF04C06F5F7F4FF3
:103130008F4F9F4F089557FD9058440F551F59F0DA
:103140005F3F71F04795880F97FB991F61F09F3F94
:1031500079F087950895121613061406551FF2CFBD
:103160004695F1DF08C0161617061806991FF1CF0D
:1031700086957105610508940895E894BB27662734
:103180007727CB0197F908957CDF08F48FEF089536
:103190000BD0C0CFB1DF28F0B6DF18F0952309F0CF
:1031A00094CFA7CF1124EACFC6DFA0F3959FD1F328
:1031B000950F50E0551F629FF001729FBB27F00DE5
:1031C000B11D639FAA27F00DB11DAA1F649F66273A
:1031D000B00DA11D661F829F2227B00DA11D621F89
:1031E000739FB00DA11D621F839FA00D611D221F43
:1031F000749F3327A00D611D231F849F600D211D27
:10320000822F762F6A2F11249F5750408AF0E1F0C9
:1032100088234AF0EE0FFF1FBB1F661F771F881F12
:1032200091505040A9F79E3F510570F04ECFA6CF68
:103230005F3FECF3983EDCF3869577956795B795FD
:10324000F795E7959F5FC1F7FE2B880F911D969527
:10325000879597F9089511F40EF44BCF3CCF73DFA7
:10326000D0F39923D9F3CEF39F57550B87FF39D06D
:103270000024A0E640EA900180585695979528F4DE
:10328000805C660F771F881F20F0261737074807D6
:1032900030F4621B730B840B202931294A2BA6952D
:1032A00017940794202531254A2758F7660F771F72
:1032B000881F20F026173707480730F4620B730B7E
:1032C000840B200D311D411DA09581F7B901842F7C
:1032D0009158880F969587950895D3DE880B990BA2
:1032E000089591505040660F771F881FD2F70895B8
:1032F000DB018F939F936AD0BF91AF91A29F800D06
:10330000911DA39F900DB29F900D11240895991BBC
:1033100079E004C0991F961708F0961B881F7A95CC
:10332000C9F780950895A1E21A2EAA1BBB1BFD01C7
:103330000DC0AA1FBB1FEE1FFF1FA217B307E40794
:10334000F50720F0A21BB30BE40BF50B661F771FEC
:10335000881F991F1A9469F76095709580959095CC
:103360009B01AC01BD01CF010895052E97FB16F41A
:1033700000940FD057FD05D0D6DF07FC02D046F4ED
:1033800008C050954095309521953F4F4F4F5F4F66
:10339000089590958095709561957F4F8F4F9F4FC1
:1033A0000895EE0FFF1F0590F491E02D1994A29F50
:1033B000B001B39FC001A39F700D811D1124911D09
:1033C000B29F700D811D1124911D0895F0DFA59FFE
:1033D000900DB49F900DA49F800D911D1124089510
:1033E0000790F691E02D199466277727B3C0FC016A
:1033F00088279927E89421912032E9F3293010F0A9
:103400002E30C8F32B3239F02D3231F4689403C0DA
:1034100083D0820F911D219120532A30C8F31EF4CE
:10342000909581959F4F08951F93FC0199278827B8
:10343000BC01E89411911032E9F3193010F01E30FC
:10344000C8F31B3249F01D3241F4689405C04FD0D7
:10345000610F711D811D911D119110531A30B8F328
:103460003EF490958095709561957F4F8F4F9F4F5B
:103470001F9108959111D6C1803219F0895085505D
:10348000D0F70895FB01DC014150504030F08D91A0
:103490000190801919F40020B9F7881B990B089541
:1034A000FA01A191B081009719F41097E1F0CD01D4
:1034B000DC01CD010D90002011F4C00113C0FB010F
:1034C0002191222319F02015D9F7F3CFFB01219187
:1034D000201519F41E92119606C02223C1F70D90F3
:1034E0000020A1F7D001FA01A193B0830895592FCC
:1034F000482F372F262F660F771F881F991F660FBB
:10350000771F881F991F620F731F841F951F660FF7
:10351000771F881F991F08957AE0979F902D879FA6
:10352000802D910D11240895F999FECF92BD81BD92
:10353000F89A992780B50895262FF999FECF1FBADA
:1035400092BD81BD20BD0FB6F894FA9AF99A0FBECC
:10355000019608958F929F92AF92BF92CF92DF9281
:10356000EF92FF920F931F93CF93DF938B0161151F
:10357000710521F0DB018C9311969C93EC015E01A7
:10358000BFEFAB1ABB0A7501C8808C2D90E072DFCB
:10359000892B11F0E501F3CFEDE2CE1208C07E01D8
:1035A000F2E0EF0EF11CC980DD24D39409C02BE2B8
:1035B000C21205C07E0142E0E40EF11CC980D12C8C
:1035C000E701219743E050E06AE672E0CE012DD199
:1035D000892BB9F4239645E050E065E672E0CE0110
:1035E00024D1892B09F425960115110519F0D8016C
:1035F000CD93DC93D11000C160E070E080E89FE7DC
:1036000004C143E050E062E672E0CE010ED1892BA6
:1036100059F40115110509F4F4C0B2E0EB0EF11CE8
:10362000F801F182E082EDC0F70160E070E0CB01CB
:10363000C0E0D0E07F01A0EDAA2EAC0C29E02A1555
:1036400028F14D2D4260B42E2D2D2870D2FE04C0DD
:10365000211124C0219622C021112197A5E0B0E0BC
:103660009B01AC01B3DE660F771F881F991F6A0D9F
:10367000711D811D911D6839A9E97A078A07A9E1A1
:103680009A0760F0BD2DB660BB2E08C02EEFA212C7
:103690000AC0D3FC50C04D2D4860B42E3196D701DE
:1036A000CC90DB2CC7CF2C2D2F7D253409F043C0C7
:1036B000A081AD3241F4BD2DB061DB2E7F0122E04F
:1036C000E20EF11C0CC07F01AB3231F04FEFE41A77
:1036D000F40A21E030E006C0A2E0EA0EF11CA1816C
:1036E00022E030E0A053AA3018F0E21AF30A23C017
:1036F000F70120E030E02038BCE03B075CF4A90192
:10370000440F551F440F551F240F351F220F331F21
:103710002A0F311DAF014F5F5F4F7A01A081A05387
:10372000AA3010F4FA01E7CFD4FE03C031952195F9
:103730003109C20FD31FD1FE09C00115110531F0A7
:10374000E1E0EE1AF108D801ED92FC925DDC2D2D3E
:103750002370233019F04B015C0106C04B015C0162
:10376000B7FAB094B7F8B09420E030E0A901C501F1
:10377000B401ADDB882309F43CC0D7FF06C0D19566
:10378000C195D10901E812E002C009E912E068011F
:10379000B8E1CB1AD10890E2E92EF12CCE15DF0565
:1037A0006CF0F8012591359145915491C501B40112
:1037B000EFDC4B015C01CE19DF09F0CF0450110999
:1037C000F594E7940C151D0549F78A2D880F8B2D6C
:1037D000881F8F3F41F020E030E0A901C501B4010E
:1037E00076DB811106C082E290E09093D40780934B
:1037F000D307C501B40109C060E070E080E89FEF25
:1038000004C060E070E080EC9FE7DF91CF911F91F2
:103810000F91FF90EF90DF90CF90BF90AF909F906F
:103820008F900895992788270895FB01DC01415066
:10383000504088F08D9181341CF08B350CF4805E03
:10384000659161341CF06B350CF4605E861B611170
:1038500071F3990B0895881BFCCF12E0C8EAD2E0FF
:1038600000E005C022970109FE010BBFB9DDCA3A8D
:0C387000D10780E00807B1F7F894FFCF03
:10387C000000D507800001000000E803C80000002C
:10388C000B0A03090C0D0802000038393C373D3691
:10389C000607050400000000000000004D31302038
:1038AC00585920004100204200204800205300209D
:1038BC0055002044004D31312000504F532058000A
:1038CC002059004F4B005859340073657420746FA5
:1038DC002064656661756C74207365747570000086
:1038EC000000009E0D720D470D4F0D620D710D0005
:1038FC000000009912B314EF110812FA1178120D8E
:10390C000A006E616E00696E66006F7666002E00AE
:00000001FF
