:100000000C948F000C94B7000C94B7000C94420B26
:100010000C94420B0C94420B0C94B7000C945F08A8
:100020000C94B7000C94B7000C94B7000C944E09D4
:100030000C94B7000C94B7000C94B7000C94B70064
:100040000C94AD0D0C94B7000C94F9100C942B117A
:100050000C94B7000C94B7000C94B7000C94B70044
:100060000C94800C0C94B70029062E063306380633
:100070003D064A064A064A064A0642064606000069
:100080000008000201000003040700000000000057
:100090000000010204081020408001020408102022
:1000A00001020408102004040404040404040202ED
:1000B0000202020203030303030300000000230003
:1000C0002600290000000000250028002B00000069
:1000D0000000240027002A004E414E494E49545941
:1000E000494E46CDCCCC3D0AD7233C17B7D1387703
:1000F000CC2B329595E6241FB14F0A000020410019
:1001000000C84200401C4620BCBE4CCA1B0E5AAE62
:10011000C59D740081072D08530C5B113108112413
:100120001FBECFEFD8E0DEBFCDBF11E0A0E0B1E051
:10013000E6E0F3E302C005900D92A03AB107D9F7CB
:1001400025E0A0EAB1E001C01D92A93CB207E1F7A9
:1001500011E0CCE1D1E004C02297FE010E94EA1632
:10016000C431D107C9F70E9405140C9476190C9478
:1001700000001816190614F460E001C061E088E080
:1001800092E00E94240961E088E092E00E94340934
:1001900060E088E092E00C9434091816190614F413
:1001A00060E001C061E084E092E00E94240961E027
:1001B00084E092E00E94340960E084E092E00C94D4
:1001C00034092F923F924F925F926F927F928F925B
:1001D0009F92AF92BF92CF92DF92EF92FF920F93D6
:1001E0001F93CF93DF93CDB7DEB762970FB6F89426
:1001F000DEBF0FBECDBF80910A0190910B012C0193
:10020000662457FC6094762C2090160230901702DA
:100210008091120290911302281A390A0091140257
:10022000109115028091100290911102081B190B78
:10023000680117FF04C0CC24DD24C01AD10A910143
:1002400037FE04C0222733272219330979012C15E0
:100250003D050CF47601B701882777FD8095982F2E
:10026000298B3A8B0E9419154B015C0129893A8927
:10027000B901882777FD8095982F0E941915A5014F
:1002800094010E947E146D837E838F839887B601CC
:10029000882777FD8095982F0E941915A501940154
:1002A0000E947E1469877A878B879C87FA82E9820D
:1002B000812C912C5401750164012FEF3FEF3C8399
:1002C0002B83E0911202F0911302FE87ED8780915B
:1002D000160290911702E817F90709F4EBC02D8177
:1002E0003E814F815885C701B6010E9416146B01EB
:1002F0007C0120E030E040E85FE30E94D71587FDF5
:1003000027C0121413041CF480910F0202C08091C4
:100310000E02992787FD9095121413041CF421E016
:1003200030E002C02FEF3FEF4D855E85240F351F73
:1003300030931302209312020E94B90020E030E0B3
:1003400040E85FE3C701B6010E9415146B017C0110
:1003500080911002909111029E878D8780911402E6
:1003600090911502ED85FE85E817F907C9F12985F9
:100370003A854B855C85C501B4010E9416144B017A
:100380005C0120E030E040E85FE30E94D71587FD84
:1003900027C0101611061CF480910D0202C0809136
:1003A0000C02992787FD9095101611061CF421E088
:1003B00030E002C02FEF3FEF4D855E85240F351FE3
:1003C00030931102209310020E94CD0020E030E013
:1003D00040E85FE3C501B4010E9415144B015C01C4
:1003E000EB81FC81CF01AA2797FDA095BA2F840D40
:1003F000951DA61DB71D20910C0130910D01A9017D
:10040000662757FD6095762F84179507A607B707CF
:100410006CF040910A0150910B01662757FD6095E1
:10042000762F481759076A077B0714F4DB01CA01C6
:100430004090E1015090E2016090E3017090E4018E
:10044000480E591E6A1E7B1EF1E14F16F7E25F0649
:10045000610471049CF0C301B20128EE33E040E076
:1004600050E00E94C9166D877E878F87988BCA01DE
:10047000B9010E94260E8D859E8501C0C2010E9491
:100480004E0E80910A0190910B0120910C01309148
:100490000D01821B930B29813A812817390724F417
:1004A00041E050E05C834B8389819A8101979A8374
:1004B000898307CF20911402309115028091100298
:1004C000909111028217930709F042CF62960FB6FE
:1004D000F894DEBF0FBECDBFDF91CF911F910F917A
:1004E000FF90EF90DF90CF90BF90AF909F908F9054
:1004F0007F906F905F904F903F902F9008954F9214
:100500005F926F927F928F929F92AF92BF92CF92A3
:10051000DF92EF92FF92CF93DF9300D000D0CDB760
:10052000DEB7C0902002D0902102E0902202F0902D
:100530002302209128023091290240912A025091F1
:100540002B02C701B6010E9415142B013C018091BA
:100550001C0290911D02A0911E02B0911F0289837E
:100560009A83AB83BC832091240230912502409171
:10057000260250912702BC01CD010E9415144B01A7
:100580005C01A3019201C301B2010E94DB152B01A2
:100590003C01A5019401C501B4010E94DB159B013A
:1005A000AC01C301B2010E9416140E9442162FE64C
:1005B00032E143E85AE30E947A1487FD40C026EFF7
:1005C00038E24FEA52E4C701B6010E94DB150E94EF
:1005D000E614709317026093160226EF38E24FEA92
:1005E00052E469817A818B819C810E94DB150E9493
:1005F000E61470931502609314020E94E10080914A
:10060000200290912102A0912202B09123028093B6
:10061000280290932902A0932A02B0932B02809182
:100620001C0290911D02A0911E02B0911F028093A6
:10063000240290932502A0932602B09327020F90E4
:100640000F900F900F90DF91CF91FF90EF90DF9080
:10065000CF90BF90AF909F908F907F906F905F9062
:100660004F9008958091F4010E948B0F019731F40F
:100670008091F6010E948B0F019769F08091FC0137
:100680000E948B0F0197A9F48091FE010E948B0FAD
:10069000019779F427C080910C02992787FD9095E6
:1006A0000E94CD0080910C0190910D010E944E0E90
:1006B000D9CF1092130210921202109211021092CE
:1006C0001002109228021092290210922A0210920F
:1006D0002B021092240210922502109226021092F0
:1006E0002702089580910E02992787FD90950E9418
:1006F000B90080910C0190910D010E944E0EBECF69
:10070000109228021092290210922A0210922B02B3
:1007100010922402109225021092260210922702B3
:1007200010921302109212021092110210921002F3
:1007300008950F931F93CF93DF9300D0CDB7DEB70B
:10074000AE014F5F5F4F68E471E00E9467178C0154
:100750008091280290912902A0912A02B0912B0247
:100760008093200290932102A0932202B09323024F
:100770008091240290912502A0912602B091270237
:1007800080931C0290931D02A0931E02B0931F023F
:10079000012B09F45EC0AE014F5F5F4F68E471E06A
:1007A00080E090E00E9467178C01FC018081883511
:1007B00069F4C80101960E940817609320027093A3
:1007C00021028093220290932302E2CF893569F4BB
:1007D000C80101960E94081760931C0270931D02C5
:1007E00080931E0290931F02D3CF8A3569F4C8010B
:1007F00001960E9408176093180270931902809363
:100800001A0290931B02C4CF863499F4C801019652
:100810000E94081720E030E040E752E40E947E1476
:1008200060932C0270932D0280932E0290932F02DE
:10083000AFCF813409F0ACCFC80101960E942A17CE
:100840006093E1017093E2018093E3019093E401EE
:100850009FCF0E947F020F900F90DF91CF911F9149
:100860000F9108956CE271E08AE295E00E94DC113C
:1008700060913D0270913E024AE050E08AE295E0CC
:100880000E949E1260E28AE295E00E94DE11609171
:100890003B0270913C024AE050E08AE295E00E94FF
:1008A0009E1260E28AE295E00E94DE1140912802E9
:1008B0005091290260912A0270912B0222E030E0CF
:1008C0008AE295E00E94A91360E28AE295E00E9424
:1008D000DE11409124025091250260912602709110
:1008E000270222E030E08AE295E00E94A91360E24C
:1008F0008AE295E00E94DE1164E371E08AE295E00D
:100900000E94DC116091380270E04AE050E08AE217
:1009100095E00E949E1266E371E08AE295E00E94F3
:10092000DC116091390270E04AE050E08AE295E023
:100930000E949E1269E371E08AE295E00E94DC1158
:1009400060913A0270E04AE050E08AE295E00E944D
:100950009E126CE371E08AE295E00E94DC116091E6
:100960003F02709140024AE050E08AE295E00E9426
:100970009E126FE371E08AE295E00E94DC116091C3
:100980004102709142024AE050E08AE295E00E9402
:100990009E1262E471E08AE295E00E94DC116091AF
:1009A0004302709144024AE050E08AE295E00C94E0
:1009B000A61265E471E08AE295E00E94DC11809164
:1009C000F6010E948B0F4AE050E0BC018AE295E0FC
:1009D0000E949E1268E471E08AE295E00E94DC11B8
:1009E0008091F4010E948B0F4AE050E0BC018AE242
:1009F00095E00E949E1268E471E08AE295E00E9410
:100A0000DC118091FE010E948B0F4AE050E0BC0196
:100A10008AE295E00E949E1268E471E08AE295E025
:100A20000E94DC118091FC010E948B0F4AE050E093
:100A3000BC018AE295E00C94A6120F931F93CF930A
:100A4000DF9300E312E0C0E0D0E0F80161918F0194
:100A5000CE010E94B3172196C034D105B1F7DF91C2
:100A6000CF911F910F9108950F931F93CF93DF9311
:100A700000D0CDB7DEB7AE014F5F5F4F68E471E0E5
:100A80000E9467178C01012B09F43FC0AE014F5F34
:100A90005F4F68E471E080E090E00E9467178C018E
:100AA000FC018081813439F4C80101960E940C1741
:100AB00080933802E8CF823439F4C80101960E944D
:100AC0000C1780933902DFCF883449F4C8010196AE
:100AD0000E940C1790933C0280933B02D4CF873541
:100AE00049F4C80101960E940C1790933E0280932E
:100AF0003D02C9CF833539F6C80101960E940C1713
:100B00009093400280933F02BECF0E941D050F903C
:100B10000F90DF91CF911F910F910895CF93DF93A5
:100B200000D0CDB7DEB7AE014F5F5F4F68E471E034
:100B30000E94671789819A810E942A176093E101B8
:100B40007093E2018093E3019093E4010F900F9082
:100B5000DF91CF910895CF93DF9300D0CDB7DEB76B
:100B6000AE014F5F5F4F68E471E00E9467178981B3
:100B70009A810E940C17BC018EEE91E00E9404083D
:100B80000F900F90DF91CF910895CF93DF9300D016
:100B9000CDB7DEB7AE014F5F5F4F68E471E00E94F2
:100BA000671789819A810E940C17BC0185EE91E03C
:100BB0000E94DD0A0F900F90DF91CF9108950F935F
:100BC0001F93CF93DF9300D0CDB7DEB7AE014F5F59
:100BD0005F4F68E471E00E9467178C01012B11F1EF
:100BE000AE014F5F5F4F68E471E080E090E00E94EB
:100BF00067178C01FC018081853549F4C801019695
:100C00000E940C179093420280934102E7CF8434F4
:100C100029F7C80101960E940C1790934402809313
:100C20004302DCCF0E941D050F900F90DF91CF9102
:100C30001F910F910895CF93DF93EC010E940C1741
:100C400001978B30910530F58C5C9F4FFC010C9423
:100C5000E816CE01DF91CF910C94C505CE01DF914E
:100C6000CF910C94DF05CE01DF91CF910C948E05CE
:100C7000CE01DF91CF910C94AB05CE01DF91CF91E6
:100C80000C943405DF91CF910C943204DF91CF9115
:100C90000C94D904DF91CF910895CF93DF93EC01A9
:100CA0000E940C1797FD1EC082309105B4F04C973E
:100CB000C9F4109220021092210210922202109286
:100CC000230210921C0210921D0210921E0210921A
:100CD0001F02DF91CF910C943203CE01DF91CF91AF
:100CE0000C949903DF91CF910895FC012081273462
:100CF00021F401960E944D0630C02D3421F4019656
:100D00000E941B062AC0203541F56AE471E08AE2A0
:100D100095E00E94DC1140912802509129026091D7
:100D20002A0270912B0222E030E08AE295E00E94D4
:100D3000A91360E571E08AE295E00E94DC11409120
:100D4000240250912502609126027091270222E030
:100D500030E08AE295E00E94AB1363E571E08AE23D
:100D600095E00C94E9110F931F93CF93DF9300E369
:100D700012E0C0E0D0E0CE010E94AB17D8018D9305
:100D80008D012196C034D105B1F743E050E066E50E
:100D900071E080E392E00E945917892BB1F16AE576
:100DA00071E08AE295E00E94E91180E4E0E3F2E07C
:100DB000DF011D928A95E9F788E599E5A4E3809320
:100DC000300290933102A09332028CE791E090932D
:100DD0003E0280933D0286E391E090933C02809333
:100DE0003B0280E590E09093400280933F0280EACE
:100DF00090E090934202809341028AE590E09093C4
:100E00004402809343020E941D05809138028111A3
:100E100005C08FEF80930F0281E004C081E08093D2
:100E20000F028FEF80930E0280913902811105C06D
:100E30008FEF80930D0281E004C081E080930D026A
:100E40008FEF80930C0284E690E020913F02309176
:100E50004002821B930B4AE0489F9001499F300D4E
:100E6000112430930D0120930C0144E6489F90011A
:100E7000499F300D112430930B0120930A01DF911B
:100E8000CF911F910F91089562E08091FE010E9421
:100E90001C0F62E08091FC010E941C0F62E08091B7
:100EA000F6010E941C0F62E08091F4010E941C0F69
:100EB00026E040E052EC61E070E08AE295E00E94BA
:100EC00097100E94B3060E9480036091E801709120
:100ED000E90185EE91E00E94A40A64E670E080E0FA
:100EE00090E00E94260E609141027091420285EED0
:100EF00091E00E94DD0A60E070E08EEE91E00C94DB
:100F0000040861E088E092E00E94140962E084E055
:100F100092E00E94140963E080E092E00E941409CC
:100F200080E092E00E94480990E09093FF01809356
:100F3000FE0180E092E00E944B0990E09093FD0159
:100F40008093FC0166E088EF91E00E94140988EF2D
:100F500091E00E94480990E09093F7018093F60198
:100F600088EF91E00E944B0990E09093F501809307
:100F7000F4016AE08EEE91E00E94020867E08AEEDA
:100F800091E00E9414098AEE91E00E944B0990E0E2
:100F90009093E9018093E80185EE91E00C940A0AB0
:100FA0008AE295E00E94B40F892B59F18AE295E01C
:100FB0000E94CD0FA091A001E1E0EA0FE093A00113
:100FC000BB27A7FDB095AF55BE4F8C938A3099F4DF
:100FD000FF27E7FDF095EF55FE4F108281EA91E083
:100FE0000E94750680E4E1EAF1E0DF011D928A9536
:100FF000E9F71092A0018091A001803414F01092C2
:10100000A00108950C9414090F931F93CF93DF93BD
:101010008C016F3F710519F014F06FEF70E0EB0178
:1010200061308FEF780714F4C1E0DFEFD7FD06C021
:1010300061E0C8010E943409BE0108C060E0C80137
:101040000E943409662777276C1B7D0BC801DF914E
:10105000CF911F910F910C94440980E792E00C947A
:10106000350880E792E00C945E0821E030E0FC0156
:1010700031832083EE5FFE4F108211821282138231
:101080003496108211821282138234961082319625
:10109000108231961082118212821382349611824C
:1010A000108232961082319610821182128213823F
:1010B00034961082118212821382089508951F922D
:1010C0000F920FB60F9211240F931F932F933F93FC
:1010D0004F935F936F937F938F939F93AF93BF9340
:1010E000CF93EF93FF9382E00E948B0FC82F209144
:1010F0009103309192032F5F3F4F309392032093DF
:1011000091038091F703843618F085E080938C0377
:1011100090918C03933079F018F4923039F070C0CC
:10112000943011F1953009F44AC06AC0C11168C009
:101130001092F70329C0C13009F062C0E091F703B3
:1011400081E08E0F8093F703F0E0809191039091FE
:101150009203E557FC4F80871092920310929103FF
:1011600084E080938C034CC0C11114C0E091F7035C
:1011700081E08E0F8093F703F0E0809191039091CE
:101180009203E557FC4F80871092920310929103CF
:1011900083E0E7CF8091910390919203853691058A
:1011A00078F185E080938C030E94F70D60938D03A6
:1011B00070938E0380938F039093900321C00E94BD
:1011C000F70D00918D0310918E0320918F033091C4
:1011D0009003601B710B820B930B693C71058105B9
:1011E000910540F01092F703109292031092910330
:1011F00082E0B7CFC11104C0109292031092910304
:10120000FF91EF91CF91BF91AF919F918F917F917E
:101210006F915F914F913F912F911F910F910F907F
:101220000FBE0F901F901895DC01E62FF0E0EE0F37
:10123000FF1FE25FFE4F80818C93818111968C931A
:10124000119712966C9308951F93CF93DF93EC013F
:10125000162F61E088810E941C0F612F8881DF9129
:10126000CF911F910C94550F1F93CF93DF93EC01F7
:10127000162F61E089810E941C0F612F8981DF9107
:10128000CF911F910C94550FFC0180810C94940E0A
:10129000FC0180810895FC01818108951F920F92C5
:1012A0000FB60F9211242F933F934F935F936F9339
:1012B0007F938F939F93AF93BF93EF93FF9380910F
:1012C000F90387FF05C010928500109284001AC0B0
:1012D0002091F903332727FD30958091F80390E0A2
:1012E000281739077CF48091F903992787FD909599
:1012F000FC01EE0FFF1FE80FF91FE650FC4F808145
:1013000087FD15C08091F9038F5F8093F9032091C9
:10131000F903332727FD30958091F80390E02817D3
:101320003907BCF48091F9038C305CF112C08091D4
:10133000F903992787FD9095FC01EE0FFF1FE80F39
:10134000F91FE650FC4F808160E08F770E94550FB7
:10135000D9CF8091840090918500049680349C4977
:1013600018F480E49CE905C0809184009091850088
:10137000049690938900809388008FEF8093F903FF
:1013800038C020918400309185008091F90399271D
:1013900087FD9095FC01EE0FFF1FE80FF91FE65047
:1013A000FC4F81819281820F931F909389008093DB
:1013B00088008091F903992787FD9095FC01EE0F35
:1013C000FF1FE80FF91FE650FC4F808187FF11C017
:1013D0008091F903992787FD9095FC01EE0FFF1F7F
:1013E000E80FF91FE650FC4F808161E08F770E9483
:1013F000550FFF91EF91BF91AF919F918F917F9189
:101400006F915F914F913F912F910F900FBE0F9071
:101410001F9018952091F8032C30A0F431E0320F82
:101420003093F803FC012083822F90E0FC01EE0F43
:10143000FF1FE80FF91FE650FC4F88EB9BE09283FB
:10144000818308952FEFFC0120830895DF92EF92AE
:10145000FF920F931F93CF93DF93EC01D62E7A0167
:10146000890188818C3008F066C061E08D2D0E9472
:101470001C0F8881A82FB0E0FD01EE0FFF1FEA0FBF
:10148000FB1FE650FC4F2D2D2F7790819078922BEB
:10149000908360E272E06E197F0977FF02C06D5F92
:1014A0007F4F7595679575956795698340E659E017
:1014B000401B510B57FF02C04D5F5F4F559547953D
:1014C000559547954A836CE00E949B169CE0899F46
:1014D000B001112420E030E0A901460F571FFA01A6
:1014E000EE0FFF1FE40FF51FE650FC4F908197FDB4
:1014F00016C02F5F3F4F2C30310571F781110FC09F
:101500001092800082E080938100109285001092FA
:101510008400B19A80916F00826080936F0088810F
:1015200090E0FC01EE0FFF1FE80FF91FE650FC4FA3
:101530008081806880838881DF91CF911F910F9196
:10154000FF90EF90DF90089520E639E040E252E00E
:101550000C94260AFC0180818C3070F5918128E87A
:1015600030E0291B310997FD3395220F331F220FDD
:10157000331F621773077CF0928128E532E0291B44
:10158000310997FD3395220F331F220F331F621746
:1015900073070CF49B0122503109220F331F4FB700
:1015A000F89490E0FC01EE0FFF1FE80FF91FE650E2
:1015B000FC4F328321834FBF08954F925F926F9209
:1015C0007F92AF92BF92CF92DF92EF92FF920F93F2
:1015D0001F93CF93DF93EC01603282E078070CF029
:1015E00040C077FD06C0653B71052CF064EB70E0F0
:1015F00002C060E070E0898128E830E0281B3109F2
:1016000087FD3395220F331F220F331F5901CC243E
:10161000B7FCC094DC2C882777FD8095982F2A8111
:1016200048E552E0421B510927FD5395440F551FD1
:10163000440F551F2A01662457FC6094762C7F9234
:101640006F925F924F9214EBE12EF12C00E010E0CC
:1016500020E030E0A9010E94BD130F900F900F9081
:101660000F90CE01DF91CF911F910F91FF90EF90DE
:10167000DF90CF90BF90AF907F906F905F904F9032
:101680000C94AA0A1F920F920FB60F9211242F9357
:101690003F934F935F936F937F938F939F93AF93FA
:1016A000BF93EF93FF93E0916004F0916104309752
:1016B00009F451C0868DA685B785958581FF04C044
:1016C0008C91892329F447C08C91892309F043C068
:1016D000A389B4899C918589809589238C93868977
:1016E00097890197F1F7208D318DA685B78575858E
:1016F00058E040E0C9010197F1F7842F90E09595FB
:101700008795482F6C91672309F04068515091F7F5
:10171000868D81FD409580911F0490E001968F7326
:10172000992720911E04281749F0A0911F04B0E0CA
:10173000A05EBB4F4C9380931F0403C0868D8160D5
:10174000868F828D938D0197F1F7A389B4898C914F
:101750009589892B8C93FF91EF91BF91AF919F91C8
:101760008F917F916F915F914F913F912F910F904A
:101770000FBE0F901F9018958091910490E02091DA
:101780009204821B91090895209192048091910402
:10179000281750F4E22FF0E0ED56FB4F808190E0E7
:1017A0002F5F2093920408958FEF9FEF0895E091AB
:1017B000920480919104E81730F4F0E0ED56FB4F6D
:1017C000808190E008958FEF9FEF08950895CF9264
:1017D000DF92EF92FF920F931F93CF93DF937C01E1
:1017E000CB018A0120916E04222389F0EB016B0169
:1017F000C40ED51ECC15DD0569F06991D701ED91B8
:10180000FC910190F081E02DC7010995F3CF642F81
:101810000E94570CC801DF91CF911F910F91FF904B
:10182000EF90DF90CF900895CF93DF931F92CDB7C5
:10183000DEB7698320916E042223D1F020916F04DA
:10184000203240F021E030E0FC013383228380E04D
:1018500090E015C080917004E82FF0E0EF58FB4F46
:10186000998190838F5F8093700480936F0405C08B
:1018700061E0CE0101960E94570C81E090E00F904C
:10188000DF91CF910895FC011382128248EE53E05C
:1018900060E070E0448355836683778383E791E05B
:1018A00091838083089582E694E00C94430C613226
:1018B00098F420912005243089F46093D504FC012C
:1018C00087ED94E0DC012A2F281B261718F42191BC
:1018D0002D93F9CF80E0089581E0089582E0089586
:1018E00085ED8093BC008091BC0084FDFCCF1092FC
:1018F0002005089585EC8093BC0010922005089582
:101900001F920F920FB60F9211242F933F934F9374
:101910005F936F937F938F939F93AF93BF93EF9357
:10192000FF938091B900887F803609F49EC078F5D6
:10193000883209F45DC090F4803109F456C038F45F
:10194000882309F4F5C0883009F44FC0F5C0883108
:1019500009F44EC0803209F45FC0EEC0803409F44F
:101960006AC058F4803309F457C0883309F0E4C0E2
:101970008093B3040E947A0CDFC0803509F44FC015
:10198000883509F45DC0883409F0D6C0D3C08839E1
:1019900009F4C4C0A8F4883709F467C038F488365D
:1019A00009F463C0803709F460C0C6C0883809F400
:1019B000B5C0803909F45FC0803809F0BDC05BC094
:1019C000803B09F483C038F4803A09F466C0883A51
:1019D00009F47CC0B1C0803C09F4A4C0883C09F47F
:1019E000A1C0883B09F487C0A7C080911F0510C023
:1019F0009091F8048091F704981770F5E091F8043D
:101A000081E08E0F8093F804F0E0E750FB4F808177
:101A10008093BB0085EC83C08093B3048BC0E091BE
:101A2000F80481E08E0F8093F8048091BB00F0E011
:101A3000E750FB4F80839091F8048091F7046BC0CE
:101A4000E091F80481E08E0F8093F8048091BB0050
:101A5000F0E0E750FB4F808380911E0581116AC042
:101A600081E080931D0584EA5EC083E080932005B9
:101A70001092B404CFCF8091B404803208F04EC0ED
:101A8000E091B40481E08E0F8093B4048091BB0098
:101A9000F0E0EB54FB4F8083BDCF0E947A0C809125
:101AA000B404803230F4E091B404F0E0EB54FB4F26
:101AB00010826091B40470E0E0911905F0911A056C
:101AC00085EB94E009951092B40436C084E08093CD
:101AD00020051092D6041092D504E0911B05F091D8
:101AE0001C0509958091D504811105C081E0809382
:101AF000D5041092D704E091D60481E08E0F809334
:101B0000D604F0E0E952FB4F80818093BB009091B6
:101B1000D6048091D504981708F47CCF85E880938B
:101B2000BC000AC085EC8093BC001092200504C064
:101B30001092B3040E94700CFF91EF91BF91AF918E
:101B40009F918F917F916F915F914F913F912F91D5
:101B50000F900FBE0F901F9018951F920F920FB607
:101B60000F9211242F933F938F939F93AF93BF9323
:101B70008091220590912305A0912405B09125051F
:101B80003091210523E0230F2D3720F40196A11D6C
:101B9000B11D05C026E8230F0296A11DB11D20939B
:101BA00021058093220590932305A0932405B093EB
:101BB00025058091260590912705A0912805B091D3
:101BC00029050196A11DB11D809326059093270537
:101BD000A0932805B0932905BF91AF919F918F9154
:101BE0003F912F910F900FBE0F901F9018952FB718
:101BF000F8946091220570912305809124059091BD
:101C000025052FBF08953FB7F89480912605909140
:101C10002705A0912805B091290526B5A89B05C0E8
:101C20002F3F19F00196A11DB11D3FBF6627782FE8
:101C3000892F9A2F620F711D811D911D42E0660F41
:101C4000771F881F991F4A95D1F70895CF92DF9289
:101C5000EF92FF92CF93DF936B017C010E94030E02
:101C6000EB01C114D104E104F10489F00E941414C1
:101C70000E94030E6C1B7D0B683E734090F381E065
:101C8000C81AD108E108F108C851DC4FEACFDF914A
:101C9000CF91FF90EF90DF90CF9008958230910523
:101CA00038F0880F991F880F991F05970197F1F752
:101CB0000895789484B5826084BD84B5816084BDC4
:101CC00085B5826085BD85B5816085BDEEE6F0E0B5
:101CD000808181608083E1E8F0E010828081826011
:101CE0008083808181608083E0E8F0E08081816092
:101CF0008083E1EBF0E0808184608083E0EBF0E0C2
:101D0000808181608083EAE7F0E080818460808365
:101D1000808182608083808181608083808180680F
:101D200080831092C10008951F93CF93DF93182FE3
:101D3000EB0161E00E941C0F209711F460E004C0E9
:101D4000CF3FD10539F461E0812FDF91CF911F9111
:101D50000C94550FE12FF0E0E258FF4FE491E3308F
:101D6000F9F048F4E130B9F0E230A1F584B58062D1
:101D700084BDC8BD34C0E730E9F0E83019F1E43083
:101D800049F580918000806280938000D0938B0021
:101D9000C0938A0024C084B5806884BDC7BD1FC0BD
:101DA00080918000806880938000D0938900C093E8
:101DB000880015C08091B00080688093B000C09307
:101DC000B3000DC08091B00080628093B000C093DA
:101DD000B40005C0C038D1050CF0B5CFAFCFDF914E
:101DE000CF911F910895833081F028F4813099F0CC
:101DF0008230A1F008958730A9F08830B9F084309E
:101E0000D1F4809180008F7D03C0809180008F7716
:101E100080938000089584B58F7702C084B58F7D4C
:101E200084BD08958091B0008F7703C08091B00089
:101E30008F7D8093B0000895CF93DF9390E0FC01F5
:101E4000EE56FF4F2491FC01EA55FF4F8491882301
:101E500049F190E0880F991FFC01E253FF4FA591D3
:101E6000B4918C539F4FFC01C591D4919FB76111E0
:101E700008C0F8948C91209582238C9388818223CA
:101E80000AC0623051F4F8948C91322F309583233C
:101E90008C938881822B888304C0F8948C91822B48
:101EA0008C939FBFDF91CF9108950F931F93CF9392
:101EB000DF931F92CDB7DEB7282F30E0F901E2584B
:101EC000FF4F8491F901EE56FF4F1491F901EA5545
:101ED000FF4F04910023C9F0882321F069830E94F9
:101EE000F30E6981E02FF0E0EE0FFF1FEC53FF4F80
:101EF000A591B4919FB7F8948C91611103C010958E
:101F0000812301C0812B8C939FBF0F90DF91CF91D4
:101F10001F910F910895CF93DF93282F30E0F9019F
:101F2000E258FF4F8491F901EE56FF4FD491F90129
:101F3000EA55FF4FC491CC2391F081110E94F30E1A
:101F4000EC2FF0E0EE0FFF1FE654FF4FA591B49188
:101F50002C912D2381E090E021F480E002C080E00C
:101F600090E0DF91CF910895FC01818D228D90E06A
:101F7000805C9F4F821B91098F7399270895FC0104
:101F8000918D828D981731F0828DE80FF11D858D2E
:101F900090E008958FEF9FEF0895FC01918D828D61
:101FA000981761F0828DDF01A80FB11D5D968C91AD
:101FB000928D9F5F9F73928F90E008958FEF9FEFB8
:101FC000089581E591E1892B49F080E090E0892B2B
:101FD00029F00E94511181110C9400000895FC0118
:101FE000848DDF01A80FB11DA35ABF4F2C91848DA2
:101FF00090E001968F739927848FA689B7892C93D7
:10200000A089B1898C9180648C93938D848D981371
:1020100006C00288F389E02D80818F7D808308953A
:10202000CF93DF93EC01888D8823C9F0EA89FB897F
:10203000808185FD05C0A889B9898C9186FD0FC076
:102040000FB607FCF5CF808185FFF2CFA889B9894B
:102050008C9185FFEDCFCE010E94EF0FE7CFDF918E
:10206000CF910895CF92DF92FF920F931F93CF935A
:10207000DF931F92CDB7DEB76C0181E0D601589691
:102080008C9358975B969C915B975C968C915C9730
:10209000981307C05096ED91FC915197808185FD72
:1020A0002EC0F601038D10E00F5F1F4F0F73112735
:1020B000F02EF601848DF81211C00FB607FCF9CF8F
:1020C000D6015096ED91FC915197808185FFF1CF1B
:1020D000C60169830E94EF0F6981EBCF838DE80F02
:1020E000F11DE35AFF4F6083D6015B960C935B971B
:1020F0005296ED91FC915397808180620CC0D6017D
:102100005696ED91FC91579760835096ED91FC9116
:10211000519780818064808381E090E00F90DF910F
:10212000CF911F910F91FF90DF90CF900895BF92B4
:10213000CF92DF92EF92FF92CF93DF93EC016A018F
:102140007B01B22EE889F98982E08083411581EE16
:10215000580761057105A1F060E079E08DE390E03A
:10216000A70196010E94A716215031094109510982
:102170005695479537952795211580E1380798F0B2
:10218000E889F989108260E874E88EE190E0A7019F
:1021900096010E94A716215031094109510956950F
:1021A000479537952795EC85FD853083EE85FF852E
:1021B0002083188EEC89FD89B082EA89FB898081B1
:1021C00080618083EA89FB89808188608083EA89D5
:1021D000FB89808180688083EA89FB8980818F7D8B
:1021E0008083DF91CF91FF90EF90DF90CF90BF90F1
:1021F00008951F920F920FB60F9211242F938F9371
:102200009F93EF93FF93E0913A05F0913B05808116
:10221000E0914005F091410582FD12C090818091CE
:1022200043058F5F8F7320914405821751F0E09131
:102230004305F0E0E65DFA4F958F8093430501C0BA
:102240008081FF91EF919F918F912F910F900FBE01
:102250000F901F9018951F920F920FB60F92112496
:102260002F933F934F935F936F937F938F939F939E
:10227000AF93BF93EF93FF938AE295E00E94EF0F35
:10228000FF91EF91BF91AF919F918F917F916F914E
:102290005F914F913F912F910F900FBE0F901F9024
:1022A00018958AE295E00E94B40F21E0892B09F489
:1022B00020E0822F089510922D0510922C0588EEB3
:1022C00093E0A0E0B0E080932E0590932F05A093BB
:1022D0003005B093310583E891E090932B0580930E
:1022E0002A0585EC90E0909337058093360584ECC1
:1022F00090E0909339058093380580EC90E09093BE
:102300003B0580933A0581EC90E090933D058093E6
:102310003C0582EC90E090933F0580933E0586EC6F
:1023200090E09093410580934005109243051092F0
:10233000440510924505109246050895CF92DF920C
:10234000EF92FF920F931F93CF93DF937C016A016B
:10235000EB0100E010E00C151D0571F06991D7014B
:10236000ED91FC910190F081E02DC7010995892B39
:1023700019F00F5F1F4FEFCFC801DF91CF911F9171
:102380000F91FF90EF90DF90CF9008956115710548
:1023900081F0DB010D900020E9F7AD0141505109BA
:1023A000461B570BDC01ED91FC910280F381E02D7F
:1023B000099480E090E008950C94C611DC01ED9141
:1023C000FC910190F081E02D09946FE871E00C948C
:1023D000C6110F931F93CF93DF93EC010E94C61198
:1023E0008C01CE010E94E511800F911FDF91CF91EA
:1023F0001F910F9108958F929F92AF92BF92CF92AB
:10240000DF92EF92FF920F931F93CF93DF93CDB79D
:10241000DEB7A1970FB6F894DEBF0FBECDBF7C012B
:10242000C42EE52FCB01D22E19A221E02D1510F0DC
:102430002AE0D22E8E010F5D1F4F8D2C912CA12CE6
:10244000B12C6C2D7E2FA50194010E94A7168C2D16
:10245000D29E80191124015011098A3014F4805D34
:1024600001C0895CF80180832115310541055105C2
:1024700021F0C22EE32FCA01E4CFB801C7010E94A8
:10248000C611A1960FB6F894DEBF0FBECDBFDF9187
:10249000CF911F910F91FF90EF90DF90CF90BF9061
:1024A000AF909F908F900895CF92DF92EF92FF921E
:1024B0000F931F93CF93DF93EC016A017B012115EA
:1024C000310579F4E881F9810190F081E02D642FE4
:1024D000DF91CF911F910F91FF90EF90DF90CF9000
:1024E00009942A303105E9F477FF1AC06DE20E94A1
:1024F000DE118C0144275527BA014C195D096E097C
:102500007F092AE0CE010E94FB11800F911FDF910D
:10251000CF911F910F91FF90EF90DF90CF90089592
:102520002AE0B701A601CE01DF91CF911F910F9153
:10253000FF90EF90DF90CF900C94FB119A01AB01CC
:10254000662757FD6095762F0C9454120F931F93B6
:10255000CF93DF93EC019A01AB01662757FD60959D
:10256000762F0E9454128C01CE010E94E511800F3B
:10257000911FDF91CF911F910F9108954F925F921C
:102580006F927F928F929F92AF92BF92CF92DF9283
:10259000EF92FF920F931F93CF93DF93EC016A01A9
:1025A0007B01B22E9A01AB01C701B6010E948016D1
:1025B000882319F062E971E027C026013701E89409
:1025C00077F82FEF3FEF4FE75FE7C301B2010E94BB
:1025D000801681110DC02FEF3FEF4FE75FE7C3017A
:1025E000B2010E947A1418161CF466E971E00CC05E
:1025F0002FEF3FEF4FE75FE4C701B6010E94D71509
:102600001816ACF46AE971E0CE01DF91CF911F9109
:102610000F91FF90EF90DF90CF90BF90AF909F9081
:102620008F907F906F905F904F900C94C6112FEF1A
:102630003FEF4FE75FECC701B6010E947A1487FDB8
:10264000E1CF20E030E0A901C701B6010E947A1471
:1026500087FF0AC06DE2CE010E94DE118C01F7FAFD
:10266000F094F7F8F09402C000E010E0A12C60E0D4
:1026700070E080E09FE3AB1441F020E030E040E206
:1026800051E40E947E14A394F6CF9B01AC01C701D4
:10269000B6010E9416146B017C010E94EB142B0101
:1026A0003C010E9417159B01AC01C701B6010E94B5
:1026B00015146B017C012AE0B301A201CE010E9436
:1026C000FB11080F191FBB2039F06EE971E0CE0134
:1026D0000E94C611080F191F7B2C772041F120E0C2
:1026E00030E040E251E4C701B6010E94DB156B0106
:1026F0007C010E94E6144B01AA2497FCA094BA2CFA
:102700002AE030E0B501A401CE010E945412080F66
:10271000191FC501B4010E9419159B01AC01C70125
:10272000B6010E9415146B017C017A94D6CFC801C2
:10273000DF91CF911F910F91FF90EF90DF90CF909D
:10274000BF90AF909F908F907F906F905F904F90D1
:1027500008950C94BE120F931F93CF93DF93EC0157
:102760000E94BE128C01CE010E94E511800F911FC4
:10277000DF91CF911F910F9108954F925F926F92C9
:102780007F92AF92BF92CF92DF92EF92FF920F9320
:102790001F93CF93DF93CDB7DEB729013A01621BB8
:1027A000730B840B950B29893A894B895C892A190B
:1027B0003B094C095D09298B3A8B4B8B5C8B9B0148
:1027C000AC0169897A898B899C890E948B16E418EF
:1027D000F50806091709A80197010E94C9162A0DD4
:1027E0003B1D4C1D5D1DCA01B901DF91CF911F91A9
:1027F0000F91FF90EF90DF90CF90BF90AF907F90C0
:102800006F905F904F90089508950E94590E0E9416
:1028100004140E944407C1EEDFE00E94D007209715
:10282000E1F30E94E10FF9CF08955058BB27AA2782
:102830000ED083C174D130F079D120F031F49F3FB4
:1028400011F41EF469C10EF4E095E7FB51C1E92FC4
:1028500085D180F3BA17620773078407950718F0CC
:1028600071F49EF59DC10EF4E0950B2EBA2FA02DAC
:102870000B01B90190010C01CA01A0011124FF272D
:10288000591B99F0593F50F4503E68F11A16F04028
:10289000A22F232F342F4427585FF3CF4695379527
:1028A0002795A795F0405395C9F77EF41F16BA0BEC
:1028B000620B730B840BBAF09150A1F0FF0FBB1F9A
:1028C000661F771F881FC2F70EC0BA0F621F731FE3
:1028D000841F48F4879577956795B795F7959E3F40
:1028E00008F0B3CF9395880F08F09927EE0F9795CE
:1028F00087950895D9D008F481E008950CD01DC1C2
:1029000015D140F00CD130F021F45F3F19F0F0C048
:10291000511147C101C122D198F39923C9F355231D
:10292000B1F3951B550BBB27AA27621773078407C2
:1029300038F09F5F5F4F220F331F441FAA1FA9F378
:1029400033D00E2E3AF0E0E830D091505040E6956A
:10295000001CCAF729D0FE2F27D0660F771F881FCB
:10296000BB1F261737074807AB07B0E809F0BB0BBA
:10297000802DBF01FF2793585F4F2AF09E3F5105DE
:1029800068F0B6C00EC15F3FECF3983EDCF386956D
:1029900077956795B795F7959F5FC9F7880F911D54
:1029A0009695879597F90895E1E0660F771F881F40
:1029B000BB1F621773078407BA0720F0621B730BF3
:1029C000840BBA0BEE1F88F7E095089504D0689445
:1029D000B111E7C00895CAD088F09F5790F0B92F81
:1029E0009927B751A0F0D1F0660F771F881F991F64
:1029F0001AF0BA95C9F712C0B13081F0D1D0B1E068
:102A00000895CEC0672F782F8827B85F39F0B93F77
:102A1000CCF3869577956795B395D9F73EF4909565
:102A20008095709561957F4F8F4F9F4F0895E894E3
:102A300009C097FB3EF490958095709561957F4F06
:102A40008F4F9F4F9923A9F0F92F96E9BB279395B4
:102A5000F695879577956795B795F111F8CFFAF4C4
:102A6000BB0F11F460FF1BC06F5F7F4F8F4F9F4FF5
:102A700016C0882311F096E911C0772321F09EE853
:102A8000872F762F05C0662371F096E8862F70E0B9
:102A900060E02AF09A95660F771F881FDAF7880F93
:102AA0009695879597F90895990F0008550FAA0BE9
:102AB000E0E8FEEF16161706E807F907C0F0121651
:102AC0001306E407F50798F0621B730B840B950B54
:102AD00039F40A2661F0232B242B252B21F40895A9
:102AE0000A2609F4A140A6958FEF811D811D089546
:102AF00097F99F6780E870E060E008959F3F31F0AC
:102B0000915020F4879577956795B795880F911D1B
:102B10009695879597F908959FEF80EC0895002486
:102B20000A941616170618060906089500240A9432
:102B300012161306140605060895092E0394000CB8
:102B400011F4882352F0BB0F40F4BF2B11F460FF47
:102B500004C06F5F7F4F8F4F9F4F089557FD905870
:102B6000440F551F59F05F3F71F04795880F97FB51
:102B7000991F61F09F3F79F087950895121613060B
:102B80001406551FF2CF4695F1DF08C0161617063A
:102B90001806991FF1CF869571056105089408956F
:102BA000E894BB2766277727CB0197F908957CDF48
:102BB00008F48FEF08950BD0C0CFB1DF28F0B6DF57
:102BC00018F0952309F094CFA7CF1124EACFC6DFE0
:102BD000A0F3959FD1F3950F50E0551F629FF00130
:102BE000729FBB27F00DB11D639FAA27F00DB11D89
:102BF000AA1F649F6627B00DA11D661F829F222712
:102C0000B00DA11D621F739FB00DA11D621F839F98
:102C1000A00D611D221F749F3327A00D611D231F6E
:102C2000849F600D211D822F762F6A2F11249F57BC
:102C300050408AF0E1F088234AF0EE0FFF1FBB1FDF
:102C4000661F771F881F91505040A9F79E3F51057E
:102C500070F04ECFA6CF5F3FECF3983EDCF3869545
:102C600077956795B795F795E7959F5FC1F7FE2B29
:102C7000880F911D9695879597F9089511F40EF494
:102C80004BCF3CCF73DFD0F39923D9F3CEF39F57CB
:102C9000550B87FF39D00024A0E640EA9001805808
:102CA0005695979528F4805C660F771F881F20F053
:102CB00026173707480730F4621B730B840B202953
:102CC00031294A2BA69517940794202531254A27A8
:102CD00058F7660F771F881F20F026173707480719
:102CE00030F4620B730B840B200D311D411DA09538
:102CF00081F7B901842F9158880F9695879508958B
:102D0000D3DE880B990B089591505040660F771FC2
:102D1000881FD2F70895DB018F939F930E94FD16C1
:102D2000BF91AF91A29F800D911DA39F900DB29F67
:102D3000900D11240895991B79E004C0991F9617EE
:102D400008F0961B881F7A95C9F780950895A1E22F
:102D50001A2EAA1BBB1BFD010DC0AA1FBB1FEE1F15
:102D6000FF1FA217B307E407F50720F0A21BB30B60
:102D7000E40BF50B661F771F881F991F1A9469F7DC
:102D800060957095809590959B01AC01BD01CF0138
:102D90000895052E97FB1EF400940E94E01657FD3F
:102DA00007D00E94A71607FC03D04EF40C94E0163F
:102DB00050954095309521953F4F4F4F5F4F089567
:102DC00090958095709561957F4F8F4F9F4F089597
:102DD000EE0FFF1F0590F491E02D0994A29FB00122
:102DE000B39FC001A39F700D811D1124911DB29F3F
:102DF000700D811D1124911D08950E94EE16A59F4E
:102E0000900DB49F900DA49F800D911D11240895E5
:102E1000662777270C94C117FC0188279927E89427
:102E200021912032E9F3293010F02E30C8F32B32F3
:102E300041F02D3239F4689404C00E94A317820F28
:102E4000911D219120532A30C0F31EF49095819555
:102E50009F4F08951F93FC0199278827BC01E89490
:102E600011911032E9F3193010F01E30C8F31B3203
:102E700051F01D3249F4689406C00E948E17610F0C
:102E8000711D811D911D119110531A30B0F33EF444
:102E900090958095709561957F4F8F4F9F4F1F91B3
:102EA00008959111D1C1803219F089508550D0F721
:102EB0000895FB01DC014150504030F08D910190AC
:102EC000801919F40020B9F7881B990B0895FA01AD
:102ED000A191B081009719F41097E1F0CD01DC01C8
:102EE000CD010D90002011F4C00113C0FB01219110
:102EF000222319F02015D9F7F3CFFB0121912015DA
:102F000019F41E92119606C02223C1F70D900020DD
:102F1000A1F7D001FA01A193B0830895592F482F4A
:102F2000372F262F660F771F881F991F660F771F71
:102F3000881F991F620F731F841F951F660F771FCD
:102F4000881F991F08957AE0979F902D879F802D65
:102F5000910D11240895F999FECF92BD81BDF89A83
:102F6000992780B50895262FF999FECF1FBA92BDF3
:102F700081BD20BD0FB6F894FA9AF99A0FBE01965A
:102F80000895A0E0B0E0E7ECF7E10C9445198B015F
:102F90006115710521F0DB018C9311969C93EC0176
:102FA0005E01BFEFAB1ABB0A7501C8808C2D90E0A3
:102FB0000E945117892B11F0E501F2CFEDE2CE12FC
:102FC00008C07E01F2E0EF0EF11CC980DD24D3942D
:102FD00009C02BE2C21205C07E0142E0E40EF11CE2
:102FE000C980D12CE701219743E050E060EE70E00A
:102FF000CE010E942719892BC1F4239645E050E0A9
:103000006BED70E0CE010E942719892B09F42596FB
:103010000115110519F0D801CD93DC93D11006C12B
:1030200060E070E080E89FE70AC143E050E068EDAF
:1030300070E0CE010E942719892B59F40115110562
:1030400009F4F9C0B2E0EB0EF11CF801F182E08264
:10305000F2C0F70160E070E0CB01C0E0D0E07F019A
:10306000A0EDAA2EAC0C29E02A1530F14D2D4260BE
:10307000B42E2D2D2870D2FE04C0211125C021961A
:1030800023C021112197A5E0B0E09B01AC010E9473
:10309000FD16660F771F881F991F6A0D711D811D10
:1030A000911D6839A9E97A078A07A9E19A0760F0B2
:1030B000BD2DB660BB2E08C02EEFA2120AC0D3FCF5
:1030C00050C04D2D4860B42E3196D701CC90DB2CEA
:1030D000C6CF2C2D2F7D253409F043C0A081AD3201
:1030E00041F4BD2DB061DB2E7F0122E0E20EF11C28
:1030F0000CC07F01AB3231F04FEFE41AF40A21E04B
:1031000030E006C0A2E0EA0EF11CA18122E030E02E
:10311000A053AA3018F0E21AF30A23C0F70120E006
:1031200030E02038BCE03B075CF4A901440F551F98
:10313000440F551F240F351F220F331F2A0F311D37
:10314000AF014F5F5F4F7A01A081A053AA3010F406
:10315000FA01E7CFD4FE03C0319521953109C20FA2
:10316000D31FD1FE09C00115110531F0E1E0EE1ABF
:10317000F108D801ED92FC920E9417152D2D2370B5
:10318000233019F04B015C0106C04B015C01B7FA1A
:10319000B094B7F8B09420E030E0A901C501B401C3
:1031A0000E947A14882309F43EC0D7FF06C0D19547
:1031B000C195D10907EF10E002C00FE011E06801EE
:1031C000B8E1CB1AD10890E2E92EF12CCE15DF053B
:1031D00074F0F8012591359145915491C501B401E0
:1031E0000E94DB154B015C01CE19DF09EFCF0450C3
:1031F0001109F594E7940C151D0541F78A2D880FE8
:103200008B2D881F8F3F49F020E030E0A901C501D8
:10321000B4010E947A14811106C082E290E090937A
:10322000C8058093C705C501B40109C060E070E01E
:1032300080E89FEF04C060E070E080EC9FE7CDB7CE
:10324000DEB7ECE00C946119992788270895FB01FB
:10325000DC014150504088F08D9181341CF08B3559
:103260000CF4805E659161341CF06B350CF4605E8B
:10327000861B611171F3990B0895881BFCCF2F9267
:103280003F924F925F926F927F928F929F92AF92F6
:10329000BF92CF92DF92EF92FF920F931F93CF9343
:1032A000DF93CDB7DEB7CA1BDB0B0FB6F894DEBFDA
:1032B0000FBECDBF09942A88398848885F846E8400
:1032C0007D848C849B84AA84B984C884DF80EE804A
:1032D000FD800C811B81AA81B981CE0FD11D0FB653
:1032E000F894DEBF0FBECDBFED01089511E0CCE133
:1032F000D1E004C0FE010E94EA162296CE31D10729
:06330000C9F7F894FFCFAD
:103306000000C905800001000000E803C8000000B5
:103316000B0A03090C0D080200001011140F150EFC
:103326000607050400000000000000004D313020B3
:103336005859200041002042002048002053002018
:1033460055002044004D31312000504F5320580085
:103356002059004F4B005859340073657420746F20
:103366002064656661756C74207365747570000001
:10337600000000140CE70BBC0BC40BD70BE60B00CC
:1033860000000032109E11B40FCD0FBF0F10100DAC
:103396000A006E616E00696E66006F7666002E002A
:107E0000112484B714BE81FFF0D085E080938100F7
:107E100082E08093C00088E18093C10086E0809377
:107E2000C20080E18093C4008EE0C9D0259A86E02C
:107E300020E33CEF91E0309385002093840096BBD3
:107E4000B09BFECF1D9AA8958150A9F7CC24DD24C4
:107E500088248394B5E0AB2EA1E19A2EF3E0BF2EE7
:107E6000A2D0813461F49FD0082FAFD0023811F036
:107E7000013811F484E001C083E08DD089C08234E0
:107E800011F484E103C0853419F485E0A6D080C0E4
:107E9000853579F488D0E82EFF2485D0082F10E0AE
:107EA000102F00270E291F29000F111F8ED06801E7
:107EB0006FC0863521F484E090D080E0DECF843638
:107EC00009F040C070D06FD0082F6DD080E0C81688
:107ED00080E7D80618F4F601B7BEE895C0E0D1E017
:107EE00062D089930C17E1F7F0E0CF16F0E7DF06D8
:107EF00018F0F601B7BEE89568D007B600FCFDCFD4
:107F0000A601A0E0B1E02C9130E011968C91119780
:107F100090E0982F8827822B932B1296FA010C0160
:107F200087BEE89511244E5F5F4FF1E0A038BF0790
:107F300051F7F601A7BEE89507B600FCFDCF97BE46
:107F4000E89526C08437B1F42ED02DD0F82E2BD052
:107F50003CD0F601EF2C8F010F5F1F4F84911BD097
:107F6000EA94F801C1F70894C11CD11CFA94CF0C13
:107F7000D11C0EC0853739F428D08EE10CD085E9AC
:107F80000AD08FE07ACF813511F488E018D01DD067
:107F900080E101D065CF982F8091C00085FFFCCF94
:107FA0009093C60008958091C00087FFFCCF809118
:107FB000C00084FD01C0A8958091C6000895E0E648
:107FC000F0E098E1908380830895EDDF803219F02E
:107FD00088E0F5DFFFCF84E1DECF1F93182FE3DFCA
:107FE0001150E9F7F2DF1F91089580E0E8DFEE27F6
:047FF000FF270994CA
:027FFE00040479
:0400000300007E007B
:00000001FF
