:100000000C9482000C94AA000C94AA000C94A20CEC
:100010000C94CC0C0C94F60C0C94AA000C94AA0032
:100020000C94AA000C94AA000C94AA000C947A0BCD
:100030000C94AA000C94AA000C94AA000C94AA0098
:100040000C94460F0C94AA000C9459120C94DC12D8
:100050000C94AA000C94AA000C94AA000C94AA0078
:100060000C94E30D0C94AA0000000000240027006B
:100070002A0000000000250028002B0000000000DE
:1000800023002600290004040404040404040202DA
:100090000202020203030303030301020408102007
:1000A0004080010204081020010204081020000012
:1000B0000007000201000003040600000000000029
:1000C0000000494E46494E4954594E414ECDCCCC84
:1000D0003D0AD7233C17B7D13877CC2B329595E61C
:1000E000241FB14F0A000020410000C84200401CFC
:1000F0004620BCBE4CCA1B0E5AAEC59D74008E0273
:10010000500D8F1211241FBECFEFD8E0DEBFCDBF40
:1001100011E0A0E0B1E0E8E5F2E302C005900D9245
:10012000A03BB107D9F714E0A0EBB1E001C01D92EC
:10013000A635B107E1F710E0C4E0D1E004C0229792
:10014000FE010E94E418CE3FD107C9F70E940213B6
:100150000C942A190C940000662777270C9416013A
:10016000FC0188279927E89421912032E9F329306E
:1001700010F02E30C8F32B3241F02D3239F4689450
:1001800004C00E940E01820F911D219120532A303C
:10019000C0F31EF4909581959F4F0895FB01DC01FB
:1001A0004150504030F08D910190801919F4002099
:1001B000B9F7881B990B0895009731F4DA018D91F6
:1001C0009C91009709F40EC0DC01FB013D91219147
:1001D000222319F03217C9F3FACF332331F4DA01AD
:1001E0001D921C928827992708951197AF93BF936A
:1001F000FB013D912191321771F4332321F48827BB
:100200009927119702C01E921196FA01A193B0830B
:100210009F918F910895222369F7EACF7AE0979F03
:10022000902D879F802D910D11240895A0E0B0E0BE
:10023000ECE1F1E00C94F918EC015B01611571053A
:1002400019F0FB0191838083F9908F2D90E00E943B
:10025000E818892BC9F7FDE2FF1621F4F990EE2486
:10026000E39405C02BE2F21609F4F990EE248E0116
:1002700001501040C80162EC70E043E050E00E9481
:100280007602892B01F58E010E5F1F4FC80165ECC8
:1002900070E045E050E00E947602892B19F48E014F
:1002A000095F1F4FA114B10419F0F50111830083F8
:1002B000E0FC04C070E090E080E814C070E090E0E2
:1002C00080E86FEF08C1C8016AEC70E043E050E0DD
:1002D0000E947602892B69F4A114B10429F470E01C
:1002E00090E080EC6FE7F7C02296F501D183C083E0
:1002F000F6CF8824992440E050E060E070E0EF2DD4
:10030000E053EA30A0F5F2E0EF2A8E2D90E09C0158
:1003100028703070E2FE06C0232B79F50894811C0A
:10032000911C2BC0232B19F0089481089108DB0144
:10033000CA0112E0880F991FAA1FBB1F1A95D1F797
:10034000480F591F6A1F7B1F440F551F661F771FD9
:100350004E0F511D611D711D483929E9520729E9C8
:10036000620729E1720748F084E0E82A06C0EE3F00
:1003700031F4E3FC39C098E0E92AF990C0CFE533C5
:1003800011F0E53189F529912D3219F4E0E1EE2AD9
:1003900005C02B3219F081E090E003C0299182E082
:1003A00090E0E22FE053EA3018F0C81BD90B1CC0D4
:1003B00020E030E0FCE020383F075CF4C901880F02
:1003C000991F880F991F280F391F220F331F2E0FD7
:1003D000311DE991E053EA3068F3E4FE03C0309543
:1003E00021953F4F820E931ECE2CDD24E1FE07C0E7
:1003F000A114B10421F02197F501D183C083CB0171
:10040000BA010E94D1167B018C01F3E0CF22DD24DA
:1004100023E0C216D10421F417FB109517F91095AB
:1004200057016801C801B70120E030E040E050E02A
:100430000E943416882309F44AC097FE0DC021EEAD
:10044000E22E20E0F22E9094819491089394C0E2E1
:10045000D0E000E010E012C099EFE92E90E0F92E14
:10046000F6CFF7012591359145915491C601B5011B
:100470000E9487175B016C018C1A9D0A8C169D06E1
:1004800084F7D595C7950F5F1F4F0630110529F0EA
:100490008CEF9FEFE80EF91EF1CFC501D6017C016C
:1004A0008D018C2D880F8D2D881F8F3F51F0C60137
:1004B000B50120E030E040E050E00E94341688238F
:1004C00031F482E290E090935504809354047E2DA1
:1004D0009F2D802F612F272F392F482F562FB9019D
:1004E000CA01CDB7DEB7ECE00C941519FB01DC01B5
:1004F0004150504088F08D9181341CF08B350CF4C4
:10050000805E659161341CF06B350CF4605E861B77
:10051000611171F3990B0895881BFCCF0F931F9302
:100520008CE192E061E00E94980980E292E062E052
:100530000E94980904E212E0C80163E00E94980951
:10054000C8010E94A8098093280210922902C801BC
:100550000E94AB0980932A0210922B020CE212E057
:10056000C80166E00E949809C8010E94A80980930A
:10057000300210923102C8010E94AB09809332020E
:100580001092330284E392E06AE00E94AE0908E32D
:1005900012E0C80167E00E949809C8010E94AB09F7
:1005A00080933C0210923D028EE392E00E94360A54
:1005B0001F910F910895CF93DF93C0E0D0E0FE012B
:1005C000E055FE4F84E892E0BE0140810E942A0A75
:1005D0002196C034D10599F7DF91CF9108950F93FB
:1005E0001F93CF93DF93C0E0D0E084E892E0BE0198
:1005F0000E94230A00EB11E0FE01E00FF11F80834F
:100600002196C034D10589F7C80160E071E042E06D
:1006100050E00E94CE00009731F187EB93E063E059
:1006200071E00E94731580E4F80111928A95E9F750
:1006300088E599E59093B1018093B00181E08093C2
:10064000B8018093B9018CE791E09093BE0180934B
:10065000BD0186E391E09093BC018093BB011092B1
:10066000BA010E94DB028091B801882329F481E05D
:10067000809318028FEF04C08FEF8093180281E0FF
:10068000809319028091B901882329F481E0809335
:100690001A028FEF04C08FEF80931A0281E08093DB
:1006A0001B02DF91CF911F910F9108958091280235
:1006B00062E00E94331080912A0262E00E943310AF
:1006C0008091300262E00E9433108091320262E039
:1006D0000E94331087EB93E040E052EC61E070E061
:1006E00026E00E9449110E94EF0280E090E0A0E025
:1006F000B0E08093F4019093F501A093F601B093DC
:10070000F7018093F8019093F901A093FA01B09357
:10071000FB01109208021092090210920A02109234
:100720000B0210920C0210920D0210920E02109207
:100730000F0260913C0270913D028EE392E00E94B4
:10074000730B0895DF93CF9300D0CDB7DEB768E188
:1007500071E0AE014F5F5F4F0E94DC0089819A819A
:100760000E94B00090934202809341020F900F903C
:10077000CF91DF910895DF93CF9300D0CDB7DEB74F
:1007800068E171E0AE014F5F5F4F0E94DC0089813C
:100790009A810E94B000BC018EE392E00E948C0A14
:1007A0000F900F90CF91DF910895DF93CF9300D0FA
:1007B000CDB7DEB768E171E0AE014F5F5F4F0E94D9
:1007C000DC0089819A810E94B000BC0184E392E040
:1007D0000E94F0090F900F90CF91DF910895DF9262
:1007E000EF92FF920F931F93DF93CF9300D0CDB77B
:1007F000DEB768E171E08E010F5F1F4FA8010E9414
:10080000DC007C01D02E012F78C080E090E068E110
:1008100071E04D2D502F0E94DC007C01FC01808195
:10082000813489F4C70101960E94B0008093B80119
:1008300087EB93E06AE171E00E94761487EB93E026
:100840006091B80112C08234A9F4C70101960E94D8
:10085000B0008093B90187EB93E065E271E00E94FC
:10086000761487EB93E06091B9014AE050E00E9472
:10087000F21343C0883499F4C70101960E94B00076
:100880009093BC018093BB0187EB93E06FE271E032
:100890000E9476146091BB017091BC0128C087351D
:1008A00099F4C70101960E94B0009093BE01809315
:1008B000BD0187EB93E067E371E00E9476146091DD
:1008C000BD017091BE0113C08335B9F4C701019613
:1008D0000E94B0008093BA0187EB93E06EE371E071
:1008E0000E9476146091BA01772767FD709587EBB7
:1008F00093E04AE050E00E944414EF2809F085CFCD
:100900000E94DB020F900F90CF91DF911F910F910A
:10091000FF90EF90DF900895EF92FF920F931F9357
:1009200007EB13E0C80166E471E00E947614809141
:1009300030020E94C610BC01C8014AE050E00E948B
:10094000441488E1E82E81E0F82EC801B7010E9426
:100950007614809132020E94C610BC01C8014AE0A0
:1009600050E00E944414C801B7010E94761480919F
:1009700028020E94C610BC01C8014AE050E00E9453
:100980004414C801B7010E94761480912A020E9483
:10099000C610BC01C8014AE050E00E9457141F91E4
:1009A0000F91FF90EF9008950F931F9307EB13E0C3
:1009B000C8016BE471E00E9476146091BD017091F2
:1009C000BE01C8014AE050E00E944414C80160E240
:1009D0000E943B136091BB017091BC01C8014AE0C9
:1009E00050E00E944414C80160E20E943B13409111
:1009F000F4015091F5016091F6017091F701C80181
:100A000022E030E00E945D15C80160E20E943B13C5
:100A10004091F8015091F9016091FA017091FB0148
:100A2000C80122E030E00E945D15C80160E20E942A
:100A30003B13C80163E571E00E9476146091B80130
:100A4000C80170E04AE050E00E944414C80165E526
:100A500071E00E9476146091B901C80170E04AE02B
:100A600050E00E944414C80168E571E00E947614C9
:100A70006091BA01772767FD7095C8014AE050E0A0
:100A80000E9457141F910F910895CF93DF93EC01AB
:100A90000E94B00084309105D1F08530910534F486
:100AA0008130910561F00397F9F40DC08A3091050A
:100AB000B1F08B309105B1F00597B1F40CC0CE01C7
:100AC0000E94BB0311C0CE010E94A2030DC0CE0143
:100AD0000E94D50309C0CE010E94EF0305C00E9409
:100AE000D40402C00E948C04DF91CF91089518169F
:100AF000190624F480E292E060E003C080E292E014
:100B000061E00E94DD0980E292E061E00E94CA0992
:100B100080E292E060E00E94CA0908951816190662
:100B200024F48CE192E060E003C08CE192E061E0AB
:100B30000E94DD098CE192E061E00E94CA098CE12B
:100B400092E060E00E94CA09089580912A020E9402
:100B5000C610019789F4809128020E94C61001975F
:100B600059F481E090E00E947705809175019091A1
:100B700076010E948E0FE9CF809132020E94C6104A
:100B8000019789F4809130020E94C610019759F4B0
:100B900081E090E00E948E05809175019091760130
:100BA0000E948E0FE9CF1092080210920902109253
:100BB0000A0210920B0210920C0210920D02109277
:100BC0000E0210920F0280E090E0A0E0B0E080936F
:100BD000F4019093F501A093F601B093F70180938F
:100BE000F8019093F901A093FA01B093FB010895E5
:100BF0002F923F924F925F926F927F928F929F922D
:100C0000AF92BF92CF92DF92EF92FF920F931F931A
:100C1000DF93CF93CDB7DEB72E970FB6F894DEBF34
:100C20000FBECDBF20907701309078014090100228
:100C3000509011028091080290910902481A590AB5
:100C4000809014029090150280910C0290910D02F8
:100C5000881A990A640197FE04C0CC24DD24C818C0
:100C6000D908520157FE04C0AA24BB24A418B50811
:100C7000BA86A986AC14BD0414F4DA86C98629851F
:100C80003A85B901882777FD8095982F0E94D31661
:100C90007B018C01B501882777FD8095982F0E94F4
:100CA000D316A80197010E9438166D837E838F8327
:100CB0009887B601882777FD8095982F0E94D316D4
:100CC000A80197010E94381669837A838B839C83DD
:100CD0008FEF9FEF9C878B870F2EF0E0AF2EF0E019
:100CE000BF2EF0E0CF2EF0E0DF2EF02D8601750153
:100CF00066247724FDC08091080290910902A0919A
:100D00000A02B0910B0282179307A407B50709F4F2
:100D100052C0C601B5012D813E814F8158850E9488
:100D2000D0155B016C0120E030E040E85FE30E94F9
:100D3000831788230CF43FC0141415041CF420916D
:100D4000180202C020911902E22FFF27E7FDF0955B
:100D5000FE87ED878091BA01882321F0CF010E94A0
:100D60008E0504C08D859E850E947705C601B5015C
:100D700020E030E040E85FE30E94CF155B016C01AA
:100D80008D859E859C01442737FD4095542F809189
:100D9000080290910902A0910A02B0910B02820F01
:100DA000931FA41FB51F8093080290930902A0937C
:100DB0000A02B0930B0220910C0230910D02409177
:100DC0000E0250910F028091140290911502A09191
:100DD0001602B0911702281739074A075B0709F472
:100DE00052C0C801B70129813A814B815C810E94C0
:100DF000D0157B018C0120E030E040E85FE30E94E9
:100E0000831788230CF43FC0181419041CF4209194
:100E10001A0202C020911B02E22FFF27E7FDF09586
:100E2000FE87ED878091BA01882321F0CF010E94CF
:100E3000770504C08D859E850E948E05C801B70187
:100E400020E030E040E85FE30E94CF157B018C0199
:100E50008D859E859C01442737FD4095542F8091B8
:100E60000C0290910D02A0910E02B0910F02820F20
:100E7000931FA41FB51F80930C0290930D02A093A3
:100E80000E02B0930F028B859C85820D931D2091DD
:100E9000750130917601821793074CF040917701EC
:100EA000509178019C01481759070CF49A01209041
:100EB000410230904202220E331EC1010E948E0F69
:100EC00089859A8586199709209177013091780153
:100ED0004091750150917601241B350B82179307C1
:100EE00024F4E1E0F0E0FC87EB870894611C711CBE
:100EF0002091100230911102409112025091130280
:100F000089859A85681679060CF4F5CE2093080237
:100F10003093090240930A0250930B02809114020D
:100F200090911502A0911602B091170280930C02C5
:100F300090930D02A0930E02B0930F022E960FB65F
:100F4000F894DEBF0FBECDBFCF91DF911F910F91FF
:100F5000FF90EF90DF90CF90BF90AF909F908F90D9
:100F60007F906F905F904F903F902F9008952F92B9
:100F70003F924F925F926F927F928F929F92AF9229
:100F8000BF92CF92DF92EF92FF920F931F936090E8
:100F9000FC017090FD018090FE019090FF01C40162
:100FA000B3012091F4013091F5014091F601509187
:100FB000F7010E94CF155B016C0120900002309078
:100FC00001024090020250900302C201B10120913F
:100FD000F8013091F9014091FA015091FB010E9412
:100FE000CF157B018C01C601B501A60195010E94B8
:100FF00087175B016C01C801B701A80197010E9426
:1010000087179B01AC01C601B5010E94D0150E9453
:10101000EE172FE632E143E85AE30E94341687FDCB
:1010200046C0C401B30126EF38E24FEA52E40E9401
:1010300087170E94A016609310027093110280938C
:10104000120290931302C201B10126EF38E24FEA77
:1010500052E40E9487170E94A016609314027093B6
:10106000150280931602909317020E94F805809152
:10107000FC019091FD01A091FE01B091FF018093D0
:10108000F4019093F501A093F601B093F7018091DC
:10109000000290910102A0910202B091030280939C
:1010A000F8019093F901A093FA01B093FB011F910D
:1010B0000F91FF90EF90DF90CF90BF90AF909F90F7
:1010C0008F907F906F905F904F903F902F900895FA
:1010D000DF92EF92FF920F931F93DF93CF9300D095
:1010E000CDB7DEB768E171E08E010F5F1F4FA80139
:1010F0000E94DC007C018091F4019091F501A091A7
:10110000F601B091F7018093FC019093FD01A0934B
:10111000FE01B093FF018091F8019091F901A09137
:10112000FA01B091FB018093000290930102A09319
:101130000202B0930302D02E012F57C080E090E04E
:1011400068E171E04D2D502F0E94DC007C01FC0114
:101150008081883569F4C70101960E94AC006093D4
:10116000FC017093FD018093FE019093FF013DC04F
:10117000893569F4C70101960E94AC0060930002B2
:101180007093010280930202909303022EC08A356D
:1011900069F4C70101960E94AC0060930402709349
:1011A000050280930602909307021FC0863499F4CB
:1011B000C70101960E94AC0020E030E040E752E415
:1011C0000E9438166093F0017093F1018093F20150
:1011D0009093F3010AC0813441F4C70101960E9443
:1011E000B0009093420280934102EF2809F0A6CF0D
:1011F0000E94B7070F900F90CF91DF911F910F9131
:10120000FF90EF90DF900895CF93DF93EC010E9461
:10121000B00097FD20C0823091051CF04C97D9F4A6
:1012200004C0CE010E94680816C080E090E0A0E0F3
:10123000B0E08093FC019093FD01A093FE01B09378
:10124000FF018093000290930102A0930202B093E9
:1012500003020E94A505DF91CF910895FC018081D2
:10126000873429F4CF0101960E94040931C08D34DE
:1012700029F4CF0101960E9445052AC0803541F529
:1012800087EB93E06BE571E00E9476144091F401E6
:101290005091F5016091F6017091F70187EB93E0B1
:1012A00022E030E00E945D1587EB93E061E671E09B
:1012B0000E9476144091F8015091F9016091FA0171
:1012C0007091FB0187EB93E022E030E00E94601513
:1012D00087EB93E064E671E00E9473150895CF9365
:1012E000DF9387EB93E00E94AD11892BF1F087EB40
:1012F00093E00E94C91190918302E92FFF27E7FD37
:10130000F095C3E4D2E0EC0FFD1F80839F5F9093C4
:1013100083028A3051F4CE010E942E0980E4FE013E
:1013200011928A95E9F710928302DF91CF91089587
:10133000DC01E62FF0E0EE0FFF1FE758FE4F808143
:101340008C93818111968C93119712966C930895CA
:10135000FC0180810895FC0181810895DC01E62F64
:10136000F0E0EE0FFF1FE758FE4F80818C938181E4
:1013700011968C93119712966C9381E08093800064
:101380008BE08093810083E08093B00084E08093C1
:10139000B1000895FF920F931F938C01F62EFC016C
:1013A000818161E00E943310F80181816F2D0E94DC
:1013B00072101F910F91FF900895FF920F931F934A
:1013C0008C01F62EFC01808161E00E943310F8014F
:1013D00080816F2D0E9472101F910F91FF900895D0
:1013E000EF92FF920F931F93CF93DF937C01EB015A
:1013F0006F3F710519F014F0CFEFD0E08E018FEF41
:10140000C130D8071CF401E01FEF0AC0D7FD08C0A7
:10141000C70161E00E94CA09F7018081BE010AC0CC
:10142000C70160E00E94CA0966277727601B710B1D
:10143000F70180810E94D30FDF91CF911F910F910F
:10144000FF90EF900895F999FECF72BD61BDF89AB3
:1014500080B50895F999FECF1FBA72BD61BD40BD38
:101460000FB6F894FA9AF99A0FBE0895FC0180918C
:1014700085028C3090F480838F5F80938502815049
:1014800090E0FC01EE0FFF1FE80FF91FEA57FD4F38
:1014900088EB9BE09283818308958FEF808308958A
:1014A000FC0120812C30B8F58181992787FD90952A
:1014B00048E850E0481B590B440F551F440F551F77
:1014C0006417750784F08281992787FD909548E518
:1014D00052E0481B590B440F551F440F551F64170A
:1014E00075070CF4AB0142505040CA01AA2797FD82
:1014F000A095BA2F880F991FAA1FBB1F4FB7F8944A
:1015000030E0F901EE0FFF1FE20FF31FEA57FD4F26
:10151000928381834FBF0895AF92BF92CF92DF92A3
:10152000EF92FF920F931F93CF93DF93EC019B01F8
:1015300082E0603278070CF048C077FF03C020E0FB
:1015400030E005C0653B710514F024EB30E000D0BD
:1015500000D0B901882777FD8095982F29813327FE
:1015600027FD3095E8E8AE2EB12CA21AB30AAA0CDA
:10157000BB1CAA0CBB1CCC24B7FCC094DC2CEA819D
:10158000FF27E7FDF09528E532E02E1B3F0B220FE9
:10159000331F220F331F442737FD4095542FEDB7DB
:1015A000FEB7218332834383548320E030E040E060
:1015B00050E004EBE02EF12C012D112D0E94861538
:1015C0009B010F900F900F900F90CE01B9010E94D8
:1015D000500ADF91CF911F910F91FF90EF90DF9014
:1015E000CF90BF90AF900895CF92DF92EF92FF928D
:1015F0001F93CF93DF93EC01162F7A016901888145
:101600008C3008F064C0862F61E00E94331088811E
:1016100090E0FC01EE0FFF1FE80FF91FEA57FD4FA6
:101620001F738081807C812B808380E292E08E1901
:101630009F0964E070E00E949218698380E699E057
:101640008C199D0964E070E00E9492186A83A88159
:101650008A2F6CE00E947218682F70E0AB01440F73
:10166000551F460F571F440F551F440F551F20E0AD
:1016700030E0C901840F951FFC01EE0FFF1FE80F3A
:10168000F91FEA57FD4F808186FD15C02F5F3F4F40
:101690002C30310571F724C01092800082E08093D5
:1016A00081001092850010928400B19A80916F00A1
:1016B000826080936F008A2F90E0FC01EE0FFF1F85
:1016C000E80FF91FEA57FD4F80818064808388818D
:1016D000DF91CF911F91FF90EF90DF90CF90089511
:1016E000672BD1F2E8CF40E252E020E639E00E94D9
:1016F000F40A08951F920F920FB60F9211242F93A0
:101700003F934F935F936F937F938F939F93AF9389
:10171000BF93EF93FF938091AA0287FF05C01092B9
:101720008500109284002BC02091AA02332727FD48
:1017300030958091850290E02817390704F5809153
:10174000AA02992787FD9095FC01EE0FFF1FE80F75
:10175000F91FEA57FD4F808186FF11C08091AA02D0
:10176000992787FD9095FC01EE0FFF1FE80FF91FE9
:10177000EA57FD4F80818F7360E00E947210809164
:10178000AA028F5F8093AA022091AA02332727FD25
:1017900030958091850290E0281739070CF04EC0F3
:1017A0008091AA028C300CF049C0209184003091C5
:1017B00085008091AA02992787FD9095FC01EE0F84
:1017C000FF1FE80FF91FEA57FD4F81819281820FB9
:1017D000931F90938900809388008091AA02992793
:1017E00087FD9095FC01EE0FFF1FE80FF91FEA57E8
:1017F000FD4F808186FF2BC08091AA02992787FD2B
:101800009095FC01EE0FFF1FE80FF91FEA57FD4FFF
:1018100080818F7361E00E94721019C080E49CE99E
:1018200005C0809184009091850004969093890072
:10183000809388008FEF8093AA0209C08091840072
:1018400090918500049680549C4940F3EACFFF9123
:10185000EF91BF91AF919F918F917F916F915F9128
:101860004F913F912F910F900FBE0F901F901895A1
:101870000F931F93CF93DF93FC01738D7695717057
:10188000A685B7859585772329F08C91892309F45E
:1018900054C004C08C91892309F04FC08389948976
:1018A00020E001972FEF8F3F9207D9F7C589D6899E
:1018B000A685B785158560E031E040E050E000E0A6
:1018C000CE01202F01972FEF8F3F9207D9F78C91F0
:1018D000812311F0632B03C0832F80956823330F7E
:1018E0004F5F5F4F4830510559F78789908D20E051
:1018F00001972FEF8F3F9207D9F771116095809173
:10190000ED022091EE0290E001968F73907030E02E
:101910008217930779F0E091ED02F0E0E355FD4F77
:1019200060838091ED0290E001968F7390708093B8
:10193000ED0203C0838D8160838FDF91CF911F9172
:101940000F9108951F920F920FB60F9211242F93AB
:101950003F934F935F936F937F938F939F93AF9337
:10196000BF93EF93FF938091AB029091AC020097ED
:1019700011F00E94380CFF91EF91BF91AF919F91B0
:101980008F917F916F915F914F913F912F910F9028
:101990000FBE0F901F9018951F920F920FB60F92C7
:1019A00011242F933F934F935F936F937F938F9364
:1019B0009F93AF93BF93EF93FF938091AB0290916E
:1019C000AC02009711F00E94380CFF91EF91BF918B
:1019D000AF919F918F917F916F915F914F913F91C7
:1019E0002F910F900FBE0F901F9018951F920F927E
:1019F0000FB60F9211242F933F934F935F936F93E2
:101A00007F938F939F93AF93BF93EF93FF938091B7
:101A1000AB029091AC02009711F00E94380CFF913C
:101A2000EF91BF91AF919F918F917F916F915F9156
:101A30004F913F912F910F900FBE0F901F901895CF
:101A40002091100330E080910F03281B3109C90158
:101A5000089540910F0380911003481718F02FEF5D
:101A60003FEF0AC0E42FF0E0E151FD4F8081282FC5
:101A700030E04F5F40930F03C9010895E0910F03D9
:101A800080911003E81718F0EFEFFFEF06C0F0E0C9
:101A9000E151FD4F8081E82FF0E0CF0108950895D6
:101AA000109237031092360388EE93E0A0E0B0E086
:101AB0008093380390933903A0933A03B0933B0388
:101AC00083E991E090933503809334030895CF9296
:101AD000DF92EF92FF920F931F93CF93DF937C01DE
:101AE0006B018A01809133038823A1F0C0E0D0E02C
:101AF0000DC0D701ED91FC91D601AC0FBD1F019037
:101B0000F081E02DC7016C9109952196C017D1078E
:101B100080F304C0CB01642F0E94C80DC801DF917F
:101B2000CF911F910F91FF90EF90DF90CF9008958C
:101B3000DF93CF930F92CDB7DEB7FC01698380911D
:101B400033038823C9F080913203803238F081E07A
:101B500090E09383828320E030E015C080913103D0
:101B6000E82FF0E0EF5EFC4F998190838F5F8093C8
:101B700031038093320305C0CE01019661E00E94DB
:101B8000C80D21E030E0C9010F90CF91DF91089599
:101B9000482F613210F081E0089580914003843035
:101BA00011F082E0089560938B03AAE6B3E0842FDE
:101BB0009C01F90102C081918D938E2F841B8617A1
:101BC000D0F380E008951F920F920FB60F92112468
:101BD0002F933F934F935F936F937F938F939F9335
:101BE000AF93BF93EF93FF938091B90090E0887F0C
:101BF00090708836910509F4D3C0893691050CF0B0
:101C00003EC08033910509F49DC081339105D4F421
:101C10008031910509F474C0813191053CF400973D
:101C200009F41CC1089709F020C16AC080329105EF
:101C300009F483C08832910509F467C0489709F018
:101C400014C163C08834910509F4A8C08934910592
:101C50004CF48833910509F477C08034910509F07C
:101C600004C182C08835910509F483C0803691058E
:101C700009F496C08035910509F0F7C069C0803A33
:101C8000910509F4A5C0813A9105ECF480389105DD
:101C900009F48CC0813891054CF48037910509F422
:101CA0007FC08837910509F0E0C07AC0803991057E
:101CB00009F47CC08839910509F4C8C088389105B9
:101CC00009F0D3C0C3C0883B910509F4ADC0893B7E
:101CD00091054CF4883A910509F491C0803B910537
:101CE00009F0C3C08CC0883C910509F4B1C0883F9D
:101CF000910509F4AFC0803C910509F0B6C0A8C0B9
:101D0000809141038093BB00A1C0909168038091B2
:101D10006903981768F490916803E92FF0E0E85B95
:101D2000FC4F80818093BB009F5F909368038EC0BF
:101D300080914203882369F103C080E28093AD0360
:101D400084ED8FC080E3FACF88E38093AD0380C039
:101D5000809168039091BB00E82FF0E0E85BFC4FB6
:101D600090838F5F809368039091680380916903EB
:101D70006BC0809168039091BB00E82FF0E0E85BB6
:101D8000FC4F90838F5F8093680380914203882388
:101D900029F481E08093430384EA63C084E961C04D
:101DA00083E0809340031092AC0350C08091AC0359
:101DB000803208F04FC08091AC039091BB00E82FB7
:101DC000F0E0E457FC4F90838F5F8093AC033EC0FC
:101DD0008091AC03803230F4E091AC03F0E0E45742
:101DE000FC4F10826091AC03E0914603F0914703F1
:101DF0008CE893E070E009951092AC0329C084E070
:101E00008093400310928A0310928B03E091440365
:101E1000F0914503099580918B03882329F481E093
:101E200080938B0310926A0390918A03E92FF0E06C
:101E3000E659FC4F80818093BB009F5F90938A039B
:101E400090918A0380918B03981720F485EC03C04E
:101E500085EC07C085E88093BC0007C01092AD03F5
:101E600085E98093BC0010924003FF91EF91BF91F0
:101E7000AF919F918F917F916F915F914F913F9122
:101E80002F910F900FBE0F901F9018951F920F92D9
:101E90000FB60F9211242F933F938F939F93AF937D
:101EA000BF938091B2039091B303A091B403B0911A
:101EB000B5033091B6030196A11DB11D232F2D5FEF
:101EC0002D3720F02D570196A11DB11D2093B6038B
:101ED0008093B2039093B303A093B403B093B5037C
:101EE0008091AE039091AF03A091B003B091B10384
:101EF0000196A11DB11D8093AE039093AF03A093F3
:101F0000B003B093B103BF91AF919F918F913F9177
:101F10002F910F900FBE0F901F901895019739F0D9
:101F2000880F991F880F991F02970197F1F708955D
:101F3000789484B5826084BD84B5816084BD85B5A4
:101F4000826085BD85B5816085BDEEE6F0E080816B
:101F500081608083E1E8F0E010828081826080838C
:101F6000808181608083E0E8F0E08081816080830F
:101F7000E1EBF0E0808184608083E0EBF0E0808141
:101F800081608083EAE7F0E08081846080838081E3
:101F9000826080838081816080838081806880838B
:101FA0001092C10008951F93CF93DF93182FEB0178
:101FB00061E00E943310209709F44AC0CF3FD10559
:101FC00009F449C0E12FF0E0E255FF4F84918330DE
:101FD000C1F0843028F4813051F08230B1F50CC06A
:101FE000863019F1873049F1843079F514C084B511
:101FF000806884BDC7BD33C084B5806284BDC8BD60
:102000002EC080918000806880938000D0938900EA
:10201000C093880024C080918000806280938000FB
:10202000D0938B00C0938A001AC08091B000806862
:102030008093B000C093B30012C08091B000806262
:102040008093B000C093B4000AC0C038D1051CF41E
:10205000812F60E002C0812F61E00E947210DF9149
:10206000CF911F910895CF93DF93482F50E0CA017D
:1020700086569F4FFC0134914A575F4FFA01849175
:10208000882369F190E0880F991FFC01E859FF4F00
:10209000A591B491FC01EE58FF4FC591D4916623F0
:1020A00051F42FB7F8948C91932F909589238C93AA
:1020B000888189230BC0623061F42FB7F8948C912A
:1020C000932F909589238C938881832B88832FBFAE
:1020D00006C09FB7F8948C91832B8C939FBFDF91A0
:1020E000CF910895482F50E0CA0182559F4FFC01BF
:1020F0002491CA0186569F4FFC0194914A575F4F25
:10210000FA013491332309F440C0222351F12330E2
:1021100071F0243028F42130A1F0223011F514C0E0
:102120002630B1F02730C1F02430D9F404C08091BA
:1021300080008F7703C0809180008F7D8093800026
:1021400010C084B58F7702C084B58F7D84BD09C06F
:102150008091B0008F7703C08091B0008F7D809315
:10216000B000E32FF0E0EE0FFF1FEE58FF4FA591F8
:10217000B4912FB7F894662321F48C91909589231C
:1021800002C08C91892B8C932FBF0895682F70E02B
:10219000CB0182559F4FFC012491CB0186569F4F66
:1021A000FC0144916A577F4FFB019491992319F4E4
:1021B00020E030E03CC0222351F1233071F0243084
:1021C00028F42130A1F0223011F514C02630B1F0EE
:1021D0002730C1F02430D9F404C0809180008F777B
:1021E00003C0809180008F7D8093800010C084B5F3
:1021F0008F7702C084B58F7D84BD09C08091B00007
:102200008F7703C08091B0008F7D8093B000892FBD
:1022100090E0880F991F84589F4FFC01A591B491BD
:102220008C9120E030E0842311F021E030E0C901FE
:102230000895DC015C968C915C97FD01E80FF11D1F
:10224000E35AFF4F20815C968C915C9790E0019659
:102250008F7390705C968C935C975696ED91FC9181
:10226000579720835096ED91FC915197808180641F
:1022700080835B969C915B975C968C915C9798179A
:1022800039F45296ED91FC91539780818F7D808334
:102290000895DF92EF92FF920F931F93CF93DF93F6
:1022A000EC017A018B01D22EE889F98982E08083E2
:1022B000403081EE580780E0680780E07807A1F0A1
:1022C00060E079E08DE390E0A80197010E94A518F5
:1022D00021503040404050405695479537952795BE
:1022E00080E12030380798F0E889F989108260E8A9
:1022F00074E88EE190E0A80197010E94A518215092
:102300003040404050405695479537952795EC858D
:10231000FD853083EE85FF852083188EEC89FD894D
:10232000D082EA89FB89808180618083EA89FB8988
:10233000808188608083EA89FB89808180688083CE
:10234000EA89FB8980818F7D8083DF91CF911F9106
:102350000F91FF90EF90DF900895FC01218D828D09
:1023600030E0205C3F4F281B31092F733070C901CA
:102370000895FC01918D828D981719F42FEF3FEF8E
:1023800006C0828DE80FF11D858D282F30E0C90130
:102390000895DC0159969C9159975A968C915A97B9
:1023A000981719F42FEF3FEF10C05A968C915A9757
:1023B000FD01E80FF11D958D5A968C915A978F5F0C
:1023C0008F735A968C93292F30E0C9010895CF93CB
:1023D000DF93EC01888D882361F419C08C9185FF0F
:1023E0000AC0E889F989808185FF05C0CE010E9475
:1023F0001911AA89BB898C9185FD05C0E889F989E5
:10240000808186FD04C00FB607FEE8CFF4CFDF91D0
:10241000CF9108950F931F93CF93DF93EC01062F75
:102420009B8D8C8D981791F5E889F989808185FFBE
:102430002DC0EE89FF896083E889F98980818064F5
:1024400080831DC00FB607FC08C0E889F989808128
:1024500085FF03C0CE010E9419118C8D181791F3CE
:102460008B8DFE01E80FF11DE35AFF4F00831B8F98
:10247000EA89FB8980818062808381E0888F81E0A6
:1024800090E0DF91CF911F910F9108951B8D1F5FF9
:102490001F73E3CF82ED92E1892B51F080E090E051
:1024A000892B31F00E94D212882311F00E94000083
:1024B00008951F920F920FB60F9211242F938F93AE
:1024C0009F93EF93FF93E091C703F091C80380813E
:1024D00082FD16C0E091CD03F091CE032081909152
:1024E000D0039F5F9F738091D103981771F0E091A3
:1024F000D003F0E0E954FC4F258F9093D00305C042
:10250000E091CD03F091CE03E081FF91EF919F9197
:102510008F912F910F900FBE0F901F9018951092D2
:10252000BA031092B90388EE93E0A0E0B0E0809384
:10253000BB039093BC03A093BD03B093BE0383EA97
:1025400091E09093B8038093B70385EC90E090936B
:10255000C4038093C30384EC90E09093C6038093FC
:10256000C50380EC90E09093C8038093C70381EC8F
:1025700090E09093CA038093C90382EC90E090931B
:10258000CC038093CB0386EC90E09093CE038093B2
:10259000CD031092D0031092D1031092D203109267
:1025A000D303089587EB93E00E94AD1120E0892BBF
:1025B00009F021E0822F08951F920F920FB60F921B
:1025C00011242F933F934F935F936F937F938F9338
:1025D0009F93AF93BF93EF93FF9387EB93E00E949A
:1025E0001911FF91EF91BF91AF919F918F917F91C1
:1025F0006F915F914F913F912F910F900FBE0F9070
:102600001F901895CF93DF930E94980F0E94560356
:10261000CAE4D2E10E946F092097E1F30E944A12B6
:10262000F9CFCF92DF92EF92FF920F931F93CF9348
:10263000DF937C016B018A01C0E0D0E00FC0D601BE
:102640006D916D01D701ED91FC910190F081E02D2C
:10265000C7010995C80FD91F015010400115110578
:1026600071F7CE01DF91CF911F910F91FF90EF9005
:10267000DF90CF900895DC01ED91FC910190F08105
:10268000E02D09950895EF92FF920F931F938C010F
:10269000DC01ED91FC910190F081E02D6DE0099558
:1026A0007C01D801ED91FC910190F081E02DC801F1
:1026B0006AE009959C012E0D3F1DC9011F910F91E4
:1026C000FF90EF900895CF93DF93EC0161157105B2
:1026D00019F420E030E00FC0DB010D900020E9F795
:1026E0001197A61BB70BE881F9810280F381E02DD9
:1026F000AD0109959C01C901DF91CF9108954F92D9
:102700005F927F928F929F92AF92BF92CF92DF9211
:10271000EF92FF920F931F93DF93CF93CDB7DEB766
:10272000A1970FB6F894DEBF0FBECDBF2C01742E5B
:10273000CB01223008F42AE019A231E2C32ED12CB9
:10274000CC0EDD1E822E9924AA24BB24672D752F62
:10275000A50194010E94A51879018A01C801B70159
:10276000A50194010E945318472D461B0894C108E7
:10277000D1084A3014F4405D01C0495CF601408341
:10278000E114F1040105110521F07E2C5F2DC80133
:10279000DDCFC201B6010E946313A1960FB6F89473
:1027A000DEBF0FBECDBFCF91DF911F910F91FF9084
:1027B000EF90DF90CF90BF90AF909F908F907F90E1
:1027C0005F904F900895DC012115310541F4ED91A2
:1027D000FC910190F081E02D642F099508950E94ED
:1027E0007F130895EF92FF920F931F939A01E62EA5
:1027F000FF2400E010E0B801A7010E94E3131F913D
:102800000F91FF90EF900895CF92DF92EF92FF9299
:102810000F931F93CF93DF93EC016A017B01211586
:10282000310541F4E881F9810190F081E02D642FB8
:1028300009951FC02A303105D1F477FF17C0E88110
:10284000F9810190F081E02D6DE209958C0144271A
:102850005527BA014C195D096E097F09CE012AE09E
:102860000E947F139801280F391F04C02AE00E949C
:102870007F139C01C901DF91CF911F910F91FF90B0
:10288000EF90DF90CF900895EF92FF920F931F93F8
:102890007B019A010027F7FC0095102FB801A701D2
:1028A0000E9404141F910F91FF90EF900895CF9212
:1028B000DF92EF92FF920F931F936C017B019A01BD
:1028C0000027F7FC0095102FB801A7010E940414FF
:1028D0008C01C6010E944313080F191FC8011F91E4
:1028E0000F91FF90EF90DF90CF9008950E946313B7
:1028F00008957F928F929F92AF92BF92CF92DF9274
:10290000EF92FF920F931F93CF93DF934C017A01C5
:102910008B01722ECB01BA01A80197010E943818D1
:10292000882321F0C40167E671E021C0C0E0D0E057
:1029300057016801E894D7F8C601B5012FEF3FEFC2
:102940004FE75FE70E943818882351F4C601B501AC
:102950002FEF3FEF4FE75FE70E943416181614F091
:10296000C1E0D0E0219739F0C4016BE671E00E942C
:102970006313EC0193C0C801B7012FEF3FEF4FE79E
:102980005FE40E948317181654F0C801B7012FEFB7
:102990003FEF4FE75FEC0E943416882324F4C40114
:1029A0006FE671E0E4CFC801B70120E030E040E01D
:1029B00050E00E94341687FD03C0C0E0D0E00EC096
:1029C000D401ED91FC910190F081E02DC4016DE204
:1029D0000995EC0117FB109517F9109520E030E0F0
:1029E00040E05FE3DD240BC0CA01B90120E030E024
:1029F00040E251E40E9438169B01AC01D394D714F5
:102A000098F3C801B7010E94D0155B016C010E94C8
:102A1000A5167B018C01C401B801A7012AE030E0B2
:102A20000E94E313C80FD91F772039F0C40163E770
:102A300071E00E946313C80FD91FC801B7010E943B
:102A4000D1169B01AC01C601B5010E94CF1524C06F
:102A500020E030E040E251E40E9487177B018C01C6
:102A60000E94A0165B016C01CC24B7FCC094DC2C46
:102A7000C401B601A5012AE030E00E940414C80F89
:102A8000D91FC601B5010E94D3169B01AC01C80134
:102A9000B7010E94CF157A947720D1F6CE01DF914D
:102AA000CF911F910F91FF90EF90DF90CF90BF904B
:102AB000AF909F908F907F9008950E947914089511
:102AC000EF92FF920F931F937C010E9479148C0167
:102AD000C7010E944313080F191FC8011F910F91CE
:102AE000FF90EF900895EF92FF920F931F937C0158
:102AF0000E9463138C01C7010E944313080F191F22
:102B0000C8011F910F91FF90EF9008952F923F926F
:102B10004F925F926F927F928F929F92AF92BF92ED
:102B2000CF92DF92EF92FF920F931F93DF93CF9399
:102B3000CDB7DEB73B014C0119012A016D897E89B1
:102B40008F89988D6A197B098C099D09621A730A0D
:102B5000840A950AA40193010E945318E218F3080D
:102B600004091509A80197010E94C7182A0D3B1DE9
:102B70004C1D5D1DB901CA01CF91DF911F910F91CD
:102B8000FF90EF90DF90CF90BF90AF909F908F908D
:102B90007F906F905F904F903F902F900895505886
:102BA000BB27AA270ED075C166D130F06BD120F0BB
:102BB00031F49F3F11F41EF45BC10EF4E095E7FB86
:102BC00051C1E92F77D180F3BA17620773078407E1
:102BD000950718F071F49EF58FC10EF4E0950B2E59
:102BE000BA2FA02D0B01B90190010C01CA01A0015F
:102BF0001124FF27591B99F0593F50F4503E68F1BA
:102C00001A16F040A22F232F342F4427585FF3CFFA
:102C1000469537952795A795F0405395C9F77EF4CB
:102C20001F16BA0B620B730B840BBAF09150A1F014
:102C3000FF0FBB1F661F771F881FC2F70EC0BA0F9A
:102C4000621F731F841F48F4879577956795B79522
:102C5000F7959E3F08F0B3CF9395880F08F099271A
:102C6000EE0F979587950895D9D008F481E00895DF
:102C70000CD00FC107D140F0FED030F021F45F3FFF
:102C800019F0F0C0511139C1F3C014D198F3992350
:102C9000C9F35523B1F3951B550BBB27AA27621720
:102CA0007307840738F09F5F5F4F220F331F441F65
:102CB000AA1FA9F333D00E2E3AF0E0E830D091509D
:102CC0005040E695001CCAF729D0FE2F27D0660F8A
:102CD000771F881FBB1F261737074807AB07B0E8C9
:102CE00009F0BB0B802DBF01FF2793585F4F2AF0DF
:102CF0009E3F510568F0B6C000C15F3FECF3983EBF
:102D0000DCF3869577956795B795F7959F5FC9F73B
:102D1000880F911D9695879597F90895E1E0660FC4
:102D2000771F881FBB1F621773078407BA0720F03D
:102D3000621B730B840BBA0BEE1F88F7E0950895A6
:102D400004D06894B111D9C00895BCD088F09F57C1
:102D500090F0B92F9927B751A0F0D1F0660F771FE7
:102D6000881F991F1AF0BA95C9F712C0B13081F0C7
:102D7000C3D0B1E00895C0C0672F782F8827B85F0F
:102D800039F0B93FCCF3869577956795B395D9F728
:102D90003EF490958095709561957F4F8F4F9F4F32
:102DA0000895E89409C097FB3EF49095809570953E
:102DB00061957F4F8F4F9F4F9923A9F0F92F96E987
:102DC000BB279395F695879577956795B795F111FC
:102DD000F8CFFAF4BB0F11F460FF1BC06F5F7F4F99
:102DE0008F4F9F4F16C0882311F096E911C07723AB
:102DF00021F09EE8872F762F05C0662371F096E8B4
:102E0000862F70E060E02AF09A95660F771F881F82
:102E1000DAF7880F9695879597F90895990F000826
:102E2000550FAA0BE0E8FEEF16161706E807F9079C
:102E3000C0F012161306E407F50798F0621B730B37
:102E4000840B950B39F40A2661F0232B242B252BB8
:102E500021F408950A2609F4A140A6958FEF811D5B
:102E6000811D089597F99F6780E870E060E00895FC
:102E70009FEF80EC089500240A9416161706180692
:102E80000906089500240A9412161306140605066E
:102E90000895092E0394000C11F4882352F0BB0FFF
:102EA00040F4BF2B11F460FF04C06F5F7F4F8F4F62
:102EB0009F4F089557FD9058440F551F59F05F3F9D
:102EC00071F04795880F97FB991F61F09F3F79F04C
:102ED00087950895121613061406551FF2CF4695CE
:102EE000F1DF08C0161617061806991FF1CF869550
:102EF0007105610508940895E894BB276627772734
:102F0000CB0197F908958ADF08F48FEF08950BD06D
:102F1000C0CFB1DF28F0B6DF18F0952309F0A2CFBB
:102F2000A7CF1124EACFC6DFA0F3959FD1F3950F69
:102F300050E0551F629FF001729FBB27F00DB11D3D
:102F4000639FAA27F00DB11DAA1F649F6627B00DCD
:102F5000A11D661F829F2227B00DA11D621F739FB6
:102F6000B00DA11D621F839FA00D611D221F749FC4
:102F70003327A00D611D231F849F600D211D822F0B
:102F8000762F6A2F11249F5750408AF0E1F0882352
:102F90004AF0EE0FFF1FBB1F661F771F881F91505F
:102FA0005040A9F79E3F510570F05CCFA6CF5F3F20
:102FB000ECF3983EDCF3869577956795B795F79592
:102FC000E7959F5FC1F7FE2B880F911D969587951A
:102FD00097F9089511F40EF44BCF4EC073DFD0F380
:102FE0009923D9F3CEF39F57550B87FF55D05695AC
:102FF0009795B0E020F4660F771F881FBB1F1F93C3
:103000000F9300249001A0018001F001A0E80E0FB1
:103010001F1F0A1E511D601B710B8009B50B48F460
:10302000600F711F801DB51F0E1B1F0B0A0A51096F
:1030300007C02E0F3F1F4A1F0E0F1F1F0A1E511DD4
:10304000660F771F881FBB1FA695F795E795F8F6C3
:103050000617170708065B07211D311D411D0F913B
:103060001F91B901842F9158880F969587950895DF
:10307000D5DE880B990B08959F3F49F0915028F4B5
:10308000869577956795B7959F5F80389F4F880F96
:103090009695879597F9089591505040660F771F40
:1030A000881FD2F70895629FD001739FF001829F1D
:1030B000E00DF11D649FE00DF11D929FF00D839FC7
:1030C000F00D749FF00D659FF00D9927729FB00D64
:1030D000E11DF91F639FB00DE11DF91FBD01CF0177
:1030E00011240895991B79E004C0991F961708F0E0
:1030F000961B881F7A95C9F780950895AA1BBB1B5C
:1031000051E107C0AA1FBB1FA617B70710F0A61BE7
:10311000B70B881F991F5A95A9F780959095BC0108
:10312000CD01089597FB092E07260AD077FD04D01C
:10313000E5DF06D000201AF4709561957F4F089561
:10314000F6F7909581959F4F0895A1E21A2EAA1B3C
:10315000BB1BFD010DC0AA1FBB1FEE1FFF1FA21747
:10316000B307E407F50720F0A21BB30BE40BF50B44
:10317000661F771F881F991F1A9469F760957095CD
:10318000809590959B01AC01BD01CF01089597FBFF
:10319000092E05260ED057FD04D0D7DF0AD0001C1B
:1031A00038F450954095309521953F4F4F4F5F4FE4
:1031B0000895F6F790958095709561957F4F8F4FA4
:1031C0009F4F0895EE0FFF1F0590F491E02D099495
:1031D000911106C0803219F089508550D0F70895BA
:1031E0009927882708952F923F924F925F926F926E
:1031F0007F928F929F92AF92BF92CF92DF92EF9287
:10320000FF920F931F93CF93DF93CDB7DEB7CA1B07
:10321000DB0B0FB6F894DEBF0FBECDBF09942A8832
:10322000398848885F846E847D848C849B84AA84DA
:10323000B984C884DF80EE80FD800C811B81AA8167
:10324000B981CE0FD11D0FB6F894DEBF0FBECDBF32
:08325000ED010895F894FFCF91
:1032580058590073657420746F2064656661756CD5
:10326800742073657475700020006D6F746F7241FF
:1032780044697220006D6F746F424469722000487F
:10328800656967687420005769647468200053771B
:103298006974636820004D313120004D3130205869
:1032A8005920004100204200205300504F5320581D
:1032B800002059004F4B006E616E00696E66006F0A
:1032C8007666002E00C800E803FFFF0B0A03090C0E
:1032D8000D0802FFFF1011140F150E060705040054
:1032E800000000980D670D200D290D3E0D4F0D00B3
:1032F8000000000A121113AD11C911B911E711002C
:00000001FF
