:100000000C947D000C94A5000C94A5000C940009A0
:100010000C9400090C9400090C94A5000C94A50004
:100020000C94A5000C94A5000C94A5000C940C074E
:100030000C94A5000C94A5000C94A5000C94A500AC
:100040000C946B0B0C94A5000C94370E0C94690E59
:100050000C94A5000C94A5000C94A5000C94A5008C
:100060000C943E0A0C94A500000000080002010058
:100070000003040700000000000000000102040863
:100080001020408001020408102001020408102002
:10009000040404040404040402020202020203032E
:1000A0000303030300000000250028002B000000CC
:1000B0000000240027002A004E414E494E49545961
:1000C000494E46CDCCCC3D0AD7233C17B7D1387723
:1000D000CC2B329595E6241FB14F0A000020410039
:1000E00000C84200401C4620BCBE4CCA1B0E5AAE83
:1000F000C59D74001806110A990E11241FBECFEF7A
:10010000D8E0DEBFCDBF11E0A0E0B1E0E2EFFCE25D
:1001100002C005900D92A439B107D9F724E0A4E9F3
:10012000B1E001C01D92A133B207E1F710E0CAEFC0
:10013000D0E004C02297FE010E944114C43FD107C1
:10014000C9F70E94DD0E0C9477160C940000181667
:10015000190614F460E001C061E088EF91E00E94AC
:10016000AA0661E088EF91E00E94BA0660E088EF9D
:1001700091E00C94BA061816190614F460E001C058
:1001800061E084EF91E00E94AA0661E084EF91E0D3
:100190000E94BA0660E084EF91E00C94BA062F92B8
:1001A0003F924F925F926F927F928F929F92AF9207
:1001B000BF92CF92DF92EF92FF920F931F93CF9354
:1001C000DF93CDB7DEB72C970FB6F894DEBF0FBE26
:1001D000CDBF20900A0130900B01009106021091D2
:1001E00007028091020290910302081B190B2091D3
:1001F0000402309105028091000290910102281BB7
:10020000390B3C872B87690137FF03C0D194C19418
:10021000D108380117FF04C066247724601A710AD8
:1002200073016C147D040CF47601B701882777FD07
:100230008095982F0E9456124B015C01B3018827CC
:1002400077FD8095982F0E945612A50194010E9477
:10025000BB116F83788789879A87B601882777FDD6
:100260008095982F0E945612A50194010E94BB11FF
:100270002B013C01FC82EB82812C912C54017501F5
:1002800064014FEF5FEF5E834D8380910202909196
:1002900003029A8389838091060290910702E98183
:1002A000FA81E817F90709F4B8C02F813885498524
:1002B0005A85C701B6010E9453116B017C0120E0F1
:1002C00030E040E85FE30E94061387FD27C0101668
:1002D00011061CF48091FF0102C08091FE01992754
:1002E00087FD9095101611061CF421E030E002C045
:1002F0002FEF3FEFE981FA812E0F3F1F309303026A
:10030000209302020E94A70020E030E040E85FE373
:10031000C701B6010E9452116B017C0120910002BD
:10032000309101023A832983809104029091050261
:1003300028173907D9F1A3019201C501B4010E9420
:1003400053114B015C0120E030E040E85FE30E9484
:10035000061387FD2BC04B855C85141615061CF40F
:100360008091FD0102C08091FC01992787FD909545
:10037000EB85FC851E161F061CF421E030E002C050
:100380002FEF3FEF49815A81240F351F309301022F
:10039000209300020E94BB0020E030E040E85FE3D1
:1003A000C501B4010E9452114B015C018D819E81F7
:1003B000280E391E80910C0190910D0128163906E6
:1003C0004CF020910A0130910B01C1012215330537
:1003D0000CF4C9012090D5013090D601280E391EA9
:1003E000C1010E94B50B80910A0190910B012091EF
:1003F0000C0130910D01821B930BEB81FC81E817FE
:10040000F90724F421E030E03E832D834B815C81A9
:10041000415051095C834B8338CF209104023091C5
:10042000050280910002909101028217930709F062
:1004300075CF2C960FB6F894DEBF0FBECDBFDF91FF
:10044000CF911F910F91FF90EF90DF90CF90BF90D1
:10045000AF909F908F907F906F905F904F903F9064
:100460002F9008954F925F926F927F928F929F92FA
:10047000AF92BF92CF92DF92EF92FF92CF93DF9332
:1004800000D000D0CDB7DEB7C0901002D0901102DE
:10049000E0901202F090130220911802309119029C
:1004A00040911A0250911B02C701B6010E945211DD
:1004B0002B013C0180910C0290910D02A0910E0243
:1004C000B0910F0289839A83AB83BC83209114027D
:1004D000309115024091160250911702BC01CD01D6
:1004E0000E9452114B015C01A3019201C301B201B0
:1004F0000E940A132B013C01A5019401C501B4011E
:100500000E940A139B01AC01C301B2010E94531166
:100510000E9471132FE632E143E85AE30E94B711BB
:1005200087FD52C020E030E048E455E4C701B60141
:100530000E940A1320E030E044EB53E40E94BB1118
:100540000E942312709307026093060220E030E0BD
:1005500048E455E469817A818B819C810E940A1369
:1005600020E030E044EB53E40E94BB1120E030E097
:1005700040EA50E40E940A130E942312709305027D
:10058000609304020E94CF008091100290911102AA
:10059000A0911202B0911302809318029093190255
:1005A000A0931A02B0931B0280910C0290910D024D
:1005B000A0910E02B0910F02809314029093150245
:1005C000A0931602B09317020F900F900F900F9008
:1005D000DF91CF91FF90EF90DF90CF90BF90AF90E1
:1005E0009F908F907F906F905F904F9008951092A2
:1005F00018021092190210921A0210921B0280E047
:1006000090E0A0E7B2E48093140290931502A093C7
:100610001602B093170210920302109202028AE6A9
:100620009AE090930102809300020895CF93DF93A4
:1006300000D0CDB7DEB740911802509119026091F9
:100640001A0270911B0240931002509311026093A2
:10065000120270931302409114025091150260919E
:1006600016027091170240930C0250930D02609392
:100670000E0270930F02AE014F5F5F4F6BE271E0AD
:100680000E947514AE014F5F5F4F6BE271E080E036
:1006900090E00E947514009709F44BC0FC01208182
:1006A000283561F401960E944514609310027093FE
:1006B00011028093120290931302E4CF293561F462
:1006C00001960E94451460930C0270930D02809372
:1006D0000E0290930F02D6CF2A3561F401960E9444
:1006E0004514609308027093090280930A02909364
:1006F0000B02C8CF263491F401960E94451420E0E5
:1007000030E040E752E40E94BB1160931C027093FA
:100710001D0280931E0290931F02B4CF213409F072
:10072000B1CF01960E9449149093D6018093D501D0
:10073000A9CF0E9432020F900F90DF91CF910895C0
:1007400064E271E082E993E00E942A0F22E030E047
:1007500040E050E068E475E482E993E00E94F7101D
:1007600060E282E993E00E942C0F409118025091C0
:10077000190260911A0270911B0222E030E082E9B6
:1007800093E00E94F71060E282E993E00E942C0F50
:100790004091140250911502609116027091170257
:1007A00022E030E082E993E00E94F7106DE271E010
:1007B00082E993E00E942A0F6091280270E04AE0EB
:1007C00050E082E993E00E94EC0F60E371E082E97F
:1007D00093E00E942A0F6091290270E04AE050E005
:1007E00082E993E00E94EC0F63E371E082E993E019
:1007F0000E942A0F60912A0270912B024AE050E079
:1008000082E993E00E94EC0F66E371E082E993E0F5
:100810000E942A0F60912C0270912D024AE050E054
:1008200082E993E00E94EC0F69E371E082E993E0D2
:100830000E942A0F60912E0270912F024AE050E030
:1008400082E993E00C94F40FCF93DF9300D0CDB7FF
:10085000DEB7AE014F5F5F4F6BE271E00E9475142F
:1008600089819A810E9449149093D6018093D50181
:100870000F900F90DF91CF910895CF93DF9300D029
:10088000CDB7DEB7AE014F5F5F4F6BE271E00E9404
:10089000751489819A810E944914BC0180EE91E00F
:1008A0000E94E3060F900F90DF91CF910895CF93B0
:1008B000DF9300D0CDB7DEB7AE014F5F5F4F6BE285
:1008C00071E00E94751489819A810E944914BC01CB
:1008D00087ED91E00E949B080F900F90DF91CF91E0
:1008E0000895CF93DF93EC010E9449148130910564
:1008F000D1F04C97E9F4109210021092110210926C
:1009000012021092130280E090E0A0E7B2E480931C
:100910000C0290930D02A0930E02B0930F02DF9190
:10092000CF910C943202CE01DF91CF910C9416033B
:10093000DF91CF9108950F931F93CF93DF9300E240
:1009400012E0C0E0D0E0F80161918F01CE010E9479
:10095000AC142196C034D105B1F7DF91CF911F912E
:100960000F9108950F931F93CF93DF9300D0CDB7CE
:10097000DEB7AE014F5F5F4F6BE271E00E9475140E
:100980008C01012B49F1AE014F5F5F4F6BE271E0CB
:1009900080E090E00E9475148C01FC01808181341C
:1009A00039F4C80101960E94491480932802E9CFC6
:1009B000823439F4C80101960E94491480932902B7
:1009C000E0CF8434F1F6C80101960E944914909357
:1009D0002B0280932A02D5CF0E949B040F900F9088
:1009E000DF91CF911F910F9108950F931F93CF9394
:1009F000DF9300D0CDB7DEB7AE014F5F5F4F6BE244
:100A000071E00E9475148C01012B11F1AE014F5F52
:100A10005F4F6BE271E080E090E00E9475148C0102
:100A2000FC018081853549F4C80101960E94491472
:100A300090932D0280932C02E7CF843429F7C801CC
:100A400001960E94491490932F0280932E02DCCFCE
:100A50000E949B040F900F90DF91CF911F910F91F7
:100A60000895CF93DF93EC010E94491483309105E0
:100A7000D1F054F48130910589F0029719F5CE0137
:100A8000DF91CF910C94F50485309105B1F084F09D
:100A90000A97C1F4DF91CF910C94A003CE01DF91AE
:100AA000CF910C945704CE01DF91CF910C94240484
:100AB000CE01DF91CF910C943D04CE01DF91CF9117
:100AC0000C94B204DF91CF910895FC01208127346A
:100AD00021F401960E94710430C02D3421F4019656
:100AE0000E9431052AC0203541F56CE371E082E9AE
:100AF00093E00E942A0F40911802509119026091D0
:100B00001A0270911B0222E030E082E993E00E9419
:100B1000F71062E471E082E993E00E942A0F4091AD
:100B2000140250911502609116027091170222E092
:100B300030E082E993E00E94F91065E471E082E917
:100B400093E00C94370F0F931F93CF93DF9300E242
:100B500012E0C0E0D0E0CE010E94A414D8018D9331
:100B60008D012196C034D105B1F744E050E068E42E
:100B700071E080E292E00E946714892BD9F06DE465
:100B800071E082E993E00E94370F80E4E0E2F2E056
:100B9000DF011D928A95E9F785E497E4A7E4B3E3C2
:100BA0008093200290932102A0932202B09323020B
:100BB0000E949B0480912802811105C081E08093EE
:100BC000FF018FEF04C08FEF8093FF0181E08093DE
:100BD000FE0180912902811105C08FEF8093FD01F4
:100BE00081E004C081E08093FD018FEF8093FC01E0
:100BF000DF91CF911F910F91089526E040E052ECD4
:100C000061E070E082E993E00E94D50D0E94A305A7
:100C10000E94F7026091DA017091DB0187ED91E0AB
:100C20000E94620860E070E087ED91E00C949B0800
:100C300061E088EF91E00E949A0662E084EF91E023
:100C40000E949A0663E080EF91E00E949A0680EF8E
:100C500091E00E94CE0690E09093EF018093EE0128
:100C600080EF91E00E94D10690E09093ED01809397
:100C7000EC0166E088EE91E00E949A0688EE91E031
:100C80000E94CE0690E09093E7018093E60188EE03
:100C900091E00E94D10690E09093E5018093E401F9
:100CA0006AE080EE91E00E94D40667E08CED91E06E
:100CB0000E949A068CED91E00E94D10690E09093FC
:100CC000DB018093DA0187ED91E00C94C80782E99B
:100CD00093E00E94F20C892B61F182E993E00E947B
:100CE0000B0DE09194018A30C1F481E08E0F809366
:100CF0009401FF27E7FDF095EB56FE4F108285E942
:100D000091E00E94650580E4E5E9F1E0DF011D92D4
:100D10008A95E9F7109294010895E03454F491E033
:100D20009E0F90939401FF27E7FDF095EB56FE4F41
:100D300080830895DC01E62FF0E0EE0FFF1FE25FF5
:100D4000FE4F80818C93818111968C93119712961E
:100D50006C9308951F93CF93DF93EC01162F61E0FE
:100D600088810E94830C612F8881DF91CF911F9130
:100D70000C94BC0C1F93CF93DF93EC01162F61E012
:100D800089810E94830C612F8981DF91CF911F910E
:100D90000C94BC0CFC0180810C94FB0BFC01808149
:100DA0000895FC01818108950E949A0681E0809354
:100DB00080008BE08093810083E08093B00084E02A
:100DC0008093B10008950F931F93CF93DF938C010D
:100DD0006F3F710519F014F06FEF70E0EB016130B7
:100DE0008FEF780714F4C1E0DFEFD7FD06C061E0B4
:100DF000C8010E94BA06BE0108C060E0C8010E9496
:100E0000BA06662777276C1B7D0BC801DF91CF914F
:100E10001F910F910C94CA061F920F920FB60F925A
:100E200011242F933F934F935F936F937F938F93EF
:100E30009F93AF93BF93EF93FF938091610287FFDE
:100E400005C010928500109284001AC020916102A2
:100E5000332727FD30958091600290E028173907ED
:100E60007CF480916102992787FD9095FC01EE0F3B
:100E7000FF1FE80FF91FEE59FD4F808186FD15C059
:100E8000809161028F5F809361022091610233271C
:100E900027FD30958091600290E028173907BCF457
:100EA000809161028C305CF112C0809161029927BF
:100EB00087FD9095FC01EE0FFF1FE80FF91FEE591B
:100EC000FD4F808160E08F730E94BC0CD9CF809170
:100ED000840090918500049680349C4918F480E445
:100EE0009CE905C0809184009091850004969093C0
:100EF0008900809388008FEF8093610238C0209131
:100F000084003091850080916102992787FD90953A
:100F1000FC01EE0FFF1FE80FF91FEE59FD4F818115
:100F20009281820F931F9093890080938800809113
:100F30006102992787FD9095FC01EE0FFF1FE80FD6
:100F4000F91FEE59FD4F808186FF11C0809161022B
:100F5000992787FD9095FC01EE0FFF1FE80FF91F01
:100F6000EE59FD4F808161E08F730E94BC0CFF91B0
:100F7000EF91BF91AF919F918F917F916F915F9111
:100F80004F913F912F910F900FBE0F901F9018958A
:100F9000209160022C30A0F431E0320F30936002D7
:100FA000FC012083822F90E0FC01EE0FFF1FE80F71
:100FB000F91FEE59FD4F88EB9BE0928381830895E2
:100FC0002FEFFC0120830895DF92EF92FF920F93A1
:100FD0001F93CF93DF93EC01D62E7A01890188818C
:100FE0008C3008F066C061E08D2D0E94830C8881F2
:100FF000A82FB0E0FD01EE0FFF1FEA0FFB1FEE5917
:10100000FD4F2D2D2F739081907C922B908360E269
:1010100072E06E197F0977FF02C06D5F7F4F759593
:10102000679575956795698340E659E0401B510BBC
:1010300057FF02C04D5F5F4F5595479555954795B2
:101040004A836CE00E94D8139CE0899FB001112470
:1010500020E030E0A901460F571FFA01EE0FFF1FF5
:10106000E40FF51FEE59FD4F908196FD16C02F5FDE
:101070003F4F2C30310571F781110FC01092800065
:1010800082E0809381001092850010928400B19AD2
:1010900080916F00826080936F00888190E0FC01F6
:1010A000EE0FFF1FE80FF91FEE59FD4F808180649E
:1010B00080838881DF91CF911F910F91FF90EF90F6
:1010C000DF90089520E639E040E252E00C94E40716
:1010D000FC0180818C3070F5918128E830E0291B7B
:1010E000310997FD3395220F331F220F331F6217EB
:1010F00073077CF0928128E532E0291B310997FDC6
:101100003395220F331F220F331F621773070CF41E
:101110009B0122503109220F331F4FB7F89490E002
:10112000FC01EE0FFF1FE80FF91FEE59FD4F328350
:1011300021834FBF08954F925F926F927F92AF923B
:10114000BF92CF92DF92EF92FF920F931F93CF93B4
:10115000DF93EC01603282E078070CF040C077FD4D
:1011600006C0653B71052CF064EB70E002C060E0E6
:1011700070E0898128E830E0281B310987FD33952C
:10118000220F331F220F331F5901CC24B7FCC09408
:10119000DC2C882777FD8095982F2A8148E552E03E
:1011A000421B510927FD5395440F551F440F551FEE
:1011B0002A01662457FC6094762C7F926F925F928E
:1011C0004F9214EBE12EF12C00E010E020E030E033
:1011D000A9010E940B110F900F900F900F90CE015C
:1011E000DF91CF911F910F91FF90EF90DF90CF9003
:1011F000BF90AF907F906F905F904F900C94680875
:101200001F920F920FB60F9211242F933F934F937B
:101210005F936F937F938F939F93AF93BF93EF935E
:10122000FF93E091C802F091C902309709F451C0D0
:10123000868DA685B785958581FF04C08C9189230D
:1012400029F447C08C91892309F043C0A389B4894C
:101250009C918589809589238C93868997890197AC
:10126000F1F7208D318DA685B785758558E040E072
:10127000C9010197F1F7842F90E095958795482F44
:101280006C91672309F04068515091F7868D81FD7C
:1012900040958091870290E001968F739927209165
:1012A0008602281749F0A0918702B0E0A857BD4FE9
:1012B0004C938093870203C0868D8160868F828DD8
:1012C000938D0197F1F7A389B4898C919589892B26
:1012D0008C93FF91EF91BF91AF919F918F917F91EF
:1012E0006F915F914F913F912F910F900FBE0F9093
:1012F0001F9018958091F90290E02091FA02821BCC
:10130000910908952091FA028091F902281750F46A
:10131000E22FF0E0E550FD4F808190E02F5F2093B9
:10132000FA0208958FEF9FEF0895E091FA028091FD
:10133000F902E81730F4F0E0E550FD4F808190E0CD
:1013400008958FEF9FEF08950895CF92DF92EF9267
:10135000FF920F931F93CF93DF937C01CB018A0100
:101360002091D602222389F0EB016B01C40ED51E19
:10137000CC15DD0569F06991D701ED91FC910190E3
:10138000F081E02DC7010995F3CF642F0E94150A63
:10139000C801DF91CF911F910F91FF90EF90DF90E7
:1013A000CF900895CF93DF931F92CDB7DEB76983B7
:1013B0002091D6022223D1F02091D702203240F092
:1013C00021E030E0FC013383228380E090E015C00F
:1013D0008091D802E82FF0E0E752FD4F9981908389
:1013E0008F5F8093D8028093D70205C061E0CE0161
:1013F00001960E94150A81E090E00F90DF91CF9155
:101400000895FC011382128248EE53E060E070E020
:10141000448355836683778386E691E09183808356
:1014200008958AEC92E00C94010A613298F42091BC
:101430008803243089F460933D03FC018FE393E03B
:10144000DC012A2F281B261718F421912D93F9CFA0
:1014500080E0089581E0089582E0089585ED80930D
:10146000BC008091BC0084FDFCCF109288030895DD
:1014700085EC8093BC001092880308951F920F9210
:101480000FB60F9211242F933F934F935F936F9357
:101490007F938F939F93AF93BF93EF93FF9380912D
:1014A000B900887F803609F49CC068F5883209F459
:1014B0005BC090F4803109F454C038F4882309F4F7
:1014C000F5C0883009F44DC0F5C0883109F44CC02E
:1014D000803209F45DC0EEC0803409F468C048F47D
:1014E000803309F455C0883309F0E4C080931B03AE
:1014F000A8C0803509F44FC0883509F45DC0883430
:1015000009F0D8C0D5C0883909F4C6C0A8F4883716
:1015100009F467C038F4883609F463C0803709F4E9
:1015200060C0C8C0883809F4B7C0803909F45FC00A
:10153000803809F0BFC05BC0803B09F485C038F437
:10154000803A09F466C0883A09F47EC0B3C0803C92
:1015500009F4A6C0883C09F4A3C0883B09F489C0FB
:10156000A9C08091870310C09091600380915F03B0
:10157000981770F5E091600381E08E0F809360030F
:10158000F0E0EF59FC4F80818093BB0085EC85C073
:1015900080931B038DC0E091600381E08E0F8093E8
:1015A00060038091BB00F0E0EF59FC4F8083909185
:1015B000600380915F036DC0E091600381E08E0F56
:1015C000809360038091BB00F0E0EF59FC4F808373
:1015D0008091860381116CC081E08093850384EA49
:1015E00060C083E08093880310921C03CFCF80916A
:1015F0001C03803208F050C0E0911C0381E08E0F84
:1016000080931C038091BB00F0E0E35EFC4F80837D
:10161000BDCF80911C03803230F4E0911C03F0E0D8
:10162000E35EFC4F10820E942E0A60911C0370E062
:10163000E0918103F09182038DE193E0099510928E
:101640001C030E94380A36C084E0809388031092FD
:101650003E0310923D03E0918303F09184030995CA
:1016600080913D03811105C081E080933D0310927C
:101670003F03E0913E0381E08E0F80933E03F0E054
:10168000E15CFC4F80818093BB0090913E03809190
:101690003D03981708F47ACF85E88093BC000AC010
:1016A00085EC8093BC001092880304C010921B0349
:1016B0000E942E0AFF91EF91BF91AF919F918F9160
:1016C0007F916F915F914F913F912F910F900FBE3E
:1016D0000F901F9018951F920F920FB60F92112422
:1016E0002F933F938F939F93AF93BF9380918A03E0
:1016F00090918B03A0918C03B0918D03309189035D
:1017000023E0230F2D3720F40196A11DB11D05C044
:1017100026E8230F0296A11DB11D20938903809313
:101720008A0390938B03A0938C03B0938D038091D5
:101730008E0390918F03A0919003B0919103019635
:10174000A11DB11D80938E0390938F03A0939003EE
:10175000B0939103BF91AF919F918F913F912F9142
:101760000F900FBE0F901F9018958230910538F0A2
:10177000880F991F880F991F05970197F1F7089512
:10178000789484B5826084BD84B5816084BD85B55C
:10179000826085BD85B5816085BDEEE6F0E0808123
:1017A00081608083E1E8F0E0108280818260808344
:1017B000808181608083E0E8F0E0808181608083C7
:1017C000E1EBF0E0808184608083E0EBF0E08081F9
:1017D00081608083EAE7F0E080818460808380819B
:1017E0008260808380818160808380818068808343
:1017F0001092C10008951F93CF93DF93182FEB0130
:1018000061E00E94830C209711F460E004C0CF3F98
:10181000D10539F461E0812FDF91CF911F910C94B4
:10182000BC0CE12FF0E0E859FF4FE491E330F9F010
:1018300048F4E130B9F0E230A1F584B5806284BDAE
:10184000C8BD34C0E730E9F0E83019F1E43049F5BB
:1018500080918000806280938000D0938B00C09341
:101860008A0024C084B5806884BDC7BD1FC0809134
:101870008000806880938000D0938900C0938800A6
:1018800015C08091B00080688093B000C093B30011
:101890000DC08091B00080628093B000C093B4000E
:1018A00005C0C038D1050CF0B5CFAFCFDF91CF91D7
:1018B0001F910895833081F028F4813099F08230AF
:1018C000A1F008958730A9F08830B9F08430D1F4C0
:1018D000809180008F7D03C0809180008F778093FE
:1018E0008000089584B58F7702C084B58F7D84BD54
:1018F00008958091B0008F7703C08091B0008F7DF4
:101900008093B0000895CF93DF9390E0FC01E458FA
:10191000FF4F2491FC01E057FF4F8491882349F148
:1019200090E0880F991FFC01E255FF4FA591B491FB
:101930008C559F4FFC01C591D4919FB7611108C090
:10194000F8948C91209582238C93888182230AC0FD
:10195000623051F4F8948C91322F309583238C931C
:101960008881822B888304C0F8948C91822B8C937D
:101970009FBFDF91CF9108950F931F93CF93DF9374
:101980001F92CDB7DEB7282F30E0F901E859FF4F9D
:101990008491F901E458FF4F1491F901E057FF4F8A
:1019A00004910023C9F0882321F069830E945A0C16
:1019B0006981E02FF0E0EE0FFF1FEC55FF4FA5917E
:1019C000B4919FB7F8948C91611103C01095812355
:1019D00001C0812B8C939FBF0F90DF91CF911F91FE
:1019E0000F910895FC01818D228D90E0805C9F4FC6
:1019F000821B91098F7399270895FC01918D828D27
:101A0000981731F0828DE80FF11D858D90E00895D3
:101A10008FEF9FEF0895FC01918D828D981761F0F3
:101A2000828DDF01A80FB11D5D968C91928D9F5F15
:101A30009F73928F90E008958FEF9FEF08958FE846
:101A40009EE0892B49F080E090E0892B29F00E94EC
:101A50008F0E81110C9400000895FC01848DDF012C
:101A6000A80FB11DA35ABF4F2C91848D90E0019611
:101A70008F739927848FA689B7892C93A089B18900
:101A80008C9180648C93938D848D981306C002880A
:101A9000F389E02D80818F7D80830895CF93DF933C
:101AA000EC01888D8823C9F0EA89FB89808185FD56
:101AB00005C0A889B9898C9186FD0FC00FB607FCB7
:101AC000F5CF808185FFF2CFA889B9898C9185FFF8
:101AD000EDCFCE010E942D0DE7CFDF91CF9108957C
:101AE000CF92DF92FF920F931F93CF93DF931F92BA
:101AF000CDB7DEB76C0181E0D60158968C9358972C
:101B00005B969C915B975C968C915C97981307C051
:101B10005096ED91FC915197808185FD2EC0F60184
:101B2000038D10E00F5F1F4F0F731127F02EF6018A
:101B3000848DF81211C00FB607FCF9CFD60150966C
:101B4000ED91FC915197808185FFF1CFC6016983AA
:101B50000E942D0D6981EBCF838DE80FF11DE35AB3
:101B6000FF4F6083D6015B960C935B975296ED9185
:101B7000FC915397808180620CC0D6015696ED91FE
:101B8000FC91579760835096ED91FC91519780811D
:101B90008064808381E090E00F90DF91CF911F916E
:101BA0000F91FF90DF90CF900895BF92CF92DF9278
:101BB000EF92FF92CF93DF93EC016A017B01B22E8B
:101BC000E889F98982E08083411581EE5807610533
:101BD0007105A1F060E079E08DE390E0A701960146
:101BE0000E94E41321503109410951095695479546
:101BF00037952795211580E1380798F0E889F9890C
:101C0000108260E874E88EE190E0A70196010E94DE
:101C1000E4132150310941095109569547953795EB
:101C20002795EC85FD853083EE85FF852083188E12
:101C3000EC89FD89B082EA89FB898081806180839B
:101C4000EA89FB89808188608083EA89FB898081B9
:101C500080688083EA89FB8980818F7D8083DF9122
:101C6000CF91FF90EF90DF90CF90BF9008951F929B
:101C70000F920FB60F9211242F938F939F93EF9390
:101C8000FF93E091A203F091A3038081E091A80368
:101C9000F091A90382FD12C090818091AB038F5F08
:101CA0008F732091AC03821751F0E091AB03F0E009
:101CB000EE56FC4F958F8093AB0301C08081FF915E
:101CC000EF919F918F912F910F900FBE0F901F90CA
:101CD00018951F920F920FB60F9211242F933F93D6
:101CE0004F935F936F937F938F939F93AF93BF9324
:101CF000EF93FF9382E993E00E942D0DFF91EF9106
:101D0000BF91AF919F918F917F916F915F914F9113
:101D10003F912F910F900FBE0F901F90189582E961
:101D200093E00E94F20C21E0892B09F420E0822F3D
:101D30000895109295031092940388EE93E0A0E02A
:101D4000B0E08093960390939703A0939803B09389
:101D5000990386E791E0909393038093920385EC37
:101D600090E090939F0380939E0384EC90E0909387
:101D7000A1038093A00380EC90E09093A303809351
:101D8000A20381EC90E09093A5038093A40382ECDE
:101D900090E09093A7038093A60386EC90E0909345
:101DA000A9038093A8031092AB031092AC03109286
:101DB000AD031092AE03089508950E94C00B0E94D7
:101DC000DC0E0E94FD05CFE1DDE00E946706209752
:101DD000E1F30E941F0DF9CFCF92DF92EF92FF92B5
:101DE0000F931F93CF93DF936C017A01EB01E60E03
:101DF000F71E00E010E0CE15DF0561F06991D60115
:101E0000ED91FC910190F081E02DC6010995080F3C
:101E1000191FF1CFC801DF91CF911F910F91FF9052
:101E2000EF90DF90CF9008956115710581F0DB018F
:101E30000D900020E9F7AD0141505109461B570BA9
:101E4000DC01ED91FC910280F381E02D099480E0AA
:101E500090E008950C94140FDC01ED91FC91019039
:101E6000F081E02D099462E871E00C94140F0F9357
:101E70001F93CF93DF93EC010E94140F8C01CE01CE
:101E80000E94330F800F911FDF91CF911F910F910F
:101E900008958F929F92AF92BF92CF92DF92EF926E
:101EA000FF920F931F93CF93DF93CDB7DEB7A19728
:101EB0000FB6F894DEBF0FBECDBF7C01C42EE52F58
:101EC000CB01D22E19A221E02D1510F02AE0D22E3E
:101ED0008E010F5D1F4F8D2C912CA12CB12C6C2DE0
:101EE0007E2FA50194010E94E4138C2DD29E8019AF
:101EF0001124015011098A3014F4805D01C0895CFD
:101F0000F8018083211531054105510521F0C22ECC
:101F1000E32FCA01E4CFB801C7010E94140FA196B4
:101F20000FB6F894DEBF0FBECDBFDF91CF911F91EA
:101F30000F91FF90EF90DF90CF90BF90AF909F9068
:101F40008F900895CF92DF92EF92FF920F931F939D
:101F5000CF93DF93EC016A017B012115310579F400
:101F6000E881F9810190F081E02D642FDF91CF911C
:101F70001F910F91FF90EF90DF90CF9009942A303E
:101F80003105E9F477FF1AC06DE20E942C0F8C0135
:101F900044275527BA014C195D096E097F092AE0CB
:101FA000CE010E94490F800F911FDF91CF911F91A9
:101FB0000F91FF90EF90DF90CF9008952AE0B70146
:101FC000A601CE01DF91CF911F910F91FF90EF906D
:101FD000DF90CF900C94490F9A01AB01662757FD13
:101FE0006095762F0C94A20F0F931F93CF93DF93DE
:101FF000EC019A01AB01662757FD6095762F0E9490
:10200000A20F8C01CE010E94330F800F911FDF9130
:10201000CF911F910F9108954F925F926F927F928F
:102020008F929F92AF92BF92CF92DF92EF92FF92E8
:102030000F931F93CF93DF93EC016A017B01B22EC4
:102040009A01AB01C701B6010E94AF13882319F0B2
:1020500065E871E027C026013701E89477F82FEF93
:102060003FEF4FE75FE7C301B2010E94AF13811159
:102070000DC02FEF3FEF4FE75FE7C301B2010E94B2
:10208000B71118161CF469E871E00CC02FEF3FEF90
:102090004FE75FE4C701B6010E9406131816ACF4BF
:1020A0006DE871E0CE01DF91CF911F910F91FF900C
:1020B000EF90DF90CF90BF90AF909F908F907F90E8
:1020C0006F905F904F900C94140F2FEF3FEF4FE7FE
:1020D0005FECC701B6010E94B71187FDE1CF20E098
:1020E00030E0A901C701B6010E94B71187FF0AC0FD
:1020F0006DE2CE010E942C0F8C01F7FAF094F7F8F4
:10210000F09402C000E010E0A12C60E070E080E0FC
:102110009FE3AB1441F020E030E040E251E40E9444
:10212000BB11A394F6CF9B01AC01C701B6010E947D
:1021300053116B017C010E9428122B013C010E946B
:1021400054129B01AC01C701B6010E9452116B01F0
:102150007C012AE0B301A201CE010E94490F080FC1
:10216000191FBB2039F061E971E0CE010E94140F04
:10217000080F191F7B2C772041F120E030E040E26E
:1021800051E4C701B6010E940A136B017C010E9451
:1021900023124B01AA2497FCA094BA2C2AE030E029
:1021A000B501A401CE010E94A20F080F191FC5019D
:1021B000B4010E9456129B01AC01C701B6010E94F6
:1021C00052116B017C017A94D6CFC801DF91CF9177
:1021D0001F910F91FF90EF90DF90CF90BF90AF9045
:1021E0009F908F907F906F905F904F9008950C9488
:1021F0000C100F931F93CF93DF93EC010E940C10F0
:102200008C01CE010E94330F800F911FDF91CF917F
:102210001F910F9108954F925F926F927F92AF92AC
:10222000BF92CF92DF92EF92FF920F931F93CF93C3
:10223000DF93CDB7DEB729013A01621B730B840B24
:10224000950B29893A894B895C892A193B094C09E4
:102250005D09298B3A8B4B8B5C8B9B01AC016989A7
:102260007A898B899C890E94C813E418F5080609AD
:102270001709A80197010E9406142A0D3B1D4C1D49
:102280005D1DCA01B901DF91CF911F910F91FF90A0
:10229000EF90DF90CF90BF90AF907F906F905F9066
:1022A0004F9008955058BB27AA270ED075C166D10C
:1022B00030F06BD120F031F49F3F11F41EF45BC17C
:1022C0000EF4E095E7FB51C1E92F77D180F3BA17FF
:1022D000620773078407950718F071F49EF58FC1A4
:1022E0000EF4E0950B2EBA2FA02D0B01B901900131
:1022F0000C01CA01A0011124FF27591B99F0593F75
:1023000050F4503E68F11A16F040A22F232F342FBC
:102310004427585FF3CF469537952795A795F0400A
:102320005395C9F77EF41F16BA0B620B730B840B1F
:10233000BAF09150A1F0FF0FBB1F661F771F881FD7
:10234000C2F70EC0BA0F621F731F841F48F487952F
:1023500077956795B795F7959E3F08F0B3CF93951E
:10236000880F08F09927EE0F979587950895D9D093
:1023700008F481E008950CD00FC107D140F0FED0E1
:1023800030F021F45F3F19F0F0C0511139C1F3C0B2
:1023900014D198F39923C9F35523B1F3951B550B29
:1023A000BB27AA2762177307840738F09F5F5F4F28
:1023B000220F331F441FAA1FA9F333D00E2E3AF069
:1023C000E0E830D091505040E695001CCAF729D083
:1023D000FE2F27D0660F771F881FBB1F26173707D2
:1023E0004807AB07B0E809F0BB0B802DBF01FF2702
:1023F00093585F4F2AF09E3F510568F0B6C000C168
:102400005F3FECF3983EDCF3869577956795B7953B
:10241000F7959F5FC9F7880F911D9695879597F956
:102420000895E1E0660F771F881FBB1F62177307CF
:102430008407BA0720F0621B730B840BBA0BEE1FE4
:1024400088F7E095089504D06894B111D9C0089533
:10245000BCD088F09F5790F0B92F9927B751A0F0C2
:10246000D1F0660F771F881F991F1AF0BA95C9F728
:1024700012C0B13081F0C3D0B1E00895C0C0672F61
:10248000782F8827B85F39F0B93FCCF386957795D8
:102490006795B395D9F73EF49095809570956195C1
:1024A0007F4F8F4F9F4F0895E89409C097FB3EF4EC
:1024B00090958095709561957F4F8F4F9F4F992391
:1024C000A9F0F92F96E9BB279395F695879577950F
:1024D0006795B795F111F8CFFAF4BB0F11F460FFCF
:1024E0001BC06F5F7F4F8F4F9F4F16C0882311F027
:1024F00096E911C0772321F09EE8872F762F05C03B
:10250000662371F096E8862F70E060E02AF09A95D5
:10251000660F771F881FDAF7880F9695879597F9CA
:102520000895990F0008550FAA0BE0E8FEEF161664
:102530001706E807F907C0F012161306E407F507B7
:1025400098F0621B730B840B950B39F40A2661F02B
:10255000232B242B252B21F408950A2609F4A140CE
:10256000A6958FEF811D811D089597F99F6780E8DB
:1025700070E060E008959FEF80EC089500240A94D5
:102580001616170618060906089500240A9412164E
:102590001306140605060895092E0394000C11F481
:1025A000882352F0BB0F40F4BF2B11F460FF04C02E
:1025B0006F5F7F4F8F4F9F4F089557FD9058440F87
:1025C000551F59F05F3F71F04795880F97FB991F92
:1025D00061F09F3F79F0879508951216130614064F
:1025E000551FF2CF4695F1DF08C0161617061806DC
:1025F000991FF1CF86957105610508940895E894B7
:10260000BB2766277727CB0197F908958ADF08F45F
:102610008FEF08950BD0C0CFB1DF28F0B6DF18F0F0
:10262000952309F0A2CFA7CF1124EACFC6DFA0F3EC
:10263000959FD1F3950F50E0551F629FF001729F57
:10264000BB27F00DB11D639FAA27F00DB11DAA1F76
:10265000649F6627B00DA11D661F829F2227B00DC3
:10266000A11D621F739FB00DA11D621F839FA00D4E
:10267000611D221F749F3327A00D611D231F849F9E
:10268000600D211D822F762F6A2F11249F575040F5
:102690008AF0E1F088234AF0EE0FFF1FBB1F661F90
:1026A000771F881F91505040A9F79E3F510570F049
:1026B0005CCFA6CF5F3FECF3983EDCF38695779531
:1026C0006795B795F795E7959F5FC1F7FE2B880F44
:1026D000911D9695879597F9089511F40EF44BCFB7
:1026E00042C073DFD0F39923D9F3CEF39F57550B34
:1026F00087FF47D00024A0E640EA90018058569515
:10270000979528F4805C660F771F881F20F02617A6
:102710003707480730F4621B730B840B20293129DB
:102720004A2BA69517940794202531254A2758F758
:10273000660F771F881F20F026173707480730F4E9
:10274000620B730B840B200D311D411DA09581F789
:10275000B901842F9158880F969587950895E1DEE9
:10276000880B990B08959F3F31F0915020F4879585
:1027700077956795B795880F911D9695879597F9E9
:10278000089591505040660F771F881FD2F7089523
:10279000DB018F939F930E943414BF91AF91A29F4E
:1027A000800D911DA39F900DB29F900D112408954F
:1027B000991B79E004C0991F961708F0961B881F93
:1027C0007A95C9F780950895A1E21A2EAA1BBB1B22
:1027D000FD010DC0AA1FBB1FEE1FFF1FA217B307ED
:1027E000E407F50720F0A21BB30BE40BF50B661F03
:1027F000771F881F991F1A9469F7609570958095C7
:1028000090959B01AC01BD01CF010895052E97FB6A
:102810001EF400940E941D1457FD07D00E94E4137B
:1028200007FC03D04EF40C941D1450954095309540
:1028300021953F4F4F4F5F4F08959095809570952C
:1028400061957F4F8F4F9F4F0895A29FB001B39F17
:10285000C001A39F700D811D1124911DB29F700DA9
:10286000811D1124911D08950E942514A59F900D8E
:10287000B49F900DA49F800D911D11240895EE0F1B
:10288000FF1F0590F491E02D0994662777270C949B
:10289000BA14FC0188279927E89421912032E9F3A2
:1028A000293010F02E30C8F32B3241F02D3239F49C
:1028B000689404C00E949C14820F911D21912053A2
:1028C0002A30C0F31EF4909581959F4F0895FB0127
:1028D000DC014150504030F08D910190801919F485
:1028E0000020B9F7881B990B0895FA01A191B081D6
:1028F000009719F41097E1F0CD01DC01CD010D90A6
:10290000002011F4C00113C0FB012191222319F012
:102910002015D9F7F3CFFB012191201519F41E9250
:10292000119606C02223C1F70D900020A1F7D00117
:10293000FA01A193B08308957AE0979F902D879F25
:10294000802D910D11240895F999FECF92BD81BD7E
:10295000F89A992780B50895262FF999FECF1FBAC6
:1029600092BD81BD20BD0FB6F894FA9AF99A0FBEB8
:1029700001960895A0E0B0E0E0ECF4E10C94461676
:102980008B016115710521F0DB018C9311969C93ED
:10299000EC015E01BFEFAB1ABB0A7501C8808C2D3C
:1029A00090E00E941D16892B11F0E501F2CFEDE2B7
:1029B000CE1208C07E01F2E0EF0EF11CC980DD24CA
:1029C000D39409C02BE2C21205C07E0142E0E40E9E
:1029D000F11CC980D12CE701219743E050E060EC65
:1029E00070E0CE010E942516892BC1F4239645E0A4
:1029F00050E06BEB70E0CE010E942516892B09F4A4
:102A000025960115110519F0D801CD93DC93D1104D
:102A100006C160E070E080E89FE70AC143E050E053
:102A200068EB70E0CE010E942516892B59F4011540
:102A3000110509F4F9C0B2E0EB0EF11CF801F182C6
:102A4000E082F2C0F70160E070E0CB01C0E0D0E0CE
:102A50007F01A0EDAA2EAC0C29E02A1530F14D2DF6
:102A60004260B42E2D2D2870D2FE04C0211125C045
:102A7000219623C021112197A5E0B0E09B01AC0174
:102A80000E943414660F771F881F991F6A0D711DED
:102A9000811D911D6839A9E97A078A07A9E19A077A
:102AA00060F0BD2DB660BB2E08C02EEFA2120AC08A
:102AB000D3FC50C04D2D4860B42E3196D701CC9038
:102AC000DB2CC6CF2C2D2F7D253409F043C0A081EF
:102AD000AD3241F4BD2DB061DB2E7F0122E0E20E6C
:102AE000F11C0CC07F01AB3231F04FEFE41AF40A55
:102AF00021E030E006C0A2E0EA0EF11CA18122E054
:102B000030E0A053AA3018F0E21AF30A23C0F7010C
:102B100020E030E02038BCE03B075CF4A901440F22
:102B2000551F440F551F240F351F220F331F2A0F27
:102B3000311DAF014F5F5F4F7A01A081A053AA30D2
:102B400010F4FA01E7CFD4FE03C031952195310985
:102B5000C20FD31FD1FE09C00115110531F0E1E00C
:102B6000EE1AF108D801ED92FC920E9454122D2D1C
:102B70002370233019F04B015C0106C04B015C014E
:102B8000B7FAB094B7F8B09420E030E0A901C501DD
:102B9000B4010E94B711882309F43EC0D7FF06C0D4
:102BA000D195C195D10907ED10E002C00FEE10E0FC
:102BB0006801B8E1CB1AD10890E2E92EF12CCE15CC
:102BC000DF0574F0F8012591359145915491C501C7
:102BD000B4010E940A134B015C01CE19DF09EFCF4B
:102BE00004501109F594E7940C151D0541F78A2D41
:102BF000880F8B2D881F8F3F49F020E030E0A9011E
:102C0000C501B4010E94B711811106C082E290E0B3
:102C10009093300480932F04C501B40109C060E093
:102C200070E080E89FEF04C060E070E080EC9FE718
:102C3000CDB7DEB7ECE00C94621691111EC0803265
:102C400019F089508550D0F70895FB01DC014150FF
:102C5000504088F08D9181341CF08B350CF4805EEF
:102C6000659161341CF06B350CF4605E861B61115C
:102C700071F3990B0895881BFCCF99278827089535
:102C80002F923F924F925F926F927F928F929F927C
:102C9000AF92BF92CF92DF92EF92FF920F931F936A
:102CA000CF93DF93CDB7DEB7CA1BDB0B0FB6F8941B
:102CB000DEBF0FBECDBF09942A88398848885F845B
:102CC0006E847D848C849B84AA84B984C884DF80CC
:102CD000EE80FD800C811B81AA81B981CE0FD11DB0
:102CE0000FB6F894DEBF0FBECDBFED010895F89486
:022CF000FFCF14
:102CF20000003104800001000000D007F401FFFF52
:102D02000B0A03090C0D0802FFFF1011140F150E18
:102D1200060705044D313020454747200020410079
:102D2200204200205300205500204400504F5320E1
:102D320058002059004F4B004547473300736574D4
:102D420020746F2064656661756C74207365747598
:102D5200700000000000D209A5097A0982099509CC
:102D6200A40900000000700DEC0EF20C0B0DFD0C1E
:102D72004E0D0D0A006E616E00696E66006F76661A
:042D8200002E00001F
:00000001FF
