:100000000C9482000C94AA000C94AA000C94020F89
:100010000C942C0F0C94560F0C94AA000C94AA006C
:100020000C94AA000C94AA000C94AA000C94DA0D6B
:100030000C94AA000C94AA000C94AA000C94AA0098
:100040000C94A6110C94AA000C9466140C94E91458
:100050000C94AA000C94AA000C94AA000C94AA0078
:100060000C9443100C94AA00000000002400270008
:100070002A0000000000250028002B0000000000DE
:1000800023002600290004040404040404040202DA
:100090000202020203030303030301020408102007
:1000A0004080010204081020010204081020000012
:1000B0000007000201000003040600000000000029
:1000C0000000494E46494E4954594E414ECDCCCC84
:1000D0003D0AD7233C17B7D13877CC2B329595E61C
:1000E000241FB14F0A000020410000C84200401CFC
:1000F0004620BCBE4CCA1B0E5AAEC59D740062059C
:10010000B00F9C1411241FBECFEFD8E0DEBFCDBFCF
:1001100011E0A0E0B1E0EEE4F6E302C005900D923C
:10012000A63BB107D9F714E0A6EBB1E001C01D92E0
:10013000A835B107E1F710E0C4E0D1E004C0229790
:10014000FE010E94DF1ACE3FD107C9F70E940F15AA
:100150000C94251B0C940000662777270C941D0334
:10016000FC0188279927E89421912032E9F329306E
:1001700010F02E30C8F32B3241F02D3239F4689450
:1001800004C00E940E01820F911D219120532A303C
:10019000C0F31EF4909581959F4F0895FB01DC01FB
:1001A0004150504030F08D910190801919F4002099
:1001B000B9F7881B990B0895009731F4DA018D91F6
:1001C0009C91009709F40EC0DC01FB013D91219147
:1001D000222319F03217C9F3FACF332331F4DA01AD
:1001E0001D921C928827992708951197AF93BF936A
:1001F000FB013D912191321771F4332321F48827BB
:100200009927119702C01E921196FA01A193B0830B
:100210009F918F910895222369F7EACF7AE0979F03
:10022000902D879F802D910D11240895AEE0B0E0B0
:10023000ECE1F1E00C94FC1A8C0177FF02C060E065
:1002400070E8615070407E836D831A83098386E075
:100250008C83CE010196BA01A9010E9440012D8133
:100260003E8137FD09C0EF81F8852E173F070CF45A
:10027000F901E00FF11F10822E96E4E00C94181B98
:10028000ABE0B0E0E6E4F1E00C94EE1A3C012B01A7
:100290005A01FC0117821682838181FD03C06FEF32
:1002A0007FEFC6C19AE0892E1E010894211C311CE3
:1002B000F3012381F20123FD859123FF81912F0119
:1002C000882309F4B2C1853239F423FD859123FFD7
:1002D00081912F01853229F490E0B3010E94AB0493
:1002E000E7CF982FFF24EE249924FFE1FF15D0F0EB
:1002F0009B3269F09C3228F4903259F0933291F499
:100300000EC09D3249F0903369F441E024C052E0C0
:10031000F52A84E0F82A28C098E0F92A25C0E0E10F
:10032000FE2A22C0F7FC29C0892F80538A3070F43E
:10033000F6FE05C0989C902C1124980E15C0E89CE0
:10034000E02C1124E80EF0E2FF2A0EC09E3229F4C0
:10035000F6FC6BC140E4F42A07C09C3619F450E85F
:10036000F52A02C0983649F4F20123FD959123FF46
:1003700091912F01992309F0B8CF892F85548330AB
:1003800018F08052833038F444E050E0A40EB51EDB
:100390005FE359830FC0933631F0933779F093358B
:1003A00009F056C020C0F5018081898342E050E009
:1003B000A40EB51E610101E010E012C0F501C0807D
:1003C000D180F6FC03C06FEF7FEF02C0692D70E0B3
:1003D00042E050E0A40EB51EC6010E94A0048C01AC
:1003E0005FE7F52214C0F501C080D180F6FC03C0A0
:1003F0006FEF7FEF02C0692D70E042E050E0A40E85
:10040000B51EC6010E9495048C0150E8F52AF3FE42
:1004100007C01AC080E290E0B3010E94AB04EA94E6
:100420008E2D90E008171907A8F30EC0F601F7FC0F
:100430008591F7FE81916F0190E0B3010E94AB04BA
:10044000E110EA94015010400115110579F7EAC056
:10045000943611F0993669F5F7FE08C0F501208150
:1004600031814281538184E090E00AC0F5018081AE
:1004700091819C01442737FD4095542F82E090E004
:10048000A80EB91E9FE6F92257FF09C05095409566
:10049000309521953F4F4F4F5F4FE0E8FE2ACA014C
:1004A000B901A1012AE030E00E94D704D82ED21869
:1004B00040C0953729F41F2D1F7E2AE030E01DC073
:1004C0001F2D197F9F3661F0903720F4983509F081
:1004D000ACC00FC0903739F0983709F0A6C004C0FF
:1004E00028E030E00AC0106114FD146020E130E023
:1004F00004C014FD166020E132E017FF08C0F501CA
:10050000608171818281938144E050E008C0F501EF
:1005100080819181BC0180E090E042E050E0A40E37
:10052000B51EA1010E94D704D82ED2188FE7F82E4D
:10053000F122F6FE0BC05EEFF522D91438F4F4FE7A
:1005400007C0F2FC05C08FEEF82202C01D2D01C0CD
:10055000192DF4FE0DC0FE01ED0DF11D80818033DB
:1005600019F499EEF92208C01F5FF2FE05C003C01E
:100570008F2D867809F01F5F0F2DF3FC14C0F0FE5D
:100580000FC01E1510F09D2C0BC09D2C9E0C911AB7
:100590001E2D06C080E290E0B3010E94AB041F5FF5
:1005A0001E15C0F304C01E1510F4E11A01C0EE249C
:1005B00004FF0FC080E390E0B3010E94AB0402FF90
:1005C0001DC001FD03C088E790E00EC088E590E003
:1005D0000BC0802F867891F001FF02C08BE201C032
:1005E00080E2F7FC8DE290E0B3010E94AB0406C00C
:1005F00080E390E0B3010E94AB049A94D914C0F355
:10060000DA94F101ED0DF11D808190E0B3010E94BB
:10061000AB04DD20A9F706C080E290E0B3010E94A0
:10062000AB04EA94EE20C1F743CEF30166817781F3
:10063000CB012B96E2E10C940A1BA0E0B0E0E3E2D0
:10064000F3E00C94F41AEC015B016115710519F0EB
:10065000FB0191838083F9908F2D90E00E94E31A33
:10066000892BC9F7FDE2FF1621F4F990EE24E394FB
:1006700005C02BE2F21609F4F990EE248E01015028
:100680001040C80162EC70E043E050E00E947D043D
:10069000892B01F58E010E5F1F4FC80165EC70E0DC
:1006A00045E050E00E947D04892B19F48E01095F1A
:1006B0001F4FA114B10419F0F50111830083E0FC70
:1006C00004C070E090E080E814C070E090E080E842
:1006D0006FEF08C1C8016AEC70E043E050E00E948F
:1006E0007D04892B69F4A114B10429F470E090E031
:1006F00080EC6FE7F7C02296F501D183C083F6CF77
:100700008824992440E050E060E070E0EF2DE05351
:10071000EA30A0F5F2E0EF2A8E2D90E09C012870DF
:100720003070E2FE06C0232B79F50894811C911CE1
:100730002BC0232B19F0089481089108DB01CA0112
:1007400012E0880F991FAA1FBB1F1A95D1F7480FF7
:10075000591F6A1F7B1F440F551F661F771F4E0FBF
:10076000511D611D711D483929E9520729E96207A8
:1007700029E1720748F084E0E82A06C0EE3F31F430
:10078000E3FC39C098E0E92AF990C0CFE53311F0D5
:10079000E53189F529912D3219F4E0E1EE2A05C001
:1007A0002B3219F081E090E003C0299182E090E0C3
:1007B000E22FE053EA3018F0C81BD90B1CC020E030
:1007C00030E0FCE020383F075CF4C901880F991F36
:1007D000880F991F280F391F220F331F2E0F311D2D
:1007E000E991E053EA3068F3E4FE03C030952195C7
:1007F0003F4F820E931ECE2CDD24E1FE07C0A114D4
:10080000B10421F02197F501D183C083CB01BA0156
:100810000E94CC187B018C01F3E0CF22DD2423E081
:10082000C216D10421F417FB109517F91095570142
:100830006801C801B70120E030E040E050E00E94CC
:100840002F18882309F44AC097FE0DC021EEE22E2E
:1008500020E0F22E9094819491089394C0E2D0E02D
:1008600000E010E012C099EFE92E90E0F92EF6CFEB
:10087000F7012591359145915491C601B5010E942A
:1008800082195B016C018C1A9D0A8C169D0684F7F7
:10089000D595C7950F5F1F4F0630110529F08CEFD6
:1008A0009FEFE80EF91EF1CFC501D6017C018D0145
:1008B0008C2D880F8D2D881F8F3F51F0C601B501FB
:1008C00020E030E040E050E00E942F18882331F40F
:1008D00082E290E090935704809356047E2D9F2DE2
:1008E000802F612F272F392F482F562FB901CA018A
:1008F000CDB7DEB7ECE00C94101BFB01DC014150DE
:10090000504088F08D9181341CF08B350CF4805E62
:10091000659161341CF06B350CF4605E861B6111CF
:1009200071F3990B0895881BFCCFFC010590615071
:1009300070400110D8F7809590958E0F9F1F0895F5
:10094000FC016150704001900110D8F7809590959E
:100950008E0F9F1F08950F931F93CF93DF938C01EA
:10096000EB018B8181FF1BC082FF0DC02E813F8177
:100970008C819D812817390764F4E881F9810193FE
:10098000F983E88306C0E885F985802F0995892BCE
:1009900031F48E819F8101969F838E8302C00FEF79
:1009A0001FEFC801DF91CF911F910F910895FA01B8
:1009B000AA27283051F1203181F1E8946F936E7F9E
:1009C0006E5F7F4F8F4F9F4FAF4FB1E03ED0B4E08F
:1009D0003CD0670F781F891F9A1FA11D680F791FD0
:1009E0008A1F911DA11D6A0F711D811D911DA11DE1
:1009F00020D009F468943F912AE0269F11243019F1
:100A0000305D3193DEF6CF010895462F4770405D8B
:100A10004193B3E00FD0C9F7F6CF462F4F70405D3A
:100A20004A3318F0495D31FD4052419302D0A9F795
:100A3000EACFB4E0A6959795879577956795BA958F
:100A4000C9F700976105710508959B01AC010A2E55
:100A500006945795479537952795BA95C9F7620F2C
:100A6000731F841F951FA01D089580E090E0A0E0F3
:100A7000B0E08093FA019093FB01A093FC01B09346
:100A8000FD0180E090E0A0E7B2E48093FE01909346
:100A9000FF01A0930002B093010210920E02109287
:100AA0000F0210921002109211028AE69AE0A0E062
:100AB000B0E08093120290931302A0931402B093BB
:100AC000150208950F931F938EE192E061E00E945A
:100AD000F80B82E292E062E00E94F80B06E212E07C
:100AE000C80163E00E94F80BC8010E94080C8093C3
:100AF0002A0210922B02C8010E940B0C80932C0238
:100B000010922D020EE212E0C80166E00E94F80B7E
:100B1000C8010E94080C8093320210923302C8016F
:100B20000E940B0C809334021092350286E392E00F
:100B30006AE00E940E0C0AE312E0C80167E00E941E
:100B4000F80BC8010E940B0C80933E0210923F02EA
:100B500080E492E00E94960C1F910F910895CF932C
:100B6000DF93C0E0D0E0FE01EA54FE4F86E892E059
:100B7000BE0140810E948A0C2196C034D10599F7AC
:100B8000DF91CF9108950F931F93CF93DF93C0E030
:100B9000D0E086E892E0BE010E94830C06EB11E0F3
:100BA000FE01E00FF11F80832196C034D10589F743
:100BB000C80160E071E043E050E00E94CE00009781
:100BC000C9F089EB93E064E071E00E946E1780E465
:100BD000F80111928A95E9F7D801E0E0F1E083E0AD
:100BE00001900D928150E1F71092BE011092BF0169
:100BF0000E94AF05DF91CF911F910F9108950F9340
:100C00001F9389EB93E040E052EC61E070E026E056
:100C10000E9456130E94C3050E94350500E412E0AD
:100C200060913E0270913F02C8010E94D30DC8013D
:100C300060E070E00E94EC0C1F910F910895DF922C
:100C4000EF92FF920F931F93DF93CF9300D0CDB716
:100C5000DEB769E171E08E010F5F1F4FA8010E94AE
:100C6000DC007C01D02E012F1CC080E090E069E107
:100C700071E04D2D502F0E94DC007C01FC01808131
:100C8000813439F4C70101960E94B0008093BE01FF
:100C900008C0823431F4C70101960E94B0008093ED
:100CA000BF01EF2811F70E94AF050F900F90CF9171
:100CB000DF911F910F91FF90EF90DF900895DF93E8
:100CC000CF9300D0CDB7DEB769E171E0AE014F5FE1
:100CD0005F4F0E94DC0089819A810E94B000BC01B4
:100CE00080E492E00E94EC0C0F900F90CF91DF9186
:100CF0000895DF93CF9300D0CDB7DEB769E171E0FF
:100D0000AE014F5F5F4F0E94DC0089819A810E9493
:100D1000B00090934402809343020F900F90CF91C4
:100D2000DF910895DF93CF9300D0CDB7DEB769E1AF
:100D300071E0AE014F5F5F4F0E94DC0089819A81B4
:100D40000E94B000BC0186E392E00E94500C0F901C
:100D50000F90CF91DF9108950F931F9309EB13E04C
:100D6000C8016BE171E00E947116C80140E050E0DB
:100D700068E475E422E030E00E945817C80160E2A0
:100D80000E9448154091FA015091FB016091FC01CD
:100D90007091FD01C80122E030E00E945817C8019F
:100DA00060E20E9448154091FE015091FF01609160
:100DB000000270910102C80122E030E00E94581741
:100DC000C80164E271E00E9471166091BE01C80121
:100DD00070E04AE050E00E943F16C80167E271E00F
:100DE0000E9471166091BF01C80170E04AE050E0B6
:100DF0000E9452161F910F910895CF93DF93EC013B
:100E00000E94B00084309105B9F08530910534F42A
:100E10008130910549F00397C9F40AC085309105E6
:100E200079F00A9799F410C0CE010E945F060EC0B7
:100E3000CE010E9479060AC0CE010E94920606C029
:100E4000CE010E941F0602C00E94AC06DF91CF9126
:100E50000895EF92FF920F931F93DF93CF93CDB737
:100E6000DEB7C055D0400FB6F894DEBF0FBECDBF81
:100E70006B96EEACFFAC6B97FE01E35AFF4F8E0111
:100E80000F5F1F4FC80160E570E06D964EAD5FAD1E
:100E90006D979F010E94160116C08A3049F4D70150
:100EA000ED91FC910190F081E02DC7016DE0099575
:100EB000D701ED91FC910190F081E02DC701D8019F
:100EC0006D918D010995F8018081882331F7C05B10
:100ED000DF4F0FB6F894DEBF0FBECDBFCF91DF91CD
:100EE0001F910F91FF90EF9008951816190624F4A2
:100EF00082E292E060E003C082E292E061E00E9460
:100F00003D0C82E292E061E00E942A0C82E292E0D3
:100F100060E00E942A0C08951816190624F48EE148
:100F200092E060E003C08EE192E061E00E943D0C3F
:100F30008EE192E061E00E942A0C8EE192E060E096
:100F40000E942A0C08952F923F924F925F926F92C7
:100F50007F928F929F92AF92BF92CF92DF92EF9249
:100F6000FF920F931F93DF93CF93CDB7DEB72E97EA
:100F70000FB6F894DEBF0FBECDBF20917E01309139
:100F80007F013C872B87609016027090170280913A
:100F90000E0290910F02681A790A80901A029090BE
:100FA0001B028091120290911302881A990A64011F
:100FB00097FE04C0CC24DD24C818D908530177FE5D
:100FC00004C0AA24BB24A618B7081501AC14BD049C
:100FD0000CF41601B101882777FD8095982F0E94A7
:100FE000CE187B018C01B501882777FD8095982F5D
:100FF0000E94CE18A80197010E9433186D837E834A
:101000008F839887B601882777FD8095982F0E9457
:10101000CE18A80197010E94331869837A838B83C5
:101020009C838DB79EB70A970FB6F8949EBF0FBEEC
:101030008DBFEDB7FEB7319609EB13E0ADB7BEB784
:1010400012961C930E9311978AE291E09383828308
:101050003582248277826682918680860E94290763
:10106000EDB7FEB73A960FB6F894FEBF0FBEEDBFD0
:10107000C8014D815E816F81788522E030E00E9459
:101080005817C80160E20E944815C80149815A8179
:101090006B817C8122E030E00E945B172FEF3FEFF5
:1010A0003A8729870F2EF0E0AF2EF0E0BF2EF0E058
:1010B000CF2EF0E0DF2EF02D86017501442455245B
:1010C00004C180910E0290910F02A0911002B09184
:1010D000110282179307A407B50709F454C0C6018B
:1010E000B5012D813E814F8158850E94CB175B0150
:1010F0006C0120E030E040E85FE30E947E19882325
:101100000CF441C08091BE01882341F416141704E9
:101110006CF48FEF9FEF9E878D870CC01614170419
:101120002CF0AFEFBFEFBE87AD8704C0E1E0F0E089
:10113000FE87ED878D859E850E948C07C601B501CF
:1011400020E030E040E85FE30E94CA175B016C01D9
:101150008D859E859C01442737FD4095542F8091B5
:101160000E0290910F02A0911002B0911102820F15
:10117000931FA41FB51F80930E0290930F02A0939C
:101180001002B0931102209112023091130240918B
:1011900014025091150280911A0290911B02A091A5
:1011A0001C02B0911D02281739074A075B0709F492
:1011B00054C0C801B70129813A814B815C810E94EA
:1011C000CB177B018C0120E030E040E85FE30E9418
:1011D0007E1988230CF441C08091BF01882341F41B
:1011E000181419046CF4AFEFBFEFBE87AD870CC0C5
:1011F000181419042CF0EFEFFFEFFE87ED8704C001
:1012000021E030E03E872D878D859E850E94750701
:10121000C801B70120E030E040E85FE30E94CA1750
:101220007B018C018D859E859C01442737FD40956F
:10123000542F8091120290911302A0911402B09148
:101240001502820F931FA41FB51F80931202909363
:101250001302A0931402B093150289859A85AB8579
:10126000BC858A0F9B1F20917C0130917D018217E4
:1012700093074CF040917E0150917F019C014817EB
:1012800059070CF49A01E0914302F0914402E20FF5
:10129000F31FFC87EB87CF010E94EE11C101841977
:1012A000950920917E0130917F0140917C01509100
:1012B0007D01241B350B8217930724F421E030E0D5
:1012C0003A8729870894411C511C209116023091BD
:1012D00017024091180250911902421453040CF461
:1012E000F0CE20930E0230930F02409310025093E1
:1012F000110280911A0290911B02A0911C02B091E0
:101300001D028093120290931302A0931402B093D3
:1013100015022E960FB6F894DEBF0FBECDBFCF914B
:10132000DF911F910F91FF90EF90DF90CF90BF90D2
:10133000AF909F908F907F906F905F904F903F9075
:101340002F9008952F923F924F925F926F927F92CB
:101350008F929F92AF92BF92CF92DF92EF92FF92C5
:101360000F931F936090020270900302809004021A
:1013700090900502C401B3012091FA013091FB0164
:101380004091FC015091FD010E94CA175B016C0164
:101390002090060230900702409008025090090207
:1013A000C201B1012091FE013091FF014091000284
:1013B000509101020E94CA177B018C01C601B50140
:1013C000A60195010E9482195B016C01C801B70159
:1013D000A80197010E9482199B01AC01C601B501C9
:1013E0000E94CB170E94E9192FE632E143E85AE345
:1013F0000E942F1887FDB9C0C401B30120E030E07E
:1014000048E455E40E94821920E030E044EB53E4C4
:101410000E9433180E949B18609316027093170263
:101420008093180290931902C201B10120E030E0CC
:1014300048E455E40E94821920E030E044EB53E494
:101440000E94331820E030E040EA50E40E94821904
:101450000E949B1860931A0270931B0280931C02D7
:1014600090931D0209EB13E0C80164E471E00E944F
:101470007116409102025091030260910402709132
:101480000502C80122E030E00E945817C80160E25E
:101490000E944815C8016AE471E00E9471164091EB
:1014A0000602509107026091080270910902C8017A
:1014B00022E030E00E945B178DB79EB70C970FB605
:1014C000F8949EBF0FBE8DBFEDB7FEB73196ADB796
:1014D000BEB712961C930E93119780E591E093830B
:1014E00082838091160290911702A0911802B09108
:1014F000190284839583A683B78380911A02909101
:101500001B02A0911C02B0911D0280879187A287C7
:10151000B3870E9429078DB79EB70C960FB6F89433
:101520009EBF0FBE8DBF0E94A307809102029091C3
:101530000302A0910402B09105028093FA019093F6
:10154000FB01A093FC01B093FD01809106029091F4
:101550000702A0910802B09109028093FE019093C6
:10156000FF01A0930002B09301021F910F91FF9021
:10157000EF90DF90CF90BF90AF909F908F907F9033
:101580006F905F904F903F902F900895DF92EF9271
:10159000FF920F931F93DF93CF9300D0CDB7DEB7A9
:1015A00069E171E08E010F5F1F4FA8010E94DC000E
:1015B0007C018091FA019091FB01A091FC01B09116
:1015C000FD018093020290930302A0930402B09362
:1015D00005028091FE019091FF01A0910002B0915F
:1015E00001028093060290930702A0930802B09331
:1015F0000902D02E012F57C080E090E069E171E030
:101600004D2D502F0E94DC007C01FC01808188352B
:1016100069F4C70101960E94AC00609302027093C6
:10162000030280930402909305023DC0893569F45A
:10163000C70101960E94AC006093060270930702F6
:1016400080930802909309022EC08A3569F4C7017D
:1016500001960E94AC0060930A0270930B02809383
:101660000C0290930D021FC0863499F4C7010196B5
:101670000E94AC0020E030E040E752E40E943318C2
:101680006093F6017093F7018093F8019093F9014C
:101690000AC0813441F4C70101960E94B0009093C2
:1016A000440280934302EF2809F0A6CF0E94A209CA
:1016B0000F900F90CF91DF911F910F91FF90EF90BE
:1016C000DF900895CF93DF93EC010E94B00081304A
:1016D000910519F04C97F9F404C0CE010E94C60A96
:1016E0001AC080E090E0A0E0B0E080930202909306
:1016F0000302A0930402B093050280E090E0A0E70B
:10170000B2E48093060290930702A0930802B0937C
:1017100009020E94A209DF91CF910895FC01808106
:10172000873429F4CF0101960E94620B31C08D34B9
:1017300029F4CF0101960E94FD062AC0803541F5AB
:1017400089EB93E062E671E00E9471164091FA0124
:101750005091FB016091FC017091FD0189EB93E0D8
:1017600022E030E00E94581789EB93E068E671E0D0
:101770000E9471164091FE015091FF01609100029C
:101780007091010289EB93E022E030E00E945B1748
:1017900089EB93E06BE671E00E946E170895CF939A
:1017A000DF9389EB93E00E94BA13892BF1F089EB68
:1017B00093E00E94D61390918502E92FFF27E7FD61
:1017C000F095C5E4D2E0EC0FFD1F80839F5F9093FE
:1017D00085028A3051F4CE010E948E0B80E4FE0116
:1017E00011928A95E9F710928502DF91CF910895C1
:1017F000DC01E62FF0E0EE0FFF1FE058FE4F808186
:101800008C93818111968C93119712966C93089505
:10181000FC0180810895FC0181810895DC01E62F9F
:10182000F0E0EE0FFF1FE058FE4F80818C93818126
:1018300011968C93119712966C9381E0809380009F
:101840008BE08093810083E08093B00084E08093FC
:10185000B1000895FF920F931F938C01F62EFC01A7
:10186000818161E00E949312F80181816F2D0E94B5
:10187000D2121F910F91FF900895FF920F931F9323
:101880008C01F62EFC01808161E00E949312F80128
:1018900080816F2D0E94D2121F910F91FF900895A9
:1018A000EF92FF920F931F93CF93DF937C01EB0195
:1018B0006F3F710519F014F0CFEFD0E08E018FEF7C
:1018C000C130D8071CF401E01FEF0AC0D7FD08C0E3
:1018D000C70161E00E942A0CF7018081BE010AC0A5
:1018E000C70160E00E942A0C66277727601B710BF6
:1018F000F70180810E943312DF91CF911F910F91E8
:10190000FF90EF900895F999FECF72BD61BDF89AEE
:1019100080B50895F999FECF1FBA72BD61BD40BD73
:101920000FB6F894FA9AF99A0FBE0895FC018091C7
:1019300087028C3090F480838F5F80938702815080
:1019400090E0FC01EE0FFF1FE80FF91FE857FD4F75
:1019500088EB9BE09283818308958FEF80830895C5
:10196000FC0120812C30B8F58181992787FD909565
:1019700048E850E0481B590B440F551F440F551FB2
:101980006417750784F08281992787FD909548E553
:1019900052E0481B590B440F551F440F551F641745
:1019A00075070CF4AB0142505040CA01AA2797FDBD
:1019B000A095BA2F880F991FAA1FBB1F4FB7F89485
:1019C00030E0F901EE0FFF1FE20FF31FE857FD4F64
:1019D000928381834FBF0895AF92BF92CF92DF92DF
:1019E000EF92FF920F931F93CF93DF93EC019B0134
:1019F00082E0603278070CF048C077FF03C020E037
:101A000030E005C0653B710514F024EB30E000D0F8
:101A100000D0B901882777FD8095982F2981332739
:101A200027FD3095E8E8AE2EB12CA21AB30AAA0C15
:101A3000BB1CAA0CBB1CCC24B7FCC094DC2CEA81D8
:101A4000FF27E7FDF09528E532E02E1B3F0B220F24
:101A5000331F220F331F442737FD4095542FEDB716
:101A6000FEB7218332834383548320E030E040E09B
:101A700050E004EBE02EF12C012D112D0E94811776
:101A80009B010F900F900F900F90CE01B9010E9413
:101A9000B00CDF91CF911F910F91FF90EF90DF90ED
:101AA000CF90BF90AF900895CF92DF92EF92FF92C8
:101AB0001F93CF93DF93EC01162F7A016901888180
:101AC0008C3008F064C0862F61E00E9493128881F8
:101AD00090E0FC01EE0FFF1FE80FF91FE857FD4FE4
:101AE0001F738081807C812B808380E292E08E193D
:101AF0009F0964E070E00E948D1A698380E699E096
:101B00008C199D0964E070E00E948D1A6A83A88197
:101B10008A2F6CE00E946D1A682F70E0AB01440FB1
:101B2000551F460F571F440F551F440F551F20E0E8
:101B300030E0C901840F951FFC01EE0FFF1FE80F75
:101B4000F91FE857FD4F808186FD15C02F5F3F4F7D
:101B50002C30310571F724C01092800082E0809310
:101B600081001092850010928400B19A80916F00DC
:101B7000826080936F008A2F90E0FC01EE0FFF1FC0
:101B8000E80FF91FE857FD4F8081806480838881CA
:101B9000DF91CF911F91FF90EF90DF90CF9008954C
:101BA000672BD1F2E8CF40E252E020E639E00E9414
:101BB000540D08951F920F920FB60F9211242F9378
:101BC0003F934F935F936F937F938F939F93AF93C5
:101BD000BF93EF93FF938091AC0287FF05C01092F3
:101BE0008500109284002BC02091AC02332727FD82
:101BF00030958091870290E02817390704F580918D
:101C0000AC02992787FD9095FC01EE0FFF1FE80FAE
:101C1000F91FE857FD4F808186FF11C08091AC020B
:101C2000992787FD9095FC01EE0FFF1FE80FF91F24
:101C3000E857FD4F80818F7360E00E94D21280913F
:101C4000AC028F5F8093AC022091AC02332727FD5A
:101C500030958091870290E0281739070CF04EC02C
:101C60008091AC028C300CF049C0209184003091FE
:101C700085008091AC02992787FD9095FC01EE0FBD
:101C8000FF1FE80FF91FE857FD4F81819281820FF6
:101C9000931F90938900809388008091AC029927CC
:101CA00087FD9095FC01EE0FFF1FE80FF91FE85725
:101CB000FD4F808186FF2BC08091AC02992787FD64
:101CC0009095FC01EE0FFF1FE80FF91FE857FD4F3D
:101CD00080818F7361E00E94D21219C080E49CE978
:101CE00005C08091840090918500049690938900AE
:101CF000809388008FEF8093AC0209C080918400AC
:101D000090918500049680549C4940F3EACFFF915E
:101D1000EF91BF91AF919F918F917F916F915F9163
:101D20004F913F912F910F900FBE0F901F901895DC
:101D30000F931F93CF93DF93FC01738D7695717092
:101D4000A685B7859585772329F08C91892309F499
:101D500054C004C08C91892309F04FC083899489B1
:101D600020E001972FEF8F3F9207D9F7C589D689D9
:101D7000A685B785158560E031E040E050E000E0E1
:101D8000CE01202F01972FEF8F3F9207D9F78C912B
:101D9000812311F0632B03C0832F80956823330FB9
:101DA0004F5F5F4F4830510559F78789908D20E08C
:101DB00001972FEF8F3F9207D9F7711160958091AE
:101DC000EF022091F00290E001968F73907030E066
:101DD0008217930779F0E091EF02F0E0E155FD4FB3
:101DE00060838091EF0290E001968F7390708093F2
:101DF000EF0203C0838D8160838FDF91CF911F91AC
:101E00000F9108951F920F920FB60F9211242F93E6
:101E10003F934F935F936F937F938F939F93AF9372
:101E2000BF93EF93FF938091AD029091AE02009724
:101E300011F00E94980EFF91EF91BF91AF919F9189
:101E40008F917F916F915F914F913F912F910F9063
:101E50000FBE0F901F9018951F920F920FB60F9202
:101E600011242F933F934F935F936F937F938F939F
:101E70009F93AF93BF93EF93FF938091AD029091A7
:101E8000AE02009711F00E94980EFF91EF91BF9162
:101E9000AF919F918F917F916F915F914F913F9102
:101EA0002F910F900FBE0F901F9018951F920F92B9
:101EB0000FB60F9211242F933F934F935F936F931D
:101EC0007F938F939F93AF93BF93EF93FF938091F3
:101ED000AD029091AE02009711F00E94980EFF9112
:101EE000EF91BF91AF919F918F917F916F915F9192
:101EF0004F913F912F910F900FBE0F901F9018950B
:101F00002091120330E080911103281B3109C9018F
:101F100008954091110380911203481718F02FEF94
:101F20003FEF0AC0E42FF0E0EF50FD4F8081282FF3
:101F300030E04F5F40931103C9010895E091110310
:101F400080911203E81718F0EFEFFFEF06C0F0E002
:101F5000EF50FD4F8081E82FF0E0CF010895089504
:101F6000109239031092380388EE93E0A0E0B0E0BD
:101F700080933A0390933B03A0933C03B0933D03BB
:101F80008AE991E090933703809336030895CF92C6
:101F9000DF92EF92FF920F931F93CF93DF937C0119
:101FA0006B018A01809135038823A1F0C0E0D0E065
:101FB0000DC0D701ED91FC91D601AC0FBD1F019072
:101FC000F081E02DC7016C9109952196C017D107CA
:101FD00080F304C0CB01642F0E942810C801DF9158
:101FE000CF911F910F91FF90EF90DF90CF900895C8
:101FF000DF93CF930F92CDB7DEB7FC016983809159
:1020000035038823C9F080913403803238F081E0B1
:1020100090E09383828320E030E015C08091330309
:10202000E82FF0E0ED5EFC4F998190838F5F809305
:1020300033038093340305C0CE01019661E00E9412
:10204000281021E030E0C9010F90CF91DF91089571
:10205000482F613210F081E008958091420384306E
:1020600011F082E0089560938D03ACE6B3E0842F15
:102070009C01F90102C081918D938E2F841B8617DC
:10208000D0F380E008951F920F920FB60F921124A3
:102090002F933F934F935F936F937F938F939F9370
:1020A000AF93BF93EF93FF938091B90090E0887F47
:1020B00090708836910509F4D3C0893691050CF0EB
:1020C0003EC08033910509F49DC081339105D4F45D
:1020D0008031910509F474C0813191053CF4009779
:1020E00009F41CC1089709F020C16AC0803291052B
:1020F00009F483C08832910509F467C0489709F054
:1021000014C163C08834910509F4A8C089349105CD
:102110004CF48833910509F477C08034910509F0B7
:1021200004C182C08835910509F483C080369105C9
:1021300009F496C08035910509F0F7C069C0803A6E
:10214000910509F4A5C0813A9105ECF48038910518
:1021500009F48CC0813891054CF48037910509F45D
:102160007FC08837910509F0E0C07AC080399105B9
:1021700009F47CC08839910509F4C8C088389105F4
:1021800009F0D3C0C3C0883B910509F4ADC0893BB9
:1021900091054CF4883A910509F491C0803B910572
:1021A00009F0C3C08CC0883C910509F4B1C0883FD8
:1021B000910509F4AFC0803C910509F0B6C0A8C0F4
:1021C000809143038093BB00A1C090916A038091EA
:1021D0006B03981768F490916A03E92FF0E0E65BCF
:1021E000FC4F80818093BB009F5F90936A038EC0F9
:1021F00080914403882369F103C080E28093AF0398
:1022000084ED8FC080E3FACF88E38093AF0380C072
:1022100080916A039091BB00E82FF0E0E65BFC4FF1
:1022200090838F5F80936A0390916A0380916B0320
:102230006BC080916A039091BB00E82FF0E0E65BF1
:10224000FC4F90838F5F80936A03809144038823BF
:1022500029F481E08093450384EA63C084E961C086
:1022600083E0809342031092AE0350C08091AE038E
:10227000803208F04FC08091AE039091BB00E82FF0
:10228000F0E0E257FC4F90838F5F8093AE033EC037
:102290008091AE03803230F4E091AE03F0E0E2577B
:1022A000FC4F10826091AE03E0914803F091490326
:1022B0008EE893E070E009951092AE0329C084E0A7
:1022C0008093420310928C0310928D03E091460399
:1022D000F0914703099580918D03882329F481E0CB
:1022E00080938D0310926C0390918C03E92FF0E0A2
:1022F000E459FC4F80818093BB009F5F90938C03D7
:1023000090918C0380918D03981720F485EC03C085
:1023100085EC07C085E88093BC0007C01092AF032E
:1023200085E98093BC0010924203FF91EF91BF9129
:10233000AF919F918F917F916F915F914F913F915D
:102340002F910F900FBE0F901F9018951F920F9214
:102350000FB60F9211242F933F938F939F93AF93B8
:10236000BF938091B4039091B503A091B603B0914F
:10237000B7033091B8030196A11DB11D232F2D5F26
:102380002D3720F02D570196A11DB11D2093B803C4
:102390008093B4039093B503A093B603B093B703AF
:1023A0008091B0039091B103A091B203B091B303B7
:1023B0000196A11DB11D8093B0039093B103A0932A
:1023C000B203B093B303BF91AF919F918F913F91AF
:1023D0002F910F900FBE0F901F901895019739F015
:1023E000880F991F880F991F02970197F1F7089599
:1023F000789484B5826084BD84B5816084BD85B5E0
:10240000826085BD85B5816085BDEEE6F0E08081A6
:1024100081608083E1E8F0E01082808182608083C7
:10242000808181608083E0E8F0E08081816080834A
:10243000E1EBF0E0808184608083E0EBF0E080817C
:1024400081608083EAE7F0E080818460808380811E
:1024500082608083808181608083808180688083C6
:102460001092C10008951F93CF93DF93182FEB01B3
:1024700061E00E949312209709F44AC0CF3FD10532
:1024800009F449C0E12FF0E0E255FF4F8491833019
:10249000C1F0843028F4813051F08230B1F50CC0A5
:1024A000863019F1873049F1843079F514C084B54C
:1024B000806884BDC7BD33C084B5806284BDC8BD9B
:1024C0002EC080918000806880938000D093890026
:1024D000C093880024C08091800080628093800037
:1024E000D0938B00C0938A001AC08091B00080689E
:1024F0008093B000C093B30012C08091B00080629E
:102500008093B000C093B4000AC0C038D1051CF459
:10251000812F60E002C0812F61E00E94D212DF9122
:10252000CF911F910895CF93DF93482F50E0CA01B8
:1025300086569F4FFC0134914A575F4FFA018491B0
:10254000882369F190E0880F991FFC01E859FF4F3B
:10255000A591B491FC01EE58FF4FC591D49166232B
:1025600051F42FB7F8948C91932F909589238C93E5
:10257000888189230BC0623061F42FB7F8948C9165
:10258000932F909589238C938881832B88832FBFE9
:1025900006C09FB7F8948C91832B8C939FBFDF91DB
:1025A000CF910895482F50E0CA0182559F4FFC01FA
:1025B0002491CA0186569F4FFC0194914A575F4F60
:1025C000FA013491332309F440C0222351F123301E
:1025D00071F0243028F42130A1F0223011F514C01C
:1025E0002630B1F02730C1F02430D9F404C08091F6
:1025F00080008F7703C0809180008F7D8093800062
:1026000010C084B58F7702C084B58F7D84BD09C0AA
:102610008091B0008F7703C08091B0008F7D809350
:10262000B000E32FF0E0EE0FFF1FEE58FF4FA59133
:10263000B4912FB7F894662321F48C919095892357
:1026400002C08C91892B8C932FBF0895DC015C967E
:102650008C915C97FD01E80FF11DE35AFF4F20813B
:102660005C968C915C9790E001968F7390705C966D
:102670008C935C975696ED91FC91579720835096DA
:10268000ED91FC9151978081806480835B969C9151
:102690005B975C968C915C97981739F45296ED9104
:1026A000FC91539780818F7D80830895DF92EF9214
:1026B000FF920F931F93CF93DF93EC017A018B016D
:1026C000D22EE889F98982E08083403081EE580774
:1026D00080E0680780E07807A1F060E079E08DE3B2
:1026E00090E0A80197010E94A01A2150304040407C
:1026F0005040569547953795279580E1203038070B
:1027000098F0E889F989108260E874E88EE190E039
:10271000A80197010E94A01A21503040404050402B
:102720005695479537952795EC85FD853083EE8541
:10273000FF852083188EEC89FD89D082EA89FB8988
:10274000808180618083EA89FB89808188608083C1
:10275000EA89FB89808180688083EA89FB8980819E
:102760008F7D8083DF91CF911F910F91FF90EF902C
:10277000DF900895FC01218D828D30E0205C3F4F79
:10278000281B31092F733070C9010895FC01918D08
:10279000828D981719F42FEF3FEF06C0828DE80F56
:1027A000F11D858D282F30E0C9010895DC0159966F
:1027B0009C9159975A968C915A97981719F42FEF24
:1027C0003FEF10C05A968C915A97FD01E80FF11D0A
:1027D000958D5A968C915A978F5F8F735A968C93DA
:1027E000292F30E0C9010895CF93DF93EC01888D44
:1027F000882361F419C08C9185FF0AC0E889F989A2
:10280000808185FF05C0CE010E942613AA89BB895D
:102810008C9185FD05C0E889F989808186FD04C019
:102820000FB607FEE8CFF4CFDF91CF9108950F9355
:102830001F93CF93DF93EC01062F9B8D8C8D981700
:1028400091F5E889F989808185FF2DC0EE89FF899E
:102850006083E889F9898081806480831DC00FB618
:1028600007FC08C0E889F989808185FF03C0CE0193
:102870000E9426138C8D181791F38B8DFE01E80FA3
:10288000F11DE35AFF4F00831B8FEA89FB8980818A
:102890008062808381E0888F81E090E0DF91CF913A
:1028A0001F910F9108951B8D1F5F1F73E3CF8FED55
:1028B00094E1892B51F080E090E0892B31F00E9467
:1028C000DF14882311F00E94000008951F920F92D8
:1028D0000FB60F9211242F938F939F93EF93FF9333
:1028E000E091C903F091CA03808182FD16C0E09196
:1028F000CF03F091D00320819091D2039F5F9F730B
:102900008091D303981771F0E091D203F0E0E7547F
:10291000FC4F258F9093D20305C0E091CF03F09137
:10292000D003E081FF91EF919F918F912F910F90B4
:102930000FBE0F901F9018951092BC031092BB030E
:1029400088EE93E0A0E0B0E08093BD039093BE03D7
:10295000A093BF03B093C0038AEA91E09093BA03B7
:102960008093B90385EC90E09093C6038093C503F0
:1029700084EC90E09093C8038093C70380EC90E0D0
:102980009093CA038093C90381EC90E09093CC03A9
:102990008093CB0382EC90E09093CE038093CD03A1
:1029A00086EC90E09093D0038093CF031092D203F3
:1029B0001092D3031092D4031092D503089589EB9B
:1029C00093E00E94BA1320E0892B09F021E0822FC6
:1029D00008951F920F920FB60F9211242F933F93D9
:1029E0004F935F936F937F938F939F93AF93BF9317
:1029F000EF93FF9389EB93E00E942613FF91EF91F1
:102A0000BF91AF919F918F917F916F915F914F9106
:102A10003F912F910F900FBE0F901F901895CF935D
:102A2000DF930E94F8110E94FF05C7E5D4E10E94E0
:102A3000CF0B2097E1F30E945714F9CFCF92DF928A
:102A4000EF92FF920F931F93CF93DF937C016B0163
:102A50008A01C0E0D0E00FC0D6016D916D01D701B1
:102A6000ED91FC910190F081E02DC7010995C80F0F
:102A7000D91F015010400115110571F7CE01DF91EA
:102A8000CF911F910F91FF90EF90DF90CF9008951D
:102A9000DC01ED91FC910190F081E02D0995089504
:102AA000EF92FF920F931F938C01DC01ED91FC914B
:102AB0000190F081E02D6DE009957C01D801ED9148
:102AC000FC910190F081E02DC8016AE009959C011C
:102AD0002E0D3F1DC9011F910F91FF90EF9008959A
:102AE000CF93DF93EC016115710519F420E030E01C
:102AF0000FC0DB010D900020E9F71197A61BB70B63
:102B0000E881F9810280F381E02DAD0109959C01F6
:102B1000C901DF91CF9108954F925F927F928F927A
:102B20009F92AF92BF92CF92DF92EF92FF920F935C
:102B30001F93DF93CF93CDB7DEB7A1970FB6F8946D
:102B4000DEBF0FBECDBF2C01742ECB01223008F4A6
:102B50002AE019A231E2C32ED12CCC0EDD1E822E2A
:102B60009924AA24BB24672D752FA50194010E94E6
:102B7000A01A79018A01C801B701A50194010E9438
:102B80004E1A472D461B0894C108D1084A3014F448
:102B9000405D01C0495CF6014083E114F104010588
:102BA000110521F07E2C5F2DC801DDCFC201B601D9
:102BB0000E947015A1960FB6F894DEBF0FBECDBF70
:102BC000CF91DF911F910F91FF90EF90DF90CF9009
:102BD000BF90AF909F908F907F905F904F9008959F
:102BE000DC012115310541F4ED91FC910190F0815A
:102BF000E02D642F099508950E948C150895CF92B9
:102C0000DF92EF92FF920F931F93CF93DF93EC012C
:102C10006A017B012115310541F4E881F9810190B8
:102C2000F081E02D642F09951FC02A303105D1F4C1
:102C300077FF17C0E881F9810190F081E02D6DE206
:102C400009958C0144275527BA014C195D096E0975
:102C50007F09CE012AE00E948C159801280F391FA8
:102C600004C02AE00E948C159C01C901DF91CF911C
:102C70001F910F91FF90EF90DF90CF900895EF920A
:102C8000FF920F931F937B019A010027F7FC009599
:102C9000102FB801A7010E94FF151F910F91FF90FF
:102CA000EF900895CF92DF92EF92FF920F931F93D0
:102CB0006C017B019A010027F7FC0095102FB801E9
:102CC000A7010E94FF158C01C6010E945015080F34
:102CD000191FC8011F910F91FF90EF90DF90CF90C7
:102CE00008950E94701508957F928F929F92AF92DF
:102CF000BF92CF92DF92EF92FF920F931F93CF93E9
:102D0000DF934C017A018B01722ECB01BA01A8012D
:102D100097010E94331A882321F0C4016EE671E006
:102D200021C0C0E0D0E057016801E894D7F8C6019F
:102D3000B5012FEF3FEF4FE75FE70E94331A88237B
:102D400051F4C601B5012FEF3FEF4FE75FE70E9457
:102D50002F18181614F0C1E0D0E0219739F0C40103
:102D600062E771E00E947015EC0193C0C801B701E1
:102D70002FEF3FEF4FE75FE40E947E19181654F0E3
:102D8000C801B7012FEF3FEF4FE75FEC0E942F180C
:102D9000882324F4C40166E771E0E4CFC801B701D9
:102DA00020E030E040E050E00E942F1887FD03C093
:102DB000C0E0D0E00EC0D401ED91FC910190F08113
:102DC000E02DC4016DE20995EC0117FB109517F990
:102DD000109520E030E040E05FE3DD240BC0CA0145
:102DE000B90120E030E040E251E40E9433189B0139
:102DF000AC01D394D71498F3C801B7010E94CB1744
:102E00005B016C010E94A0187B018C01C401B80118
:102E1000A7012AE030E00E94F015C80FD91F7720E3
:102E200039F0C4016AE771E00E947015C80FD91F1C
:102E3000C801B7010E94CC189B01AC01C601B501C5
:102E40000E94CA1724C020E030E040E251E40E9412
:102E500082197B018C010E949B185B016C01CC24C0
:102E6000B7FCC094DC2CC401B601A5012AE030E017
:102E70000E94FF15C80FD91FC601B5010E94CE18C8
:102E80009B01AC01C801B7010E94CA177A94772050
:102E9000D1F6CE01DF91CF911F910F91FF90EF906E
:102EA000DF90CF90BF90AF909F908F907F900895CC
:102EB0000E9474160895EF92FF920F931F937C0166
:102EC0000E9474168C01C7010E945015080F191F2B
:102ED000C8011F910F91FF90EF900895EF92FF921C
:102EE0000F931F937C010E9470158C01C7010E94F3
:102EF0005015080F191FC8011F910F91FF90EF90F7
:102F000008952F923F924F925F926F927F928F928D
:102F10009F92AF92BF92CF92DF92EF92FF920F9368
:102F20001F93DF93CF93CDB7DEB73B014C0119015F
:102F30002A016D897E898F89988D6A197B098C0990
:102F40009D09621A730A840A950AA40193010E94DA
:102F50004E1AE218F30804091509A80197010E9406
:102F6000C21A2A0D3B1D4C1D5D1DB901CA01CF912E
:102F7000DF911F910F91FF90EF90DF90CF90BF9066
:102F8000AF909F908F907F906F905F904F903F9009
:102F90002F9008955058BB27AA270ED075C166D12F
:102FA00030F06BD120F031F49F3F11F41EF45BC17F
:102FB0000EF4E095E7FB51C1E92F77D180F3BA1702
:102FC000620773078407950718F071F49EF58FC1A7
:102FD0000EF4E0950B2EBA2FA02D0B01B901900134
:102FE0000C01CA01A0011124FF27591B99F0593F78
:102FF00050F4503E68F11A16F040A22F232F342FC0
:103000004427585FF3CF469537952795A795F0400D
:103010005395C9F77EF41F16BA0B620B730B840B22
:10302000BAF09150A1F0FF0FBB1F661F771F881FDA
:10303000C2F70EC0BA0F621F731F841F48F4879532
:1030400077956795B795F7959E3F08F0B3CF939521
:10305000880F08F09927EE0F979587950895D9D096
:1030600008F481E008950CD00FC107D140F0FED0E4
:1030700030F021F45F3F19F0F0C0511139C1F3C0B5
:1030800014D198F39923C9F35523B1F3951B550B2C
:10309000BB27AA2762177307840738F09F5F5F4F2B
:1030A000220F331F441FAA1FA9F333D00E2E3AF06C
:1030B000E0E830D091505040E695001CCAF729D086
:1030C000FE2F27D0660F771F881FBB1F26173707D5
:1030D0004807AB07B0E809F0BB0B802DBF01FF2705
:1030E00093585F4F2AF09E3F510568F0B6C000C16B
:1030F0005F3FECF3983EDCF3869577956795B7953F
:10310000F7959F5FC9F7880F911D9695879597F959
:103110000895E1E0660F771F881FBB1F62177307D2
:103120008407BA0720F0621B730B840BBA0BEE1FE7
:1031300088F7E095089504D06894B111D9C0089536
:10314000BCD088F09F5790F0B92F9927B751A0F0C5
:10315000D1F0660F771F881F991F1AF0BA95C9F72B
:1031600012C0B13081F0C3D0B1E00895C0C0672F64
:10317000782F8827B85F39F0B93FCCF386957795DB
:103180006795B395D9F73EF49095809570956195C4
:103190007F4F8F4F9F4F0895E89409C097FB3EF4EF
:1031A00090958095709561957F4F8F4F9F4F992394
:1031B000A9F0F92F96E9BB279395F6958795779512
:1031C0006795B795F111F8CFFAF4BB0F11F460FFD2
:1031D0001BC06F5F7F4F8F4F9F4F16C0882311F02A
:1031E00096E911C0772321F09EE8872F762F05C03E
:1031F000662371F096E8862F70E060E02AF09A95D9
:10320000660F771F881FDAF7880F9695879597F9CD
:103210000895990F0008550FAA0BE0E8FEEF161667
:103220001706E807F907C0F012161306E407F507BA
:1032300098F0621B730B840B950B39F40A2661F02E
:10324000232B242B252B21F408950A2609F4A140D1
:10325000A6958FEF811D811D089597F99F6780E8DE
:1032600070E060E008959FEF80EC089500240A94D8
:103270001616170618060906089500240A94121651
:103280001306140605060895092E0394000C11F484
:10329000882352F0BB0F40F4BF2B11F460FF04C031
:1032A0006F5F7F4F8F4F9F4F089557FD9058440F8A
:1032B000551F59F05F3F71F04795880F97FB991F95
:1032C00061F09F3F79F08795089512161306140652
:1032D000551FF2CF4695F1DF08C0161617061806DF
:1032E000991FF1CF86957105610508940895E894BA
:1032F000BB2766277727CB0197F908958ADF08F463
:103300008FEF08950BD0C0CFB1DF28F0B6DF18F0F3
:10331000952309F0A2CFA7CF1124EACFC6DFA0F3EF
:10332000959FD1F3950F50E0551F629FF001729F5A
:10333000BB27F00DB11D639FAA27F00DB11DAA1F79
:10334000649F6627B00DA11D661F829F2227B00DC6
:10335000A11D621F739FB00DA11D621F839FA00D51
:10336000611D221F749F3327A00D611D231F849FA1
:10337000600D211D822F762F6A2F11249F575040F8
:103380008AF0E1F088234AF0EE0FFF1FBB1F661F93
:10339000771F881F91505040A9F79E3F510570F04C
:1033A0005CCFA6CF5F3FECF3983EDCF38695779534
:1033B0006795B795F795E7959F5FC1F7FE2B880F47
:1033C000911D9695879597F9089511F40EF44BCFBA
:1033D0004EC073DFD0F39923D9F3CEF39F57550B2B
:1033E00087FF55D056959795B0E020F4660F771F6C
:1033F000881FBB1F1F930F9300249001A001800121
:10340000F001A0E80E0F1F1F0A1E511D601B710B5B
:103410008009B50B48F4600F711F801DB51F0E1B8E
:103420001F0B0A0A510907C02E0F3F1F4A1F0E0F1C
:103430001F1F0A1E511D660F771F881FBB1FA695F1
:10344000F795E795F8F60617170708065B07211D9D
:10345000311D411D0F911F91B901842F9158880F83
:10346000969587950895D5DE880B990B08959F3F13
:1034700049F0915028F4869577956795B7959F5FA9
:1034800080389F4F880F9695879597F908959150AA
:103490005040660F771F881FD2F70895629FD001B2
:1034A000739FF001829FE00DF11D649FE00DF11DFF
:1034B000929FF00D839FF00D749FF00D659FF00DAE
:1034C0009927729FB00DE11DF91F639FB00DE11D9B
:1034D000F91FBD01CF0111240895991B79E004C0A3
:1034E000991F961708F0961B881F7A95C9F7809543
:1034F0000895AA1BBB1B51E107C0AA1FBB1FA6173B
:10350000B70710F0A61BB70B881F991F5A95A9F78C
:1035100080959095BC01CD01089597FB092E072653
:103520000AD077FD04D0E5DF06D000201AF47095AC
:1035300061957F4F0895F6F7909581959F4F089577
:10354000A1E21A2EAA1BBB1BFD010DC0AA1FBB1FA7
:10355000EE1FFF1FA217B307E407F50720F0A21B19
:10356000B30BE40BF50B661F771F881F991F1A9486
:1035700069F760957095809590959B01AC01BD01B0
:10358000CF01089597FB092E05260ED057FD04D0D4
:10359000D7DF0AD0001C38F450954095309521951E
:1035A0003F4F4F4F5F4F0895F6F790958095709578
:1035B00061957F4F8F4F9F4F0895EE0FFF1F05902E
:1035C000F491E02D0994911106C0803219F08950D0
:1035D0008550D0F708959927882708952F923F9214
:1035E0004F925F926F927F928F929F92AF92BF9213
:1035F000CF92DF92EF92FF920F931F93CF93DF93BF
:10360000CDB7DEB7CA1BDB0B0FB6F894DEBF0FBE1B
:10361000CDBF09942A88398848885F846E847D8468
:103620008C849B84AA84B984C884DF80EE80FD806A
:103630000C811B81AA81B981CE0FD11D0FB6F894E0
:0E364000DEBF0FBECDBFED010895F894FFCFA1
:10364E004547470073657420746F20646566617525
:10365E006C742073657475700020004D31302045F8
:10366E00474720002041002042006D6F76653A20CA
:10367E006D61783A25642064613A25642064623A6B
:10368E0025640A00746172583A00746172593A00E6
:10369E0074617220506F7320256C6420256C640D4C
:1036AE000A00504F532058002059004F4B006E61B6
:1036BE006E00696E66006F7666002E00F401D0070C
:1036CE00FFFF0B0A03090C0D0802FFFF1011140F68
:1036DE00150E0607050400000000F80FC70F800F37
:1036EE00890F9E0FAF0F0000000017141E15BA139E
:0636FE00D613C613F413FD
:00000001FF
