:100000000C9498000C94C0000C94C0000C945C0EEE
:100010000C94860E0C94B00E0C94C0000C94C0008E
:100020000C94C0000C94C0000C94C0000C94340DCF
:100030000C94C0000C94C0000C94C0000C94C00040
:100040000C9400110C94C0000C94C0130C94431435
:100050000C94C0000C94C0000C94C0000C94C00020
:100060000C949D0F0C94C000084AD73B3BCE016E08
:1000700084BCBFFDC12F3D6C74319ABD56833DDAFF
:100080003D00C77F11BED9E4BB4C3E916BAAAABE0E
:10009000000000803F00000000240027002A00002C
:1000A000000000250028002B00000000002300268F
:1000B00000290004040404040404040202020202ED
:1000C000020303030303030102040810204080011C
:1000D000020408102001020408102000000007009C
:1000E00002010000030406000000000000000049B7
:1000F0004E46494E4954594E414ECDCCCC3D0AD77F
:10010000233C17B7D13877CC2B329595E6241FB115
:100110004F0A000020410000C84200401C4620BC9D
:10012000BE4CCA1B0E5AAEC59D74A4020A0FF6132C
:1001300011241FBECFEFD8E0DEBFCDBF11E0A0E09D
:10014000B1E0EAE4F6E302C005900D92A03BB107EE
:10015000D9F714E0A0EBB1E001C01D92A635B107BC
:10016000E1F711E0C0E3D1E004C02297FE010E9454
:10017000DD1ACA32D107C9F70E9469140C94231BF7
:100180000C940000662777270C942C01FC0188272B
:100190009927E89421912032E9F3293010F02E308C
:1001A000C8F32B3241F02D3239F4689404C00E9418
:1001B0002401820F911D219120532A30C0F31EF497
:1001C000909581959F4F0895FB01DC01415050406F
:1001D00030F08D910190801919F40020B9F7881B37
:1001E000990B0895009731F4DA018D919C91009755
:1001F00009F40EC0DC01FB013D912191222319F08D
:100200003217C9F3FACF332331F4DA011D921C926D
:100210008827992708951197AF93BF93FB013D91CC
:100220002191321771F4332321F4882799271197EC
:1002300002C01E921196FA01A193B0839F918F91F3
:100240000895222369F7EACF7AE0979F902D879F40
:10025000802D910D11240895A0E0B0E0E2E3F1E0DB
:100260000C94F21AEC015B016115710519F0FB01A8
:1002700091838083F9908F2D90E00E94E11A892B61
:10028000C9F7FDE2FF1621F4F990EE24E39405C0CE
:100290002BE2F21609F4F990EE248E010150104081
:1002A000C8016FEE70E043E050E00E948C02892BA1
:1002B00001F58E010E5F1F4FC80162EF70E045E04F
:1002C00050E00E948C02892B19F48E01095F1F4FA8
:1002D000A114B10419F0F50111830083E0FC04C0FE
:1002E00070E090E080E814C070E090E080E86FEF8C
:1002F00008C1C80167EF70E043E050E00E948C0243
:10030000892B69F4A114B10429F470E090E080EC29
:100310006FE7F7C02296F501D183C083F6CF88241A
:10032000992440E050E060E070E0EF2DE053EA30C7
:10033000A0F5F2E0EF2A8E2D90E09C01287030703D
:10034000E2FE06C0232B79F50894811C911C2BC07A
:10035000232B19F0089481089108DB01CA0112E0EF
:10036000880F991FAA1FBB1F1A95D1F7480F591F55
:100370006A1F7B1F440F551F661F771F4E0F511DAD
:10038000611D711D483929E9520729E9620729E1F0
:10039000720748F084E0E82A06C0EE3F31F4E3FC3F
:1003A00039C098E0E92AF990C0CFE53311F0E53182
:1003B00089F529912D3219F4E0E1EE2A05C02B329E
:1003C00019F081E090E003C0299182E090E0E22FF3
:1003D000E053EA3018F0C81BD90B1CC020E030E015
:1003E000FCE020383F075CF4C901880F991F880F93
:1003F000991F280F391F220F331F2E0F311DE9912E
:10040000E053EA3068F3E4FE03C0309521953F4F96
:10041000820E931ECE2CDD24E1FE07C0A114B10490
:1004200021F02197F501D183C083CB01BA010E944D
:1004300060187B018C01F3E0CF22DD2423E0C2169B
:10044000D10421F417FB109517F910955701680195
:10045000C801B70120E030E040E050E00E94C3173F
:10046000882309F44AC097FE0DC02EE0E22E21E059
:10047000F22E9094819491089394C0E2D0E000E031
:1004800010E012C096E2E92E91E0F92EF6CFF701C6
:100490002591359145915491C601B5010E944219AB
:1004A0005B016C018C1A9D0A8C169D0684F7D5950C
:1004B000C7950F5F1F4F0630110529F08CEF9FEF96
:1004C000E80EF91EF1CFC501D6017C018D018C2DFE
:1004D000880F8D2D881F8F3F51F0C601B50120E098
:1004E00030E040E050E00E94C317882331F482E2FC
:1004F00090E090935504809354047E2D9F2D802F7F
:10050000612F272F392F482F562FB901CA01CDB798
:10051000DEB7ECE00C940E1BFB01DC0141505040B7
:1005200088F08D9181341CF08B350CF4805E6591E0
:1005300061341CF06B350CF4605E861B611171F345
:10054000990B0895881BFCCF0F931F938CE192E0C9
:1005500062E00E94550B80E292E061E00E94550B40
:1005600084E292E06AE00E94680B08E212E0C801AF
:1005700067E00E94550BC8010E94650B80932C0216
:1005800010922D028EE292E00E94F00B1F910F91CB
:100590000895CF93DF93C0E0D0E0FE01E055FE4F19
:1005A00084E892E0BE0140810E94E40B2196C034B1
:1005B000D10599F7DF91CF9108950F931F93CF93B2
:1005C000DF93C0E0D0E084E892E0BE010E94DD0B42
:1005D00000EB11E0FE01E00FF11F80832196C03493
:1005E000D10589F7C80160E071E046E050E00E9463
:1005F000E400009759F187EB93E067E071E00E9417
:10060000DA1680E4F80111928A95E9F7D801E0E062
:10061000F1E086E001900D928150E1F71092B8016F
:100620001092B90188EA90E09093BB018093BA01DF
:100630008EEC90E09093BD018093BC0180E590E04A
:100640009093BF018093BE010E94C9028091B801BE
:10065000882329F481E0809318028FEF04C08FEF84
:100660008093180281E0809319028091B901882358
:1006700029F481E080931A028FEF04C08FEF8093FA
:100680001A0281E080931B0264E670E08091BE0153
:100690009091BF01AB01481B590BCA01880F991FEC
:1006A0009A01E3E0220F331FEA95E1F7820F931FCF
:1006B0009093770180937601469FC001479F900DEC
:1006C000569F900D11249093790180937801DF91CA
:1006D000CF911F910F910895DF93CF9300D0CDB7A5
:1006E000DEB76CE171E0AE014F5F5F4F0E94F20038
:1006F00089819A810E94C6009093420280934102B0
:100700000F900F90CF91DF910895DF93CF9300D09A
:10071000CDB7DEB76CE171E0AE014F5F5F4F0E9475
:10072000F20089819A810E94C600BC018EE292E0AB
:100730000E94460C0F900F90CF91DF910895DF92A9
:10074000EF92FF920F931F93DF93CF9300D0CDB71B
:10075000DEB76CE171E08E010F5F1F4FA8010E94B0
:10076000F2007C01D02E012F79C080E090E06CE196
:1007700071E04D2D502F0E94F2007C01FC01808120
:10078000813489F4C70101960E94C6008093B801A4
:1007900087EB93E06EE171E00E94DD1587EB93E05B
:1007A0006091B80112C08234A9F4C70101960E9479
:1007B000C6008093B90187EB93E069E271E00E9483
:1007C000DD1587EB93E06091B9014AE050E00E94AB
:1007D000591544C08D3499F4C70101960E94C60092
:1007E0009093BB018093BA0187EB93E063E371E0E0
:1007F0000E94DD156091BA017091BB0129C08E3451
:1008000099F4C70101960E94C6009093BD018093A0
:10081000BC0187EB93E06AE371E00E94DD15609113
:10082000BC017091BD0114C08434C1F4C7010196AC
:100830000E94C6009093BF018093BE0187EB93E0B6
:1008400061E471E00E94DD156091BE017091BF010D
:1008500087EB93E04AE050E00E94AB15EF2809F0E7
:1008600084CF0E94C9020F900F90CF91DF911F910A
:100870000F91FF90EF90DF9008950F931F9307EB78
:1008800013E0C80168E471E00E94DD156091BA01CF
:100890007091BB01C8014AE050E00E94AB15C8014D
:1008A00060E20E94A2146091BC017091BD01C80178
:1008B0004AE050E00E94AB15C80160E20E94A21419
:1008C0004091F4015091F5016091F6017091F701AA
:1008D000C80122E030E00E94C416C80160E20E9414
:1008E000A2144091F8015091F9016091FA017091C0
:1008F000FB01C80122E030E00E94C416C80160E29A
:100900000E94A214C80164E571E00E94DD156091A7
:10091000B801C80170E04AE050E00E94AB15C80180
:1009200066E571E00E94DD156091B901C80170E0D3
:100930004AE050E00E94AB15C80169E571E00E94F1
:10094000DD156091BE017091BF01C8014AE050E021
:100950000E94BE151F910F910895DF93CF9300D091
:10096000CDB7DEB76CE171E0AE014F5F5F4F0E9423
:10097000F20089819A810E94C600BC0184E292E063
:100980000E94AA0B0F900F90CF91DF910895CF9303
:10099000DF93EC010E94C60084309105B9F08530E8
:1009A000910534F48130910549F00397D1F40AC0E0
:1009B0008530910579F00A97A1F410C0CE010E940C
:1009C00085030FC0CE010E946C030BC0CE010E94B4
:1009D000AD0407C0CE010E949F0303C0CE010E9458
:1009E0003D04DF91CF910895EF92FF920F931F93F3
:1009F00079018A012BED3FE049E450E40E94C717DA
:100A000020E030E04AE756E40E94421920E030E05E
:100A100040E05FE30E9442190E94A5190E942F182E
:100A20006093390270933A0280933B0290933C02A8
:100A3000C801B7012BED3FE049E450E40E94C7171D
:100A400020E030E04AE756E40E94421920E030E01E
:100A500040E05FE30E9442190E94A5190E942F18EE
:100A600060933D0270933E0280933F029093400258
:100A70001F910F91FF90EF9008952F923F924F9208
:100A80005F926F927F928F929F92AF92BF92CF921E
:100A9000DF92EF92FF920F931F93DF93CF93CDB727
:100AA000DEB7A4970FB6F894DEBF0FBECDBF3B01F3
:100AB0004C0159016A016091BA017091BB0188270C
:100AC00077FD8095982F0E9462181B012C01609180
:100AD000BC017091BD01882777FD8095982F0E94F9
:100AE000621869837A838B839C83C201B101A2015E
:100AF00091010E9437176D837E838F839887C2018F
:100B0000B1019058A20191010E94421969877A8728
:100B10008B879C876D817E818F819885A201910151
:100B20000E9442196D877E878F87988B69817A81B1
:100B30008B819C819B01AC010E944219698B7A8B4D
:100B40008B8B9C8B69817A818B819C819B01AC0111
:100B50000E94371729813A814B815C810E9442199A
:100B60006D8B7E8B8F8B988FC401B301A401930191
:100B70000E944219698F7A8F8B8F9C8FC601B501B5
:100B8000A60195010E9442196D8F7E8F8F8F98A3C9
:100B900069857A858B859C85A20191010E94421905
:100BA000A20191010E9442197B018C016D857E8515
:100BB0008F85988929813A814B815C810E944219F5
:100BC00029813A814B815C810E9442199B01AC01D1
:100BD000C801B7010E9437177B018C016D857E85A6
:100BE0008F859889A40193010E944219A401930161
:100BF0000E9442199B01AC01C801B7010E9437173E
:100C00007B018C016D857E858F859889A601950174
:100C10000E944219A60195010E9442199B01AC0154
:100C2000C801B7010E9437177B018C0169897A8955
:100C30008B899C8929813A814B815C810E94421970
:100C400029813A814B815C810E9442199B01AC0150
:100C5000C801B7010E9436177B018C016D897E891E
:100C60008F89988DA40193010E944219A4019301D8
:100C70000E9442199B01AC01C801B7010E943717BD
:100C80007B018C016D897E898F89988DA6019501E4
:100C90000E944219A60195010E9442199B01AC01D4
:100CA000C801B7010E9437177B018C01698D7A8DCD
:100CB0008B8D9C8DA40193010E944219A401930184
:100CC0000E9442199B01AC01C801B7010E9436176E
:100CD0007B018C01C401B30120E030E040E050EC26
:100CE0000E944219A40193010E944219A601950194
:100CF0000E944219A60195010E9442199B01AC0174
:100D0000C801B7010E9437177B018C016D8D7E8D64
:100D10008F8D98A1A60195010E944219A601950107
:100D20000E9442199B01AC01C801B7010E9436170D
:100D30000E94C9197B018C01C201B101A20191017C
:100D40000E94421969A37AA38BA39CA36D817E8123
:100D50008F819885A60195010E944219A8019701EB
:100D60000E9437177B018C01C201B10120E030E005
:100D700040E050EC0E944219A40193010E944219E4
:100D80009B01AC0169A17AA18BA19CA10E9437179C
:100D900029893A894B895C890E943617298D3A8DB9
:100DA0004B8D5C8D0E9437172D8D3E8D4F8D58A138
:100DB0000E9437179B01AC01C801B7010E94C717F9
:100DC0000E949B179B01AC010E9437176093310270
:100DD0007093320280933302909334026D817E814E
:100DE0008F81988529813A814B815C810E944219CB
:100DF0007B018C0169A17AA18BA19CA1A80197011B
:100E00000E94371729893A894B895C890E943717D4
:100E1000298D3A8D4B8D5C8D0E9436172D8D3E8D20
:100E20004F8D58A10E9436175B016C0169857A8548
:100E30008B859C85A80197010E94371729893A89DB
:100E40004B895C890E943617298D3A8D4B8D5C8DBC
:100E50000E9437172D8D3E8D4F8D58A10E94371758
:100E6000A60195010E9442190E94C919A601950187
:100E70000E94C7170E949B179B01AC010E94371765
:100E80006093350270933602809337029093380254
:100E9000A4960FB6F894DEBF0FBECDBFCF91DF9101
:100EA0001F910F91FF90EF90DF90CF90BF90AF9088
:100EB0009F908F907F906F905F904F903F902F907A
:100EC00008956091BC017091BD012091BA013091EB
:100ED000BB01620F731F882777FD8095982F0E94B2
:100EE00062182AE037ED43E25CE30E94361790581F
:100EF0006093F4017093F5018093F6019093F701EC
:100F000020E030E040E050E02093F8013093F90118
:100F10004093FA015093FB010E943D05609131021C
:100F200070913202809133029091340260930802F2
:100F30007093090280930A0290930B02209135026C
:100F400030913602409137025091380220930C02C2
:100F500030930D0240930E0250930F020E94F4044E
:100F60008091390290913A02909315028093140275
:100F700080913D0290913E02909317028093160259
:100F800008950F931F9387EB93E040E052EC61E0EC
:100F900070E026E00E94B0120E94DD020EE212E034
:100FA00060912C0270912D02C8010E942D0DC80184
:100FB0006AE070E00E94460C0E9461071F910F9149
:100FC00008951816190624F48CE192E060E003C03D
:100FD0008CE192E061E00E94970B8CE192E061E08D
:100FE0000E94840B8CE192E060E00E94840B0895E3
:100FF0001816190624F480E292E060E003C080E253
:1010000092E061E00E94970B80E292E061E00E9432
:10101000840B80E292E060E00E94840B08952F929E
:101020003F924F925F926F927F928F929F92AF9278
:10103000BF92CF92DF92EF92FF920F931F93DF93B5
:10104000CF93CDB7DEB72E970FB6F894DEBF0FBEA5
:10105000CDBF2090780130907901409010025090DF
:1010600011028091140290911502481A590A609059
:101070001202709013028091160290911702681A62
:10108000790A630177FE04C0CC24DD24C618D70892
:10109000520157FE04C0AA24BB24A418B508BA867E
:1010A000A986AC14BD0414F4DA86C98629853A856C
:1010B000B901882777FD8095982F0E9462187B01DF
:1010C0008C01B501882777FD8095982F0E946218C2
:1010D000A80197010E94C7176D837E838F8398872D
:1010E000B601882777FD8095982F0E946218A80185
:1010F00097010E94C71769837A838B839C834FEF84
:101100005FEF5C874B870F2EF0E08F2EF0E09F2E75
:10111000F0E0AF2EF0E0BF2EF02D750164011E86C9
:101120001D86B4C080911402909115028217930716
:10113000A1F1C501B4012D813E814F8158850E94E6
:1011400037174B015C0120E030E040E85FE30E948C
:101150003719882314F1141415041CF40091180293
:1011600002C000911902112707FD1095C8010E94C5
:10117000F807C501B40120E030E040E85FE30E94D9
:1011800036174B015C018091140290911502800F7B
:10119000911F9093150280931402209116023091B2
:1011A0001702809112029091130228173907A1F1BA
:1011B000C701B60129813A814B815C810E943717B2
:1011C0006B017C0120E030E040E85FE30E943719CA
:1011D000882314F1161417041CF400911A0202C09B
:1011E00000911B02112707FD1095C8010E94E1071D
:1011F000C701B60120E030E040E85FE30E94361707
:101200006B017C018091160290911702800F911F53
:1012100090931702809316028B859C85820D931DF7
:101220002091760130917701821793074CF040911D
:101230007801509179019C01481759070CF49A01E3
:101240002090410230904202220E331EC1010E94C2
:10125000481189859A85ED85FE858E1B9F0B20910F
:101260007801309179014091760150917701241BEA
:10127000350B8217930724F421E030E03C872B875D
:101280004D855E854F5F5F4F5E874D8720911002D1
:10129000309111028D859E85E985FA858E179F070D
:1012A0000CF440CF30931502209314028091120267
:1012B0009091130290931702809316022E960FB608
:1012C000F894DEBF0FBECDBFCF91DF911F910F917C
:1012D000FF90EF90DF90CF90BF90AF909F908F9056
:1012E0007F906F905F904F903F902F9008952F9236
:1012F0003F924F925F926F927F928F929F92AF92A6
:10130000BF92CF92DF92EF92FF920F931F932090A4
:10131000FC013090FD014090FE015090FF01C201A0
:10132000B1012091F4013091F5014091F601509105
:10133000F7010E9436175B016C016090000270900B
:1013400001028090020290900302C401B301209137
:10135000F8013091F9014091FA015091FB010E948E
:1013600036177B018C01C601B501A60195010E94CB
:1013700042195B016C01C801B701A80197010E94E5
:1013800042199B01AC01C601B5010E9437170E94AA
:10139000C9192FE632E143E85AE30E94C31787FDDB
:1013A0004AC0C201B101A40193010E943D056091B0
:1013B0003102709132028091330290913402209177
:1013C00035023091360240913702509138020E9426
:1013D000F4048091390290913A0290931102809323
:1013E000100280913D0290913E02909313028093EF
:1013F00012020E940F088091FC019091FD01A091C2
:10140000FE01B091FF018093F4019093F501A09348
:10141000F601B093F7018091000290910102A09132
:101420000202B09103028093F8019093F901A09316
:10143000FA01B093FB011F910F91FF90EF90DF90A5
:10144000CF90BF90AF909F908F907F906F905F9064
:101450004F903F902F900895DF92EF92FF920F935D
:101460001F93DF93CF9300D0CDB7DEB76CE171E06F
:101470008E010F5F1F4FA8010E94F2007C01D02E49
:10148000012F57C080E090E06CE171E04D2D502FAE
:101490000E94F2007C01FC018081883569F4C7015B
:1014A00001960E94C2006093FC017093FD0180933D
:1014B000FE019093FF013DC0893569F4C701019693
:1014C0000E94C200609300027093010280930202A6
:1014D000909303022EC08A3569F4C70101960E94D9
:1014E000C2006093040270930502809306029093F9
:1014F00007021FC0863499F4C70101960E94C200FA
:1015000020E030E040E752E40E94C7176093F0010A
:101510007093F1018093F2019093F3010AC081343A
:1015200041F4C70101960E94C60090934202809345
:101530004102EF2809F0A6CF0E9477090F900F9083
:10154000CF91DF911F910F91FF90EF90DF90089561
:10155000CF93DF93EC010E94C6008130910519F012
:101560004C97B1F504C0CE010E942C0A31C01092F4
:101570004202109241026091BC017091BD01209124
:10158000BA013091BB01620F731F882777FD8095E8
:10159000982F0E9462182AE037ED43E25CE30E9434
:1015A000361790586093FC017093FD018093FE0103
:1015B0009093FF0180E090E0A0E0B0E08093000213
:1015C00090930102A0930202B09303020E94770954
:1015D000DF91CF910895FC018081873429F4CF01F8
:1015E00001960E94A80A31C08D3429F4CF010196DA
:1015F0000E94C7042AC0803541F587EB93E06CE573
:1016000071E00E94DD154091F4015091F501609167
:10161000F6017091F70187EB93E022E030E00E9441
:10162000C41687EB93E062E671E00E94DD154091FD
:10163000F8015091F9016091FA017091FB0187EB7B
:1016400093E022E030E00E94C71687EB93E065E666
:1016500071E00E94DA160895CF93DF9387EB93E051
:101660000E941413892BF1F087EB93E00E94301352
:1016700090918302E92FFF27E7FDF095C3E4D2E0C4
:10168000EC0FFD1F80839F5F909383028A3051F49B
:10169000CE010E94EB0A80E4FE0111928A95E9F7DF
:1016A00010928302DF91CF910895DC01E62FF0E0E4
:1016B000EE0FFF1FE658FE4F80818C9381811196BB
:1016C0008C93119712966C930895FC018181089573
:1016D000DC01E62FF0E0EE0FFF1FE658FE4F8081A1
:1016E0008C93818111968C93119712966C9381E063
:1016F000809380008BE08093810083E08093B00032
:1017000084E08093B1000895FF920F931F938C01A2
:10171000F62EFC01818161E00E94ED11F8018181CA
:101720006F2D0E942C121F910F91FF900895FF9230
:101730000F931F938C01F62EFC01808161E00E94C3
:10174000ED11F80180816F2D0E942C121F910F91D5
:10175000FF900895EF92FF920F931F93CF93DF9323
:101760007C01EB016F3F710519F014F0CFEFD0E071
:101770008E018FEFC130D8071CF401E01FEF0AC0C3
:10178000D7FD08C0C70161E00E94840BF70180818A
:10179000BE010AC0C70160E00E94840B662777275C
:1017A000601B710BF70180810E948D11DF91CF9139
:1017B0001F910F91FF90EF900895F999FECF72BDA0
:1017C00061BDF89A80B50895F999FECF1FBA72BD30
:1017D00061BD40BD0FB6F894FA9AF99A0FBE08950C
:1017E000FC01809185028C3090F480838F5F809320
:1017F0008502815090E0FC01EE0FFF1FE80FF91FFA
:10180000EA57FD4F88EB9BE09283818308958FEF29
:1018100080830895FC0120812C30B8F581819927BF
:1018200087FD909548E850E0481B590B440F551F21
:10183000440F551F6417750784F08281992787FD2F
:10184000909548E552E0481B590B440F551F440F33
:10185000551F641775070CF4AB0142505040CA0184
:10186000AA2797FDA095BA2F880F991FAA1FBB1F03
:101870004FB7F89430E0F901EE0FFF1FE20FF31FAE
:10188000EA57FD4F928381834FBF0895AF92BF9275
:10189000CF92DF92EF92FF920F931F93CF93DF933C
:1018A000EC019B0182E0603278070CF048C077FFC2
:1018B00003C020E030E005C0653B710514F024EB67
:1018C00030E000D000D0B901882777FD8095982FAF
:1018D0002981332727FD3095E8E8AE2EB12CA21AD6
:1018E000B30AAA0CBB1CAA0CBB1CCC24B7FCC0942A
:1018F000DC2CEA81FF27E7FDF09528E532E02E1B7E
:101900003F0B220F331F220F331F442737FD409513
:10191000542FEDB7FEB7218332834383548320E0F5
:1019200030E040E050E004EBE02EF12C012D112DD1
:101930000E94ED169B010F900F900F900F90CE011B
:10194000B9010E940A0CDF91CF911F910F91FF9076
:10195000EF90DF90CF90BF90AF900895CF92DF923D
:10196000EF92FF921F93CF93DF93EC01162F7A0132
:10197000690188818C3008F064C0862F61E00E9484
:10198000ED11888190E0FC01EE0FFF1FE80FF91FB9
:10199000EA57FD4F1F738081807C812B808380E21A
:1019A00092E08E199F0964E070E00E948B1A6983AF
:1019B00080E699E08C199D0964E070E00E948B1A22
:1019C0006A83A8818A2F6CE00E946B1A682F70E0EE
:1019D000AB01440F551F460F571F440F551F440FAF
:1019E000551F20E030E0C901840F951FFC01EE0F68
:1019F000FF1FE80FF91FEA57FD4F808186FD15C0D4
:101A00002F5F3F4F2C30310571F724C010928000BA
:101A100082E0809381001092850010928400B19A38
:101A200080916F00826080936F008A2F90E0FC01AC
:101A3000EE0FFF1FE80FF91FEA57FD4F808180640A
:101A400080838881DF91CF911F91FF90EF90DF908D
:101A5000CF900895672BD1F2E8CF40E252E020E624
:101A600039E00E94AE0C08951F920F920FB60F92AC
:101A700011242F933F934F935F936F937F938F9393
:101A80009F93AF93BF93EF93FF938091AA0287FF39
:101A900005C010928500109284002BC02091AA02EC
:101AA000332727FD30958091850290E0281739076C
:101AB00004F58091AA02992787FD9095FC01EE0F0D
:101AC000FF1FE80FF91FEA57FD4F808186FF11C005
:101AD0008091AA02992787FD9095FC01EE0FFF1FC8
:101AE000E80FF91FEA57FD4F80818F7360E00E9475
:101AF0002C128091AA028F5F8093AA022091AA02E1
:101B0000332727FD30958091850290E0281739070B
:101B10000CF04EC08091AA028C300CF049C020918C
:101B20008400309185008091AA02992787FD9095C5
:101B3000FC01EE0FFF1FE80FF91FEA57FD4F8181EF
:101B40009281820F931F90938900809388008091E7
:101B5000AA02992787FD9095FC01EE0FFF1FE80F61
:101B6000F91FEA57FD4F808186FF2BC08091AA02A2
:101B7000992787FD9095FC01EE0FFF1FE80FF91FD5
:101B8000EA57FD4F80818F7361E00E942C1219C0CB
:101B900080E49CE905C080918400909185000496C2
:101BA00090938900809388008FEF8093AA0209C0E8
:101BB0008091840090918500049680549C4940F364
:101BC000EACFFF91EF91BF91AF919F918F917F915C
:101BD0006F915F914F913F912F910F900FBE0F909A
:101BE0001F9018950F931F93CF93DF93FC01738D74
:101BF00076957170A685B7859585772329F08C91A8
:101C0000892309F454C004C08C91892309F04FC082
:101C10008389948920E001972FEF8F3F9207D9F7AE
:101C2000C589D689A685B785158560E031E040E095
:101C300050E000E0CE01202F01972FEF8F3F920759
:101C4000D9F78C91812311F0632B03C0832F8095EA
:101C50006823330F4F5F5F4F4830510559F787892D
:101C6000908D20E001972FEF8F3F9207D9F77111E8
:101C700060958091ED022091EE0290E001968F73C5
:101C8000907030E08217930779F0E091ED02F0E078
:101C9000E355FD4F60838091ED0290E001968F73D4
:101CA00090708093ED0203C0838D8160838FDF91FC
:101CB000CF911F910F9108951F920F920FB60F921F
:101CC00011242F933F934F935F936F937F938F9341
:101CD0009F93AF93BF93EF93FF938091AB0290914B
:101CE000AC02009711F00E94F20DFF91EF91BF91AD
:101CF000AF919F918F917F916F915F914F913F91A4
:101D00002F910F900FBE0F901F9018951F920F925A
:101D10000FB60F9211242F933F934F935F936F93BE
:101D20007F938F939F93AF93BF93EF93FF93809194
:101D3000AB029091AC02009711F00E94F20DFF915E
:101D4000EF91BF91AF919F918F917F916F915F9133
:101D50004F913F912F910F900FBE0F901F901895AC
:101D60001F920F920FB60F9211242F933F934F9310
:101D70005F936F937F938F939F93AF93BF93EF93F3
:101D8000FF938091AB029091AC02009711F00E94FA
:101D9000F20DFF91EF91BF91AF919F918F917F9144
:101DA0006F915F914F913F912F910F900FBE0F90C8
:101DB0001F9018952091100330E080910F03281B8D
:101DC0003109C901089540910F038091100348170C
:101DD00018F02FEF3FEF0AC0E42FF0E0E151FD4F84
:101DE0008081282F30E04F5F40930F03C901089591
:101DF000E0910F0380911003E81718F0EFEFFFEF69
:101E000006C0F0E0E151FD4F8081E82FF0E0CF0106
:101E100008950895109237031092360388EE93E0E8
:101E2000A0E0B0E08093380390933903A0933A0385
:101E3000B0933B0384E991E090933503809334039E
:101E40000895CF92DF92EF92FF920F931F93CF935B
:101E5000DF937C016B018A01809133038823A1F019
:101E6000C0E0D0E00DC0D701ED91FC91D601AC0FE0
:101E7000BD1F0190F081E02DC7016C91099521965D
:101E8000C017D10780F304C0CB01642F0E94820FDA
:101E9000C801DF91CF911F910F91FF90EF90DF90DC
:101EA000CF900895DF93CF930F92CDB7DEB7FC01AB
:101EB0006983809133038823C9F080913203803293
:101EC00038F081E090E09383828320E030E015C019
:101ED00080913103E82FF0E0EF5EFC4F9981908311
:101EE0008F5F809331038093320305C0CE0101964A
:101EF00061E00E94820F21E030E0C9010F90CF9194
:101F0000DF910895482F613210F081E008958091AB
:101F10004003843011F082E0089560938B03AAE6B9
:101F2000B3E0842F9C01F90102C081918D938E2F23
:101F3000841B8617D0F380E008951F920F920FB68E
:101F40000F9211242F933F934F935F936F937F933F
:101F50008F939F93AF93BF93EF93FF938091B900BB
:101F600090E0887F90708836910509F4D3C0893657
:101F700091050CF03EC08033910509F49DC081337A
:101F80009105D4F48031910509F474C08131910533
:101F90003CF4009709F41CC1089709F020C16AC0FD
:101FA0008032910509F483C08832910509F467C035
:101FB000489709F014C163C08834910509F4A8C09A
:101FC000893491054CF48833910509F477C0803445
:101FD000910509F004C182C08835910509F483C0D8
:101FE0008036910509F496C08035910509F0F7C057
:101FF00069C0803A910509F4A5C0813A9105ECF4D5
:102000008038910509F48CC0813891054CF48037F3
:10201000910509F47FC08837910509F0E0C07AC0C6
:102020008039910509F47CC08839910509F4C8C04C
:102030008838910509F0D3C0C3C0883B910509F4E5
:10204000ADC0893B91054CF4883A910509F491C0E3
:10205000803B910509F0C3C08CC0883C910509F410
:10206000B1C0883F910509F4AFC0803C910509F0EB
:10207000B6C0A8C0809141038093BB00A1C09091DD
:10208000680380916903981768F490916803E92FB9
:10209000F0E0E85BFC4F80818093BB009F5F9093F2
:1020A00068038EC080914203882369F103C080E2F7
:1020B0008093AD0384ED8FC080E3FACF88E38093F3
:1020C000AD0380C0809168039091BB00E82FF0E0E1
:1020D000E85BFC4F90838F5F809368039091680367
:1020E000809169036BC0809168039091BB00E82FD9
:1020F000F0E0E85BFC4F90838F5F809368038091F2
:102100004203882329F481E08093430384EA63C077
:1021100084E961C083E0809340031092AC0350C017
:102120008091AC03803208F04FC08091AC03909155
:10213000BB00E82FF0E0E457FC4F90838F5F809363
:10214000AC033EC08091AC03803230F4E091AC032C
:10215000F0E0E457FC4F10826091AC03E09146033D
:10216000F09147038CE893E070E009951092AC037E
:1021700029C084E08093400310928A0310928B035D
:10218000E0914403F0914503099580918B038823E6
:1021900029F481E080938B0310926A0390918A0363
:1021A000E92FF0E0E659FC4F80818093BB009F5FF0
:1021B00090938A0390918A0380918B03981720F45F
:1021C00085EC03C085EC07C085E88093BC0007C0A0
:1021D0001092AD0385E98093BC0010924003FF91FB
:1021E000EF91BF91AF919F918F917F916F915F918F
:1021F0004F913F912F910F900FBE0F901F90189508
:102200001F920F920FB60F9211242F933F938F932B
:102210009F93AF93BF938091B2039091B303A0912A
:10222000B403B091B5033091B6030196A11DB11D61
:10223000232F2D5F2D3720F02D570196A11DB11DA5
:102240002093B6038093B2039093B303A093B40397
:10225000B093B5038091AE039091AF03A091B0030A
:10226000B091B1030196A11DB11D8093AE0390936F
:10227000AF03A093B003B093B103BF91AF919F910F
:102280008F913F912F910F900FBE0F901F90189537
:10229000019739F0880F991F880F991F02970197AE
:1022A000F1F70895789484B5826084BD84B5816027
:1022B00084BD85B5826085BD85B5816085BDEEE64E
:1022C000F0E0808181608083E1E8F0E0108280812D
:1022D00082608083808181608083E0E8F0E080819B
:1022E00081608083E1EBF0E0808184608083E0EBBB
:1022F000F0E0808181608083EAE7F0E080818460A3
:1023000080838081826080838081816080838081FE
:10231000806880831092C10008951F93CF93DF934C
:10232000182FEB0161E00E94ED11209709F44AC0DB
:10233000CF3FD10509F449C0E12FF0E0E552FF4F4E
:1023400084918330C1F0843028F4813051F08230A0
:10235000B1F50CC0863019F1873049F1843079F538
:1023600014C084B5806884BDC7BD33C084B58062A5
:1023700084BDC8BD2EC0809180008068809380009D
:10238000D0938900C093880024C08091800080622F
:1023900080938000D0938B00C0938A001AC08091F4
:1023A000B00080688093B000C093B30012C08091E9
:1023B000B00080628093B000C093B4000AC0C038FF
:1023C000D1051CF4812F60E002C0812F61E00E94E2
:1023D0002C12DF91CF911F910895CF93DF93482F57
:1023E00050E0CA0189539F4FFC0134914D545F4F17
:1023F000FA018491882369F190E0880F991FFC010C
:10240000EB56FF4FA591B491FC01E156FF4FC591EA
:10241000D491662351F42FB7F8948C91932F909513
:1024200089238C93888189230BC0623061F42FB794
:10243000F8948C91932F909589238C938881832B8A
:1024400088832FBF06C09FB7F8948C91832B8C9301
:102450009FBFDF91CF910895482F50E0CA01855268
:102460009F4FFC012491CA0189539F4FFC01949115
:102470004D545F4FFA013491332309F440C02223B5
:1024800051F1233071F0243028F42130A1F02230B2
:1024900011F514C02630B1F02730C1F02430D9F442
:1024A00004C0809180008F7703C0809180008F7D71
:1024B0008093800010C084B58F7702C084B58F7D73
:1024C00084BD09C08091B0008F7703C08091B000B7
:1024D0008F7D8093B000E32FF0E0EE0FFF1FE156F9
:1024E000FF4FA591B4912FB7F894662321F48C91F6
:1024F0009095892302C08C91892B8C932FBF0895CE
:10250000DC015C968C915C97FD01E80FF11DE35AAC
:10251000FF4F20815C968C915C9790E001968F73C1
:1025200090705C968C935C975696ED91FC915797C2
:1025300020835096ED91FC91519780818064808337
:102540005B969C915B975C968C915C97981739F49D
:102550005296ED91FC91539780818F7D80830895F1
:10256000DF92EF92FF920F931F93CF93DF93EC01D3
:102570007A018B01D22EE889F98982E0808340308C
:1025800081EE580780E0680780E07807A1F060E0FE
:1025900079E08DE390E0A80197010E949E1A2150F6
:1025A000304040405040569547953795279580E1FB
:1025B0002030380798F0E889F989108260E874E8DB
:1025C0008EE190E0A80197010E949E1A21503040B0
:1025D000404050405695479537952795EC85FD85A9
:1025E0003083EE85FF852083188EEC89FD89D082AB
:1025F000EA89FB89808180618083EA89FB89808107
:1026000088608083EA89FB89808180688083EA8989
:10261000FB8980818F7D8083DF91CF911F910F9106
:10262000FF90EF90DF900895FC01218D828D30E0C6
:10263000205C3F4F281B31092F733070C90108956A
:10264000FC01918D828D981719F42FEF3FEF06C092
:10265000828DE80FF11D858D282F30E0C901089586
:10266000DC0159969C9159975A968C915A979817D4
:1026700019F42FEF3FEF10C05A968C915A97FD0135
:10268000E80FF11D958D5A968C915A978F5F8F7335
:102690005A968C93292F30E0C9010895CF93DF9388
:1026A000EC01888D882361F419C08C9185FF0AC0E4
:1026B000E889F989808185FF05C0CE010E948012DA
:1026C000AA89BB898C9185FD05C0E889F98980813B
:1026D00086FD04C00FB607FEE8CFF4CFDF91CF919F
:1026E00008950F931F93CF93DF93EC01062F9B8DDB
:1026F0008C8D981791F5E889F989808185FF2DC027
:10270000EE89FF896083E889F9898081806480830C
:102710001DC00FB607FC08C0E889F989808185FFD4
:1027200003C0CE010E9480128C8D181791F38B8DFF
:10273000FE01E80FF11DE35AFF4F00831B8FEA896A
:10274000FB8980818062808381E0888F81E090E0D6
:10275000DF91CF911F910F9108951B8D1F5F1F7304
:10276000E3CF89E394E1892B51F080E090E0892B5D
:1027700031F00E943914882311F00E94000008955E
:102780001F920F920FB60F9211242F938F939F9346
:10279000EF93FF93E091C703F091C803808182FD1E
:1027A00016C0E091CD03F091CE0320819091D0032B
:1027B0009F5F9F738091D103981771F0E091D003D0
:1027C000F0E0E954FC4F258F9093D00305C0E091D1
:1027D000CD03F091CE03E081FF91EF919F918F9116
:1027E0002F910F900FBE0F901F9018951092BA0363
:1027F0001092B90388EE93E0A0E0B0E08093BB03B1
:102800009093BC03A093BD03B093BE0384EA91E010
:102810009093B8038093B70385EC90E09093C40342
:102820008093C30384EC90E09093C6038093C50328
:1028300080EC90E09093C8038093C70381EC90E014
:102840009093CA038093C90382EC90E09093CC03E9
:102850008093CB0386EC90E09093CE038093CD03DE
:102860001092D0031092D1031092D2031092D3038E
:10287000089587EB93E00E94141320E0892B09F060
:1028800021E0822F08951F920F920FB60F9211240C
:102890002F933F934F935F936F937F938F939F9368
:1028A000AF93BF93EF93FF9387EB93E00E94801267
:1028B000FF91EF91BF91AF919F918F917F916F9118
:1028C0005F914F913F912F910F900FBE0F901F90EE
:1028D0001895CF93DF930E9452110E94C107C1EB5C
:1028E000D3E10E942C0B2097E1F30E94B113F9CFA2
:1028F000CF92DF92EF92FF920F931F93CF93DF93CC
:102900007C016B018A01C0E0D0E00FC0D6016D915F
:102910006D01D701ED91FC910190F081E02DC7018F
:102920000995C80FD91F015010400115110571F705
:10293000CE01DF91CF911F910F91FF90EF90DF902B
:10294000CF900895DC01ED91FC910190F081E02D94
:1029500009950895EF92FF920F931F938C01DC016C
:10296000ED91FC910190F081E02D6DE009957C01E5
:10297000D801ED91FC910190F081E02DC8016AE051
:1029800009959C012E0D3F1DC9011F910F91FF90CC
:10299000EF900895CF93DF93EC016115710519F461
:1029A00020E030E00FC0DB010D900020E9F7119727
:1029B000A61BB70BE881F9810280F381E02DAD0100
:1029C00009959C01C901DF91CF9108954F925F92C3
:1029D0007F928F929F92AF92BF92CF92DF92EF92AF
:1029E000FF920F931F93DF93CF93CDB7DEB7A197DD
:1029F0000FB6F894DEBF0FBECDBF2C01742ECB01F5
:102A0000223008F42AE019A231E2C32ED12CCC0ED8
:102A1000DD1E822E9924AA24BB24672D752FA501C3
:102A200094010E949E1A79018A01C801B701A5018B
:102A300094010E944C1A472D461B0894C108D108E6
:102A40004A3014F4405D01C0495CF6014083E11452
:102A5000F1040105110521F07E2C5F2DC801DDCFA9
:102A6000C201B6010E94CA14A1960FB6F894DEBF47
:102A70000FBECDBFCF91DF911F910F91FF90EF90CF
:102A8000DF90CF90BF90AF909F908F907F905F909E
:102A90004F900895DC012115310541F4ED91FC9131
:102AA0000190F081E02D642F099508950E94E614AD
:102AB0000895EF92FF920F931F939A01E62EFF2441
:102AC00000E010E0B801A7010E944A151F910F9184
:102AD000FF90EF900895CF92DF92EF92FF920F93C5
:102AE0001F93CF93DF93EC016A017B012115310520
:102AF00041F4E881F9810190F081E02D642F09957E
:102B00001FC02A303105D1F477FF17C0E881F98161
:102B10000190F081E02D6DE209958C014427552745
:102B2000BA014C195D096E097F09CE012AE00E94A5
:102B3000E6149801280F391F04C02AE00E94E61409
:102B40009C01C901DF91CF911F910F91FF90EF90F0
:102B5000DF90CF900895EF92FF920F931F937B0128
:102B60009A010027F7FC0095102FB801A7010E94D9
:102B70006B151F910F91FF90EF900895CF92DF9208
:102B8000EF92FF920F931F936C017B019A01002734
:102B9000F7FC0095102FB801A7010E946B158C015E
:102BA000C6010E94AA14080F191FC8011F910F9196
:102BB000FF90EF90DF90CF9008950E94CA1408957F
:102BC0007F928F929F92AF92BF92CF92DF92EF92BD
:102BD000FF920F931F93CF93DF934C017A018B01E8
:102BE000722ECB01BA01A80197010E94161A882300
:102BF00021F0C40168E671E021C0C0E0D0E05701D7
:102C00006801E894D7F8C601B5012FEF3FEF4FE711
:102C10005FE70E94161A882351F4C601B5012FEF11
:102C20003FEF4FE75FE70E94C317181614F0C1E0AB
:102C3000D0E0219739F0C4016CE671E00E94CA141B
:102C4000EC0193C0C801B7012FEF3FEF4FE75FE4FE
:102C50000E943719181654F0C801B7012FEF3FEF43
:102C60004FE75FEC0E94C317882324F4C40160E798
:102C700071E0E4CFC801B70120E030E040E050E06F
:102C80000E94C31787FD03C0C0E0D0E00EC0D4018E
:102C9000ED91FC910190F081E02DC4016DE2099568
:102CA000EC0117FB109517F9109520E030E040E09B
:102CB0005FE3DD240BC0CA01B90120E030E040E24F
:102CC00051E40E94C7179B01AC01D394D71498F329
:102CD000C801B7010E9437175B016C010E943418CC
:102CE0007B018C01C401B801A7012AE030E00E94F9
:102CF0004A15C80FD91F772039F0C40164E771E085
:102D00000E94CA14C80FD91FC801B7010E946018D9
:102D10009B01AC01C601B5010E94361724C020E01A
:102D200030E040E251E40E9442197B018C010E9494
:102D30002F185B016C01CC24B7FCC094DC2CC401BF
:102D4000B601A5012AE030E00E946B15C80FD91F1B
:102D5000C601B5010E9462189B01AC01C801B70110
:102D60000E9436177A947720D1F6CE01DF91CF9169
:102D70001F910F91FF90EF90DF90CF90BF90AF9099
:102D80009F908F907F9008950E94E0150895EF9294
:102D9000FF920F931F937C010E94E0158C01C701E5
:102DA0000E94AA14080F191FC8011F910F91FF90CC
:102DB000EF900895EF92FF920F931F937C010E9472
:102DC000CA148C01C7010E94AA14080F191FC80158
:102DD0001F910F91FF90EF9008952F923F924F9285
:102DE0005F926F927F928F929F92AF92BF92CF929B
:102DF000DF92EF92FF920F931F93DF93CF93CDB7A4
:102E0000DEB73B014C0119012A016D897E898F894A
:102E1000988D6A197B098C099D09621A730A840AC4
:102E2000950AA40193010E944C1AE218F3080409C0
:102E30001509A80197010E94C01A2A0D3B1D4C1DBF
:102E40005D1DB901CA01CF91DF911F910F91FF90D4
:102E5000EF90DF90CF90BF90AF909F908F907F903A
:102E60006F905F904F903F902F9008955058BB27E0
:102E7000AA270ED0C2C1B3D130F0B8D120F031F4BE
:102E80009F3F11F41EF483C10EF4E095E7FB79C176
:102E9000E92FC4D180F3BA17620773078407950737
:102EA00018F071F49EF5DCC10EF4E0950B2EBA2FEC
:102EB000A02D0B01B90190010C01CA01A001112440
:102EC000FF27591B99F0593F50F4503E68F11A16EC
:102ED000F040A22F232F342F4427585FF3CF46957D
:102EE00037952795A795F0405395C9F77EF41F169F
:102EF000BA0B620B730B840BBAF09150A1F0FF0F69
:102F0000BB1F661F771F881FC2F70EC0BA0F621F54
:102F1000731F841F48F4879577956795B795F79544
:102F20009E3F08F0B3CF9395880F08F09927EE0FD6
:102F3000979587950895DF93DD27B92FBF7740E8F0
:102F40005FE31616170648075B0710F4D92F93D1D5
:102F50009F938F937F936F9366D2E8E6F0E01AD148
:102F60004CD12F913F914F915F9198D1DD2349F042
:102F70009058A2EA2AED3FE049EC5FE3D0785D2764
:102F800087DFDF913AC1D9D008F481E008950CD0F1
:102F900034C12CD140F023D130F021F45F3F19F03F
:102FA000F0C051115EC1F3C039D198F39923C9F330
:102FB0005523B1F3951B550BBB27AA27621773073F
:102FC000840738F09F5F5F4F220F331F441FAA1FF3
:102FD000A9F333D00E2E3AF0E0E830D091505040B3
:102FE000E695001CCAF729D0FE2F27D0660F771F61
:102FF000881FBB1F261737074807AB07B0E809F043
:10300000BB0B802DBF01FF2793585F4F2AF09E3FD7
:10301000510568F0B6C025C15F3FECF3983EDCF384
:10302000869577956795B795F7959F5FC9F7880F50
:10303000911D9695879597F90895E1E0660F771FA2
:10304000881FBB1F621773078407BA0720F0621B33
:10305000730B840BBA0BEE1F88F7E095089504D02C
:103060006894B111FEC00895E1D088F09F5790F0A8
:10307000B92F9927B751A0F0D1F0660F771F881F9D
:10308000991F1AF0BA95C9F712C0B13081F0E8D093
:10309000B1E00895E5C0672F782F8827B85F39F031
:1030A000B93FCCF3869577956795B395D9F73EF4FC
:1030B00090958095709561957F4F8F4F9F4F0895A4
:1030C000E89409C097FB3EF49095809570956195C2
:1030D0007F4F8F4F9F4F9923A9F0F92F96E9BB2778
:1030E0009395F695879577956795B795F111F8CFF4
:1030F000FAF4BB0F11F460FF1BC06F5F7F4F8F4F5F
:103100009F4F16C0882311F096E911C0772321F054
:103110009EE8872F762F05C0662371F096E8862FEC
:1031200070E060E02AF09A95660F771F881FDAF743
:10313000880F9695879597F90895990F0008550F70
:10314000AA0BE0E8FEEF16161706E807F907C0F02D
:1031500012161306E407F50798F0621B730B840B35
:10316000950B39F40A2661F0232B242B252B21F40F
:1031700008950A2609F4A140A6958FEF811D811DAF
:10318000089597F99F6780E870E060E008959FEFE9
:1031900080EC0895DF93CF931F930F93FF92EF92EC
:1031A000DF927B018C01689405C0DA2EEF0176D0A6
:1031B000FE01E894A5912591359145915591AEF385
:1031C000EF0166DEFE019701A801DA9479F7DF903E
:1031D000EF90FF900F911F91CF91DF910895002400
:1031E0000A941616170618060906089500240A946C
:1031F00012161306140605060895092E0394000CF2
:1032000011F4882352F0BB0F40F4BF2B11F460FF80
:1032100004C06F5F7F4F8F4F9F4F089557FD9058A9
:10322000440F551F59F05F3F71F04795880F97FB8A
:10323000991F61F09F3F79F0879508951216130644
:103240001406551FF2CF4695F1DF08C01616170673
:103250001806991FF1CF86957105610508940895A8
:10326000E894BB2766277727CB0197F9089565DF98
:1032700008F48FEF08959B01AC0160E070E080E8F6
:103280009FE385CE0BD0B9CFAADF28F0AFDF18F0CF
:10329000952309F076CF7BCF1124E3CFBFDFA0F3D6
:1032A000959FD1F3950F50E0551F629FF001729FDB
:1032B000BB27F00DB11D639FAA27F00DB11DAA1FFA
:1032C000649F6627B00DA11D661F829F2227B00D47
:1032D000A11D621F739FB00DA11D621F839FA00DD2
:1032E000611D221F749F3327A00D611D231F849F22
:1032F000600D211D822F762F6A2F11249F57504079
:103300008AF0E1F088234AF0EE0FFF1FBB1F661F13
:10331000771F881F91505040A9F79E3F510570F0CC
:1033200030CF9FCF5F3FECF3983EDCF386957795E7
:103330006795B795F795E7959F5FC1F7FE2B880FC7
:10334000911D9695879597F9089570DFE0F09E3767
:10335000D8F09639B8F49E3848F4672F782F88272C
:10336000985FF9CF86957795679593959539D0F3C2
:10337000B62FB1706B0F711D811D20F48795779565
:103380006795939557C071C06CCF11F40EF4FFCEC2
:103390006CC04CDFD0F39923D9F3CEF39F57550B74
:1033A00087FF73D056959795B0E020F4660F771F8E
:1033B000881FBB1F1F930F9300249001A001800161
:1033C000F001A0E80E0F1F1F0A1E511D601B710B9C
:1033D0008009B50B48F4600F711F801DB51F0E1BCF
:1033E0001F0B0A0A510907C02E0F3F1F4A1F0E0F5D
:1033F0001F1F0A1E511D660F771F881FBB1FA69532
:10340000F795E795F8F60617170708065B07211DDD
:10341000311D411D0F911F91B901842F9158880FC3
:103420009695879508959B01AC012CCF86DE880B7D
:10343000990B0895882371F4772321F09850872BF6
:10344000762F07C0662311F499270DC09051862B63
:1034500070E060E02AF09A95660F771F881FDAF710
:10346000880F9695879597F908959F3F49F0915059
:1034700028F4869577956795B7959F5F80389F4F1D
:10348000880F9695879597F9089591505040660F4B
:10349000771F881FD2F70895629FD001739FF001B4
:1034A000829FE00DF11D649FE00DF11D929FF00DD4
:1034B000839FF00D749FF00D659FF00D9927729F0B
:1034C000B00DE11DF91F639FB00DE11DF91FBD0196
:1034D000CF0111240895991B79E004C0991F961714
:1034E00008F0961B881F7A95C9F780950895AA1B46
:1034F000BB1B51E107C0AA1FBB1FA617B70710F0DF
:10350000A61BB70B881F991F5A95A9F78095909510
:10351000BC01CD01089597FB092E07260AD077FD3F
:1035200004D0E5DF06D000201AF4709561957F4F36
:103530000895F6F7909581959F4F0895A1E21A2E70
:10354000AA1BBB1BFD010DC0AA1FBB1FEE1FFF1F47
:10355000A217B307E407F50720F0A21BB30BE40B97
:10356000F50B661F771F881F991F1A9469F76095DE
:103570007095809590959B01AC01BD01CF01089598
:1035800097FB092E05260ED057FD04D0D7DF0AD0B1
:10359000001C38F450954095309521953F4F4F4F82
:1035A0005F4F0895F6F790958095709561957F4FE0
:1035B0008F4F9F4F0895EE0FFF1F0590F491E02D60
:1035C0000994911106C0803219F089508550D0F7C6
:1035D00008959927882708952F923F924F925F92DE
:1035E0006F927F928F929F92AF92BF92CF92DF9213
:1035F000EF92FF920F931F93CF93DF93CDB7DEB778
:10360000CA1BDB0B0FB6F894DEBF0FBECDBF09940B
:103610002A88398848885F846E847D848C849B8462
:10362000AA84B984C884DF80EE80FD800C811B8170
:10363000AA81B981CE0FD11D0FB6F894DEBF0FBE9F
:0A364000CDBFED010895F894FFCF0F
:10364A005343415241330073657420746F2064659B
:10365A006661756C742073657475700020006D6FF7
:10366A00746F724144697220006D6F746F424469CD
:10367A0072200041524D4C31200041524D4C3220B3
:10368A0000537065656420004D3130204D5343412D
:10369A00524120004100204200204400504F532054
:1036AA0058002059004F4B006E616E00696E66002B
:1036BA006F7666002E00C800D007FFFF0B0A0309C9
:1036CA000C0D0802FFFF1011140F150E0607050452
:1036DA0000000000520F210FDA0EE30EF80E090F58
:1036EA0000000000711378141413301320134E13C2
:00000001FF
