:100000000C9498000C94C0000C94C0000C94100E3A
:100010000C943A0E0C94640E0C94C0000C94C00026
:100020000C94C0000C94C0000C94C0000C94E80C1C
:100030000C94C0000C94C0000C94C0000C94C00040
:100040000C94B4100C94C0000C9474130C94F7131B
:100050000C94C0000C94C0000C94C0000C94C00020
:100060000C94510F0C94C000084AD73B3BCE016E54
:1000700084BCBFFDC12F3D6C74319ABD56833DDAFF
:100080003D00C77F11BED9E4BB4C3E916BAAAABE0E
:10009000000000803F00000000240027002A00002C
:1000A000000000250028002B00000000002300268F
:1000B00000290004040404040404040202020202ED
:1000C000020303030303030102040810204080011C
:1000D000020408102001020408102000000007009C
:1000E00002010000030406000000000000000049B7
:1000F0004E46494E4954594E414ECDCCCC3D0AD77F
:10010000233C17B7D13877CC2B329595E6241FB115
:100110004F0A000020410000C84200401C4620BC9D
:10012000BE4CCA1B0E5AAEC59D74A402BE0EAA13C5
:1001300011241FBECFEFD8E0DEBFCDBF11E0A0E09D
:10014000B1E0E2EBF5E302C005900D92A63AB107EB
:10015000D9F714E0A6EAB1E001C01D92AC34B107B2
:10016000E1F711E0C0E3D1E004C02297FE010E9454
:10017000911ACA32D107C9F70E941D140C94D71ADC
:100180000C940000662777270C942C01FC0188272B
:100190009927E89421912032E9F3293010F02E308C
:1001A000C8F32B3241F02D3239F4689404C00E9418
:1001B0002401820F911D219120532A30C0F31EF497
:1001C000909581959F4F0895FB01DC01415050406F
:1001D00030F08D910190801919F40020B9F7881B37
:1001E000990B0895009731F4DA018D919C91009755
:1001F00009F40EC0DC01FB013D912191222319F08D
:100200003217C9F3FACF332331F4DA011D921C926D
:100210008827992708951197AF93BF93FB013D91CC
:100220002191321771F4332321F4882799271197EC
:1002300002C01E921196FA01A193B0839F918F91F3
:100240000895222369F7EACF7AE0979F902D879F40
:10025000802D910D11240895A0E0B0E0E2E3F1E0DB
:100260000C94A61AEC015B016115710519F0FB01F4
:1002700091838083F9908F2D90E00E94951A892BAD
:10028000C9F7FDE2FF1621F4F990EE24E39405C0CE
:100290002BE2F21609F4F990EE248E010150104081
:1002A000C8016FEE70E043E050E00E948C02892BA1
:1002B00001F58E010E5F1F4FC80162EF70E045E04F
:1002C00050E00E948C02892B19F48E01095F1F4FA8
:1002D000A114B10419F0F50111830083E0FC04C0FE
:1002E00070E090E080E814C070E090E080E86FEF8C
:1002F00008C1C80167EF70E043E050E00E948C0243
:10030000892B69F4A114B10429F470E090E080EC29
:100310006FE7F7C02296F501D183C083F6CF88241A
:10032000992440E050E060E070E0EF2DE053EA30C7
:10033000A0F5F2E0EF2A8E2D90E09C01287030703D
:10034000E2FE06C0232B79F50894811C911C2BC07A
:10035000232B19F0089481089108DB01CA0112E0EF
:10036000880F991FAA1FBB1F1A95D1F7480F591F55
:100370006A1F7B1F440F551F661F771F4E0F511DAD
:10038000611D711D483929E9520729E9620729E1F0
:10039000720748F084E0E82A06C0EE3F31F4E3FC3F
:1003A00039C098E0E92AF990C0CFE53311F0E53182
:1003B00089F529912D3219F4E0E1EE2A05C02B329E
:1003C00019F081E090E003C0299182E090E0E22FF3
:1003D000E053EA3018F0C81BD90B1CC020E030E015
:1003E000FCE020383F075CF4C901880F991F880F93
:1003F000991F280F391F220F331F2E0F311DE9912E
:10040000E053EA3068F3E4FE03C0309521953F4F96
:10041000820E931ECE2CDD24E1FE07C0A114B10490
:1004200021F02197F501D183C083CB01BA010E944D
:1004300014187B018C01F3E0CF22DD2423E0C216E7
:10044000D10421F417FB109517F910955701680195
:10045000C801B70120E030E040E050E00E9477178B
:10046000882309F44AC097FE0DC02EE0E22E21E059
:10047000F22E9094819491089394C0E2D0E000E031
:1004800010E012C096E2E92E91E0F92EF6CFF701C6
:100490002591359145915491C601B5010E94F618F8
:1004A0005B016C018C1A9D0A8C169D0684F7D5950C
:1004B000C7950F5F1F4F0630110529F08CEF9FEF96
:1004C000E80EF91EF1CFC501D6017C018D018C2DFE
:1004D000880F8D2D881F8F3F51F0C601B50120E098
:1004E00030E040E050E00E947717882331F482E248
:1004F00090E090934B0480934A047E2D9F2D802F93
:10050000612F272F392F482F562FB901CA01CDB798
:10051000DEB7ECE00C94C21AFB01DC014150504004
:1005200088F08D9181341CF08B350CF4805E6591E0
:1005300061341CF06B350CF4605E861B611171F345
:10054000990B0895881BFCCF0F931F9382E192E0D3
:1005500062E00E94090B86E192E061E00E94090BD3
:100560008AE192E06AE00E941C0B0EE112E0C801F1
:1005700067E00E94090BC8010E94190B80932202B8
:100580001092230284E292E00E94A40B1F910F912B
:100590000895CF93DF93C0E0D0E0FE01EA55FE4F0F
:1005A0008AE792E0BE0140810E94980B2196C034F8
:1005B000D10599F7DF91CF9108950F931F93CF93B2
:1005C000DF93C0E0D0E08AE792E0BE010E94910B89
:1005D00006EA11E0FE01E00FF11F80832196C0348E
:1005E000D10589F7C80160E071E045E050E00E9464
:1005F000E400009729F18DEA93E066E071E00E9443
:100600008E1680E4F80111928A95E9F7D801E0E0AE
:10061000F1E085E001900D928150E1F71092AE017A
:100620001092AF0188EA90E09093B1018093B001FD
:100630008EEC90E09093B3018093B2010E94C902C6
:100640008091AE01882329F481E080930E028FEF20
:1006500004C08FEF80930E0281E080930F0280919F
:10066000AF01882329F481E0809310028FEF04C04A
:100670008FEF8093100281E080931102DF91CF9180
:100680001F910F910895DF93CF9300D0CDB7DEB7C0
:100690006BE171E0AE014F5F5F4F0E94F200898114
:1006A0009A810E94C60090933802809337020F907F
:1006B0000F90CF91DF910895DF93CF9300D0CDB706
:1006C000DEB76BE171E0AE014F5F5F4F0E94F20059
:1006D00089819A810E94C600BC0184E292E00E9456
:1006E000FA0B0F900F90CF91DF910895DF92EF9268
:1006F000FF920F931F93DF93CF9300D0CDB7DEB758
:100700006BE171E08E010F5F1F4FA8010E94F200A4
:100710007C01D02E012F64C080E090E06BE171E09D
:100720004D2D502F0E94F2007C01FC01808181340C
:1007300089F4C70101960E94C6008093AE018DEA3C
:1007400093E06DE171E00E9491158DEA93E0609174
:10075000AE0112C08234A9F4C70101960E94C600FE
:100760008093AF018DEA93E068E271E00E949115F9
:100770008DEA93E06091AF014AE050E00E940D15D0
:100780002FC08D3499F4C70101960E94C600909342
:10079000B1018093B0018DEA93E062E371E00E94C1
:1007A00091156091B0017091B10114C08E34C1F403
:1007B000C70101960E94C6009093B3018093B201D5
:1007C0008DEA93E069E371E00E9491156091B201B6
:1007D0007091B3018DEA93E04AE050E00E945F150A
:1007E000EF2809F099CF0E94C9020F900F90CF9186
:1007F000DF911F910F91FF90EF90DF9008950F937D
:100800001F930DEA13E0C80160E471E00E949115A6
:100810006091B0017091B101C8014AE050E00E94BE
:100820005F15C80160E20E9456146091B201709198
:10083000B301C8014AE050E00E945F15C80160E2C0
:100840000E9456144091EA015091EB016091EC0135
:100850007091ED01C80122E030E00E947816C801D5
:1008600060E20E9456144091EE015091EF016091B8
:10087000F0017091F101C80122E030E00E94781689
:10088000C80160E20E945614C8016CE471E00E9445
:1008900091156091AE01C80170E04AE050E00E94FD
:1008A0005F15C8016EE471E00E9491156091AF017F
:1008B000C80170E04AE050E00E9472151F910F914C
:1008C0000895DF93CF9300D0CDB7DEB76BE171E031
:1008D000AE014F5F5F4F0E94F20089819A810E94B2
:1008E000C600BC018AE192E00E945E0B0F900F905F
:1008F000CF91DF910895CF93DF93EC010E94C60062
:1009000084309105B9F08530910534F4813091053A
:1009100049F00397D1F40AC08530910579F00A9720
:10092000A1F410C0CE010E945C030FC0CE010E9452
:1009300043030BC0CE010E94610407C0CE010E9498
:10094000760303C0CE010E94FF03DF91CF9108958B
:10095000EF92FF920F931F9379018A012BED3FE0F5
:1009600049E450E40E947B1720E030E04AE756E477
:100970000E94F61820E030E040E05FE30E94F618A5
:100980000E9459190E94E31760932F02709330025E
:100990008093310290933202C801B7012BED3FE002
:1009A00049E450E40E947B1720E030E04AE756E437
:1009B0000E94F61820E030E040E05FE30E94F61865
:1009C0000E9459190E94E317609333027093340216
:1009D00080933502909336021F910F91FF90EF9014
:1009E00008952F923F924F925F926F927F928F92D3
:1009F0009F92AF92BF92CF92DF92EF92FF920F93AE
:100A00001F93DF93CF93CDB7DEB7A4970FB6F894BB
:100A1000DEBF0FBECDBF3B014C0159016A016091A1
:100A2000B0017091B101882777FD8095982F0E94C1
:100A300016181B012C016091B2017091B301882737
:100A400077FD8095982F0E94161869837A838B838F
:100A50009C83C201B101A20191010E94EB166D833A
:100A60007E838F839887C201B1019058A2019101C2
:100A70000E94F61869877A878B879C876D817E81B3
:100A80008F819885A20191010E94F6186D877E875B
:100A90008F87988B69817A818B819C819B01AC01C6
:100AA0000E94F618698B7A8B8B8B9C8B69817A817B
:100AB0008B819C819B01AC010E94EB1629813A81BC
:100AC0004B815C810E94F6186D8B7E8B8F8B988F8B
:100AD000C401B301A40193010E94F618698F7A8FB3
:100AE0008B8F9C8FC601B501A60195010E94F61857
:100AF0006D8F7E8F8F8F98A369857A858B859C8576
:100B0000A20191010E94F618A20191010E94F6181B
:100B10007B018C016D857E858F85988929813A813D
:100B20004B815C810E94F61829813A814B815C815E
:100B30000E94F6189B01AC01C801B7010E94EB1698
:100B40007B018C016D857E858F859889A401930139
:100B50000E94F618A40193010E94F6189B01AC01B3
:100B6000C801B7010E94EB167B018C016D857E8563
:100B70008F859889A60195010E94F618A601950116
:100B80000E94F6189B01AC01C801B7010E94EB1648
:100B90007B018C0169897A898B899C8929813A81B9
:100BA0004B815C810E94F61829813A814B815C81DE
:100BB0000E94F6189B01AC01C801B7010E94EA1619
:100BC0007B018C016D897E898F89988DA4019301A9
:100BD0000E94F618A40193010E94F6189B01AC0133
:100BE000C801B7010E94EB167B018C016D897E89DB
:100BF0008F89988DA60195010E94F618A60195018E
:100C00000E94F6189B01AC01C801B7010E94EB16C7
:100C10007B018C01698D7A8D8B8D9C8DA401930154
:100C20000E94F618A40193010E94F6189B01AC01E2
:100C3000C801B7010E94EA167B018C01C401B3010F
:100C400020E030E040E050EC0E94F618A40193014F
:100C50000E94F618A60195010E94F618A6019501BA
:100C60000E94F6189B01AC01C801B7010E94EB1667
:100C70007B018C016D8D7E8D8F8D98A1A6019501D4
:100C80000E94F618A60195010E94F6189B01AC017E
:100C9000C801B7010E94EA160E947D197B018C01F0
:100CA000C201B101A20191010E94F61869A37AA3C1
:100CB0008BA39CA36D817E818F819885A601950170
:100CC0000E94F618A80197010E94EB167B018C0187
:100CD000C201B10120E030E040E050EC0E94F61883
:100CE000A40193010E94F6189B01AC0169A17AA1AD
:100CF0008BA19CA10E94EB1629893A894B895C89BA
:100D00000E94EA16298D3A8D4B8D5C8D0E94EB1660
:100D10002D8D3E8D4F8D58A10E94EB169B01AC018D
:100D2000C801B7010E947B170E944F179B01AC01BD
:100D30000E94EB1660932702709328028093290289
:100D400090932A026D817E818F81988529813A81D5
:100D50004B815C810E94F6187B018C0169A17AA10C
:100D60008BA19CA1A80197010E94EB1629893A89C1
:100D70004B895C890E94EB16298D3A8D4B8D5C8DD9
:100D80000E94EA162D8D3E8D4F8D58A10E94EA16C5
:100D90005B016C0169857A858B859C85A80197012B
:100DA0000E94EB1629893A894B895C890E94EA16D0
:100DB000298D3A8D4B8D5C8D0E94EB162D8D3E8DCD
:100DC0004F8D58A10E94EB16A60195010E94F618BE
:100DD0000E947D19A60195010E947B170E944F1762
:100DE0009B01AC010E94EB1660932B0270932C02C6
:100DF00080932D0290932E02A4960FB6F894DEBF36
:100E00000FBECDBFCF91DF911F910F91FF90EF905B
:100E1000DF90CF90BF90AF909F908F907F906F901A
:100E20005F904F903F902F9008956091B201709124
:100E3000B3012091B0013091B101620F731F882777
:100E400077FD8095982F0E9416182AE037ED43E22F
:100E50005CE30E94EA1690586093EA017093EB01FC
:100E60008093EC019093ED0120E030E040E050E011
:100E70002093EE013093EF014093F0015093F10184
:100E80000E94F1046091270270912802809129024A
:100E900090912A026093FE017093FF0180930002FB
:100EA0009093010220912B0230912C0240912D024F
:100EB00050912E02209302023093030240930402C9
:100EC000509305020E94A80480912F029091300255
:100ED00090930B0280930A02809133029091340226
:100EE00090930D0280930C0208950F931F938DEA47
:100EF00093E040E052EC61E070E026E00E94641272
:100F00000E94DD0204E212E060912202709123024D
:100F1000C8010E94E10CC8016AE070E00E94FA0B6F
:100F20000E9415071F910F9108951816190624F4B1
:100F300082E192E060E003C082E192E061E00E9421
:100F40004B0B82E192E061E00E94380B82E192E07B
:100F500060E00E94380B08951816190624F486E103
:100F600092E060E003C086E192E061E00E944B0BFA
:100F700086E192E061E00E94380B86E192E060E059
:100F80000E94380B08952F923F924F925F926F927A
:100F90007F928F929F92AF92BF92CF92DF92EF9209
:100FA000FF920F931F93DF93CF93CDB7DEB72E97AA
:100FB0000FB6F894DEBF0FBECDBF20906D0130900C
:100FC0006E01409006025090070280910A029091B3
:100FD0000B02481A590A6090080270900902809129
:100FE0000C0290910D02681A790A630177FE04C021
:100FF000CC24DD24C618D708520157FE04C0AA2409
:10100000BB24A418B508BA86A986AC14BD0414F490
:10101000DA86C98629853A85B901882777FD8095C2
:10102000982F0E9416187B018C01B501882777FD47
:101030008095982F0E941618A80197010E947B178F
:101040006D837E838F839887B601882777FD80958F
:10105000982F0E941618A80197010E947B17698398
:101060007A838B839C834FEF5FEF5C874B870F2ED8
:10107000F0E08F2EF0E09F2EF0E0AF2EF0E0BF2EDC
:10108000F02D750164011E861D86B4C080910A0290
:1010900090910B0282179307A1F1C501B4012D8134
:1010A0003E814F8158850E94EB164B015C0120E088
:1010B00030E040E85FE30E94EB18882314F1141439
:1010C00015041CF400910E0202C000910F021127BA
:1010D00007FD1095C8010E94AC07C501B40120E0CE
:1010E00030E040E85FE30E94EA164B015C0180912A
:1010F0000A0290910B02800F911F90930B02809334
:101100000A0220910C0230910D0280910802909108
:10111000090228173907A1F1C701B60129813A81CF
:101120004B815C810E94EB166B017C0120E030E07A
:1011300040E85FE30E94EB18882314F116141704AB
:101140001CF40091100202C000911102112707FD4A
:101150001095C8010E949507C701B60120E030E054
:1011600040E85FE30E94EA166B017C0180910C026B
:1011700090910D02800F911F90930D0280930C02AD
:101180008B859C85820D931D20916B0130916C01A4
:10119000821793074CF040916D0150916E019C01B4
:1011A000481759070CF49A01209037023090380202
:1011B000220E331EC1010E94FC1089859A85ED859F
:1011C000FE858E1B9F0B20916D0130916E01409129
:1011D0006B0150916C01241B350B8217930724F48B
:1011E00021E030E03C872B874D855E854F5F5F4F68
:1011F0005E874D8720910602309107028D859E857E
:10120000E985FA858E179F070CF440CF30930B02C7
:1012100020930A02809108029091090290930D0296
:1012200080930C022E960FB6F894DEBF0FBECDBF92
:10123000CF91DF911F910F91FF90EF90DF90CF90B2
:10124000BF90AF909F908F907F906F905F904F90E6
:101250003F902F9008952F923F924F925F926F92FE
:101260007F928F929F92AF92BF92CF92DF92EF9236
:10127000FF920F931F932090F2013090F301409062
:10128000F4015090F501C201B1012091EA013091C1
:10129000EB014091EC015091ED010E94EA165B01D7
:1012A0006C016090F6017090F7018090F8019090C9
:1012B000F901C401B3012091EE013091EF01409199
:1012C000F0015091F1010E94EA167B018C01C601E8
:1012D000B501A60195010E94F6185B016C01C801D9
:1012E000B701A80197010E94F6189B01AC01C60145
:1012F000B5010E94EB160E947D192FE632E143E80A
:101300005AE30E94771787FD4AC0C201B101A401C8
:1013100093010E94F104609127027091280280914C
:10132000290290912A0220912B0230912C024091A7
:101330002D0250912E020E94A80480912F029091BC
:1013400030029093070280930602809133029091BD
:10135000340290930902809308020E94C30780918F
:10136000F2019091F301A091F401B091F501809305
:10137000EA019093EB01A093EC01B093ED01809111
:10138000F6019091F701A091F801B091F9018093D5
:10139000EE019093EF01A093F001B093F1011F9142
:1013A0000F91FF90EF90DF90CF90BF90AF909F9004
:1013B0008F907F906F905F904F903F902F90089507
:1013C000DF92EF92FF920F931F93DF93CF9300D0A2
:1013D000CDB7DEB76BE171E08E010F5F1F4FA80143
:1013E0000E94F2007C01D02E012F57C080E090E0D7
:1013F0006BE171E04D2D502F0E94F2007C01FC0149
:101400008081883569F4C70101960E94C20060930B
:10141000F2017093F3018093F4019093F5013DC0C4
:10142000893569F4C70101960E94C2006093F601F4
:101430007093F7018093F8019093F9012EC08A35DB
:1014400069F4C70101960E94C2006093FA0170938B
:10145000FB018093FC019093FD011FC0863499F439
:10146000C70101960E94C20020E030E040E752E44C
:101470000E947B176093E6017093E7018093E80177
:101480009093E9010AC0813441F4C70101960E949A
:10149000C6009093380280933702EF2809F0A6CF58
:1014A0000E942B090F900F90CF91DF911F910F9108
:1014B000FF90EF90DF900895CF93DF93EC010E94AF
:1014C000C6008130910519F04C97B1F504C0CE01EA
:1014D0000E94E00931C010923802109237026091E8
:1014E000B2017091B3012091B0013091B101620F4E
:1014F000731F882777FD8095982F0E9416182AE081
:1015000037ED43E25CE30E94EA1690586093F201E3
:101510007093F3018093F4019093F50180E090E0E3
:10152000A0E0B0E08093F6019093F701A093F8015A
:10153000B093F9010E942B09DF91CF910895FC012E
:101540008081873429F4CF0101960E945C0A31C062
:101550008D3429F4CF0101960E947B042AC0803586
:1015600041F58DEA93E061E571E00E9491154091AB
:10157000EA015091EB016091EC017091ED018DEA6F
:1015800093E022E030E00E9478168DEA93E067E570
:1015900071E00E9491154091EE015091EF01609130
:1015A000F0017091F1018DEA93E022E030E00E94B9
:1015B0007B168DEA93E06AE571E00E948E1608952D
:1015C000CF93DF938DEA93E00E94C812892BF1F04C
:1015D0008DEA93E00E94E41290917902E92FFF27AF
:1015E000E7FDF095C9E3D2E0EC0FFD1F80839F5F1C
:1015F000909379028A3051F4CE010E949F0A80E4D0
:10160000FE0111928A95E9F710927902DF91CF914C
:101610000895DC01E62FF0E0EE0FFF1FE159FE4FC9
:1016200080818C93818111968C93119712966C9383
:101630000895FC0181810895DC01E62FF0E0EE0FB2
:10164000FF1FE159FE4F80818C93818111968C930D
:10165000119712966C9381E0809380008BE08093C9
:10166000810083E08093B00084E08093B10008950E
:10167000FF920F931F938C01F62EFC01818161E094
:101680000E94A111F80181816F2D0E94E0111F912C
:101690000F91FF900895FF920F931F938C01F62EE8
:1016A000FC01808161E00E94A111F80180816F2D11
:1016B0000E94E0111F910F91FF900895EF92FF9209
:1016C0000F931F93CF93DF937C01EB016F3F710565
:1016D00019F014F0CFEFD0E08E018FEFC130D807B2
:1016E0001CF401E01FEF0AC0D7FD08C0C70161E08C
:1016F0000E94380BF7018081BE010AC0C70160E07B
:101700000E94380B66277727601B710BF7018081D9
:101710000E944111DF91CF911F910F91FF90EF90A7
:101720000895F999FECF72BD61BDF89A80B508950C
:10173000F999FECF1FBA72BD61BD40BD0FB6F894D6
:10174000FA9AF99A0FBE0895FC0180917B028C30C1
:1017500090F480838F5F80937B02815090E0FC0146
:10176000EE0FFF1FE80FF91FE458FD4F88EB9BE0D9
:101770009283818308958FEF80830895FC012081F7
:101780002C30B8F58181992787FD909548E850E085
:10179000481B590B440F551F440F551F64177507FD
:1017A00084F08281992787FD909548E552E0481B97
:1017B000590B440F551F440F551F641775070CF440
:1017C000AB0142505040CA01AA2797FDA095BA2FFD
:1017D000880F991FAA1FBB1F4FB7F89430E0F9017B
:1017E000EE0FFF1FE20FF31FE458FD4F928381833A
:1017F0004FBF0895AF92BF92CF92DF92EF92FF92C8
:101800000F931F93CF93DF93EC019B0182E0603233
:1018100078070CF048C077FF03C020E030E005C037
:10182000653B710514F024EB30E000D000D0B90125
:10183000882777FD8095982F2981332727FD3095BC
:10184000E8E8AE2EB12CA21AB30AAA0CBB1CAA0C53
:10185000BB1CCC24B7FCC094DC2CEA81FF27E7FD3D
:10186000F09528E532E02E1B3F0B220F331F220F8D
:10187000331F442737FD4095542FEDB7FEB7218322
:1018800032834383548320E030E040E050E004EBB7
:10189000E02EF12C012D112D0E94A1169B010F901D
:1018A0000F900F900F90CE01B9010E94BE0BDF91F7
:1018B000CF911F910F91FF90EF90DF90CF90BF904D
:1018C000AF900895CF92DF92EF92FF921F93CF9344
:1018D000DF93EC01162F7A01690188818C3008F0C2
:1018E00064C0862F61E00E94A111888190E0FC0114
:1018F000EE0FFF1FE80FF91FE458FD4F1F738081A3
:10190000807C812B808380E292E08E199F0964E0C5
:1019100070E00E943F1A698380E699E08C199D0966
:1019200064E070E00E943F1A6A83A8818A2F6CE00D
:101930000E941F1A682F70E0AB01440F551F460F1D
:10194000571F440F551F440F551F20E030E0C901B9
:10195000840F951FFC01EE0FFF1FE80FF91FE458DD
:10196000FD4F808186FD15C02F5F3F4F2C30310524
:1019700071F724C01092800082E080938100109261
:10198000850010928400B19A80916F0082608093EC
:101990006F008A2F90E0FC01EE0FFF1FE80FF91F88
:1019A000E458FD4F8081806480838881DF91CF91EE
:1019B0001F91FF90EF90DF90CF900895672BD1F2A9
:1019C000E8CF40E252E020E639E00E94620C089540
:1019D0001F920F920FB60F9211242F933F934F93A4
:1019E0005F936F937F938F939F93AF93BF93EF9387
:1019F000FF938091A00287FF05C01092850010928E
:101A000084002BC02091A002332727FD30958091C0
:101A10007B0290E02817390704F58091A0029927EE
:101A200087FD9095FC01EE0FFF1FE80FF91FE458AA
:101A3000FD4F808186FF11C08091A002992787FD0C
:101A40009095FC01EE0FFF1FE80FF91FE458FD4FC2
:101A500080818F7360E00E94E0118091A0028F5F0F
:101A60008093A0022091A002332727FD309580911A
:101A70007B0290E0281739070CF04EC08091A0023D
:101A80008C300CF049C02091840030918500809109
:101A9000A002992787FD9095FC01EE0FFF1FE80F2C
:101AA000F91FE458FD4F81819281820F931F90931B
:101AB0008900809388008091A002992787FD9095E6
:101AC000FC01EE0FFF1FE80FF91FE458FD4F808166
:101AD00086FF2BC08091A002992787FD9095FC017D
:101AE000EE0FFF1FE80FF91FE458FD4F80818F7341
:101AF00061E00E94E01119C080E49CE905C080917A
:101B000084009091850004969093890080938800CA
:101B10008FEF8093A00209C080918400909185008E
:101B2000049680549C4940F3EACFFF91EF91BF9116
:101B3000AF919F918F917F916F915F914F913F9165
:101B40002F910F900FBE0F901F9018950F931F931A
:101B5000CF93DF93FC01738D76957170A685B78561
:101B60009585772329F08C91892309F454C004C00A
:101B70008C91892309F04FC08389948920E00197D3
:101B80002FEF8F3F9207D9F7C589D689A685B785EC
:101B9000158560E031E040E050E000E0CE01202F0C
:101BA00001972FEF8F3F9207D9F78C91812311F086
:101BB000632B03C0832F80956823330F4F5F5F4FE4
:101BC0004830510559F78789908D20E001972FEF14
:101BD0008F3F9207D9F7711160958091E3022091B0
:101BE000E40290E001968F73907030E082179307C3
:101BF00079F0E091E302F0E0ED55FD4F60838091D4
:101C0000E30290E001968F7390708093E30203C02B
:101C1000838D8160838FDF91CF911F910F91089504
:101C20001F920F920FB60F9211242F933F934F9351
:101C30005F936F937F938F939F93AF93BF93EF9334
:101C4000FF938091A1029091A202009711F00E944F
:101C5000A60DFF91EF91BF91AF919F918F917F91D1
:101C60006F915F914F913F912F910F900FBE0F9009
:101C70001F9018951F920F920FB60F9211242F9359
:101C80003F934F935F936F937F938F939F93AF9304
:101C9000BF93EF93FF938091A1029091A2020097CE
:101CA00011F00E94A60DFF91EF91BF91AF919F910E
:101CB0008F917F916F915F914F913F912F910F90F5
:101CC0000FBE0F901F9018951F920F920FB60F9294
:101CD00011242F933F934F935F936F937F938F9331
:101CE0009F93AF93BF93EF93FF938091A102909145
:101CF000A202009711F00E94A60DFF91EF91BF91F3
:101D0000AF919F918F917F916F915F914F913F9193
:101D10002F910F900FBE0F901F90189520910603E2
:101D200030E080910503281B3109C90108954091D5
:101D3000050380910603481718F02FEF3FEF0AC004
:101D4000E42FF0E0EB51FD4F8081282F30E04F5F12
:101D500040930503C9010895E091050380910603AE
:101D6000E81718F0EFEFFFEF06C0F0E0EB51FD4F82
:101D70008081E82FF0E0CF010895089510922D039F
:101D800010922C0388EE93E0A0E0B0E080932E0345
:101D900090932F03A0933003B093310389E891E02F
:101DA00090932B0380932A030895CF92DF92EF92B2
:101DB000FF920F931F93CF93DF937C016B018A01F6
:101DC000809129038823A1F0C0E0D0E00DC0D701A5
:101DD000ED91FC91D601AC0FBD1F0190F081E02D7B
:101DE000C7016C9109952196C017D10780F304C0F3
:101DF000CB01642F0E94360FC801DF91CF911F9154
:101E00000F91FF90EF90DF90CF900895DF93CF93E5
:101E10000F92CDB7DEB7FC01698380912903882337
:101E2000C9F080912803803238F081E090E09383FC
:101E3000828320E030E015C080912703E82FF0E096
:101E4000E95FFC4F998190838F5F80932703809394
:101E5000280305C0CE01019661E00E94360F21E003
:101E600030E0C9010F90CF91DF910895482F613282
:101E700010F081E0089580913603843011F082E003
:101E8000089560938103A0E6B3E0842F9C01F901DB
:101E900002C081918D938E2F841B8617D0F380E032
:101EA00008951F920F920FB60F9211242F933F9314
:101EB0004F935F936F937F938F939F93AF93BF9352
:101EC000EF93FF938091B90090E0887F90708836FF
:101ED000910509F4D3C0893691050CF03EC08033DA
:101EE000910509F49DC081339105D4F480319105A9
:101EF00009F474C0813191053CF4009709F41CC1C8
:101F0000089709F020C16AC08032910509F483C0A6
:101F10008832910509F467C0489709F014C163C07D
:101F20008834910509F4A8C0893491054CF48833AC
:101F3000910509F477C08034910509F004C182C08D
:101F40008835910509F483C08036910509F496C05F
:101F50008035910509F0F7C069C0803A910509F410
:101F6000A5C0813A9105ECF48038910509F48CC044
:101F7000813891054CF48037910509F47FC088378A
:101F8000910509F0E0C07AC08039910509F47CC060
:101F90008839910509F4C8C08838910509F0D3C083
:101FA000C3C0883B910509F4ADC0893B91054CF451
:101FB000883A910509F491C0803B910509F0C3C0AE
:101FC0008CC0883C910509F4B1C0883F910509F4A3
:101FD000AFC0803C910509F0B6C0A8C0809137031E
:101FE0008093BB00A1C090915E0380915F0398171E
:101FF00068F490915E03E92FF0E0E25CFC4F808191
:102000008093BB009F5F90935E038EC080913803E6
:10201000882369F103C080E28093A30384ED8FC01D
:1020200080E3FACF88E38093A30380C080915E03AE
:102030009091BB00E82FF0E0E25CFC4F90838F5F53
:1020400080935E0390915E0380915F036BC08091EB
:102050005E039091BB00E82FF0E0E25CFC4F9083C0
:102060008F5F80935E0380913803882329F481E099
:102070008093390384EA63C084E961C083E080937C
:1020800036031092A20350C08091A203803208F060
:102090004FC08091A2039091BB00E82FF0E0EE5773
:1020A000FC4F90838F5F8093A2033EC08091A20378
:1020B000803230F4E091A203F0E0EE57FC4F108242
:1020C0006091A203E0913C03F0913D0382E893E02C
:1020D00070E009951092A20329C084E08093360332
:1020E0001092800310928103E0913A03F0913B0338
:1020F000099580918103882329F481E080938103ED
:102100001092600390918003E92FF0E0E05AFC4FB9
:1021100080818093BB009F5F9093800390918003A8
:1021200080918103981720F485EC03C085EC07C0EB
:1021300085E88093BC0007C01092A30385E98093D3
:10214000BC0010923603FF91EF91BF91AF919F9128
:102150008F917F916F915F914F913F912F910F9050
:102160000FBE0F901F9018951F920F920FB60F92EF
:1021700011242F933F938F939F93AF93BF9380919D
:10218000A8039091A903A091AA03B091AB03309149
:10219000AC030196A11DB11D232F2D5F2D3720F01B
:1021A0002D570196A11DB11D2093AC038093A80368
:1021B0009093A903A093AA03B093AB038091A403C7
:1021C0009091A503A091A603B091A7030196A11D2C
:1021D000B11D8093A4039093A503A093A603B0938D
:1021E000A703BF91AF919F918F913F912F910F9036
:1021F0000FBE0F901F901895019739F0880F991F07
:10220000880F991F02970197F1F70895789484B584
:10221000826084BD84B5816084BD85B5826085BDE2
:1022200085B5816085BDEEE6F0E0808181608083C8
:10223000E1E8F0E0108280818260808380818160AB
:102240008083E0E8F0E0808181608083E1EBF0E072
:10225000808184608083E0EBF0E080818160808316
:10226000EAE7F0E0808184608083808182608083FF
:102270008081816080838081806880831092C1002A
:1022800008951F93CF93DF93182FEB0161E00E9415
:10229000A111209709F44AC0CF3FD10509F449C0E4
:1022A000E12FF0E0E552FF4F84918330C1F084309C
:1022B00028F4813051F08230B1F50CC0863019F12C
:1022C000873049F1843079F514C084B5806884BDC5
:1022D000C7BD33C084B5806284BDC8BD2EC08091A7
:1022E0008000806880938000D0938900C09388002C
:1022F00024C080918000806280938000D0938B0006
:10230000C0938A001AC08091B00080688093B000AA
:10231000C093B30012C08091B00080628093B0007F
:10232000C093B4000AC0C038D1051CF4812F60E00E
:1023300002C0812F61E00E94E011DF91CF911F91D7
:102340000895CF93DF93482F50E0CA0189539F4FE0
:10235000FC0134914D545F4FFA018491882369F157
:1023600090E0880F991FFC01EB56FF4FA591B491A7
:10237000FC01E156FF4FC591D491662351F42FB76C
:10238000F8948C91932F909589238C93888189233D
:102390000BC0623061F42FB7F8948C91932F909515
:1023A00089238C938881832B88832FBF06C09FB796
:1023B000F8948C91832B8C939FBFDF91CF910895DC
:1023C000482F50E0CA0185529F4FFC012491CA0159
:1023D00089539F4FFC0194914D545F4FFA01349102
:1023E000332309F440C0222351F1233071F024300B
:1023F00028F42130A1F0223011F514C02630B1F0BC
:102400002730C1F02430D9F404C0809180008F7748
:1024100003C0809180008F7D8093800010C084B5C0
:102420008F7702C084B58F7D84BD09C08091B000D4
:102430008F7703C08091B0008F7D8093B000E32F31
:10244000F0E0EE0FFF1FE156FF4FA591B4912FB7BB
:10245000F894662321F48C919095892302C08C9185
:10246000892B8C932FBF0895DC015C968C915C972F
:10247000FD01E80FF11DE35AFF4F20815C968C911E
:102480005C9790E001968F7390705C968C935C974C
:102490005696ED91FC91579720835096ED91FC91C3
:1024A00051978081806480835B969C915B975C965A
:1024B0008C915C97981739F45296ED91FC91539753
:1024C00080818F7D80830895DF92EF92FF920F933A
:1024D0001F93CF93DF93EC017A018B01D22EE88911
:1024E000F98982E08083403081EE580780E06807F8
:1024F00080E07807A1F060E079E08DE390E0A8014A
:1025000097010E94521A2150304040405040569549
:1025100047953795279580E12030380798F0E8896E
:10252000F989108260E874E88EE190E0A8019701D3
:102530000E94521A215030404040504056954795D5
:1025400037952795EC85FD853083EE85FF852083C3
:10255000188EEC89FD89D082EA89FB8980818061AF
:102560008083EA89FB89808188608083EA89FB898E
:10257000808180688083EA89FB8980818F7D808368
:10258000DF91CF911F910F91FF90EF90DF90089511
:10259000FC01218D828D30E0205C3F4F281B3109EA
:1025A0002F733070C9010895FC01918D828D9817A9
:1025B00019F42FEF3FEF06C0828DE80FF11D858DD6
:1025C000282F30E0C9010895DC0159969C91599754
:1025D0005A968C915A97981719F42FEF3FEF10C025
:1025E0005A968C915A97FD01E80FF11D958D5A96D8
:1025F0008C915A978F5F8F735A968C93292F30E066
:10260000C9010895CF93DF93EC01888D882361F48D
:1026100019C08C9185FF0AC0E889F989808185FFFE
:1026200005C0CE010E943412AA89BB898C9185FD18
:1026300005C0E889F989808186FD04C00FB607FED0
:10264000E8CFF4CFDF91CF9108950F931F93CF93ED
:10265000DF93EC01062F9B8D8C8D981791F5E889FF
:10266000F989808185FF2DC0EE89FF896083E88923
:10267000F9898081806480831DC00FB607FC08C083
:10268000E889F989808185FF03C0CE010E94341258
:102690008C8D181791F38B8DFE01E80FF11DE35A15
:1026A000FF4F00831B8FEA89FB89808180628083D2
:1026B00081E0888F81E090E0DF91CF911F910F91B1
:1026C00008951B8D1F5F1F73E3CF8DEE93E1892B60
:1026D00051F080E090E0892B31F00E94ED138823C7
:1026E00011F00E94000008951F920F920FB60F92F2
:1026F00011242F938F939F93EF93FF93E091BD034A
:10270000F091BE03808182FD16C0E091C303F09179
:10271000C40320819091C6039F5F9F738091C7037C
:10272000981771F0E091C603F0E0E355FC4F258F58
:102730009093C60305C0E091C303F091C403E08108
:10274000FF91EF919F918F912F910F900FBE0F905E
:102750001F9018951092B0031092AF0388EE93E08B
:10276000A0E0B0E08093B1039093B203A093B303D1
:10277000B093B40389E991E09093AE038093AD03E5
:1027800085EC90E09093BA038093B90384EC90E0D9
:102790009093BC038093BB0380EC90E09093BE03C6
:1027A0008093BD0381EC90E09093C0038093BF03BE
:1027B00082EC90E09093C2038093C10386EC90E09A
:1027C0009093C4038093C3031092C6031092C7036F
:1027D0001092C8031092C90308958DEA93E00E94F5
:1027E000C81220E0892B09F021E0822F08951F9262
:1027F0000F920FB60F9211242F933F934F935F9335
:102800006F937F938F939F93AF93BF93EF93FF93B8
:102810008DEA93E00E943412FF91EF91BF91AF9146
:102820009F918F917F916F915F914F913F912F91E8
:102830000F900FBE0F901F901895CF93DF930E94BB
:1028400006110E947507C5E6D3E10E94E00A2097B1
:10285000E1F30E946513F9CFCF92DF92EF92FF92DE
:102860000F931F93CF93DF937C016B018A01C0E02C
:10287000D0E00FC0D6016D916D01D701ED91FC91B3
:102880000190F081E02DC7010995C80FD91F0150B3
:1028900010400115110571F7CE01DF91CF911F9105
:1028A0000F91FF90EF90DF90CF900895DC01ED91B4
:1028B000FC910190F081E02D09950895EF92FF922F
:1028C0000F931F938C01DC01ED91FC910190F0813D
:1028D000E02D6DE009957C01D801ED91FC9101900E
:1028E000F081E02DC8016AE009959C012E0D3F1D85
:1028F000C9011F910F91FF90EF900895CF93DF933F
:10290000EC016115710519F420E030E00FC0DB0126
:102910000D900020E9F71197A61BB70BE881F9810C
:102920000280F381E02DAD0109959C01C901DF9181
:10293000CF9108954F925F927F928F929F92AF9224
:10294000BF92CF92DF92EF92FF920F931F93DF938C
:10295000CF93CDB7DEB7A1970FB6F894DEBF0FBE09
:10296000CDBF2C01742ECB01223008F42AE019A22D
:1029700031E2C32ED12CCC0EDD1E822E9924AA2446
:10298000BB24672D752FA50194010E94521A79016D
:102990008A01C801B701A50194010E94001A472DC0
:1029A000461B0894C108D1084A3014F4405D01C0A8
:1029B000495CF6014083E114F1040105110521F0A1
:1029C0007E2C5F2DC801DDCFC201B6010E947E14AE
:1029D000A1960FB6F894DEBF0FBECDBFCF91DF91A9
:1029E0001F910F91FF90EF90DF90CF90BF90AF902D
:1029F0009F908F907F905F904F900895DC012115FC
:102A0000310541F4ED91FC910190F081E02D642FAE
:102A1000099508950E949A140895EF92FF920F93DA
:102A20001F939A01E62EFF2400E010E0B801A701F1
:102A30000E94FE141F910F91FF90EF900895CF9286
:102A4000DF92EF92FF920F931F93CF93DF93EC01EE
:102A50006A017B012115310541F4E881F98101907A
:102A6000F081E02D642F09951FC02A303105D1F483
:102A700077FF17C0E881F9810190F081E02D6DE2C8
:102A800009958C0144275527BA014C195D096E0937
:102A90007F09CE012AE00E949A149801280F391F5D
:102AA00004C02AE00E949A149C01C901DF91CF91D1
:102AB0001F910F91FF90EF90DF90CF900895EF92CC
:102AC000FF920F931F937B019A010027F7FC00955B
:102AD000102FB801A7010E941F151F910F91FF90A1
:102AE000EF900895CF92DF92EF92FF920F931F9392
:102AF0006C017B019A010027F7FC0095102FB801AB
:102B0000A7010E941F158C01C6010E945E14080FC8
:102B1000191FC8011F910F91FF90EF90DF90CF9088
:102B200008950E947E1408957F928F929F92AF9293
:102B3000BF92CF92DF92EF92FF920F931F93CF93AA
:102B4000DF934C017A018B01722ECB01BA01A801EF
:102B500097010E94CA19882321F0C4016DE571E034
:102B600021C0C0E0D0E057016801E894D7F8C60161
:102B7000B5012FEF3FEF4FE75FE70E94CA198823A7
:102B800051F4C601B5012FEF3FEF4FE75FE70E9419
:102B90007717181614F0C1E0D0E0219739F0C4017E
:102BA00061E671E00E947E14EC0193C0C801B70198
:102BB0002FEF3FEF4FE75FE40E94EB18181654F039
:102BC000C801B7012FEF3FEF4FE75FEC0E94771787
:102BD000882324F4C40165E671E0E4CFC801B7019D
:102BE00020E030E040E050E00E94771787FD03C00E
:102BF000C0E0D0E00EC0D401ED91FC910190F081D5
:102C0000E02DC4016DE20995EC0117FB109517F951
:102C1000109520E030E040E05FE3DD240BC0CA0106
:102C2000B90120E030E040E251E40E947B179B01B3
:102C3000AC01D394D71498F3C801B7010E94EB16E6
:102C40005B016C010E94E8177B018C01C401B80193
:102C5000A7012AE030E00E94FE14C80FD91F772098
:102C600039F0C40169E671E00E947E14C80FD91FD3
:102C7000C801B7010E9414189B01AC01C601B5013F
:102C80000E94EA1624C020E030E040E251E40E94B5
:102C9000F6187B018C010E94E3175B016C01CC24C8
:102CA000B7FCC094DC2CC401B601A5012AE030E0D9
:102CB0000E941F15C80FD91FC601B5010E94161822
:102CC0009B01AC01C801B7010E94EA167A947720F3
:102CD000D1F6CE01DF91CF911F910F91FF90EF9030
:102CE000DF90CF90BF90AF909F908F907F9008958E
:102CF0000E9494150895EF92FF920F931F937C0109
:102D00000E9494158C01C7010E945E14080F191FC0
:102D1000C8011F910F91FF90EF900895EF92FF92DD
:102D20000F931F937C010E947E148C01C7010E94A7
:102D30005E14080F191FC8011F910F91FF90EF90AB
:102D400008952F923F924F925F926F927F928F924F
:102D50009F92AF92BF92CF92DF92EF92FF920F932A
:102D60001F93DF93CF93CDB7DEB73B014C01190121
:102D70002A016D897E898F89988D6A197B098C0952
:102D80009D09621A730A840A950AA40193010E949C
:102D9000001AE218F30804091509A80197010E9416
:102DA000741A2A0D3B1D4C1D5D1DB901CA01CF913E
:102DB000DF911F910F91FF90EF90DF90CF90BF9028
:102DC000AF909F908F907F906F905F904F903F90CB
:102DD0002F9008955058BB27AA270ED0C2C1B3D157
:102DE00030F0B8D120F031F49F3F11F41EF483C1CC
:102DF0000EF4E095E7FB79C1E92FC4D180F3BA174F
:102E0000620773078407950718F071F49EF5DCC11B
:102E10000EF4E0950B2EBA2FA02D0B01B9019001F5
:102E20000C01CA01A0011124FF27591B99F0593F39
:102E300050F4503E68F11A16F040A22F232F342F81
:102E40004427585FF3CF469537952795A795F040CF
:102E50005395C9F77EF41F16BA0B620B730B840BE4
:102E6000BAF09150A1F0FF0FBB1F661F771F881F9C
:102E7000C2F70EC0BA0F621F731F841F48F48795F4
:102E800077956795B795F7959E3F08F0B3CF9395E3
:102E9000880F08F09927EE0F979587950895DF938F
:102EA000DD27B92FBF7740E85FE3161617064807FE
:102EB0005B0710F4D92F93D19F938F937F936F93D8
:102EC00066D2E8E6F0E01AD14CD12F913F914F91B4
:102ED0005F9198D1DD2349F09058A2EA2AED3FE0B6
:102EE00049EC5FE3D0785D2787DFDF913AC1D9D025
:102EF00008F481E008950CD034C12CD140F023D1E6
:102F000030F021F45F3F19F0F0C051115EC1F3C001
:102F100039D198F39923C9F35523B1F3951B550B78
:102F2000BB27AA2762177307840738F09F5F5F4F9C
:102F3000220F331F441FAA1FA9F333D00E2E3AF0DD
:102F4000E0E830D091505040E695001CCAF729D0F7
:102F5000FE2F27D0660F771F881FBB1F2617370746
:102F60004807AB07B0E809F0BB0B802DBF01FF2776
:102F700093585F4F2AF09E3F510568F0B6C025C1B7
:102F80005F3FECF3983EDCF3869577956795B795B0
:102F9000F7959F5FC9F7880F911D9695879597F9CB
:102FA0000895E1E0660F771F881FBB1F6217730744
:102FB0008407BA0720F0621B730B840BBA0BEE1F59
:102FC00088F7E095089504D06894B111FEC0089583
:102FD000E1D088F09F5790F0B92F9927B751A0F012
:102FE000D1F0660F771F881F991F1AF0BA95C9F79D
:102FF00012C0B13081F0E8D0B1E00895E5C0672F8C
:10300000782F8827B85F39F0B93FCCF3869577954C
:103010006795B395D9F73EF4909580957095619535
:103020007F4F8F4F9F4F0895E89409C097FB3EF460
:1030300090958095709561957F4F8F4F9F4F992305
:10304000A9F0F92F96E9BB279395F6958795779583
:103050006795B795F111F8CFFAF4BB0F11F460FF43
:103060001BC06F5F7F4F8F4F9F4F16C0882311F09B
:1030700096E911C0772321F09EE8872F762F05C0AF
:10308000662371F096E8862F70E060E02AF09A954A
:10309000660F771F881FDAF7880F9695879597F93F
:1030A0000895990F0008550FAA0BE0E8FEEF1616D9
:1030B0001706E807F907C0F012161306E407F5072C
:1030C00098F0621B730B840B950B39F40A2661F0A0
:1030D000232B242B252B21F408950A2609F4A14043
:1030E000A6958FEF811D811D089597F99F6780E850
:1030F00070E060E008959FEF80EC0895DF93CF9338
:103100001F930F93FF92EF92DF927B018C016894E3
:1031100005C0DA2EEF0176D0FE01E894A591259145
:10312000359145915591AEF3EF0166DEFE019701B1
:10313000A801DA9479F7DF90EF90FF900F911F913B
:10314000CF91DF91089500240A94161617061806E9
:103150000906089500240A9412161306140605069B
:103160000895092E0394000C11F4882352F0BB0F2C
:1031700040F4BF2B11F460FF04C06F5F7F4F8F4F8F
:103180009F4F089557FD9058440F551F59F05F3FCA
:1031900071F04795880F97FB991F61F09F3F79F079
:1031A00087950895121613061406551FF2CF4695FB
:1031B000F1DF08C0161617061806991FF1CF86957D
:1031C0007105610508940895E894BB276627772761
:1031D000CB0197F9089565DF08F48FEF08959B01FF
:1031E000AC0160E070E080E89FE385CE0BD0B9CF02
:1031F000AADF28F0AFDF18F0952309F076CF7BCF58
:103200001124E3CFBFDFA0F3959FD1F3950F50E0DA
:10321000551F629FF001729FBB27F00DB11D639F88
:10322000AA27F00DB11DAA1F649F6627B00DA11D2E
:10323000661F829F2227B00DA11D621F739FB00DD4
:10324000A11D621F839FA00D611D221F749F332744
:10325000A00D611D231F849F600D211D822F762FDD
:103260006A2F11249F5750408AF0E1F088234AF0DA
:10327000EE0FFF1FBB1F661F771F881F9150504026
:10328000A9F79E3F510570F030CF9FCF5F3FECF321
:10329000983EDCF3869577956795B795F795E79512
:1032A0009F5FC1F7FE2B880F911D9695879597F923
:1032B000089570DFE0F09E37D8F09639B8F49E3864
:1032C00048F4672F782F8827985FF9CF86957795F0
:1032D000679593959539D0F3B62FB1706B0F711D2B
:1032E000811D20F4879577956795939557C071C098
:1032F0006CCF11F40EF4FFCE6CC04CDFD0F39923E9
:10330000D9F3CEF39F57550B87FF73D056959795FA
:10331000B0E020F4660F771F881FBB1F1F930F9329
:1033200000249001A0018001F001A0E80E0F1F1FF2
:103330000A1E511D601B710B8009B50B48F4600F0C
:10334000711F801DB51F0E1B1F0B0A0A510907C0F4
:103350002E0F3F1F4A1F0E0F1F1F0A1E511D660F03
:10336000771F881FBB1FA695F795E795F8F60617F8
:10337000170708065B07211D311D411D0F911F9185
:10338000B901842F9158880F9695879508959B01D0
:10339000AC012CCF86DE880B990B0895882371F43D
:1033A000772321F09850872B762F07C0662311F4DE
:1033B00099270DC09051862B70E060E02AF09A9515
:1033C000660F771F881FDAF7880F9695879597F90C
:1033D00008959F3F49F0915028F486957795679519
:1033E000B7959F5F80389F4F880F9695879597F97F
:1033F000089591505040660F771F881FD2F70895A7
:10340000629FD001739FF001829FE00DF11D649FC8
:10341000E00DF11D929FF00D839FF00D749FF00D54
:10342000659FF00D9927729FB00DE11DF91F639FF5
:10343000B00DE11DF91FBD01CF0111240895991BA5
:1034400079E004C0991F961708F0961B881F7A959B
:10345000C9F780950895AA1BBB1B51E107C0AA1F9D
:10346000BB1FA617B70710F0A61BB70B881F991F25
:103470005A95A9F780959095BC01CD01089597FBC9
:10348000092E07260AD077FD04D0E5DF06D00020FC
:103490001AF4709561957F4F0895F6F79095819590
:1034A0009F4F0895A1E21A2EAA1BBB1BFD010DC060
:1034B000AA1FBB1FEE1FFF1FA217B307E407F507E4
:1034C00020F0A21BB30BE40BF50B661F771F881FC0
:1034D000991F1A9469F760957095809590959B0156
:1034E000AC01BD01CF01089597FB092E05260ED032
:1034F00057FD04D0D7DF0AD0001C38F45095409512
:10350000309521953F4F4F4F5F4F0895F6F79095B7
:103510008095709561957F4F8F4F9F4F0895EE0F67
:10352000FF1F0590F491E02D0994911106C080329F
:1035300019F089508550D0F7089599278827089564
:103540002F923F924F925F926F927F928F929F92B3
:10355000AF92BF92CF92DF92EF92FF920F931F93A1
:10356000CF93DF93CDB7DEB7CA1BDB0B0FB6F89452
:10357000DEBF0FBECDBF09942A88398848885F8492
:103580006E847D848C849B84AA84B984C884DF8003
:10359000EE80FD800C811B81AA81B981CE0FD11DE7
:1035A0000FB6F894DEBF0FBECDBFED010895F894BD
:0235B000FFCF4B
:1035B20053434152410073657420746F2064656601
:1035C20061756C742073657475700020006D6F7482
:1035D2006F724144697220006D6F746F4244697268
:1035E200200041524D4C31200041524D4C322000BE
:1035F2004D3130204D534341524120004100204281
:1036020000504F532058002059004F4B006E616EFE
:1036120000696E66006F7666002E00C800E803FF40
:10362200FF0B0A03090C0D0802FFFF1011140F15FE
:103632000E0607050400000000060FD50E8E0E9739
:103642000EAC0EBD0E0000000025132C14C812E4AF
:0636520012D41202130065
:00000001FF
