:100000000C949B000C94C3000C94C3000C94470DFB
:100010000C94470D0C94470D0C94C3000C94670A84
:100020000C94C3000C94C3000C94C3000C94530BA9
:100030000C94C3000C94C3000C94C3000C94C30034
:100040000C94B20F0C94C3000C94FE120C94301359
:100050000C94C3000C94C3000C94C3000C94C30014
:100060000C94850E0C94C300084AD73B3BCE016E1E
:1000700084BCBFFDC12F3D6C74319ABD56833DDAFF
:100080003D00C77F11BED9E4BB4C3E916BAAAABE0E
:10009000000000803F000000000800020100000393
:1000A0000407000000000000000001020408102006
:1000B00040800102040810200102040810200404FA
:1000C0000404040404040202020202020303030300
:1000D00003030000000023002600290000000000A8
:1000E000250028002B0000000000240027002A0023
:1000F0004E414E494E495459494E46CDCCCC3D0A0D
:10010000D7233C17B7D13877CC2B329595E6241FEF
:10011000B14F0A000020410000C84200401C4620A8
:10012000BCBE4CCA1B0E5AAEC59D7400B609350A3A
:10013000580E6013390A11241FBECFEFD8E0DEBF7E
:10014000CDBF11E0A0E0B1E0E4E3F8E302C0059028
:100150000D92AA3AB107D9F725E0AAEAB1E001C0A9
:100160001D92AB3DB207E1F711E0C4E3D1E004C05A
:100170002297FE010E949B19CC32D107C9F70E9439
:100180000A160C940D1C0C9400001816190614F491
:1001900060E001C061E08EE092E00E942C0B61E023
:1001A0008EE092E00E943C0B60E08EE092E00C94C6
:1001B0003C0B1816190614F460E001C061E082E1FE
:1001C00092E00E942C0B61E082E192E00E943C0BE5
:1001D00060E082E192E00C943C0B4F925F926F9250
:1001E0007F928F929F92AF92BF92CF92DF92EF92C7
:1001F000FF92CF93DF93CDB7DEB7A4970FB6F894F5
:10020000DEBF0FBECDBF2B013C0169017A016091B9
:100210004C0270914D02882777FD8095982F0E949F
:1002200046176D837E838F83988760914E0270910D
:100230004F02882777FD8095982F0E944617698383
:100240007A838B839C832D813E814F815885CA019F
:10025000B9010E941B166D877E878F87988B6D81F1
:100260007E818F81988590582D813E814F81588560
:100270000E944F1869A37AA38BA39CA32D813E8172
:100280004F8158856D857E858F8598890E944F188E
:100290004B015C0129813A814B815C81CA01B90122
:1002A0000E944F18698B7A8B8B8B9C8B29813A81AA
:1002B0004B815C81CA01B9010E941B1629813A81D8
:1002C0004B815C810E944F186D8F7E8F8F8F98A31A
:1002D000A3019201C301B2010E944F186D8B7E8B66
:1002E0008F8B988FA7019601C701B6010E944F1806
:1002F000698F7A8F8B8F9C8F2D813E814F8158859E
:1003000069A17AA18BA19CA10E944F182D813E81E9
:100310004F8158850E944F1869877A878B879C8701
:1003200029813A814B815C81C501B4010E944F183B
:1003300029813A814B815C810E944F189B01AC015D
:1003400069857A858B859C850E941B1669877A87CB
:100350008B879C87A3019201C501B4010E944F18AD
:10036000A30192010E944F189B01AC0169857A8517
:100370008B859C850E941B1669877A878B879C8753
:10038000A7019601C501B4010E944F18A70196016B
:100390000E944F189B01AC0169857A858B859C85ED
:1003A0000E941B164B015C0129813A814B815C81C3
:1003B00069897A898B899C890E944F1829813A81A1
:1003C0004B815C810E944F189B01AC01C501B401B7
:1003D0000E941A164B015C01A30192016D8D7E8D66
:1003E0008F8D98A10E944F18A30192010E944F186F
:1003F0009B01AC01C501B4010E941B164B015C01BD
:10040000A70196016D8D7E8D8F8D98A10E944F184A
:10041000A70196010E944F189B01AC01C501B401D0
:100420000E941B164B015C01A30192016D897E891C
:100430008F89988D0E944F18A30192010E944F1836
:100440009B01AC01C501B4010E941A164B015C016D
:10045000A3019201C301B2010E941B16A3019201E4
:100460000E944F18A70196010E944F18A7019601FC
:100470000E944F189B01AC01C501B4010E941A16DD
:100480004B015C01A7019601698D7A8D8B8D9C8D46
:100490000E944F18A70196010E944F189B01AC01C2
:1004A000C501B4010E941A160E94D6186D8F7E8F66
:1004B0008F8F98A32D813E814F815885CA01B90144
:1004C0000E944F184B015C01A70196016D857E8546
:1004D0008F8598890E944F182D8D3E8D4F8D58A184
:1004E0000E941B166B017C01A30192016D857E8524
:1004F0008F8598890E944F189B01AC01C501B401FA
:100500000E941A1629893A894B895C890E941A1619
:100510002D893E894F89588D0E941B16298D3A8D51
:100520004B8D5C8D0E941B169B01AC01C701B6016F
:100530000E94AB160E947F169B01AC010E941B1605
:100540006093FB017093FC018093FD019093FE0189
:1005500029813A814B815C816D857E858F85988963
:100560000E944F186B017C019B01AC01C501B401D5
:100570000E941B1629893A894B895C890E941B16A7
:100580002D893E894F89588D0E941A16298D3A8DE2
:100590004B8D5C8D0E941A164B015C01A7019601E0
:1005A00069A17AA18BA19CA10E941B1629893A8975
:1005B0004B895C890E941A162D893E894F89588D76
:1005C0000E941B16298D3A8D4B8D5C8D0E941B1647
:1005D000A50194010E944F180E94D618A50194010C
:1005E0000E94AB160E947F169B01AC010E941B1655
:1005F0006093F7017093F8018093F9019093FA01E9
:10060000A4960FB6F894DEBF0FBECDBFDF91CF9199
:10061000FF90EF90DF90CF90BF90AF909F908F9022
:100620007F906F905F904F900895CF92DF92EF92FE
:10063000FF9269017A012BED3FE049E450E40E940A
:10064000AB1620E030E04AE756E40E944F1820E065
:1006500030E040E05FE30E944F180E94B2180E9411
:1006600013176093F3017093F4018093F501909355
:10067000F6012BED3FE049E450E4C701B6010E94CA
:10068000AB1620E030E04AE756E40E944F1820E025
:1006900030E040E05FE30E944F180E94B2180E94D1
:1006A00013176093EF017093F0018093F101909321
:1006B000F201FF90EF90DF90CF9008952F923F923C
:1006C0004F925F926F927F928F929F92AF92BF9262
:1006D000CF92DF92EF92FF920F931F93CF93DF930E
:1006E000CDB7DEB762970FB6F894DEBF0FBECDBFB1
:1006F00080910A0190910B012C01662457FC6094B3
:10070000762C209020023090210280911C02909142
:100710001D02281A390A00911E0210911F028091B1
:100720001A0290911B02081B190B680117FF04C0E5
:10073000CC24DD24C01AD10A910137FE04C022273F
:1007400033272219330979012C153D050CF4760164
:10075000B701882777FD8095982F298B3A8B0E94C7
:1007600046174B015C0129893A89B901882777FD31
:100770008095982F0E944617A50194010E94AB1600
:100780006D837E838F839887B601882777FD809558
:10079000982F0E944617A50194010E94AB16698705
:1007A0007A878B879C87FA82E982812C912C54016D
:1007B000750164012FEF3FEF3C832B83E0911C0216
:1007C000F0911D02FE87ED87809120029091210219
:1007D000E817F90709F4EBC02D813E814F81588558
:1007E000C701B6010E941B166B017C0120E030E0BE
:1007F00040E85FE30E94441887FD27C012141304E9
:100800001CF48091190202C080911802992787FD7B
:100810009095121413041CF421E030E002C02FEF75
:100820003FEF4D855E85240F351F30931D022093C9
:100830001C020E94C50020E030E040E85FE3C701F1
:10084000B6010E941A166B017C0180911A029091E8
:100850001B029E878D8780911E0290911F02ED855D
:10086000FE85E817F907C9F129853A854B855C852E
:10087000C501B4010E941B164B015C0120E030E071
:1008800040E85FE30E94441887FD27C01016110658
:100890001CF48091170202C080911602992787FDEF
:1008A0009095101611061CF421E030E002C02FEFE5
:1008B0003FEF4D855E85240F351F30931B0220933B
:1008C0001A020E94D90020E030E040E85FE3C50151
:1008D000B4010E941A164B015C01EB81FC81CF012F
:1008E000AA2797FDA095BA2F840D951DA61DB71DAB
:1008F00020910C0130910D01A901662757FD6095EB
:10090000762F84179507A607B7076CF040910A0168
:1009100050910B01662757FD6095762F48175907B0
:100920006A077B0714F4DB01CA014090EB01509089
:10093000EC016090ED017090EE01480E591E6A1EA8
:100940007B1EF1E14F16F7E25F06610471049CF033
:10095000C301B20128EE33E040E050E00E9460198C
:100960006D877E878F87988BCA01B9010E942B10F3
:100970008D859E8501C0C2010E94531080910A019D
:1009800090910B0120910C0130910D01821B930B72
:1009900029813A812817390724F441E050E05C832B
:1009A0004B8389819A8101979A83898307CF20910C
:1009B0001E0230911F0280911A0290911B02821731
:1009C000930709F042CF62960FB6F894DEBF0FBED0
:1009D000CDBFDF91CF911F910F91FF90EF90DF90EE
:1009E000CF90BF90AF909F908F907F906F905F90CF
:1009F0004F903F902F9008954F925F926F927F9209
:100A00008F929F92AF92BF92CF92DF92EF92FF921E
:100A1000CF93DF9300D000D0CDB7DEB7C0903202C5
:100A2000D0903302E0903402F090350220913A02E7
:100A300030913B0240913C0250913D02C701B6010A
:100A40000E941A162B013C0180912E0290912F02D8
:100A5000A0913002B091310289839A83AB83BC8329
:100A6000209136023091370240913802509139027C
:100A7000BC01CD010E941A164B015C01A301920139
:100A8000C301B2010E944F182B013C01A501940142
:100A9000C501B4010E944F189B01AC01C301B20112
:100AA0000E941B160E94D6182FE632E143E85AE353
:100AB0000E94A71687FD4CC029813A814B815C8139
:100AC000C701B6010E94ED002091F7013091F801B5
:100AD0004091F9015091FA016091FB017091FC0184
:100AE0008091FD019091FE010E9415038091F30118
:100AF0009091F40190932102809320028091EF0164
:100B00009091F00190931F0280931E020E945E0359
:100B10008091320290913302A0913402B09135025B
:100B200080933A0290933B02A0933C02B0933D0223
:100B300080912E0290912F02A0913002B09131024B
:100B40008093360290933702A0933802B093390213
:100B50000F900F900F900F90DF91CF91FF90EF903B
:100B6000DF90CF90BF90AF909F908F907F906F90CD
:100B70005F904F90089560914C0270914D0280916A
:100B80004E0290914F02680F791F882777FD80955C
:100B9000982F0E9446172AE037ED43E25CE30E945B
:100BA0001A16905860933A0270933B0280933C026D
:100BB00090933D0210923602109237021092380242
:100BC0001092390220E030E0A9010E94ED0060910E
:100BD000FB017091FC018091FD019091FE016093F9
:100BE0002602709327028093280290932902209175
:100BF000F7013091F8014091F9015091FA012093E9
:100C000022023093230240932402509325020E9433
:100C100015038091F3019091F40190931D0280934C
:100C20001C028091EF019091F00190931B02809340
:100C30001A020895CF93DF9300D0CDB7DEB7AE018F
:100C40004F5F5F4F66E371E00E94FE19AE014F5F98
:100C50005F4F66E371E080E090E00E94FE1900972C
:100C600009F44FC0FC012081283561F401960E94EF
:100C70009F196093320270933302809334029093F1
:100C80003502E4CF293561F401960E949F196093E3
:100C90002E0270932F028093300290933102D6CFB0
:100CA0002A3561F401960E949F1960932A0270937D
:100CB0002B0280932C0290932D02C8CF263491F4FE
:100CC00001960E949F1920E030E040E752E40E9424
:100CD000AB1660933E0270933F0280934002909364
:100CE0004102B4CF213409F0B1CF01960E94C1195D
:100CF0006093EB017093EC018093ED019093EE0112
:100D0000A5CF0E94FC040F900F90DF91CF91089522
:100D1000CF93DF9300D0CDB7DEB7AE014F5F5F4F0B
:100D200066E371E00E94FE1989819A810E94A319ED
:100D3000BC018FEF91E00E94E20C0F900F90DF91C9
:100D4000CF910895CF93DF9300D0CDB7DEB7AE013A
:100D50004F5F5F4F66E371E00E94FE1989819A81BF
:100D60000E94C1196093EB017093EC018093ED0137
:100D70009093EE010F900F90DF91CF910895CF9354
:100D8000DF9300D0CDB7DEB7AE014F5F5F4F66E3B4
:100D900071E00E94FE1989819A810E94A319BC0109
:100DA00088E092E00E940C0A0F900F90DF91CF91A3
:100DB0000895CF93DF93EC010E94A3198130910530
:100DC00009F446C04C9709F048C01092EB0110920C
:100DD000EC011092ED011092EE0160914C027091C5
:100DE0004D0280914E0290914F02680F791F882723
:100DF00077FD8095982F0E9446172AE037ED43E251
:100E00005CE30E941A16DC01CB01B05880933202D9
:100E100090933302A0933402B093350210922E02C5
:100E200010922F0210923002109231026091520201
:100E3000709153028FEF91E00E94E20C60E070E04D
:100E400088E092E00E940C0ADF91CF910C94FC04A0
:100E5000CE01DF91CF910C941A06DF91CF910895C6
:100E60006CE271E08CE395E00E94E11360914C022A
:100E700070914D024AE050E08CE395E00E94A3148B
:100E800060E28CE395E00E94E31360914E02709162
:100E90004F024AE050E08CE395E00E94A31460E228
:100EA0008CE395E00E94E31340913A0250913B029B
:100EB00060913C0270913D0222E030E08CE395E0CD
:100EC0000E94AE1560E28CE395E00E94E31340912E
:100ED000360250913702609138027091390222E057
:100EE00030E08CE395E00E94AE1560E28CE395E083
:100EF0000E94E31368E371E08CE395E00E94E11344
:100F000060914A0270E04AE050E08CE395E00E9474
:100F1000A3146AE371E08CE395E00E94E113609111
:100F20004B0270E04AE050E08CE395E00E94A3148D
:100F30006DE371E08CE395E00E94E1136091500253
:100F4000709151024AE050E08CE395E00E94A314B6
:100F500060E471E08CE395E00E94E113609152023D
:100F6000709153024AE050E08CE395E00E94A31494
:100F700063E471E08CE395E00E94E1136091540218
:100F8000709155024AE050E08CE395E00C94AB146C
:100F90000F931F93CF93DF9302E412E0C0E0D0E001
:100FA000F80161918F01CE010E944A1A2196C03446
:100FB000D105B1F7DF91CF911F910F9108950F9354
:100FC0001F93CF93DF9300D0CDB7DEB7AE014F5F55
:100FD0005F4F66E371E00E94FE198C01012B09F45A
:100FE0003FC0AE014F5F5F4F66E371E080E090E08D
:100FF0000E94FE198C01FC018081813439F4C80102
:1010000001960E94A31980934A02E8CF823439F4F2
:10101000C80101960E94A31980934B02DFCF8D3443
:1010200049F4C80101960E94A31990934D02809340
:101030004C02D4CF8E3449F4C80101960E94A31902
:1010400090934F0280934E02C9CF843439F6C80181
:1010500001960E94A3199093510280935002BECF33
:101060000E94C8070F900F90DF91CF911F910F91B1
:1010700008950F931F93CF93DF9300D0CDB7DEB7C2
:10108000AE014F5F5F4F66E371E00E94FE198C0175
:10109000012B11F1AE014F5F5F4F66E371E080E01D
:1010A00090E00E94FE198C01FC018081853549F495
:1010B000C80101960E94A319909353028093520293
:1010C000E7CF843429F7C80101960E94A3199093B1
:1010D000550280935402DCCF66E471E08CE395E026
:1010E0000E94E11360915202709153024AE050E075
:1010F0008CE395E00E94A3146CE471E08CE395E02E
:101100000E94E11360915402709155024AE050E050
:101110008CE395E00E94AB140E94C8070F900F90DB
:10112000DF91CF911F910F910895CF93DF93EC0141
:101130000E94A31983309105D9F054F481309105B0
:1011400091F0029721F5CE01DF91CF910C943908EF
:1011500085309105B9F08CF00A97C9F4CE01DF9182
:10116000CF910C943007CE01DF91CF910C9488067B
:10117000CE01DF91CF910C94A206CE01DF91CF91E9
:101180000C94BF06CE01DF91CF910C94DF07DF9165
:10119000CF910895FC012081273421F401960E940B
:1011A000D90630C02D3421F401960E9495082AC03A
:1011B000203541F560E571E08CE395E00E94E11394
:1011C00040913A0250913B0260913C0270913D0285
:1011D00022E030E08CE395E00E94AE1566E571E018
:1011E0008CE395E00E94E113409136025091370262
:1011F000609138027091390222E030E08CE395E092
:101200000E94B01569E571E08CE395E00C94EE1353
:101210000F931F93CF93DF9302E412E0C0E0D0E07E
:10122000CE010E94421AD8018D938D012196C034BF
:10123000D105B1F746E050E06CE571E082E492E060
:101240000E94F019892BB1F163E671E08CE395E01F
:101250000E94EE1380E4E2E4F2E0DF011D928A9541
:10126000E9F786E0ECE5F1E0A2E4B2E001900D924E
:101270008A95E1F788EA90E090934D0280934C02C2
:101280008EEC90E090934F0280934E0280E590E0C8
:10129000909351028093500280EA90E09093530221
:1012A000809352028AE590E0909355028093540215
:1012B0000E94C80780914A02811105C081E0809395
:1012C00019028FEF04C08FEF8093190281E08093A1
:1012D000180280914B02811105C081E080931702B2
:1012E0008FEF04C08FEF8093170281E08093160286
:1012F00084E690E02091500230915102821B930BC2
:101300004AE0489F9001499F300D112430930D0110
:1013100020930C0144E6489F9001499F300D112411
:1013200030930B0120930A01DF91CF911F910F9110
:10133000089526E040E052EC61E070E08CE395E037
:101340000E949C120E94080960910202709103029F
:101350008FEF91E00E94A90C6091520270915302AC
:101360008FEF91E00E94E20C0C94BB0562E082E1F9
:1013700092E00E941C0B61E08EE092E00E941C0B48
:101380006AE088E092E00E940A0A67E084E092E066
:101390000E941C0B84E092E00E94500B90E090931E
:1013A0000302809302028FEF91E00C940F0C8CE308
:1013B00095E00E94B911892B61F18CE395E00E94C0
:1013C000D211E091AA018A30C1F481E08E0F80939E
:1013D000AA01FF27E7FDF095E555FE4F10828BEA45
:1013E00091E00E94CA0880E4EBEAF1E0DF011D927F
:1013F0008A95E9F71092AA010895E03454F491E037
:101400009E0F9093AA01FF27E7FDF095E555FE4F4B
:10141000808308950C941C0B0F931F93CF93DF933D
:101420008C016F3F710519F014F06FEF70E0EB0164
:1014300061308FEF780714F4C1E0DFEFD7FD06C00D
:1014400061E0C8010E943C0BBE0108C060E0C80119
:101450000E943C0B662777276C1B7D0BC801DF9130
:10146000CF911F910F910C944C0B82E892E00C9459
:101470003D0A82E892E00C94660A21E030E0FC012B
:1014800031832083EE5FFE4F10821182128213821D
:101490003496108211821282138234961082319611
:1014A0001082319610821182128213823496118238
:1014B000108232961082319610821182128213822B
:1014C00034961082118212821382089508951F9219
:1014D0000F920FB60F9211240F931F932F933F93E8
:1014E0004F935F936F937F938F939F93AF93BF932C
:1014F000CF93EF93FF9382E00E949011C82F209129
:10150000A3033091A4032F5F3F4F3093A403209394
:10151000A30380910904843618F085E080939E032C
:1015200090919E03933079F018F4923039F070C0A6
:10153000943011F1953009F44AC06AC0C11168C0F5
:101540001092090429C0C13009F062C0E091090479
:1015500081E08E0F80930904F0E08091A3039091C5
:10156000A403E356FC4F80871092A4031092A303B8
:1015700084E080939E034CC0C11114C0E091090423
:1015800081E08E0F80930904F0E08091A303909195
:10159000A403E356FC4F80871092A4031092A30388
:1015A00083E0E7CF8091A3039091A4038536910552
:1015B00078F185E080939E030E94FC0F60939F0367
:1015C0007093A0038093A1039093A20321C00E9473
:1015D000FC0F00919F031091A0032091A103309173
:1015E000A203601B710B820B930B693C7105810593
:1015F000910540F0109209041092A4031092A303E5
:1016000082E0B7CFC11104C01092A4031092A303CB
:10161000FF91EF91CF91BF91AF919F918F917F916A
:101620006F915F914F913F912F911F910F910F906B
:101630000FBE0F901F901895DC01E62FF0E0EE0F23
:10164000FF1FE25FFE4F80818C93818111968C9306
:10165000119712966C9308951F93CF93DF93EC012B
:10166000162F61E088810E942111612F8881DF910E
:10167000CF911F910C945A111F93CF93DF93EC01DC
:10168000162F61E089810E942111612F8981DF91EC
:10169000CF911F910C945A11FC0180810C949910E8
:1016A000FC01818108951F920F920FB60F921124B1
:1016B0002F933F934F935F936F937F938F939F935A
:1016C000AF93BF93EF93FF9380910B0487FF05C007
:1016D00010928500109284001AC020910B043327C9
:1016E00027FD309580910A0490E0281739077CF493
:1016F00080910B04992787FD9095FC01EE0FFF1F49
:10170000E80FF91FE45FFB4F808187FD15C08091D2
:101710000B048F5F80930B0420910B04332727FD6C
:10172000309580910A0490E028173907BCF4809125
:101730000B048C305CF112C080910B04992787FD5B
:101740009095FC01EE0FFF1FE80FF91FE45FFB4FC0
:10175000808160E08F770E945A11D9CF80918400F8
:1017600090918500049680349C4918F480E49CE9AB
:1017700005C0809184009091850004969093890023
:10178000809388008FEF80930B0438C020918400F1
:101790003091850080910B04992787FD9095FC017D
:1017A000EE0FFF1FE80FF91FE45FFB4F818192816D
:1017B000820F931F909389008093880080910B047F
:1017C000992787FD9095FC01EE0FFF1FE80FF91F89
:1017D000E45FFB4F808187FF11C080910B04992744
:1017E00087FD9095FC01EE0FFF1FE80FF91FE45FE6
:1017F000FB4F808161E08F770E945A11FF91EF913A
:10180000BF91AF919F918F917F916F915F914F9118
:101810003F912F910F900FBE0F901F901895209120
:101820000A042C30A0F431E0320F30930A04FC019A
:101830002083822F90E0FC01EE0FFF1FE80FF91FBD
:10184000E45FFB4F88EB9BE09283818308952FEF49
:10185000FC0120830895DF92EF92FF920F931F9374
:10186000CF93DF93EC01D62E7A01890188818C30E9
:1018700008F066C061E08D2D0E9421118881A82F9B
:10188000B0E0FD01EE0FFF1FEA0FFB1FE45FFB4F0F
:101890002D2D2F7790819078922B908360E272E0CB
:1018A0006E197F0977FF02C06D5F7F4F7595679551
:1018B00075956795698340E659E0401B510B57FFCA
:1018C00002C04D5F5F4F55954795559547954A83A3
:1018D0006CE00E9432199CE0899FB001112420E045
:1018E00030E0A901460F571FFA01EE0FFF1FE40F6A
:1018F000F51FE45FFB4F908197FD16C02F5F3F4FB0
:101900002C30310571F781110FC01092800082E0F8
:10191000809381001092850010928400B19A80918A
:101920006F00826080936F00888190E0FC01EE0F71
:10193000FF1FE80FF91FE45FFB4F80818068808301
:101940008881DF91CF911F910F91FF90EF90DF90F1
:10195000089520E639E040E252E00C942B0CFC01A3
:1019600080818C3070F5918128E830E0291B3109A5
:1019700097FD3395220F331F220F331F6217730712
:101980007CF0928128E532E0291B310997FD3395DF
:10199000220F331F220F331F621773070CF49B01B2
:1019A00022503109220F331F4FB7F89490E0FC0109
:1019B000EE0FFF1FE80FF91FE45FFB4F3283218317
:1019C0004FBF08954F925F926F927F92AF92BF92F6
:1019D000CF92DF92EF92FF920F931F93CF93DF93FB
:1019E000EC01603282E078070CF040C077FD06C061
:1019F000653B71052CF064EB70E002C060E070E0C4
:101A0000898128E830E0281B310987FD3395220FB2
:101A1000331F220F331F5901CC24B7FCC094DC2C98
:101A2000882777FD8095982F2A8148E552E0421B50
:101A3000510927FD5395440F551F440F551F2A0187
:101A4000662457FC6094762C7F926F925F924F923F
:101A500014EBE12EF12C00E010E020E030E0A901D1
:101A60000E94C2150F900F900F900F90CE01DF9142
:101A7000CF911F910F91FF90EF90DF90CF90BF908B
:101A8000AF907F906F905F904F900C94AF0C1F922F
:101A90000F920FB60F9211242F933F934F935F93A2
:101AA0006F937F938F939F93AF93BF93EF93FF9326
:101AB000E0917204F0917304309709F451C0868D5F
:101AC000A685B785958581FF04C08C91892329F46B
:101AD00047C08C91892309F043C0A389B4899C91A4
:101AE0008589809589238C93868997890197F1F759
:101AF000208D318DA685B785758558E040E0C901F8
:101B00000197F1F7842F90E095958795482F6C9178
:101B1000672309F04068515091F7868D81FD40950B
:101B20008091310490E001968F73992720913004C1
:101B3000281749F0A0913104B0E0AE5CBB4F4C9344
:101B40008093310403C0868D8160868F828D938D52
:101B50000197F1F7A389B4898C919589892B8C938E
:101B6000FF91EF91BF91AF919F918F917F916F9175
:101B70005F914F913F912F910F900FBE0F901F904B
:101B800018958091A30490E02091A404821B9109F0
:101B900008952091A4048091A304281750F4E22F03
:101BA000F0E0EB55FB4F808190E02F5F2093A40481
:101BB00008958FEF9FEF0895E091A4048091A3040E
:101BC000E81730F4F0E0EB55FB4F808190E008958A
:101BD0008FEF9FEF08950895CF92DF92EF92FF92DB
:101BE0000F931F93CF93DF937C01CB018A01209148
:101BF0008004222389F0EB016B01C40ED51ECC15A5
:101C0000DD0569F06991D701ED91FC910190F081BA
:101C1000E02DC7010995F3CF642F0E945C0EC80127
:101C2000DF91CF911F910F91FF90EF90DF90CF90B8
:101C30000895CF93DF931F92CDB7DEB769832091CC
:101C400080042223D1F020918104203240F021E051
:101C500030E0FC013383228380E090E015C0809166
:101C60008204E82FF0E0ED57FB4F998190838F5F5E
:101C7000809382048093810405C061E0CE010196C7
:101C80000E945C0E81E090E00F90DF91CF9108956B
:101C9000FC011382128248EE53E060E070E044835E
:101CA0005583668377838CE791E0918380830895E1
:101CB00084E794E00C94480E613298F42091320548
:101CC000243089F46093E704FC0189EE94E0DC01A0
:101CD0002A2F281B261718F421912D93F9CF80E085
:101CE000089581E0089582E0089585ED8093BC0019
:101CF0008091BC0084FDFCCF10923205089585ECE4
:101D00008093BC001092320508951F920F920FB677
:101D10000F9211242F933F934F935F936F937F9371
:101D20008F939F93AF93BF93EF93FF938091B900ED
:101D3000887F803609F49EC078F5883209F45DC04A
:101D400090F4803109F456C038F4882309F4F5C0C2
:101D5000883009F44FC0F5C0883109F44EC0803294
:101D600009F45FC0EEC0803409F46AC058F48033CF
:101D700009F457C0883309F0E4C08093C5040E9479
:101D80007F0EDFC0803509F44FC0883509F45DC08F
:101D9000883409F0D6C0D3C0883909F4C4C0A8F487
:101DA000883709F467C038F4883609F463C080378F
:101DB00009F460C0C6C0883809F4B5C0803909F498
:101DC0005FC0803809F0BDC05BC0803B09F483C0B0
:101DD00038F4803A09F466C0883A09F47CC0B1C08E
:101DE000803C09F4A4C0883C09F4A1C0883B09F4F4
:101DF00087C0A7C08091310510C090910A058091DD
:101E00000905981770F5E0910A0581E08E0F80931F
:101E10000A05F0E0E55FFA4F80818093BB0085EC16
:101E200083C08093C5048BC0E0910A0581E08E0FCA
:101E300080930A058091BB00F0E0E55FFA4F808354
:101E400090910A05809109056BC0E0910A0581E037
:101E50008E0F80930A058091BB00F0E0E55FFA4F9A
:101E600080838091300581116AC081E080932F05C5
:101E700084EA5EC083E0809332051092C604CFCF1F
:101E80008091C604803208F04EC0E091C60481E023
:101E90008E0F8093C6048091BB00F0E0E953FB4FA6
:101EA0008083BDCF0E947F0E8091C604803230F4C3
:101EB000E091C604F0E0E953FB4F10826091C60444
:101EC00070E0E0912B05F0912C0587EC94E00995EA
:101ED0001092C60436C084E0809332051092E80464
:101EE0001092E704E0912D05F0912E05099580915F
:101EF000E704811105C081E08093E7041092E904B2
:101F0000E091E80481E08E0F8093E804F0E0E7516F
:101F1000FB4F80818093BB009091E8048091E7049F
:101F2000981708F47CCF85E88093BC000AC085EC44
:101F30008093BC001092320504C01092C5040E9428
:101F4000750EFF91EF91BF91AF919F918F917F910E
:101F50006F915F914F913F912F910F900FBE0F9016
:101F60001F9018951F920F920FB60F9211242F9366
:101F70003F938F939F93AF93BF938091340590913C
:101F80003505A0913605B09137053091330523E032
:101F9000230F2D3720F40196A11DB11D05C026E8A1
:101FA000230F0296A11DB11D2093330580933405A4
:101FB00090933505A0933605B09337058091380589
:101FC00090913905A0913A05B0913B050196A11D6C
:101FD000B11D8093380590933905A0933A05B093CD
:101FE0003B05BF91AF919F918F913F912F910F90A2
:101FF0000FBE0F901F9018952FB7F894609134057D
:102000007091350580913605909137052FBF089561
:102010003FB7F8948091380590913905A0913A0521
:10202000B0913B0526B5A89B05C02F3F19F001963E
:10203000A11DB11D3FBF6627782F892F9A2F620FF0
:10204000711D811D911D42E0660F771F881F991F2A
:102050004A95D1F70895CF92DF92EF92FF92CF93F6
:10206000DF936B017C010E940810EB01C114D104C5
:10207000E104F10489F00E9419160E9408106C1BFB
:102080007D0B683E734090F381E0C81AD108E108E7
:10209000F108C851DC4FEACFDF91CF91FF90EF906C
:1020A000DF90CF9008958230910538F0880F991F06
:1020B000880F991F05970197F1F70895789484B5D3
:1020C000826084BD84B5816084BD85B5826085BD34
:1020D00085B5816085BDEEE6F0E08081816080831A
:1020E000E1E8F0E0108280818260808380818160FD
:1020F0008083E0E8F0E0808181608083E1EBF0E0C4
:10210000808184608083E0EBF0E080818160808367
:10211000EAE7F0E080818460808380818260808350
:102120008081816080838081806880831092C1007B
:1021300008951F93CF93DF93182FEB0161E00E9466
:102140002111209711F460E004C0CF3FD10539F48C
:1021500061E0812FDF91CF911F910C945A11E12FF3
:10216000F0E0EA56FF4FE491E330F9F048F4E13053
:10217000B9F0E230A1F584B5806284BDC8BD34C039
:10218000E730E9F0E83019F1E43049F5809180005A
:10219000806280938000D0938B00C0938A0024C01B
:1021A00084B5806884BDC7BD1FC0809180008068F1
:1021B00080938000D0938900C093880015C08091DF
:1021C000B00080688093B000C093B3000DC08091D0
:1021D000B00080628093B000C093B40005C0C038E6
:1021E000D1050CF0B5CFAFCFDF91CF911F910895FE
:1021F000833081F028F4813099F08230A1F0089585
:102200008730A9F08830B9F08430D1F48091800013
:102210008F7D03C0809180008F7780938000089528
:1022200084B58F7702C084B58F7D84BD0895809179
:10223000B0008F7703C08091B0008F7D8093B00095
:102240000895CF93DF9390E0FC01E655FF4F249172
:10225000FC01E254FF4F8491882349F190E0880FFC
:10226000991FFC01EA51FF4FA591B49184529F4FF1
:10227000FC01C591D4919FB7611108C0F8948C916D
:10228000209582238C93888182230AC0623051F486
:10229000F8948C91322F309583238C938881822BF4
:1022A000888304C0F8948C91822B8C939FBFDF911C
:1022B000CF9108950F931F93CF93DF931F92CDB7C4
:1022C000DEB7282F30E0F901EA56FF4F8491F9017B
:1022D000E655FF4F1491F901E254FF4F049100239A
:1022E000C9F0882321F069830E94F8106981E02FEA
:1022F000F0E0EE0FFF1FE452FF4FA591B4919FB79E
:10230000F8948C91611103C01095812301C0812B39
:102310008C939FBF0F90DF91CF911F910F910895E4
:10232000CF93DF93282F30E0F901EA56FF4F8491D5
:10233000F901E655FF4FD491F901E254FF4FC491E2
:10234000CC2391F081110E94F810EC2FF0E0EE0FF9
:10235000FF1FEE52FF4FA591B4912C912D2381E0E8
:1023600090E021F480E002C080E090E0DF91CF9126
:102370000895FC01818D228D90E0805C9F4F821B2F
:1023800091098F7399270895FC01918D828D98177B
:1023900031F0828DE80FF11D858D90E008958FEF6B
:1023A0009FEF0895FC01918D828D981761F0828DC9
:1023B000DF01A80FB11D5D968C91928D9F5F9F7379
:1023C000928F90E008958FEF9FEF089586E593E157
:1023D000892B49F080E090E0892B29F00E94561368
:1023E00081110C9400000895FC01848DDF01A80F79
:1023F000B11DA35ABF4F2C91848D90E001968F732D
:102400009927848FA689B7892C93A089B1898C914B
:1024100080648C93938D848D981306C00288F38911
:10242000E02D80818F7D80830895CF93DF93EC0131
:10243000888D8823C9F0EA89FB89808185FD05C0E4
:10244000A889B9898C9186FD0FC00FB607FCF5CF1E
:10245000808185FFF2CFA889B9898C9185FFEDCF66
:10246000CE010E94F411E7CFDF91CF910895CF9272
:10247000DF92FF920F931F93CF93DF931F92CDB7FD
:10248000DEB76C0181E0D60158968C9358975B9625
:102490009C915B975C968C915C97981307C05096C3
:1024A000ED91FC915197808185FD2EC0F601038D41
:1024B00010E00F5F1F4F0F731127F02EF601848D70
:1024C000F81211C00FB607FCF9CFD6015096ED9166
:1024D000FC915197808185FFF1CFC60169830E94ED
:1024E000F4116981EBCF838DE80FF11DE35AFF4FA3
:1024F0006083D6015B960C935B975296ED91FC91AD
:102500005397808180620CC0D6015696ED91FC9164
:10251000579760835096ED91FC915197808180642C
:10252000808381E090E00F90DF91CF911F910F9118
:10253000FF90DF90CF900895BF92CF92DF92EF92FD
:10254000FF92CF93DF93EC016A017B01B22EE88901
:10255000F98982E08083411581EE58076105710594
:10256000A1F060E079E08DE390E0A70196010E9480
:102570003E19215031094109510956954795379522
:102580002795211580E1380798F0E889F9891082AC
:1025900060E874E88EE190E0A70196010E943E1980
:1025A000215031094109510956954795379527958D
:1025B000EC85FD853083EE85FF852083188EEC89C0
:1025C000FD89B082EA89FB89808180618083EA8904
:1025D000FB89808188608083EA89FB8980818068AB
:1025E0008083EA89FB8980818F7D8083DF91CF9111
:1025F000FF90EF90DF90CF90BF9008951F920F92C1
:102600000FB60F9211242F938F939F93EF93FF9305
:10261000E0914C05F0914D058081E0915205F091DB
:10262000530582FD12C09081809155058F5F8F7395
:1026300020915605821751F0E0915505F0E0E45CD9
:10264000FA4F958F8093550501C08081FF91EF91DE
:102650009F918F912F910F900FBE0F901F90189503
:102660001F920F920FB60F9211242F933F934F9307
:102670005F936F937F938F939F93AF93BF93EF93EA
:10268000FF938CE395E00E94F411FF91EF91BF91CD
:10269000AF919F918F917F916F915F914F913F91FA
:1026A0002F910F900FBE0F901F9018958CE395E01F
:1026B0000E94B91121E0892B09F420E0822F0895AE
:1026C00010923F0510923E0588EE93E0A0E0B0E046
:1026D0008093400590934105A0934205B093430534
:1026E0008CE891E090933D0580933C0585EC90E06B
:1026F000909349058093480584EC90E090934B05B6
:1027000080934A0580EC90E090934D0580934C05B2
:1027100081EC90E090934F0580934E0582EC90E021
:10272000909351058093500586EC90E0909353056B
:102730008093520510925505109256051092570538
:10274000109258050895CF92DF92EF92FF920F9367
:102750001F93CF93DF937C016A01EB0100E010E04F
:102760000C151D0571F06991D701ED91FC91019057
:10277000F081E02DC7010995892B19F00F5F1F4FDC
:10278000EFCFC801DF91CF911F910F91FF90EF9094
:10279000DF90CF9008956115710581F0DB010D90F8
:1027A0000020E9F7AD0141505109461B570BDC01F0
:1027B000ED91FC910280F381E02D099480E090E09E
:1027C00008950C94CB13DC01ED91FC910190F08104
:1027D000E02D099468E971E00C94CB130F931F93DB
:1027E000CF93DF93EC010E94CB138C01CE010E94AA
:1027F000EA13800F911FDF91CF911F910F910895E0
:102800008F929F92AF92BF92CF92DF92EF92FF9200
:102810000F931F93CF93DF93CDB7DEB7A1970FB67A
:10282000F894DEBF0FBECDBF7C01C42EE52FCB01D7
:10283000D22E19A221E02D1510F02AE0D22E8E0101
:102840000F5D1F4F8D2C912CA12CB12C6C2D7E2F48
:10285000A50194010E943E198C2DD29E801911244D
:10286000015011098A3014F4805D01C0895CF801BF
:102870008083211531054105510521F0C22EE32F3A
:10288000CA01E4CFB801C7010E94CB13A1960FB6CD
:10289000F894DEBF0FBECDBFDF91CF911F910F9196
:1028A000FF90EF90DF90CF90BF90AF909F908F9070
:1028B0000895CF92DF92EF92FF920F931F93CF93E1
:1028C000DF93EC016A017B012115310579F4E88180
:1028D000F9810190F081E02D642FDF91CF911F915C
:1028E0000F91FF90EF90DF90CF9009942A3031053F
:1028F000E9F477FF1AC06DE20E94E3138C014427CC
:102900005527BA014C195D096E097F092AE0CE01ED
:102910000E940014800F911FDF91CF911F910F91A2
:10292000FF90EF90DF90CF9008952AE0B701A601C5
:10293000CE01DF91CF911F910F91FF90EF90DF902B
:10294000CF900C9400149A01AB01662757FD609557
:10295000762F0C9459140F931F93CF93DF93EC01B0
:102960009A01AB01662757FD6095762F0E94591496
:102970008C01CE010E94EA13800F911FDF91CF914D
:102980001F910F9108954F925F926F927F928F9255
:102990009F92AF92BF92CF92DF92EF92FF920F93EE
:1029A0001F93CF93DF93EC016A017B01B22E9A0152
:1029B000AB01C701B6010E941719882319F06BE912
:1029C00071E027C026013701E89477F82FEF3FEF39
:1029D0004FE75FE7C301B2010E94171981110DC0D3
:1029E0002FEF3FEF4FE75FE7C301B2010E94A71649
:1029F00018161CF46FE971E00CC02FEF3FEF4FE7A2
:102A00005FE4C701B6010E9444181816ACF463EAEB
:102A100071E0CE01DF91CF911F910F91FF90EF9068
:102A2000DF90CF90BF90AF909F908F907F906F90EE
:102A30005F904F900C94CB132FEF3FEF4FE75FEC7D
:102A4000C701B6010E94A71687FDE1CF20E030E064
:102A5000A901C701B6010E94A71687FF0AC06DE24F
:102A6000CE010E94E3138C01F7FAF094F7F8F0948A
:102A700002C000E010E0A12C60E070E080E09FE385
:102A8000AB1441F020E030E040E251E40E94AB168C
:102A9000A394F6CF9B01AC01C701B6010E941B169F
:102AA0006B017C010E9418172B013C010E94441706
:102AB0009B01AC01C701B6010E941A166B017C0193
:102AC0002AE0B301A201CE010E940014080F191FD1
:102AD000BB2039F067EA71E0CE010E94CB13080FEA
:102AE000191F7B2C772041F120E030E040E251E4D7
:102AF000C701B6010E944F186B017C010E94131799
:102B00004B01AA2497FCA094BA2C2AE030E0B5012E
:102B1000A401CE010E945914080F191FC501B40168
:102B20000E9446179B01AC01C701B6010E941A160C
:102B30006B017C017A94D6CFC801DF91CF911F91B0
:102B40000F91FF90EF90DF90CF90BF90AF909F904C
:102B50008F907F906F905F904F9008950C94C31466
:102B60000F931F93CF93DF93EC010E94C3148C014A
:102B7000CE010E94EA13800F911FDF91CF911F9128
:102B80000F9108954F925F926F927F92AF92BF9292
:102B9000CF92DF92EF92FF920F931F93CF93DF9329
:102BA000CDB7DEB729013A01621B730B840B950B7D
:102BB00029893A894B895C892A193B094C095D09A5
:102BC000298B3A8B4B8B5C8B9B01AC0169897A8991
:102BD0008B899C890E942219E418F50806091709B7
:102BE000A80197010E9460192A0D3B1D4C1D5D1D17
:102BF000CA01B901DF91CF911F910F91FF90EF9022
:102C0000DF90CF90BF90AF907F906F905F904F908C
:102C1000089508950E945E100E9409160E94990965
:102C2000C6EED1E10E94D7092097E1F30E94E61198
:102C3000F9CF08955058BB27AA270ED0EBC1DCD19D
:102C400030F0E1D120F031F49F3F11F41EF4ACC11B
:102C50000EF4E095E7FB79C1E92FEDD180F3BA17C7
:102C6000620773078407950718F071F49EF505C293
:102C70000EF4E0950B2EBA2FA02D0B01B901900197
:102C80000C01CA01A0011124FF27591B99F0593FDB
:102C900050F4503E68F11A16F040A22F232F342F23
:102CA0004427585FF3CF469537952795A795F04071
:102CB0005395C9F77EF41F16BA0B620B730B840B86
:102CC000BAF09150A1F0FF0FBB1F661F771F881F3E
:102CD000C2F70EC0BA0F621F731F841F48F4879596
:102CE00077956795B795F7959E3F08F0B3CF939585
:102CF000880F08F09927EE0F979587950895DF9331
:102D0000DD27B92FBF7740E85FE31616170648079F
:102D10005B0710F4D92FBCD19F938F937F936F9350
:102D200083D2E8E6F0E043D175D12F913F914F91E6
:102D30005F91C1D1DD2349F09058A2EA2AED3FE02E
:102D400049EC5FE3D0785D2787DFDF9163C1D9D09D
:102D500008F481E008950CD05DC155D140F04CD10C
:102D600030F021F45F3F19F0F0C0511187C11CC150
:102D700062D198F39923C9F35523B1F3951B550BF1
:102D8000BB27AA2762177307840738F09F5F5F4F3E
:102D9000220F331F441FAA1FA9F333D00E2E3AF07F
:102DA000E0E830D091505040E695001CCAF729D099
:102DB000FE2F27D0660F771F881FBB1F26173707E8
:102DC0004807AB07B0E809F0BB0B802DBF01FF2718
:102DD00093585F4F2AF09E3F510568F0B6C04EC130
:102DE0005F3FECF3983EDCF3869577956795B79552
:102DF000F7959F5FC9F7880F911D9695879597F96D
:102E00000895E1E0660F771F881FBB1F62177307E5
:102E10008407BA0720F0621B730B840BBA0BEE1FFA
:102E200088F7E095089504D06894B11127C10895FA
:102E30000AD188F09F5790F0B92F9927B751A0F089
:102E4000D1F0660F771F881F991F1AF0BA95C9F73E
:102E500012C0B13081F011D1B1E008950EC1672FD9
:102E6000782F8827B85F39F0B93FCCF386957795EE
:102E70006795B395D9F73EF49095809570956195D7
:102E80007F4F8F4F9F4F0895E89409C097FB3EF402
:102E900090958095709561957F4F8F4F9F4F9923A7
:102EA000A9F0F92F96E9BB279395F6958795779525
:102EB0006795B795F111F8CFFAF4BB0F11F460FFE5
:102EC0001BC06F5F7F4F8F4F9F4F16C0882311F03D
:102ED00096E911C0772321F09EE8872F762F05C051
:102EE000662371F096E8862F70E060E02AF09A95EC
:102EF000660F771F881FDAF7880F9695879597F9E1
:102F00000895990F0008550FAA0BE0E8FEEF16167A
:102F10001706E807F907C0F012161306E407F507CD
:102F200098F0621B730B840B950B39F40A2661F041
:102F3000232B242B252B21F408950A2609F4A140E4
:102F4000A6958FEF811D811D089597F99F6780E8F1
:102F500070E060E00895882371F4772321F09850A1
:102F6000872B762F07C0662311F499270DC0905147
:102F7000862B70E060E02AF09A95660F771F881F15
:102F8000DAF7880F9695879597F908959F3F31F066
:102F9000915020F4879577956795B795880F911D87
:102FA0009695879597F908959FEF80EC0895DF93A4
:102FB000CF931F930F93FF92EF92DF927B018C01CF
:102FC000689405C0DA2EEF0176D0FE01E894A59151
:102FD0002591359145915591AEF3EF013DDEFE010E
:102FE0009701A801DA9479F7DF90EF90FF900F91A5
:102FF0001F91CF91DF91089500240A9416161706A9
:1030000018060906089500240A94121613061406D9
:1030100005060895092E0394000C11F4882352F03C
:10302000BB0F40F4BF2B11F460FF04C06F5F7F4FF4
:103030008F4F9F4F089557FD9058440F551F59F0DB
:103040005F3F71F04795880F97FB991F61F09F3F95
:1030500079F087950895121613061406551FF2CFBE
:103060004695F1DF08C0161617061806991FF1CF0E
:1030700086957105610508940895E894BB27662735
:103080007727CB0197F908953CDF08F48FEF089577
:103090009B01AC0160E070E080E89FE35CCE0BD068
:1030A000B9CFAADF28F0AFDF18F0952309F04DCF94
:1030B0007BCF1124E3CFBFDFA0F3959FD1F3950F12
:1030C00050E0551F629FF001729FBB27F00DB11DAC
:1030D000639FAA27F00DB11DAA1F649F6627B00D3C
:1030E000A11D661F829F2227B00DA11D621F739F25
:1030F000B00DA11D621F839FA00D611D221F749F33
:103100003327A00D611D231F849F600D211D822F79
:10311000762F6A2F11249F5750408AF0E1F08823C0
:103120004AF0EE0FFF1FBB1F661F771F881F9150CD
:103130005040A9F79E3F510570F007CF9FCF5F3FEA
:10314000ECF3983EDCF3869577956795B795F79500
:10315000E7959F5FC1F7FE2B880F911D9695879588
:1031600097F9089570DFE0F09E37D8F09639B8F4FB
:103170009E3848F4672F782F8827985FF9CF869577
:103180007795679593959539D0F3B62FB1706B0FFE
:10319000711D811D20F48795779567959395DBCEFA
:1031A000F5CE6CCF11F40EF4FFCEF0CE4CDFD0F3A1
:1031B0009923D9F3CEF39F57550B87FF3CD00024BA
:1031C000A0E640EA900180585695979528F4805CD7
:1031D000660F771F881F20F026173707480730F43F
:1031E000621B730B840B202931294A2BA695179457
:1031F0000794202531254A2758F7660F771F881F27
:1032000020F026173707480730F4620B730B840B46
:10321000200D311D411DA09581F7B901842F9158D2
:10322000880F9695879508959B01AC0138CF69DE8C
:10323000880B990B089591505040660F771F881F97
:10324000D2F70895DB018F939F930E948E19BF914F
:10325000AF91A29F800D911DA39F900DB29F900DE5
:1032600011240895991B79E004C0991F961708F05E
:10327000961B881F7A95C9F780950895A1E21A2EAA
:10328000AA1BBB1BFD010DC0AA1FBB1FEE1FFF1F0A
:10329000A217B307E407F50720F0A21BB30BE40B5A
:1032A000F50B661F771F881F991F1A9469F76095A1
:1032B0007095809590959B01AC01BD01CF0108955B
:1032C000052E97FB1EF400940E94771957FD07D036
:1032D0000E943E1907FC03D04EF40C9477195095C8
:1032E0004095309521953F4F4F4F5F4F08959095F2
:1032F0008095709561957F4F8F4F9F4F0895A29F46
:10330000B001B39FC001A39F700D811D1124911DB9
:10331000B29F700D811D1124911D08950E947F1987
:10332000A59F900DB49F900DA49F800D911D112419
:103330000895EE0FFF1F0590F491E02D0994662784
:1033400077270C94581AFC0188279927E894219133
:103350002032E9F3293010F02E30C8F32B3241F03F
:103360002D3239F4689404C00E943A1A820F911DDC
:10337000219120532A30C0F31EF4909581959F4FE0
:1033800008951F93FC0199278827BC01E8941191A7
:103390001032E9F3193010F01E30C8F31B3251F02F
:1033A0001D3249F4689406C00E94251A610F711DF0
:1033B000811D911D119110531A30B0F33EF4909578
:1033C0008095709561957F4F8F4F9F4F1F91089506
:1033D0009111D1C1803219F089508550D0F70895EC
:1033E000FB01DC014150504030F08D91019080197B
:1033F00019F40020B9F7881B990B0895FA01A191DF
:10340000B081009719F41097E1F0CD01DC01CD01F6
:103410000D90002011F4C00113C0FB012191222363
:1034200019F02015D9F7F3CFFB012191201519F4DC
:103430001E92119606C02223C1F70D900020A1F71D
:10344000D001FA01A193B0830895592F482F372F47
:10345000262F660F771F881F991F660F771F881FFB
:10346000991F620F731F841F951F660F771F881F98
:10347000991F08957AE0979F902D879F802D910D39
:1034800011240895F999FECF92BD81BDF89A99272C
:1034900080B50895262FF999FECF1FBA92BD81BD40
:1034A00020BD0FB6F894FA9AF99A0FBE01960895C6
:1034B000A0E0B0E0EEE5FAE10C94DC1B8B016115B5
:1034C000710521F0DB018C9311969C93EC015E0158
:1034D000BFEFAB1ABB0A7501C8808C2D90E00E942B
:1034E000E819892B11F0E501F2CFEDE2CE1208C008
:1034F0007E01F2E0EF0EF11CC980DD24D39409C0F7
:103500002BE2C21205C07E0142E0E40EF11CC9802C
:10351000D12CE701219743E050E068EF70E0CE0145
:103520000E94BE1B892BC1F4239645E050E063EF57
:1035300070E0CE010E94BE1B892B09F4259601156F
:10354000110519F0D801CD93DC93D11006C160E0CC
:1035500070E080E89FE70AC143E050E060EF70E070
:10356000CE010E94BE1B892B59F40115110509F4E7
:10357000F9C0B2E0EB0EF11CF801F182E082F2C07A
:10358000F70160E070E0CB01C0E0D0E07F01A0ED8A
:10359000AA2EAC0C29E02A1530F14D2D4260B42E34
:1035A0002D2D2870D2FE04C0211125C0219623C0E4
:1035B00021112197A5E0B0E09B01AC010E948E197A
:1035C000660F771F881F991F6A0D711D811D911D40
:1035D0006839A9E97A078A07A9E19A0760F0BD2D41
:1035E000B660BB2E08C02EEFA2120AC0D3FC50C09A
:1035F0004D2D4860B42E3196D701CC90DB2CC6CF30
:103600002C2D2F7D253409F043C0A081AD3241F42B
:10361000BD2DB061DB2E7F0122E0E20EF11C0CC05B
:103620007F01AB3231F04FEFE41AF40A21E030E0D1
:1036300006C0A2E0EA0EF11CA18122E030E0A05316
:10364000AA3018F0E21AF30A23C0F70120E030E0B4
:103650002038BCE03B075CF4A901440F551F440F20
:10366000551F240F351F220F331F2A0F311DAF01A5
:103670004F5F5F4F7A01A081A053AA3010F4FA0186
:10368000E7CFD4FE03C0319521953109C20FD31F76
:10369000D1FE09C00115110531F0E1E0EE1AF10883
:1036A000D801ED92FC920E9444172D2D23702330F7
:1036B00019F04B015C0106C04B015C01B7FAB094F4
:1036C000B7F8B09420E030E0A901C501B4010E9430
:1036D000A716882309F43EC0D7FF06C0D195C1952F
:1036E000D1090FE011E002C007E211E06801B8E182
:1036F000CB1AD10890E2E92EF12CCE15DF0574F03B
:10370000F8012591359145915491C501B4010E946C
:103710004F184B015C01CE19DF09EFCF045011099E
:10372000F594E7940C151D0541F78A2D880F8B2D14
:10373000881F8F3F49F020E030E0A901C501B401A6
:103740000E94A716811106C082E290E09093DA05EC
:103750008093D905C501B40109C060E070E080E83C
:103760009FEF04C060E070E080EC9FE7CDB7DEB76C
:10377000ECE00C94F81B992788270895FB01DC01E5
:103780004150504088F08D9181341CF08B350CF401
:10379000805E659161341CF06B350CF4605E861BB5
:1037A000611171F3990B0895881BFCCF2F923F9202
:1037B0004F925F926F927F928F929F92AF92BF9241
:1037C000CF92DF92EF92FF920F931F93CF93DF93ED
:1037D000CDB7DEB7CA1BDB0B0FB6F894DEBF0FBE4A
:1037E000CDBF09942A88398848885F846E847D8497
:1037F0008C849B84AA84B984C884DF80EE80FD8099
:103800000C811B81AA81B981CE0FD11D0FB6F8940E
:10381000DEBF0FBECDBFED01089511E0C4E3D1E0DE
:1038200004C0FE010E949B192296C633D107C9F736
:04383000F894FFCF3A
:103834000000DB05800001000000D007C800000084
:103844000B0A03090C0D080200001011140F150EC9
:103854000607050400000000000000004D31302080
:103864004D53434152412000410020420020530067
:103874002055002044004D3220553A0020443A009F
:10388400504F532058002059004F4B00534341528E
:1038940041340073657420746F2064656661756CCF
:1038A400742073657475700000000000190EEC0D2F
:1038B400C10DC90DDC0DEB0D000000003712A31380
:1038C400B911D211C41115120D0A006E616E00698E
:0A38D4006E66006F7666002E00009D
:00000001FF
