:100000000C9482000C94AA000C94AA000C949F0CEF
:100010000C94C90C0C94F30C0C94AA000C94AA0038
:100020000C94AA000C94AA000C94AA000C94770BD0
:100030000C94AA000C94AA000C94AA000C94AA0098
:100040000C94430F0C94AA000C9403120C94861287
:100050000C94AA000C94AA000C94AA000C94AA0078
:100060000C94E00D0C94AA0000000000240027006E
:100070002A0000000000250028002B0000000000DE
:1000800023002600290004040404040404040202DA
:100090000202020203030303030301020408102007
:1000A0004080010204081020010204081020000012
:1000B0000007000201000003040600000000000029
:1000C0000000494E46494E4954594E414ECDCCCC84
:1000D0003D0AD7233C17B7D13877CC2B329595E61C
:1000E000241FB14F0A000020410000C84200401CFC
:1000F0004620BCBE4CCA1B0E5AAEC59D74008E0273
:100100004D0D391211241FBECFEFD8E0DEBFCDBF99
:1001100011E0A0E0B1E0ECEAF1E302C005900D923D
:10012000A83AB107D9F714E0A8EAB1E001C01D92DE
:10013000A235B107E1F710E0C4E0D1E004C0229796
:10014000FE010E948E18CE3FD107C9F70E94AC1263
:100150000C94D4180C940000662777270C94160191
:10016000FC0188279927E89421912032E9F329306E
:1001700010F02E30C8F32B3241F02D3239F4689450
:1001800004C00E940E01820F911D219120532A303C
:10019000C0F31EF4909581959F4F0895FB01DC01FB
:1001A0004150504030F08D910190801919F4002099
:1001B000B9F7881B990B0895009731F4DA018D91F6
:1001C0009C91009709F40EC0DC01FB013D91219147
:1001D000222319F03217C9F3FACF332331F4DA01AD
:1001E0001D921C928827992708951197AF93BF936A
:1001F000FB013D912191321771F4332321F48827BB
:100200009927119702C01E921196FA01A193B0830B
:100210009F918F910895222369F7EACF7AE0979F03
:10022000902D879F802D910D11240895A0E0B0E0BE
:10023000ECE1F1E00C94A318EC015B016115710590
:1002400019F0FB0191838083F9908F2D90E00E943B
:100250009218892BC9F7FDE2FF1621F4F990EE24DC
:10026000E39405C02BE2F21609F4F990EE248E0116
:1002700001501040C80162EC70E043E050E00E9481
:100280007602892B01F58E010E5F1F4FC80165ECC8
:1002900070E045E050E00E947602892B19F48E014F
:1002A000095F1F4FA114B10419F0F50111830083F8
:1002B000E0FC04C070E090E080E814C070E090E0E2
:1002C00080E86FEF08C1C8016AEC70E043E050E0DD
:1002D0000E947602892B69F4A114B10429F470E01C
:1002E00090E080EC6FE7F7C02296F501D183C083E0
:1002F000F6CF8824992440E050E060E070E0EF2DD4
:10030000E053EA30A0F5F2E0EF2A8E2D90E09C0158
:1003100028703070E2FE06C0232B79F50894811C0A
:10032000911C2BC0232B19F0089481089108DB0144
:10033000CA0112E0880F991FAA1FBB1F1A95D1F797
:10034000480F591F6A1F7B1F440F551F661F771FD9
:100350004E0F511D611D711D483929E9520729E9C8
:10036000620729E1720748F084E0E82A06C0EE3F00
:1003700031F4E3FC39C098E0E92AF990C0CFE533C5
:1003800011F0E53189F529912D3219F4E0E1EE2AD9
:1003900005C02B3219F081E090E003C0299182E082
:1003A00090E0E22FE053EA3018F0C81BD90B1CC0D4
:1003B00020E030E0FCE020383F075CF4C901880F02
:1003C000991F880F991F280F391F220F331F2E0FD7
:1003D000311DE991E053EA3068F3E4FE03C0309543
:1003E00021953F4F820E931ECE2CDD24E1FE07C0E7
:1003F000A114B10421F02197F501D183C083CB0171
:10040000BA010E947B167B018C01F3E0CF22DD2430
:1004100023E0C216D10421F417FB109517F91095AB
:1004200057016801C801B70120E030E040E050E02A
:100430000E94DE15882309F44AC097FE0DC021EE04
:10044000E22E20E0F22E9094819491089394C0E2E1
:10045000D0E000E010E012C099EFE92E90E0F92E14
:10046000F6CFF7012591359145915491C601B5011B
:100470000E9431175B016C018C1A9D0A8C169D0637
:1004800084F7D595C7950F5F1F4F0630110529F0EA
:100490008CEF9FEFE80EF91EF1CFC501D6017C016C
:1004A0008D018C2D880F8D2D881F8F3F51F0C60137
:1004B000B50120E030E040E050E00E94DE158823E6
:1004C00031F482E290E090935104809350047E2DA9
:1004D0009F2D802F612F272F392F482F562FB9019D
:1004E000CA01CDB7DEB7ECE00C94BF18FB01DC010C
:1004F0004150504088F08D9181341CF08B350CF4C4
:10050000805E659161341CF06B350CF4605E861B77
:10051000611171F3990B0895881BFCCF0F931F9302
:1005200084E292E061E00E94980988E292E062E051
:100530000E9498090CE212E0C80167E00E94980945
:1005400080E392E06AE00E94AB09C8010E94A8091A
:10055000809334021092350286E392E00E94330ABF
:100560001F910F910895CF93DF93C0E0D0E0FE017B
:10057000E855FE4F80E892E0BE0140810E94270AC4
:100580002196C034D10599F7DF91CF9108950F934B
:100590001F93CF93DF93C0E0D0E080E892E0BE01EC
:1005A0000E94200A08EA11E0FE01E00FF11F80839B
:1005B0002196C034D10589F7C80160E071E046E0BA
:1005C00050E00E94CE00009739F183EB93E067E0A2
:1005D00071E00E941D1580E4F80111928A95E9F7F7
:1005E000D801E0E0F1E086E001900D928150E1F762
:1005F0001092B0011092B1011092B20184EF91E01B
:100600009093B4018093B3018CEB92E09093B60188
:100610008093B5010E94B3028091B001882329F430
:1006200081E0809320028FEF04C08FEF809320023F
:1006300081E0809321028091B101882329F481E037
:10064000809322028FEF04C08FEF8093220281E01B
:1006500080932302DF91CF911F910F910895DF9333
:10066000CF9300D0CDB7DEB76CE171E0AE014F5F44
:100670005F4F0E94DC0089819A810E94B0009093B4
:100680003A02809339020F900F90CF91DF91089535
:10069000DF92EF92FF920F931F93DF93CF9300D0DF
:1006A000CDB7DEB76CE171E08E010F5F1F4FA8017F
:1006B0000E94DC007C01D02E012F78C080E090E009
:1006C0006CE171E04D2D502F0E94DC007C01FC019B
:1006D0008081813489F4C70101960E94B000809323
:1006E000B00183EB93E06EE171E00E94201483EB94
:1006F00093E06091B00112C08234A9F4C701019661
:100700000E94B0008093B10183EB93E069E271E055
:100710000E94201483EB93E06091B1014AE050E025
:100720000E949C1343C0883499F4C70101960E942B
:10073000B0009093B4018093B30183EB93E063E343
:1007400071E00E9420146091B3017091B40128C03F
:10075000873599F4C70101960E94B0009093B601C5
:100760008093B50183EB93E069E371E00E9420146C
:100770006091B5017091B60113C08335B9F4C7011A
:1007800001960E94B0008093B20183EB93E060E495
:1007900071E00E9420146091B201772767FD709587
:1007A00083EB93E04AE050E00E94EE13EF2809F05B
:1007B00085CF0E94B3020F900F90CF91DF911F91D0
:1007C0000F91FF90EF90DF9008950F931F9303EB2D
:1007D00013E0C80168E471E00E9420146091B30145
:1007E0007091B401C8014AE050E00E94EE13C801C4
:1007F00060E20E94E5126091B5017091B601C801F6
:100800004AE050E00E94EE13C80160E20E94E51247
:100810004091EC015091ED016091EE017091EF017A
:10082000C80122E030E00E940715C80160E20E9482
:10083000E5124091F0015091F1016091F201709147
:10084000F301C80122E030E00E940715C80160E210
:100850000E94E512C80165E571E00E9420146091D4
:10086000B001C80170E04AE050E00E94EE13C801F8
:1008700067E571E00E9420146091B101C80170E049
:100880004AE050E00E94EE13C8016AE571E00E9460
:1008900020146091B201772767FD7095C8014AE086
:1008A00050E00E9401141F910F910895DF93CF93A0
:1008B00000D0CDB7DEB76CE171E0AE014F5F5F4FA6
:1008C0000E94DC0089819A810E94B000BC0186E30D
:1008D00092E00E94890A0F900F90CF91DF910895C6
:1008E000DF93CF9300D0CDB7DEB76CE171E0AE01FE
:1008F0004F5F5F4F0E94DC0089819A810E94B000A7
:10090000BC0180E392E00E94ED090F900F90CF911F
:10091000DF910895CF93DF93EC010E94B000843003
:100920009105B9F08530910534F48130910549F095
:100930000397C9F40AC08530910579F00A9799F4B4
:1009400010C0CE010E9456040EC0CE010E942F039B
:100950000AC0CE010E94700406C0CE010E94480366
:1009600002C00E94E503DF91CF910895AF92BF923C
:10097000CF92DF92EF92FF920F931F9380E090E06F
:10098000A0E0B0E08093EC019093ED01A093EE0124
:10099000B093EF018093F0019093F101A093F201E5
:1009A000B093F301109210021092110210921202F1
:1009B0001092130210921402109215021092160255
:1009C000109217028091B5019091B60162E070E03B
:1009D0000E943C18882777FD8095982F0E947D16ED
:1009E0005B016C016091B3017091B401882777FDC0
:1009F0008095982F0E947D167B018C01C601B50160
:100A0000A60195010E9431175B016C01C801B70175
:100A1000A80197010E9431179B01AC01C601B501E5
:100A20000E947A150E949817AB01BC014093000206
:100A300050930102609302027093030240930402F8
:100A400050930502609306027093070240933B02A5
:100A500050933C0260933D0270933E0203EB13E01F
:100A6000C80122E030E00E940715C8016CE171E086
:100A70000E942014409104025091050260910602E8
:100A800070910702C80122E030E00E940A151F9110
:100A90000F91FF90EF90DF90CF90BF90AF900895AF
:100AA00083EB93E040E052EC61E070E026E00E94CE
:100AB000F3100E94C702609134027091350286E300
:100AC00092E00E94700B0E94B60408951816190651
:100AD00024F484E292E060E003C084E292E061E00A
:100AE0000E94DA0984E292E061E00E94C70984E290
:100AF00092E060E00E94C70908951816190624F4D0
:100B000088E292E060E003C088E292E061E00E9447
:100B1000DA0988E292E061E00E94C70988E292E087
:100B200060E00E94C70908952F923F924F925F9212
:100B30006F927F928F929F92AF92BF92CF92DF92ED
:100B4000EF92FF920F931F93DF93CF93CDB7DEB752
:100B50002E970FB6F894DEBF0FBECDBF2090700168
:100B6000309071014090180250901902809110024B
:100B700090911102481A590A80901C0290901D020F
:100B80008091140290911502881A990A640197FEC7
:100B900004C0CC24DD24C818D908520157FE04C073
:100BA000AA24BB24A418B508BA86A986AC14BD042F
:100BB00014F4DA86C98629853A85B901882777FD34
:100BC0008095982F0E947D167B018C01B5018827A6
:100BD00077FD8095982F0E947D16A80197010E94AD
:100BE000E2156D837E838F839887B601882777FD12
:100BF0008095982F0E947D16A80197010E94E2150A
:100C000069837A838B839C838FEF9FEF9C878B878D
:100C10000F2EF0E0AF2EF0E0BF2EF0E0CF2EF0E090
:100C2000DF2EF02D8601750166247724FDC08091AA
:100C3000100290911102A0911202B091130282173A
:100C40009307A407B50709F452C0C601B5012D8169
:100C50003E814F8158850E947A155B016C0120E02E
:100C600030E040E85FE30E942D1788230CF43FC07A
:100C7000141415041CF42091200202C020912102BA
:100C8000E22FFF27E7FDF095FE87ED878091B20107
:100C9000882321F0CF010E947D0504C08D859E85AB
:100CA0000E946605C601B50120E030E040E85FE340
:100CB0000E9479155B016C018D859E859C014427FE
:100CC00037FD4095542F8091100290911102A09110
:100CD0001202B0911302820F931FA41FB51F8093BD
:100CE000100290931102A0931202B093130220916C
:100CF0001402309115024091160250911702809112
:100D00001C0290911D02A0911E02B0911F02281793
:100D100039074A075B0709F452C0C801B7012981A6
:100D20003A814B815C810E947A157B018C0120E025
:100D300030E040E85FE30E942D1788230CF43FC0A9
:100D4000181419041CF42091220202C020912302DD
:100D5000E22FFF27E7FDF095FE87ED878091B20136
:100D6000882321F0CF010E94660504C08D859E85F1
:100D70000E947D05C801B70120E030E040E85FE354
:100D80000E9479157B018C018D859E859C014427ED
:100D900037FD4095542F8091140290911502A09137
:100DA0001602B0911702820F931FA41FB51F8093E4
:100DB000140290931502A0931602B09317028B852C
:100DC0009C85820D931D20916E0130916F018217D9
:100DD00093074CF040917001509171019C014817AC
:100DE00059070CF49A012090390230903A02220EF1
:100DF000331EC1010E948B0F89859A858619970938
:100E0000209170013091710140916E0150916F01FC
:100E1000241B350B8217930724F4E1E0F0E0FC87F4
:100E2000EB870894611C711C209118023091190203
:100E300040911A0250911B0289859A85681679069D
:100E40000CF4F5CE2093100230931102409312025D
:100E50005093130280911C0290911D02A0911E02DA
:100E6000B0911F028093140290931502A093160272
:100E7000B09317022E960FB6F894DEBF0FBECDBF0B
:100E8000CF91DF911F910F91FF90EF90DF90CF9066
:100E9000BF90AF909F908F907F906F905F904F909A
:100EA0003F902F9008952F923F924F925F926F92B2
:100EB0007F928F929F92AF92BF92CF92DF92EF92EA
:100EC000FF920F931F93DF93CF9300D000D0CDB745
:100ED000DEB78091F4019091F501A091F601B091F7
:100EE000F7019C01AD01505829833A834B835C8301
:100EF0002093F4013093F5014093F6015093F701EC
:100F0000CA01B9012091EC013091ED014091EE014F
:100F10005091EF010E9479155B016C016090F8011E
:100F20007090F9018090FA019090FB01C401B30127
:100F30002091F0013091F1014091F2015091F301C3
:100F40000E9479157B018C01C601B501A6019501AE
:100F50000E9431175B016C01C801B701A80197011C
:100F60000E9431179B01AC01C601B5010E947A15A0
:100F70000E9498172DEC3CEC4CEC5DE30E94DE15D2
:100F800087FDD6C08091B5019091B60162E070E016
:100F90000E943C18882777FD8095982F0E947D1627
:100FA0001B012C0169817A818B819C81A2019101B5
:100FB0000E947A157B018C016091B3017091B4019C
:100FC000882777FD8095982F0E947D16A4019301B4
:100FD0000E9479159B01AC010E9431175B016C01E5
:100FE000C801B701A80197010E943117A601950118
:100FF0000E947A150E9498173B014C0160930802E9
:101000007093090280930A0290930B02C201B1010E
:1010100029813A814B815C810E9479159B01AC0149
:101020000E943117A60195010E947A150E94981717
:101030005B016C0160930C0270930D0280930E02B1
:1010400090930F02E0903B02F0903C0200913D0231
:1010500010913E02C401B301A80197010E947915C5
:1010600022ED3EE74CE851EC0E9431170E944A16EF
:10107000609318027093190280931A0290931B02D6
:10108000C601B501A80197010E94791522ED3EE73E
:101090004CE851E40E9431170E944A1660931C02EA
:1010A00070931D0280931E0290931F020E9494056C
:1010B0008091080290910902A0910A02B0910B025E
:1010C0008093000290930102A0930202B093030266
:1010D00080910C0290910D02A0910E02B0910F022E
:1010E0008093040290930502A0930602B093070236
:1010F0008091F4019091F501A091F601B091F70172
:101100008093EC019093ED01A093EE01B093EF0179
:101110008091F8019091F901A091FA01B091FB0141
:101120008093F0019093F101A093F201B093F30149
:101130000F900F900F900F90CF91DF911F910F9113
:10114000FF90EF90DF90CF90BF90AF909F908F90E7
:101150007F906F905F904F903F902F900895DF9217
:10116000EF92FF920F931F93DF93CF9300D0CDB7F1
:10117000DEB76CE171E08E010F5F1F4FA8010E9486
:10118000DC007C01D02E012F57C080E090E06CE1A4
:1011900071E04D2D502F0E94DC007C01FC0180810C
:1011A000883569F4C70101960E94AC006093F40190
:1011B0007093F5018093F6019093F7013DC0893556
:1011C00069F4C70101960E94AC006093F801709326
:1011D000F9018093FA019093FB012EC08A3569F4DE
:1011E000C70101960E94AC006093FC017093FD0161
:1011F0008093FE019093FF011FC0863499F4C701CC
:1012000001960E94AC0020E030E040E752E40E94EA
:10121000E2156093E8017093E9018093EA019093ED
:10122000EB010AC0813441F4C70101960E94B0006D
:1012300090933A0280933902EF2809F0A6CF0E94DA
:1012400053070F900F90CF91DF911F910F91FF9057
:10125000EF90DF900895CF93DF93EC010E94B000F0
:101260008130910519F04C97D9F404C0CE010E9449
:10127000AF0816C080E090E0A0E0B0E08093F401F9
:101280009093F501A093F601B093F7018093F801D4
:101290009093F901A093FA01B093FB010E945307C8
:1012A000DF91CF910895FC018081873459F4CF01FB
:1012B00001960E942B0983EB93E06DE571E00E949B
:1012C0001D1508958D3451F4CF0101960E948A04B2
:1012D00083EB93E06DE571E00E941D150895CF93B7
:1012E000DF9383EB93E00E945711892BF1F083EB9E
:1012F00093E00E94731190917F02E92FFF27E7FD91
:10130000F095CFE3D2E0EC0FFD1F80839F5F9093B9
:101310007F028A3051F4CE010E94530980E4FE011D
:1013200011928A95E9F710927F02DF91CF9108958B
:10133000DC01E62FF0E0EE0FFF1FEE58FE4F80813C
:101340008C93818111968C93119712966C930895CA
:10135000FC0181810895DC01E62FF0E0EE0FFF1F14
:10136000EE58FE4F80818C93818111968C9311975A
:1013700012966C9381E0809380008BE080938100D3
:1013800083E08093B00084E08093B1000895FF92E1
:101390000F931F938C01F62EFC01818161E00E9466
:1013A0003010F80181816F2D0E946F101F910F91F5
:1013B000FF900895FF920F931F938C01F62EFC016E
:1013C000808161E00E943010F80180816F2D0E94C1
:1013D0006F101F910F91FF900895EF92FF920F935E
:1013E0001F93CF93DF937C01EB016F3F710519F0E1
:1013F00014F0CFEFD0E08E018FEFC130D8071CF48E
:1014000001E01FEF0AC0D7FD08C0C70161E00E94DC
:10141000C709F7018081BE010AC0C70160E00E94D0
:10142000C70966277727601B710BF70180810E942F
:10143000D00FDF91CF911F910F91FF90EF90089502
:10144000F999FECF72BD61BDF89A80B50895F999FA
:10145000FECF1FBA72BD61BD40BD0FB6F894FA9AB7
:10146000F99A0FBE0895FC01809181028C3090F4AE
:1014700080838F5F80938102815090E0FC01EE0FAA
:10148000FF1FE80FF91FEE57FD4F88EB9BE092839B
:10149000818308958FEF80830895FC0120812C3093
:1014A000B8F58181992787FD909548E850E0481B61
:1014B000590B440F551F440F551F6417750784F0CF
:1014C0008281992787FD909548E552E0481B590B8A
:1014D000440F551F440F551F641775070CF4AB01DB
:1014E00042505040CA01AA2797FDA095BA2F880FF5
:1014F000991FAA1FBB1F4FB7F89430E0F901EE0FF8
:10150000FF1FE20FF31FEE57FD4F928381834FBF02
:101510000895AF92BF92CF92DF92EF92FF920F9316
:101520001F93CF93DF93EC019B0182E06032780739
:101530000CF048C077FF03C020E030E005C0653BF9
:10154000710514F024EB30E000D000D0B9018827F9
:1015500077FD8095982F2981332727FD3095E8E87E
:10156000AE2EB12CA21AB30AAA0CBB1CAA0CBB1C2F
:10157000CC24B7FCC094DC2CEA81FF27E7FDF09572
:1015800028E532E02E1B3F0B220F331F220F331FA3
:10159000442737FD4095542FEDB7FEB721833283A2
:1015A0004383548320E030E040E050E004EBE02E41
:1015B000F12C012D112D0E9430159B010F900F90E1
:1015C0000F900F90CE01B9010E944D0ADF91CF918B
:1015D0001F910F91FF90EF90DF90CF90BF90AF9051
:1015E0000895CF92DF92EF92FF921F93CF93DF93F4
:1015F000EC01162F7A01690188818C3008F064C0F3
:10160000862F61E00E943010888190E0FC01EE0F8F
:10161000FF1FE80FF91FEE57FD4F1F738081807C7D
:10162000812B808380E292E08E199F0964E070E054
:101630000E943C18698380E699E08C199D0964E05A
:1016400070E00E943C186A83A8818A2F6CE00E9497
:101650001C18682F70E0AB01440F551F460F571F31
:10166000440F551F440F551F20E030E0C901840F7F
:10167000951FFC01EE0FFF1FE80FF91FEE57FD4FFE
:10168000808186FD15C02F5F3F4F2C30310571F7EB
:1016900024C01092800082E0809381001092850027
:1016A00010928400B19A80916F00826080936F00E5
:1016B0008A2F90E0FC01EE0FFF1FE80FF91FEE5795
:1016C000FD4F8081806480838881DF91CF911F915D
:1016D000FF90EF90DF90CF900895672BD1F2E8CF85
:1016E00040E252E020E639E00E94F10A08951F929C
:1016F0000F920FB60F9211242F933F934F935F9346
:101700006F937F938F939F93AF93BF93EF93FF93C9
:101710008091A60287FF05C0109285001092840078
:101720002BC02091A602332727FD3095809181029E
:1017300090E02817390704F58091A602992787FDC4
:101740009095FC01EE0FFF1FE80FF91FEE57FD4FBC
:10175000808186FF11C08091A602992787FD909510
:10176000FC01EE0FFF1FE80FF91FEE57FD4F8081C0
:101770008F7360E00E946F108091A6028F5F80934C
:10178000A6022091A602332727FD30958091810281
:1017900090E0281739070CF04EC08091A6028C30DB
:1017A0000CF049C020918400309185008091A60200
:1017B000992787FD9095FC01EE0FFF1FE80FF91F99
:1017C000EE57FD4F81819281820F931F9093890084
:1017D000809388008091A602992787FD9095FC014F
:1017E000EE0FFF1FE80FF91FEE57FD4F808186FFB8
:1017F0002BC08091A602992787FD9095FC01EE0FE2
:10180000FF1FE80FF91FEE57FD4F80818F7361E0D6
:101810000E946F1019C080E49CE905C0809184008B
:1018200090918500049690938900809388008FEFB3
:101830008093A60209C0809184009091850004964F
:1018400080549C4940F3EACFFF91EF91BF91AF9153
:101850009F918F917F916F915F914F913F912F91C8
:101860000F900FBE0F901F9018950F931F93CF935B
:10187000DF93FC01738D76957170A685B78595858C
:10188000772329F08C91892309F454C004C08C91EA
:10189000892309F04FC08389948920E001972FEFB5
:1018A0008F3F9207D9F7C589D689A685B785158553
:1018B00060E031E040E050E000E0CE01202F0197F1
:1018C0002FEF8F3F9207D9F78C91812311F0632B73
:1018D00003C0832F80956823330F4F5F5F4F4830DD
:1018E000510559F78789908D20E001972FEF8F3FA1
:1018F0009207D9F7711160958091E9022091EA026F
:1019000090E001968F73907030E08217930779F022
:10191000E091E902F0E0E755FD4F60838091E90234
:1019200090E001968F7390708093E90203C0838DDD
:101930008160838FDF91CF911F910F9108951F9246
:101940000F920FB60F9211242F933F934F935F93F3
:101950006F937F938F939F93AF93BF93EF93FF9377
:101960008091A7029091A802009711F00E94350C77
:10197000FF91EF91BF91AF919F918F917F916F9167
:101980005F914F913F912F910F900FBE0F901F903D
:1019900018951F920F920FB60F9211242F933F9319
:1019A0004F935F936F937F938F939F93AF93BF9367
:1019B000EF93FF938091A7029091A802009711F0F6
:1019C0000E94350CFF91EF91BF91AF919F918F9144
:1019D0007F916F915F914F913F912F910F900FBE2B
:1019E0000F901F9018951F920F920FB60F9211240F
:1019F0002F933F934F935F936F937F938F939F9317
:101A0000AF93BF93EF93FF938091A7029091A802A9
:101A1000009711F00E94350CFF91EF91BF91AF91AB
:101A20009F918F917F916F915F914F913F912F91F6
:101A30000F900FBE0F901F90189520910C0330E06F
:101A400080910B03281B3109C901089540910B03B4
:101A500080910C03481718F02FEF3FEF0AC0E42FD6
:101A6000F0E0E551FD4F8081282F30E04F5F40933B
:101A70000B03C9010895E0910B0380910C03E81753
:101A800018F0EFEFFFEF06C0F0E0E551FD4F808169
:101A9000E82FF0E0CF0108950895109233031092DB
:101AA000320388EE93E0A0E0B0E08093340390939B
:101AB0003503A0933603B09337038CE891E09093FD
:101AC0003103809330030895CF92DF92EF92FF921B
:101AD0000F931F93CF93DF937C016B018A01809159
:101AE0002F038823A1F0C0E0D0E00DC0D701ED9115
:101AF000FC91D601AC0FBD1F0190F081E02DC70114
:101B00006C9109952196C017D10780F304C0CB01D1
:101B1000642F0E94C50DC801DF91CF911F910F91D5
:101B2000FF90EF90DF90CF900895DF93CF930F92C7
:101B3000CDB7DEB7FC01698380912F038823C9F0FC
:101B400080912E03803238F081E090E0938382838D
:101B500020E030E015C080912D03E82FF0E0E35F36
:101B6000FC4F998190838F5F80932D0380932E0388
:101B700005C0CE01019661E00E94C50D21E030E074
:101B8000C9010F90CF91DF910895482F613210F075
:101B900081E0089580913C03843011F082E0089543
:101BA00060938703A6E6B3E0842F9C01F90102C08D
:101BB00081918D938E2F841B8617D0F380E008953A
:101BC0001F920F920FB60F9211242F933F934F93B2
:101BD0005F936F937F938F939F93AF93BF93EF9395
:101BE000FF938091B90090E0887F907088369105CE
:101BF00009F4D3C0893691050CF03EC080339105BD
:101C000009F49DC081339105D4F48031910509F424
:101C100074C0813191053CF4009709F41CC1089708
:101C200009F020C16AC08032910509F483C088326E
:101C3000910509F467C0489709F014C163C088345E
:101C4000910509F4A8C0893491054CF488339105B5
:101C500009F477C08034910509F004C182C0883549
:101C6000910509F483C08036910509F496C080354A
:101C7000910509F0F7C069C0803A910509F4A5C043
:101C8000813A9105ECF48038910509F48CC08138D3
:101C900091054CF48037910509F47FC08837910590
:101CA00009F0E0C07AC08039910509F47CC0883918
:101CB000910509F4C8C08838910509F0D3C0C3C0A4
:101CC000883B910509F4ADC0893B91054CF4883AF5
:101CD000910509F491C0803B910509F0C3C08CC007
:101CE000883C910509F4B1C0883F910509F4AFC063
:101CF000803C910509F0B6C0A8C080913D03809357
:101D0000BB00A1C09091640380916503981768F4AB
:101D100090916403E92FF0E0EC5BFC4F80818093AD
:101D2000BB009F5F909364038EC080913E03882325
:101D300069F103C080E28093A90384ED8FC080E342
:101D4000FACF88E38093A90380C0809164039091C7
:101D5000BB00E82FF0E0EC5BFC4F90838F5F80933B
:101D6000640390916403809165036BC08091640368
:101D70009091BB00E82FF0E0EC5BFC4F90838F5F0D
:101D80008093640380913E03882329F481E080934B
:101D90003F0384EA63C084E961C083E080933C032D
:101DA0001092A80350C08091A803803208F04FC061
:101DB0008091A8039091BB00E82FF0E0E857FC4F1A
:101DC00090838F5F8093A8033EC08091A8038032E8
:101DD00030F4E091A803F0E0E857FC4F10826091E6
:101DE000A803E0914203F091430388E893E070E098
:101DF00009951092A80329C084E080933C031092B7
:101E0000860310928703E0914003F0914103099506
:101E100080918703882329F481E0809387031092BF
:101E2000660390918603E92FF0E0EA59FC4F808128
:101E30008093BB009F5F909386039091860380916F
:101E40008703981720F485EC03C085EC07C085E86C
:101E50008093BC0007C01092A90385E98093BC0061
:101E600010923C03FF91EF91BF91AF919F918F91A1
:101E70007F916F915F914F913F912F910F900FBE86
:101E80000F901F9018951F920F920FB60F9211246A
:101E90002F933F938F939F93AF93BF938091AE0304
:101EA0009091AF03A091B003B091B1033091B20310
:101EB0000196A11DB11D232F2D5F2D3720F02D5729
:101EC0000196A11DB11D2093B2038093AE039093A0
:101ED000AF03A093B003B093B1038091AA03909194
:101EE000AB03A091AC03B091AD030196A11DB11D50
:101EF0008093AA039093AB03A093AC03B093AD037C
:101F0000BF91AF919F918F913F912F910F900FBEF5
:101F10000F901F901895019739F0880F991F880F1F
:101F2000991F02970197F1F70895789484B582601C
:101F300084BD84B5816084BD85B5826085BD85B56D
:101F4000816085BDEEE6F0E0808181608083E1E81C
:101F5000F0E0108280818260808380818160808354
:101F6000E0E8F0E0808181608083E1EBF0E0808157
:101F700084608083E0EBF0E0808181608083EAE729
:101F8000F0E08081846080838081826080838081B2
:101F9000816080838081806880831092C100089571
:101FA0001F93CF93DF93182FEB0161E00E94301055
:101FB000209709F44AC0CF3FD10509F449C0E12F69
:101FC000F0E0E255FF4F84918330C1F0843028F473
:101FD000813051F08230B1F50CC0863019F1873074
:101FE00049F1843079F514C084B5806884BDC7BDDB
:101FF00033C084B5806284BDC8BD2EC0809180008E
:10200000806880938000D0938900C093880024C0AA
:1020100080918000806280938000D0938B00C09379
:102020008A001AC08091B00080688093B000C0938D
:10203000B30012C08091B00080628093B000C09362
:10204000B4000AC0C038D1051CF4812F60E002C082
:10205000812F61E00E946F10DF91CF911F91089551
:10206000CF93DF93482F50E0CA0186569F4FFC0163
:1020700034914A575F4FFA018491882369F190E0C7
:10208000880F991FFC01E859FF4FA591B491FC01FD
:10209000EE58FF4FC591D491662351F42FB7F894B1
:1020A0008C91932F909589238C93888189230BC0E1
:1020B000623061F42FB7F8948C91932F9095892317
:1020C0008C938881832B88832FBF06C09FB7F89499
:1020D0008C91832B8C939FBFDF91CF910895482FD4
:1020E00050E0CA0182559F4FFC012491CA018656D7
:1020F0009F4FFC0194914A575F4FFA01349133236B
:1021000009F440C0222351F1233071F0243028F427
:102110002130A1F0223011F514C02630B1F0273063
:10212000C1F02430D9F404C0809180008F7703C0BF
:10213000809180008F7D8093800010C084B58F7760
:1021400002C084B58F7D84BD09C08091B0008F77B7
:1021500003C08091B0008F7D8093B000E32FF0E04A
:10216000EE0FFF1FEE58FF4FA591B4912FB7F894D3
:10217000662321F48C919095892302C08C91892B40
:102180008C932FBF0895DC015C968C915C97FD01C8
:10219000E80FF11DE35AFF4F20815C968C915C970C
:1021A00090E001968F7390705C968C935C97569636
:1021B000ED91FC91579720835096ED91FC915197AA
:1021C0008081806480835B969C915B975C968C9108
:1021D0005C97981739F45296ED91FC915397808152
:1021E0008F7D80830895DF92EF92FF920F931F936C
:1021F000CF93DF93EC017A018B01D22EE889F98924
:1022000082E08083403081EE580780E0680780E0FC
:102210007807A1F060E079E08DE390E0A8019701F4
:102220000E944F18215030404040504056954795ED
:102230003795279580E12030380798F0E889F989AB
:10224000108260E874E88EE190E0A80197010E9496
:102250004F18215030404040504056954795379593
:102260002795EC85FD853083EE85FF852083188ECC
:10227000EC89FD89D082EA89FB8980818061808335
:10228000EA89FB89808188608083EA89FB89808173
:1022900080688083EA89FB8980818F7D8083DF91DC
:1022A000CF911F910F91FF90EF90DF900895FC0167
:1022B000218D828D30E0205C3F4F281B31092F7328
:1022C0003070C9010895FC01918D828D981719F421
:1022D0002FEF3FEF06C0828DE80FF11D858D282F6F
:1022E00030E0C9010895DC0159969C9159975A969E
:1022F0008C915A97981719F42FEF3FEF10C05A9608
:102300008C915A97FD01E80FF11D958D5A968C918D
:102310005A978F5F8F735A968C93292F30E0C9019B
:102320000895CF93DF93EC01888D882361F419C061
:102330008C9185FF0AC0E889F989808185FF05C0F5
:10234000CE010E94C310AA89BB898C9185FD05C06E
:10235000E889F989808186FD04C00FB607FEE8CFC1
:10236000F4CFDF91CF9108950F931F93CF93DF9315
:10237000EC01062F9B8D8C8D981791F5E889F989D2
:10238000808185FF2DC0EE89FF896083E889F98906
:102390008081806480831DC00FB607FC08C0E88977
:1023A000F989808185FF03C0CE010E94C3108C8D06
:1023B000181791F38B8DFE01E80FF11DE35AFF4FC3
:1023C00000831B8FEA89FB8980818062808381E0A2
:1023D000888F81E090E0DF91CF911F910F91089558
:1023E0001B8D1F5F1F73E3CF8CE792E1892B51F0A8
:1023F00080E090E0892B31F00E947C12882311F05C
:102400000E94000008951F920F920FB60F921124A0
:102410002F938F939F93EF93FF93E091C303F091DA
:10242000C403808182FD16C0E091C903F091CA0304
:1024300020819091CC039F5F9F738091CD0398176B
:1024400071F0E091CC03F0E0ED54FC4F258F9093B8
:10245000CC0305C0E091C903F091CA03E081FF916C
:10246000EF919F918F912F910F900FBE0F901F9022
:1024700018951092B6031092B50388EE93E0A0E091
:10248000B0E08093B7039093B803A093B903B093DF
:10249000BA038CE991E09093B4038093B30385EC85
:1024A00090E09093C0038093BF0384EC90E09093FE
:1024B000C2038093C10380EC90E09093C4038093A7
:1024C000C30381EC90E09093C6038093C50382EC34
:1024D00090E09093C8038093C70386EC90E09093BC
:1024E000CA038093C9031092CC031092CD031092BB
:1024F000CE031092CF03089583EB93E00E9457110F
:1025000020E0892B09F021E0822F08951F920F927D
:102510000FB60F9211242F933F934F935F936F93B6
:102520007F938F939F93AF93BF93EF93FF9383EB2F
:1025300093E00E94C310FF91EF91BF91AF919F91E3
:102540008F917F916F915F914F913F912F910F905C
:102550000FBE0F901F901895CF93DF930E94950F99
:102560000E945005C4EFD1E10E946F092097E1F36A
:102570000E94F411F9CFCF92DF92EF92FF920F9366
:102580001F93CF93DF937C016B018A01C0E0D0E001
:102590000FC0D6016D916D01D701ED91FC910190B5
:1025A000F081E02DC7010995C80FD91F01501040D7
:1025B0000115110571F7CE01DF91CF911F910F9198
:1025C000FF90EF90DF90CF900895DC01ED91FC91AA
:1025D0000190F081E02D09950895EF92FF920F93FD
:1025E0001F938C01DC01ED91FC910190F081E02DB5
:1025F0006DE009957C01D801ED91FC910190F0818D
:10260000E02DC8016AE009959C012E0D3F1DC9010E
:102610001F910F91FF90EF900895CF93DF93EC01FE
:102620006115710519F420E030E00FC0DB010D9059
:102630000020E9F71197A61BB70BE881F98102800A
:10264000F381E02DAD0109959C01C901DF91CF9186
:1026500008954F925F927F928F929F92AF92BF9216
:10266000CF92DF92EF92FF920F931F93DF93CF935E
:10267000CDB7DEB7A1970FB6F894DEBF0FBECDBFC2
:102680002C01742ECB01223008F42AE019A231E289
:10269000C32ED12CCC0EDD1E822E9924AA24BB245D
:1026A000672D752FA50194010E944F1879018A01A9
:1026B000C801B701A50194010E94FD17472D461BD3
:1026C0000894C108D1084A3014F4405D01C0495C47
:1026D000F6014083E114F1040105110521F07E2C7F
:1026E0005F2DC801DDCFC201B6010E940D13A19676
:1026F0000FB6F894DEBF0FBECDBFCF91DF911F9113
:102700000F91FF90EF90DF90CF90BF90AF909F9090
:102710008F907F905F904F900895DC0121153105D7
:1027200041F4ED91FC910190F081E02D642F099529
:1027300008950E9429130895EF92FF920F931F931B
:102740009A01E62EFF2400E010E0B801A7010E94E4
:102750008D131F910F91FF90EF900895CF92DF920C
:10276000EF92FF920F931F93CF93DF93EC016A01D7
:102770007B012115310541F4E881F9810190F08157
:10278000E02D642F09951FC02A303105D1F477FF61
:1027900017C0E881F9810190F081E02D6DE2099583
:1027A0008C0144275527BA014C195D096E097F0930
:1027B000CE012AE00E9429139801280F391F04C076
:1027C0002AE00E9429139C01C901DF91CF911F913A
:1027D0000F91FF90EF90DF90CF900895EF92FF92CE
:1027E0000F931F937B019A010027F7FC0095102F90
:1027F000B801A7010E94AE131F910F91FF90EF90B7
:102800000895CF92DF92EF92FF920F931F936C0186
:102810007B019A010027F7FC0095102FB801A70152
:102820000E94AE138C01C6010E94ED12080F191F01
:10283000C8011F910F91FF90EF90DF90CF90089506
:102840000E940D1308957F928F929F92AF92BF9234
:10285000CF92DF92EF92FF920F931F93CF93DF936C
:102860004C017A018B01722ECB01BA01A8019701AC
:102870000E94E217882321F0C40160E671E021C0C4
:10288000C0E0D0E057016801E894D7F8C601B5016F
:102890002FEF3FEF4FE75FE70E94E217882351F4E5
:1028A000C601B5012FEF3FEF4FE75FE70E94DE154E
:1028B000181614F0C1E0D0E0219739F0C40164E6A5
:1028C00071E00E940D13EC0193C0C801B7012FEF16
:1028D0003FEF4FE75FE40E942D17181654F0C80130
:1028E000B7012FEF3FEF4FE75FEC0E94DE15882323
:1028F00024F4C40168E671E0E4CFC801B70120E028
:1029000030E040E050E00E94DE1587FD03C0C0E0EB
:10291000D0E00EC0D401ED91FC910190F081E02D4A
:10292000C4016DE20995EC0117FB109517F910959C
:1029300020E030E040E05FE3DD240BC0CA01B901D4
:1029400020E030E040E251E40E94E2159B01AC013E
:10295000D394D71498F3C801B7010E947A155B018C
:102960006C010E944F167B018C01C401B801A701C4
:102970002AE030E00E948D13C80FD91F772039F06C
:10298000C4016CE671E00E940D13C80FD91FC80185
:10299000B7010E947B169B01AC01C601B5010E94E4
:1029A000791524C020E030E040E251E40E94311764
:1029B0007B018C010E944A165B016C01CC24B7FCA0
:1029C000C094DC2CC401B601A5012AE030E00E94CD
:1029D000AE13C80FD91FC601B5010E947D169B0119
:1029E000AC01C801B7010E9479157A947720D1F61D
:1029F000CE01DF91CF911F910F91FF90EF90DF906B
:102A0000CF90BF90AF909F908F907F9008950E943D
:102A100023140895EF92FF920F931F937C010E945D
:102A200023148C01C7010E94ED12080F191FC80161
:102A30001F910F91FF90EF900895EF92FF920F93E7
:102A40001F937C010E940D138C01C7010E94ED129F
:102A5000080F191FC8011F910F91FF90EF90089563
:102A60002F923F924F925F926F927F928F929F929E
:102A7000AF92BF92CF92DF92EF92FF920F931F938C
:102A8000DF93CF93CDB7DEB73B014C0119012A018B
:102A90006D897E898F89988D6A197B098C099D09BA
:102AA000621A730A840A950AA40193010E94FD1711
:102AB000E218F30804091509A80197010E9471188A
:102AC0002A0D3B1D4C1D5D1DB901CA01CF91DF913F
:102AD0001F910F91FF90EF90DF90CF90BF90AF903C
:102AE0009F908F907F906F905F904F903F902F902E
:102AF00008955058BB27AA270ED075C166D130F073
:102B00006BD120F031F49F3F11F41EF45BC10EF441
:102B1000E095E7FB51C1E92F77D180F3BA1762073F
:102B200073078407950718F071F49EF58FC10EF4B2
:102B3000E0950B2EBA2FA02D0B01B90190010C01CD
:102B4000CA01A0011124FF27591B99F0593F50F4E5
:102B5000503E68F11A16F040A22F232F342F44273D
:102B6000585FF3CF469537952795A795F040539535
:102B7000C9F77EF41F16BA0B620B730B840BBAF005
:102B80009150A1F0FF0FBB1F661F771F881FC2F770
:102B90000EC0BA0F621F731F841F48F48795779584
:102BA0006795B795F7959E3F08F0B3CF9395880F3B
:102BB00008F09927EE0F979587950895D9D008F4D6
:102BC00081E008950CD00FC107D140F0FED030F065
:102BD00021F45F3F19F0F0C0511139C1F3C014D195
:102BE00098F39923C9F35523B1F3951B550BBB27D4
:102BF000AA2762177307840738F09F5F5F4F220F81
:102C0000331F441FAA1FA9F333D00E2E3AF0E0E879
:102C100030D091505040E695001CCAF729D0FE2FC5
:102C200027D0660F771F881FBB1F26173707480757
:102C3000AB07B0E809F0BB0B802DBF01FF2793580D
:102C40005F4F2AF09E3F510568F0B6C000C15F3F5C
:102C5000ECF3983EDCF3869577956795B795F795F5
:102C60009F5FC9F7880F911D9695879597F90895ED
:102C7000E1E0660F771F881FBB1F62177307840789
:102C8000BA0720F0621B730B840BBA0BEE1F88F798
:102C9000E095089504D06894B111D9C00895BCD0CE
:102CA00088F09F5790F0B92F9927B751A0F0D1F035
:102CB000660F771F881F991F1AF0BA95C9F712C0BF
:102CC000B13081F0C3D0B1E00895C0C0672F782F34
:102CD0008827B85F39F0B93FCCF38695779567952B
:102CE000B395D9F73EF490958095709561957F4F97
:102CF0008F4F9F4F0895E89409C097FB3EF490953D
:102D00008095709561957F4F8F4F9F4F9923A9F0C4
:102D1000F92F96E9BB279395F69587957795679553
:102D2000B795F111F8CFFAF4BB0F11F460FF1BC097
:102D30006F5F7F4F8F4F9F4F16C0882311F096E92A
:102D400011C0772321F09EE8872F762F05C06623D8
:102D500071F096E8862F70E060E02AF09A95660F91
:102D6000771F881FDAF7880F9695879597F908954A
:102D7000990F0008550FAA0BE0E8FEEF161617068C
:102D8000E807F907C0F012161306E407F50798F0F4
:102D9000621B730B840B950B39F40A2661F0232B0D
:102DA000242B252B21F408950A2609F4A140A69589
:102DB0008FEF811D811D089597F99F6780E870E06E
:102DC00060E008959FEF80EC089500240A941616A1
:102DD000170618060906089500240A941216130609
:102DE000140605060895092E0394000C11F4882397
:102DF00052F0BB0F40F4BF2B11F460FF04C06F5FB3
:102E00007F4F8F4F9F4F089557FD9058440F551F88
:102E100059F05F3F71F04795880F97FB991F61F05C
:102E20009F3F79F087950895121613061406551FD3
:102E3000F2CF4695F1DF08C0161617061806991F3F
:102E4000F1CF86957105610508940895E894BB2734
:102E500066277727CB0197F908958ADF08F48FEF6B
:102E600008950BD0C0CFB1DF28F0B6DF18F095235E
:102E700009F0A2CFA7CF1124EACFC6DFA0F3959F18
:102E8000D1F3950F50E0551F629FF001729FBB2751
:102E9000F00DB11D639FAA27F00DB11DAA1F649FFD
:102EA0006627B00DA11D661F829F2227B00DA11DB0
:102EB000621F739FB00DA11D621F839FA00D611D36
:102EC000221F749F3327A00D611D231F849F600D57
:102ED000211D822F762F6A2F11249F5750408AF090
:102EE000E1F088234AF0EE0FFF1FBB1F661F771F1C
:102EF000881F91505040A9F79E3F510570F05CCF5C
:102F0000A6CF5F3FECF3983EDCF386957795679507
:102F1000B795F795E7959F5FC1F7FE2B880F911D39
:102F20009695879597F9089511F40EF44BCF4EC0FE
:102F300073DFD0F39923D9F3CEF39F57550B87FF57
:102F400055D056959795B0E020F4660F771F881FEF
:102F5000BB1F1F930F9300249001A0018001F0017B
:102F6000A0E80E0F1F1F0A1E511D601B710B800968
:102F7000B50B48F4600F711F801DB51F0E1B1F0B92
:102F80000A0A510907C02E0F3F1F4A1F0E0F1F1FAD
:102F90000A1E511D660F771F881FBB1FA695F79548
:102FA000E795F8F60617170708065B07211D311D80
:102FB000411D0F911F91B901842F9158880F96954B
:102FC00087950895D5DE880B990B08959F3F49F0AA
:102FD000915028F4869577956795B7959F5F8038CF
:102FE0009F4F880F9695879597F908959150504077
:102FF000660F771F881FD2F70895629FD001739FD5
:10300000F001829FE00DF11D649FE00DF11D929F84
:10301000F00D839FF00D749FF00D659FF00D9927C3
:10302000729FB00DE11DF91F639FB00DE11DF91FE7
:10303000BD01CF0111240895991B79E004C0991FA7
:10304000961708F0961B881F7A95C9F78095089502
:10305000AA1BBB1B51E107C0AA1FBB1FA617B707BE
:1030600010F0A61BB70B881F991F5A95A9F78095DA
:103070009095BC01CD01089597FB092E07260AD033
:1030800077FD04D0E5DF06D000201AF47095619535
:103090007F4F0895F6F7909581959F4F0895A1E28F
:1030A0001A2EAA1BBB1BFD010DC0AA1FBB1FEE1FC2
:1030B000FF1FA217B307E407F50720F0A21BB30B0D
:1030C000E40BF50B661F771F881F991F1A9469F789
:1030D00060957095809590959B01AC01BD01CF01E5
:1030E000089597FB092E05260ED057FD04D0D7DF93
:1030F0000AD0001C38F450954095309521953F4FEB
:103100004F4F5F4F0895F6F79095809570956195B4
:103110007F4F8F4F9F4F0895EE0FFF1F0590F49143
:10312000E02D0994911106C0803219F08950855024
:10313000D0F708959927882708952F923F924F92AC
:103140005F926F927F928F929F92AF92BF92CF9237
:10315000DF92EF92FF920F931F93CF93DF93CDB740
:10316000DEB7CA1BDB0B0FB6F894DEBF0FBECDBFB8
:1031700009942A88398848885F846E847D848C8489
:103180009B84AA84B984C884DF80EE80FD800C8192
:103190001B81AA81B981CE0FD11D0FB6F894DEBF75
:0C31A0000FBECDBFED010895F894FFCFE5
:1031AC005350494445520073657420746F20646514
:1031BC006661756C742073657475700020006D6F9A
:1031CC00746F724144697220006D6F746F42446970
:1031DC0072200048616E6720005769647468200093
:1031EC0053776974636820004D3130204D5350493A
:1031FC00444552200041002042002053004F4B0018
:10320C006E616E00696E66006F7666002E0090012E
:10321C00B80BFFFF0B0A03090C0D0802FFFF10117E
:10322C00140F150E0607050400000000950D640D23
:10323C001D0D260D3B0D4C0D00000000B411BB12F2
:08324C00571173116311911178
:00000001FF
