:100000000C9483000C94AB000C94AB000C940D1179
:100010000C9431110C9455110C94AB000C94AB0062
:100020000C94AB000C94AB000C94AB000C946A0DD8
:100030000C94AB000C94AB000C94AB000C94AB0094
:100040000C94EB070C94AB000C94200C0C94630CF8
:100050000C94AB000C94AB000C94AB000C94AB0074
:100060000C9441120C94AB00000000070002010048
:100070000003040600000000000000000102040864
:100080001020408001020408102001020408102002
:10009000040404040404040402020202020203032E
:1000A00003030303000000002300260029000000D2
:1000B0000000250028002B0000000000240027007D
:1000C0002A004E414E494E495459494E46CDCCCC5A
:1000D0003D0AD7233C17B7D13877CC2B329595E61C
:1000E000241FB14F0A000020410000C84200401CFC
:1000F0004620BCBE4CCA1B0E5AAEC59D7400760786
:10010000280DFB0F141211241FBECFEFD8E0DEBF65
:10011000CDBF11E0A0E0B1E0E8E8F1E302C0059056
:100120000D92AC3BB107D9F715E0ACEBB1E001C0E3
:100130001D92AA38B107E1F710E0C3E8D0E004C08F
:100140002197FE010E94BC18CF37D107C9F70E9442
:10015000730B0C9490130C9400001816190614F4E9
:1001600060E001C061E080E292E00E94700F61E017
:1001700080E292E00E94800F60E080E292E00C94C6
:10018000800F1816190614F460E001C061E08CE1DC
:1001900092E00E94700F61E08CE192E00E94800F7B
:1001A00060E08CE192E00C94800F2F923F924F928E
:1001B0005F926F927F928F929F92AF92BF92CF92F7
:1001C000DF92EF92FF920F931F93CF93DF93CDB700
:1001D000DEB72D970FB6F894DEBF0FBECDBF4090AF
:1001E00004015090050120902C0230902D02809146
:1001F000340290913502281A390A20912802309150
:1002000029028091300290913102A901481B590BBB
:100210005D874C877A0157FF03C0F194E194F108A0
:10022000610137FE04C0CC24DD24C218D308860146
:10023000CE14DF040CF48701B801882777FD809580
:10024000982F0E94D4144B015C01B601882777FDDA
:100250008095982F0E94D414A50194010E9439140E
:100260006C837D838E839F83B701882777FD80957C
:10027000982F0E94D414A50194010E943914688714
:1002800079878A879B87612C712C812C912C540152
:10029000750164018FEF9FEF9B838A8380912C020D
:1002A00090912D02A0912E02B0912F02601671063E
:1002B0000CF0FAC040913402509135026091360240
:1002C00070913702481759076A077B0709F44FC036
:1002D0002C813D814E815F81C701B6010E94D113FF
:1002E0006B017C0120E030E040E85FE30E94841570
:1002F00087FD3DC01214130424F4909127029983C2
:1003000003C0E0912602E983F9818F2F992787FDA9
:10031000909520915A02222319F00E94AD0002C04C
:100320000E94C10020E030E040E85FE3C701B60171
:100330000E94D0136B017C012981822F992787FDB0
:100340009095A92FB92F40913402509135026091B8
:10035000360270913702840F951FA61FB71F809336
:10036000340290933502A0933602B0933702409145
:1003700030025091310260913202709133028091CB
:10038000280290912902A0912A02B0912B024817CD
:1003900059076A077B0709F451C0288539854A85C2
:1003A0005B85C501B4010E94D1134B015C0120E0C3
:1003B00030E040E85FE30E94841587FD3FC04C8534
:1003C0005D851416150624F450912502598303C047
:1003D000809124028983E9818E2F992787FD90954A
:1003E00020915A02222319F00E94C10002C00E94EB
:1003F000AD0020E030E040E85FE3C501B4010E94B9
:10040000D0134B015C01F9818F2F992787FD9095BF
:10041000A92FB92F409130025091310260913202E0
:1004200070913302840F951FA61FB71F809330026F
:1004300090933102A0933202B09333024A815B81E0
:10044000440D551D809106019091070148175907E9
:100450004CF02091040130910501CA0124173507A1
:100460000CF4C9014091FD015091FE012C01440E94
:10047000551EC2010E94350880910401909105012A
:100480002091060130910701821B930B98012619D8
:1004900037092817390724F441E050E05B834A8389
:1004A0005FEF651A750AFACE809334029093350295
:1004B000A0933602B09337028091280290912902CE
:1004C000A0912A02B0912B028093300290933102C6
:1004D000A0933202B09333022D960FB6F894DEBF8C
:1004E0000FBECDBFDF91CF911F910F91FF90EF9085
:1004F000DF90CF90BF90AF909F908F907F906F9044
:100500005F904F903F902F9008954F925F926F921F
:100510007F928F929F92AF92BF92CF92DF92EF9293
:10052000FF92CF93DF9300D000D0CDB7DEB7C0905D
:100530004002D0904102E0904202F09043022091AC
:1005400048023091490240914A0250914B02C70142
:10055000B6010E94D0132B013C0180913C02909186
:100560003D02A0913E02B0913F0289839A83AB8302
:10057000BC83209144023091450240914602509143
:100580004702BC01CD010E94D0134B015C01A301C5
:100590009201C301B2010E9488152B013C01A50103
:1005A0009401C501B4010E9488159B01AC01C301EF
:1005B000B2010E94D1130E94EF152FE632E143E809
:1005C0005AE30E94351487FD48C026EF38E24FEA0F
:1005D00052E4C701B6010E9488150E94A1146093DD
:1005E0002C0270932D0280932E0290932F0226EFFF
:1005F00038E24FEA52E469817A818B819C810E94C2
:1006000088150E94A1146093280270932902809398
:100610002A0290932B020E94D50080914002909173
:100620004102A0914202B09143028093480290930C
:100630004902A0934A02B0934B0280913C029091F0
:100640003D02A0913E02B0913F02809344029093FC
:100650004502A0934602B09347020F900F900F906F
:100660000F90DF91CF91FF90EF90DF90CF90BF90F0
:10067000AF909F908F907F906F905F904F90089574
:10068000809114020E940F09019739F5809116029A
:100690000E940F09019709F580912502992787FD8E
:1006A00090950E94C10080910601909107010E94DF
:1006B0003508E6CF80910E020E940F09019799F448
:1006C00080912702992787FD90950E94AD00809127
:1006D0000601909107010E94350880910C020E944A
:1006E0000F09019739F310923402109235021092DB
:1006F000360210923702109230021092310210929C
:100700003202109233021092480210924902109263
:100710004A0210924B02109244021092450210922B
:100720004602109247020895109248021092490220
:1007300010924A0210924B0210924402109245020B
:100740001092460210924702109234021092350223
:10075000109236021092370210923002109231023B
:10076000109232021092330208950F931F93CF9389
:10077000DF9300D0CDB7DEB7AE014F5F5F4F64E3CC
:1007800071E00E94A1138C0180914802909149026E
:10079000A0914A02B0914B02809340029093410293
:1007A000A0934202B093430280914402909145028B
:1007B000A0914602B091470280933C0290933D0283
:1007C000A0933E02B0933F02012B09F45AC0AE0140
:1007D0004F5F5F4F64E371E080E090E00E94A113FF
:1007E0008C01FC018081883569F4C80101960E9462
:1007F0006E13609340027093410280934202909383
:100800004302E2CF893569F4C80101960E946E1354
:1008100060933C0270933D0280933E0290933F02AE
:10082000D3CF8A3569F4C80101960E946E13609394
:1008300038027093390280933A0290933B02C4CFFE
:10084000863499F4C80101960E946E1320E030E0CE
:1008500040E752E40E94391460934C0270934D02B9
:1008600080934E0290934F02AFCF813409F0ACCF0A
:10087000C80101960E9472139093FE018093FD01BE
:10088000A3CF0E9485020F900F90DF91CF911F910F
:100890000F910895CF93DF936EE171E089E992E0C3
:1008A0000E947509C0E5D2E06D857E854AE050E082
:1008B00089E992E00E94440A60E289E992E00E949C
:1008C00077096B857C854AE050E089E992E00E94D7
:1008D000440A60E289E992E00E9477094091480267
:1008E0005091490260914A0270914B0222E030E03F
:1008F00089E992E00E945E0B60E289E992E00E9441
:1009000077094091440250914502609146027091EE
:10091000470222E030E089E992E00E945E0B60E24B
:1009200089E992E00E94770966E271E089E992E044
:100930000E947509688570E04AE050E089E992E01C
:100940000E94440A68E271E089E992E00E94750918
:10095000698570E04AE050E089E992E00E94440A2B
:100960006BE271E089E992E00E9475096A85772758
:1009700067FD70954AE050E089E992E00E94440AE0
:100980006EE271E089E992E00E9475096F857889CD
:100990004AE050E089E992E0DF91CF910C944C0A53
:1009A00061E371E089E992E00E94750980910E028D
:1009B0000E940F094AE050E0BC0189E992E00E94E0
:1009C000440A64E371E089E992E00E94750980912C
:1009D0000C020E940F094AE050E0BC0189E992E054
:1009E0000E94440A64E371E089E992E00E9475097B
:1009F000809116020E940F094AE050E0BC0189E98B
:100A000092E00E94440A64E371E089E992E00E9466
:100A10007509809114020E940F094AE050E0BC0160
:100A200089E992E00C944C0A0F931F93CF93DF93C4
:100A300000E512E0C0E0D0E0F80141918F01BE0175
:100A400083E493E00E94660D2196C034D105A1F79E
:100A5000DF91CF911F910F9108950F931F93CF9323
:100A6000DF9300D0CDB7DEB7AE014F5F5F4F64E3D9
:100A700071E00E94A1138C01012B09F490C0AE011A
:100A80004F5F5F4F64E371E080E090E00E94A1134C
:100A90008C01FC018081813489F4C80101960E9497
:100AA00072138093580266E371E089E992E00E9434
:100AB00075094AE050E06091580212C08234A9F4EE
:100AC000C80101960E9472138093590261E471E09B
:100AD00089E992E00E9475094AE050E0609159026C
:100AE00089E992E00E94710AC7CF883499F4C8015D
:100AF00001960E94721390935C0280935B026BE4F8
:100B000071E089E992E00E94750960915B02709141
:100B10005C023EC0873599F4C80101960E947213A9
:100B200090935E0280935D0263E571E089E992E053
:100B30000E94750960915D0270915E0229C0833543
:100B400091F4C80101960E94721380935A026AE5DB
:100B500071E089E992E00E94750960915A02772755
:100B600067FD709515C0843409F086CFC8010196E1
:100B70000E9472139093600280935F0262E671E0BC
:100B800089E992E00E94750960915F0270916002AC
:100B90004AE050E089E992E00E94440A6DCF0E9449
:100BA00014050F900F90DF91CF911F910F91089531
:100BB000CF93DF9300D0CDB7DEB7AE014F5F5F4F6D
:100BC00064E371E00E94A11389819A810E947213EB
:100BD0009093FE018093FD010F900F90DF91CF91D4
:100BE0000895CF93DF9300D0CDB7DEB7AE014F5F4E
:100BF0005F4F64E371E00E94A11389819A810E9492
:100C00007213BC0188E092E00E94A90F0F900F9030
:100C1000DF91CF910895CF93DF9300D0CDB7DEB7AA
:100C2000AE014F5F5F4F64E371E00E94A1138981C1
:100C30009A810E947213BC018FEF91E00E94040F11
:100C40000F900F90DF91CF910895CF93DF93EC0138
:100C50000E94721384309105E9F054F481309105BB
:100C6000A1F0039721F5CE01DF91CF910C94D80527
:100C70008A309105A1F08B309105A9F00597B9F460
:100C8000CE01DF91CF910C942D05CE01DF91CF9154
:100C90000C940B06CE01DF91CF910C94F105DF91FE
:100CA000CF910C944A04DF91CF910C94D004DF9142
:100CB000CF910895CF93DF93EC010E94721397FDBB
:100CC0001EC082309105B4F04C97C9F410924002D6
:100CD00010924102109242021092430210923C0282
:100CE00010923D0210923E0210923F02DF91CF918E
:100CF0000C944003CE01DF91CF910C94B503DF91AA
:100D0000CF910895FC019081973429F4CF01019689
:100D10000E945A0631C09D3429F4CF0101960E94E9
:100D200025062AC0903541F569E671E089E992E02F
:100D30000E947509409148025091490260914A020F
:100D400070914B0222E030E089E992E00E945E0B54
:100D50006FE671E089E992E00E94750940914402D2
:100D600050914502609146027091470222E030E0C6
:100D700089E992E00E94600B62E771E089E992E004
:100D80000C9492090F931F93CF93DF9300E512E029
:100D9000C0E0D0E0BE0183E493E00E94630DD8017F
:100DA0008D938D012196C034D105A1F743E050E029
:100DB00065E771E080E592E00E949313892B79F159
:100DC00069E771E089E992E00E94920980E4E0E538
:100DD000F2E0DF011D928A95E9F788E599E5A3E342
:100DE0008093500290935102A093520281E080932D
:100DF0005802809359028CE791E090935E028093B1
:100E00005D0286E391E090935C0280935B0280E553
:100E100090E09093600280935F020E94140580919D
:100E20005802811105C081E0809327028FEF04C032
:100E30008FEF8093270281E08093260280915902F0
:100E4000811105C081E0809325028FEF04C08FEFF0
:100E50008093250281E08093240220915F023091EB
:100E6000600284E690E0821B930B4AE0489F900169
:100E7000499F300D1124309307012093060144E669
:100E8000489F9001499F300D112430930501209314
:100E90000401DF91CF911F910F91089562E080913D
:100EA00016020E94A30862E0809114020E94A30827
:100EB00062E080910E020E94A30862E080910C0221
:100EC0000E94A30840E052EC61E070E089E992E002
:100ED0000E949E0C0E94C2060E949403609102022E
:100EE000709103028FEF91E00C94C90E61E080E2F3
:100EF00092E00E94600F62E08CE192E00E94600F3D
:100F000063E088E192E00E94600F88E192E00E9435
:100F1000940F90E0909317028093160288E192E07C
:100F20000E94970F90E0909315028093140266E060
:100F300080E192E00E94600F80E192E00E94940FB5
:100F400090E090930F0280930E0280E192E00E9465
:100F5000970F90E090930D0280930C026AE088E076
:100F600092E00E949A0F67E084E092E00E94600F96
:100F700084E092E00E94970F90E0909303028093A8
:100F800002028FEF91E00C942B0E89E992E00E940F
:100F9000820B892BF9F089E992E00E94B20BE09173
:100FA000BC0191E09E0F9093BC01FF27E7FDF095F7
:100FB000E354FE4F80838A3069F48DEB91E00E9408
:100FC000820680E4EDEBF1E0DF011D928A95E9F7FE
:100FD0001092BC0108951F920F920FB60F92112428
:100FE0002F933F938F939F93AF93BF9380919102E1
:100FF00090919202A0919302B0919402309190024C
:1010000023E0230F2D3720F40196A11DB11D05C04B
:1010100026E8230F0296A11DB11D20939002809314
:10102000910290939202A0939302B09394028091C4
:10103000950290919602A0919702B0919802019624
:10104000A11DB11D8093950290939602A0939702E3
:10105000B0939802BF91AF919F918F913F912F9143
:101060000F900FBE0F901F901895019739F0880FC1
:10107000991F880F991F02970197F1F708957894A7
:1010800084B5826084BD84B5816084BD85B582608D
:1010900085BD85B5816085BDEEE6F0E0808181602B
:1010A0008083E1E8F0E0108280818260808380812B
:1010B00081608083E0E8F0E0808181608083E1EB03
:1010C000F0E0808184608083E0EBF0E080818160EB
:1010D0008083EAE7F0E080818460808380818260A1
:1010E000808380818160808380818068808310928A
:1010F000C1000895833081F028F4813099F0823066
:10110000A1F008958630A9F08730B9F08430D1F489
:10111000809180008F7D03C0809180008F778093C5
:101120008000089584B58F7702C084B58F7D84BD1B
:1011300008958091B0008F7703C08091B0008F7DBB
:101140008093B0000895CF93DF9390E0FC01E458C2
:10115000FF4F2491FC01E057FF4F8491882361F1F8
:1011600090E0880F991FFC01E854FF4FC591D4917E
:10117000FC01E255FF4FA591B491611109C09FB7E1
:10118000F8948881209582238883EC912E230BC0CC
:10119000623061F49FB7F8943881822F8095832361
:1011A0008883EC912E2B2C939FBF06C08FB7F894A9
:1011B000E8812E2B28838FBFDF91CF9108951F9355
:1011C000CF93DF93282F30E0F901E859FF4F849146
:1011D000F901E458FF4FD491F901E057FF4FC49152
:1011E000CC23C9F0162F81110E947A08EC2FF0E071
:1011F000EE0FFF1FE255FF4FA591B4918FB7F89402
:10120000111105C09C91ED2FE095E92302C0EC91EE
:10121000ED2BEC938FBFDF91CF911F910895CF936A
:10122000DF93282F30E0F901E859FF4F8491F9014D
:10123000E458FF4FD491F901E057FF4FC491CC23FC
:1012400091F081110E947A08EC2FF0E0EE0FFF1F61
:10125000EC55FF4FA591B491EC91ED2381E090E026
:1012600021F480E002C080E090E0DF91CF9108950A
:10127000CF92DF92EF92FF920F931F93CF93DF9362
:101280006C01EB017B01E40EF51E00E010E0CE15D1
:10129000DF0561F06991D601ED91FC910190F0813B
:1012A000E02DC6010995080F191FF1CFC801DF9184
:1012B000CF911F910F91FF90EF90DF90CF90089505
:1012C0006115710579F0FB0101900020E9F7319774
:1012D000AF01461B570BDC01ED91FC910280F381BD
:1012E000E02D099480E090E008950C946009DC0101
:1012F000ED91FC910190F081E02D09940F931F93E3
:10130000CF93DF93EC016DE00E9477098C016AE0D6
:10131000CE010E947709800F911FDF91CF911F911D
:101320000F9108950F931F93CF93DF93EC010E94C9
:1013300060098C01CE010E947E09800F911FDF9110
:10134000CF911F910F9108958F929F92AF92BF926C
:10135000CF92DF92EF92FF920F931F93CF93DF9381
:10136000CDB7DEB7A1970FB6F894DEBF0FBECDBFE5
:101370006C01142FE52FCB01022F19A2223008F4A3
:101380000AE07E0121E2E20EF11C802E912CA12CBC
:10139000B12C612F7E2FA50194010E944418029F59
:1013A0001019112481E0E81AF1081A3014F4105DC4
:1013B00001C0195CF7011083122FE32FCA01232B00
:1013C000242B252B31F7B701C6010E946009A19695
:1013D0000FB6F894DEBF0FBECDBFDF91CF911F9146
:1013E0000F91FF90EF90DF90CF90BF90AF909F90C4
:1013F0008F900895CF92DF92EF92FF920F931F93F9
:10140000CF93DF93EC016A017B012115310579F45B
:10141000E881F9810190F081E02D642FDF91CF9177
:101420001F910F91FF90EF90DF90CF9009942A3099
:101430003105E9F477FF1AC06DE20E9477098C014B
:1014400044275527BA014C195D096E097F092AE026
:10145000CE010E94A409800F911FDF91CF911F91AF
:101460000F91FF90EF90DF90CF9008952AE0B701A1
:10147000A601CE01DF91CF911F910F91FF90EF90C8
:10148000DF90CF900C94A4099A01AB01662757FD19
:101490006095762F0C94FA090F931F93CF93DF93E7
:1014A000EC019A01AB01662757FD6095762F0E94EB
:1014B000FA098C01CE010E947E09800F911FDF91F5
:1014C000CF911F910F9108952115310541F4DC0151
:1014D000ED91FC910190F081E02D642F09940C9422
:1014E000A4099A01462F50E060E070E00C94640A71
:1014F0004F925F926F927F928F929F92AF92BF9224
:10150000CF92DF92EF92FF92CF93DF93EC016A01CB
:101510007B01B22E9A01AB01C701B6010E942D16C4
:10152000882319F06EE871E027C026013701E8949E
:1015300077F82FEF3FEF4FE75FE7C301B2010E945B
:101540002D1681110DC02FEF3FEF4FE75FE7C3016D
:10155000B2010E94351418161CF462E971E00CC047
:101560002FEF3FEF4FE75FE4C701B6010E948415FC
:1015700018169CF466E971E0CE01DF91CF91FF90DF
:10158000EF90DF90CF90BF90AF909F908F907F9023
:101590006F905F904F900C9460092FEF3FEF4FE7F3
:1015A0005FECC701B6010E94351487FDE3CF20E050
:1015B00030E0A901C701B6010E94351487FF0AC0B7
:1015C0006DE2CE010E9477094C01F7FAF094F7F82A
:1015D000F09402C0812C912CA12C60E070E080E09E
:1015E0009FE3AB1441F020E030E040E251E40E9480
:1015F0003914A394F6CF9B01AC01C701B6010E9438
:10160000D1132B013C010E94A6146B017C010E94A6
:10161000D2149B01AC01C301B2010E94D0132B0173
:101620003C012AE0B701A601CE010E94A4097C0179
:10163000E80CF91CBB2039F06AE971E0CE010E9488
:101640006009E80EF91EDB2CDD2041F120E030E0DE
:1016500040E251E4C301B2010E9488152B013C0114
:101660000E94A1144B01AA2497FCA094BA2C2AE052
:1016700030E0B501A401CE010E94FA09E80EF91E7E
:10168000C501B4010E94D4149B01AC01C301B20195
:101690000E94D0132B013C01DA94D6CFC701DF9111
:1016A000CF91FF90EF90DF90CF90BF90AF909F9041
:1016B0008F907F906F905F904F9008950C94780A70
:1016C0000F931F93CF93DF93EC010E94780A8C0154
:1016D000CE010E947E09800F911FDF91CF911F9153
:1016E0000F91089508950E943F080E94720B0E9476
:1016F0004E07CAE5DCE00E94C5072097E1F30E948F
:101700005A0CF9CFFC0124853585F901E05CFF4FC7
:1017100080819181329620813181805C9F4F821B34
:10172000930B60E470E00E9430180895DC011C9671
:10173000ED91FC911D97DF01A05CBF4F2D913C9175
:10174000119712968D919C9111972817390739F0AE
:101750008D919C91E80FF91F808190E008958FEFA3
:101760009FEF0895FC01A485B585FD01E05CFF4F66
:10177000208131813296808191812817390779F053
:1017800080819181A80FB91F8C91208131812F5FB9
:101790003F4F2F7333273183208390E008958FEFDD
:1017A0009FEF0895FC0181A1882329F0A489B589C0
:1017B0008C9186FFFBCF11A208950F931F93CF93B7
:1017C000DF93FC01A685B7858D01005C1F4FE80102
:1017D0008881998101968F739927AD014E5B5F4F88
:1017E000EA012881398182179307D1F3E801288122
:1017F0003981A20FB31F6C93A685B785A05CBF4F3C
:1018000011969C938E93A689B7892C9181E090E0E4
:10181000078C02C0880F991F0A94E2F7822B8C93E1
:1018200081E081A30488F589E02D80818064808334
:1018300081E090E0DF91CF911F910F91089508957D
:101840001F920F920FB60F9211242F934F935F9315
:101850008F939F93EF93FF938091C00082FD1CC0F4
:101860002091C60080913F039091400301968F73B1
:10187000992740914103509142038417950771F0D5
:10188000E0913F03F0914003E150FD4F208390939E
:10189000400380933F0302C08091C600FF91EF9107
:1018A0009F918F915F914F912F910F900FBE0F904D
:1018B0001F90189589E992E00E94820B892B11F004
:1018C0000C941F0C08951F920F920FB60F921124C3
:1018D0002F933F938F939F93EF93FF932091FB025E
:1018E0003091FC028091FD029091FE022817390789
:1018F00031F48091C1008F7D8093C10014C0E091CC
:10190000FD02F091FE02E554FD4F20818091FD0221
:101910009091FE0201968F7399279093FE02809317
:10192000FD022093C600FF91EF919F918F913F910F
:101930002F910F900FBE0F901F901895CF92DF92AE
:10194000EF92FF920F931F93CF93DF93EC016A0105
:101950007B01411581EE58076105710511F1EC8994
:10196000FD8981E090E008A002C0880F991F0A94C9
:10197000E2F7808360E079E08DE390E0A7019601D3
:101980000E94441889019A01015011092109310965
:1019900036952795179507959801011580E1180749
:1019A000A8F0EC89FD89108260E874E88EE190E08F
:1019B000A70196010E944418DA01C9010197A10903
:1019C000B109B695A795979587959C01E889F989FE
:1019D0003083EA89FB89208319A2EE89FF8940813F
:1019E00081E090E09C010C8C02C0220F331F0A940E
:1019F000E2F7242B2083EE89FF8940819C010D8C26
:101A000002C0220F331F0A94E2F7242B2083EE89B1
:101A1000FF8940819C010E8C02C0220F331F0A9463
:101A2000E2F7242B2083EE89FF8920810F8C02C0EE
:101A3000880F991F0A94E2F7809582238083DF91B3
:101A4000CF911F910F91FF90EF90DF90CF9008956D
:101A5000E9E9F2E01382128288EE93E0A0E0B0E0C0
:101A600084839583A683B78380EA91E09183808302
:101A70008FEF92E0958784878BEB92E0978786873C
:101A800085EC90E0918B808B84EC90E0938B828B43
:101A900080EC90E0958B848B81EC90E0978B868B2B
:101AA00082EC90E0918F808F86EC90E0938F828F14
:101AB00084E0848F83E0858F87E0868F85E0878F41
:101AC00081E080A30895CB010C943116CB01642FE3
:101AD0000C9439161F920F920FB60F9211242F9368
:101AE0003F934F935F936F937F938F939F93AF93A6
:101AF000BF93EF93FF938091450387FF05C010923A
:101B00008500109284001BC020914503332727FDD8
:101B100030958091440390E02817390784F4809130
:101B20004503992787FD9095FC01EE0FFF1F8E0F4F
:101B30009F1FFC01EA5BFC4F808186FD15C08091F0
:101B400045038F5F8093450320914503332727FD8D
:101B500030958091440390E028173907C4F48091B0
:101B600045038C3064F113C080914503992787FDAC
:101B70009095FC01EE0FFF1F8E0F9F1FFC01EA5B8B
:101B8000FC4F808160E08F730E94DF08D8CF809186
:101B9000840090918500049680349C4918F480E478
:101BA0009CE905C0809184009091850004969093F3
:101BB0008900809388008FEF809345033BC020917C
:101BC00084003091850080914503992787FD909589
:101BD000FC01EE0FFF1F8E0F9F1FFC01EA5BFC4F05
:101BE00081819281820F931F909389008093880056
:101BF00080914503992787FD9095FC01EE0FFF1F0B
:101C00008E0F9F1FFC01EA5BFC4F808186FF12C094
:101C100080914503992787FD9095FC01EE0FFF1FEA
:101C20008E0F9F1FFC01EA5BFC4F808161E08F7388
:101C30000E94DF08FF91EF91BF91AF919F918F912B
:101C40007F916F915F914F913F912F910F900FBEB8
:101C50000F901F901895FC01909144039C30A0F4C4
:101C600081E0890F809344039083892F90E0FC01E9
:101C7000EE0FFF1F8E0F9F1FFC01EA5BFC4F88EBEE
:101C80009BE09283818308958FEF80830895DF9294
:101C9000EF92FF920F931F93CF93DF93EC01D62E19
:101CA0007A01890188818C3008F06AC061E08D2D4D
:101CB0000E94A3088881E82FF0E09F01220F331FC4
:101CC000E20FF31FEA5BFC4F9D2D9F732081207C68
:101CD000D22ED92AD08260E272E0AB014E195F09A0
:101CE00057FF02C04D5F5F4F5595479555954795F6
:101CF000498340E659E09A01201B310B37FF02C0AF
:101D00002D5F3F4F35952795359527952A836CE0B4
:101D10000E9410189CE0899FB001112440E050E01F
:101D20009A01260F371FF901EE0FFF1F2E0F3F1FDD
:101D3000F901EA5BFC4F908196FD16C04F5F5F4F43
:101D40004C30510569F781110FC01092800082E07C
:101D5000809381001092850010928400B19A809146
:101D60006F00826080936F00E881F0E0CF01880F00
:101D7000991FE80FF91FEA5BFC4F80818064808324
:101D80008881DF91CF911F910F91FF90EF90DF90AD
:101D9000089520E639E040E252E00C94470EFC0141
:101DA00090819C3080F5818128E830E0281B310942
:101DB00087FD3395220F331F220F331F62177307DE
:101DC0007CF0828128E532E0281B310987FD3395BC
:101DD000220F331F220F331F621773070CF49B016E
:101DE0004FB7F894892F90E0FC01EE0FFF1F8E0F84
:101DF0009F1FFC01EA5BFC4F22503109220F331F69
:101E0000328321834FBF0895AF92BF92CF92DF926A
:101E1000EF92FF920F931F93CF93DF93EC01603209
:101E200082E078070CF03FC077FD06C0653B710586
:101E30002CF064EB70E002C060E070E0898128E87B
:101E400030E05901A81AB10887FDB394AA0CBB1C55
:101E5000AA0CBB1CCC24B7FCC094DC2C882777FDD3
:101E60008095982F2A8108E512E0021B110927FDB1
:101E70001395000F111F000F111F222717FD20952A
:101E8000322F3F932F931F930F9314EBE12EF12CDE
:101E900000E010E020E030E0A9010E945E100F9009
:101EA0000F900F900F90CE01DF91CF911F910F9166
:101EB000FF90EF90DF90CF90BF90AF900C94CF0E3B
:101EC000DC01E62FF0E0EE0FFF1FE85FFE4F8081A0
:101ED0008C93818111968C93119712966C9308952F
:101EE0001F93CF93DF93EC01162F61E088810E944E
:101EF000A308612F8881DF91CF911F910C94DF0897
:101F00001F93CF93DF93EC01162F61E089810E942C
:101F1000A308612F8981DF91CF911F910C94DF0875
:101F2000FC0180810C94FF0FFC0180810895FC016D
:101F3000818108950E94600F81E0809380008BE092
:101F40008093810083E08093B00084E08093B100AF
:101F500008950F931F93CF93DF938C016F3F71050B
:101F600019F014F06FEF70E0EB0161308FEF78073C
:101F700014F4C1E0DFEFD7FD06C061E0C8010E94A4
:101F8000800FBE0108C060E0C8010E94800F662774
:101F900077276C1B7D0BC801DF91CF911F910F91AB
:101FA0000C94900F21E030E0FC0131832083EE5F40
:101FB000FE4F108211821282138234961082118297
:101FC00012821382349610823196108231961082DA
:101FD00011821282138234961182108232961082FC
:101FE00031961082118212821382349610821182ED
:101FF0001282138208958AE693E00C94D20F1F9305
:10200000CF93DF93182FEB0161E00E94A308209784
:1020100011F460E004C0CF3FD10539F461E0812FB5
:10202000DF91CF911F910C94DF08E12FF0E0E85988
:10203000FF4FE491E330F9F048F4E130B9F0E230D9
:10204000A1F584B5806284BDC8BD34C0E630E9F036
:10205000E73019F1E43049F5809180008062809387
:102060008000D0938B00C0938A0024C084B5806820
:1020700084BDC7BD1FC080918000806880938000B0
:10208000D0938900C093880015C08091B00080680B
:102090008093B000C093B3000DC08091B000806207
:1020A0008093B000C093B40005C0C038D1050CF0D7
:1020B000B5CFAFCFDF91CF911F9108954F925F922F
:1020C0006F927F92AF92BF92CF92DF92EF92FF9288
:1020D0000F931F93CF93DF93CDB7DEB729013A015A
:1020E0009B01AC01241935094609570989899A8948
:1020F000AB89BC89BC01CD016A197B098C099D099A
:102100000E940018A80197012419350946095709AA
:102110000E946618CA01B9016A0D7B1D8C1D9D1DA8
:10212000DF91CF911F910F91FF90EF90DF90CF90B3
:10213000BF90AF907F906F905F904F90089520E098
:1021400001972FEF8F3F9207D9F70895EF92FF92F3
:102150000F931F93CF93DF93EC018B8DEE85FF855B
:102160009D8581FF04C08081982329F446C0808129
:10217000982309F042C08B899C890E949F1088E0B7
:10218000E82EF12C10E001E08D899E890E949F10BD
:10219000EE85FF8590818D85892311F0102B03C07A
:1021A000802F80951823000F81E0E81AF10861F76D
:1021B0008F89988D0E949F108B8D81FD1095809145
:1021C00086042091850490E001968F73992730E072
:1021D0008217930779F0E0918604F0E0E957FB4F0E
:1021E00010838091860490E001968F7399278093E5
:1021F000860403C08B8D81608B8FDF91CF911F91FF
:102200000F91FF90EF9008958091C7049091C804BA
:10221000009711F00C94A61008951F920F920FB61C
:102220000F9211242F933F934F935F936F937F935C
:102230008F939F93AF93BF93EF93FF930E940411EB
:10224000FF91EF91BF91AF919F918F917F916F918E
:102250005F914F913F912F910F900FBE0F901F9064
:1022600018951F920F920FB60F9211242F933F9340
:102270004F935F936F937F938F939F93AF93BF938E
:10228000EF93FF930E940411FF91EF91BF91AF91E3
:102290009F918F917F916F915F914F913F912F917E
:1022A0000F900FBE0F901F9018951F920F920FB6B0
:1022B0000F9211242F933F934F935F936F937F93CC
:1022C0008F939F93AF93BF93EF93FF930E9404115B
:1022D000FF91EF91BF91AF919F918F917F916F91FE
:1022E0005F914F913F912F910F900FBE0F901F90D4
:1022F00018958091F80490E02091F904821B9109CF
:1023000008959091F9048091F804981750F4E92FFA
:10231000F0E0E650FB4F208130E09F5F9093F9049E
:1023200002C02FEF3FEFC9010895E091F9048091B9
:10233000F804E81730F4F0E0E650FB4F808190E0BD
:1023400008958FEF9FEF08950895CF92DF92EF9257
:10235000FF920F931F93CF93DF937C01262F972F2C
:102360008A018091D504882391F0C62FD72F6E0162
:10237000C40ED51ECC15DD0571F06991D701ED9124
:10238000FC910190F081E02DC7010995F3CF642FF6
:10239000822F0E941812C801DF91CF911F910F91D7
:1023A000FF90EF90DF90CF900895CF93DF931F922F
:1023B000CDB7DEB769832091D5042223D1F02091D7
:1023C000D604203240F021E030E0FC013383228348
:1023D00080E090E015C08091D704E82FF0E0E8524B
:1023E000FB4F998190838F5F8093D7048093D604AD
:1023F00005C061E0CE0101960E94181281E090E0D4
:102400000F90DF91CF910895FC011382128288EE24
:1024100093E0A0E0B0E084839583A683B78380EB4C
:1024200091E091838083089589EC94E00C940412E8
:10243000613298F420918705243089F460933C053B
:10244000FC012EE335E0D9018A2F821B861718F490
:1024500081918D93F9CF80E0089581E0089582E025
:10246000089585ED8093BC008091BC0084FDFCCF75
:1024700010928705089585EC8093BC001092870523
:1024800008951F920F920FB60F9211242F933F932E
:102490004F935F936F937F938F939F93AF93BF936C
:1024A000EF93FF938091B900887F803609F49CC038
:1024B00068F5883209F45BC090F4803109F454C0A7
:1024C00038F4882309F4F5C0883009F44DC0F5C00C
:1024D000883109F44CC0803209F45DC0EEC080340C
:1024E00009F468C048F4803309F455C0883309F012
:1024F000E4C080931A05A8C0803509F44FC0883520
:1025000009F45DC0883409F0D8C0D5C0883909F411
:10251000C6C0A8F4883709F467C038F4883609F4CF
:1025200063C0803709F460C0C8C0883809F4B7C0F8
:10253000803909F45FC0803809F0BFC05BC0803BC0
:1025400009F485C038F4803A09F466C0883A09F481
:102550007EC0B3C0803C09F4A6C0883C09F4A3C087
:10256000883B09F489C0A9C08091860510C090916C
:102570005F0580915E05981770F5E0915F0581E039
:102580008E0F80935F05F0E0E05AFA4F80818093D0
:10259000BB0085EC85C080931A058DC0E0915F0576
:1025A00081E08E0F80935F058091BB00F0E0E05AE0
:1025B000FA4F808390915F0580915E056DC0E09138
:1025C0005F0581E08E0F80935F058091BB00F0E096
:1025D000E05AFA4F80838091850581116CC081E0BB
:1025E0008093840584EA60C083E08093870510921D
:1025F0001B05CFCF80911B05803208F050C0E091C1
:102600001B0581E08E0F80931B058091BB00F0E0DD
:10261000E45EFA4F8083BDCF80911B05803230F499
:10262000E0911B05F0E0E45EFA4F10820E94311247
:1026300060911B0570E0E0918005F09181058CE1CF
:1026400095E0099510921B050E943B1236C084E06C
:102650008093870510923D0510923C05E09182051C
:10266000F0918305099580913C05811105C081E0B9
:1026700080933C0510923E05E0913D0581E08E0F70
:1026800080933D05F0E0E25CFA4F80818093BB00CF
:1026900090913D0580913C05981708F47ACF85E824
:1026A0008093BC000AC085EC8093BC001092870523
:1026B00004C010921A050E943112FF91EF91BF9150
:1026C000AF919F918F917F916F915F914F913F91CA
:1026D0002F910F900FBE0F901F90189566277727A8
:1026E0000C944716FC0188279927E8942191203201
:1026F000E9F3293010F02E30C8F32B3241F02D329F
:1027000039F4689404C00E94C813820F911D21916E
:1027100020532A30C0F31EF4909581959F4F089561
:10272000F8940C94C218FB01DC014150504030F089
:102730008D910190801919F40020B9F7881B990B2D
:102740000895FA01A191B081009719F41097E1F072
:10275000CD01DC01CD010D90002011F4C00113C0AA
:10276000FB012191222319F02015D9F7F3CFFB01AA
:102770002191201519F41E92119606C02223C1F74B
:102780000D900020A1F7D001FA01A193B083089524
:102790007AE0979F902D879F802D910D11240895A9
:1027A0005058BB27AA270ED075C166D130F06BD127
:1027B00020F031F49F3F11F41EF45BC10EF4E0955C
:1027C000E7FB51C1E92F77D180F3BA17620773078E
:1027D0008407950718F071F49EF58FC10EF4E0950B
:1027E0000B2EBA2FA02D0B01B90190010C01CA01CB
:1027F000A0011124FF27591B99F0593F50F4503E76
:1028000068F11A16F040A22F232F342F4427585F67
:10281000F3CF469537952795A795F0405395C9F77F
:102820007EF41F16BA0B620B730B840BBAF0915037
:10283000A1F0FF0FBB1F661F771F881FC2F70EC0D6
:10284000BA0F621F731F841F48F4879577956795A9
:10285000B795F7959E3F08F0B3CF9395880F08F092
:102860009927EE0F979587950895D9D008F481E0C0
:1028700008950CD00FC107D140F0FED030F021F404
:102880005F3F19F0F0C0511139C1F3C014D198F372
:102890009923C9F35523B1F3951B550BBB27AA27E1
:1028A00062177307840738F09F5F5F4F220F331F53
:1028B000441FAA1FA9F333D00E2E3AF0E0E830D01F
:1028C00091505040E695001CCAF729D0FE2F27D022
:1028D000660F771F881FBB1F261737074807AB07F0
:1028E000B0E809F0BB0B802DBF01FF2793585F4F65
:1028F0002AF09E3F510568F0B6C000C15F3FECF37F
:10290000983EDCF3869577956795B795F7959F5F29
:10291000C9F7880F911D9695879597F90895E1E07D
:10292000660F771F881FBB1F621773078407BA07DC
:1029300020F0621B730B840BBA0BEE1F88F7E09537
:10294000089504D06894B111D9C00895BCD088F01E
:102950009F5790F0B92F9927B751A0F0D1F0660F8B
:10296000771F881F991F1AF0BA95C9F712C0B130A6
:1029700081F0C3D0B1E00895C0C0672F782F8827B9
:10298000B85F39F0B93FCCF3869577956795B395E5
:10299000D9F73EF490958095709561957F4F8F4F54
:1029A0009F4F0895E89409C097FB3EF49095809559
:1029B000709561957F4F8F4F9F4F9923A9F0F92F05
:1029C00096E9BB279395F695879577956795B79583
:1029D000F111F8CFFAF4BB0F11F460FF1BC06F5F69
:1029E0007F4F8F4F9F4F16C0882311F096E911C07B
:1029F000772321F09EE8872F762F05C0662371F09C
:102A000096E8862F70E060E02AF09A95660F771FAF
:102A1000881FDAF7880F9695879597F90895990F8B
:102A20000008550FAA0BE0E8FEEF16161706E80798
:102A3000F907C0F012161306E407F50798F0621BB9
:102A4000730B840B950B39F40A2661F0232B242B8E
:102A5000252B21F408950A2609F4A140A6958FEFAD
:102A6000811D811D089597F99F6780E870E060E0FF
:102A700008959FEF80EC089500240A941616170617
:102A800018060906089500240A941216130614065F
:102A900005060895092E0394000C11F4882352F0C2
:102AA000BB0F40F4BF2B11F460FF04C06F5F7F4F7A
:102AB0008F4F9F4F089557FD9058440F551F59F061
:102AC0005F3F71F04795880F97FB991F61F09F3F1B
:102AD00079F087950895121613061406551FF2CF44
:102AE0004695F1DF08C0161617061806991FF1CF94
:102AF00086957105610508940895E894BB276627BB
:102B00007727CB0197F908958ADF08F48FEF0895AE
:102B10000BD0C0CFB1DF28F0B6DF18F0952309F055
:102B2000A2CFA7CF1124EACFC6DFA0F3959FD1F3A0
:102B3000950F50E0551F629FF001729FBB27F00D6B
:102B4000B11D639FAA27F00DB11DAA1F649F6627C0
:102B5000B00DA11D661F829F2227B00DA11D621F0F
:102B6000739FB00DA11D621F839FA00D611D221FC9
:102B7000749F3327A00D611D231F849F600D211DAD
:102B8000822F762F6A2F11249F5750408AF0E1F050
:102B900088234AF0EE0FFF1FBB1F661F771F881F99
:102BA00091505040A9F79E3F510570F05CCFA6CFE1
:102BB0005F3FECF3983EDCF3869577956795B79584
:102BC000F795E7959F5FC1F7FE2B880F911D9695AE
:102BD000879597F9089511F40EF44BCFDFC173DF99
:102BE000D0F39923D9F3CEF39F57550B87FFE4D148
:102BF0000024A0E640EA900180585695979528F465
:102C0000805C660F771F881F20F02617370748075C
:102C100030F4621B730B840B202931294A2BA695B3
:102C200017940794202531254A2758F7660F771FF8
:102C3000881F20F026173707480730F4620B730B04
:102C4000840B200D311D411DA09581F7B901842F02
:102C50009158880F969587950895E1DE880B990B1A
:102C60000895F999FECF92BD81BDF89A992780B554
:102C70000895262FF999FECF1FBA92BD81BD20BDC0
:102C80000FB6F894FA9AF99A0FBE01960895A0E04B
:102C9000B0E0EDE4F6E10C9487188B016115710545
:102CA00021F0DB018C9311969C93EC015E01BFEF48
:102CB000AB1ABB0A7501C8808C2D90E00E94AE173C
:102CC000892B11F0E501F2CFEDE2CE1208C07E01B2
:102CD000F2E0EF0EF11CC980DD24D39409C02BE291
:102CE000C21205C07E0142E0E40EF11CC980D12C65
:102CF000E701219743E050E06AEC70E0CE010E94CA
:102D0000B617892BD1F4E701229645E050E065EC37
:102D100070E0CE010E94B617892B11F4E7012796C7
:102D20000115110519F0D801CD93DC93D11008C11C
:102D300060E070E080E89FE70CC143E050E062ECA7
:102D400070E0CE010E94B617892B59F401151105C8
:102D500009F4FBC0B2E0EB0EF11CF801F182E08255
:102D6000F4C0F70160E070E0CB01C0E0D0E07F018B
:102D7000A0EDAA2EAC0C29E02A1530F14D2D4260B1
:102D8000B42E2D2D2870D2FE04C0211125C021960D
:102D900023C021112197A5E0B0E09B01AC010E9466
:102DA000F517660F771F881F991F6A0D711D811D0A
:102DB000911D6839A9E97A078A07A9E19A0760F0A5
:102DC000BD2DB660BB2E08C02EEFA2120AC0D3FCE8
:102DD00050C04D2D4860B42E3196D701CC90DB2CDD
:102DE000C6CF2C2D2F7D253409F043C0A081AD32F4
:102DF00041F4BD2DB061DB2E7F0122E0E20EF11C1B
:102E00000CC07F01AB3231F04FEFE41AF40A21E03D
:102E100030E006C0A2E0EA0EF11CA18122E030E021
:102E2000A053AA3018F0E21AF30A23C0F70120E0F9
:102E300030E02038BCE03B075CF4A901440F551F8B
:102E4000440F551F240F351F220F331F2A0F311D2A
:102E5000AF014F5F5F4F7A01A081A053AA3010F4F9
:102E6000FA01E7CFD4FE03C0319521953109C20F95
:102E7000D31FD1FE09C00115110531F0E1E0EE1AB2
:102E8000F108D801ED92FC920E94D2142D2D2370EE
:102E9000233019F06B017C0106C06B017C01F7FA4D
:102EA000F094F7F8F09420E030E0A901C701B601F2
:102EB0000E943514882309F440C0D7FF06C0D1957D
:102EC000C195D10901EE10E002C009EF10E0480100
:102ED000B8E18B1A910890E2A92EB12CF801459027
:102EE000559065907490CA15DB055CF0A3019201C2
:102EF000C701B6010E9488156B017C01CA19DB0964
:102F0000F2CF04501109B594A7940815190531F7AB
:102F10008E2D880F8F2D881F8F3F49F020E030E0E5
:102F2000A901C701B6010E943514811106C082E2D1
:102F300090E09093890580938805C701B60109C088
:102F400060E070E080E89FEF04C060E070E080EC3B
:102F50009FE7CDB7DEB7E0E10C94A318911133C021
:102F6000803219F089508550D0F70895FB01DC01BB
:102F70004150504088F08D9181341CF08B350CF419
:102F8000805E659161341CF06B350CF4605E861BCD
:102F9000611171F3990B0895881BFCCF9F3F31F0AD
:102FA000915020F4879577956795B795880F911D77
:102FB0009695879597F9089591505040660F771F21
:102FC000881FD2F70895992788270895A29FB001F6
:102FD000B39FC001A39F700D811D1124911DB29F4D
:102FE000700D811D1124911D08950E94E617A59F63
:102FF000900DB49F900DA49F800D911D11240895F4
:10300000DB018F939F930E94F517BF91AF91A29F11
:10301000800D911DA39F900DB29F900D11240895D6
:10302000991B79E004C0991F961708F0961B881F1A
:103030007A95C9F780950895AA1BBB1B51E107C07B
:10304000AA1FBB1FA617B70710F0A61BB70B881F38
:10305000991F5A95A9F780959095BC01CD010895C7
:1030600097FB072E16F4009407D077FD09D00E9435
:103070001C1807FC05D03EF4909581959F4F08954C
:10308000709561957F4F0895A1E21A2EAA1BBB1B74
:10309000FD010DC0AA1FBB1FEE1FFF1FA217B30724
:1030A000E407F50720F0A21BB30BE40BF50B661F3A
:1030B000771F881F991F1A9469F7609570958095FE
:1030C00090959B01AC01BD01CF010895052E97FBA2
:1030D0001EF400940E947D1857FD07D00E944418EA
:1030E00007FC03D04EF40C947D1850954095309514
:1030F00021953F4F4F4F5F4F089590958095709564
:1031000061957F4F8F4F9F4F08952F923F924F921F
:103110005F926F927F928F929F92AF92BF92CF9267
:10312000DF92EF92FF920F931F93CF93DF93CDB770
:10313000DEB7CA1BDB0B0FB6F894DEBF0FBECDBFE8
:1031400009942A88398848885F846E847D848C84B9
:103150009B84AA84B984C884DF80EE80FD800C81C2
:103160001B81AA81B981CE0FD11D0FB6F894DEBFA5
:103170000FBECDBFED010895EE0FFF1F0590F49136
:08318000E02D0994F894FFCF43
:1031880001000000E803C800FFFF0B0A03090C0D4B
:103198000802FFFF1011140F150E060705044D3124
:1031A800302058592000410020420020530020447C
:1031B800004D313120006D6F746F72414469722087
:1031C800006D6F746F4244697220004865696768D2
:1031D80074200057696474682000537769746368C1
:1031E800200053706565642000504F53205800201C
:1031F80059004F4B005859330073657420746F2081
:1032080064656661756C74207365747570006E61B1
:103218006E00696E66006F7666002E000000000082
:10322800DD0B3809820BB20B960BD20B00000000A5
:0C323800D511A511791181119511A41177
:00000001FF
