:100000000C948F000C94B7000C94B7000C94E50B83
:100010000C94E50B0C94E50B0C94B7000C940209BE
:100020000C94B7000C94B7000C94B7000C94F10931
:100030000C94B7000C94B7000C94B7000C94B70064
:100040000C94500E0C94B7000C949C110C94CE118F
:100050000C94B7000C94B7000C94B7000C94B70044
:100060000C94230D0C94B70057035C0361036603E3
:100070006B0378037803780378037003740300003C
:100080000008000201000003040700000000000057
:100090000000010204081020408001020408102022
:1000A00001020408102004040404040404040202ED
:1000B0000202020203030303030300000000230003
:1000C0002600290000000000250028002B00000069
:1000D0000000240027002A004E414E494E49545941
:1000E000494E46CDCCCC3D0AD7233C17B7D1387703
:1000F000CC2B329595E6241FB14F0A000020410019
:1001000000C84200401C4620BCBE4CCA1B0E5AAE62
:10011000C59D74004904D008F60CFE11D4081124C2
:100120001FBECFEFD8E0DEBFCDBF11E0A0E0B1E051
:10013000ECE4F4E302C005900D92AA3AB107D9F7B6
:1001400025E0AAEAB1E001C01D92A73DB207E1F7A0
:1001500011E0CCE1D1E004C02297FE010E948D178E
:10016000C431D107C9F70E94A8140C94191A0C9431
:1001700000001816190614F460E001C061E086E181
:1001800092E00E94C70961E086E192E00E94D709EF
:1001900060E086E192E00C94D7091816190614F471
:1001A00060E001C061E082E192E00E94C70961E085
:1001B00082E192E00E94D70960E082E192E00C9433
:1001C000D70980910A020E942E10019731F4809184
:1001D0000C020E942E10019769F0809102020E9489
:1001E0002E100197A9F4809104020E942E1001970D
:1001F00079F43FC080911A02992787FD90950E945B
:10020000CD0080910C0190910D010E94F10ED9CF8B
:10021000109221021092200210921F0210921E02D0
:100220001092360210923702109238021092390260
:100230001092320210923302109234021092350260
:1002400010922E0210922F02109230021092310260
:1002500010922A0210922B0210922C0210922D0260
:100260001092250210922402109223021092220270
:10027000089580911C02992787FD90950E94B900EE
:1002800080910C0190910D010E94F10EA6CF109269
:1002900036021092370210923802109239021092F0
:1002A00032021092330210923402109235021092F0
:1002B00021021092200210921F0210921E02089535
:1002C0006CE271E088E395E00E947F1260914B023E
:1002D00070914C024AE050E088E395E00E9441139F
:1002E00060E288E395E00E9481126091490270917A
:1002F0004A024AE050E088E395E00E94411360E240
:1003000088E395E00E9481124091360250913702B5
:10031000609138027091390222E030E088E395E084
:100320000E944C1460E288E395E00E9481124091A3
:10033000320250913302609134027091350222E012
:1003400030E088E395E00E944C1460E288E395E099
:100350000E94811264E371E088E395E00E947F12BD
:100360006091460270E04AE050E088E395E00E9428
:10037000411366E371E088E395E00E947F1260918B
:10038000470270E04AE050E088E395E00E944113A4
:1003900069E371E088E395E00E947F126091480272
:1003A00070E04AE050E088E395E00E9441136CE37E
:1003B00071E088E395E00E947F1260914D02709198
:1003C0004E024AE050E088E395E00E9441136FE35B
:1003D00071E088E395E00E947F1260914F02709176
:1003E00050024AE050E088E395E00E94411362E445
:1003F00071E088E395E00E947F1260915102709154
:1004000052024AE050E088E395E00C94491365E419
:1004100071E088E395E00E947F1280910A020E94B9
:100420002E104AE050E0BC0188E395E00E944113A1
:1004300068E471E088E395E00E947F1280910C02ED
:100440000E942E104AE050E0BC0188E395E00E9433
:10045000411368E471E088E395E00E947F12809187
:1004600002020E942E104AE050E0BC0188E395E0B1
:100470000E94411368E471E088E395E00E947F12D6
:10048000809104020E942E104AE050E0BC0188E3F3
:1004900095E00C9449130F931F93CF93DF930EE3D2
:1004A00012E0C0E0D0E0F80161918F01CE010E941E
:1004B00056182196C034D105B1F7DF91CF911F9125
:1004C0000F9108950F931F93CF93DF9300D0CDB773
:1004D000DEB7AE014F5F5F4F68E471E00E940A181B
:1004E0008C01012B09F43FC0AE014F5F5F4F68E400
:1004F00071E080E090E00E940A188C01FC0180818C
:10050000813439F4C80101960E94AF1780934602E6
:10051000E8CF823439F4C80101960E94AF17809366
:100520004702DFCF883449F4C80101960E94AF1713
:1005300090934A0280934902D4CF873549F4C80189
:1005400001960E94AF1790934C0280934B02C9CF43
:10055000833539F6C80101960E94AF1790934E0279
:1005600080934D02BECF0E944B020F900F90DF91FF
:10057000CF911F910F910895CF93DF9300D0CDB706
:10058000DEB7AE014F5F5F4F68E471E00E940A186A
:1005900089819A810E94CD176093EB017093EC01E1
:1005A0008093ED019093EE010F900F90DF91CF912A
:1005B0000895CF93DF9300D0CDB7DEB7AE014F5F84
:1005C0005F4F68E471E00E940A1889819A810E9455
:1005D000AF17BC0188EF91E00E94A7080F900F9021
:1005E000DF91CF910895CF93DF9300D0CDB7DEB7E1
:1005F000AE014F5F5F4F68E471E00E940A18898185
:100600009A810E94AF17BC018FEE91E00E94800B8F
:100610000F900F90DF91CF9108950F931F93CF9379
:10062000DF9300D0CDB7DEB7AE014F5F5F4F68E418
:1006300071E00E940A188C01012B11F1AE014F5F8D
:100640005F4F68E471E080E090E00E940A188C013E
:10065000FC018081853549F4C80101960E94AF17DD
:100660009093500280934F02E7CF843429F7C8015A
:1006700001960E94AF179093520280935102DCCFF3
:100680000E944B020F900F90DF91CF911F910F911D
:100690000895CF93DF93EC010E94AF1701978B3041
:1006A000910530F58C5C9F4FFC010C948B17CE01AB
:1006B000DF91CF910C94F302CE01DF91CF910C9496
:1006C0000D03CE01DF91CF910C94BC02CE01DF91DE
:1006D000CF910C94D902CE01DF91CF910C9462029C
:1006E000DF91CF910C946001DF91CF910C940702C0
:1006F000DF91CF9108950F931F93CF93DF930EE374
:1007000012E0C0E0D0E0CE010E944E18D8018D93D7
:100710008D012196C034D105B1F743E050E06AE481
:1007200071E08EE392E00E94FC17892BB1F16EE438
:1007300071E088E395E00E948C1280E4EEE3F2E041
:10074000DF011D928A95E9F788E599E5A4E3809396
:100750003E0290933F02A09340028CE791E0909379
:100760004C0280934B0286E391E090934A0280937F
:10077000490280E590E090934E0280934D0280EA1A
:1007800090E09093500280934F028AE590E090931E
:100790005202809351020E944B02809146028111C5
:1007A00005C08FEF80931D0281E004C081E080933B
:1007B0001D028FEF80931C0280914702811105C0BA
:1007C0008FEF80931B0281E004C081E080931B02C5
:1007D0008FEF80931A0284E690E020914D023091D1
:1007E0004E02821B930B4AE0489F9001499F300DB7
:1007F000112430930D0120930C0144E6489F900191
:10080000499F300D112430930B0120930A01DF9191
:10081000CF911F910F91089562E080910C020E9488
:10082000BF0F62E080910A020E94BF0F62E08091D8
:1008300004020E94BF0F62E0809102020E94BF0F7B
:1008400026E040E052EC61E070E088E395E00E9431
:100850003A110E947B030E9447016091F20170915E
:10086000F3018FEE91E00E94470B64E670E080E0B8
:1008700090E00E94C90E60914F02709150028FEE7D
:1008800091E00E94800B60E070E088EF91E00C94B2
:10089000A70861E086E192E00E94B70962E082E188
:1008A00092E00E94B70963E08EE092E00E94B709EF
:1008B0008EE092E00E94EB0990E090930D0280930D
:1008C0000C028EE092E00E94EE0990E090930B0201
:1008D00080930A0266E086E092E00E94B70986E013
:1008E00092E00E94EB0990E090930502809304024D
:1008F00086E092E00E94EE0990E0909303028093DC
:1009000002026AE088EF91E00E94A50867E084EFA8
:1009100091E00E94B70984EF91E00E94EE0990E017
:100920009093F3018093F2018FEE91E00C94AD0A65
:100930000F931F93CF93DF9380E4EBEAF1E0DF01A5
:100940001D928A95E9F71092AA0110E0EF0100E4E8
:1009500088E395E00E945710892B59F188E395E0D0
:100960000E947010A091AA01E1E0EA0FE093AA01B1
:10097000BB27A7FDB095A555BE4F8C938A3091F447
:10098000FF27E7FDF095E555FE4F10828BEA91E0D9
:100990000E943508FE01802F11928A95E9F7109286
:1009A000AA0111E08091AA01803494F21092AA0168
:1009B000CFCF812FDF91CF911F910F9108952F926B
:1009C0003F924F925F926F927F928F929F92AF92DF
:1009D000BF92CF92DF92EF92FF920F931F93CF932C
:1009E000DF93CDB7DEB762970FB6F894DEBF0FBEC8
:1009F000CDBF80910A0190910B012C01662457FC18
:100A00006094762C20902402309025028091200260
:100A100090912102281A390A209122023091230252
:100A200080911E0290911F02281B390B3A8B298B53
:100A3000790137FF03C0F194E194F108610137FEB9
:100A400004C0CC24DD24C218D3088601CE14DF04F0
:100A50000CF48701B801882777FD8095982F0E94B4
:100A6000BC154B015C01B601882777FD8095982F56
:100A70000E94BC15A50194010E94211569877A87FF
:100A80008B879C87B701882777FD8095982F0E94D8
:100A9000BC15A50194010E9421156D877E878F8763
:100AA000988B1E830D83812C912C54017501640158
:100AB0004FEF5FEF58874F83009120021091210282
:100AC00080912402909125020817190709F41EC18C
:100AD00029853A854B855C85C701B6010E94B9140A
:100AE0006B017C0120E030E040E85FE30E947A1671
:100AF00087FD25C0121413041CF480911D0202C04E
:100B000080911C02992787FD9095121413041CF400
:100B100021E030E002C02FEF3FEF020F131F1093D0
:100B20002102009320020E94B90020E030E040E85A
:100B30005FE3C701B6010E94B8146B017C0100910C
:100B40001E0210911F028091220290912302081729
:100B50001907D9F12D853E854F855889C501B40106
:100B60000E94B9144B015C0120E030E040E85FE3F3
:100B70000E947A1687FD29C089899A891816190654
:100B80001CF480911B0202C080911A02992787FDF4
:100B90009095A989BA891A161B061CF421E030E049
:100BA00002C02FEF3FEF020F131F10931F0200939D
:100BB0001E020E94CD0020E030E040E85FE3C50166
:100BC000B4010E94B8144B015C01EF81F885CF019C
:100BD000AA2797FDA095BA2F840D951DA61DB71DB8
:100BE00020910C0130910D012901662457FC60947D
:100BF000762C84159505A605B7058CF040910A0161
:100C000050910B01662757FD6095762F2C013D0111
:100C1000481759076A077B0714F42A013B01209102
:100C2000EB013091EC014091ED015091EE01240D6A
:100C3000351D461D571D29833A834B835C830E94D3
:100C40009A0E0091FE011091FF0120910002309157
:100C50000102601B710B820B930B6139714081059E
:100C6000910540F580910A0190910B01AA2797FD0B
:100C7000A095BA2F29813A814B815C818217930715
:100C8000A407B50734F56091EB017091EC018091F8
:100C9000ED019091EE0128EE33E040E050E00E943B
:100CA0006C1769837A838B839C83CA01B9010E9484
:100CB000C90E0FC00E949A0E6093FE017093FF014F
:100CC00080930002909301020E949804882351F2BD
:100CD00029C089819A810E94F10E80910A01909128
:100CE0000B0120910C0130910D01821B930B4D8162
:100CF0005E814817590724F481E090E098878F833C
:100D0000AD81BE811197BE83AD83D6CE20912202E4
:100D10003091230280911E0290911F028217930747
:100D200009F00DCF62960FB6F894DEBF0FBECDBFAF
:100D3000DF91CF911F910F91FF90EF90DF90CF90B7
:100D4000BF90AF909F908F907F906F905F904F90EB
:100D50003F902F9008958F929F92AF92BF92CF9223
:100D6000DF92EF92FF92209136023091370240914C
:100D700038025091390260912E0270912F028091B9
:100D80003002909131020E94B8144B015C01209115
:100D90003202309133024091340250913502609119
:100DA0002A0270912B0280912C0290912D020E94B8
:100DB000B8146B017C01A5019401C501B4010E9426
:100DC0007E164B015C01A7019601C701B6010E9486
:100DD0007E169B01AC01C501B4010E94B9140E94AA
:100DE000E5166B017C0163E671E088E395E00E9403
:100DF0007F1222E030E0B701A60188E395E00E946F
:100E00004E142FE632E143E85AE3C701B6010E94CF
:100E10001D1587FD4AC026EF38E24FEA52E4609183
:100E20002E0270912F0280913002909131020E9427
:100E30007E160E948915709325026093240226EF86
:100E400038E24FEA52E460912A0270912B028091BD
:100E50002C0290912D020E947E160E94891570939B
:100E60002302609322020E94DF0480912E0290915F
:100E70002F02A0913002B0913102809336029093FC
:100E80003702A0933802B093390280912A029091E0
:100E90002B02A0912C02B0912D02809332029093EC
:100EA0003302A0933402B0933502FF90EF90DF90AD
:100EB000CF90BF90AF909F908F9008950F931F9306
:100EC000CF93DF9300D0CDB7DEB7AE014F5F5F4F5A
:100ED00068E471E00E940A188C01809136029091BA
:100EE0003702A0913802B091390280932E0290937C
:100EF0002F02A0933002B093310280913202909180
:100F00003302A0913402B091350280932A0290936B
:100F10002B02A0932C02B0932D02012B09F45EC08A
:100F2000AE014F5F5F4F68E471E080E090E00E94A7
:100F30000A188C01FC018081883569F4C80101968A
:100F40000E94AB1760932E0270932F0280933002A1
:100F500090933102E2CF893569F4C80101960E946D
:100F6000AB1760932A0270932B0280932C0290930C
:100F70002D02D3CF8A3569F4C80101960E94AB17C0
:100F8000609326027093270280932802909329028F
:100F9000C4CF863499F4C80101960E94AB1720E0B3
:100FA00030E040E752E40E94211560933A027093CA
:100FB0003B0280933C0290933D02AFCF813409F015
:100FC000ACCFC80101960E94CD176093EB017093DE
:100FD000EC018093ED019093EE019FCF0E94AB0650
:100FE0000F900F90DF91CF911F910F910895CF93A4
:100FF000DF93EC010E94AF1797FD34C0823091055A
:1010000064F14C9779F51092EB011092EC0110927B
:10101000ED011092EE0110922E0210922F0210920A
:1010200030021092310210922A0210922B0210927A
:101030002C0210922D0260914F02709150028FEE9F
:1010400091E00E94800B60E070E088EF91E00E94E8
:10105000A708DF91CF910C94E100CE01DF91CF91F1
:101060000C945E07DF91CF910895FC012081273415
:1010700021F401960E94F70730C02D3421F4019627
:101080000E9449032AC0203541F56DE671E088E3EE
:1010900095E00E947F124091360250913702609194
:1010A00038027091390222E030E088E395E00E9436
:1010B0004C1463E771E088E395E00E947F12409151
:1010C000320250913302609134027091350222E075
:1010D00030E088E395E00E944E1466E771E088E313
:1010E00095E00C948C1288E395E00E945710892BB0
:1010F00059F188E395E00E947010A091AA01E1E007
:10110000EA0FE093AA01BB27A7FDB095A555BE4FF6
:101110008C938A3099F4FF27E7FDF095E555FE4F53
:1011200010828BEA91E00E94350880E4EBEAF1E05E
:10113000DF011D928A95E9F71092AA018091AA0118
:10114000803414F01092AA0108950C94B7090F93FB
:101150001F93CF93DF938C016F3F710519F014F04B
:101160006FEF70E0EB0161308FEF780714F4C1E0AE
:10117000DFEFD7FD06C061E0C8010E94D709BE01BC
:1011800008C060E0C8010E94D709662777276C1B5A
:101190007D0BC801DF91CF911F910F910C94E7094E
:1011A0008EE792E00C94D8088EE792E00C94010947
:1011B00021E030E0FC0131832083EE5FFE4F10829E
:1011C000118212821382349610821182128213824B
:1011D00034961082319610823196108211821282DA
:1011E00013823496118210823296108231961082C8
:1011F000118212821382349610821182128213821B
:10120000089508951F920F920FB60F9211240F9315
:101210001F932F933F934F935F936F937F938F937E
:101220009F93AF93BF93CF93EF93FF9382E00E947E
:101230002E10C82F20919F033091A0032F5F3F4FA6
:101240003093A00320939F0380910504843618F007
:1012500085E080939A0390919A03933079F018F483
:10126000923039F070C0943011F1953009F44AC0D1
:101270006AC0C11168C01092050429C0C13009F0CC
:1012800062C0E091050481E08E0F80930504F0E0D8
:1012900080919F039091A003E756FC4F80871092A6
:1012A000A00310929F0384E080939A034CC0C11165
:1012B00014C0E091050481E08E0F80930504F0E0F6
:1012C00080919F039091A003E756FC4F8087109276
:1012D000A00310929F0383E0E7CF80919F0390913A
:1012E000A0038536910578F185E080939A030E94EA
:1012F0009A0E60939B0370939C0380939D0390933D
:101300009E0321C00E949A0E00919B0310919C03A2
:1013100020919D0330919E03601B710B820B930BF8
:10132000693C71058105910540F010920504109209
:10133000A00310929F0382E0B7CFC11104C01092A6
:10134000A00310929F03FF91EF91CF91BF91AF91B6
:101350009F918F917F916F915F914F913F912F91CD
:101360001F910F910F900FBE0F901F901895DC01E9
:10137000E62FF0E0EE0FFF1FE25FFE4F80818C93BF
:10138000818111968C93119712966C9308951F93F7
:10139000CF93DF93EC01162F61E088810E94BF0F8D
:1013A000612F8881DF91CF911F910C94F80F1F93CB
:1013B000CF93DF93EC01162F61E089810E94BF0F6C
:1013C000612F8981DF91CF911F910C94F80FFC015F
:1013D00080810C94370FFC0180810895FC0181818C
:1013E00008951F920F920FB60F9211242F933F93DF
:1013F0004F935F936F937F938F939F93AF93BF931D
:10140000EF93FF938091070487FF05C0109285003A
:10141000109284001AC020910704332727FD3095CD
:101420008091060490E0281739077CF48091070426
:10143000992787FD9095FC01EE0FFF1FE80FF91F1C
:10144000E85FFB4F808187FD15C0809107048F5FA7
:101450008093070420910704332727FD309580915E
:10146000060490E028173907BCF4809107048C30FB
:101470005CF112C080910704992787FD9095FC01CB
:10148000EE0FFF1FE80FF91FE85FFB4F808160E060
:101490008F770E94F80FD9CF8091840090918500BA
:1014A000049680349C4918F480E49CE905C080913E
:1014B0008400909185000496909389008093880021
:1014C0008FEF8093070438C020918400309185000D
:1014D00080910704992787FD9095FC01EE0FFF1F6F
:1014E000E80FF91FE85FFB4F81819281820F931F04
:1014F000909389008093880080910704992787FD45
:101500009095FC01EE0FFF1FE80FF91FE85FFB4FFE
:10151000808187FF11C080910704992787FD9095EE
:10152000FC01EE0FFF1FE80FF91FE85FFB4F808102
:1015300061E08F770E94F80FFF91EF91BF91AF911B
:101540009F918F917F916F915F914F913F912F91DB
:101550000F900FBE0F901F901895209106042C300D
:10156000A0F431E0320F30930604FC012083822F77
:1015700090E0FC01EE0FFF1FE80FF91FE85FFB4F43
:1015800088EB9BE09283818308952FEFFC012083F9
:101590000895DF92EF92FF920F931F93CF93DF9303
:1015A000EC01D62E7A01890188818C3008F066C062
:1015B00061E08D2D0E94BF0F8881A82FB0E0FD0152
:1015C000EE0FFF1FEA0FFB1FE85FFB4F2D2D2F775C
:1015D00090819078922B908360E272E06E197F097F
:1015E00077FF02C06D5F7F4F75956795759567951D
:1015F000698340E659E0401B510B57FF02C04D5F25
:101600005F4F55954795559547954A836CE00E94E5
:101610003E179CE0899FB001112420E030E0A90131
:10162000460F571FFA01EE0FFF1FE40FF51FE85F8B
:10163000FB4F908197FD16C02F5F3F4F2C30310537
:1016400071F781110FC01092800082E080938100B9
:101650001092850010928400B19A80916F00826090
:1016600080936F00888190E0FC01EE0FFF1FE80F70
:10167000F91FE85FFB4F8081806880838881DF915C
:10168000CF911F910F91FF90EF90DF90089520E68A
:1016900039E040E252E00C94C90AFC0180818C30B0
:1016A00070F5918128E830E0291B310997FD3395C9
:1016B000220F331F220F331F621773077CF09281B2
:1016C00028E532E0291B310997FD3395220F331F9E
:1016D000220F331F621773070CF49B01225031094C
:1016E000220F331F4FB7F89490E0FC01EE0FFF1F5D
:1016F000E80FF91FE85FFB4F328321834FBF089546
:101700004F925F926F927F92AF92BF92CF92DF9291
:10171000EF92FF920F931F93CF93DF93EC01603210
:1017200082E078070CF040C077FD06C0653B71058C
:101730002CF064EB70E002C060E070E0898128E882
:1017400030E0281B310987FD3395220F331F220F0C
:10175000331F5901CC24B7FCC094DC2C882777FDBB
:101760008095982F2A8148E552E0421B510927FDB8
:101770005395440F551F440F551F2A01662457FCEB
:101780006094762C7F926F925F924F9214EBE12ED1
:10179000F12C00E010E020E030E0A9010E9460148C
:1017A0000F900F900F900F90CE01DF91CF911F916E
:1017B0000F91FF90EF90DF90CF90BF90AF907F9010
:1017C0006F905F904F900C944D0B1F920F920FB63D
:1017D0000F9211242F933F934F935F936F937F93B7
:1017E0008F939F93AF93BF93EF93FF93E0916E041A
:1017F000F0916F04309709F451C0868DA685B785A6
:10180000958581FF04C08C91892329F447C08C9170
:10181000892309F043C0A389B4899C918589809567
:1018200089238C93868997890197F1F7208D318DD3
:10183000A685B785758558E040E0C9010197F1F7A5
:10184000842F90E095958795482F6C91672309F038
:101850004068515091F7868D81FD409580912D040F
:1018600090E001968F73992720912C04281749F056
:10187000A0912D04B0E0A25DBB4F4C9380932D044A
:1018800003C0868D8160868F828D938D0197F1F7DD
:10189000A389B4898C919589892B8C93FF91EF91C1
:1018A000BF91AF919F918F917F916F915F914F9178
:1018B0003F912F910F900FBE0F901F901895809120
:1018C0009F0490E02091A004821B9109089520912B
:1018D000A00480919F04281750F4E22FF0E0EF5508
:1018E000FB4F808190E02F5F2093A00408958FEF3D
:1018F0009FEF0895E091A00480919F04E81730F4D1
:10190000F0E0EF55FB4F808190E008958FEF9FEF5F
:1019100008950895CF92DF92EF92FF920F931F9355
:10192000CF93DF937C01CB018A0120917C04222399
:1019300089F0EB016B01C40ED51ECC15DD0569F0F5
:101940006991D701ED91FC910190F081E02DC701E3
:101950000995F3CF642F0E94FA0CC801DF91CF9153
:101960001F910F91FF90EF90DF90CF900895CF934C
:10197000DF931F92CDB7DEB7698320917C042223C9
:10198000D1F020917D04203240F021E030E0FC01D4
:101990003383228380E090E015C080917E04E82F9D
:1019A000F0E0E158FB4F998190838F5F80937E0434
:1019B00080937D0405C061E0CE0101960E94FA0C7F
:1019C00081E090E00F90DF91CF910895FC011382A8
:1019D000128248EE53E060E070E0448355836683F2
:1019E00077838DE791E091838083089580E794E089
:1019F0000C94E60C613298F420912E05243089F481
:101A00006093E304FC0185EE94E0DC012A2F281B9F
:101A1000261718F421912D93F9CF80E0089581E0E5
:101A2000089582E0089585ED8093BC008091BC000C
:101A300084FDFCCF10922E05089585EC8093BC00A8
:101A400010922E0508951F920F920FB60F92112437
:101A50002F933F934F935F936F937F938F939F93B6
:101A6000AF93BF93EF93FF938091B900887F803647
:101A700009F49EC078F5883209F45DC090F4803195
:101A800009F456C038F4882309F4F5C0883009F405
:101A90004FC0F5C0883109F44EC0803209F45FC0F0
:101AA000EEC0803409F46AC058F4803309F457C09A
:101AB000883309F0E4C08093C1040E941D0DDFC08B
:101AC000803509F44FC0883509F45DC0883409F0C9
:101AD000D6C0D3C0883909F4C4C0A8F4883709F443
:101AE00067C038F4883609F463C0803709F460C0F1
:101AF000C6C0883809F4B5C0803909F45FC08038A1
:101B000009F0BDC05BC0803B09F483C038F4803A63
:101B100009F466C0883A09F47CC0B1C0803C09F47D
:101B2000A4C0883C09F4A1C0883B09F487C0A7C0C1
:101B300080912D0510C0909106058091050598179C
:101B400070F5E091060581E08E0F80930605F0E0C8
:101B5000E95FFA4F80818093BB0085EC83C080935E
:101B6000C1048BC0E091060581E08E0F80930605CD
:101B70008091BB00F0E0E95FFA4F80839091060509
:101B8000809105056BC0E091060581E08E0F809382
:101B900006058091BB00F0E0E95FFA4F80838091F9
:101BA0002C0581116AC081E080932B0584EA5EC018
:101BB00083E080932E051092C204CFCF8091C2049F
:101BC000803208F04EC0E091C20481E08E0F809315
:101BD000C2048091BB00F0E0ED53FB4F8083BDCF8A
:101BE0000E941D0D8091C204803230F4E091C20445
:101BF000F0E0ED53FB4F10826091C20470E0E09181
:101C00002705F091280583EC94E009951092C20411
:101C100036C084E080932E051092E4041092E30411
:101C2000E0912905F0912A0509958091E30481113D
:101C300005C081E08093E3041092E504E091E404A0
:101C400081E08E0F8093E404F0E0EB51FB4F808144
:101C50008093BB009091E4048091E304981708F40A
:101C60007CCF85E88093BC000AC085EC8093BC00E3
:101C700010922E0504C01092C1040E94130DFF9112
:101C8000EF91BF91AF919F918F917F916F915F91F4
:101C90004F913F912F910F900FBE0F901F9018956D
:101CA0001F920F920FB60F9211242F933F938F9391
:101CB0009F93AF93BF938091300590913105A09190
:101CC0003205B091330530912F0523E0230F2D37D6
:101CD00020F40196A11DB11D05C026E8230F029630
:101CE000A11DB11D20932F058093300590933105E0
:101CF000A0933205B093330580913405909135055A
:101D0000A0913605B09137050196A11DB11D8093B4
:101D1000340590933505A0933605B0933705BF91F0
:101D2000AF919F918F913F912F910F900FBE0F9088
:101D30001F9018952FB7F894609130057091310578
:101D400080913205909133052FBF08953FB7F894E5
:101D50008091340590913505A0913605B0913705F5
:101D600026B5A89B05C02F3F19F00196A11DB11DF6
:101D70003FBF6627782F892F9A2F620F711D811D13
:101D8000911D42E0660F771F881F991F4A95D1F772
:101D90000895CF92DF92EF92FF92CF93DF936B0182
:101DA0007C010E94A60EEB01C114D104E104F104F0
:101DB00089F00E94B7140E94A60E6C1B7D0B683E32
:101DC000734090F381E0C81AD108E108F108C851C6
:101DD000DC4FEACFDF91CF91FF90EF90DF90CF9073
:101DE00008958230910538F0880F991F880F991F48
:101DF00005970197F1F70895789484B5826084BDC2
:101E000084B5816084BD85B5826085BD85B58160FE
:101E100085BDEEE6F0E0808181608083E1E8F0E05E
:101E20001082808182608083808181608083E0E88D
:101E3000F0E0808181608083E1EBF0E0808184606C
:101E40008083E0EBF0E0808181608083EAE7F0E06E
:101E500080818460808380818260808380818160D2
:101E600080838081806880831092C10008951F93D1
:101E7000CF93DF93182FEB0161E00E94BF0F2097F3
:101E800011F460E004C0CF3FD10539F461E0812F47
:101E9000DF91CF911F910C94F80FE12FF0E0E25801
:101EA000FF4FE491E330F9F048F4E130B9F0E2306B
:101EB000A1F584B5806284BDC8BD34C0E730E9F0C7
:101EC000E83019F1E43049F5809180008062809318
:101ED0008000D0938B00C0938A0024C084B58068B2
:101EE00084BDC7BD1FC08091800080688093800042
:101EF000D0938900C093880015C08091B00080689D
:101F00008093B000C093B3000DC08091B000806298
:101F10008093B000C093B40005C0C038D1050CF068
:101F2000B5CFAFCFDF91CF911F910895833081F06E
:101F300028F4813099F08230A1F008958730A9F01B
:101F40008830B9F08430D1F4809180008F7D03C057
:101F5000809180008F7780938000089584B58F777B
:101F600002C084B58F7D84BD08958091B0008F77C5
:101F700003C08091B0008F7D8093B0000895CF930F
:101F8000DF9390E0FC01EE56FF4F2491FC01EA55EF
:101F9000FF4F8491882349F190E0880F991FFC013D
:101FA000E253FF4FA591B4918C539F4FFC01C59113
:101FB000D4919FB7611108C0F8948C912095822329
:101FC0008C93888182230AC0623051F4F8948C91FA
:101FD000322F309583238C938881822B888304C091
:101FE000F8948C91822B8C939FBFDF91CF910895B1
:101FF0000F931F93CF93DF931F92CDB7DEB7282F98
:1020000030E0F901E258FF4F8491F901EE56FF4F9D
:102010001491F901EA55FF4F04910023C9F0882378
:1020200021F069830E94960F6981E02FF0E0EE0FA6
:10203000FF1FEC53FF4FA591B4919FB7F8948C917B
:10204000611103C01095812301C0812B8C939FBF28
:102050000F90DF91CF911F910F910895CF93DF9350
:10206000282F30E0F901E258FF4F8491F901EE5634
:10207000FF4FD491F901EA55FF4FC491CC2391F061
:1020800081110E94960FEC2FF0E0EE0FFF1FE65437
:10209000FF4FA591B4912C912D2381E090E021F484
:1020A00080E002C080E090E0DF91CF910895FC01D4
:1020B000818D228D90E0805C9F4F821B91098F73F0
:1020C00099270895FC01918D828D981731F0828DAA
:1020D000E80FF11D858D90E008958FEF9FEF089533
:1020E000FC01918D828D981761F0828DDF01A80F20
:1020F000B11D5D968C91928D9F5F9F73928F90E042
:1021000008958FEF9FEF089584EF91E1892B49F0B7
:1021100080E090E0892B29F00E94F41181110C9449
:1021200000000895FC01848DDF01A80FB11DA35AA2
:10213000BF4F2C91848D90E001968F739927848FE7
:10214000A689B7892C93A089B1898C9180648C93DE
:10215000938D848D981306C00288F389E02D8081C9
:102160008F7D80830895CF93DF93EC01888D882342
:10217000C9F0EA89FB89808185FD05C0A889B989F4
:102180008C9186FD0FC00FB607FCF5CF808185FFCF
:10219000F2CFA889B9898C9185FFEDCFCE010E943D
:1021A0009210E7CFDF91CF910895CF92DF92FF9207
:1021B0000F931F93CF93DF931F92CDB7DEB76C01C0
:1021C00081E0D60158968C9358975B969C915B97CB
:1021D0005C968C915C97981307C05096ED91FC919A
:1021E0005197808185FD2EC0F601038D10E00F5FB1
:1021F0001F4F0F731127F02EF601848DF81211C0B6
:102200000FB607FCF9CFD6015096ED91FC9151978E
:10221000808185FFF1CFC60169830E949210698198
:10222000EBCF838DE80FF11DE35AFF4F6083D6019A
:102230005B960C935B975296ED91FC91539780813E
:1022400080620CC0D6015696ED91FC915797608341
:102250005096ED91FC91519780818064808381E05C
:1022600090E00F90DF91CF911F910F91FF90DF9041
:10227000CF900895BF92CF92DF92EF92FF92CF93CB
:10228000DF93EC016A017B01B22EE889F98982E0D3
:102290008083411581EE580761057105A1F060E06A
:1022A00079E08DE390E0A70196010E944A17215042
:1022B00031094109510956954795379527952115BB
:1022C00080E1380798F0E889F989108260E874E8BD
:1022D0008EE190E0A70196010E944A172150310932
:1022E000410951095695479537952795EC85FD8508
:1022F0003083EE85FF852083188EEC89FD89B082BE
:10230000EA89FB89808180618083EA89FB898081F9
:1023100088608083EA89FB89808180688083EA897C
:10232000FB8980818F7D8083DF91CF91FF90EF903B
:10233000DF90CF90BF9008951F920F920FB60F922B
:1023400011242F938F939F93EF93FF93E091480570
:10235000F09149058081E0914E05F0914F0582FD95
:1023600012C09081809151058F5F8F73209152052B
:10237000821751F0E0915105F0E0E85CFA4F958F3B
:102380008093510501C08081FF91EF919F918F91C2
:102390002F910F900FBE0F901F9018951F920F92C4
:1023A0000FB60F9211242F933F934F935F936F9328
:1023B0007F938F939F93AF93BF93EF93FF9388E3A4
:1023C00095E00E949210FF91EF91BF91AF919F9184
:1023D0008F917F916F915F914F913F912F910F90CE
:1023E0000FBE0F901F90189588E395E00E9457103C
:1023F00021E0892B09F420E0822F089510923B05FB
:1024000010923A0588EE93E0A0E0B0E080933C059E
:1024100090933D05A0933E05B0933F058DE891E074
:10242000909339058093380585EC90E090934505AD
:102430008093440584EC90E0909347058093460593
:1024400080EC90E0909349058093480581EC90E002
:1024500090934B0580934A0582EC90E090934D0554
:1024600080934C0586EC90E090934F0580934E0549
:102470001092510510925205109253051092540576
:102480000895CF92DF92EF92FF920F931F93CF9315
:10249000DF937C016A01EB0100E010E00C151D05E3
:1024A00071F06991D701ED91FC910190F081E02DDF
:1024B000C7010995892B19F00F5F1F4FEFCFC80196
:1024C000DF91CF911F910F91FF90EF90DF90CF9010
:1024D00008956115710581F0DB010D900020E9F789
:1024E000AD0141505109461B570BDC01ED91FC91A8
:1024F0000280F381E02D099480E090E008950C942F
:102500006912DC01ED91FC910190F081E02D0994BC
:1025100069E971E00C9469120F931F93CF93DF93D5
:10252000EC010E9469128C01CE010E948812800F7A
:10253000911FDF91CF911F910F9108958F929F92DC
:10254000AF92BF92CF92DF92EF92FF920F931F93C1
:10255000CF93DF93CDB7DEB7A1970FB6F894DEBF68
:102560000FBECDBF7C01C42EE52FCB01D22E19A208
:1025700021E02D1510F02AE0D22E8E010F5D1F4FA5
:102580008D2C912CA12CB12C6C2D7E2FA5019401AA
:102590000E944A178C2DD29E8019112401501109D6
:1025A0008A3014F4805D01C0895CF80180832115B4
:1025B00031054105510521F0C22EE32FCA01E4CFB8
:1025C000B801C7010E946912A1960FB6F894DEBF48
:1025D0000FBECDBFDF91CF911F910F91FF90EF9074
:1025E000DF90CF90BF90AF909F908F900895CF9243
:1025F000DF92EF92FF920F931F93CF93DF93EC0143
:102600006A017B012115310579F4E881F981019096
:10261000F081E02D642FDF91CF911F910F91FF90FA
:10262000EF90DF90CF9009942A303105E9F477FFDD
:102630001AC06DE20E9481128C0144275527BA010D
:102640004C195D096E097F092AE0CE010E949E1295
:10265000800F911FDF91CF911F910F91FF90EF900D
:10266000DF90CF9008952AE0B701A601CE01DF9157
:10267000CF911F910F91FF90EF90DF90CF900C942E
:102680009E129A01AB01662757FD6095762F0C9438
:10269000F7120F931F93CF93DF93EC019A01AB01D5
:1026A000662757FD6095762F0E94F7128C01CE01A8
:1026B0000E948812800F911FDF91CF911F910F917F
:1026C00008954F925F926F927F928F929F92AF92F6
:1026D000BF92CF92DF92EF92FF920F931F93CF930F
:1026E000DF93EC016A017B01B22E9A01AB01C701B5
:1026F000B6010E942317882319F06CE971E027C006
:1027000026013701E89477F82FEF3FEF4FE75FE7B7
:10271000C301B2010E94231781110DC02FEF3FEFBB
:102720004FE75FE7C301B2010E941D1518161CF4A4
:1027300060EA71E00CC02FEF3FEF4FE75FE4C701A5
:10274000B6010E947A161816ACF464EA71E0CE0164
:10275000DF91CF911F910F91FF90EF90DF90CF907D
:10276000BF90AF909F908F907F906F905F904F90B1
:102770000C9469122FEF3FEF4FE75FECC701B601F2
:102780000E941D1587FDE1CF20E030E0A901C701BF
:10279000B6010E941D1587FF0AC06DE2CE010E949E
:1027A00081128C01F7FAF094F7F8F09402C000E07F
:1027B00010E0A12C60E070E080E09FE3AB1441F0FA
:1027C00020E030E040E251E40E942115A394F6CFCE
:1027D0009B01AC01C701B6010E94B9146B017C01D9
:1027E0000E948E152B013C010E94BA159B01AC0181
:1027F000C701B6010E94B8146B017C012AE0B30145
:10280000A201CE010E949E12080F191FBB2039F0B1
:1028100068EA71E0CE010E946912080F191F7B2C33
:10282000772041F120E030E040E251E4C701B601F9
:102830000E947E166B017C010E9489154B01AA241F
:1028400097FCA094BA2C2AE030E0B501A401CE0197
:102850000E94F712080F191FC501B4010E94BC1590
:102860009B01AC01C701B6010E94B8146B017C0149
:102870007A94D6CFC801DF91CF911F910F91FF902D
:10288000EF90DF90CF90BF90AF909F908F907F9010
:102890006F905F904F9008950C9461130F931F9366
:1028A000CF93DF93EC010E9461138C01CE010E9453
:1028B0008812800F911FDF91CF911F910F91089582
:1028C0004F925F926F927F92AF92BF92CF92DF92C0
:1028D000EF92FF920F931F93CF93DF93CDB7DEB7A5
:1028E00029013A01621B730B840B950B29893A89E4
:1028F0004B895C892A193B094C095D09298B3A8B64
:102900004B8B5C8B9B01AC0169897A898B899C8993
:102910000E942E17E418F50806091709A801970167
:102920000E946C172A0D3B1D4C1D5D1DCA01B9018B
:10293000DF91CF911F910F91FF90EF90DF90CF909B
:10294000BF90AF907F906F905F904F9008950895E3
:102950000E94FC0E0E94A7140E940C04C4E8D0E15F
:102960000E9473082097E1F30E948410F9CF089524
:102970005058BB27AA270ED083C174D130F079D12B
:1029800020F031F49F3F11F41EF469C10EF4E0957C
:10299000E7FB51C1E92F85D180F3BA1762077307AE
:1029A0008407950718F071F49EF59DC10EF4E0952B
:1029B0000B2EBA2FA02D0B01B90190010C01CA01F9
:1029C000A0011124FF27591B99F0593F50F4503EA4
:1029D00068F11A16F040A22F232F342F4427585F96
:1029E000F3CF469537952795A795F0405395C9F7AE
:1029F0007EF41F16BA0B620B730B840BBAF0915066
:102A0000A1F0FF0FBB1F661F771F881FC2F70EC004
:102A1000BA0F621F731F841F48F4879577956795D7
:102A2000B795F7959E3F08F0B3CF9395880F08F0C0
:102A30009927EE0F979587950895D9D008F481E0EE
:102A400008950CD01DC115D140F00CD130F021F407
:102A50005F3F19F0F0C0511147C101C122D198F375
:102A60009923C9F35523B1F3951B550BBB27AA270F
:102A700062177307840738F09F5F5F4F220F331F81
:102A8000441FAA1FA9F333D00E2E3AF0E0E830D04D
:102A900091505040E695001CCAF729D0FE2F27D050
:102AA000660F771F881FBB1F261737074807AB071E
:102AB000B0E809F0BB0B802DBF01FF2793585F4F93
:102AC0002AF09E3F510568F0B6C00EC15F3FECF39F
:102AD000983EDCF3869577956795B795F7959F5F58
:102AE000C9F7880F911D9695879597F90895E1E0AC
:102AF000660F771F881FBB1F621773078407BA070B
:102B000020F0621B730B840BBA0BEE1F88F7E09565
:102B1000089504D06894B111E7C00895CAD088F030
:102B20009F5790F0B92F9927B751A0F0D1F0660FB9
:102B3000771F881F991F1AF0BA95C9F712C0B130D4
:102B400081F0D1D0B1E00895CEC0672F782F8827CB
:102B5000B85F39F0B93FCCF3869577956795B39513
:102B6000D9F73EF490958095709561957F4F8F4F82
:102B70009F4F0895E89409C097FB3EF49095809587
:102B8000709561957F4F8F4F9F4F9923A9F0F92F33
:102B900096E9BB279395F695879577956795B795B1
:102BA000F111F8CFFAF4BB0F11F460FF1BC06F5F97
:102BB0007F4F8F4F9F4F16C0882311F096E911C0A9
:102BC000772321F09EE8872F762F05C0662371F0CA
:102BD00096E8862F70E060E02AF09A95660F771FDE
:102BE000881FDAF7880F9695879597F90895990FBA
:102BF0000008550FAA0BE0E8FEEF16161706E807C7
:102C0000F907C0F012161306E407F50798F0621BE7
:102C1000730B840B950B39F40A2661F0232B242BBC
:102C2000252B21F408950A2609F4A140A6958FEFDB
:102C3000811D811D089597F99F6780E870E060E02D
:102C400008959F3F31F0915020F4879577956795CF
:102C5000B795880F911D9695879597F908959FEFE1
:102C600080EC089500240A94161617061806090623
:102C7000089500240A9412161306140605060895F2
:102C8000092E0394000C11F4882352F0BB0F40F47A
:102C9000BF2B11F460FF04C06F5F7F4F8F4F9F4FBA
:102CA000089557FD9058440F551F59F05F3F71F03C
:102CB0004795880F97FB991F61F09F3F79F08795A3
:102CC0000895121613061406551FF2CF4695F1DF2C
:102CD00008C0161617061806991FF1CF86957105BC
:102CE000610508940895E894BB2766277727CB01F0
:102CF00097F908957CDF08F48FEF08950BD0C0CFCB
:102D0000B1DF28F0B6DF18F0952309F094CFA7CFF4
:102D10001124EACFC6DFA0F3959FD1F3950F50E0C1
:102D2000551F629FF001729FBB27F00DB11D639F7D
:102D3000AA27F00DB11DAA1F649F6627B00DA11D23
:102D4000661F829F2227B00DA11D621F739FB00DC9
:102D5000A11D621F839FA00D611D221F749F332739
:102D6000A00D611D231F849F600D211D822F762FD2
:102D70006A2F11249F5750408AF0E1F088234AF0CF
:102D8000EE0FFF1FBB1F661F771F881F915050401B
:102D9000A9F79E3F510570F04ECFA6CF5F3FECF3F1
:102DA000983EDCF3869577956795B795F795E79507
:102DB0009F5FC1F7FE2B880F911D9695879597F918
:102DC000089511F40EF44BCF3CCF73DFD0F3992369
:102DD000D9F3CEF39F57550B87FF39D00024A0E6D7
:102DE00040EA900180585695979528F4805C660FCC
:102DF000771F881F20F026173707480730F4621B1B
:102E0000730B840B202931294A2BA695179407941C
:102E1000202531254A2758F7660F771F881F20F095
:102E200026173707480730F4620B730B840B200D0D
:102E3000311D411DA09581F7B901842F9158880F4C
:102E4000969587950895D3DE880B990B0895915038
:102E50005040660F771F881FD2F70895DB018F93CC
:102E60009F930E94A017BF91AF91A29F800D911DCB
:102E7000A39F900DB29F900D11240895991B79E0A6
:102E800004C0991F961708F0961B881F7A95C9F7FA
:102E900080950895A1E21A2EAA1BBB1BFD010DC04F
:102EA000AA1FBB1FEE1FFF1FA217B307E407F507FA
:102EB00020F0A21BB30BE40BF50B661F771F881FD6
:102EC000991F1A9469F760957095809590959B016C
:102ED000AC01BD01CF010895052E97FB1EF40094AF
:102EE0000E94831757FD07D00E944A1707FC03D0A2
:102EF0004EF40C94831750954095309521953F4F93
:102F00004F4F5F4F089590958095709561957F4FD5
:102F10008F4F9F4F0895EE0FFF1F0590F491E02D06
:102F20000994A29FB001B39FC001A39F700D811DA2
:102F30001124911DB29F700D811D1124911D0895C2
:102F40000E949117A59F900DB49F900DA49F800D96
:102F5000911D11240895662777270C946418FC01AD
:102F600088279927E89421912032E9F3293010F03D
:102F70002E30C8F32B3241F02D3239F4689404C05E
:102F80000E944618820F911D219120532A30C0F3D0
:102F90001EF4909581959F4F08951F93FC019927EA
:102FA0008827BC01E89411911032E9F3193010F030
:102FB0001E30C8F31B3251F01D3249F4689406C02C
:102FC0000E943118610F711D811D911D11911053C7
:102FD0001A30B0F33EF490958095709561957F4FCF
:102FE0008F4F9F4F1F9108959111D1C1803219F0D9
:102FF00089508550D0F70895FB01DC0141505040C5
:1030000030F08D910190801919F40020B9F7881BD8
:10301000990B0895FA01A191B081009719F41097C6
:10302000E1F0CD01DC01CD010D90002011F4C001D3
:1030300013C0FB012191222319F02015D9F7F3CFFA
:10304000FB012191201519F41E92119606C022232E
:10305000C1F70D900020A1F7D001FA01A193B08330
:103060000895592F482F372F262F660F771F881F57
:10307000991F660F771F881F991F620F731F841F88
:10308000951F660F771F881F991F08957AE0979FF5
:10309000902D879F802D910D11240895F999FECFD1
:1030A00092BD81BDF89A992780B50895262FF99988
:1030B000FECF1FBA92BD81BD20BD0FB6F894FA9A1B
:1030C000F99A0FBE01960895A0E0B0E0EAE6F8E1B3
:1030D0000C94E8198B016115710521F0DB018C93CB
:1030E00011969C93EC015E01BFEFAB1ABB0A750110
:1030F000C8808C2D90E00E94F417892B11F0E50117
:10310000F2CFEDE2CE1208C07E01F2E0EF0EF11C2C
:10311000C980DD24D39409C02BE2C21205C07E0110
:1031200042E0E40EF11CC980D12CE701219743E075
:1031300050E060EE70E0CE010E94CA19892BC1F404
:10314000239645E050E06BED70E0CE010E94CA1975
:10315000892B09F425960115110519F0D801CD9395
:10316000DC93D11006C160E070E080E89FE70AC1FF
:1031700043E050E068ED70E0CE010E94CA19892B4F
:1031800059F40115110509F4F9C0B2E0EB0EF11C78
:10319000F801F182E082F2C0F70160E070E0CB015B
:1031A000C0E0D0E07F01A0EDAA2EAC0C29E02A15EA
:1031B00030F14D2D4260B42E2D2D2870D2FE04C06A
:1031C000211125C0219623C021112197A5E0B0E04F
:1031D0009B01AC010E94A017660F771F881F991FE3
:1031E0006A0D711D811D911D6839A9E97A078A0749
:1031F000A9E19A0760F0BD2DB660BB2E08C02EEF86
:10320000A2120AC0D3FC50C04D2D4860B42E319696
:10321000D701CC90DB2CC6CF2C2D2F7D253409F087
:1032200043C0A081AD3241F4BD2DB061DB2E7F01E2
:1032300022E0E20EF11C0CC07F01AB3231F04FEF07
:10324000E41AF40A21E030E006C0A2E0EA0EF11C24
:10325000A18122E030E0A053AA3018F0E21AF30A6C
:1032600023C0F70120E030E02038BCE03B075CF4ED
:10327000A901440F551F440F551F240F351F220F5E
:10328000331F2A0F311DAF014F5F5F4F7A01A081BD
:10329000A053AA3010F4FA01E7CFD4FE03C0319551
:1032A00021953109C20FD31FD1FE09C001151105A7
:1032B00031F0E1E0EE1AF108D801ED92FC920E94A3
:1032C000BA152D2D2370233019F04B015C0106C077
:1032D0004B015C01B7FAB094B7F8B09420E030E04D
:1032E000A901C501B4010E941D15882309F43EC03F
:1032F000D7FF06C0D195C195D10907EF10E002C0F4
:103300000FE011E06801B8E1CB1AD10890E2E92E94
:10331000F12CCE15DF0574F0F8012591359145911A
:103320005491C501B4010E947E164B015C01CE1977
:10333000DF09EFCF04501109F594E7940C151D0532
:1033400041F78A2D880F8B2D881F8F3F49F020E091
:1033500030E0A901C501B4010E941D15811106C00C
:1033600082E290E09093D6058093D505C501B40123
:1033700009C060E070E080E89FEF04C060E070E0AA
:1033800080EC9FE7CDB7DEB7ECE00C94041A9927E8
:1033900088270895FB01DC014150504088F08D9151
:1033A00081341CF08B350CF4805E659161341CF027
:1033B0006B350CF4605E861B611171F3990B0895F7
:1033C000881BFCCF2F923F924F925F926F927F9219
:1033D0008F929F92AF92BF92CF92DF92EF92FF9225
:1033E0000F931F93CF93DF93CDB7DEB7CA1BDB0BD1
:1033F0000FB6F894DEBF0FBECDBF09942A88398876
:1034000048885F846E847D848C849B84AA84B9847C
:10341000C884DF80EE80FD800C811B81AA81B98188
:10342000CE0FD11D0FB6F894DEBF0FBECDBFED019C
:10343000089511E0CCE1D1E004C0FE010E948D1797
:0C3440002296CE31D107C9F7F894FFCFD7
:10344C000000D705800001000000E803C800000060
:10345C000B0A03090C0D080200001011140F150EB5
:10346C000607050400000000000000004D3130206C
:10347C0058592000410020420020480020530020D1
:10348C0055002044004D31312000585934007365EB
:10349C007420746F2064656661756C742073657438
:1034AC0075700064697374616E63653D00504F53B1
:1034BC002058002059004F4B0000000000B70C8A28
:1034CC000C5F0C670C7A0C890C00000000D51041C5
:1034DC0012571070106210B3100D0A006E616E005E
:0A34EC00696E66006F7666002E0020
:00000001FF
