:100000000C9498000C94C0000C94C0000C94FE1248
:100010000C9428130C9452130C94C0000C94C00040
:100020000C94C0000C94C0000C94C0000C94D61129
:100030000C94C0000C94C0000C94C0000C94C00040
:100040000C94A2150C94C0000C9402180C94851802
:100050000C94C0000C94C0000C94C0000C94C00020
:100060000C943F140C94C000084AD73B3BCE016E61
:1000700084BCBFFDC12F3D6C74319ABD56833DDAFF
:100080003D00C77F11BED9E4BB4C3E916BAAAABE0E
:10009000000000803F00000000240027002A00002C
:1000A000000000250028002B00000000002300268F
:1000B00000290004040404040404040202020202ED
:1000C000020303030303030102040810204080011C
:1000D000020408102001020408102000000007009C
:1000E00002010000030406000000000000000049B7
:1000F0004E46494E4954594E414ECDCCCC3D0AD77F
:10010000233C17B7D13877CC2B329595E6241FB115
:100110004F0A000020410000C84200401C4620BC9D
:10012000BE4CCA1B0E5AAEC59D749C06AC13381843
:1001300011241FBECFEFD8E0DEBFCDBF11E0A0E09D
:10014000B1E0E2E8FEE302C005900D92AA38B107E3
:10015000D9F714E0AAE8B1E001C01D92AC33B107B1
:10016000E1F711E0C0E3D1E004C02297FE010E9454
:10017000F91ECA32D107C9F70E94AB180C943F1F71
:100180000C940000662777270C943303FC01882722
:100190009927E89421912032E9F3293010F02E308C
:1001A000C8F32B3241F02D3239F4689404C00E9418
:1001B0002401820F911D219120532A30C0F31EF497
:1001C000909581959F4F0895FB01DC01415050406F
:1001D00030F08D910190801919F40020B9F7881B37
:1001E000990B0895009731F4DA018D919C91009755
:1001F00009F40EC0DC01FB013D912191222319F08D
:100200003217C9F3FACF332331F4DA011D921C926D
:100210008827992708951197AF93BF93FB013D91CC
:100220002191321771F4332321F4882799271197EC
:1002300002C01E921196FA01A193B0839F918F91F3
:100240000895222369F7EACF7AE0979F902D879F40
:10025000802D910D11240895AEE0B0E0E2E3F1E0CD
:100260000C94161F8C0177FF02C060E070E86150AB
:1002700070407E836D831A83098386E08C83CE0170
:100280000196BA01A9010E9456012D813E8137FDD8
:1002900009C0EF81F8852E173F070CF4F901E00F34
:1002A000F11F10822E96E4E00C94321FABE0B0E018
:1002B000ECE5F1E00C94081F3C012B015A01FC0114
:1002C00017821682838181FD03C06FEF7FEFC6C165
:1002D0009AE0892E1E010894211C311CF301238110
:1002E000F20123FD859123FF81912F01882309F4D9
:1002F000B2C1853239F423FD859123FF81912F010D
:10030000853229F490E0B3010E94C104E7CF982F11
:10031000FF24EE249924FFE1FF15D0F09B3269F011
:100320009C3228F4903259F0933291F40EC09D32F1
:1003300049F0903369F441E024C052E0F52A84E0AA
:10034000F82A28C098E0F92A25C0E0E1FE2A22C058
:10035000F7FC29C0892F80538A3070F4F6FE05C05F
:10036000989C902C1124980E15C0E89CE02C112428
:10037000E80EF0E2FF2A0EC09E3229F4F6FC6BC1B3
:1003800040E4F42A07C09C3619F450E8F52A02C06C
:10039000983649F4F20123FD959123FF91912F01A5
:1003A000992309F0B8CF892F8554833018F08052F3
:1003B000833038F444E050E0A40EB51E5FE3598367
:1003C0000FC0933631F0933779F0933509F056C06A
:1003D00020C0F5018081898342E050E0A40EB51E63
:1003E000610101E010E012C0F501C080D180F6FC8F
:1003F00003C06FEF7FEF02C0692D70E042E050E074
:10040000A40EB51EC6010E94B6048C015FE7F5225A
:1004100014C0F501C080D180F6FC03C06FEF7FEF00
:1004200002C0692D70E042E050E0A40EB51EC60186
:100430000E94AB048C0150E8F52AF3FE07C01AC0F5
:1004400080E290E0B3010E94C104EA948E2D90E016
:1004500008171907A8F30EC0F601F7FC8591F7FEFF
:1004600081916F0190E0B3010E94C104E110EA9410
:10047000015010400115110579F7EAC0943611F0CA
:10048000993669F5F7FE08C0F50120813181428176
:10049000538184E090E00AC0F501808191819C0144
:1004A000442737FD4095542F82E090E0A80EB91EF6
:1004B0009FE6F92257FF09C0509540953095219548
:1004C0003F4F4F4F5F4FE0E8FE2ACA01B901A1013B
:1004D0002AE030E00E94ED04D82ED21840C09537B3
:1004E00029F41F2D1F7E2AE030E01DC01F2D197F2B
:1004F0009F3661F0903720F4983509F0ACC00FC0FA
:10050000903739F0983709F0A6C004C028E030E0F1
:100510000AC0106114FD146020E130E004C014FD35
:10052000166020E132E017FF08C0F501608171819B
:100530008281938144E050E008C0F501808191817F
:10054000BC0180E090E042E050E0A40EB51EA101A5
:100550000E94ED04D82ED2188FE7F82EF122F6FE75
:100560000BC05EEFF522D91438F4F4FE07C0F2FC9C
:1005700005C08FEEF82202C01D2D01C0192DF4FE1A
:100580000DC0FE01ED0DF11D8081803319F499EE4F
:10059000F92208C01F5FF2FE05C003C08F2D8678C8
:1005A00009F01F5F0F2DF3FC14C0F0FE0FC01E15E5
:1005B00010F09D2C0BC09D2C9E0C911A1E2D06C078
:1005C00080E290E0B3010E94C1041F5F1E15C0F3DA
:1005D00004C01E1510F4E11A01C0EE2404FF0FC080
:1005E00080E390E0B3010E94C10402FF1DC001FD41
:1005F00003C088E790E00EC088E590E00BC0802F34
:10060000867891F001FF02C08BE201C080E2F7FC26
:100610008DE290E0B3010E94C10406C080E390E047
:10062000B3010E94C1049A94D914C0F3DA94F10181
:10063000ED0DF11D808190E0B3010E94C104DD2029
:10064000A9F706C080E290E0B3010E94C104EA94D9
:10065000EE20C1F743CEF30166817781CB012B9663
:10066000E2E10C94241FA0E0B0E0E9E3F3E00C9495
:100670000E1FEC015B016115710519F0FB019183FF
:100680008083F9908F2D90E00E94FD1E892BC9F781
:10069000FDE2FF1621F4F990EE24E39405C02BE26D
:1006A000F21609F4F990EE248E0101501040C801B1
:1006B0006FEE70E043E050E00E949304892B01F557
:1006C0008E010E5F1F4FC80162EF70E045E050E001
:1006D0000E949304892B19F48E01095F1F4FA11406
:1006E000B10419F0F50111830083E0FC04C070E04F
:1006F00090E080E814C070E090E080E86FEF08C1FF
:10070000C80167EF70E043E050E00E949304892B3A
:1007100069F4A114B10429F470E090E080EC6FE773
:10072000F7C02296F501D183C083F6CF882499249F
:1007300040E050E060E070E0EF2DE053EA30A0F5DB
:10074000F2E0EF2A8E2D90E09C0128703070E2FEDE
:1007500006C0232B79F50894811C911C2BC0232BF8
:1007600019F0089481089108DB01CA0112E0880F92
:10077000991FAA1FBB1F1A95D1F7480F591F6A1F4F
:100780007B1F440F551F661F771F4E0F511D611DA4
:10079000711D483929E9520729E9620729E17207E1
:1007A00048F084E0E82A06C0EE3F31F4E3FC39C0AB
:1007B00098E0E92AF990C0CFE53311F0E53189F5E9
:1007C00029912D3219F4E0E1EE2A05C02B3219F0FF
:1007D00081E090E003C0299182E090E0E22FE053B5
:1007E000EA3018F0C81BD90B1CC020E030E0FCE058
:1007F00020383F075CF4C901880F991F880F991FA3
:10080000280F391F220F331F2E0F311DE991E0539E
:10081000EA3068F3E4FE03C0309521953F4F820E25
:10082000931ECE2CDD24E1FE07C0A114B10421F0FB
:100830002197F501D183C083CB01BA010E94B71C77
:100840007B018C01F3E0CF22DD2423E0C216D1042A
:1008500021F417FB109517F9109557016801C8018D
:10086000B70120E030E040E050E00E941A1C8823ED
:1008700009F44AC097FE0DC02EE0E22E21E0F22ED0
:100880009094819491089394C0E2D0E000E010E04D
:1008900012C096E2E92E91E0F92EF6CFF7012591EC
:1008A000359145915491C601B5010E94991D5B0196
:1008B0006C018C1A9D0A8C169D0684F7D595C795F8
:1008C0000F5F1F4F0630110529F08CEF9FEFE80EE8
:1008D000F91EF1CFC501D6017C018D018C2D880F49
:1008E0008D2D881F8F3F51F0C601B50120E030E00B
:1008F00040E050E00E941A1C882331F482E290E02C
:1009000090933B0480933A047E2D9F2D802F612F7E
:10091000272F392F482F562FB901CA01CDB7DEB77F
:10092000ECE00C942A1FFB01DC014150504088F0A0
:100930008D9181341CF08B350CF4805E65916134AF
:100940001CF06B350CF4605E861B611171F3990B22
:100950000895881BFCCFFC01059061507040011088
:10096000D8F7809590958E0F9F1F0895FC016150D8
:10097000704001900110D8F7809590958E0F9F1FC1
:1009800008950F931F93CF93DF938C01EB018B811D
:1009900081FF1BC082FF0DC02E813F818C819D8114
:1009A0002817390764F4E881F9810193F983E88312
:1009B00006C0E885F985802F0995892B31F48E8151
:1009C0009F8101969F838E8302C00FEF1FEFC801A6
:1009D000DF91CF911F910F910895FA01AA27283036
:1009E00051F1203181F1E8946F936E7F6E5F7F4FFC
:1009F0008F4F9F4FAF4FB1E03ED0B4E03CD0670F78
:100A0000781F891F9A1FA11D680F791F8A1F911DCA
:100A1000A11D6A0F711D811D911DA11D20D009F41A
:100A200068943F912AE0269F11243019305D31935C
:100A3000DEF6CF010895462F4770405D4193B3E045
:100A40000FD0C9F7F6CF462F4F70405D4A3318F0EC
:100A5000495D31FD4052419302D0A9F7EACFB4E09D
:100A6000A6959795879577956795BA95C9F7009755
:100A70006105710508959B01AC010A2E06945795F6
:100A8000479537952795BA95C9F7620F731F841F4D
:100A9000951FA01D08952F923F924F925F926F92E3
:100AA0007F928F929F92AF92BF92CF92DF92EF92FE
:100AB000FF920F931F93DF93CF93CDB7DEB72897A5
:100AC0000FB6F894DEBF0FBECDBF7B018C01A8012D
:100AD00097010E94541BA80197010E94991DA8012B
:100AE00097010E94991D5B016C01C801B70120E0CC
:100AF00030E040E450EC0E94991DA80197010E944B
:100B0000991D9B01AC01C601B5010E94541B20E058
:100B100030E040E85FE30E94541B69837A838B8353
:100B20009C83C801B70120E030E040E050EC0E9417
:100B3000991DA80197010E94991D1B012C01A80174
:100B400097010E94991D5B016C01C801B70120E06B
:100B500030E040E450E40E94991DA80197010E94F2
:100B6000991D9B01AC01C601B5010E94541B6D8308
:100B70007E838F839887C801B701A80197010E94DF
:100B8000991D3B014C01A80197010E94991D5B0131
:100B90006C01A20191010E94541BA80197010E94BF
:100BA000541B1B012C01C601B501A40193010E9435
:100BB000531B5B016C0169817A818B819C8120913F
:100BC000DB013091DC014091DD015091DE010E949A
:100BD000991D7B018C016D817E818F81988520918B
:100BE000E3013091E4014091E5015091E6010E945A
:100BF000991D9B01AC01C801B7010E94541B7B01E8
:100C00008C01C201B1012091EF013091F0014091BE
:100C1000F1015091F2010E94991D9B01AC01C801A4
:100C2000B7010E94541B7B018C01C601B5012091C4
:100C3000F7013091F8014091F9015091FA010E94B9
:100C4000991D9B01AC01C801B7010E94541B609320
:100C500021027093220280932302909324026981DF
:100C60007A818B819C812091DF013091E00140915C
:100C7000E1015091E2010E94991D7B018C016D817F
:100C80007E818F8198852091E7013091E801409124
:100C9000E9015091EA010E94991D9B01AC01C80134
:100CA000B7010E94541B7B018C01C201B10120914C
:100CB000F3013091F4014091F5015091F6010E9449
:100CC000991D9B01AC01C801B7010E94541B7B0117
:100CD0008C01C601B5012091FB013091FC014091CE
:100CE000FD015091FE010E94991D9B01AC01C801BC
:100CF000B7010E94541B60932502709326028093D3
:100D000027029093280228960FB6F894DEBF0FBEF4
:100D1000CDBFCF91DF911F910F91FF90EF90DF90AA
:100D2000CF90BF90AF909F908F907F906F905F908B
:100D30004F903F902F9008950F931F938AE891E072
:100D400061E00E9459108EE891E062E00E94591023
:100D500002E911E0C80167E00E945910C8010E9431
:100D60006910809396011092970188E991E00E94A2
:100D700092101F910F910895DF93CF9300D0CDB7BC
:100D8000DEB760E071E0AE014F5F5F4F0E94F2009E
:100D900089819A810E94C600BC0188E991E00E9485
:100DA000E8100F900F90CF91DF910895EF92FF928E
:100DB0000F931F93DF93CF93CDB7DEB7C055D040CD
:100DC0000FB6F894DEBF0FBECDBF6B96EEACFFAC96
:100DD0006B97FE01E35AFF4F8E010F5F1F4FC80153
:100DE00060E570E06D964EAD5FAD6D979F010E941E
:100DF0002C0116C08A3049F4D701ED91FC91019085
:100E0000F081E02DC7016DE00995D701ED91FC91CE
:100E10000190F081E02DC701D8016D918D010995F8
:100E2000F8018081882331F7C05BDF4F0FB6F8945B
:100E3000DEBF0FBECDBFCF91DF911F910F91FF900D
:100E4000EF900895CF93DF93C0E0D0E0FE01E55628
:100E5000FE4F8AE692E0BE0140810E944D1021962D
:100E6000C034D10599F7DF91CF910895DF92EF92C9
:100E7000FF920F931F93DF93CF9300D0CDB7DEB7D0
:100E800060E071E08E010F5F1F4FA8010E94F20029
:100E90007C01D02E012F20C080E090E060E071E066
:100EA0004D2D502F0E94F2007C01DC018C91853584
:100EB00049F4C70101960E94C6009093A80180934F
:100EC000A7010AC0843441F4C70101960E94C600FC
:100ED0009093AA018093A901EF28F1F6EDB7FEB730
:100EE00038970FB6F894FEBF0FBEEDBF31968DE96F
:100EF00093E0ADB7BEB712969C938E93119782E0A4
:100F000091E0938382838091A7019091A8019583BA
:100F100084838091A9019091AA01978386830E947E
:100F2000D606EDB7FEB738960FB6F894FEBF0FBEE3
:100F3000EDBF0E9422070F900F90CF91DF911F917C
:100F40000F91FF90EF90DF9008950F931F93CF9331
:100F5000DF93C0E0D0E08AE692E0BE010E94461036
:100F60000BE911E0FE01E00FF11F80832196C034F0
:100F7000D10589F7C80161E171E044E050E00E94C9
:100F8000E400009789F18DE993E066E171E00E9449
:100F9000F71A80E4F80111928A95E9F783E491E465
:100FA000A2E5B1E380939B0190939C01A0939D01E6
:100FB000B0939E018DE890E09093A4018093A301EB
:100FC00081E090E09093A6018093A50180EA90E0F3
:100FD0009093A8018093A7018AE590E09093AA01DD
:100FE0008093A9010E942207DF91CF911F910F9159
:100FF00008950F931F938DE993E040E052EC61E078
:1010000070E026E00E94F21608E911E06091960176
:1010100070919701C8010E94CF110E94A50720E09E
:1010200030E040E050E02093DB013093DC0140935E
:10103000DD015093DE012093DF013093E001409306
:10104000E1015093E2011092FF0110920002109210
:1010500001021092020210920302109204021092F6
:1010600005021092060280E090E0A0E8BFE38093C2
:10107000EF019093F001A093F101B093F20120935E
:10108000F3013093F4014093F5015093F60120935E
:101090000F0230931002409311025093120260919C
:1010A000A7017091A801C8010E94E8101F910F913B
:1010B0000895DF92EF92FF920F931F93DF93CF93E8
:1010C00000D0CDB7DEB760E071E08E010F5F1F4F3B
:1010D000A8010E94F2007C01D02E012F20C080E0E8
:1010E00090E060E071E04D2D502F0E94F2007C01F5
:1010F000FC018081873549F4C70101960E94C60032
:101100009093A4018093A3010AC0883441F4C701DD
:1011100001960E94C6009093A6018093A501EF2836
:10112000F1F60E9422070F900F90CF91DF911F914F
:101130000F91FF90EF90DF9008950F931F930DE9AB
:1011400013E0C8016BE271E00E940D1A6091A301E7
:101150007091A401C8014AE050E00E94DB19C80167
:1011600060E20E94E418C80140E050E060E872E4E8
:1011700022E030E00E94F41AC80160E20E94E41804
:101180004091DB015091DC016091DD017091DE0145
:10119000C80122E030E00E94F41AC80160E20E9417
:1011A000E4184091DF015091E0016091E1017091FC
:1011B000E201C80122E030E00E94F41AC80165E3B0
:1011C00071E00E940D1A6091A5017091A601C801FD
:1011D0004AE050E00E94DB19C80168E371E00E9418
:1011E0000D1A6091A7017091A801C8014AE050E072
:1011F0000E94DB19C8016BE371E00E940D1A609137
:10120000A9017091AA01C8014AE050E00E94EE19BC
:101210001F910F910895CF93DF93EC010E94C600B8
:101220008230910581F0833091051CF40197A9F477
:1012300006C08530910559F00A9779F40CC0CE01AB
:101240000E94BC060AC0CE010E94360706C0CE012D
:101250000E94590802C00E949D08DF91CF91089515
:101260002F923F924F925F926F927F928F929F92B6
:10127000AF92BF92CF92DF92EF92FF920F931F93A4
:101280003B014C0119012A01C801B701A4019301D6
:101290000E94531B3B014C01C601B501A201910103
:1012A0000E94531B5B016C01C401B301A4019301B3
:1012B0000E94991D7B018C01C601B501A601950113
:1012C0000E94991D9B01AC01C801B7010E94541BEB
:1012D0000E94001E7B018C01C401B301A80197018B
:1012E0000E941E1C6093190270931A0280931B02C5
:1012F00090931C02C601B501A80197010E941E1C13
:1013000060931D0270931E0280931F02909320022F
:101310001F910F91FF90EF90DF90CF90BF90AF9013
:101320009F908F907F906F905F904F903F902F9005
:1013300008951816190624F48AE891E060E003C0C5
:101340008AE891E061E00E947F108AE891E061E024
:101350000E946C108AE891E060E00E946C10089591
:101360001816190624F48EE891E060E003C08EE8B8
:1013700091E061E00E947F108EE891E061E00E94C0
:101380006C108EE891E060E00E946C1008952F923E
:101390003F924F925F926F927F928F929F92AF9205
:1013A000BF92CF92DF92EF92FF920F931F93DF9342
:1013B000CF93CDB7DEB72E970FB6F894DEBF0FBE32
:1013C000CDBF2090510130905201409007025090C3
:1013D00008028091FF0190910002481A590A60901A
:1013E0000B0270900C028091030290910402681A23
:1013F000790A630177FE04C0CC24DD24C618D7081F
:10140000520157FE04C0AA24BB24A418B508BA860A
:10141000A986AC14BD0414F4DA86C98629853A85F8
:10142000B901882777FD8095982F0E94B91C7B0110
:101430008C01B501882777FD8095982F0E94B91CF3
:10144000A80197010E941E1C6D837E838F8398875D
:10145000B601882777FD8095982F0E94B91CA801B6
:1014600097010E941E1C69837A838B839C838FEF74
:101470009FEF9C878B870F2EF0E0AF2EF0E0BF2E02
:10148000F0E0CF2EF0E0DF2EF02D860175018824EC
:101490009924E7C08091FF0190910002A091010280
:1014A000B091020282179307A407B50709F447C059
:1014B000C601B5012D813E814F8158850E94541B84
:1014C0005B016C0120E030E040E85FE30E948E1D8C
:1014D0008823ACF1141415042CF0EFEFFFEFFE8716
:1014E000ED8704C021E030E03E872D878D859E8505
:1014F0000E94B009C601B50120E030E040E85FE39A
:101500000E94531B5B016C018D859E859C014427C5
:1015100037FD4095542F8091FF0190910002A091DA
:101520000102B0910202820F931FA41FB51F809386
:10153000FF0190930002A0930102B0930202209158
:1015400003023091040240910502509106028091FD
:101550000B0290910C02A0910D02B0910E0228177F
:1015600039074A075B0709F447C0C801B701298159
:101570003A814B815C810E94541B7B018C0120E0ED
:1015800030E040E85FE30E948E1D8823ACF1161422
:1015900017042CF0EFEFFFEFFE87ED8704C021E08A
:1015A00030E03E872D878D859E850E949909C80170
:1015B000B70120E030E040E85FE30E94531B7B016D
:1015C0008C018D859E859C01442737FD4095542FC5
:1015D0008091030290910402A0910502B09106024D
:1015E000820F931FA41FB51F8093030290930402E0
:1015F000A0930502B09306028B859C85820D931DF6
:1016000020914F0130915001821793074CF0409187
:101610005101509152019C01481759070CF49A014D
:101620002090170230901802220E331EC1010E9432
:10163000EA1589859A858819990920915101309177
:10164000520140914F0150915001241B350B8217DC
:10165000930724F4E1E0F0E0FC87EB870894811C19
:10166000911C20910702309108024091090250918B
:101670000A0289859A85881599050CF00BCF20936D
:10168000FF013093000240930102509302028091C7
:101690000B0290910C02A0910D02B0910E0280936A
:1016A000030290930402A0930502B09306022E96C3
:1016B0000FB6F894DEBF0FBECDBFCF91DF911F9163
:1016C0000F91FF90EF90DF90CF90BF90AF909F90E1
:1016D0008F907F906F905F904F903F902F900895E4
:1016E0002F923F924F925F926F927F928F929F9232
:1016F000AF92BF92CF92DF92EF92FF920F931F9320
:10170000DF93CF93CDB7DEB7A4970FB6F894DEBFC3
:101710000FBECDBF8091E3019091E401A091E5015E
:10172000B091E6018B8F9C8FAD8FBE8F8091DB01D6
:101730009091DC01A091DD01B091DE018F8B988F3B
:10174000A98FBA8F6B8D7C8D8D8D9E8D2F89388D55
:10175000498D5A8D0E94531B3B014C018091E7013A
:101760009091E801A091E901B091EA018B8B9C8BEB
:10177000AD8BBE8B8091DF019091E001A091E101E2
:10178000B091E2018F87988BA98BBA8B6B897C898A
:101790008D899E892F85388949895A890E94531BD2
:1017A0007B018C01C401B301A40193010E94991D26
:1017B0005B016C01C801B701A80197010E94991D46
:1017C0009B01AC01C601B5010E94541B0E94001E82
:1017D0001B012C01C801B701A40193010E94C71B82
:1017E0007B018C01609313027093140280931502A5
:1017F000909316022BED3FE049E450E40E948E1DC9
:1018000018164CF4C801B7012BED3FE049EC50E449
:101810000E94531B12C0C801B7012BED3FE049E401
:1018200050EC0E941A1C882384F4C801B7012BEDE8
:101830003FE049EC50E40E94541B60931302709304
:10184000140280931502909316026F89788D898D0A
:101850009A8D2F85388949895A89EB8CFC8C0D8D9E
:101860001E8DAB88BC88CD88DE880E9430098091AF
:10187000190290911A02A0911B02B0911C02809350
:10188000F7019093F801A093F901B093FA018091C8
:101890001D0290911E02A0911F02B0912002809320
:1018A000FB019093FC01A093FD01B093FE01C201E6
:1018B000B1012FE632E143E85AE30E941A1C87FD8A
:1018C000B1C28091A5019091A601892B09F0CAC0EF
:1018D000609113027091140280911502909116028A
:1018E00020910F023091100240911102509112028A
:1018F0000E94531B7B018C012BED3FE049E450E437
:101900000E948E1D18164CF4C801B7012BED3FE064
:1019100049EC50E40E94531B12C0C801B7012BEDE3
:101920003FE049E450EC0E941A1C882354F4C8019B
:10193000B7012BED3FE049EC50E40E94541B7B01C2
:101940008C01C801B70120E030E040E05FE30E9475
:10195000991D7B018C016091A3017091A4018827DE
:1019600077FD8095982F0E94B91C9B01AC01C8019E
:10197000B7010E94991D2DED35EA4EE751E40E9412
:10198000991D7B018C016091FF0170910002809193
:101990000102909102020E94B91CA80197010E94C5
:1019A000541B0E94861C6093070270930802809368
:1019B000090290930A0260910302709104028091DF
:1019C0000502909106020E94B91CA80197010E948D
:1019D000541B0E94861C60930B0270930C02809330
:1019E0000D0290930E020E94C709C201B1012DEDB4
:1019F00035EA4EE751E40E94991D7B018C0160910C
:101A0000FF017091000280910102909102020E94F8
:101A1000B91CA80197010E94541B0E94861C609368
:101A20000702709308028093090290930A02609162
:101A300003027091040280910502909106020E94B7
:101A4000B91CA80197010E94531B0E94861C609339
:101A50000B0270930C0280930D0290930E020E9471
:101A6000C70990C1C201B1010E94861CDB01119619
:101A7000BE87AD87A090DB01B090DC01C090DD0196
:101A8000D090DE018091DF019091E001A091E10111
:101A9000B091E20189879A87AB87BC876091F30197
:101AA0007091F4018091F5019091F6012091EF0180
:101AB0003091F0014091F1015091F2010E94C71B59
:101AC0001B012C012BED3FE049E450E40E948E1DE8
:101AD000181654F4C201B1012BED3FE049EC50E47B
:101AE0000E94531B1B012C01A1E0B0E0BCA3ABA3DF
:101AF0008D859E85AA2797FDA095BA2F8F8F98A3D5
:101B0000A9A3BAA337C1ABA1BCA1BD01882777FDAA
:101B10008095982F0E94B91C7B018C016F8D78A154
:101B200089A19AA10E94B91C9B01AC01C801B7010F
:101B30000E941E1C0E944B0560912102709122029E
:101B40008091230290912402A60195010E94531BCB
:101B50003B014C0160912502709126028091270281
:101B60009091280229853A854B855C850E94531BFC
:101B70007B018C01C401B301A40193010E94991D52
:101B80005B016C01C801B701A80197010E94991D72
:101B90009B01AC01C601B5010E94541B0E94001EAE
:101BA00069837A838B839C83C801B701A401930165
:101BB0000E94C71B6D837E838F8398872BED3FE048
:101BC00049E450E40E948E1D181674F46D817E81E4
:101BD0008F8198852BED3FE049EC50E40E94531B28
:101BE0006D837E838F8398876D817E818F819885B9
:101BF000A20191010E94531B3B014C012BED3FE0E0
:101C000049E450E40E948E1D18164CF4C401B3013F
:101C10002BED3FE049EC50E40E94531B12C0C4017D
:101C2000B3012BED3FE049E450EC0E941A1C8823DD
:101C300054F4C401B3012BED3FE049EC50E40E94A1
:101C4000541B3B014C016091A3017091A4018827B2
:101C500077FD8095982F0E94B91C5B016C01609103
:101C6000FF017091000280910102909102020E9496
:101C7000B91C7B018C01C401B30120E030E040E0DD
:101C80005FE30E94991DA60195010E94991D9B0189
:101C9000AC0169817A818B819C810E94541B2DED5E
:101CA00035EA4EE751E40E94991D9B01AC01C80141
:101CB000B7010E94541B0E94861C60930702709318
:101CC00008028093090290930A02609103027091C6
:101CD000040280910502909106020E94B91C7B01CA
:101CE0008C01C401B30120E030E040E05FEB0E94D2
:101CF000991DA60195010E94991D9B01AC01698166
:101D00007A818B819C810E94541B2DED35EA4EE730
:101D100051E40E94991D9B01AC01C801B7010E94CA
:101D2000531B0E94861C60930B0270930C028093DD
:101D30000D0290930E020E94C709A0902102B0905C
:101D40002202C0902302D09024028091250290911B
:101D50002602A0912702B091280289879A87AB8733
:101D6000BC87ABA1BCA11196BCA3ABA32D803E80C8
:101D70004F805884EBA1FCA12D853E852E173F078F
:101D80000CF0C1CE8091130290911402A091150223
:101D9000B091160280930F0290931002A09311024B
:101DA000B09312028091E3019091E401A091E501CA
:101DB000B091E6018093DB019093DC01A093DD01FB
:101DC000B093DE018091E7019091E801A091E901D3
:101DD000B091EA018093DF019093E001A093E101CB
:101DE000B093E2018091F7019091F801A091F9017F
:101DF000B091FA018093EF019093F001A093F1016B
:101E0000B093F2018091FB019091FC01A091FD0142
:101E1000B091FE018093F3019093F401A093F5013A
:101E2000B093F601A4960FB6F894DEBF0FBECDBFF7
:101E3000CF91DF911F910F91FF90EF90DF90CF90A6
:101E4000BF90AF909F908F907F906F905F904F90DA
:101E50003F902F900895DF92EF92FF920F931F9380
:101E6000DF93CF9300D0CDB7DEB760E071E08E0195
:101E70000F5F1F4FA8010E94F2007C01D02E012F9E
:101E800037C080E090E060E071E04D2D502F0E945F
:101E9000F2007C01FC018081883569F4C70101965C
:101EA0000E94C2006093E3017093E4018093E50116
:101EB0009093E6011DC0893569F4C70101960E941F
:101EC000C2006093E7017093E8018093E901909369
:101ED000EA010EC08A3561F4C70101960E94C20072
:101EE0006093EB017093EC018093ED019093EE0110
:101EF000EF2839F60E94700B0F900F90CF91DF9171
:101F00001F910F91FF90EF90DF900895EF92FF9255
:101F10000F931F93CF93DF93EC010E94C600813093
:101F2000910521F04C9709F065C004C0CE010E94D4
:101F30002B0F60C00F2EF0E0EF2EF0E0FF2EF0E050
:101F40000F2FF0E01F2FF02DE092E301F092E4015B
:101F50000093E5011093E601E092E701F092E801B9
:101F60000093E9011093EA016091A7017091A80123
:101F700088E991E00E94E8100E94700BE092DB017A
:101F8000F092DC010093DD011093DE01E092DF01AD
:101F9000F092E0010093E1011093E2011092FF0141
:101FA000109200021092010210920202109203029B
:101FB00010920402109205021092060280E090E056
:101FC000A0E8BFE38093EF019093F001A093F101AB
:101FD000B093F201E092F301F092F4010093F50165
:101FE0001093F601E0920F02F0921002009311029A
:101FF00010931202DF91CF911F910F91FF90EF90FC
:102000000895FC018081873459F4CF0101960E9424
:10201000860F8DE993E06EE371E00E94F71A089550
:102020008D3451F4CF0101960E940B098DE993E0A4
:102030006EE371E00E94F71A0895CF93DF938DE964
:1020400093E00E945617892BF1F08DE993E00E94EE
:10205000721790916902E92FFF27E7FDF095C9E219
:10206000D2E0EC0FFD1F80839F5F909369028A305E
:1020700051F4CE010E94011080E4FE0111928A9574
:10208000E9F710926902DF91CF910895F999FECF97
:1020900072BD61BDF89A80B50895F999FECF1FBA57
:1020A00072BD61BD40BD0FB6F894FA9AF99A0FBEA1
:1020B0000895DC01E62FF0E0EE0FFF1FED5AFE4F12
:1020C00080818C93818111968C93119712966C93D9
:1020D0000895FC0181810895FF920F931F938C0155
:1020E000F62EFC01818161E00E942F16F8018181AA
:1020F0006F2D0E946E161F910F91FF900895FF9211
:102100000F931F938C01F62EFC01808161E00E94E9
:102110002F16F80180816F2D0E946E161F910F916E
:10212000FF900895FC0180916B028C3090F48083C5
:102130008F5F80936B02815090E0FC01EE0FFF1FD8
:10214000E80FF91FE459FD4F88EB9BE092838183F0
:1021500008958FEF80830895FC0120812C30B8F51D
:102160008181992787FD909548E850E0481B590BDD
:10217000440F551F440F551F6417750784F0828163
:10218000992787FD909548E552E0481B590B440F6D
:10219000551F440F551F641775070CF4AB014250CF
:1021A0005040CA01AA2797FDA095BA2F880F991F02
:1021B000AA1FBB1F4FB7F89430E0F901EE0FFF1FC5
:1021C000E20FF31FE459FD4F928381834FBF0895BF
:1021D000AF92BF92CF92DF92EF92FF920F931F9335
:1021E000CF93DF93EC019B0182E0603278070CF023
:1021F00048C077FF03C020E030E005C0653B7105B3
:1022000014F024EB30E000D000D0B901882777FD2E
:102210008095982F2981332727FD3095E8E8AE2E49
:10222000B12CA21AB30AAA0CBB1CAA0CBB1CCC244E
:10223000B7FCC094DC2CEA81FF27E7FDF09528E588
:1022400032E02E1B3F0B220F331F220F331F442778
:1022500037FD4095542FEDB7FEB72183328343837A
:10226000548320E030E040E050E004EBE02EF12C1D
:10227000012D112D0E940A1B9B010F900F900F90B2
:102280000F90CE01B9010E94AC10DF91CF911F9148
:102290000F91FF90EF90DF90CF90BF90AF90089597
:1022A000CF92DF92EF92FF921F93CF93DF93EC01D7
:1022B000162F7A01690188818C3008F064C0862F5E
:1022C00061E00E942F16888190E0FC01EE0FFF1F55
:1022D000E80FF91FE459FD4F1F738081807C812B2B
:1022E000808380E292E08E199F0964E070E00E9492
:1022F000A71E698380E699E08C199D0964E070E06F
:102300000E94A71E6A83A8818A2F6CE00E94871E04
:10231000682F70E0AB01440F551F460F571F440F45
:10232000551F440F551F20E030E0C901840F951F51
:10233000FC01EE0FFF1FE80FF91FE459FD4F8081EC
:1023400086FD15C02F5F3F4F2C30310571F724C03B
:102350001092800082E0809381001092850010929C
:102360008400B19A80916F00826080936F008A2F01
:1023700090E0FC01EE0FFF1FE80FF91FE459FD4F3D
:102380008081806480838881DF91CF911F91FF904D
:10239000EF90DF90CF900895672BD1F2E8CF40E225
:1023A00052E020E639E00E94501108951F920F92EA
:1023B0000FB60F9211242F933F934F935F936F9318
:1023C0007F938F939F93AF93BF93EF93FF938091EE
:1023D000900287FF05C010928500109284002BC0E8
:1023E00020919002332727FD309580916B0290E079
:1023F0002817390704F580919002992787FD909559
:10240000FC01EE0FFF1FE80FF91FE459FD4F80811B
:1024100086FF11C080919002992787FD9095FC015D
:10242000EE0FFF1FE80FF91FE459FD4F80818F73F6
:1024300060E00E946E16809190028F5F8093900200
:1024400020919002332727FD309580916B0290E018
:10245000281739070CF04EC0809190028C300CF098
:1024600049C0209184003091850080919002992785
:1024700087FD9095FC01EE0FFF1FE80FF91FE4594F
:10248000FD4F81819281820F931F909389008093E9
:10249000880080919002992787FD9095FC01EE0FAE
:1024A000FF1FE80FF91FE459FD4F808186FF2BC005
:1024B00080919002992787FD9095FC01EE0FFF1FF8
:1024C000E80FF91FE459FD4F80818F7361E00E948E
:1024D0006E1619C080E49CE905C08091840090913B
:1024E0008500049690938900809388008FEF8093F5
:1024F000900209C0809184009091850004968054D8
:102500009C4940F3EACFFF91EF91BF91AF919F912A
:102510008F917F916F915F914F913F912F910F908C
:102520000FBE0F901F9018950F931F93CF93DF93BB
:10253000FC01738D76957170A685B7859585772397
:1025400029F08C91892309F454C004C08C9189230B
:1025500009F04FC08389948920E001972FEF8F3FC6
:102560009207D9F7C589D689A685B785158560E014
:1025700031E040E050E000E0CE01202F01972FEF46
:102580008F3F9207D9F78C91812311F0632B03C001
:10259000832F80956823330F4F5F5F4F483051057D
:1025A00059F78789908D20E001972FEF8F3F920791
:1025B000D9F7711160958091D3022091D40290E0F7
:1025C00001968F73907030E08217930779F0E09155
:1025D000D302F0E0ED56FD4F60838091D30290E08E
:1025E00001968F7390708093D30203C0838D8160B6
:1025F000838FDF91CF911F910F9108951F920F92BA
:102600000FB60F9211242F933F934F935F936F93C5
:102610007F938F939F93AF93BF93EF93FF9380919B
:10262000910290919202009711F00E949412FF91F2
:10263000EF91BF91AF919F918F917F916F915F913A
:102640004F913F912F910F900FBE0F901F901895B3
:102650001F920F920FB60F9211242F933F934F9317
:102660005F936F937F938F939F93AF93BF93EF93FA
:10267000FF938091910290919202009711F00E9435
:102680009412FF91EF91BF91AF919F918F917F91A4
:102690006F915F914F913F912F910F900FBE0F90CF
:1026A0001F9018951F920F920FB60F9211242F931F
:1026B0003F934F935F936F937F938F939F93AF93CA
:1026C000BF93EF93FF9380919102909192020097B4
:1026D00011F00E949412FF91EF91BF91AF919F91E1
:1026E0008F917F916F915F914F913F912F910F90BB
:1026F0000FBE0F901F9018952091F60230E0809148
:10270000F502281B3109C90108954091F502809115
:10271000F602481718F02FEF3FEF0AC0E42FF0E061
:10272000EB52FD4F8081282F30E04F5F4093F50240
:10273000C9010895E091F5028091F602E81718F0BA
:10274000EFEFFFEF06C0F0E0EB52FD4F8081E82F86
:10275000F0E0CF010895089510921D0310921C031C
:1027600088EE93E0A0E0B0E080931E0390931F03F7
:10277000A0932003B09321038DE691E090931B0377
:1027800080931A030895CF92DF92EF92FF920F93F6
:102790001F93CF93DF937C016B018A018091190312
:1027A0008823A1F0C0E0D0E00DC0D701ED91FC91ED
:1027B000D601AC0FBD1F0190F081E02DC7016C91D7
:1027C00009952196C017D10780F304C0CB01642F6F
:1027D0000E942414C801DF91CF911F910F91FF90A7
:1027E000EF90DF90CF900895DF93CF930F92CDB706
:1027F000DEB7FC016983809119038823C9F08091B9
:102800001803803238F081E090E09383828320E0E7
:1028100030E015C080911703E82FF0E0E950FD4F3C
:10282000998190838F5F809317038093180305C06D
:10283000CE01019661E00E94241421E030E0C9013C
:102840000F90CF91DF910895482F613210F081E011
:10285000089580912603843011F082E008956093FA
:102860007103A0E5B3E0842F9C01F90102C08191BE
:102870008D938E2F841B8617D0F380E008951F92CE
:102880000F920FB60F9211242F933F934F935F93A4
:102890006F937F938F939F93AF93BF93EF93FF9328
:1028A0008091B90090E0887F90708836910509F496
:1028B000D3C0893691050CF03EC08033910509F4F0
:1028C0009DC081339105D4F48031910509F474C021
:1028D000813191053CF4009709F41CC1089709F077
:1028E00020C16AC08032910509F483C08832910505
:1028F00009F467C0489709F014C163C08834910592
:1029000009F4A8C0893491054CF48833910509F481
:1029100077C08034910509F004C182C088359105E3
:1029200009F483C08036910509F496C0803591057D
:1029300009F0F7C069C0803A910509F4A5C0813A51
:102940009105ECF48038910509F48CC0813891052B
:102950004CF48037910509F47FC08837910509F060
:10296000E0C07AC08039910509F47CC088399105AE
:1029700009F4C8C08838910509F0D3C0C3C0883BAA
:10298000910509F4ADC0893B91054CF4883A910555
:1029900009F491C0803B910509F0C3C08CC0883C0C
:1029A000910509F4B1C0883F910509F4AFC0803C9E
:1029B000910509F0B6C0A8C0809127038093BB00A1
:1029C000A1C090914E0380914F03981768F49091A5
:1029D0004E03E92FF0E0E25DFC4F80818093BB0065
:1029E0009F5F90934E038EC080912803882369F1E6
:1029F00003C080E28093930384ED8FC080E3FACF1D
:102A000088E38093930380C080914E039091BB0034
:102A1000E82FF0E0E25DFC4F90838F5F80934E03E0
:102A200090914E0380914F036BC080914E03909123
:102A3000BB00E82FF0E0E25DFC4F90838F5F809356
:102A40004E0380912803882329F481E08093290391
:102A500084EA63C084E961C083E080932603109216
:102A6000920350C080919203803208F04FC0809151
:102A700092039091BB00E82FF0E0EE58FC4F90835A
:102A80008F5F809392033EC080919203803230F436
:102A9000E0919203F0E0EE58FC4F108260919203B7
:102AA000E0912C03F0912D0382E793E070E009950B
:102AB0001092920329C084E0809326031092700341
:102AC00010927103E0912A03F0912B0309958091F4
:102AD0007103882329F481E08093710310925003DD
:102AE00090917003E92FF0E0E05BFC4F80818093D0
:102AF000BB009F5F9093700390917003809171036E
:102B0000981720F485EC03C085EC07C085E8809316
:102B1000BC0007C01092930385E98093BC0010921B
:102B20002603FF91EF91BF91AF919F918F917F917C
:102B30006F915F914F913F912F910F900FBE0F902A
:102B40001F9018951F920F920FB60F9211242F937A
:102B50003F938F939F93AF93BF93809198039091EE
:102B60009903A0919A03B0919B0330919C03019625
:102B7000A11DB11D232F2D5F2D3720F02D5701965C
:102B8000A11DB11D20939C038093980390939903FA
:102B9000A0939A03B0939B03809194039091950323
:102BA000A0919603B09197030196A11DB11D80934A
:102BB000940390939503A0939603B0939703BF91CA
:102BC000AF919F918F913F912F910F900FBE0F90DA
:102BD0001F901895019739F0880F991F880F991F3A
:102BE00002970197F1F70895789484B5826084BDC7
:102BF00084B5816084BD85B5826085BD85B5816001
:102C000085BDEEE6F0E0808181608083E1E8F0E060
:102C10001082808182608083808181608083E0E88F
:102C2000F0E0808181608083E1EBF0E0808184606E
:102C30008083E0EBF0E0808181608083EAE7F0E070
:102C400080818460808380818260808380818160D4
:102C500080838081806880831092C1000895CF9323
:102C6000DF93482F50E0CA0189539F4FFC013491F4
:102C70004D545F4FFA018491882369F190E0880FE9
:102C8000991FFC01EB56FF4FA591B491FC01E15651
:102C9000FF4FC591D491662351F42FB7F8948C91CE
:102CA000932F909589238C93888189230BC0623060
:102CB00061F42FB7F8948C91932F909589238C937E
:102CC0008881832B88832FBF06C09FB7F8948C918F
:102CD000832B8C939FBFDF91CF910895482F50E0B5
:102CE000CA0185529F4FFC012491CA0189539F4F0D
:102CF000FC0194914D545F4FFA013491332309F450
:102D000040C0222351F1233071F0243028F42130C7
:102D1000A1F0223011F514C02630B1F02730C1F0F7
:102D20002430D9F404C0809180008F7703C0809153
:102D300080008F7D8093800010C084B58F7702C0A3
:102D400084B58F7D84BD09C08091B0008F7703C0AA
:102D50008091B0008F7D8093B000E32FF0E0EE0F04
:102D6000FF1FE156FF4FA591B4912FB7F89466234A
:102D700021F48C919095892302C08C91892B8C939E
:102D80002FBF0895DC015C968C915C97FD01E80FE4
:102D9000F11DE35AFF4F20815C968C915C9790E087
:102DA00001968F7390705C968C935C975696ED911C
:102DB000FC91579720835096ED91FC91519780811B
:102DC000806480835B969C915B975C968C915C970A
:102DD000981739F45296ED91FC91539780818F7D2D
:102DE00080830895DF92EF92FF920F931F93CF930A
:102DF000DF93EC017A018B01D22EE889F98982E018
:102E00008083403081EE580780E0680780E07807D3
:102E1000A1F060E079E08DE390E0A80197010E94C5
:102E2000BA1E215030404040504056954795379546
:102E3000279580E12030380798F0E889F9891082D9
:102E400060E874E88EE190E0A80197010E94BA1E44
:102E50002150304040405040569547953795279532
:102E6000EC85FD853083EE85FF852083188EEC8907
:102E7000FD89D082EA89FB89808180618083EA892B
:102E8000FB89808188608083EA89FB8980818068F2
:102E90008083EA89FB8980818F7D8083DF91CF9158
:102EA0001F910F91FF90EF90DF900895FC01218D0D
:102EB000828D30E0205C3F4F281B31092F7330702A
:102EC000C9010895FC01918D828D981719F42FEF97
:102ED0003FEF06C0828DE80FF11D858D282F30E071
:102EE000C9010895DC0159969C9159975A968C9185
:102EF0005A97981719F42FEF3FEF10C05A968C91FC
:102F00005A97FD01E80FF11D958D5A968C915A97AD
:102F10008F5F8F735A968C93292F30E0C9010895E3
:102F2000CF93DF93EC01888D882361F419C08C91D5
:102F300085FF0AC0E889F989808185FF05C0CE0137
:102F40000E94C216AA89BB898C9185FD05C0E889BB
:102F5000F989808186FD04C00FB607FEE8CFF4CF63
:102F6000DF91CF9108950F931F93CF93DF93EC01DF
:102F7000062F9B8D8C8D981791F5E889F9898081B2
:102F800085FF2DC0EE89FF896083E889F9898081FA
:102F9000806480831DC00FB607FC08C0E889F989EA
:102FA000808185FF03C0CE010E94C2168C8D181748
:102FB00091F38B8DFE01E80FF11DE35AFF4F008363
:102FC0001B8FEA89FB8980818062808381E0888F02
:102FD00081E090E0DF91CF911F910F9108951B8DBB
:102FE0001F5F1F73E3CF8BE798E1892B51F080E0DF
:102FF00090E0892B31F00E947B18882311F00E9409
:10300000000008951F920F920FB60F9211242F9374
:103010008F939F93EF93FF93E091AD03F091AE03F5
:10302000808182FD16C0E091B303F091B40320814A
:103030009091B6039F5F9F738091B703981771F0CB
:10304000E091B603F0E0E356FC4F258F9093B60372
:1030500005C0E091B303F091B403E081FF91EF91DB
:103060009F918F912F910F900FBE0F901F901895E9
:103070001092A00310929F0388EE93E0A0E0B0E0CE
:103080008093A1039093A203A093A303B093A403FE
:103090008DE791E090939E0380939D0385EC90E0F3
:1030A0009093AA038093A90384EC90E09093AC03DF
:1030B0008093AB0380EC90E09093AE038093AD03DC
:1030C00081EC90E09093B0038093AF0382EC90E0AA
:1030D0009093B2038093B10386EC90E09093B40395
:1030E0008093B3031092B6031092B7031092B80303
:1030F0001092B90308958DE993E00E94561720E0DD
:10310000892B09F021E0822F08951F920F920FB6AC
:103110000F9211242F933F934F935F936F937F935D
:103120008F939F93AF93BF93EF93FF938DE993E0BA
:103130000E94C216FF91EF91BF91AF919F918F9125
:103140007F916F915F914F913F912F910F900FBEA3
:103150000F901F901895CF93DF930E94F4150E9453
:10316000F907C3EFD7E10E941D102097E1F30E94F9
:10317000F317F9CFCF92DF92EF92FF920F931F9345
:10318000CF93DF937C016B018A01C0E0D0E00FC0D8
:10319000D6016D916D01D701ED91FC910190F08107
:1031A000E02DC7010995C80FD91F01501040011526
:1031B000110571F7CE01DF91CF911F910F91FF9013
:1031C000EF90DF90CF900895DC01ED91FC9101909C
:1031D000F081E02D09950895EF92FF920F931F93D0
:1031E0008C01DC01ED91FC910190F081E02D6DE00E
:1031F00009957C01D801ED91FC910190F081E02DC1
:10320000C8016AE009959C012E0D3F1DC9011F915F
:103210000F91FF90EF900895CF93DF93EC0161152C
:10322000710519F420E030E00FC0DB010D900020A3
:10323000E9F71197A61BB70BE881F9810280F381AA
:10324000E02DAD0109959C01C901DF91CF91089551
:103250004F925F927F928F929F92AF92BF92CF9246
:10326000DF92EF92FF920F931F93DF93CF93CDB72F
:10327000DEB7A1970FB6F894DEBF0FBECDBF2C010D
:10328000742ECB01223008F42AE019A231E2C32EB9
:10329000D12CCC0EDD1E822E9924AA24BB24672DAE
:1032A000752FA50194010E94BA1E79018A01C801F7
:1032B000B701A50194010E94681E472D461B089482
:1032C000C108D1084A3014F4405D01C0495CF601E0
:1032D0004083E114F1040105110521F07E2C5F2DDE
:1032E000C801DDCFC201B6010E940C19A1960FB62C
:1032F000F894DEBF0FBECDBFCF91DF911F910F912C
:10330000FF90EF90DF90CF90BF90AF909F908F9005
:103310007F905F904F900895DC012115310541F4B5
:10332000ED91FC910190F081E02D642F09950895B5
:103330000E9428190895CF92DF92EF92FF920F9387
:103340001F93CF93DF93EC016A017B0121153105B7
:1033500041F4E881F9810190F081E02D642F099515
:103360001FC02A303105D1F477FF17C0E881F981F9
:103370000190F081E02D6DE209958C0144275527DD
:10338000BA014C195D096E097F09CE012AE00E943D
:1033900028199801280F391F04C02AE00E94281913
:1033A0009C01C901DF91CF911F910F91FF90EF9088
:1033B000DF90CF900895EF92FF920F931F937B01C0
:1033C0009A010027F7FC0095102FB801A7010E9471
:1033D0009B191F910F91FF90EF900895CF92DF926C
:1033E000EF92FF920F931F936C017B019A010027CC
:1033F000F7FC0095102FB801A7010E949B198C01C2
:10340000C6010E94EC18080F191FC8011F910F91E7
:10341000FF90EF90DF90CF9008950E940C190895CF
:103420007F928F929F92AF92BF92CF92DF92EF9254
:10343000FF920F931F93CF93DF934C017A018B017F
:10344000722ECB01BA01A80197010E944D1E88235C
:1034500021F0C40161E471E021C0C0E0D0E0570177
:103460006801E894D7F8C601B5012FEF3FEF4FE7A9
:103470005FE70E944D1E882351F4C601B5012FEF6E
:103480003FEF4FE75FE70E941A1C181614F0C1E0E7
:10349000D0E0219739F0C40165E471E00E940C1975
:1034A000EC0193C0C801B7012FEF3FEF4FE75FE496
:1034B0000E948E1D181654F0C801B7012FEF3FEF80
:1034C0004FE75FEC0E941A1C882324F4C40169E4CE
:1034D00071E0E4CFC801B70120E030E040E050E007
:1034E0000E941A1C87FD03C0C0E0D0E00EC0D401CA
:1034F000ED91FC910190F081E02DC4016DE2099500
:10350000EC0117FB109517F9109520E030E040E032
:103510005FE3DD240BC0CA01B90120E030E040E2E6
:1035200051E40E941E1C9B01AC01D394D71498F364
:10353000C801B7010E94541B5B016C010E948B1CE7
:103540007B018C01C401B801A7012AE030E00E9490
:103550008C19C80FD91F772039F0C4016DE471E0D0
:103560000E940C19C80FD91FC801B7010E94B71CCF
:103570009B01AC01C601B5010E94531B24C020E091
:1035800030E040E251E40E94991D7B018C010E94D1
:10359000861C5B016C01CC24B7FCC094DC2CC401FC
:1035A000B601A5012AE030E00E949B19C80FD91F7F
:1035B000C601B5010E94B91C9B01AC01C801B7014D
:1035C0000E94531B7A947720D1F6CE01DF91CF91E0
:1035D0001F910F91FF90EF90DF90CF90BF90AF9031
:1035E0009F908F907F9008950E94101A0895EF92F7
:1035F000FF920F931F937C010E940C198C01C7014D
:103600000E94EC18080F191FC8011F910F91FF901D
:10361000EF9008952F923F924F925F926F927F9218
:103620008F929F92AF92BF92CF92DF92EF92FF92D2
:103630000F931F93DF93CF93CDB7DEB73B014C01C0
:1036400019012A016D897E898F89988D6A197B09F4
:103650008C099D09621A730A840A950AA4019301D0
:103660000E94681EE218F30804091509A8019701D1
:103670000E94DC1E2A0D3B1D4C1D5D1DB901CA01B7
:10368000CF91DF911F910F91FF90EF90DF90CF903E
:10369000BF90AF909F908F907F906F905F904F9072
:1036A0003F902F9008955058BB27AA270ED0FCC1F9
:1036B000EDD130F0F2D120F031F49F3F11F41EF43F
:1036C000BDC10EF4E095E7FBB3C1E92FFED180F355
:1036D000BA17620773078407950718F071F49EF50F
:1036E00016C20EF4E0950B2EBA2FA02D0B01B901D6
:1036F00090010C01CA01A0011124FF27591B99F068
:10370000593F50F4503E68F11A16F040A22F232F73
:10371000342F4427585FF3CF469537952795A795C3
:10372000F0405395C9F77EF41F16BA0B620B730B6A
:10373000840BBAF09150A1F0FF0FBB1F661F771FDB
:10374000881FC2F70EC0BA0F621F731F841F48F490
:10375000879577956795B795F7959E3F08F0B3CF16
:103760009395880F08F09927EE0F97958795089500
:103770008DD158F080E891E009F49EEF8ED128F0C9
:1037800040E851E059F45EEF09C058C1C0C1E92FCB
:10379000E0789BD168F3092E052AC1F32617370775
:1037A0004807590738F00E2E07F8E02569F0E025A4
:1037B000E0640AC0EF6307F8009407FADB01B9017F
:1037C0009D01DC01CA01AD01EF9347D06DD10AD054
:1037D0005F91552331F02BED3FE049E450FD49EC7A
:1037E00063CF0895DF93DD27B92FBF7740E85FE30C
:1037F0001616170648075B0710F4D92F93D19F932D
:103800008F937F936F9346D2E8E6F0E01AD14CD1C4
:103810002F913F914F915F9198D1DD2349F09058BE
:10382000A2EA2AED3FE049EC5FE3D0785D274DDF67
:10383000DF913AC1D9D008F481E008950CD034C1A9
:103840002CD140F023D130F021F45F3F19F0F0C0CB
:1038500051115EC1F3C039D198F39923C9F35523AF
:10386000B1F3951B550BBB27AA2762177307840773
:1038700038F09F5F5F4F220F331F441FAA1FA9F329
:1038800033D00E2E3AF0E0E830D091505040E6951B
:10389000001CCAF729D0FE2F27D0660F771F881F7C
:1038A000BB1F261737074807AB07B0E809F0BB0B6B
:1038B000802DBF01FF2793585F4F2AF09E3F51058F
:1038C00068F0B6C025C15F3FECF3983EDCF3869507
:1038D00077956795B795F7959F5FC9F7880F911D05
:1038E0009695879597F90895E1E0660F771F881FF1
:1038F000BB1F621773078407BA0720F0621B730BA4
:10390000840BBA0BEE1F88F7E095089504D06894F5
:10391000B111FEC00895E1D088F09F5790F0B92F03
:103920009927B751A0F0D1F0660F771F881F991F14
:103930001AF0BA95C9F712C0B13081F0E8D0B1E001
:103940000895E5C0672F782F8827B85F39F0B93F11
:10395000CCF3869577956795B395D9F73EF4909516
:103960008095709561957F4F8F4F9F4F0895E89494
:1039700009C097FB3EF490958095709561957F4FB7
:103980008F4F9F4F9923A9F0F92F96E9BB27939565
:10399000F695879577956795B795F111F8CFFAF475
:1039A000BB0F11F460FF1BC06F5F7F4F8F4F9F4FA6
:1039B00016C0882311F096E911C0772321F09EE804
:1039C000872F762F05C0662371F096E8862F70E06A
:1039D00060E02AF09A95660F771F881FDAF7880F44
:1039E0009695879597F90895990F0008550FAA0B9A
:1039F000E0E8FEEF16161706E807F907C0F0121602
:103A00001306E407F50798F0621B730B840B950B04
:103A100039F40A2661F0232B242B252B21F4089559
:103A20000A2609F4A140A6958FEF811D811D0895F6
:103A300097F99F6780E870E060E008959FEF80EC61
:103A40000895DF93CF931F930F93FF92EF92DF922E
:103A50007B018C01689405C0DA2EEF0176D0FE015F
:103A6000E894A5912591359145915591AEF3EF01DB
:103A70002CDEFE019701A801DA9479F7DF90EF9030
:103A8000FF900F911F91CF91DF91089500240A9428
:103A90001616170618060906089500240A94121629
:103AA0001306140605060895092E0394000C11F45C
:103AB000882352F0BB0F40F4BF2B11F460FF04C009
:103AC0006F5F7F4F8F4F9F4F089557FD9058440F62
:103AD000551F59F05F3F71F04795880F97FB991F6D
:103AE00061F09F3F79F0879508951216130614062A
:103AF000551FF2CF4695F1DF08C0161617061806B7
:103B0000991FF1CF86957105610508940895E89491
:103B1000BB2766277727CB0197F9089565DF08F45F
:103B20008FEF08959B01AC0160E070E080E89FE3B7
:103B300085CE0BD0B9CFAADF28F0AFDF18F09523E0
:103B400009F076CF7BCF1124E3CFBFDFA0F3959FA1
:103B5000D1F3950F50E0551F629FF001729FBB2774
:103B6000F00DB11D639FAA27F00DB11DAA1F649F20
:103B70006627B00DA11D661F829F2227B00DA11DD3
:103B8000621F739FB00DA11D621F839FA00D611D59
:103B9000221F749F3327A00D611D231F849F600D7A
:103BA000211D822F762F6A2F11249F5750408AF0B3
:103BB000E1F088234AF0EE0FFF1FBB1F661F771F3F
:103BC000881F91505040A9F79E3F510570F030CFAB
:103BD0009FCF5F3FECF3983EDCF386957795679532
:103BE000B795F795E7959F5FC1F7FE2B880F911D5D
:103BF0009695879597F9089511F40EF41FCF51C04B
:103C00006CDFD0F39923D9F3CEF39F57550B87FF81
:103C100058D056959795B0E020F4660F771F881F0F
:103C2000BB1F1F930F9300249001A0018001F0019E
:103C3000A0E80E0F1F1F0A1E511D601B710B80098B
:103C4000B50B48F4600F711F801DB51F0E1B1F0BB5
:103C50000A0A510907C02E0F3F1F4A1F0E0F1F1FD0
:103C60000A1E511D660F771F881FBB1FA695F7956B
:103C7000E795F8F60617170708065B07211D311DA3
:103C8000411D0F911F91B901842F9158880F96956E
:103C9000879508959B01AC014CCFA6DE880B990B4C
:103CA00008959F3F49F0915028F486957795679540
:103CB000B7959F5F80389F4F880F9695879597F9A6
:103CC000089591505040660F771F881FD2F70895CE
:103CD000629FD001739FF001829FE00DF11D649FF0
:103CE000E00DF11D929FF00D839FF00D749FF00D7C
:103CF000659FF00D9927729FB00DE11DF91F639F1D
:103D0000B00DE11DF91FBD01CF0111240895991BCC
:103D100079E004C0991F961708F0961B881F7A95C2
:103D2000C9F780950895AA1BBB1B51E107C0AA1FC4
:103D3000BB1FA617B70710F0A61BB70B881F991F4C
:103D40005A95A9F780959095BC01CD01089597FBF0
:103D5000092E07260AD077FD04D0E5DF06D0002023
:103D60001AF4709561957F4F0895F6F790958195B7
:103D70009F4F0895A1E21A2EAA1BBB1BFD010DC087
:103D8000AA1FBB1FEE1FFF1FA217B307E407F5070B
:103D900020F0A21BB30BE40BF50B661F771F881FE7
:103DA000991F1A9469F760957095809590959B017D
:103DB000AC01BD01CF01089597FB092E05260ED059
:103DC00057FD04D0D7DF0AD0001C38F45095409539
:103DD000309521953F4F4F4F5F4F0895F6F79095DF
:103DE0008095709561957F4F8F4F9F4F0895EE0F8F
:103DF000FF1F0590F491E02D0994911106C08032C7
:103E000019F089508550D0F708959927882708958B
:103E10002F923F924F925F926F927F928F929F92DA
:103E2000AF92BF92CF92DF92EF92FF920F931F93C8
:103E3000CF93DF93CDB7DEB7CA1BDB0B0FB6F89479
:103E4000DEBF0FBECDBF09942A88398848885F84B9
:103E50006E847D848C849B84AA84B984C884DF802A
:103E6000EE80FD800C811B81AA81B981CE0FD11D0E
:103E70000FB6F894DEBF0FBECDBFED010895F894E4
:023E8000FFCF72
:103E820020004D3220553A256420443A25640D0A1B
:103E920000434152310073657420746F206465667B
:103EA20061756C74207365747570004D3130204DEE
:103EB20043415220002048002055002044004F4B2F
:103EC200006E616E00696E66006F7666002E00C835
:103ED20000E803FFFF0B0A03090C0D0802FFFF10A5
:103EE20011140F150E0607050400000000F413C399
:103EF200137C1385139A13AB1300000000B317BA97
:0A3F02001856177217621790170087
:00000001FF
