:100000000C9498000C94C0000C94C0000C94BA118D
:100010000C94E4110C940E120C94C0000C94C000CB
:100020000C94C0000C94C0000C94C0000C9492106E
:100030000C94C0000C94C0000C94C0000C94C00040
:100040000C945E140C94C0000C941E170C94A11711
:100050000C94C0000C94C0000C94C0000C94C00020
:100060000C94FB120C94C000084AD73B3BCE016EA7
:1000700084BCBFFDC12F3D6C74319ABD56833DDAFF
:100080003D00C77F11BED9E4BB4C3E916BAAAABE0E
:10009000000000803F00000000240027002A00002C
:1000A000000000250028002B00000000002300268F
:1000B00000290004040404040404040202020202ED
:1000C000020303030303030102040810204080011C
:1000D000020408102001020408102000000007009C
:1000E00002010000030406000000000000000049B7
:1000F0004E46494E4954594E414ECDCCCC3D0AD77F
:10010000233C17B7D13877CC2B329595E6241FB115
:100110004F0A000020410000C84200401C4620BC9D
:10012000BE4CCA1B0E5AAEC59D744B0568125417BF
:1001300011241FBECFEFD8E0DEBFCDBF11E0A0E09D
:10014000B1E0E2EEFCE302C005900D92AC39B107DC
:10015000D9F714E0ACE9B1E001C01D92A234B107B7
:10016000E1F711E0C0E3D1E004C02297FE010E9454
:10017000291ECA32D107C9F70E94C7170C946F1EF7
:100180000C940000662777270C943303FC01882722
:100190009927E89421912032E9F3293010F02E308C
:1001A000C8F32B3241F02D3239F4689404C00E9418
:1001B0002401820F911D219120532A30C0F31EF497
:1001C000909581959F4F0895FB01DC01415050406F
:1001D00030F08D910190801919F40020B9F7881B37
:1001E000990B0895009731F4DA018D919C91009755
:1001F00009F40EC0DC01FB013D912191222319F08D
:100200003217C9F3FACF332331F4DA011D921C926D
:100210008827992708951197AF93BF93FB013D91CC
:100220002191321771F4332321F4882799271197EC
:1002300002C01E921196FA01A193B0839F918F91F3
:100240000895222369F7EACF7AE0979F902D879F40
:10025000802D910D11240895AEE0B0E0E2E3F1E0CD
:100260000C94461E8C0177FF02C060E070E861507C
:1002700070407E836D831A83098386E08C83CE0170
:100280000196BA01A9010E9456012D813E8137FDD8
:1002900009C0EF81F8852E173F070CF4F901E00F34
:1002A000F11F10822E96E4E00C94621EABE0B0E0E9
:1002B000ECE5F1E00C94381E3C012B015A01FC01E5
:1002C00017821682838181FD03C06FEF7FEFC6C165
:1002D0009AE0892E1E010894211C311CF301238110
:1002E000F20123FD859123FF81912F01882309F4D9
:1002F000B2C1853239F423FD859123FF81912F010D
:10030000853229F490E0B3010E94C104E7CF982F11
:10031000FF24EE249924FFE1FF15D0F09B3269F011
:100320009C3228F4903259F0933291F40EC09D32F1
:1003300049F0903369F441E024C052E0F52A84E0AA
:10034000F82A28C098E0F92A25C0E0E1FE2A22C058
:10035000F7FC29C0892F80538A3070F4F6FE05C05F
:10036000989C902C1124980E15C0E89CE02C112428
:10037000E80EF0E2FF2A0EC09E3229F4F6FC6BC1B3
:1003800040E4F42A07C09C3619F450E8F52A02C06C
:10039000983649F4F20123FD959123FF91912F01A5
:1003A000992309F0B8CF892F8554833018F08052F3
:1003B000833038F444E050E0A40EB51E5FE3598367
:1003C0000FC0933631F0933779F0933509F056C06A
:1003D00020C0F5018081898342E050E0A40EB51E63
:1003E000610101E010E012C0F501C080D180F6FC8F
:1003F00003C06FEF7FEF02C0692D70E042E050E074
:10040000A40EB51EC6010E94B6048C015FE7F5225A
:1004100014C0F501C080D180F6FC03C06FEF7FEF00
:1004200002C0692D70E042E050E0A40EB51EC60186
:100430000E94AB048C0150E8F52AF3FE07C01AC0F5
:1004400080E290E0B3010E94C104EA948E2D90E016
:1004500008171907A8F30EC0F601F7FC8591F7FEFF
:1004600081916F0190E0B3010E94C104E110EA9410
:10047000015010400115110579F7EAC0943611F0CA
:10048000993669F5F7FE08C0F50120813181428176
:10049000538184E090E00AC0F501808191819C0144
:1004A000442737FD4095542F82E090E0A80EB91EF6
:1004B0009FE6F92257FF09C0509540953095219548
:1004C0003F4F4F4F5F4FE0E8FE2ACA01B901A1013B
:1004D0002AE030E00E94ED04D82ED21840C09537B3
:1004E00029F41F2D1F7E2AE030E01DC01F2D197F2B
:1004F0009F3661F0903720F4983509F0ACC00FC0FA
:10050000903739F0983709F0A6C004C028E030E0F1
:100510000AC0106114FD146020E130E004C014FD35
:10052000166020E132E017FF08C0F501608171819B
:100530008281938144E050E008C0F501808191817F
:10054000BC0180E090E042E050E0A40EB51EA101A5
:100550000E94ED04D82ED2188FE7F82EF122F6FE75
:100560000BC05EEFF522D91438F4F4FE07C0F2FC9C
:1005700005C08FEEF82202C01D2D01C0192DF4FE1A
:100580000DC0FE01ED0DF11D8081803319F499EE4F
:10059000F92208C01F5FF2FE05C003C08F2D8678C8
:1005A00009F01F5F0F2DF3FC14C0F0FE0FC01E15E5
:1005B00010F09D2C0BC09D2C9E0C911A1E2D06C078
:1005C00080E290E0B3010E94C1041F5F1E15C0F3DA
:1005D00004C01E1510F4E11A01C0EE2404FF0FC080
:1005E00080E390E0B3010E94C10402FF1DC001FD41
:1005F00003C088E790E00EC088E590E00BC0802F34
:10060000867891F001FF02C08BE201C080E2F7FC26
:100610008DE290E0B3010E94C10406C080E390E047
:10062000B3010E94C1049A94D914C0F3DA94F10181
:10063000ED0DF11D808190E0B3010E94C104DD2029
:10064000A9F706C080E290E0B3010E94C104EA94D9
:10065000EE20C1F743CEF30166817781CB012B9663
:10066000E2E10C94541EA0E0B0E0E9E3F3E00C9466
:100670003E1EEC015B016115710519F0FB019183D0
:100680008083F9908F2D90E00E942D1E892BC9F751
:10069000FDE2FF1621F4F990EE24E39405C02BE26D
:1006A000F21609F4F990EE248E0101501040C801B1
:1006B0006FEE70E043E050E00E949304892B01F557
:1006C0008E010E5F1F4FC80162EF70E045E050E001
:1006D0000E949304892B19F48E01095F1F4FA11406
:1006E000B10419F0F50111830083E0FC04C070E04F
:1006F00090E080E814C070E090E080E86FEF08C1FF
:10070000C80167EF70E043E050E00E949304892B3A
:1007100069F4A114B10429F470E090E080EC6FE773
:10072000F7C02296F501D183C083F6CF882499249F
:1007300040E050E060E070E0EF2DE053EA30A0F5DB
:10074000F2E0EF2A8E2D90E09C0128703070E2FEDE
:1007500006C0232B79F50894811C911C2BC0232BF8
:1007600019F0089481089108DB01CA0112E0880F92
:10077000991FAA1FBB1F1A95D1F7480F591F6A1F4F
:100780007B1F440F551F661F771F4E0F511D611DA4
:10079000711D483929E9520729E9620729E17207E1
:1007A00048F084E0E82A06C0EE3F31F4E3FC39C0AB
:1007B00098E0E92AF990C0CFE53311F0E53189F5E9
:1007C00029912D3219F4E0E1EE2A05C02B3219F0FF
:1007D00081E090E003C0299182E090E0E22FE053B5
:1007E000EA3018F0C81BD90B1CC020E030E0FCE058
:1007F00020383F075CF4C901880F991F880F991FA3
:10080000280F391F220F331F2E0F311DE991E0539E
:10081000EA3068F3E4FE03C0309521953F4F820E25
:10082000931ECE2CDD24E1FE07C0A114B10421F0FB
:100830002197F501D183C083CB01BA010E94AC1B83
:100840007B018C01F3E0CF22DD2423E0C216D1042A
:1008500021F417FB109517F9109557016801C8018D
:10086000B70120E030E040E050E00E940F1B8823F9
:1008700009F44AC097FE0DC02EE0E22E21E0F22ED0
:100880009094819491089394C0E2D0E000E010E04D
:1008900012C096E2E92E91E0F92EF6CFF7012591EC
:1008A000359145915491C601B5010E948E1C5B01A2
:1008B0006C018C1A9D0A8C169D0684F7D595C795F8
:1008C0000F5F1F4F0630110529F08CEF9FEFE80EE8
:1008D000F91EF1CFC501D6017C018D018C2D880F49
:1008E0008D2D881F8F3F51F0C601B50120E030E00B
:1008F00040E050E00E940F1B882331F482E290E038
:1009000090934104809340047E2D9F2D802F612F72
:10091000272F392F482F562FB901CA01CDB7DEB77F
:10092000ECE00C945A1EFB01DC014150504088F071
:100930008D9181341CF08B350CF4805E65916134AF
:100940001CF06B350CF4605E861B611171F3990B22
:100950000895881BFCCFFC01059061507040011088
:10096000D8F7809590958E0F9F1F0895FC016150D8
:10097000704001900110D8F7809590958E0F9F1FC1
:1009800008950F931F93CF93DF938C01EB018B811D
:1009900081FF1BC082FF0DC02E813F818C819D8114
:1009A0002817390764F4E881F9810193F983E88312
:1009B00006C0E885F985802F0995892B31F48E8151
:1009C0009F8101969F838E8302C00FEF1FEFC801A6
:1009D000DF91CF911F910F910895FA01AA27283036
:1009E00051F1203181F1E8946F936E7F6E5F7F4FFC
:1009F0008F4F9F4FAF4FB1E03ED0B4E03CD0670F78
:100A0000781F891F9A1FA11D680F791F8A1F911DCA
:100A1000A11D6A0F711D811D911DA11D20D009F41A
:100A200068943F912AE0269F11243019305D31935C
:100A3000DEF6CF010895462F4770405D4193B3E045
:100A40000FD0C9F7F6CF462F4F70405D4A3318F0EC
:100A5000495D31FD4052419302D0A9F7EACFB4E09D
:100A6000A6959795879577956795BA95C9F7009755
:100A70006105710508959B01AC010A2E06945795F6
:100A8000479537952795BA95C9F7620F731F841F4D
:100A9000951FA01D08950F931F9388E092E062E0D8
:100AA0000E94B30E8CE092E061E00E94B30E80E100
:100AB00092E06AE00E94C60E04E112E0C80167E01D
:100AC0000E94B30EC8010E94C30E809318021092B8
:100AD00019028AE192E00E944E0F1F910F91089532
:100AE000CF93DF93C0E0D0E0FE01E456FE4F80E7F5
:100AF00092E0BE0140810E94420F2196C034D10590
:100B000099F7DF91CF9108950F931F93CF93DF93C0
:100B1000C0E0D0E080E792E0BE010E943B0F0CE90C
:100B200011E0FE01E00FF11F80832196C034D10552
:100B300089F7C80160E071E046E050E00E94E400FF
:100B40000097B9F183EA93E067E071E00E94261A0A
:100B500080E4F80111928A95E9F7D801E0E0F1E02C
:100B600086E001900D928150E1F71092A40110925D
:100B7000A50188EA90E09093A7018093A6018EECEE
:100B800090E09093A9018093A80180E590E0909374
:100B9000AB018093AA0180EA90E09093AD0180932D
:100BA000AC018AE590E09093AF018093AE010E9482
:100BB00070058091A401882329F481E080930402C8
:100BC0008FEF04C08FEF8093040281E080930502D1
:100BD0008091A501882329F481E0809306028FEF9C
:100BE00004C08FEF8093060281E08093070264E6E1
:100BF00070E08091AA019091AB01AB01481B590BA9
:100C0000CA01880F991F9A01E3E0220F331FEA956A
:100C1000E1F7820F931F9093620180936101469FD9
:100C2000C001479F900D569F900D11249093640131
:100C300080936301DF91CF911F910F910895DF920F
:100C4000EF92FF920F931F93DF93CF9300D0CDB716
:100C5000DEB76CE171E08E010F5F1F4FA8010E94AB
:100C6000F2007C01D02E012F3DC080E090E06CE1CD
:100C700071E04D2D502F0E94F2007C01FC0180811B
:100C8000813439F4C70101960E94C6008093A40103
:100C900029C0823439F4C70101960E94C6008093AE
:100CA000A50120C08D3449F4C70101960E94C600F9
:100CB0009093A7018093A60115C08E3449F4C70113
:100CC00001960E94C6009093A9018093A8010AC0D2
:100CD000843441F4C70101960E94C6009093AB0191
:100CE0008093AA01EF2809F60E9470050F900F90DB
:100CF000CF91DF911F910F91FF90EF90DF900895BA
:100D0000DF93CF9300D0CDB7DEB76CE171E0AE01D9
:100D10004F5F5F4F0E94F20089819A810E94C60056
:100D200090932E0280932D020F900F90CF91DF9120
:100D30000895DF93CF9300D0CDB7DEB76CE171E0BB
:100D4000AE014F5F5F4F0E94F20089819A810E943D
:100D5000C600BC018AE192E00E94A40F0F900F90A0
:100D6000CF91DF910895EF92FF920F931F93DF933E
:100D7000CF93CDB7DEB7C055D0400FB6F894DEBFE5
:100D80000FBECDBF6B96EEACFFAC6B97FE01E35A86
:100D9000FF4F8E010F5F1F4FC80160E570E06D9639
:100DA0004EAD5FAD6D979F010E942C0116C08A3039
:100DB00049F4D701ED91FC910190F081E02DC7013C
:100DC0006DE00995D701ED91FC910190F081E02D46
:100DD000C701D8016D918D010995F80180818823A3
:100DE00031F7C05BDF4F0FB6F894DEBF0FBECDBF4B
:100DF000CF91DF911F910F91FF90EF900895DF92B7
:100E0000EF92FF920F931F93DF93CF9300D0CDB754
:100E1000DEB76CE171E08E010F5F1F4FA8010E94E9
:100E2000F2007C01D02E012F20C080E090E06CE128
:100E300071E04D2D502F0E94F2007C01DC018C915D
:100E4000853549F4C70101960E94C6009093AD0113
:100E50008093AC010AC0843441F4C70101960E941A
:100E6000C6009093AF018093AE01EF28F1F6EDB785
:100E7000FEB738970FB6F894FEBF0FBEEDBF3196A0
:100E800083EA93E0ADB7BEB712969C938E93119709
:100E90008EE191E0938382838091AC019091AD01CA
:100EA000958384838091AE019091AF01978386836F
:100EB0000E94B306EDB7FEB738960FB6F894FEBFA2
:100EC0000FBEEDBF0E9470050F900F90CF91DF9184
:100ED0001F910F91FF90EF90DF9008950F931F9354
:100EE00003EA13E0C8016DE271E00E9429196091E4
:100EF000A6017091A701C8014AE050E00E94F718CE
:100F0000C80160E20E9400186091A8017091A901D7
:100F1000C8014AE050E00E94F718C80160E20E9450
:100F200000184091E0015091E1016091E20170915F
:100F3000E301C80122E030E00E94101AC80160E21B
:100F40000E9400184091E4015091E5016091E60192
:100F50007091E701C80122E030E00E94101AC80138
:100F600060E20E940018C80169E371E00E9429193B
:100F70006091A401C80170E04AE050E00E94F718B7
:100F8000C8016BE371E00E9429196091A501C801B5
:100F900070E04AE050E00E94F718C8016EE371E08B
:100FA0000E9429196091AA017091AB01C8014AE021
:100FB00050E00E94F718C80161E471E00E9429190D
:100FC0006091AC017091AD01C8014AE050E00E940F
:100FD000F718C80164E471E00E9429196091AE011C
:100FE0007091AF01C8014AE050E00E940A191F91B8
:100FF0000F910895DF93CF9300D0CDB7DEB76CE1AA
:1010000071E0AE014F5F5F4F0E94F20089819A81CB
:101010000E94C600BC0180E192E00E94080F0F9080
:101020000F90CF91DF910895CF93DF93EC010E9451
:10103000C60083309105D1F08430910534F48130BD
:10104000910561F0029709F50DC085309105B1F069
:10105000853091057CF00A97C1F414C0CE010E943E
:10106000990613C0CE010E94FF060FC0CE010E9458
:1010700080060BC0CE010E94FA0707C0CE010E9475
:101080001F0603C0CE010E946E07DF91CF91089525
:10109000EF92FF920F931F9379018A012BED3FE0AE
:1010A00049E450E40E94131B20E030E04AE756E494
:1010B0000E948E1C20E030E040E05FE30E948E1C26
:1010C0000E94F11C0E947B1B6093250270932602F4
:1010D0008093270290932802C801B7012BED3FE0CF
:1010E00049E450E40E94131B20E030E04AE756E454
:1010F0000E948E1C20E030E040E05FE30E948E1CE6
:101100000E94F11C0E947B1B6093290270932A02AB
:1011100080932B0290932C021F910F91FF90EF90E0
:1011200008952F923F924F925F926F927F928F928B
:101130009F92AF92BF92CF92DF92EF92FF920F9366
:101140001F93DF93CF93CDB7DEB7A4970FB6F89474
:10115000DEBF0FBECDBF3B014C0159016A0160915A
:10116000A6017091A701882777FD8095982F0E948E
:10117000AE1B1B012C016091A8017091A901882769
:1011800077FD8095982F0E94AE1B69837A838B83AD
:101190009C83C201B101A20191010E94831A6D8357
:1011A0007E838F839887C201B1019058A20191017B
:1011B0000E948E1C69877A878B879C876D817E81D0
:1011C0008F819885A20191010E948E1C6D877E8778
:1011D0008F87988B69817A818B819C819B01AC017F
:1011E0000E948E1C698B7A8B8B8B9C8B69817A8198
:1011F0008B819C819B01AC010E94831A29813A81D9
:101200004B815C810E948E1C6D8B7E8B8F8B988FA7
:10121000C401B301A40193010E948E1C698F7A8FCF
:101220008B8F9C8FC601B501A60195010E948E1C73
:101230006D8F7E8F8F8F98A369857A858B859C852E
:10124000A20191010E948E1CA20191010E948E1C9C
:101250007B018C016D857E858F85988929813A81F6
:101260004B815C810E948E1C29813A814B815C817B
:101270000E948E1C9B01AC01C801B7010E94831A19
:101280007B018C016D857E858F859889A4019301F2
:101290000E948E1CA40193010E948E1C9B01AC0134
:1012A000C801B7010E94831A7B018C016D857E8580
:1012B0008F859889A60195010E948E1CA601950133
:1012C0000E948E1C9B01AC01C801B7010E94831AC9
:1012D0007B018C0169897A898B899C8929813A8172
:1012E0004B815C810E948E1C29813A814B815C81FB
:1012F0000E948E1C9B01AC01C801B7010E94821A9A
:101300007B018C016D897E898F89988DA401930161
:101310000E948E1CA40193010E948E1C9B01AC01B3
:10132000C801B7010E94831A7B018C016D897E89F7
:101330008F89988DA60195010E948E1CA6019501AA
:101340000E948E1C9B01AC01C801B7010E94831A48
:101350007B018C01698D7A8D8B8D9C8DA40193010D
:101360000E948E1CA40193010E948E1C9B01AC0163
:10137000C801B7010E94821A7B018C01C401B3012C
:1013800020E030E040E050EC0E948E1CA40193016C
:101390000E948E1CA60195010E948E1CA60195013B
:1013A0000E948E1C9B01AC01C801B7010E94831AE8
:1013B0007B018C016D8D7E8D8F8D98A1A60195018D
:1013C0000E948E1CA60195010E948E1C9B01AC01FF
:1013D000C801B7010E94821A0E94151D7B018C0171
:1013E000C201B101A20191010E948E1C69A37AA3DE
:1013F0008BA39CA36D817E818F819885A601950129
:101400000E948E1CA80197010E94831A7B018C0107
:10141000C201B10120E030E040E050EC0E948E1C9F
:10142000A40193010E948E1C9B01AC0169A17AA1C9
:101430008BA19CA10E94831A29893A894B895C89D6
:101440000E94821A298D3A8D4B8D5C8D0E94831AE1
:101450002D8D3E8D4F8D58A10E94831A9B01AC01AA
:10146000C801B7010E94131B0E94E71A9B01AC013F
:101470000E94831A60931D0270931E0280931F02C4
:10148000909320026D817E818F81988529813A8198
:101490004B815C810E948E1C7B018C0169A17AA129
:1014A0008BA19CA1A80197010E94831A29893A89DE
:1014B0004B895C890E94831A298D3A8D4B8D5C8DF6
:1014C0000E94821A2D8D3E8D4F8D58A10E94821A46
:1014D0005B016C0169857A858B859C85A8019701E4
:1014E0000E94831A29893A894B895C890E94821A51
:1014F000298D3A8D4B8D5C8D0E94831A2D8D3E8DEA
:101500004F8D58A10E94831AA60195010E948E1C3E
:101510000E94151DA60195010E94131B0E94E71A47
:101520009B01AC010E94831A6093210270932202F6
:101530008093230290932402A4960FB6F894DEBF02
:101540000FBECDBFCF91DF911F910F91FF90EF9014
:10155000DF90CF90BF90AF909F908F907F906F90D3
:101560005F904F903F902F9008956091A8017091E7
:10157000A9012091A6013091A701620F731F88274E
:1015800077FD8095982F0E94AE1B2AE037ED43E24D
:101590005CE30E94821A90586093E0017093E1012D
:1015A0008093E2019093E30120E030E040E050E0DE
:1015B0002093E4013093E5014093E6015093E70165
:1015C0000E94910860911D0270911E0280911F027D
:1015D000909120026093F4017093F5018093F601DD
:1015E0009093F70120912102309122024091230231
:1015F000509124022093F8013093F9014093FA01AD
:101600005093FB010E944808809125029091260288
:1016100090930102809300028091290290912A0206
:10162000909303028093020208950F931F9383EA1D
:1016300093E040E052EC61E070E026E00E940E167C
:101640000E9484050AE112E060911802709119026B
:10165000C8010E948B106091AC017091AD01C8016E
:101660000E94A40F0E94B50A1F910F9108951816A9
:10167000190624F488E092E060E003C088E092E07C
:1016800061E00E94F50E88E092E061E00E94E20EC7
:1016900088E092E060E00E94E20E089518161906B4
:1016A00024F48CE092E060E003C08CE092E061E022
:1016B0000E94F50E8CE092E061E00E94E20E8CE068
:1016C00092E060E00E94E20E08952F923F924F92C6
:1016D0005F926F927F928F929F92AF92BF92CF92C2
:1016E000DF92EF92FF920F931F93DF93CF93CDB7CB
:1016F000DEB72C970FB6F894DEBF0FBECDBF20919A
:101700006301309164013A8729872090FC01309071
:10171000FD018091000290910102281A390A40903F
:10172000FE015090FF018091020290910302481A3D
:10173000590A620157FE04C0CC24DD24C418D50820
:10174000410137FE04C0882499248218930854016B
:101750008C149D040CF45601B501882777FD809503
:10176000982F0E94AE1B7B018C01B401882777FD66
:101770008095982F0E94AE1BA80197010E94131B11
:101780006D837E838F839887B601882777FD809548
:10179000982F0E94AE1BA80197010E94131B69831A
:1017A0007A838B839C83BC86AB86EE24EA94FE2CE2
:1017B0000F2EF0E06F2EF0E07F2EF0E08F2EF0E0A5
:1017C0009F2EF02D64015301A9C0C401B3012D81E6
:1017D0003E814F8158850E94831A3B014C0120E0D5
:1017E00030E040E85FE30E94831C882314F1121468
:1017F00013041CF40091040202C000910502112799
:1018000007FD1095C8010E944E0BC401B30120E0F2
:1018100030E040E85FE30E94821A3B014C01809176
:10182000000290910102800F911F9093010280931A
:10183000000220910202309103028091FE019091FA
:10184000FF0128173907A1F1C601B50129813A81A5
:101850004B815C810E94831A5B016C0120E030E0C7
:1018600040E85FE30E94831C882314F114141504DC
:101870001CF40091060202C000910702112707FD27
:101880001095C8010E94370BC601B50120E030E079
:1018900040E85FE30E94821A5B016C0180910202C2
:1018A00090910302800F911F909303028093020294
:1018B00089859A858E0D9F1D20916101309162016D
:1018C000821793074CF040916301509164019C0191
:1018D000481759070CF49A0180912D0290912E021D
:1018E000820F931F9A8789870E94A61480916301B3
:1018F000909164012091610130916201821B930BF0
:10190000EB85FC85E817F9071CF4A1E0EA2EF12C21
:101910002B853C85215030403C872B87409100022D
:10192000509101028091FC019091FD0148175907E7
:1019300009F04BCF20910202309103028091FE0109
:101940009091FF012817390709F073CF2C960FB635
:10195000F894DEBF0FBECDBFCF91DF911F910F91E5
:10196000FF90EF90DF90CF90BF90AF909F908F90BF
:101970007F906F905F904F903F902F9008952F929F
:101980003F924F925F926F927F928F929F92AF920F
:10199000BF92CF92DF92EF92FF920F931F9320900E
:1019A000E8013090E9014090EA015090EB01C2015A
:1019B000B1012091E0013091E1014091E2015091AB
:1019C000E3010E94821A5B016C016090EC0170904F
:1019D000ED018090EE019090EF01C401B3012091E0
:1019E000E4013091E5014091E6015091E7010E9448
:1019F000821A7B018C01C601B501A60195010E94E6
:101A00008E1C5B016C01C801B701A80197010E94FF
:101A10008E1C9B01AC01C601B5010E94831A0E9475
:101A2000151D2FE632E143E85AE30E940F1B87FDA4
:101A30004AC0C201B101A40193010E9491086091C2
:101A40001D0270911E0280911F0290912002209130
:101A500021023091220240912302509124020E94DF
:101A6000480880912502909126029093FD01809371
:101A7000FC018091290290912A029093FF018093AA
:101A8000FE010E94650B8091E8019091E901A0910F
:101A9000EA01B091EB018093E0019093E101A09302
:101AA000E201B093E3018091EC019091ED01A091EE
:101AB000EE01B091EF018093E4019093E501A093D2
:101AC000E601B093E7011F910F91FF90EF90DF9037
:101AD000CF90BF90AF909F908F907F906F905F90CE
:101AE0004F903F902F900895FF920F931F93DF9395
:101AF000CF9300D0CDB7DEB76CE171E08E010F5F00
:101B00001F4FA8010E94F200F02E012F4DC08081CE
:101B1000883569F4CF0101960E94C2006093E80104
:101B20007093E9018093EA019093EB013DC0893500
:101B300069F4CF0101960E94C2006093EC0170939A
:101B4000ED018093EE019093EF012EC08A3569F488
:101B5000CF0101960E94C2006093F0017093F101E1
:101B60008093F2019093F3011FC0863499F4CF0162
:101B700001960E94C20020E030E040E752E40E945B
:101B8000131B6093DC017093DD018093DE01909361
:101B9000DF010AC0813441F4CF0101960E94C600E2
:101BA00090932E0280932D0280E090E06CE171E032
:101BB0004F2D502F0E94F200FC01009709F0A7CF93
:101BC0000E94BF0C0F900F90CF91DF911F910F914A
:101BD000FF900895CF93DF93EC010E94C6008130FF
:101BE000910521F04C9709F044C004C0CE010E9439
:101BF000740D3FC010922E0210922D026091A80128
:101C00007091A9012091A6013091A701620F731F65
:101C1000882777FD8095982F0E94AE1B2AE037ED2C
:101C200043E25CE30E94821A90586093E80170934B
:101C3000E9018093EA019093EB0180E090E0A0E05D
:101C4000B0E08093EC019093ED01A093EE01B0938E
:101C5000EF016091AC017091AD018AE192E00E94C8
:101C6000A40F80E192E060E070E00E94080F0E9403
:101C7000BF0CDF91CF910895FC018081873429F456
:101C8000CF0101960E94EA0D31C08D3429F4CF01B5
:101C900001960E9414082AC0803541F583EA93E03A
:101CA00067E471E00E9429194091E0015091E1013F
:101CB0006091E2017091E30183EA93E022E030E079
:101CC0000E94101A83EA93E06DE471E00E942919E2
:101CD0004091E4015091E5016091E6017091E701C6
:101CE00083EA93E022E030E00E94131A83EA93E053
:101CF00060E571E00E94261A08950F931F9383EA0E
:101D000093E00E947216892B59F183EA93E00E94B6
:101D10008E1690916F028A30B9F4E92FFF27E7FD04
:101D2000F0950FE212E0E00FF11F10829F5F909399
:101D30006F02C8010E943C0E80E4F80111928A955E
:101D4000E9F710926F020CC0903454F4E92FFF278A
:101D5000E7FDF095E15DFD4F80839F5F90936F02FB
:101D60001F910F910895DC01E62FF0E0EE0FFF1FA9
:101D7000EB59FE4F80818C93818111968C93119742
:101D800012966C930895FC0181810895DC01E62F81
:101D9000F0E0EE0FFF1FEB59FE4F80818C938181A5
:101DA00011968C93119712966C9381E0809380002A
:101DB0008BE08093810083E08093B00084E0809387
:101DC000B1000895FF920F931F938C01F62EFC0132
:101DD000818161E00E944B15F80181816F2D0E9485
:101DE0008A151F910F91FF900895FF920F931F93F3
:101DF0008C01F62EFC01808161E00E944B15F801F8
:101E000080816F2D0E948A151F910F91FF90089578
:101E1000EF92FF920F931F93CF93DF937C01EB011F
:101E20006F3F710519F014F0CFEFD0E08E018FEF06
:101E3000C130D8071CF401E01FEF0AC0D7FD08C06D
:101E4000C70161E00E94E20EF7018081BE010AC075
:101E5000C70160E00E94E20E66277727601B710BC6
:101E6000F70180810E94EB14DF91CF911F910F91B8
:101E7000FF90EF900895F999FECF72BD61BDF89A79
:101E800080B50895F999FECF1FBA72BD61BD40BDFE
:101E90000FB6F894FA9AF99A0FBE0895FC01809152
:101EA00071028C3090F480838F5F80937102815037
:101EB00090E0FC01EE0FFF1FE80FF91FEE58FD4FF9
:101EC00088EB9BE09283818308958FEF8083089550
:101ED000FC0120812C30B8F58181992787FD9095F0
:101EE00048E850E0481B590B440F551F440F551F3D
:101EF0006417750784F08281992787FD909548E5DE
:101F000052E0481B590B440F551F440F551F6417CF
:101F100075070CF4AB0142505040CA01AA2797FD47
:101F2000A095BA2F880F991FAA1FBB1F4FB7F8940F
:101F300030E0F901EE0FFF1FE20FF31FEE58FD4FE7
:101F4000928381834FBF0895AF92BF92CF92DF9269
:101F5000EF92FF920F931F93CF93DF93EC019B01BE
:101F600082E0603278070CF048C077FF03C020E0C1
:101F700030E005C0653B710514F024EB30E000D083
:101F800000D0B901882777FD8095982F29813327C4
:101F900027FD3095E8E8AE2EB12CA21AB30AAA0CA0
:101FA000BB1CAA0CBB1CCC24B7FCC094DC2CEA8163
:101FB000FF27E7FDF09528E532E02E1B3F0B220FAF
:101FC000331F220F331F442737FD4095542FEDB7A1
:101FD000FEB7218332834383548320E030E040E026
:101FE00050E004EBE02EF12C012D112D0E94391A46
:101FF0009B010F900F900F900F90CE01B9010E949E
:10200000680FDF91CF911F910F91FF90EF90DF90BC
:10201000CF90BF90AF900895CF92DF92EF92FF9252
:102020001F93CF93DF93EC01162F7A01690188810A
:102030008C3008F064C0862F61E00E944B158881C7
:1020400090E0FC01EE0FFF1FE80FF91FEE58FD4F67
:102050001F738081807C812B808380E292E08E19C7
:102060009F0964E070E00E94D71D698380E699E0D3
:102070008C199D0964E070E00E94D71D6A83A881D5
:102080008A2F6CE00E94B71D682F70E0AB01440FEF
:10209000551F460F571F440F551F440F551F20E073
:1020A00030E0C901840F951FFC01EE0FFF1FE80F00
:1020B000F91FEE58FD4F808186FD15C02F5F3F4F01
:1020C0002C30310571F724C01092800082E080939B
:1020D00081001092850010928400B19A80916F0067
:1020E000826080936F008A2F90E0FC01EE0FFF1F4B
:1020F000E80FF91FEE58FD4F80818064808388814E
:10210000DF91CF911F91FF90EF90DF90CF900895D6
:10211000672BD1F2E8CF40E252E020E639E00E949E
:102120000C1008951F920F920FB60F9211242F9347
:102130003F934F935F936F937F938F939F93AF934F
:10214000BF93EF93FF938091960287FF05C0109293
:102150008500109284002BC020919602332727FD22
:1021600030958091710290E02817390704F580912D
:102170009602992787FD9095FC01EE0FFF1FE80F4F
:10218000F91FEE58FD4F808186FF11C080919602A5
:10219000992787FD9095FC01EE0FFF1FE80FF91FAF
:1021A000EE58FD4F80818F7360E00E948A15809108
:1021B00096028F5F8093960220919602332727FD27
:1021C00030958091710290E0281739070CF04EC0CD
:1021D000809196028C300CF049C02091840030919F
:1021E000850080919602992787FD9095FC01EE0F5E
:1021F000FF1FE80FF91FEE58FD4F81819281820F7A
:10220000931F90938900809388008091960299276C
:1022100087FD9095FC01EE0FFF1FE80FF91FEE58A8
:10222000FD4F808186FF2BC080919602992787FD04
:102230009095FC01EE0FFF1FE80FF91FEE58FD4FC0
:1022400080818F7361E00E948A1519C080E49CE947
:1022500005C0809184009091850004969093890038
:10226000809388008FEF8093960209C0809184004C
:1022700090918500049680549C4940F3EACFFF91E9
:10228000EF91BF91AF919F918F917F916F915F91EE
:102290004F913F912F910F900FBE0F901F90189567
:1022A0000F931F93CF93DF93FC01738D769571701D
:1022B000A685B7859585772329F08C91892309F424
:1022C00054C004C08C91892309F04FC0838994893C
:1022D00020E001972FEF8F3F9207D9F7C589D68964
:1022E000A685B785158560E031E040E050E000E06C
:1022F000CE01202F01972FEF8F3F9207D9F78C91B6
:10230000812311F0632B03C0832F80956823330F43
:102310004F5F5F4F4830510559F78789908D20E016
:1023200001972FEF8F3F9207D9F771116095809138
:10233000D9022091DA0290E001968F73907030E01C
:102340008217930779F0E091D902F0E0E756FD4F4C
:1023500060838091D90290E001968F739070809392
:10236000D90203C0838D8160838FDF91CF911F914C
:102370000F9108951F920F920FB60F9211242F9371
:102380003F934F935F936F937F938F939F93AF93FD
:10239000BF93EF93FF9380919702909198020097DB
:1023A00011F00E945011FF91EF91BF91AF919F9159
:1023B0008F917F916F915F914F913F912F910F90EE
:1023C0000FBE0F901F9018951F920F920FB60F928D
:1023D00011242F933F934F935F936F937F938F932A
:1023E0009F93AF93BF93EF93FF9380919702909148
:1023F0009802009711F00E945011FF91EF91BF9148
:10240000AF919F918F917F916F915F914F913F918C
:102410002F910F900FBE0F901F9018951F920F9243
:102420000FB60F9211242F933F934F935F936F93A7
:102430007F938F939F93AF93BF93EF93FF9380917D
:10244000970290919802009711F00E945011FF910D
:10245000EF91BF91AF919F918F917F916F915F911C
:102460004F913F912F910F900FBE0F901F90189595
:102470002091FC0230E08091FB02281B3109C90148
:1024800008954091FB028091FC02481718F02FEF4D
:102490003FEF0AC0E42FF0E0E552FD4F8081282F86
:1024A00030E04F5F4093FB02C9010895E091FB02C9
:1024B0008091FC02E81718F0EFEFFFEF06C0F0E0A4
:1024C000E552FD4F8081E82FF0E0CF010895089597
:1024D000109223031092220388EE93E0A0E0B0E074
:1024E0008093240390932503A0932603B09327039E
:1024F0008FE791E090932103809320030895CF927A
:10250000DF92EF92FF920F931F93CF93DF937C01A3
:102510006B018A0180911F038823A1F0C0E0D0E005
:102520000DC0D701ED91FC91D601AC0FBD1F0190FC
:10253000F081E02DC7016C9109952196C017D10754
:1025400080F304C0CB01642F0E94E012C801DF9128
:10255000CF911F910F91FF90EF90DF90CF90089552
:10256000DF93CF930F92CDB7DEB7FC0169838091E3
:102570001F038823C9F080911E03803238F081E068
:1025800090E09383828320E030E015C080911D03AA
:10259000E82FF0E0E350FD4F998190838F5F8093A7
:1025A0001D0380931E0305C0CE01019661E00E94C9
:1025B000E01221E030E0C9010F90CF91DF91089542
:1025C000482F613210F081E0089580912C0384300F
:1025D00011F082E0089560937703A6E5B3E0842FBD
:1025E0009C01F90102C081918D938E2F841B861767
:1025F000D0F380E008951F920F920FB60F9211242E
:102600002F933F934F935F936F937F938F939F93FA
:10261000AF93BF93EF93FF938091B90090E0887FD1
:1026200090708836910509F4D3C0893691050CF075
:102630003EC08033910509F49DC081339105D4F4E7
:102640008031910509F474C0813191053CF4009703
:1026500009F41CC1089709F020C16AC080329105B5
:1026600009F483C08832910509F467C0489709F0DE
:1026700014C163C08834910509F4A8C08934910558
:102680004CF48833910509F477C08034910509F042
:1026900004C182C08835910509F483C08036910554
:1026A00009F496C08035910509F0F7C069C0803AF9
:1026B000910509F4A5C0813A9105ECF480389105A3
:1026C00009F48CC0813891054CF48037910509F4E8
:1026D0007FC08837910509F0E0C07AC08039910544
:1026E00009F47CC08839910509F4C8C0883891057F
:1026F00009F0D3C0C3C0883B910509F4ADC0893B44
:1027000091054CF4883A910509F491C0803B9105FC
:1027100009F0C3C08CC0883C910509F4B1C0883F62
:10272000910509F4AFC0803C910509F0B6C0A8C07E
:1027300080912D038093BB00A1C0909154038091A0
:102740005503981768F490915403E92FF0E0EC5C7E
:10275000FC4F80818093BB009F5F909354038EC099
:1027600080912E03882369F103C080E2809399034E
:1027700084ED8FC080E3FACF88E38093990380C013
:10278000809154039091BB00E82FF0E0EC5CFC4F8B
:1027900090838F5F809354039091540380915503ED
:1027A0006BC0809154039091BB00E82FF0E0EC5C8B
:1027B000FC4F90838F5F8093540380912E03882376
:1027C00029F481E080932F0384EA63C084E961C027
:1027D00083E080932C031092980350C0809198035B
:1027E000803208F04FC0809198039091BB00E82F91
:1027F000F0E0E858FC4F90838F5F809398033EC0D1
:1028000080919803803230F4E0919803F0E0E8582A
:10281000FC4F108260919803E0913203F0913303F2
:1028200088E793E070E009951092980329C084E04E
:1028300080932C031092760310927703E09130037B
:10284000F0913103099580917703882329F481E081
:10285000809377031092560390917603E92FF0E06E
:10286000EA5AFC4F80818093BB009F5F9093760370
:102870009091760380917703981720F485EC03C03C
:1028800085EC07C085E88093BC0007C010929903CF
:1028900085E98093BC0010922C03FF91EF91BF91CA
:1028A000AF919F918F917F916F915F914F913F91E8
:1028B0002F910F900FBE0F901F9018951F920F929F
:1028C0000FB60F9211242F933F938F939F93AF9343
:1028D000BF9380919E0390919F03A091A003B0911C
:1028E000A1033091A2030196A11DB11D232F2D5FDD
:1028F0002D3720F02D570196A11DB11D2093A20365
:1029000080939E0390939F03A093A003B093A10391
:1029100080919A0390919B03A0919C03B0919D0399
:102920000196A11DB11D80939A0390939B03A093E0
:102930009C03B0939D03BF91AF919F918F913F9165
:102940002F910F900FBE0F901F901895019739F09F
:10295000880F991F880F991F02970197F1F7089523
:10296000789484B5826084BD84B5816084BD85B56A
:10297000826085BD85B5816085BDEEE6F0E0808131
:1029800081608083E1E8F0E0108280818260808352
:10299000808181608083E0E8F0E0808181608083D5
:1029A000E1EBF0E0808184608083E0EBF0E0808107
:1029B00081608083EAE7F0E08081846080838081A9
:1029C0008260808380818160808380818068808351
:1029D0001092C10008951F93CF93DF93182FEB013E
:1029E00061E00E944B15209709F44AC0CF3FD10502
:1029F00009F449C0E12FF0E0E552FF4F84918330A4
:102A0000C1F0843028F4813051F08230B1F50CC02F
:102A1000863019F1873049F1843079F514C084B5D6
:102A2000806884BDC7BD33C084B5806284BDC8BD25
:102A30002EC080918000806880938000D0938900B0
:102A4000C093880024C080918000806280938000C1
:102A5000D0938B00C0938A001AC08091B000806828
:102A60008093B000C093B30012C08091B000806228
:102A70008093B000C093B4000AC0C038D1051CF4E4
:102A8000812F60E002C0812F61E00E948A15DF91F2
:102A9000CF911F910895CF93DF93482F50E0CA0143
:102AA00089539F4FFC0134914D545F4FFA0184913B
:102AB000882369F190E0880F991FFC01EB56FF4FC6
:102AC000A591B491FC01E156FF4FC591D4916623C5
:102AD00051F42FB7F8948C91932F909589238C9370
:102AE000888189230BC0623061F42FB7F8948C91F0
:102AF000932F909589238C938881832B88832FBF74
:102B000006C09FB7F8948C91832B8C939FBFDF9165
:102B1000CF910895482F50E0CA0185529F4FFC0184
:102B20002491CA0189539F4FFC0194914D545F4FEA
:102B3000FA013491332309F440C0222351F12330A8
:102B400071F0243028F42130A1F0223011F514C0A6
:102B50002630B1F02730C1F02430D9F404C0809180
:102B600080008F7703C0809180008F7D80938000EC
:102B700010C084B58F7702C084B58F7D84BD09C035
:102B80008091B0008F7703C08091B0008F7D8093DB
:102B9000B000E32FF0E0EE0FFF1FE156FF4FA591CD
:102BA000B4912FB7F894662321F48C9190958923E2
:102BB00002C08C91892B8C932FBF0895DC015C9609
:102BC0008C915C97FD01E80FF11DE35AFF4F2081C6
:102BD0005C968C915C9790E001968F7390705C96F8
:102BE0008C935C975696ED91FC9157972083509665
:102BF000ED91FC9151978081806480835B969C91DC
:102C00005B975C968C915C97981739F45296ED918E
:102C1000FC91539780818F7D80830895DF92EF929E
:102C2000FF920F931F93CF93DF93EC017A018B01F7
:102C3000D22EE889F98982E08083403081EE5807FE
:102C400080E0680780E07807A1F060E079E08DE33C
:102C500090E0A80197010E94EA1D215030404040B9
:102C60005040569547953795279580E12030380795
:102C700098F0E889F989108260E874E88EE190E0C4
:102C8000A80197010E94EA1D215030404040504069
:102C90005695479537952795EC85FD853083EE85CC
:102CA000FF852083188EEC89FD89D082EA89FB8913
:102CB000808180618083EA89FB898081886080834C
:102CC000EA89FB89808180688083EA89FB89808129
:102CD0008F7D8083DF91CF911F910F91FF90EF90B7
:102CE000DF900895FC01218D828D30E0205C3F4F04
:102CF000281B31092F733070C9010895FC01918D93
:102D0000828D981719F42FEF3FEF06C0828DE80FE0
:102D1000F11D858D282F30E0C9010895DC015996F9
:102D20009C9159975A968C915A97981719F42FEFAE
:102D30003FEF10C05A968C915A97FD01E80FF11D94
:102D4000958D5A968C915A978F5F8F735A968C9364
:102D5000292F30E0C9010895CF93DF93EC01888DCE
:102D6000882361F419C08C9185FF0AC0E889F9892C
:102D7000808185FF05C0CE010E94DE15AA89BB892E
:102D80008C9185FD05C0E889F989808186FD04C0A4
:102D90000FB607FEE8CFF4CFDF91CF9108950F93E0
:102DA0001F93CF93DF93EC01062F9B8D8C8D98178B
:102DB00091F5E889F989808185FF2DC0EE89FF8929
:102DC0006083E889F9898081806480831DC00FB6A3
:102DD00007FC08C0E889F989808185FF03C0CE011E
:102DE0000E94DE158C8D181791F38B8DFE01E80F74
:102DF000F11DE35AFF4F00831B8FEA89FB89808115
:102E00008062808381E0888F81E090E0DF91CF91C4
:102E10001F910F9108951B8D1F5F1F73E3CF87E9EB
:102E200097E1892B51F080E090E0892B31F00E94EE
:102E30009717882311F00E94000008951F920F92A7
:102E40000FB60F9211242F938F939F93EF93FF93BD
:102E5000E091B303F091B403808182FD16C0E0914C
:102E6000B903F091BA0320819091BC039F5F9F73D7
:102E70008091BD03981771F0E091BC03F0E0ED552F
:102E8000FC4F258F9093BC0305C0E091B903F091EE
:102E9000BA03E081FF91EF919F918F912F910F9055
:102EA0000FBE0F901F9018951092A6031092A503C5
:102EB00088EE93E0A0E0B0E08093A7039093A8038E
:102EC000A093A903B093AA038FE891E09093A40381
:102ED0008093A30385EC90E09093B0038093AF03BD
:102EE00084EC90E09093B2038093B10380EC90E087
:102EF0009093B4038093B30381EC90E09093B60376
:102F00008093B50382EC90E09093B8038093B7036D
:102F100086EC90E09093BA038093B9031092BC03BF
:102F20001092BD031092BE031092BF03089583EA6E
:102F300093E00E94721620E0892B09F021E0822F95
:102F400008951F920F920FB60F9211242F933F9363
:102F50004F935F936F937F938F939F93AF93BF93A1
:102F6000EF93FF9383EA93E00E94DE15FF91EF91C8
:102F7000BF91AF919F918F917F916F915F914F9191
:102F80003F912F910F900FBE0F901F901895CF93E8
:102F9000DF930E94B0140E94150BCFE0D7E10E948E
:102FA0007D0E2097E1F30E940F17F9CFCF92DF92A9
:102FB000EF92FF920F931F93CF93DF937C016B01EE
:102FC0008A01C0E0D0E00FC0D6016D916D01D7013C
:102FD000ED91FC910190F081E02DC7010995C80F9A
:102FE000D91F015010400115110571F7CE01DF9175
:102FF000CF911F910F91FF90EF90DF90CF900895A8
:10300000DC01ED91FC910190F081E02D099508958E
:10301000EF92FF920F931F938C01DC01ED91FC91D5
:103020000190F081E02D6DE009957C01D801ED91D2
:10303000FC910190F081E02DC8016AE009959C01A6
:103040002E0D3F1DC9011F910F91FF90EF90089524
:10305000CF93DF93EC016115710519F420E030E0A6
:103060000FC0DB010D900020E9F71197A61BB70BED
:10307000E881F9810280F381E02DAD0109959C0181
:10308000C901DF91CF9108954F925F927F928F9205
:103090009F92AF92BF92CF92DF92EF92FF920F93E7
:1030A0001F93DF93CF93CDB7DEB7A1970FB6F894F8
:1030B000DEBF0FBECDBF2C01742ECB01223008F431
:1030C0002AE019A231E2C32ED12CCC0EDD1E822EB5
:1030D0009924AA24BB24672D752FA50194010E9471
:1030E000EA1D79018A01C801B701A50194010E9476
:1030F000981D472D461B0894C108D1084A3014F486
:10310000405D01C0495CF6014083E114F104010512
:10311000110521F07E2C5F2DC801DDCFC201B60163
:103120000E942818A1960FB6F894DEBF0FBECDBF3F
:10313000CF91DF911F910F91FF90EF90DF90CF9093
:10314000BF90AF909F908F907F905F904F90089529
:10315000DC012115310541F4ED91FC910190F081E4
:10316000E02D642F099508950E9444180895CF9288
:10317000DF92EF92FF920F931F93CF93DF93EC01B7
:103180006A017B012115310541F4E881F981019043
:10319000F081E02D642F09951FC02A303105D1F44C
:1031A00077FF17C0E881F9810190F081E02D6DE291
:1031B00009958C0144275527BA014C195D096E0900
:1031C0007F09CE012AE00E9444189801280F391F78
:1031D00004C02AE00E9444189C01C901DF91CF91EC
:1031E0001F910F91FF90EF90DF90CF900895EF9295
:1031F000FF920F931F937B019A010027F7FC009524
:10320000102FB801A7010E94B7181F910F91FF90CE
:10321000EF900895CF92DF92EF92FF920F931F935A
:103220006C017B019A010027F7FC0095102FB80173
:10323000A7010E94B7188C01C6010E940818080F48
:10324000191FC8011F910F91FF90EF90DF90CF9051
:1032500008950E94281808957F928F929F92AF92AE
:10326000BF92CF92DF92EF92FF920F931F93CF9373
:10327000DF934C017A018B01722ECB01BA01A801B8
:1032800097010E94621D882321F0C40163E571E06B
:1032900021C0C0E0D0E057016801E894D7F8C6012A
:1032A000B5012FEF3FEF4FE75FE70E94621D8823D4
:1032B00051F4C601B5012FEF3FEF4FE75FE70E94E2
:1032C0000F1B181614F0C1E0D0E0219739F0C401AB
:1032D00067E571E00E942818EC0193C0C801B701AE
:1032E0002FEF3FEF4FE75FE40E94831C181654F066
:1032F000C801B7012FEF3FEF4FE75FEC0E940F1BB4
:10330000882324F4C4016BE571E0E4CFC801B70160
:1033100020E030E040E050E00E940F1B87FD03C03A
:10332000C0E0D0E00EC0D401ED91FC910190F0819D
:10333000E02DC4016DE20995EC0117FB109517F91A
:10334000109520E030E040E05FE3DD240BC0CA01CF
:10335000B90120E030E040E251E40E94131B9B01E0
:10336000AC01D394D71498F3C801B7010E94831A13
:103370005B016C010E94801B7B018C01C401B801C0
:10338000A7012AE030E00E94A818C80FD91F7720B3
:1033900039F0C4016FE571E00E942818C80FD91FE9
:1033A000C801B7010E94AC1B9B01AC01C601B5016D
:1033B0000E94821A24C020E030E040E251E40E94E2
:1033C0008E1C7B018C010E947B1B5B016C01CC2459
:1033D000B7FCC094DC2CC401B601A5012AE030E0A2
:1033E0000E94B718C80FD91FC601B5010E94AE1BB5
:1033F0009B01AC01C801B7010E94821A7A94772020
:10340000D1F6CE01DF91CF911F910F91FF90EF90F8
:10341000DF90CF90BF90AF909F908F907F90089556
:103420000E942C190895EF92FF920F931F937C0135
:103430000E942C198C01C7010E940818080F191F3F
:10344000C8011F910F91FF90EF900895EF92FF92A6
:103450000F931F937C010E9428188C01C7010E94C2
:103460000818080F191FC8011F910F91FF90EF90C6
:1034700008952F923F924F925F926F927F928F9218
:103480009F92AF92BF92CF92DF92EF92FF920F93F3
:103490001F93DF93CF93CDB7DEB73B014C011901EA
:1034A0002A016D897E898F89988D6A197B098C091B
:1034B0009D09621A730A840A950AA40193010E9465
:1034C000981DE218F30804091509A80197010E9444
:1034D0000C1E2A0D3B1D4C1D5D1DB901CA01CF916B
:1034E000DF911F910F91FF90EF90DF90CF90BF90F1
:1034F000AF909F908F907F906F905F904F903F9094
:103500002F9008955058BB27AA270ED0C2C1B3D11F
:1035100030F0B8D120F031F49F3F11F41EF483C194
:103520000EF4E095E7FB79C1E92FC4D180F3BA1717
:10353000620773078407950718F071F49EF5DCC1E4
:103540000EF4E0950B2EBA2FA02D0B01B9019001BE
:103550000C01CA01A0011124FF27591B99F0593F02
:1035600050F4503E68F11A16F040A22F232F342F4A
:103570004427585FF3CF469537952795A795F04098
:103580005395C9F77EF41F16BA0B620B730B840BAD
:10359000BAF09150A1F0FF0FBB1F661F771F881F65
:1035A000C2F70EC0BA0F621F731F841F48F48795BD
:1035B00077956795B795F7959E3F08F0B3CF9395AC
:1035C000880F08F09927EE0F979587950895DF9358
:1035D000DD27B92FBF7740E85FE3161617064807C7
:1035E0005B0710F4D92F93D19F938F937F936F93A1
:1035F00066D2E8E6F0E01AD14CD12F913F914F917D
:103600005F9198D1DD2349F09058A2EA2AED3FE07E
:1036100049EC5FE3D0785D2787DFDF913AC1D9D0ED
:1036200008F481E008950CD034C12CD140F023D1AE
:1036300030F021F45F3F19F0F0C051115EC1F3C0CA
:1036400039D198F39923C9F35523B1F3951B550B41
:10365000BB27AA2762177307840738F09F5F5F4F65
:10366000220F331F441FAA1FA9F333D00E2E3AF0A6
:10367000E0E830D091505040E695001CCAF729D0C0
:10368000FE2F27D0660F771F881FBB1F261737070F
:103690004807AB07B0E809F0BB0B802DBF01FF273F
:1036A00093585F4F2AF09E3F510568F0B6C025C180
:1036B0005F3FECF3983EDCF3869577956795B79579
:1036C000F7959F5FC9F7880F911D9695879597F994
:1036D0000895E1E0660F771F881FBB1F621773070D
:1036E0008407BA0720F0621B730B840BBA0BEE1F22
:1036F00088F7E095089504D06894B111FEC008954C
:10370000E1D088F09F5790F0B92F9927B751A0F0DA
:10371000D1F0660F771F881F991F1AF0BA95C9F765
:1037200012C0B13081F0E8D0B1E00895E5C0672F54
:10373000782F8827B85F39F0B93FCCF38695779515
:103740006795B395D9F73EF49095809570956195FE
:103750007F4F8F4F9F4F0895E89409C097FB3EF429
:1037600090958095709561957F4F8F4F9F4F9923CE
:10377000A9F0F92F96E9BB279395F695879577954C
:103780006795B795F111F8CFFAF4BB0F11F460FF0C
:103790001BC06F5F7F4F8F4F9F4F16C0882311F064
:1037A00096E911C0772321F09EE8872F762F05C078
:1037B000662371F096E8862F70E060E02AF09A9513
:1037C000660F771F881FDAF7880F9695879597F908
:1037D0000895990F0008550FAA0BE0E8FEEF1616A2
:1037E0001706E807F907C0F012161306E407F507F5
:1037F00098F0621B730B840B950B39F40A2661F069
:10380000232B242B252B21F408950A2609F4A1400B
:10381000A6958FEF811D811D089597F99F6780E818
:1038200070E060E008959FEF80EC0895DF93CF9300
:103830001F930F93FF92EF92DF927B018C016894AC
:1038400005C0DA2EEF0176D0FE01E894A59125910E
:10385000359145915591AEF3EF0166DEFE0197017A
:10386000A801DA9479F7DF90EF90FF900F911F9104
:10387000CF91DF91089500240A94161617061806B2
:103880000906089500240A94121613061406050664
:103890000895092E0394000C11F4882352F0BB0FF5
:1038A00040F4BF2B11F460FF04C06F5F7F4F8F4F58
:1038B0009F4F089557FD9058440F551F59F05F3F93
:1038C00071F04795880F97FB991F61F09F3F79F042
:1038D00087950895121613061406551FF2CF4695C4
:1038E000F1DF08C0161617061806991FF1CF869546
:1038F0007105610508940895E894BB27662777272A
:10390000CB0197F9089565DF08F48FEF08959B01C7
:10391000AC0160E070E080E89FE385CE0BD0B9CFCA
:10392000AADF28F0AFDF18F0952309F076CF7BCF20
:103930001124E3CFBFDFA0F3959FD1F3950F50E0A3
:10394000551F629FF001729FBB27F00DB11D639F51
:10395000AA27F00DB11DAA1F649F6627B00DA11DF7
:10396000661F829F2227B00DA11D621F739FB00D9D
:10397000A11D621F839FA00D611D221F749F33270D
:10398000A00D611D231F849F600D211D822F762FA6
:103990006A2F11249F5750408AF0E1F088234AF0A3
:1039A000EE0FFF1FBB1F661F771F881F91505040EF
:1039B000A9F79E3F510570F030CF9FCF5F3FECF3EA
:1039C000983EDCF3869577956795B795F795E795DB
:1039D0009F5FC1F7FE2B880F911D9695879597F9EC
:1039E000089570DFE0F09E37D8F09639B8F49E382D
:1039F00048F4672F782F8827985FF9CF86957795B9
:103A0000679593959539D0F3B62FB1706B0F711DF3
:103A1000811D20F4879577956795939557C071C060
:103A20006CCF11F40EF4FFCE6CC04CDFD0F39923B1
:103A3000D9F3CEF39F57550B87FF73D056959795C3
:103A4000B0E020F4660F771F881FBB1F1F930F93F2
:103A500000249001A0018001F001A0E80E0F1F1FBB
:103A60000A1E511D601B710B8009B50B48F4600FD5
:103A7000711F801DB51F0E1B1F0B0A0A510907C0BD
:103A80002E0F3F1F4A1F0E0F1F1F0A1E511D660FCC
:103A9000771F881FBB1FA695F795E795F8F60617C1
:103AA000170708065B07211D311D411D0F911F914E
:103AB000B901842F9158880F9695879508959B0199
:103AC000AC012CCF86DE880B990B0895882371F406
:103AD000772321F09850872B762F07C0662311F4A7
:103AE00099270DC09051862B70E060E02AF09A95DE
:103AF000660F771F881FDAF7880F9695879597F9D5
:103B000008959F3F49F0915028F4869577956795E1
:103B1000B7959F5F80389F4F880F9695879597F947
:103B2000089591505040660F771F881FD2F708956F
:103B3000629FD001739FF001829FE00DF11D649F91
:103B4000E00DF11D929FF00D839FF00D749FF00D1D
:103B5000659FF00D9927729FB00DE11DF91F639FBE
:103B6000B00DE11DF91FBD01CF0111240895991B6E
:103B700079E004C0991F961708F0961B881F7A9564
:103B8000C9F780950895AA1BBB1B51E107C0AA1F66
:103B9000BB1FA617B70710F0A61BB70B881F991FEE
:103BA0005A95A9F780959095BC01CD01089597FB92
:103BB000092E07260AD077FD04D0E5DF06D00020C5
:103BC0001AF4709561957F4F0895F6F79095819559
:103BD0009F4F0895A1E21A2EAA1BBB1BFD010DC029
:103BE000AA1FBB1FEE1FFF1FA217B307E407F507AD
:103BF00020F0A21BB30BE40BF50B661F771F881F89
:103C0000991F1A9469F760957095809590959B011E
:103C1000AC01BD01CF01089597FB092E05260ED0FA
:103C200057FD04D0D7DF0AD0001C38F450954095DA
:103C3000309521953F4F4F4F5F4F0895F6F7909580
:103C40008095709561957F4F8F4F9F4F0895EE0F30
:103C5000FF1F0590F491E02D0994911106C0803268
:103C600019F089508550D0F708959927882708952D
:103C70002F923F924F925F926F927F928F929F927C
:103C8000AF92BF92CF92DF92EF92FF920F931F936A
:103C9000CF93DF93CDB7DEB7CA1BDB0B0FB6F8941B
:103CA000DEBF0FBECDBF09942A88398848885F845B
:103CB0006E847D848C849B84AA84B984C884DF80CC
:103CC000EE80FD800C811B81AA81B981CE0FD11DB0
:103CD0000FB6F894DEBF0FBECDBFED010895F89486
:023CE000FFCF14
:103CE2005343415241340073657420746F206465FC
:103CF2006661756C742073657475700020004D32B6
:103D020020553A256420443A25640D0A004D31308D
:103D1200204D534341524120004100204200205394
:103D220000205500204400504F53205800205900D5
:103D32004F4B006E616E00696E66006F7666002EF4
:103D420000C800D007FFFF0B0A03090C0D0802FF91
:103D5200FF1011140F150E0607050400000000B035
:103D6200127F12381241125612671200000000CF61
:0C3D720016D61772168E167E16AC1600C0
:00000001FF
