:100000000C9482000C94AA000C94AA000C94690C25
:100010000C94930C0C94BD0C0C94AA000C94AA00A4
:100020000C94AA000C94AA000C94AA000C94410B06
:100030000C94AA000C94AA000C94AA000C94AA0098
:100040000C940D0F0C94AA000C9435120C94B81259
:100050000C94AA000C94AA000C94AA000C94AA0078
:100060000C94AA0D0C94AA000000000024002700A4
:100070002A0000000000250028002B0000000000DE
:1000800023002600290004040404040404040202DA
:100090000202020203030303030301020408102007
:1000A0004080010204081020010204081020000012
:1000B0000007000201000003040600000000000029
:1000C0000000494E46494E4954594E414ECDCCCC84
:1000D0003D0AD7233C17B7D13877CC2B329595E61C
:1000E000241FB14F0A000020410000C84200401CFC
:1000F0004620BCBE4CCA1B0E5AAEC59D74008E0273
:10010000170D6B1211241FBECFEFD8E0DEBFCDBF9D
:1001100011E0A0E0B1E0E8ECF1E302C005900D923F
:10012000A838B107D9F714E0A8E8B1E001C01D92E2
:10013000AA32B107E1F710E0C4E0D1E004C0229791
:10014000FE010E949C18CE3FD107C9F70E94DE1223
:100150000C94E2180C940000662777270C94160183
:10016000FC0188279927E89421912032E9F329306E
:1001700010F02E30C8F32B3241F02D3239F4689450
:1001800004C00E940E01820F911D219120532A303C
:10019000C0F31EF4909581959F4F0895FB01DC01FB
:1001A0004150504030F08D910190801919F4002099
:1001B000B9F7881B990B0895009731F4DA018D91F6
:1001C0009C91009709F40EC0DC01FB013D91219147
:1001D000222319F03217C9F3FACF332331F4DA01AD
:1001E0001D921C928827992708951197AF93BF936A
:1001F000FB013D912191321771F4332321F48827BB
:100200009927119702C01E921196FA01A193B0830B
:100210009F918F910895222369F7EACF7AE0979F03
:10022000902D879F802D910D11240895A0E0B0E0BE
:10023000ECE1F1E00C94B118EC015B016115710582
:1002400019F0FB0191838083F9908F2D90E00E943B
:10025000A018892BC9F7FDE2FF1621F4F990EE24CE
:10026000E39405C02BE2F21609F4F990EE248E0116
:1002700001501040C80162EC70E043E050E00E9481
:100280007602892B01F58E010E5F1F4FC80165ECC8
:1002900070E045E050E00E947602892B19F48E014F
:1002A000095F1F4FA114B10419F0F50111830083F8
:1002B000E0FC04C070E090E080E814C070E090E0E2
:1002C00080E86FEF08C1C8016AEC70E043E050E0DD
:1002D0000E947602892B69F4A114B10429F470E01C
:1002E00090E080EC6FE7F7C02296F501D183C083E0
:1002F000F6CF8824992440E050E060E070E0EF2DD4
:10030000E053EA30A0F5F2E0EF2A8E2D90E09C0158
:1003100028703070E2FE06C0232B79F50894811C0A
:10032000911C2BC0232B19F0089481089108DB0144
:10033000CA0112E0880F991FAA1FBB1F1A95D1F797
:10034000480F591F6A1F7B1F440F551F661F771FD9
:100350004E0F511D611D711D483929E9520729E9C8
:10036000620729E1720748F084E0E82A06C0EE3F00
:1003700031F4E3FC39C098E0E92AF990C0CFE533C5
:1003800011F0E53189F529912D3219F4E0E1EE2AD9
:1003900005C02B3219F081E090E003C0299182E082
:1003A00090E0E22FE053EA3018F0C81BD90B1CC0D4
:1003B00020E030E0FCE020383F075CF4C901880F02
:1003C000991F880F991F280F391F220F331F2E0FD7
:1003D000311DE991E053EA3068F3E4FE03C0309543
:1003E00021953F4F820E931ECE2CDD24E1FE07C0E7
:1003F000A114B10421F02197F501D183C083CB0171
:10040000BA010E9489167B018C01F3E0CF22DD2422
:1004100023E0C216D10421F417FB109517F91095AB
:1004200057016801C801B70120E030E040E050E02A
:100430000E94EC15882309F44AC097FE0DC021EEF6
:10044000E22E20E0F22E9094819491089394C0E2E1
:10045000D0E000E010E012C099EFE92E90E0F92E14
:10046000F6CFF7012591359145915491C601B5011B
:100470000E943F175B016C018C1A9D0A8C169D0629
:1004800084F7D595C7950F5F1F4F0630110529F0EA
:100490008CEF9FEFE80EF91EF1CFC501D6017C016C
:1004A0008D018C2D880F8D2D881F8F3F51F0C60137
:1004B000B50120E030E040E050E00E94EC158823D8
:1004C00031F482E290E090932904809328047E2DF9
:1004D0009F2D802F612F272F392F482F562FB9019D
:1004E000CA01CDB7DEB7ECE00C94CD18FB01DC01FE
:1004F0004150504088F08D9181341CF08B350CF4C4
:10050000805E659161341CF06B350CF4605E861B77
:10051000611171F3990B0895881BFCCF0F931F9302
:100520008CEF91E061E00E94620980E092E062E07D
:100530000E94620904E012E0C80167E00E946209BB
:1005400088E092E06AE00E947509C8010E94720981
:1005500080930C0210920D028EE092E00E94FD0941
:100560001F910F910895CF93DF93C0E0D0E0FE017B
:10057000E857FE4F88E592E0BE0140810E94F109F4
:100580002196C034D10599F7DF91CF9108950F934B
:100590001F93CF93DF93C0E0D0E088E592E0BE01E7
:1005A0000E94EA0908E811E0FE01E00FF11F8083D4
:1005B0002196C034D10589F7C80160E071E047E0B9
:1005C00050E00E94CE000097B9F18BE893E068E01C
:1005D00071E00E942A1580E4F80111928A95E9F7EA
:1005E000D801E0E0F1E087E001900D928150E1F761
:1005F00010929001109291011092920184EF91E07B
:1006000090939401809393018CEB92E090939601E8
:10061000809395012AE530E030939801209397016B
:1006200080EA90E090939A018093990130939C0125
:1006300020939B010E94B30280919001882329F4AA
:1006400081E08093F8018FEF04C08FEF8093F80171
:1006500081E08093F90180919101882329F481E060
:100660008093FA018FEF04C08FEF8093FA0181E04D
:100670008093FB01DF91CF911F910F910895DF923D
:10068000EF92FF920F931F93DF93CF9300D0CDB7DC
:10069000DEB76DE171E08E010F5F1F4FA8010E9470
:1006A000DC007C01D02E012F20C080E090E06DE1C5
:1006B00071E04D2D502F0E94DC007C01FC018081F7
:1006C000853549F4C70101960E94B00090939A01C4
:1006D000809399010AC0843441F4C70101960E94B5
:1006E000B00090939C0180939B01EF28F1F60E944B
:1006F000B3020F900F90CF91DF911F910F91FF9058
:10070000EF90DF900895DF92EF92FF920F931F9387
:10071000DF93CF9300D0CDB7DEB76DE171E08E01EE
:100720000F5F1F4FA8010E94DC007C01D02E012F1B
:100730003DC080E090E06DE171E04D2D502F0E94B2
:10074000DC007C01FC018081813439F4C701019611
:100750000E94B0008093900129C0823439F4C7010F
:1007600001960E94B0008093910120C0883449F422
:10077000C70101960E94B000909394018093930169
:1007800015C0873549F4C70101960E94B0009093C7
:100790009601809395010AC0833541F4C701019603
:1007A0000E94B0009093980180939701EF2809F67A
:1007B0000E94B3020F900F90CF91DF911F910F9184
:1007C000FF90EF90DF900895DF93CF9300D0CDB7E7
:1007D000DEB76DE171E0AE014F5F5F4F0E94DC005C
:1007E00089819A810E94B000BC018EE092E00E9453
:1007F000530A0F900F90CF91DF910895DF93CF931D
:1008000000D0CDB7DEB76DE171E0AE014F5F5F4F55
:100810000E94DC0089819A810E94B00090931202AC
:10082000809311020F900F90CF91DF9108950F9355
:100830001F930BE813E0C8016FE171E00E944014C0
:100840006091930170919401C8014AE050E00E94C8
:100850000E14C80160E20E94171360919501709117
:100860009601C8014AE050E00E940E14C80160E2FF
:100870000E9417134091CC015091CD016091CE019F
:100880007091CF01C80122E030E00E942715C80115
:1008900060E20E9417134091D0015091D101609104
:1008A000D2017091D301C80122E030E00E942715E7
:1008B000C80160E20E941713C8016CE271E00E9457
:1008C000401460919001C80170E04AE050E00E943D
:1008D0000E14C8016EE271E00E9440146091910113
:1008E000C80170E04AE050E00E940E14C80161E3C4
:1008F00071E00E94401460919201C80170E04AE0EA
:1009000050E00E940E14C80164E371E00E9440149C
:100910006091970170919801C8014AE050E00E94EF
:100920000E14C80167E371E00E94401460919901C0
:1009300070919A01C8014AE050E00E940E14C8016B
:100940006AE371E00E94401460919B0170919C01E8
:10095000C8014AE050E00E9421141F910F910895B0
:10096000DF93CF9300D0CDB7DEB76DE171E0AE017C
:100970004F5F5F4F0E94DC0089819A810E94B00026
:10098000BC0188E092E00E94B7090F900F90CF91D0
:10099000DF910895CF93DF93EC010E94B000833084
:1009A0009105D1F08430910534F48130910561F0E6
:1009B000029701F50DC085309105B1F085309105A4
:1009C0007CF00A97B9F414C0CE010E94E40312C06F
:1009D000CE010E943F030EC0CE010E94FE030AC05A
:1009E000CE010E94B00406C0CE010E94830302C063
:1009F0000E941704DF91CF910895AF92BF92CF92DA
:100A0000DF92EF92FF920F931F9380E090E0A0E0BF
:100A1000B0E08093CC019093CD01A093CE01B09330
:100A2000CF018093D0019093D101A093D201B093D4
:100A3000D3011092F5011092F4011092F701109277
:100A4000F601809195019091960162E070E00E941C
:100A50004A18882777FD8095982F0E948B165B0196
:100A60006C016091930170919401882777FD8095C6
:100A7000982F0E948B167B018C01C601B501A6013F
:100A800095010E943F175B016C01C801B701A801E5
:100A900097010E943F179B01AC01C601B5010E945E
:100AA00088150E94A6176093E0017093E10180937E
:100AB000E2019093E3016093E4017093E501809378
:100AC000E6019093E7016093130270931402809300
:100AD0001502909316021F910F91FF90EF90DF90F7
:100AE000CF90BF90AF9008950F931F938BE893E042
:100AF00040E052EC61E070E026E00E9425110E9487
:100B0000C7020EE012E060910C0270910D02C80164
:100B10000E943A0B0E94FD0464E670E080E090E0E1
:100B20000E949A0F6091990170919A01C8010E94E8
:100B3000530A1F910F9108951816190624F48CEF8B
:100B400091E060E003C08CEF91E061E00E94A409B5
:100B50008CEF91E061E00E9491098CEF91E060E000
:100B60000E94910908951816190624F480E092E075
:100B700060E003C080E092E061E00E94A40980E0B0
:100B800092E061E00E94910980E092E060E00E94C2
:100B9000910908952F923F924F925F926F927F92A8
:100BA0008F929F92AF92BF92CF92DF92EF92FF927D
:100BB0000F931F93DF93CF93CDB7DEB72C970FB66C
:100BC000F894DEBF0FBECDBF409050015090510150
:100BD0006090F0017090F1018091F4019091F50125
:100BE000681A790A8090F2019090F3018091F601E1
:100BF0009091F701881A990A640197FE04C0CC24E9
:100C0000DD24C818D908130177FE04C02224332438
:100C10002618370851012C143D040CF45601B50177
:100C2000882777FD8095982F0E948B167B018C0179
:100C3000B101882777FD8095982F0E948B16A80117
:100C400097010E94F0156D837E838F839887B6018C
:100C5000882777FD8095982F0E948B16A801970111
:100C60000E94F01569837A838B839C8315012FEF93
:100C70003FEF3A8729870F2EF0E0EF2EF0E0FF2EAE
:100C8000F0E00F2FF0E01F2FF02D57016801AAC0F0
:100C9000C801B7012D813E814F8158850E9488157A
:100CA0007B018C0120E030E040E85FE30E943B17CD
:100CB00088231CF1161417042CF48091F80121E00C
:100CC00030E004C08091F9012FEF3FEF4B855C8548
:100CD000240F351F3093F5012093F401992787FDE8
:100CE00090950E94B305C801B70120E030E040E8CC
:100CF0005FE30E9487157B018C018091F601909142
:100D0000F7019C878B878091F2019091F301EB852D
:100D1000FC85E817F907A9F1C601B50129813A81D7
:100D20004B815C810E9488155B016C0120E030E002
:100D300040E85FE30E943B1788231CF11814190454
:100D40002CF48091FA0121E030E004C08091FB0195
:100D50002FEF3FEF4B855C85240F351F3093F70154
:100D60002093F601992787FD90950E949C05C60166
:100D7000B50120E030E040E85FE30E9487155B01A9
:100D80006C0189859A85840D951D20914E013091C5
:100D90004F01821793074CF040915001509151013F
:100DA0009C01481759070CF49A0140901102509089
:100DB0001202420E531EC2010E94550F8091500133
:100DC0009091510120914E0130914F01821B930B64
:100DD0002816390624F481E090E09A8789870894E0
:100DE00021083108E091F401F091F501FC87EB87CF
:100DF0008091F0019091F101E817F90709F048CFCF
:100E00002091F6013091F7018091F2019091F30168
:100E10002817390709F071CF2C960FB6F894DEBF6A
:100E20000FBECDBFCF91DF911F910F91FF90EF903B
:100E3000DF90CF90BF90AF909F908F907F906F90FA
:100E40005F904F903F902F9008952F923F924F9236
:100E50005F926F927F928F929F92AF92BF92CF924A
:100E6000DF92EF92FF920F931F93DF93CF9300D007
:100E700000D0CDB7DEB78091D4019091D501A0917B
:100E8000D601B091D7019C01AD01505829833A8316
:100E90004B835C832093D4013093D5014093D601DA
:100EA0005093D701CA01B9012091CC013091CD01F5
:100EB0004091CE015091CF010E9487155B016C01DA
:100EC0006090D8017090D9018090DA019090DB0198
:100ED000C401B3012091D0013091D1014091D201E0
:100EE0005091D3010E9487157B018C01C601B50189
:100EF000A60195010E943F175B016C01C801B70173
:100F0000A80197010E943F179B01AC01C601B501E2
:100F10000E9488150E94A6172DEC3CEC4CEC5DE37A
:100F20000E94EC1587FDCEC08091950190919601AD
:100F300062E070E00E944A18882777FD8095982F1C
:100F40000E948B161B012C0169817A818B819C8107
:100F5000A20191010E9488157B018C01609193018F
:100F600070919401882777FD8095982F0E948B16A9
:100F7000A40193010E9487159B01AC010E943F17B9
:100F80005B016C01C801B701A80197010E943F17DE
:100F9000A60195010E9488150E94A6173B014C01ED
:100FA0006093E8017093E9018093EA019093EB016B
:100FB000C201B10129813A814B815C810E94871570
:100FC0009B01AC010E943F17A60195010E94881564
:100FD0000E94A6175B016C016093EC017093ED0118
:100FE0008093EE019093EF01E0901302F0901402D1
:100FF0000091150210911602C401B301A8019701D6
:101000000E94871522ED3EE74CE851E40E943F170D
:101010000E9458167093F1016093F001C601B5016A
:10102000A80197010E94871522ED3EE74CE851EC9C
:101030000E943F170E9458167093F3016093F201CB
:101040000E94CA058091E8019091E901A091EA010E
:10105000B091EB018093E0019093E101A093E20154
:10106000B093E3018091EC019091ED01A091EE012C
:10107000B091EF018093E4019093E501A093E60124
:10108000B093E7018091D4019091D501A091D60150
:10109000B091D7018093CC019093CD01A093CE0164
:1010A000B093CF018091D8019091D901A091DA013C
:1010B000B091DB018093D0019093D101A093D20134
:1010C000B093D3010F900F900F900F90CF91DF91BD
:1010D0001F910F91FF90EF90DF90CF90BF90AF9056
:1010E0009F908F907F906F905F904F903F902F9048
:1010F0000895DF92EF92FF920F931F93DF93CF93A8
:1011000000D0CDB7DEB76DE171E08E010F5F1F4FEC
:10111000A8010E94DC007C01D02E012F57C080E086
:1011200090E06DE171E04D2D502F0E94DC007C01BC
:10113000FC018081883569F4C70101960E94AC00EA
:101140006093D4017093D5018093D6019093D70119
:101150003DC0893569F4C70101960E94AC006093D7
:10116000D8017093D9018093DA019093DB012EC0EE
:101170008A3569F4C70101960E94AC006093DC01D6
:101180007093DD018093DE019093DF011FC08634F0
:1011900099F4C70101960E94AC0020E030E040E7DE
:1011A00052E40E94F0156093C8017093C9018093C6
:1011B000CA019093CB010AC0813441F4C701019662
:1011C0000E94B0009093120280931102EF2809F060
:1011D000A6CF0E9425070F900F90CF91DF911F910E
:1011E0000F91FF90EF90DF900895CF93DF93EC0184
:1011F0000E94B0008130910519F04C97D9F404C0D9
:10120000CE010E94790816C080E090E0A0E0B0E036
:101210008093D4019093D501A093D601B093D701C8
:101220008093D8019093D901A093DA01B093DB01A8
:101230000E942507DF91CF910895FC0180818734BA
:1012400059F4CF0101960E94F5088BE893E06DE315
:1012500071E00E942A1508958D3451F4CF01019652
:101260000E94CA048BE893E06DE371E00E942A15A6
:101270000895CF93DF938BE893E00E948911892B27
:10128000F1F08BE893E00E94A51190915702E92FAD
:10129000FF27E7FDF095C7E1D2E0EC0FFD1F80834B
:1012A0009F5F909357028A3051F4CE010E941D092E
:1012B00080E4FE0111928A95E9F710925702DF91BE
:1012C000CF910895DC01E62FF0E0EE0FFF1FEE5AFC
:1012D000FE4F80818C93818111968C931197129689
:1012E0006C930895FC0181810895DC01E62FF0E004
:1012F000EE0FFF1FEE5AFE4F80818C938181119675
:101300008C93119712966C9381E0809380008BE010
:101310008093810083E08093B00084E08093B100EB
:101320000895FF920F931F938C01F62EFC0181818B
:1013300061E00E946210F80181816F2D0E94A1106E
:101340001F910F91FF900895FF920F931F938C01AF
:10135000F62EFC01808161E00E946210F80180811C
:101360006F2D0E94A1101F910F91FF900895EF9291
:10137000FF920F931F93CF93DF937C01EB016F3F9D
:10138000710519F014F0CFEFD0E08E018FEFC1306E
:10139000D8071CF401E01FEF0AC0D7FD08C0C70141
:1013A00061E00E949109F7018081BE010AC0C70176
:1013B00060E00E94910966277727601B710BF70197
:1013C00080810E940210DF91CF911F910F91FF90B9
:1013D000EF900895F999FECF72BD61BDF89A80B57E
:1013E0000895F999FECF1FBA72BD61BD40BD0FB619
:1013F000F894FA9AF99A0FBE0895FC018091590267
:101400008C3090F480838F5F80935902815090E0FC
:10141000FC01EE0FFF1FE80FF91FE65AFD4F88EBA6
:101420009BE09283818308958FEF80830895FC0170
:1014300020812C30B8F58181992787FD909548E867
:1014400050E0481B590B440F551F440F551F64179C
:10145000750784F08281992787FD909548E552E0D1
:10146000481B590B440F551F440F551F6417750730
:101470000CF4AB0142505040CA01AA2797FDA09539
:10148000BA2F880F991FAA1FBB1F4FB7F89430E0DF
:10149000F901EE0FFF1FE20FF31FE65AFD4F928393
:1014A00081834FBF0895AF92BF92CF92DF92EF92A8
:1014B000FF920F931F93CF93DF93EC019B0182E088
:1014C000603278070CF048C077FF03C020E030E0BE
:1014D00005C0653B710514F024EB30E000D000D06E
:1014E000B901882777FD8095982F2981332727FD1B
:1014F0003095E8E8AE2EB12CA21AB30AAA0CBB1C98
:10150000AA0CBB1CCC24B7FCC094DC2CEA81FF27BE
:10151000E7FDF09528E532E02E1B3F0B220F331F2D
:10152000220F331F442737FD4095542FEDB7FEB7E8
:10153000218332834383548320E030E040E050E055
:1015400004EBE02EF12C012D112D0E943D159B0185
:101550000F900F900F900F90CE01B9010E94170AC3
:10156000DF91CF911F910F91FF90EF90DF90CF907F
:10157000BF90AF900895CF92DF92EF92FF921F93AA
:10158000CF93DF93EC01162F7A01690188818C30AB
:1015900008F064C0862F61E00E946210888190E0AC
:1015A000FC01EE0FFF1FE80FF91FE65AFD4F1F73F6
:1015B0008081807C812B808380E292E08E199F095C
:1015C00064E070E00E944A18698380E699E08C1913
:1015D0009D0964E070E00E944A186A83A8818A2FFE
:1015E0006CE00E942A18682F70E0AB01440F551F71
:1015F000460F571F440F551F440F551F20E030E082
:10160000C901840F951FFC01EE0FFF1FE80FF91FA2
:10161000E65AFD4F808186FD15C02F5F3F4F2C306D
:10162000310571F724C01092800082E08093810020
:101630001092850010928400B19A80916F008260B0
:1016400080936F008A2F90E0FC01EE0FFF1FE80FE0
:10165000F91FE65AFD4F8081806480838881DF9185
:10166000CF911F91FF90EF90DF90CF900895672B5F
:10167000D1F2E8CF40E252E020E639E00E94BB0A16
:1016800008951F920F920FB60F9211242F933F933C
:101690004F935F936F937F938F939F93AF93BF937A
:1016A000EF93FF9380917E0287FF05C01092850023
:1016B000109284002BC020917E02332727FD3095A5
:1016C0008091590290E02817390704F580917E0235
:1016D000992787FD9095FC01EE0FFF1FE80FF91F7A
:1016E000E65AFD4F808186FF11C080917E029927C6
:1016F00087FD9095FC01EE0FFF1FE80FF91FE65ADA
:10170000FD4F80818F7360E00E94A11080917E0266
:101710008F5F80937E0220917E02332727FD3095D4
:101720008091590290E0281739070CF04EC0809143
:101730007E028C300CF049C02091840030918500ED
:1017400080917E02992787FD9095FC01EE0FFF1F87
:10175000E80FF91FE65AFD4F81819281820F931F96
:10176000909389008093880080917E02992787FD5D
:101770009095FC01EE0FFF1FE80FF91FE65AFD4F91
:10178000808186FF2BC080917E02992787FD9095EE
:10179000FC01EE0FFF1FE80FF91FE65AFD4F808195
:1017A0008F7361E00E94A11019C080E49CE905C01C
:1017B0008091840090918500049690938900809395
:1017C00088008FEF80937E0209C080918400909101
:1017D0008500049680549C4940F3EACFFF91EF9135
:1017E000BF91AF919F918F917F916F915F914F9139
:1017F0003F912F910F900FBE0F901F9018950F9350
:101800001F93CF93DF93FC01738D76957170A6853E
:10181000B7859585772329F08C91892309F454C0E5
:1018200004C08C91892309F04FC08389948920E0FA
:1018300001972FEF8F3F9207D9F7C589D689A685E3
:10184000B785158560E031E040E050E000E0CE0172
:10185000202F01972FEF8F3F9207D9F78C9181238B
:1018600011F0632B03C0832F80956823330F4F5FE4
:101870005F4F4830510559F78789908D20E00197D7
:101880002FEF8F3F9207D9F7711160958091C102B8
:101890002091C20290E001968F73907030E0821721
:1018A000930779F0E091C102F0E0EF57FD4F6083BC
:1018B0008091C10290E001968F7390708093C10275
:1018C00003C0838D8160838FDF91CF911F910F9132
:1018D00008951F920F920FB60F9211242F933F93EA
:1018E0004F935F936F937F938F939F93AF93BF9328
:1018F000EF93FF9380917F0290918002009711F007
:101900000E94FF0BFF91EF91BF91AF919F918F913B
:101910007F916F915F914F913F912F910F900FBEEB
:101920000F901F9018951F920F920FB60F921124CF
:101930002F933F934F935F936F937F938F939F93D7
:10194000AF93BF93EF93FF9380917F0290918002BA
:10195000009711F00E94FF0BFF91EF91BF91AF91A3
:101960009F918F917F916F915F914F913F912F91B7
:101970000F900FBE0F901F9018951F920F920FB6E9
:101980000F9211242F933F934F935F936F937F9305
:101990008F939F93AF93BF93EF93FF9380917F02B9
:1019A00090918002009711F00E94FF0BFF91EF9140
:1019B000BF91AF919F918F917F916F915F914F9167
:1019C0003F912F910F900FBE0F901F90189520916F
:1019D000E40230E08091E302281B3109C901089537
:1019E0004091E3028091E402481718F02FEF3FEF97
:1019F0000AC0E42FF0E0ED53FD4F8081282F30E046
:101A00004F5F4093E302C9010895E091E3028091A2
:101A1000E402E81718F0EFEFFFEF06C0F0E0ED5337
:101A2000FD4F8081E82FF0E0CF01089508951092D6
:101A30000B0310920A0388EE93E0A0E0B0E08093DD
:101A40000C0390930D03A0930E03B0930F038CE649
:101A500091E090930903809308030895CF92DF9259
:101A6000EF92FF920F931F93CF93DF937C016B0153
:101A70008A01809107038823A1F0C0E0D0E00DC067
:101A8000D701ED91FC91D601AC0FBD1F0190F08103
:101A9000E02DC7016C9109952196C017D10780F3FD
:101AA00004C0CB01642F0E948F0DC801DF91CF913C
:101AB0001F910F91FF90EF90DF90CF900895DF93EB
:101AC000CF930F92CDB7DEB7FC01698380910703F6
:101AD0008823C9F080910603803238F081E090E0DD
:101AE0009383828320E030E015C080910503E82FC6
:101AF000F0E0EB51FD4F998190838F5F8093050358
:101B00008093060305C0CE01019661E00E948F0D0F
:101B100021E030E0C9010F90CF91DF910895482F67
:101B2000613210F081E0089580911403843011F047
:101B300082E0089560935F03AEE3B3E0842F9C01DD
:101B4000F90102C081918D938E2F841B8617D0F3EB
:101B500080E008951F920F920FB60F9211242F93D9
:101B60003F934F935F936F937F938F939F93AF9325
:101B7000BF93EF93FF938091B90090E0887F9070BE
:101B80008836910509F4D3C0893691050CF03EC022
:101B90008033910509F49DC081339105D4F48031DF
:101BA000910509F474C0813191053CF4009709F462
:101BB0001CC1089709F020C16AC08032910509F460
:101BC00083C08832910509F467C0489709F014C1B1
:101BD00063C08834910509F4A8C0893491054CF498
:101BE0008833910509F477C08034910509F004C168
:101BF00082C08835910509F483C08036910509F4C7
:101C000096C08035910509F0F7C069C0803A91050A
:101C100009F4A5C0813A9105ECF48038910509F4E6
:101C20008CC0813891054CF48037910509F47FC050
:101C30008837910509F0E0C07AC08039910509F430
:101C40007CC08839910509F4C8C08838910509F02D
:101C5000D3C0C3C0883B910509F4ADC0893B910551
:101C60004CF4883A910509F491C0803B910509F044
:101C7000C3C08CC0883C910509F4B1C0883F910570
:101C800009F4AFC0803C910509F0B6C0A8C08091AE
:101C900015038093BB00A1C090913C0380913D034C
:101CA000981768F490913C03E92FF0E0E45EFC4F54
:101CB00080818093BB009F5F90933C038EC0809196
:101CC0001603882369F103C080E28093810384EDC9
:101CD0008FC080E3FACF88E38093810380C0809136
:101CE0003C039091BB00E82FF0E0E45EFC4F908352
:101CF0008F5F80933C0390913C0380913D036BC0C8
:101D000080913C039091BB00E82FF0E0E45EFC4F33
:101D100090838F5F80933C0380911603882329F47E
:101D200081E08093170384EA63C084E961C083E0A3
:101D3000809314031092800350C0809180038032FE
:101D400008F04FC0809180039091BB00E82FF0E035
:101D5000E05AFC4F90838F5F809380033EC0809158
:101D60008003803230F4E0918003F0E0E05AFC4FD1
:101D7000108260918003E0911A03F0911B0380E6CA
:101D800093E070E009951092800329C084E080936D
:101D9000140310925E0310925F03E0911803F09118
:101DA0001903099580915F03882329F481E08093CA
:101DB0005F0310923E0390915E03E92FF0E0E25C36
:101DC000FC4F80818093BB009F5F90935E03909156
:101DD0005E0380915F03981720F485EC03C085ECC7
:101DE00007C085E88093BC0007C01092810385E995
:101DF0008093BC0010921403FF91EF91BF91AF91BB
:101E00009F918F917F916F915F914F913F912F9112
:101E10000F900FBE0F901F9018951F920F920FB644
:101E20000F9211242F933F938F939F93AF93BF9360
:101E30008091860390918703A0918803B0918903D4
:101E400030918A030196A11DB11D232F2D5F2D37DF
:101E500020F02D570196A11DB11D20938A03809378
:101E6000860390938703A0938803B093890380919E
:101E7000820390918303A0918403B091850301961E
:101E8000A11DB11D8093820390938303A0938403CB
:101E9000B0938503BF91AF919F918F913F912F9107
:101EA0000F900FBE0F901F901895019739F0880F73
:101EB000991F880F991F02970197F1F70895789459
:101EC00084B5826084BD84B5816084BD85B582603F
:101ED00085BD85B5816085BDEEE6F0E080818160DD
:101EE0008083E1E8F0E010828081826080838081DD
:101EF00081608083E0E8F0E0808181608083E1EBB5
:101F0000F0E0808184608083E0EBF0E0808181609C
:101F10008083EAE7F0E08081846080838081826052
:101F2000808380818160808380818068808310923B
:101F3000C1000895EF92FF920F931F93CF93DF9309
:101F40007B018C013FB7F8948091820390918303C9
:101F5000A0918403B091850326B5A89B05C02F3FAF
:101F600019F00196A11DB11D3FBFBA2FA92F982FBF
:101F70008827820F911DA11DB11D52E0880F991F66
:101F8000AA1FBB1F5A95D1F7EC0130C00E948615DD
:101F90003FB7F8948091820390918303A0918403CA
:101FA000B091850326B5A89B05C02F3F19F0019677
:101FB000A11DB11D3FBFBA2FA92F982F8827820FCF
:101FC000911DA11DB11D32E0880F991FAA1FBB1FD3
:101FD0003A95D1F78C1B9D0B885E9340B8F208941C
:101FE000E108F10801091109C851DC4FE114F104BD
:101FF0000105110559F6DF91CF911F910F91FF90C7
:10200000EF9008951F93CF93DF93182FEB0161E0BA
:102010000E946210209709F44AC0CF3FD10509F40D
:1020200049C0E12FF0E0E255FF4F84918330C1F0C9
:10203000843028F4813051F08230B1F50CC0863004
:1020400019F1873049F1843079F514C084B580687E
:1020500084BDC7BD33C084B5806284BDC8BD2EC0F9
:1020600080918000806880938000D0938900C09325
:10207000880024C080918000806280938000D0938B
:102080008B00C0938A001AC08091B0008068809352
:10209000B000C093B30012C08091B0008062809302
:1020A000B000C093B4000AC0C038D1051CF4812F21
:1020B00060E002C0812F61E00E94A110DF91CF910A
:1020C0001F910895CF93DF93482F50E0CA018656A1
:1020D0009F4FFC0134914A575F4FFA018491882346
:1020E00069F190E0880F991FFC01E859FF4FA59115
:1020F000B491FC01EE58FF4FC591D491662351F481
:102100002FB7F8948C91932F909589238C93888185
:1021100089230BC0623061F42FB7F8948C91932F10
:10212000909589238C938881832B88832FBF06C049
:102130009FB7F8948C91832B8C939FBFDF91CF91A5
:102140000895482F50E0CA0182559F4FFC01249109
:10215000CA0186569F4FFC0194914A575F4FFA017E
:102160003491332309F440C0222351F1233071F01C
:10217000243028F42130A1F0223011F514C026308B
:10218000B1F02730C1F02430D9F404C08091800030
:102190008F7703C0809180008F7D8093800010C076
:1021A00084B58F7702C084B58F7D84BD09C08091CE
:1021B000B0008F7703C08091B0008F7D8093B00016
:1021C000E32FF0E0EE0FFF1FEE58FF4FA591B49103
:1021D0002FB7F894662321F48C919095892302C03F
:1021E0008C91892B8C932FBF0895DC015C968C9188
:1021F0005C97FD01E80FF11DE35AFF4F20815C96CB
:102200008C915C9790E001968F7390705C968C93A4
:102210005C975696ED91FC91579720835096ED91DF
:10222000FC9151978081806480835B969C915B9741
:102230005C968C915C97981739F45296ED91FC91CD
:10224000539780818F7D80830895DF92EF92FF9274
:102250000F931F93CF93DF93EC017A018B01D22E62
:10226000E889F98982E08083403081EE580780E078
:10227000680780E07807A1F060E079E08DE390E006
:10228000A80197010E945D18215030404040504005
:10229000569547953795279580E12030380798F077
:1022A000E889F989108260E874E88EE190E0A8017D
:1022B00097010E945D182150304040405040569593
:1022C000479537952795EC85FD853083EE85FF850D
:1022D0002083188EEC89FD89D082EA89FB89808170
:1022E00080618083EA89FB89808188608083EA89B4
:1022F000FB89808180688083EA89FB8980818F7D6A
:102300008083DF91CF911F910F91FF90EF90DF902D
:102310000895FC01218D828D30E0205C3F4F281B09
:1023200031092F733070C9010895FC01918D828DA0
:10233000981719F42FEF3FEF06C0828DE80FF11DBB
:10234000858D282F30E0C9010895DC0159969C91B4
:1023500059975A968C915A97981719F42FEF3FEF87
:1023600010C05A968C915A97FD01E80FF11D958D7A
:102370005A968C915A978F5F8F735A968C93292F08
:1023800030E0C9010895CF93DF93EC01888D882355
:1023900061F419C08C9185FF0AC0E889F9898081B0
:1023A00085FF05C0CE010E94F510AA89BB898C91DA
:1023B00085FD05C0E889F989808186FD04C00FB6D6
:1023C00007FEE8CFF4CFDF91CF9108950F931F93CD
:1023D000CF93DF93EC01062F9B8D8C8D981791F591
:1023E000E889F989808185FF2DC0EE89FF896083A6
:1023F000E889F9898081806480831DC00FB607FC5D
:1024000008C0E889F989808185FF03C0CE010E9458
:10241000F5108C8D181791F38B8DFE01E80FF11DCF
:10242000E35AFF4F00831B8FEA89FB89808180621A
:10243000808381E0888F81E090E0DF91CF911F91D0
:102440000F9108951B8D1F5F1F73E3CF8EEA92E1FA
:10245000892B51F080E090E0892B31F00E94AE1280
:10246000882311F00E94000008951F920F920FB66A
:102470000F9211242F938F939F93EF93FF93E091EB
:102480009B03F0919C03808182FD16C0E091A10323
:10249000F091A20320819091A4039F5F9F7380918C
:1024A000A503981771F0E091A403F0E0E557FC4F05
:1024B000258F9093A40305C0E091A103F091A2039E
:1024C000E081FF91EF919F918F912F910F900FBE1F
:1024D0000F901F90189510928E0310928D0388EE26
:1024E00093E0A0E0B0E080938F0390939003A093DB
:1024F0009103B09392038CE791E090938C038093C7
:102500008B0385EC90E0909398038093970384EC81
:1025100090E090939A038093990380EC90E09093DD
:102520009C0380939B0381EC90E090939E038093A7
:102530009D0382EC90E09093A00380939F0386EC30
:1025400090E09093A2038093A1031092A4031092B1
:10255000A5031092A6031092A70308958BE893E0B9
:102560000E94891120E0892B09F021E0822F089533
:102570001F920F920FB60F9211242F933F934F93F8
:102580005F936F937F938F939F93AF93BF93EF93DB
:10259000FF938BE893E00E94F510FF91EF91BF91BC
:1025A000AF919F918F917F916F915F914F913F91EB
:1025B0002F910F900FBE0F901F901895CF93DF9320
:1025C0000E945F0F0E947405C6E2D2E10E943909A1
:1025D0002097E1F30E942612F9CFCF92DF92EF927B
:1025E000FF920F931F93CF93DF937C016B018A01BE
:1025F000C0E0D0E00FC0D6016D916D01D701ED9123
:10260000FC910190F081E02DC7010995C80FD91FF9
:10261000015010400115110571F7CE01DF91CF91E6
:102620001F910F91FF90EF90DF90CF900895DC0104
:10263000ED91FC910190F081E02D09950895EF92C4
:10264000FF920F931F938C01DC01ED91FC9101909F
:10265000F081E02D6DE009957C01D801ED91FC91B0
:102660000190F081E02DC8016AE009959C012E0DD2
:102670003F1DC9011F910F91FF90EF900895CF93D7
:10268000DF93EC016115710519F420E030E00FC013
:10269000DB010D900020E9F71197A61BB70BE8812D
:1026A000F9810280F381E02DAD0109959C01C901FA
:1026B000DF91CF9108954F925F927F928F929F9278
:1026C000AF92BF92CF92DF92EF92FF920F931F9340
:1026D000DF93CF93CDB7DEB7A1970FB6F894DEBFE7
:1026E0000FBECDBF2C01742ECB01223008F42AE09E
:1026F00019A231E2C32ED12CCC0EDD1E822E9924DC
:10270000AA24BB24672D752FA50194010E945D1892
:1027100079018A01C801B701A50194010E940B1833
:10272000472D461B0894C108D1084A3014F4405D77
:1027300001C0495CF6014083E114F1040105110573
:1027400021F07E2C5F2DC801DDCFC201B6010E94B1
:102750003F13A1960FB6F894DEBF0FBECDBFCF9149
:10276000DF911F910F91FF90EF90DF90CF90BF907E
:10277000AF909F908F907F905F904F900895DC0175
:102780002115310541F4ED91FC910190F081E02D8E
:10279000642F099508950E945B130895CF92DF92EC
:1027A000EF92FF920F931F93CF93DF93EC016A0197
:1027B0007B012115310541F4E881F9810190F08117
:1027C000E02D642F09951FC02A303105D1F477FF21
:1027D00017C0E881F9810190F081E02D6DE2099543
:1027E0008C0144275527BA014C195D096E097F09F0
:1027F000CE012AE00E945B139801280F391F04C004
:102800002AE00E945B139C01C901DF91CF911F91C7
:102810000F91FF90EF90DF90CF900895EF92FF928D
:102820000F931F937B019A010027F7FC0095102F4F
:10283000B801A7010E94CE131F910F91FF90EF9056
:102840000895CF92DF92EF92FF920F931F936C0146
:102850007B019A010027F7FC0095102FB801A70112
:102860000E94CE138C01C6010E941F13080F191F6E
:10287000C8011F910F91FF90EF90DF90CF900895C6
:102880000E943F1308957F928F929F92AF92BF92C2
:10289000CF92DF92EF92FF920F931F93CF93DF932C
:1028A0004C017A018B01722ECB01BA01A80197016C
:1028B0000E94F017882321F0C40160E471E021C078
:1028C000C0E0D0E057016801E894D7F8C601B5012F
:1028D0002FEF3FEF4FE75FE70E94F017882351F497
:1028E000C601B5012FEF3FEF4FE75FE70E94EC1500
:1028F000181614F0C1E0D0E0219739F0C40164E467
:1029000071E00E943F13EC0193C0C801B7012FEFA3
:102910003FEF4FE75FE40E943B17181654F0C801E1
:10292000B7012FEF3FEF4FE75FEC0E94EC158823D4
:1029300024F4C40168E471E0E4CFC801B70120E0E9
:1029400030E040E050E00E94EC1587FD03C0C0E09D
:10295000D0E00EC0D401ED91FC910190F081E02D0A
:10296000C4016DE20995EC0117FB109517F910955C
:1029700020E030E040E05FE3DD240BC0CA01B90194
:1029800020E030E040E251E40E94F0159B01AC01F0
:10299000D394D71498F3C801B7010E9488155B013E
:1029A0006C010E945D167B018C01C401B801A70176
:1029B0002AE030E00E94BF13C80FD91F772039F0FA
:1029C000C4016CE471E00E943F13C80FD91FC80115
:1029D000B7010E9489169B01AC01C601B5010E9496
:1029E000871524C020E030E040E251E40E943F1708
:1029F0007B018C010E9458165B016C01CC24B7FC52
:102A0000C094DC2CC401B601A5012AE030E00E948C
:102A1000CE13C80FD91FC601B5010E948B169B01AA
:102A2000AC01C801B7010E9487157A947720D1F6CE
:102A3000CE01DF91CF911F910F91FF90EF90DF902A
:102A4000CF90BF90AF909F908F907F9008950E94FD
:102A500043140895EF92FF920F931F937C010E94FD
:102A60003F138C01C7010E941F13080F191FC801D3
:102A70001F910F91FF90EF9008952F923F924F92E8
:102A80005F926F927F928F929F92AF92BF92CF92FE
:102A9000DF92EF92FF920F931F93DF93CF93CDB707
:102AA000DEB73B014C0119012A016D897E898F89AE
:102AB000988D6A197B098C099D09621A730A840A28
:102AC000950AA40193010E940B18E218F308040967
:102AD0001509A80197010E947F182A0D3B1D4C1D66
:102AE0005D1DB901CA01CF91DF911F910F91FF9038
:102AF000EF90DF90CF90BF90AF909F908F907F909E
:102B00006F905F904F903F902F9008950895505888
:102B1000BB27AA270ED075C166D130F06BD120F04B
:102B200031F49F3F11F41EF45BC10EF4E095E7FB16
:102B300051C1E92F77D180F3BA1762077307840771
:102B4000950718F071F49EF58FC10EF4E0950B2EE9
:102B5000BA2FA02D0B01B90190010C01CA01A001EF
:102B60001124FF27591B99F0593F50F4503E68F14A
:102B70001A16F040A22F232F342F4427585FF3CF8B
:102B8000469537952795A795F0405395C9F77EF45C
:102B90001F16BA0B620B730B840BBAF09150A1F0A5
:102BA000FF0FBB1F661F771F881FC2F70EC0BA0F2B
:102BB000621F731F841F48F4879577956795B795B3
:102BC000F7959E3F08F0B3CF9395880F08F09927AB
:102BD000EE0F979587950895D9D008F481E0089570
:102BE0000CD00FC107D140F0FED030F021F45F3F90
:102BF00019F0F0C0511139C1F3C014D198F39923E1
:102C0000C9F35523B1F3951B550BBB27AA276217B0
:102C10007307840738F09F5F5F4F220F331F441FF5
:102C2000AA1FA9F333D00E2E3AF0E0E830D091502D
:102C30005040E695001CCAF729D0FE2F27D0660F1A
:102C4000771F881FBB1F261737074807AB07B0E859
:102C500009F0BB0B802DBF01FF2793585F4F2AF06F
:102C60009E3F510568F0B6C000C15F3FECF3983E4F
:102C7000DCF3869577956795B795F7959F5FC9F7CC
:102C8000880F911D9695879597F90895E1E0660F55
:102C9000771F881FBB1F621773078407BA0720F0CE
:102CA000621B730B840BBA0BEE1F88F7E095089537
:102CB00004D06894B111D9C00895BCD088F09F5752
:102CC00090F0B92F9927B751A0F0D1F0660F771F78
:102CD000881F991F1AF0BA95C9F712C0B13081F058
:102CE000C3D0B1E00895C0C0672F782F8827B85FA0
:102CF00039F0B93FCCF3869577956795B395D9F7B9
:102D00003EF490958095709561957F4F8F4F9F4FC2
:102D10000895E89409C097FB3EF4909580957095CE
:102D200061957F4F8F4F9F4F9923A9F0F92F96E917
:102D3000BB279395F695879577956795B795F1118C
:102D4000F8CFFAF4BB0F11F460FF1BC06F5F7F4F29
:102D50008F4F9F4F16C0882311F096E911C077233B
:102D600021F09EE8872F762F05C0662371F096E844
:102D7000862F70E060E02AF09A95660F771F881F13
:102D8000DAF7880F9695879597F90895990F0008B7
:102D9000550FAA0BE0E8FEEF16161706E807F9072D
:102DA000C0F012161306E407F50798F0621B730BC8
:102DB000840B950B39F40A2661F0232B242B252B49
:102DC00021F408950A2609F4A140A6958FEF811DEC
:102DD000811D089597F99F6780E870E060E008958D
:102DE0009FEF80EC089500240A9416161706180623
:102DF0000906089500240A941216130614060506FF
:102E00000895092E0394000C11F4882352F0BB0F8F
:102E100040F4BF2B11F460FF04C06F5F7F4F8F4FF2
:102E20009F4F089557FD9058440F551F59F05F3F2D
:102E300071F04795880F97FB991F61F09F3F79F0DC
:102E400087950895121613061406551FF2CF46955E
:102E5000F1DF08C0161617061806991FF1CF8695E0
:102E60007105610508940895E894BB2766277727C4
:102E7000CB0197F908958ADF08F48FEF08950BD0FE
:102E8000C0CFB1DF28F0B6DF18F0952309F0A2CF4C
:102E9000A7CF1124EACFC6DFA0F3959FD1F3950FFA
:102EA00050E0551F629FF001729FBB27F00DB11DCE
:102EB000639FAA27F00DB11DAA1F649F6627B00D5E
:102EC000A11D661F829F2227B00DA11D621F739F47
:102ED000B00DA11D621F839FA00D611D221F749F55
:102EE0003327A00D611D231F849F600D211D822F9C
:102EF000762F6A2F11249F5750408AF0E1F08823E3
:102F00004AF0EE0FFF1FBB1F661F771F881F9150EF
:102F10005040A9F79E3F510570F05CCFA6CF5F3FB0
:102F2000ECF3983EDCF3869577956795B795F79522
:102F3000E7959F5FC1F7FE2B880F911D96958795AA
:102F400097F9089511F40EF44BCF4EC073DFD0F310
:102F50009923D9F3CEF39F57550B87FF55D056953C
:102F60009795B0E020F4660F771F881FBB1F1F9353
:102F70000F9300249001A0018001F001A0E80E0F42
:102F80001F1F0A1E511D601B710B8009B50B48F4F1
:102F9000600F711F801DB51F0E1B1F0B0A0A510900
:102FA00007C02E0F3F1F4A1F0E0F1F1F0A1E511D65
:102FB000660F771F881FBB1FA695F795E795F8F654
:102FC0000617170708065B07211D311D411D0F91CC
:102FD0001F91B901842F9158880F96958795089570
:102FE000D5DE880B990B08959F3F49F0915028F446
:102FF000869577956795B7959F5F80389F4F880F27
:103000009695879597F9089591505040660F771FD0
:10301000881FD2F70895629FD001739FF001829FAD
:10302000E00DF11D649FE00DF11D929FF00D839F57
:10303000F00D749FF00D659FF00D9927729FB00DF4
:10304000E11DF91F639FB00DE11DF91FBD01CF0107
:1030500011240895991B79E004C0991F961708F070
:10306000961B881F7A95C9F780950895AA1BBB1BEC
:1030700051E107C0AA1FBB1FA617B70710F0A61B78
:10308000B70B881F991F5A95A9F780959095BC0199
:10309000CD01089597FB092E07260AD077FD04D0AD
:1030A000E5DF06D000201AF4709561957F4F0895F2
:1030B000F6F7909581959F4F0895A1E21A2EAA1BCD
:1030C000BB1BFD010DC0AA1FBB1FEE1FFF1FA217D8
:1030D000B307E407F50720F0A21BB30BE40BF50BD5
:1030E000661F771F881F991F1A9469F7609570955E
:1030F000809590959B01AC01BD01CF01089597FB90
:10310000092E05260ED057FD04D0D7DF0AD0001CAB
:1031100038F450954095309521953F4F4F4F5F4F74
:103120000895F6F790958095709561957F4F8F4F34
:103130009F4F0895EE0FFF1F0590F491E02D099425
:10314000911106C0803219F089508550D0F708954A
:103150009927882708952F923F924F925F926F92FE
:103160007F928F929F92AF92BF92CF92DF92EF9217
:10317000FF920F931F93CF93DF93CDB7DEB7CA1B98
:10318000DB0B0FB6F894DEBF0FBECDBF09942A88C3
:10319000398848885F846E847D848C849B84AA846B
:1031A000B984C884DF80EE80FD800C811B81AA81F8
:1031B000B981CE0FD11D0FB6F894DEBF0FBECDBFC3
:0831C000ED010895F894FFCF22
:1031C800535049444552310073657420746F20642C
:1031D800656661756C742073657475700020004DA8
:1031E8003130204D5350494445522000410020427F
:1031F800002048002053002055002044004F4B0079
:103208006E616E00696E66006F7666002E00900132
:10321800B80BFFFF0B0A03090C0D0802FFFF101182
:10322800140F150E06070504000000005F0D2E0D93
:10323800E70CF00C050D160D00000000E611ED126C
:083248008911A5119511C311B4
:00000001FF
